:100000000C9454080C949B080C949B080C949B082B
:100010000C949B080C949B080C949B080C949B08D4
:100020000C949B080C949B080C9432120C940413AF
:100030000C9425270C949B080C949B080C949B080B
:100040000C949B080C9446310C949B080C949B08D0
:100050000C949B080C94D8270C949B080C949B0838
:100060000C949B080C949B080C949B080C949B0884
:100070000C949B080C949B080C949B080C949B0874
:100080000C949B080C949B080C949B080C949B0864
:100090000C949B080C949B080C949B080C949B0854
:1000A0000C949B080C949B080C949B0863096709AB
:1000B0006B096F097309770980097B097113931321
:1000C000811493138114D813FB13811450146314F7
:1000D000511B511B7E1B7E1BD51B0F1C7C1E7C1EC7
:1000E000271C7C1E241D241DDF1DF51D7C1E681E83
:1000F000F1A100D200D100D005F007F006F007F121
:1001000006F107F206F2291E1F20212223242526AC
:10011000272D2E352A2B141A0815171C180C12130C
:100120002F303139041607090A0B0D0E0F3334280E
:10013000E1641D1B0619051110363738E535E0E37B
:10014000E22CC0E765E4353A3B3C3D3E3F4041424E
:10015000434445014C010152C4C5C7C901010146D0
:100160004748490150514FC6C8CA0101014A4B01D5
:100170000101C2C1C30101AAA9A84D4E010101019B
:100180000101010101010A002530313662003A20E7
:100190000025303258000A722F6320303132333458
:1001A00035363738394142434445460A000A00256E
:1001B00030325800626F756E6365213A200000107E
:1001C00080FF5B735D004B6579626F6172642073C1
:1001D000746172742E0A0055534220636F6E666913
:1001E00067757265642E0A005B575D005B535D00A6
:1001F0005B525D005B445D005B435D00180346009D
:1002000061006E0074006100730074006900630097
:100210003600300000001E03540045005800200046
:1002200045006C0065006300740072006F006E0092
:100230006900630000000403090409028D00050140
:1002400000A032090400000103010100092111018D
:100250000001223F000705810308000A090401008C
:100260000103010200092111010001224D000705CF
:10027000820308000A0904020001030000000921AA
:10028000110100012236000705830308000A090452
:1002900003000203000000092111010001222000D7
:1002A0000705840320000107050403200001090459
:1002B000040001030000000921110100012239009E
:1002C0000705850310000112011001000000084E0F
:1002D0006C606002000102000105010906A1010530
:1002E0000719E029E7150025019508750181020528
:1002F000081901290595057501910295017503916C
:1003000001050719002977150025019578750181E8
:1003100002C00631FF0974A1010975150025FF957A
:1003200020750881020976150025FF952075089132
:1003300002C005010980A101850216010026B7004F
:100340001A01002AB700751095018100C0050C093B
:1003500001A1018503160100269C021A01002A9CB6
:1003600002751095018100C005010902A101090172
:10037000A10005091901290515002501950575013B
:10038000810295017503810105010930093115814B
:10039000257F95027508810609381581257F95010D
:1003A00075088106050C0A38021581257F950175AF
:1003B000088106C0C005010906A101050719E02949
:1003C000E7150025019508750181029501750881E1
:1003D0000105081901290595057501910295017519
:1003E0000391010507190029FF150025FF950675E2
:1003F000088100C05D0A00253032580020002530F9
:100400003258002000253032580020002530325864
:10041000007C0025303258007073325F6D6F757349
:1004200065207573623A205B007073325F6D6F7583
:1004300073653A206661696C20746F20676574206B
:100440006D6F757365207061636B65740A005D0A7A
:10045000002530325800200025303258007C00251D
:10046000303258007073325F6D6F75736520726142
:10047000773A205B0025756420000A002530325849
:100480000025303258007073325F6D6F7573655F91
:10049000696E69743A2073656E6420307846303A2C
:1004A00020000A0025303258002530325800707381
:1004B000325F6D6F7573655F696E69743A2073653D
:1004C0006E6420307846343A20000A0025303258D5
:1004D0000025303258007073325F6D6F7573655F41
:1004E000696E69743A207265616420446576494496
:1004F0003A20000A0025303258002530325800706A
:1005000073325F6D6F7573655F696E69743A2072DF
:10051000656164204241543A20000A002530325877
:100520000025303258007073325F6D6F7573655FF0
:10053000696E69743A2073656E64205265736574E0
:100540003A200078253032580A000A002530325807
:1005500020006B6579626F6172645F7265706F72A3
:10056000743A20000A0025303258006B6579626FBA
:100570006172645F7365745F6C65643A20006465E2
:100580006C5F6B65795F6269743A2063616E277492
:100590002064656C3A20253032580A006164645F3B
:1005A0006B65795F6269743A2063616E27742061BC
:1005B00064643A20253032580A00536F66747077AD
:1005C0006D20537461746520507265763A202564FD
:1005D0000A00290A002575002F002575005D2800F6
:1005E00025640020002564002000256400200025EB
:1005F00064007C0025303258006D6F7573656B6543
:1006000079205B62746E7C782079207620685D2882
:100610007265702F61636C293A205B000A002575B2
:10062000006D6B5F776865656C5F74696D655F749D
:100630006F5F6D6178203D20000A002575006D6BAD
:100640005F776865656C5F6D61785F737065656421
:10065000203D20000A002575006D6B5F74696D6593
:100660005F746F5F6D6178203D20000A0025750082
:100670006D6B5F6D61785F7370656564203D200010
:100680000A002575006D6B5F696E74657276616C2A
:10069000203D20000A002575006D6B5F64656C616C
:1006A00079203D20000A002575006D6B5F77686535
:1006B000656C5F74696D655F746F5F6D6178203D17
:1006C00020000A002575006D6B5F776865656C5FBB
:1006D0006D61785F7370656564203D20000A0025B8
:1006E00075006D6B5F74696D655F746F5F6D6178C8
:1006F000203D20000A002575006D6B5F6D61785FFD
:100700007370656564203D20000A002575006D6BDF
:100710005F696E74657276616C203D20000A002569
:1007200075006D6B5F64656C6179203D20000A0087
:10073000257500363A206D6B5F776865656C5F7470
:10074000696D655F746F5F6D61783A20000A0025FE
:100750007500353A206D6B5F776865656C5F6D611C
:10076000785F73706565643A20000A00257500346F
:100770003A206D6B5F74696D655F746F5F6D617852
:100780003A20000A00257500333A206D6B5F6D61D9
:10079000785F73706565643A20000A002575003241
:1007A0003A206D6B5F696E74657276616C286D734B
:1007B000293A20000A00257500313A206D6B5F64EC
:1007C000656C6179282A31306D73293A20000A0A54
:1007D0002D2D2D2D2D204D6F7573656B6579205056
:1007E0006172616D6574657273202D2D2D2D2D0A3A
:1007F000003E20002575004D003F007365742064A5
:10080000656661756C742076616C7565732E0A007F
:100810000A0025750073656C6563746564207061FA
:1008200072616D657465723A2000433E20000A5182
:10083000756974204D6F7573656B657920436F6EB4
:10084000736F6C650A0053656520687474703A2F85
:100850002F656E2E77696B6970656469612E6F72A2
:10086000672F77696B692F4D6F7573655F6B65795E
:10087000730A000A002575002C20776865656C3DB9
:100880000025750077686572652064656C74613A4F
:1008900020637572736F723D000A73706565642022
:1008A0003D2064656C7461202A206D61785F7370EF
:1008B000656564202A2028726570656174202F2088
:1008C00074696D655F746F5F6D6178290A00706788
:1008D000646F776E3A096465637265617365207051
:1008E0006172616D6574657273282D3130290A005B
:1008F000706775703A09696E63726561736520701F
:100900006172616D6574657273282B3130290A003C
:10091000646F776E3A096465637265617365207010
:100920006172616D6574657273282D31290A0075D5
:10093000703A09696E6372656173652070617261F6
:100940006D6574657273282B31290A00643A097346
:1009500065742064656661756C742076616C75657C
:10096000730A00703A097072696E74207061726166
:100970006D65746572730A00363A0973656C656358
:1009800074206D6B5F776865656C5F74696D655F1A
:10099000746F5F6D61780A00353A0973656C656341
:1009A00074206D6B5F776865656C5F6D61785F73F0
:1009B000706565640A00343A0973656C6563742078
:1009C0006D6B5F74696D655F746F5F6D61780A0050
:1009D000333A0973656C656374206D6B5F6D617884
:1009E0005F73706565640A00323A0973656C65630C
:1009F00074206D6B5F696E74657276616C286D73BF
:100A0000290A00313A0973656C656374206D6B5F68
:100A100064656C6179282A31306D73290A00455369
:100A2000432F713A09717569740A000A0A2D2D2D38
:100A30002D2D204D6F7573656B6579205061726146
:100A40006D65746572732048656C70202D2D2D2D99
:100A50002D0A003F004D303E000A456E746572203D
:100A60004D6F7573656B657920436F6E736F6C6541
:100A70000A000A5175697420436F6E736F6C6520AC
:100A80004D6F64650A00433E20000A002575002072
:100A9000746F20002575007377697463685F6465FF
:100AA0006661756C745F6C617965723A20006D3AAD
:100AB000096D6F7573656B65790A004553432F7136
:100AC0003A09717569740A000A0A2D2D2D2D2D2001
:100AD000436F6E736F6C652048656C70202D2D2DF3
:100AE0002D2D0A00506175733A096A756D70207476
:100AF0006F20626F6F746C6F616465720A0043618E
:100B000070733A094C6F636B204B6579626F617249
:100B100064284368696C642050726F6F66290A000C
:100B2000505363723A09706F77657220646F776E05
:100B30002F72656D6F74652077616B652D75700A16
:100B400000342F46343A0973776974636820746FF0
:100B5000204C6179657234200A00332F46333A09FC
:100B600073776974636820746F204C6179657233A0
:100B7000200A00322F46323A09737769746368207D
:100B8000746F204C6179657232200A00312F463132
:100B90003A0973776974636820746F204C617965D2
:100BA0007231200A00302F4631303A097377697468
:100BB000636820746F204C6179657230200A006E82
:100BC0003A09746F67676C65204E4B524F0A006597
:100BD0003A097072696E7420656570726F6D20637A
:100BE0006F6E6669670A00733A097072696E7420E5
:100BF0007374617475730A00743A097072696E7463
:100C00002074696D657220636F756E740A00763AA0
:100C1000097072696E742064657669636520766513
:100C20007273696F6E202620696E666F0A006D3AD6
:100C300009746F67676C65206D6F757365206465F7
:100C40006275670A006B3A09746F67676C65206BA1
:100C50006579626F6172642064656275670A007805
:100C60003A09746F67676C65206D617472697820EA
:100C700064656275670A00643A09746F67676C653A
:100C800020646562756720656E61626C650A006349
:100C90003A09656E74657220636F6E736F6C6520C0
:100CA0006D6F64650A000A0A2D2D2D2D2D20436FCE
:100CB0006D6D616E642048656C70202D2D2D2D2D7D
:100CC0000A003F004E4B524F3A2064697361626CD8
:100CD00065640A004E4B524F3A20656E61626C6546
:100CE000640A006B6579626F6172645F69646C6548
:100CF0003A2025580A006B6579626F6172645F70F3
:100D0000726F746F636F6C3A2025580A00686F73B6
:100D1000745F6B6579626F6172645F6C6564732880
:100D2000293A2025580A000A0A2D2D2D2D2D205351
:100D30007461747573202D2D2D2D2D0A0074696D2D
:100D400065725F636F756E743A202530346C580A93
:100D5000004743433A20342E392E32204156522D3B
:100D60004C4942433A20312E382E3073766E204162
:100D700056525F415243483A20617672350A004F1D
:100D80005054494F4E533A204C554641204D4F55F3
:100D900053454B45592045585452414B45592043E2
:100DA0004F4E534F4C4520434F4D4D414E44204EE6
:100DB0004B524F20364B524F204B45594D41505FBF
:100DC000494E5F454550524F4D204241434B4C499F
:100DD00047485420534F465450574D5F4C4544208C
:100DE000425245415448494E475F4C4544203430B7
:100DF00039360A004255494C443A203233303133B7
:100E000030382D6469727479202830353A30323A9E
:100E10003036204170722032322032303136290A89
:100E2000005649443A2030783643344528544558D2
:100E300020456C656374726F6E6963292050494464
:100E40003A203078363036302846616E74617374DB
:100E50006963363029205645523A20307830303098
:100E6000320A00444553433A20742E6D2E6B2E20D7
:100E70006B6579626F617264206669726D77617209
:100E80006520666F722046616E74617374696336A3
:100E9000300A000A0A2D2D2D2D2D205665727369FA
:100EA0006F6E202D2D2D2D2D0A000A4445425547E9
:100EB0003A206D6F7573652064697361626C656457
:100EC0002E0A000A44454255473A206D6F757365F6
:100ED00020656E61626C65642E0A000A44454255C5
:100EE000473A206B6579626F61726420646973614F
:100EF000626C65642E0A000A44454255473A206BED
:100F00006579626F61726420656E61626C65642EE2
:100F10000A000A44454255473A206D617472697867
:100F20002064697361626C65642E0A000A4445425C
:100F300055473A206D617472697820656E61626C04
:100F400065642E0A000A44454255473A20656E61A1
:100F5000626C65642E0A000A44454255473A206493
:100F6000697361626C65642E0A006E6F742073751C
:100F700070706F727465642E0A000A0A4A756D708B
:100F800020746F20626F6F746C6F616465722E2EB7
:100F90002E2000433E20000A456E74657220436F88
:100FA0006E736F6C65204D6F64650A00556E6C6FD3
:100FB000636B65642E0A004C6F636B65642E0A00D8
:100FC0000000000000000000000001010102020218
:100FD0000303040405050606070808090A0B0B0CA1
:100FE0000D0E0F10111213151617191A1B1D1E20A6
:100FF00022232527292B2D2F313335383A3D3F42E7
:1010000044474A4D505356595C5F6266696C707430
:10101000777B7E82868A8E9195999DA1A5A9ADB098
:10102000B4B8BCC0C3C7CBCED2D5D8DBDFE2E4E7CF
:10103000EAECEFF1F3F5F7F8FAFBFCFDFEFFFFFF3A
:101040006261636B6C6967687420737465703A20C1
:1010500025750A006261636B6C6967687420746F40
:1010600067676C653A2025750A006261636B6C697D
:1010700067687420637573746F6D2064656372654F
:101080006173653A2025750A006261636B6C69675C
:10109000687420637573746F6D20696E6372656127
:1010A00073653A2025750A0011241FBECFEFDAE0E0
:1010B000DEBFCDBF04B603FE27C080911C02909115
:1010C0001D02A0911E02B0911F028730904BA740D5
:1010D000B04BD1F410921C0210921D0210921E020D
:1010E00010921F0214BE84B7877F84BF0FB6F89496
:1010F000A8958091600088618093600010926000E4
:101100000FBEE0E0F8E3099511E0A0E0B1E0EAE30A
:10111000FCE602C005900D92AA33B107D9F722E090
:10112000AAE3B1E001C01D92AC31B207E1F70E9421
:10113000650F0C941B360C940000FF93EF93E09125
:101140003A01F0913B01309709F00995EF91FF9139
:101150000895FC018591803011F0EFDFFBCF0895F9
:10116000FF27E0E230E247FF0CC0419597FF09C03E
:10117000EDE26095709580959095611D711D811DC2
:10118000911D27FF02C0219530E350E2AA27660F88
:10119000771F881F991FAA1FA41710F0A41B63951F
:1011A0005A95A9F7AA3008F0A95FA05DAF93F3950F
:1011B000611571058105910541F7ED3211F4EF9349
:1011C000F395F21718F43F93F395FBCF8F91B5DFAA
:1011D000FA95E1F70895E991F9918591803021F030
:1011E000853219F0AADFF9CF089520E0E8945591EF
:1011F0005532C1F3503311F4689455915A3348F481
:10120000505390F3220F022E220F220F200D250F94
:10121000F4CF0EF4219589919991533619F35337F0
:1012200029F1533559F1BC0188279927E8945C3698
:1012300021F48991999168945591543639F446EF87
:101240007EF077FF0DC08FEF9FEF0AC055374AE061
:1012500039F0583540E121F0523642E009F0089566
:10126000FF93EF937DDFEF91FF91B7CFFF93EF9364
:10127000FC0181918030B9F360DFFBCFFF93EF93E6
:1012800068DFF1CFDF93CF93CDB7DEB72596A3DF2D
:10129000CF91DF9108950895089580E890E0089532
:1012A0008BE090E008950F931F93FC0182818823C7
:1012B00061F1062F10E00830110538F5F801EA5AFF
:1012C000FF4F0C94E4351F910F910C941A0C1F9151
:1012D0000F910C94060C1F910F910C94100C1F9100
:1012E0000F910C94210C1F910F910C943D0C1F91A8
:1012F0000F910C94540C842F1F910F910C94710C2E
:10130000842F1F910F910C94880C1F910F910895B9
:10131000462F672F0C94D533805C0E94C933089503
:1013200086E091E0089580EF90E0089588E00895C8
:1013300088E0089580E885BF85BF0E94DC0B84B1FA
:101340008FEF84B995B185B99AB11AB89BB18BB9B1
:101350003F98479A80EA8A95F1F7379906C081E06D
:1013600080933C010E949A3004C010923C010E947C
:1013700091304798ADE3B1E0E5E4F1E088E08E0F0D
:1013800011921D928E13FCCF0895AF92BF92CF920F
:10139000DF92EF92FF920F931F93CF93DF930DE3B2
:1013A00011E0C0E0D0E0CC24C394D12C95E0A92E6C
:1013B0002FEAE22E21E0F22EBB24BA9424B1C6011A
:1013C0000C2E01C0880F0A94EAF7922F982B94B93B
:1013D00095B18095892385B980EA8A95F1F789B11D
:1013E0008095F8019081981739F1808380910001F0
:1013F000882301F18091DC0180FF04C084EB91E03F
:101400000E94A9088091DC0180FF0CC0809100013E
:101410001F928F93FF92EF920E9442090F900F90BC
:101420000F900F908091DC0180FF04C08DEA91E065
:101430000E94A908A092000184B1B4B885B1B5B8E2
:1014400021960F5F1F4FC830D10509F0B7CF8091AB
:1014500000018823B1F0815080930001882339F086
:101460008FE99FE00197F1F700C000000AC0A5E4F2
:10147000B1E0EDE3F1E0CF01885F91919D938E1390
:10148000FCCF81E0DF91CF911F910F91FF90EF9002
:10149000DF90CF90BF90AF900895E82FF0E0EB5B26
:1014A000FE4F80810895CF92DF92EF92FF920F93CB
:1014B0001F93CF93DF9386E991E00E94A90885E40A
:1014C000E82E81E0F82EC0E0D0E091E9C92E91E04D
:1014D000D92E08E811E0DF93CF93DF92CF920E94DC
:1014E00042098EE891E00E94A908F70181917F01ED
:1014F00090E00E94F7269F938F931F930F930E9473
:10150000420986E891E00E94A90821968DB79EB70E
:1015100008960FB6F8949EBF0FBE8DBFC830D10598
:10152000D1F6DF91CF911F910F91FF90EF90DF9057
:10153000CF90089581FF02C06E9A01C06E98769890
:101540000895CF93C82F8730E8F4843038F5813080
:1015500008F440C080E00E94FA3080E00E943631FA
:10156000EC2FF0E0E254FE4F649160930D0280E0B6
:101570000E94C83080E00E94AD3080910D02CF9172
:101580000C94A30C8730A9F0883021F580E00E94EC
:10159000EE3080E00E94363161E012C080E00E94AF
:1015A000FA3080E00E942A3186E08C1B0E94433191
:1015B0000DC080E00E94EE3080E00E94363160E095
:1015C00080E00E94073183E00E94213180E0CF91CA
:1015D0000C94AD3080E00E94FA3080E00E943631F9
:1015E00010920D0260E080E00E94C83080E0CF9150
:1015F0000C94B93080B3806F80BB81B3806F81BBA6
:101600000895882371F041B320E830E0B90102C0A9
:10161000759567958A95E2F7CB018095842381BB08
:1016200008958F9A0895882369F041B320E830E047
:10163000B90102C0759567958A95E2F7CB01842BB5
:1016400081BB08958F9808951F93CF93DF9300D0A7
:1016500000D01F92CDB7DEB7162F80911B0280FFFE
:1016600024C08E7F8E3051F4662341F060E480E028
:101670000E94243160E280E00E94E23080911B02EF
:101680008E7F803191F4112381F060E480E00E942C
:10169000243160E280E00F900F900F900F900F9038
:1016A000DF91CF911F910C94CE300F900F900F903F
:1016B0000F900F90DF91CF911F9108950C94A60C7D
:1016C000FC0180810C94A30CFC0180810C94A30C80
:1016D0006091580188E090E00C94F835CF93DF9347
:1016E000C5E5D1E0688189E090E00E94F835698124
:1016F0008AE090E00E94F8356A818BE090E0DF910B
:10170000CF910C94F8350F931F93CF938C01C0E0C9
:10171000F80161918F01CF5F8C2F0E94C830C330D8
:10172000B9F7CF911F910F910895CF93DF9300D018
:101730001F92CDB7DEB719821A821B828130B1F0B9
:1017400018F08230C9F032C0109259011092010194
:10175000CE0101960E94830B81E00E94B93082E0A5
:101760000E94B93083E00E94B93020C085E591E045
:101770000E94830B81E012C080911B0280FF08C091
:10178000869581588F77833030F480910D0201C0A7
:1017900080E18093010181E0809359010E94AD3086
:1017A00082E00E94AD3083E00E94AD300F900F9038
:1017B0000F90DF91CF910895CF9388E090E00E9441
:1017C000EA35C82F8093580189E090E00E94EA35FD
:1017D000809355018AE090E00E94EA35809356019B
:1017E0008BE090E00E94EA3580935701CF3F21F4CF
:1017F000109258010E94680B8091580187FF04C025
:101800008F77CF910C94950BCF91089580915801CB
:101810008068809358018F770E94950B0C94680B19
:10182000809158018F778093580180E00E94950B3A
:101830000C94680B8091580187FD0C94100C0C944B
:10184000060C80915801982F9F7791F091589F77BF
:101850008078892B809358018F7791E009F490E08C
:101860008091580190FB87F9809358010E94680B82
:10187000809158018F770C94950B80915801982F87
:101880009F77292F30E0223031054CF49F5F9F77FE
:101890008078892B8068809358010E94680B809122
:1018A00058018F770C94950B9091580181E0890F26
:1018B0008F779078833020F4892B8093580102C071
:1018C00090935801809158018F7791E009F490E04E
:1018D0008091580190FB87F9809358018F770C9481
:1018E000950B909158019F77913089F4E82FF0E0A3
:1018F000EB5AFE4F8081803F10F08FEF01C0805F78
:10190000808385E591E00E94830B0C946E0B089513
:10191000909158019F779130A9F4E82FF0E0EB5AAD
:10192000FE4F8081813F10F080EF05C0803110F4C0
:10193000108202C08051808385E591E00E94830B74
:101940000C946E0B0895809301010895CF93DF935B
:1019500000D000D01F92CDB7DEB780915901882307
:1019600009F454C0809152018F5F8093520190918D
:101970005901981708F04AC0109252012091500165
:101980008091510120935301809354019091010162
:101990004FEF249F90011124232F3327929FA00102
:1019A000939F500D11241C8219825D835A83951BCD
:1019B0009B8390E063E070E00E94BC35FE01E80F7D
:1019C000F91F238120934D01FE01E80FF91F2281A9
:1019D00020934E01FE01E80FF91F818180934F0192
:1019E0008DE491E00E94830B809150019091510110
:1019F0000196811523E0920728F49093510180937A
:101A0000500104C010925101109250010F900F909C
:101A10000F900F900F90DF91CF91089580916B01FF
:101A2000089590911202943009F04CC09091E90011
:101A30009F703091EC00232F217030FD20E8922B15
:101A400024E02093E9002091EB0020FF38C0209192
:101A5000EE0027FF34C020915A01222321F020916B
:101A6000E80025FF2CC010925A0126E03091E800D2
:101A700035FD15C030911202343009F53091EB007C
:101A800035FD1DC0215021F481E080935A0117C01B
:101A9000EFE9FFE03197F1F700C00000E7CF809356
:101AA000F1008091E80085FD05C08091E8008E7707
:101AB0008093E8009F709093E90080E008959F7004
:101AC0009093E9008FEF0895CF93DF9300D01F929A
:101AD000CDB7DEB79C0180911202843019F593E0F6
:101AE00099833B832A839093E9008FEF9091E800DC
:101AF000815095FD06C095ED9A95F1F70000811192
:101B0000F5CF8091E80085FF0DC040E050E063E034
:101B100070E0CE0101960E9422108091E8008E773D
:101B20008093E8000F900F900F90DF91CF91089570
:101B3000CF93DF9300D01F92CDB7DEB72091120272
:101B4000243021F522E029839B838A8383E08093DC
:101B5000E9008FEF9091E800815095FD06C095ED6A
:101B60009A95F1F700008111F5CF8091E80085FF8B
:101B70000DC040E050E063E070E0CE0101960E94AD
:101B800022108091E8008E778093E8000F900F90EC
:101B90000F90DF91CF910895209112022430F1F43B
:101BA00022E02093E9002FEF3091E800215035FD2D
:101BB00006C035ED3A95F1F700002111F5CF2091DF
:101BC000E80025FF0BC040E050E065E070E00E94B7
:101BD00022108091E8008E778093E8000895CF93DB
:101BE000DF9320911202243009F044C0EC0180916F
:101BF0000D018823C1F085E08093E9008FEF90917B
:101C0000E800815095FD06C095E19A95F1F7000036
:101C10008111F5CF8091E80085FF2CC040E050E0B5
:101C200060E170E017C081E08093E9008FEF909150
:101C3000E800815095FD06C095ED9A95F1F70000FA
:101C40008111F5CF8091E80085FF14C040E050E09D
:101C500068E070E0CE010E9422108091E8008E774B
:101C60008093E80080E1FE01ABE5B1E001900D92C8
:101C70008A95E1F7DF91CF91089588EF91E00E9476
:101C8000A90880911102811109C00E94B7110E9418
:101C900014128091E20084608093E200089584EF42
:101CA00091E00E94A90810921102089580EF91E03E
:101CB0000C94A9088CEE91E00E94A9080C944C09A0
:101CC00088EE91E00E94A9080C948327809112026B
:101CD000843041F58091E9008F702091EC00922FC3
:101CE000917020FD90E8892B94E09093E900909109
:101CF000EB0090FF14C09091EE0097FF10C0909100
:101D0000E80095FF03C01092F100F9CF9091E80030
:101D100090FF05C09091E8009E779093E8008F7047
:101D20008093E900089542E061EC81E00E94311166
:101D300042E061EC82E00E94311142E061EC83E01C
:101D40000E94311146E261EC84E00E94311142E1CF
:101D500061EC85E00C94311180911402833009F418
:101D600055C030F4813071F0823009F495C0089587
:101D70008A3009F481C08B3009F460C0893009F0E1
:101D8000A3C020C080911302813A09F09DC08091C8
:101D9000E800877F8093E8008091170290911802F5
:101DA000892B21F460E18BE591E003C060E080E0E5
:101DB00090E070E00E946D108091E8008B77809336
:101DC000E800089580911302813209F07DC080916E
:101DD000170290911802009719F0049709F074C047
:101DE0008091E800877F8093E8008091E80082FD81
:101DF00005C0809112028111F8CF66C08091F10078
:101E000080936B018091E8008B775AC08091130218
:101E1000813A09F059C08091170290911802892BDC
:101E200009F052C08091E800877F8093E80080919C
:101E3000E80080FFFCCF80910C013DC0809113022F
:101E4000813209F041C08091170290911802892BCC
:101E5000D9F58091E800877F8093E8000E946611A1
:101E60009091150281E0911101C080E080930C01F6
:101E700080930D010C949D1E80911302813221F5F7
:101E80008091E800877F8093E8000E94661180912E
:101E9000160280936C01089580911302813AA1F497
:101EA0008091E800877F8093E8008091E80080FFC0
:101EB000FCCF80916C018093F1008091E8008E77D7
:101EC0008093E8000C946611089584B7877F84BFDF
:101ED0000FB6F894A89580916000886180936000A7
:101EE000109260000FBE90E080E80FB6F8948093E7
:101EF0006100909361000FBE0E94B7110E941412FE
:101F00008091E20084608093E20081E19DE00E9484
:101F10008C267894809112028430E1F787ED91E06D
:101F20000E94A9080E940C1982E091E00E94761894
:101F300086EC91E00E94A90880911202853089F414
:101F400082EC91E00E94A9080E944F278091100224
:101F5000882391F30E941127882371F30E940C10AB
:101F6000EBCF0E944319E8CF292F332723303105C7
:101F7000C9F064F42130310581F02230310509F0D7
:101F800043C08DE890E02AE332E042C021323105BF
:101F9000F1F02232310541F137C082E190E027ECC7
:101FA00032E036C099278130910541F082309105A9
:101FB00041F0892B49F5E6E3F2E005C0E6E1F2E005
:101FC00002C0ECEFF1E0849190E09F0121C0653008
:101FD000D8F4E62FF0E0EE0FFF1FEB5DFE4F2081FF
:101FE000318189E090E014C0653070F470E0FB014D
:101FF000EE0FFF1FE55EFE4F20813181FB01EA5E9F
:10200000FE4F808190E004C080E090E020E030E06E
:10201000FA0131832083089580E189BD82E189BD81
:1020200009B400FEFDCF8091D8008F7D8093D80049
:102030008091E00082608093E0008091E00081FD6B
:10204000FCCF0895CF92DF92EF92FF920F931F93F0
:10205000CF93DF93EC018B016A010E9485118111FE
:1020600033C0C114D10439F0F60180819181081B7D
:10207000190BC80FD91FE12CF12C0115110519F10D
:102080008091E80085FD16C08091E8008E778093EE
:10209000E800C114D10449F0F60180819181E80E75
:1020A000F91EF182E08285E00FC00E94851188232D
:1020B00021F30AC089918093F10001501109FFEFCB
:1020C000EF1AFF0ADACF80E0DF91CF911F910F91D5
:1020D000FF90EF90DF90CF900895209119023091FA
:1020E0001A022617370748F06115710539F4209157
:1020F000E8002E772093E80001C0B90140E06115A7
:102100007105A9F120911202222309F443C0253060
:1021100009F442C02091E80023FD40C02091E8006E
:1021200022FD32C02091E80020FFE9CF4091F3006A
:102130002091F20030E0342BFC01CF0161157105D4
:1021400059F02830310540F481918093F1006150BD
:1021500071092F5F3F4FF1CF41E02830310509F081
:1021600040E02091E8002E772093E800C8CF41118D
:10217000C9CF0AC080911202882361F0853061F0D6
:102180008091E80083FD0AC08091E80082FFF2CFD1
:1021900080E0089582E0089583E0089581E0089545
:1021A0002091190230911A022617370748F061155D
:1021B000710539F42091E8002E772093E80001C0E2
:1021C000B901FC0120E06115710591F180911202C5
:1021D000882309F440C0853009F43FC08091E800AD
:1021E00083FD3DC08091E80082FD2FC08091E80012
:1021F00080FFE9CF2091F3008091F20090E0922BD4
:102200006115710559F08830910540F424912093AF
:10221000F1003196615071090196F2CF21E00897E3
:1022200009F020E08091E8008E778093E800CBCF22
:102230002111CCCF0AC080911202882361F0853031
:1022400061F08091E80083FD0AC08091E80082FF80
:10225000F2CF80E0089582E0089583E0089581E060
:102260000895982F973058F59093E900981739F012
:102270007091EC002091ED005091F00003C0242FEC
:10228000762F50E021FF19C03091EB003E7F309354
:10229000EB003091ED003D7F3093ED003091EB008D
:1022A00031603093EB007093EC002093ED0050937D
:1022B000F0002091EE0027FF07C09F5FD3CF8F7003
:1022C0008093E90081E0089580E0089580911302F1
:1022D00087FF11C08091E80082FD05C08091120245
:1022E0008111F8CF11C08091E8008B770BC08091ED
:1022F0001202882349F08091E80080FFF8CF809196
:10230000E8008E778093E80008952091E4003091F2
:10231000E50095E64091EC00842F817040FF22C0DB
:102320008091E80080FD1CC080911202882391F00A
:10233000853091F08091EB0085FD10C04091E40064
:102340005091E5004217530729F39A01915011F774
:1023500084E0089582E0089583E0089581E008957F
:1023600080E008954091E80042FFDECF08950E948A
:1023700025120E942D12E0EEF0E0808181608083C2
:10238000E8EDF0E080818F77808319BCA7EDB0E0A5
:102390008C918E7F8C9380818F7E8083109211022E
:1023A00008950F931F93CF93DF930E9425120E94ED
:1023B0002D12C8EDD0E088818F778883888180686E
:1023C000888388818F7D888319BC109212021092B5
:1023D0000E021092100210920F0200EE10E0F801AF
:1023E00080818B7F808388818160888342E060E088
:1023F00080E00E943111E1EEF0E080818E7F8083E9
:10240000E2EEF0E08081816080838081886080835B
:10241000F80180818E7F8083888180618883DF914D
:10242000CF911F910F910895E8EDF0E080818F7EAC
:102430008083E7EDF0E080818160808384E082BF6B
:1024400081E0809311020C94D111E8EDF0E08081DD
:102450008E7F80831092E20008951092DA0010922D
:10246000E10008951F920F920FB60F9211242F933F
:102470003F934F935F936F937F938F939F93AF930C
:10248000BF93EF93FF938091E10082FF0BC0809197
:10249000E20082FF07C08091E1008B7F8093E10022
:1024A0000E94660E8091DA0080FF1FC08091D800E4
:1024B00080FF1BC08091DA008E7F8093DA008091CC
:1024C000D90080FF0DC080E189BD82E189BD09B4DA
:1024D00000FEFDCF81E0809312020E943D0E05C0F8
:1024E00019BC109212020E944F0E8091E10080FFF1
:1024F00019C08091E20080FF15C08091E2008E7FBC
:102500008093E2008091E20080618093E2008091FC
:10251000D80080628093D80019BC85E080931202B5
:102520000E945A0E8091E10084FF30C08091E20049
:1025300084FF2CC080E189BD82E189BD09B400FE21
:10254000FDCF8091D8008F7D8093D8008091E100ED
:102550008F7E8093E1008091E2008F7E8093E20085
:102560008091E20081608093E20080910E028823D6
:1025700011F084E007C08091E30087FD02C081E094
:1025800001C083E0809312020E94600E8091E100FE
:1025900083FF29C08091E20083FF25C08091E10084
:1025A000877F8093E10082E08093120210920E02F6
:1025B0008091E1008E7F8093E1008091E2008E7F28
:1025C0008093E2008091E20080618093E20042E02B
:1025D00060E080E00E9431118091F000886080937B
:1025E000F0000E94560EFF91EF91BF91AF919F9125
:1025F0008F917F916F915F914F913F912F910F90AC
:102600000FBE0F901F9018951F920F920FB60F924A
:1026100011242F933F934F935F936F937F938F93E7
:102620009F93AF93BF93CF93DF93EF93FF93C091AB
:10263000E900CF708091EC00D82FD17080FDD0E8F8
:102640001092E9008091F000877F8093F0007894E9
:102650000E9448131092E9008091F00088608093F6
:10266000F000CD2BCF70C093E900FF91EF91DF9187
:10267000CF91BF91AF919F918F917F916F915F911A
:102680004F913F912F910F900FBE0F901F90189573
:102690001F93CF93DF93CDB7DEB7AA970FB6F89409
:1026A000DEBF0FBECDBFE3E1F2E088E08E0F909178
:1026B000F10091938E13FBCF0E94AC0E8091E80045
:1026C00083FF1FC18091130290911402492F50E0A3
:1026D0004A30510508F015C1FA01E25AFF4F0C9437
:1026E000E435803881F0823809F00BC180911702FF
:1026F0008F708093E9008091EB0085FB882780F93B
:102700001092E90006C080910F0290911002911181
:1027100082609091E800977F9093E8008093F100A9
:102720001092F100C8C0282F2D7F09F0EAC088233D
:1027300019F0823061F0E5C080911502813009F016
:10274000E0C0933009F080E0809310022BC08091AC
:102750001502811127C0809117028F7009F4D1C032
:102760008093E9002091EB0020FF1CC0933021F4FE
:102770008091EB00806214C09091EB009061909387
:10278000EB0021E030E0A90102C0440F551F8A95FB
:10279000E2F74093EA001092EA008091EB00886033
:1027A0008093EB001092E9008091E800877F86C05B
:1027B0008111A7C0109115021F778091E3008078E6
:1027C000812B8093E3008091E800877F8093E8006D
:1027D0000E9466118091E80080FFFCCF8091E300A9
:1027E00080688093E300111102C082E001C083E0A1
:1027F0008093120286C08058823008F082C0809197
:102800001502909116028C3D53E0950779F583E00F
:102810008A838AE289834FB7F894DE01139620E019
:102820003EE051E2E32FF0E050935700E49120FFA7
:1028300003C0E295EF703F5FEF708E2F90E0EA30BB
:1028400010F0C79601C0C0968D939D932F5F2431E1
:1028500049F74FBF8091E800877F8093E8006AE2E4
:1028600070E0CE0101960E946D1014C0AE014F5F62
:102870005F4F609117020E94B40FBC01892B09F4CD
:1028800040C09091E800977F9093E80089819A81F9
:102890000E94D0108091E8008B778093E80031C0CF
:1028A000803879F58091E800877F8093E8008091F7
:1028B0000E028093F1008091E8008E778093E8000B
:1028C0000E9466111EC081111CC0909115029230A9
:1028D000C0F48091E800877F8093E80090930E0217
:1028E0000E94661180910E02811106C08091E30062
:1028F00087FD02C081E001C084E0809312020E9443
:10290000930E8091E80083FF0AC08091E800877FE2
:102910008093E8008091EB0080628093EB00AA96A0
:102920000FB6F894DEBF0FBECDBFDF91CF911F91E0
:102930000895CF930E94F3162FEF83ED90E321507B
:1029400080409040E1F700C000008FEF0E94AB177D
:10295000C82F86E295E00E94A9081F92CF9381E2DA
:1029600095E09F938F930E944209809176011F9278
:102970008F938CE195E09F938F930E9442098AE1A7
:1029800095E00E94A9082FEF8BE792E92150804043
:102990009040E1F700C000000E949F17C82F8FEF02
:1029A00094E00E94A9081F92CF938AEF94E09F932E
:1029B0008F930E944209809176011F928F9385EF39
:1029C00094E09F938F930E94420983EF94E00E94CA
:1029D000A9080E949F17C82F86ED94E00E94A908BD
:1029E0001F92CF9381ED94E09F938F930E944209B1
:1029F000809176011F928F938CEC94E09F938F933C
:102A00000E9442098AEC94E00E94A90884EF0E9487
:102A1000AB17C82F8EEA94E00E94A9081F92CF93AB
:102A200089EA94E09F938F930E94420980917601F6
:102A30001F928F9384EA94E09F938F930E944209A0
:102A40008DB79EB780960FB6F8949EBF0FBE8DBF10
:102A500082EA94E00E94A90880EF0E94AB17C82F79
:102A600086E894E00E94A9081F92CF9381E894E041
:102A70009F938F930E944209809176011F928F93BA
:102A80008CE794E09F938F930E9442098AE794E039
:102A90000E94A9088DB79EB708960FB6F8949EBFFE
:102AA0000FBE8DBF80E0CF9108958BEE0E94AB17D3
:102AB0008A3F09F054C00E949F17809371010E94C1
:102AC0009F17809372010E949F17809373010E9449
:102AD000A2279F938F9385E794E09F938F930E9403
:102AE000420984E694E00E94A908809171011F9236
:102AF0008F938FE594E09F938F930E9442098DE519
:102B000094E00E94A908809172011F928F9388E53A
:102B100094E09F938F930E94420986E594E00E947F
:102B2000A908809173011F928F9381E594E09F9390
:102B30008F930E9442098EE494E00E94A90880913C
:102B400072012DB73EB7205F3F4F0FB6F8943EBFDE
:102B50000FBE2DBF90917101811113C008C08091EB
:102B6000DC0183FF14C189E294E00C94A908209150
:102B70007301211106C0209170012927277009F4E3
:102B8000FCC090937001292F207494FF07C021117D
:102B90000AC02FE7280F2F3748F005C0211105C0C4
:102BA00087FF04C002C081E801C08FE780937201F3
:102BB00095FF09C097FD0EC0809173012FE7280F84
:102BC0002F3758F007C097FD07C08091730187FF2A
:102BD00004C002C081E801C08FE7292F277020932D
:102BE000710181958093730180916F0192FF28C0DC
:102BF000811109C00E94A22790936E0180936D01FC
:102C000081E080936F019091720180917301911125
:102C100003C0882309F451C022E020936F0187FD8F
:102C20008F5F8595819580937401892F97FD8F5FC4
:102C300085958093750110927201109273013DC0C9
:102C40008130C9F50E94A22720916D0130916E015B
:102C50008217930760F00E94A22720916D013091A6
:102C60006E01821B930B8C32914070F024C00E9445
:102C7000A22720916D0130916E0120953095820F31
:102C8000931F8C329140B8F48091710184608093DD
:102C9000710181E791E00E94D5183FEF81EE94E049
:102CA000315080409040E1F700C0000080917101F8
:102CB0008B7F8093710110926F01809171018B7FE6
:102CC0008093710181E791E00E94D5188091DC0129
:102CD00083FF53C088E194E00E94A90880917101AC
:102CE0001F928F9383E194E09F938F930E944209F8
:102CF00081E194E00E94A908809172011F928F9354
:102D00008CE094E09F938F930E9442098AE094E0C4
:102D10000E94A908809173011F928F9385E094E02F
:102D20009F938F930E94420983E094E00E94A90838
:102D3000809174011F928F938EEF93E09F938F93F6
:102D40000E9442098CEF93E00E94A90880917501CE
:102D50001F928F9387EF93E09F938F930E94420976
:102D600084EF93E00E94A9082DB73EB72C5E3F4F39
:102D70000FB6F8943EBF0FBE2DBF10927201109295
:102D800073011092740110927501109271010895EF
:102D90000E9456180C946918CF93DF93EC010E949F
:102DA0005C18882341F0209731F085E08A95F1F78F
:102DB00000002197F4CFCE01DF91CF910895CF93FA
:102DC000DF93C2E3D0E00E945C18811108C0209715
:102DD00031F085E08A95F1F700002197F4CFCE011C
:102DE000DF91CF9108950E9455180E9465182FEF2A
:102DF00081E19AE7215080409040E1F700C0000057
:102E00000C94C816DF92EF92FF920F931F93CF930B
:102E1000DF93109276010E9459180E94691884E687
:102E200090E00E94CC16892B61F00E946C188823D8
:102E300051F085E08A95F1F700000E946C1882E05D
:102E400007C081E005C00E94DF16892BB9F483E03A
:102E50008093760180917601843060F01F928F9389
:102E600083E495E09F938F930E9442090F900F9007
:102E70000F900F900E94C81680E059C000E010E04B
:102E8000D1E0C0E0DD24D394EE24E394F12C82E37E
:102E900090E00E94CC16892B11F484E0D9CF0E94D7
:102EA0006C18882341F0DD25C701002E01C0880F72
:102EB0000A94EAF7C82B0E94DF16892B11F485E0EB
:102EC000C7CF0F5F1F4F0830110509F782E390E06D
:102ED0000E94CC16892B11F486E0BACF0E946C18A0
:102EE0008D1711F080E1B4CF0E94DF16892B11F409
:102EF00087E0AECF82E390E00E94CC16892B61F090
:102F00000E946C1881110AC085E08A95F1F70000D3
:102F10000E946C1889E09CCF88E09ACF0E94DF164F
:102F2000892B11F48AE094CF0E94C8168C2FDF9170
:102F3000CF911F910F91FF90EF90DF900895CF9365
:102F4000CBEF0E940217C15021F0909176019111B0
:102F5000F8CFCF910895EF92FF920F931F93CF93E5
:102F6000DF93E82E109276010E94C8168FE891E058
:102F70000197F1F700C000000E9466180E945918DE
:102F800080E197E20E94CC16892B11F48AE077C089
:102F9000C0E0D0E011E0F12C01E090E59A95F1F766
:102FA000C7010C2E02C0959587950A94E2F780FF21
:102FB00004C010270E94691802C00E9466180E946F
:102FC000DF16892B11F482E05AC082E390E00E9460
:102FD000CC16892B11F483E052C02196C830D1055C
:102FE000E1F680E58A95F1F7112319F00E9469183E
:102FF00002C00E9466180E94DF16892B11F484E03B
:103000003EC082E390E00E94CC16892B11F485E04B
:1030100036C090E59A95F1F70E946918C2E3D0E0B6
:103020000E946C18882341F0209741F025E02A95F2
:10303000F1F700002197F4CFCD2B11F486E01FC0EB
:1030400082E390E00E94CC16892B11F487E017C030
:103050000E94DF16892B11F488E011C0C2E3D0E092
:103060000E946C18811108C0209741F085E08A9574
:10307000F1F700002197F4CFCD2B69F489E080931C
:1030800076010E94C81680E0DF91CF911F910F91C9
:10309000FF90EF9008950E94C816DF91CF911F9185
:1030A0000F91FF90EF900C949F1708958898809A45
:1030B00008958098889A08958098889A85E08A95DE
:1030C000F1F700008FB18170089508958998819A71
:1030D00008958198899A08958198899A85E08A95BA
:1030E000F1F700008FB186958170089590937C016F
:1030F00080937B01089580917B0190917C010895DC
:10310000E0917B01F0917C01309721F00190F081FA
:10311000E02D099480E00895EF92FF920F931F93A2
:10312000CF93DF93E0917B01F0917C013097B1F177
:103130008C010280F381E02D09958091DC0182FFF2
:103140002DC080FF04C082E595E00E94A908E80137
:1031500010E18CE4E82E85E0F82E8091DC0180FF00
:103160000BC088811F928F93FF92EF920E944209B9
:103170000F900F900F900F90115021961111EDCFDD
:103180008091DC0180FF0AC08AE495E0DF91CF9155
:103190001F910F91FF90EF900C94A908DF91CF91B0
:1031A0001F910F91FF90EF900895E0917B01F091B6
:1031B0007C01309721F00480F581E02D0994089579
:1031C0002091790130917A018217930771F09093E1
:1031D0007A0180937901E0917B01F0917C01309735
:1031E00021F00680F781E02D099408952091770160
:1031F000309178018217930771F090937801809352
:103200007701E0917B01F0917C01309721F00084FF
:10321000F185E02D099408950E9499270E949A094A
:1032200080913C0181110E9499140E947E300E947D
:103230009E320C948434CF93C82F8091DC0182FF9E
:103240001EC080FF04C08BE695E00E94A908809113
:10325000DC0180FF0CC01F92CF9386E695E09F9320
:103260008F930E9442090F900F900F900F908091C2
:10327000DC0180FF04C084E695E00E94A9088C2F41
:10328000CF910C949A0ACF92DF92EF92FF920F9314
:103290001F93CF93DF93CDB7DEB72B970FB6F8947C
:1032A000DEBF0FBECDBF0E94C5098EE7C82E81E0EC
:1032B000D82E00E010E0E02E802F0E944D0AF6018B
:1032C00041916F01F42EF826B1F40F5F1F4F0830C3
:1032D000110589F78FEF89838A831B820E94A227B9
:1032E0008160782F9D838C8349815A816B818D8188
:1032F0000E94E61E40C09091DC0191FF04C08B87C4
:103300000E94530A8B8520E030E04F2D50E0922F31
:10331000BA01022E02C0759567950A94E2F760FF24
:1033200024C02E83EF8221E030E0690102C0CC0C82
:10333000DD1C9A95E2F790E08C219D21892B09F400
:1033400020E028870E94A2278160782F9A878987AA
:103350004E815F8168858A850E94E61EF801E258E9
:10336000FE4F8081C826C08206C02F5F3F4F2830A5
:10337000310569F6AACF0E941B2A80913C01811178
:103380000E94551510917D010E9480181817A1F018
:103390000E94801880937D012B960FB6F894DEBFB3
:1033A0000FBECDBFDF91CF911F910F91FF90EF9096
:1033B000DF90CF900C941B192B960FB6F894DEBFBC
:1033C0000FBECDBFDF91CF911F910F91FF90EF9076
:1033D000DF90CF900895CF93882309F4C2C0C82FFF
:1033E000823859F40E94801881FDBBC089E30E9495
:1033F00006240E94A92589E30CC0833879F40E9431
:10340000801880FDAEC083E50E9406240E94A92595
:1034100083E50E94D624CF910C94A925843859F4D1
:103420000E94801882FD9DC087E40E9406240E94AD
:10343000A92587E4EECF8CEF8C0F813A48F48C2FCE
:103440000E940B2F81118DC08C2F0E940624E3CF88
:1034500080E28C0F883048F4C77081E001C0880F8B
:10346000CA95EAF70E947B25D6CF8BE58C0F833077
:1034700078F4C53A29F0C63A31F083E890E005C007
:1034800081E890E002C082E890E0CF910C94E018CF
:1034900088E58C0F833108F064C0C83A39F1C93A25
:1034A00041F1CA3A49F1CB3A51F1CC3A59F1CD3A0E
:1034B00061F1C03B69F1CE3A71F1CF3A79F1C13B8C
:1034C00081F1C23B89F1C33B91F1C43B99F1C53B0A
:1034D000A1F1C63BA9F1C73BB1F1C83BB9F1C93B6A
:1034E000C1F1CA3BC9F180E090E038C082EE90E0C3
:1034F00035C089EE90E032C08AEE90E02FC085EBB7
:1035000090E02CC086EB90E029C087EB90E026C0CD
:103510008CEC90E023C08DEC90E020C083E891E03B
:103520001DC08AE891E01AC082E991E017C084E9E1
:1035300091E014C081E292E011C083E292E00EC0FB
:1035400084E292E00BC085E292E008C086E292E05D
:1035500005C087E292E002C08AE292E0CF910C942B
:10356000F618CF910895882309F44BC0823859F496
:103570000E94801881FF45C089E30E9406240E94B2
:10358000A92589E30CC0833871F40E94801880FF5C
:1035900038C083E50E9406240E94A92583E50E9485
:1035A000D6240C94A925843859F40E94801882FFEF
:1035B00028C087E40E9406240E94A92587E4EFCF53
:1035C0009CEF980F913A58F390E2980F983050F48E
:1035D000877091E001C0990F8A95EAF7892F0E94C0
:1035E0008125DFCF9BE5980F933020F480E090E0B9
:1035F0000C94E018885A833120F480E090E00C9419
:10360000F6180895882321F00E947B250C94A925A3
:103610000895882321F00E9481250C94A9250895FE
:10362000CF92DF92EF92FF920F931F93CF93DF938E
:10363000CDB7DEB727970FB6F894DEBF0FBECDBF6C
:1036400025E0FC01DE01119601900D922A95E1F72B
:10365000FC01408131810281258122952F70638197
:103660007481672B09F448C33F3F19F44F3F09F4B5
:1036700043C37C0149833A8389819A812F830E94C5
:10368000C523182F9E830E94C4230E948B229E81F3
:10369000E92FE295EF70F0E0E859FF4F2F810C948D
:1036A000E435892F807F9F70F92E882319F0F294DA
:1036B00080EFF822002349F0FF2009F45BC28F2D30
:1036C0000E948B250E94A92555C2812F0E94B31A02
:1036D000FF2009F411C38F2D0E94912527960FB664
:1036E000F894DEBF0FBECDBFDF91CF911F910F9138
:1036F000FF90EF90DF90CF900C94A925892F807FC9
:103700009F70803211F4892F03C0892F8295807FAA
:10371000112319F0113009F12AC00023A1F022234E
:1037200081F1213071F527960FB6F894DEBF0FBEF8
:10373000CDBFDF91CF911F910F91FF90EF90DF9060
:10374000CF900C949B25222319F0213009F4D4C288
:103750008E830E949E258E8191C1002321F0263008
:1037600008F0CAC20EC0253008F0C6C287C10023C7
:10377000C1F0222331F0F701958190FFFBC19F70CA
:10378000958327960FB6F894DEBF0FBECDBFDF91AD
:10379000CF911F910F91FF90EF90DF90CF900C94FD
:1037A000021B222309F46AC1F9C1292F2695269507
:1037B000237030E02115310521F021303105C1F0B1
:1037C0009BC2002319F0812F937002C080E090E02B
:1037D00027960FB6F894DEBF0FBECDBFDF91CF9115
:1037E0001F910F91FF90EF90DF90CF900C94E01815
:1037F000002319F0812F937002C080E090E027969B
:103800000FB6F894DEBF0FBECDBFDF91CF911F91F1
:103810000F91FF90EF90DF90CF900C94F618812FCE
:10382000002319F00E94A12802C00E9409292796AE
:103830000FB6F894DEBF0FBECDBFDF91CF911F91C1
:103840000F91FF90EF90DF90CF900C948E29892FED
:10385000837009F079C001114FC2812F829586953E
:103860008770880F880F212F2F70C22ED12CE12C4A
:10387000F12C082E04C0CC0CDD1CEE1CFF1C0A949D
:10388000D2F714FF12C04FE050E060E070E004C0D7
:10389000440F551F661F771F8A95D2F78A019B0137
:1038A000009510952095309503C000E010E0980138
:1038B000969596959370492F50E0C901B801423012
:1038C0005105D1F04330510559F16C297D298E29DC
:1038D0009F294130510541F127960FB6F894DEBF7C
:1038E0000FBECDBFDF91CF911F910F91FF90EF9051
:1038F000DF90CF900C94B2226C297D298E299F29CC
:1039000027960FB6F894DEBF0FBECDBFDF91CF91E3
:103910001F910F91FF90EF90DF90CF900C94CE22EB
:103920000E94B222C701B60127960FB6F894DEBFF7
:103930000FBECDBFDF91CF911F910F91FF90EF9000
:10394000DF90CF900C949622002319F0892F81707C
:1039500001C08695882309F4CFC1812F8295869571
:103960008770880F880F212F2F70C22ED12CE12C49
:10397000F12C082E04C0CC0CDD1CEE1CFF1C0A949C
:10398000D2F714FF12C04FE050E060E070E004C0D6
:10399000440F551F661F771F8A95D2F78A019B0136
:1039A000009510952095309503C000E010E0980137
:1039B000969596959370492F50E0C901B801423011
:1039C0005105D1F04330510559F16C297D298E29DB
:1039D0009F294130510541F127960FB6F894DEBF7B
:1039E0000FBECDBFDF91CF911F910F91FF90EF9050
:1039F000DF90CF900C948C236C297D298E299F29F0
:103A000027960FB6F894DEBF0FBECDBFDF91CF91E2
:103A10001F910F91FF90EF90DF90CF900C94A8230F
:103A20000E948C23C701B60127960FB6F894DEBF1B
:103A30000FBECDBFDF91CF911F910F91FF90EF90FF
:103A4000DF90CF900C947023103F41F118F4103E9A
:103A500048F48BC0123F09F450C0D8F1133F09F469
:103A600060C083C01F70892F8F71002321F00E94D6
:103A70000923812F86CE0E942A23812F27960FB6F5
:103A8000F894DEBF0FBECDBFDF91CF911F910F9194
:103A9000FF90EF90DF90CF900C94091B0023A9F0CA
:103AA000253008F029C1892F8F7127960FB6F89419
:103AB000DEBF0FBECDBFDF91CF911F910F91FF9061
:103AC000EF90DF90CF900C944F23263008F014C174
:103AD000EACF0023A1F0892F8F7127960FB6F894B3
:103AE000DEBF0FBECDBFDF91CF911F910F91FF9031
:103AF000EF90DF90CF900C940923002361F3892F7E
:103B00008F7127960FB6F894DEBF0FBECDBFDF9141
:103B1000CF911F910F91FF90EF90DF90CF900C9479
:103B20002A23002391F0892F8F7127960FB6F894DE
:103B3000DEBF0FBECDBFDF91CF911F910F91FF90E0
:103B4000EF90DF90CF900C94F42227960FB6F89464
:103B5000DEBF0FBECDBFDF91CF911F910F91FF90C0
:103B6000EF90DF90CF900C94EA220023A1F0222363
:103B700009F4B1CF812F27960FB6F894DEBF0FBEA0
:103B8000CDBFDF91CF911F910F91FF90EF90DF900C
:103B9000CF900C94EB19222309F4B1CF812F2796F3
:103BA0000FB6F894DEBF0FBECDBFDF91CF911F914E
:103BB0000F91FF90EF90DF90CF900C94B31A492FA4
:103BC0004F70612FC7010E94892627960FB6F8947F
:103BD000DEBF0FBECDBFDF91CF911F910F91FF9040
:103BE000EF90DF90CF900C941022011185C011232B
:103BF00041F0892F8F70843021F0907F212F2F701A
:103C0000922B9F70492F50E04230510509F440C07B
:103C1000BCF44115510561F14130510509F06CC00A
:103C200027960FB6F894DEBF0FBECDBFDF91CF91C0
:103C30001F910F91FF90EF90DF90CF900C94DB32AB
:103C400043305105A9F14430510509F055C0812F89
:103C500027960FB6F894DEBF0FBECDBFDF91CF9190
:103C60001F910F91FF90EF90DF90CF900C946F33E6
:103C700027960FB6F894DEBF0FBECDBFDF91CF9170
:103C80001F910F91FF90EF90DF90CF900C94AF3287
:103C900027960FB6F894DEBF0FBECDBFDF91CF9150
:103CA0001F910F91FF90EF90DF90CF900C9407330E
:103CB00027960FB6F894DEBF0FBECDBFDF91CF9130
:103CC0001F910F91FF90EF90DF90CF900C943933BC
:103CD000492F4F70612FC70127960FB6F894DEBFAA
:103CE0000FBECDBFDF91CF911F910F91FF90EF904D
:103CF000DF90CF900C94530927960FB6F894DEBF4F
:103D00000FBECDBFDF91CF911F910F91FF90EF902C
:103D1000DF90CF9008950E9498250E946D250E9403
:103D2000A9250E94C02A0E948E2980E090E00E946E
:103D3000E01880E090E00C94F6180E9488250C941E
:103D40008B1E0E94C523292F22952F7030E02C3026
:103D500031054CF42A3031056CF4225031092230FF
:103D6000310588F407C02C30310549F02F3031057A
:103D700031F009C0803E48F0803F29F406C093FB33
:103D8000882780F9089580E0089581E00895CF9311
:103D9000DF9300D000D01F92CDB7DEB70F900F9009
:103DA0000F900F900F90DF91CF910895CF93DF93F5
:103DB00000D000D000D0CDB7DEB726960FB6F8946D
:103DC000DEBF0FBECDBFDF91CF910895CF93DF93BC
:103DD000CDB7DEB72B970FB6F894DEBF0FBECDBFC1
:103DE0004F83588769877A878B87DE01119686E033
:103DF000FD0111928A95E9F785E0FE013796019061
:103E00000D928A95E1F74F81588569857A858B8572
:103E10000E94240B49815A816B817C818D819E8116
:103E20000E946C212B960FB6F894DEBF0FBECDBF5B
:103E3000DF91CF9108951F93CF93DF93C0918601B7
:103E400016E080918701C81799F0D0E01C9FF0011F
:103E50001D9FF00D1124E857FE4F40815181628172
:103E60007381848195810E94D61E2196C770E9CF07
:103E7000DF91CF911F9108954091B8015091B90100
:103E80006091BA017091BB018091BC019091BD011C
:103E90000C94D61E8091BD0182958F7009F054C09C
:103EA0008091BA01882309F44FC080918601A091C6
:103EB00087016091B8017091B9014091BB015091A7
:103EC000BC01B6E08A1709F43FC090E041155105E6
:103ED000C1F17F3F11F46F3FA1F1B89FF001B99F8D
:103EE000F00D1124E857FE4F218172132AC0208162
:103EF000621327C02281211124C023813481241719
:103F0000350710F421503109241B350B283C3105AD
:103F1000C0F42091BD012F7020612093BD0126E0E7
:103F2000289FF001299FF00D1124E357FE4F808157
:103F30008F708061808388EB91E00E94101B0C944D
:103F40001B1F01968770BECF0895CF92DF92EF922C
:103F5000FF920F931F93CF93DF93CDB7DEB7629796
:103F60000FB6F894DEBF0FBECDBF8C0185E0F8011F
:103F7000DE011D9601900D928A95E1F7D8014C91D2
:103F800011965C91119712966C9112971396CD90A1
:103F9000DC9014973091B8017091B9018091BB0108
:103FA0009091BC01009709F46BC17F3F19F43F3F2A
:103FB00009F466C1E090BA01EE2009F4C0C0209176
:103FC000BD01C816D90628F0F601E81BF90BCF0190
:103FD00004C0809590958C0D9D1DFF24F394883C22
:103FE000910578F0F12C207F09F0C6C07C2DD98A8C
:103FF000C88A89890E94C71E88EB91E00E94101B25
:10400000B1C0822F807F09F046C0751314C03413ED
:1040100012C0611110C02F7020612093BD010E9459
:104020003C1F88EB91E00E94101B8091BD01D801DC
:1040300015968C932EC0CD2819F15F3F11F44F3F98
:10404000F9F0F62E61111CC0809186012091870144
:1040500036E0821709F45AC090E0389FF001399F8A
:10406000F00D1124E857FE4F7181571306C070817F
:10407000471303C07281711103C001968770E9CFA5
:10408000F62E662309F418C18091BD0181608093EA
:10409000BD01F12C11C1751308C0341306C06111A4
:1040A00004C08091BD01D801C3C04D875E878D8556
:1040B0009E856A8B0E94A11E6A898823E1F166238E
:1040C000D1F12091BD01822F82958F7090E00297EF
:1040D00074F08091B8019091B90198878F83198607
:1040E000DB86CA862C87CE0107960E94101B86E0CD
:1040F000F801A8EBB1E001900D928A95E1F70E94DA
:104100004A1F0E943C1FFF24F394D6C04D875E8750
:104110008D859E850E94C523292F22952F7030E022
:10412000223031050CF0BCC09F7009F0B6C0805E33
:10413000883008F4C1C0C8010E94101BE4CFC81623
:10414000D90608F453C0F601E81BF90BCF01883CEF
:10415000910508F450C0F12C7C2DD98AC88A898930
:104160000E94C71EE8EBF1E086E0DF011D928A9510
:10417000E9F70E943C1FA0C0751314C0341312C08D
:10418000611110C08091BD01F8018583C8010E94B2
:10419000101B86E0E8EBF1E0DF011D928A95E9F75C
:1041A000FE2C8AC04D875E878D859E856A8B0E9416
:1041B000A11E6A89882309F4BECF662309F4BBCF08
:1041C0002091BD01822F82958F7090E002970CF4B0
:1041D0008ECF8091B8019091B9019A8389831B8217
:1041E000DD82CC822E83CE0101967FCF8095909583
:1041F0008C0D9D1DACCFF62E662309F49CCF751354
:104200002EC034132CC02091BD0120FD1FC0822F71
:1042100082958F70D9F0D80115962C9315978F3011
:1042200049F08F5F982F9295907F822F8F70892B06
:1042300015968C93C8010E94101B86E0F801A8EB2C
:10424000B1E001900D928A95E1F793CF86E0F801F5
:10425000A8EBB1E001900D928A95E1F72DC04D8752
:104260005E878D859E850E94A11E811140CF809121
:10427000BD0181608093BD01C8010E94101B1CC05C
:10428000662309F458CF4D875E878D859E850E94F1
:10429000A11E882309F44FCF2ACF811148CF0CC02B
:1042A000243031050CF047CF9F7009F440CFF8015E
:1042B0009581907F09F03BCF8F2D62960FB6F894D1
:1042C000DEBF0FBECDBFDF91CF911F910F91FF9049
:1042D000EF90DF90CF9008951F93CF93DF93CDB7EA
:1042E000DEB72C970FB6F894DEBF0FBECDBF4F835D
:1042F000588769877A878B879C87CE0107960E94AB
:10430000A51F882369F08F8198852A853B85232BFB
:10431000F1F19F3F09F063C08F3F09F060C037C0E3
:1043200086E0FE013796DE01119601900D928A9586
:10433000E1F76F817885EA85FB85309741F17F3F12
:1043400011F46F3F21F12091870130E0C9010196FE
:10435000877099274091860150E08417950709F4EA
:1043600047C069837A83FD83EC8396E0929FD001F6
:10437000939FB00D1124A857BE4FFE0131960190B6
:104380000D929A95E1F7809387010E941B1F16E01A
:1043900080918601909187018917C1F1189FC00112
:1043A000112488579E4F0E94A51F882379F1E09120
:1043B00086011E9FF0011124E857FE4F4081518174
:1043C00062817381848195810E94D61E80918601CD
:1043D00090E001968770992780938601D9CF4F810D
:1043E000588569857A858B859C850E94D61ECFCF9E
:1043F0000E949D1E1092870110928601E8EBF1E069
:1044000086E0DF011D928A95E9F7C1CF2C960FB6A1
:10441000F894DEBF0FBECDBFDF91CF911F910895FD
:10442000EF92FF920F931F93CF93DF938C01892B11
:1044300009F46AC0F12CEE24E394E8012196F80116
:104440008491843740F4843008F04FC0813081F08B
:10445000823019F159C0853709F442C098F19CE7C0
:10446000980F903708F050C08F770E94B31A3FC062
:104470000E5F1F4FFE01C49180E28C0F883048F41C
:10448000C7708E2D01C0880FCA95EAF70E948B2550
:104490002FC08C2F0E94EB192BC00E5F1F4FFE0107
:1044A000C49180E28C0F883048F4C7708E2D01C013
:1044B000880FCA95EAF70E9491251AC08C2F0E9496
:1044C000B31A16C00E5F1F4FFE01C491CC2381F0BA
:1044D0008FE99FE00197F1F700C00000C150F6CFCF
:1044E0000E5F1F4FFE01F49003C00E94EB198E0176
:1044F0008F2D882309F4A1CFEFE9FFE03197F1F781
:1045000000C000008150F5CFDF91CF911F910F9136
:10451000FF90EF90089508956093C2017093C301D6
:104520008093C4019093C5010C948B1E0F931F932D
:104530000091C2011091C3012091C4013091C501C5
:10454000DC01CB01802B912BA22BB32B8093C201DA
:104550009093C301A093C401B093C5011F910F9123
:104560000C948B1E0F931F930091C2011091C301F5
:104570002091C4013091C501DC01CB01802391233E
:10458000A223B3238093C2019093C301A093C401DB
:10459000B093C5011F910F910C948B1E0F931F9325
:1045A0000091C2011091C3012091C4013091C50155
:1045B000DC01CB0180279127A227B3278093C2017A
:1045C0009093C301A093C401B093C5011F910F91B3
:1045D0000C948B1E1092BE011092BF011092C0016C
:1045E0001092C1010C948B1E41E050E060E070E03D
:1045F00004C0440F551F661F771F8A95D2F740935A
:10460000BE015093BF016093C0017093C1010C942F
:104610008B1E41E050E060E070E004C0440F551F85
:10462000661F771F8A95D2F78091BE019091BF01D6
:10463000A091C001B091C101482B592B6A2B7B2B53
:104640004093BE015093BF016093C0017093C101BC
:104650000C948B1E41E050E060E070E004C0440F19
:10466000551F661F771F8A95D2F740955095609524
:1046700070958091BE019091BF01A091C001B09151
:10468000C101482359236A237B234093BE015093E1
:10469000BF016093C0017093C1010C948B1E41E077
:1046A00050E060E070E004C0440F551F661F771FA4
:1046B0008A95D2F78091BE019091BF01A091C0016F
:1046C000B091C101482759276A277B274093BE0133
:1046D0005093BF016093C0017093C1010C948B1E75
:1046E0000F931F930091BE011091BF012091C00153
:1046F0003091C101DC01CB01802B912BA22BB32B7C
:104700008093BE019093BF01A093C001B093C101FB
:104710001F910F910C948B1E0F931F930091BE015C
:104720001091BF012091C0013091C101DC01CB018A
:1047300080239123A223B3238093BE019093BF01D2
:10474000A093C001B093C1011F910F910C948B1ED7
:104750000F931F930091BE011091BF012091C001E2
:104760003091C101DC01CB0180279127A227B3271B
:104770008093BE019093BF01A093C001B093C1018B
:104780001F910F910C948B1E0895CF92DF92EF92A0
:10479000FF920F931F93CF93DF938C01C090C201C0
:1047A000D090C301E090C401F090C5014091BE01DA
:1047B0005091BF016091C0017091C101C42AD52AF6
:1047C000E62AF72ACFE1D0E0D701C6010C2E04C0BB
:1047D000B695A795979587950A94D2F780FF07C05D
:1047E000B8018C2F0E94CF258130910531F421979B
:1047F00058F7B80180E00E94CF25DF91CF911F913B
:104800000F91FF90EF90DF90CF900895CF92DF92BD
:10481000EF92FF920F931F93CF93DF93C82F809156
:104820000D01882341F18C2F8695869586958F30D2
:1048300088F4E0910E01F0910F01E80FF11DC770AF
:1048400081E090E001C0880FCA95EAF79181892B39
:104850008183A3C08091DC0180FF9FC01F92CF9312
:104860008CE995E09F938F930E9442090F900F90DF
:104870000F900F9092C0D090D9013091D701E09164
:104880000E01F0910F01332309F473C04091D80158
:104890008D2D2FEF96E0E92EF12C082F082E000C1D
:1048A000110BBF01600F711FDB0112969C919C17C9
:1048B00009F473C02F3F19F4911101C0282FC801CA
:1048C000019606E010E0B7010E94D0358413E5CFD1
:1048D000D22F4D114EC02F3F69F4842F440F990BF6
:1048E0000196B8010E94D0358093D90131503093A0
:1048F000D7013FC0822F220F990B0196B8010E9469
:10490000D035282FFF24F39406E010E0022E000C8F
:10491000330B6F01C20ED31ED60112965C91552344
:1049200091F08D2FDD0F990BBF01680F791FDB010F
:1049300012965C93D60112961C920196B8010E94C1
:10494000D035D82F01C0F394C9010196B8010E9457
:10495000D035282F8413DACF242F440F330B2F198F
:104960003109C901069666E070E00E94D035809357
:10497000D8018091D801082E000C990BE80FF91F7F
:10498000C283019666E070E00E94D0358093D80122
:104990008091D7018F5F8093D701DF91CF911F91D5
:1049A0000F91FF90EF90DF90CF900895EF92FF92DC
:1049B0000F931F93CF93DF93482F80910D0188238E
:1049C00049F1842F8695869586958F3090F4E091F5
:1049D0000E01F0910F01E80FF11D477081E090E0AA
:1049E00001C0880F4A95EAF78095918189238183D8
:1049F0006DC08091DC0180FF69C01F924F938EE7EC
:104A000095E09F938F930E9442090F900F900F9013
:104A10000F905CC02091D901E091D701EE2309F4F9
:104A200055C0C0910E01D0910F010091D801002E08
:104A3000000C110B86E0E82EF12C30E0DE01A20F15
:104A4000B31FCD01029612965C91541335C0DC0160
:104A50001C92E150E093D701E11104C01092D901FA
:104A60001092D8014091D801842F042E000C990B8C
:104A7000059666E070E00E94D0352817390731F5B9
:104A8000F090D90106E010E0842F440F990B0596B1
:104A9000B8010E94D0359C01482F0596B8010E94AC
:104AA000D035FE01E80FF91F8281811102C02F115C
:104AB000EBCF2093D8010AC0C9010196B7010E942B
:104AC000D035282F8017910709F0B7CFDF91CF910C
:104AD0001F910F91FF90EF90089581E090E0E09199
:104AE0000E01F0910F01E80FF91F1082019680313D
:104AF0009105A9F708959091DB01892B8093DB0143
:104B0000089580959091DB0189238093DB010895BE
:104B10001092DB0108959091DA01892B8093DA01DC
:104B2000089580959091DA0189238093DA010895A0
:104B30001092DA0108958093C60108951092C6017B
:104B4000089580910D01811103C08091D7010895CE
:104B50000895E0910E01F0910F018091DB018083B7
:104B6000E0910E01F0910F0190818091DA01892B83
:104B700080838091C601882361F0E0910E01F0915D
:104B80000F019081892B80830E94A12581111092B1
:104B9000C60180910E0190910F010C948C180E9417
:104BA000880990E4980F903218F40E948C090895B7
:104BB0008D3B50F4883AF0F4853A98F4843070F4E0
:104BC000813009F45DC007C0803E28F0883E30F097
:104BD000803F08F051C020E030E099C0282F30E03D
:104BE00096C0853A09F44FC0863A09F44FC023E8CD
:104BF00030E48DC0883A09F44CC0893A09F44CC0BD
:104C00008A3A09F44CC08B3A09F44CC08C3A09F446
:104C10004CC08B3B09F44CC08C3B09F44CC08D3A22
:104C200009F44CC0803B09F44CC08E3A09F44CC0E6
:104C30008F3A09F44CC0813B09F44CC0823B09F423
:104C40004CC0833B09F44CC0843B09F44CC0853B09
:104C500009F44CC0863B09F44CC0873B09F44CC0B6
:104C6000883B09F44CC0893B09F44CC08A3B09F4E9
:104C70004CC020E034E44BC0282F30E0306547C002
:104C800021E030E044C021E830E441C022E830E4D3
:104C90003EC022EE34E43BC029EE34E438C02AEEB4
:104CA00034E435C025EB34E432C026EB34E42FC0C5
:104CB00023EB34E42CC024EB34E429C027EB34E4A8
:104CC00026C02CEC34E423C02DEC34E420C023E8CF
:104CD00035E41DC02AE835E41AC022E935E417C0DE
:104CE00024E935E414C021E236E411C023E236E4BD
:104CF0000EC024E236E40BC025E236E408C026E20A
:104D000036E405C027E236E402C02AE236E4C901EF
:104D1000089580E090E0089590933B0180933A01DC
:104D20000895CF92DF92EF92FF926C01EE24FF2460
:104D3000C114D104E104F10421F0C701B60120E15E
:104D400001C020E0C72ED82EE92EFF24C114D104C3
:104D5000E104F10419F0285FC701B6016B017C0181
:104D600054E0F694E794D794C7945A95D1F7C114B8
:104D7000D104E104F10419F02C5FC701B6016B0105
:104D80007C0142E0F694E794D794C7944A95D1F712
:104D9000C114D104E104F10419F02E5FC701B6017A
:104DA000DC01CB01B695A79597958795892B8A2B22
:104DB0008B2B09F02F5F822FFF90EF90DF90CF9029
:104DC00008958295982F9C7C392F36953695282FFB
:104DD000237344E0249FC0011124932F982B292F83
:104DE0002A7A2695892F8575880F822B08951F931F
:104DF000CF93DF931F92CDB7DEB799830E94E12650
:104E0000182F9981892F0E94E126212F30E0322F1F
:104E10002227A901482BCA010F90DF91CF911F9142
:104E20000895CF930E944B090E94C5090E944C0926
:104E3000C0E08C2F0E944D0A811104C0CF5FC830A2
:104E4000C1F701C081E0CF9108951F920F920FB674
:104E50000F9211248F939F93AF93BF938091DD01A5
:104E6000811113C08091DF019091E001A091E101D7
:104E7000B091E2014196A11DB11D8093DF01909395
:104E8000E001A093E101B093E201BF91AF919F9146
:104E90008F910F900FBE0F901F90189508958091DD
:104EA0001202843009F42DC01092DD0120E488E163
:104EB00090E00FB6F894A895809360000FBE209301
:104EC00060000E944E2780910C028093DE018111C8
:104ED0000E949A3083B7817F846083BF83B78160EB
:104EE00083BF7894889583B78E7F83BF0FB6F8947D
:104EF000A8958091600088618093600010926000A6
:104F00000FBE089508950E949D1E0E9491308091C9
:104F1000DE011F928F938AEB95E09F938F930E94FF
:104F200042090E9482270F900F900F900F900C94CF
:104F30009E3282E084BD93E095BD9AEF97BD809349
:104F40006E0008952FB7F8948091DF019091E001F1
:104F5000A091E101B091E2012FBF0895CF92DF92BD
:104F6000EF92FF920F931F932FB7F8944091DF01B8
:104F70005091E0016091E1017091E2012FBF6A015F
:104F80007B01EE24FF248C0120E030E0C016D10626
:104F9000E206F30610F4415051099A01281B390B1F
:104FA000C9011F910F91FF90EF90DF90CF9008956E
:104FB0001F920F920FB60F9211248F939F93AF936E
:104FC000BF938091DF019091E001A091E101B09148
:104FD000E2010196A11DB11D8093DF019093E001D4
:104FE000A093E101B093E201BF91AF919F918F91A6
:104FF0000F900FBE0F901F9018950E94B711F89454
:105000002FEF87EA91E6215080409040E1F700C001
:10501000000087E090EBDC0180931C0290931D025E
:10502000A0931E02B0931F029CE088E10FB6F89493
:10503000A895809360000FBE90936000FFCF809191
:10504000E50180FF0BC06091130185E0689FB0010E
:10505000112475956795759567952BC081FF09C0DB
:105060006091130185E0689FB001112475956795E3
:1050700020C082FF07C06091130185E0689FB001E6
:10508000112417C09091E6019923D1F0609112018B
:10509000961788F72091130185E0289F900111242D
:1050A000929FA001939F500D112470E0CA010E94AD
:1050B000D0356038710540F46115710539F002C0D2
:1050C00065E070E0862F08958FE7089581E00895E8
:1050D0008091E50180FF08C06091110170E0759535
:1050E00067957595679521C081FF06C06091110194
:1050F00070E07595679519C082FF04C06091110139
:1051000070E010C09091E6019923C1F06091100108
:105110009617A0F780911101899FC001112470E0BA
:105120000E94D0356038710528F46115710521F0B1
:10513000862F08958FE7089581E0089561E070E07B
:10514000F4CF803F21F40E941F28819504C0813F45
:1051500029F40E941F288093E9010895823F21F4D9
:105160000E941F28819504C0833F29F40E941F28B4
:105170008093E8010895893F19F40E94682805C0CA
:105180008A3F31F40E94682881958093EA0108954E
:105190008B3F21F40E946828819504C08C3F29F43C
:1051A0000E9468288093EB010895843F21F4809148
:1051B000E701816017C0853F21F48091E70182609B
:1051C00011C0863F21F48091E70184600BC0873FC6
:1051D00021F48091E701886005C0883F31F4809117
:1051E000E70180618093E70108958D3F21F480916C
:1051F000E50181600BC08E3F21F48091E501826062
:1052000005C08F3F29F48091E50184608093E5011A
:105210000895803F39F48091E90187FF6CC01092B6
:10522000E90169C0813F29F48091E9011816BCF3B6
:1052300062C09091E801823F29F497FF5CC0109210
:10524000E80159C0833F19F41916CCF354C0893FC3
:1052500041F48091EA0118160CF04DC01092EA0159
:105260004AC08A3F29F48091EA0187FF44C0F6CF03
:105270008B3F39F48091EB0187FF3DC01092EB0129
:105280003AC08C3F29F48091EB011816BCF333C06F
:10529000843F21F48091E7018E7F17C0853F21F480
:1052A0008091E7018D7F11C0863F21F48091E70155
:1052B0008B7F0BC0873F21F48091E701877F05C07A
:1052C000883F31F48091E7018F7E8093E70113C01E
:1052D0008D3F21F48091E5018E7F0BC08E3F21F43C
:1052E0008091E5018D7F05C08F3F29F48091E50114
:1052F0008B7F8093E5018091E80181110EC0809140
:10530000E90181110AC08091EA01811106C08091F2
:10531000EB01811102C01092E60108958091DC0139
:1053200083FF7EC089EF95E00E94A9088091E70184
:105330001F928F9384EF95E09F938F930E94420971
:1053400082EF95E00E94A9088091E801282F082E9D
:10535000000C330B3F938F938FEE95E09F938F93C9
:105360000E9442098DEE95E00E94A9088091E90112
:10537000282F082E000C330B3F938F938AEE95E075
:105380009F938F930E94420988EE95E00E94A9089E
:105390008091EA01282F082E000C330B3F938F9346
:1053A00085EE95E09F938F930E94420983EE95E0EE
:1053B0000E94A9088091EB01282F082E000C330BC6
:1053C0003F938F9380EE95E09F938F930E944209C5
:1053D0008DED95E00E94A9088091E6011F928F93C0
:1053E0008AED95E09F938F930E94420988ED95E0A6
:1053F0000E94A9088091E5011F928F9385ED95E0A9
:105400009F938F930E94420982ED95E00E94A90824
:105410008DB79EB74C960FB6F8949EBF0FBE8DBF4A
:1054200087EE91E00E94D5180E94A2279093E40194
:105430008093E30108951F93CF93DF938091E3015D
:105440009091E4010E94AE27AC019091E60199236E
:1054500021F02091140130E006C0209115018AE06E
:10546000289F900111244217530708F485C08091AA
:10547000E801C091E901D091EA011091EB0181119D
:1054800007C0C11175C0D11173C0111171C074C0B2
:105490009F3F19F09F5F9093E601181624F40E9435
:1054A0001F288093E8018091E80187FF05C00E94D2
:1054B0001F2881958093E8011C1624F40E941F2860
:1054C0008093E9018091E90187FF05C00E941F28B0
:1054D00081958093E9016091E801662331F1C091E3
:1054E000E901CC2311F1062E000C770B880B990BE8
:1054F0000E94C33423E333E343E35FE30E94273591
:105500000E948B346093E8016C2FCC0F770B880BD3
:10551000990B0E94C33423E333E343E35FE30E9428
:1055200027350E948B346093E9011D1624F40E94F4
:1055300068288093EA018091EA0187FF05C00E94F4
:10554000682881958093EA01111624F40E94682846
:105550008093EB018091EB0187FF05C00E946828D2
:1055600081958093EB01DF91CF911F910C948E294F
:105570009F3F09F08FCF97CFDF91CF911F91089573
:10558000E7EEF1E085E0DF011D928A95E9F71092E0
:10559000E6011092E501089588EC9AE00E94A908BE
:1055A0008BEB9AE00E94A9088EEA9AE00C94A90875
:1055B0008BE29AE00E94A9088EE19AE00E94A90875
:1055C00083E09AE00E94A90888EE99E00E94A90869
:1055D00080ED99E00E94A90886EB99E00E94A90855
:1055E00088E999E00E94A90888E799E00E94A90843
:1055F00083E699E00E94A9088CE499E00E94A9083A
:105600008FE299E00E94A90880E199E00E94A90830
:1056100080EF98E00E94A9088EEC98E00E94A9080B
:1056200089E998E00E94A90884E898E00E94A90806
:105630001F9285E08F9381E898E09F938F930E945B
:10564000420988E798E00E94A9081F9281E08F93A1
:1056500085E798E09F938F930E94420983E798E043
:105660000E94A9088DB79EB708960FB6F8949EBF02
:105670000FBE8DBF86E498E00C94A908833009F42E
:1056800059C028F4813061F0823079F10895853075
:1056900009F49AC008F473C0863009F4BAC00895BA
:1056A00080911501262F30E0280F311D2F3F310545
:1056B00024F4680F6093150103C08FEF80931501E8
:1056C00082E297E00E94A908809115011F928F93B2
:1056D0008FE197E09F938F930E9442090F900F9064
:1056E0000F900F908DE197E0B8C080911401262FA4
:1056F00030E0280F311D2F3F310524F4680F6093EF
:10570000140103C08FEF809314018EE097E00E9494
:10571000A908809114011F928F938BE097E09F93CB
:105720008F930E9442090F900F900F900F9089E085
:1057300097E093C080911301262F30E0280F311D90
:105740002F3F310524F4680F6093130103C08FEFDE
:105750008093130189EF96E00E94A90880911301BC
:105760001F928F9386EF96E09F938F930E9442093A
:105770000F900F900F900F9084EF96E06EC0809185
:105780001201262F30E0280F311D2F3F310524F460
:10579000680F6093120103C08FEF8093120182EEB5
:1057A00096E00E94A908809112011F928F938FEDBD
:1057B00096E09F938F930E9442090F900F900F9055
:1057C0000F908DED96E049C080911101262F30E0B9
:1057D000280F311D2F3F310524F4680F609311010C
:1057E00003C08FEF8093110187EC96E00E94A90817
:1057F000809111011F928F9384EC96E09F938F9379
:105800000E9442090F900F900F900F9082EC96E04B
:1058100024C080911001262F30E0280F311D2F3F2A
:10582000310524F4680F6093100103C08FEF80935B
:1058300010018AEA96E00E94A908809110011F9247
:105840008F9387EA96E09F938F930E9442090F906F
:105850000F900F900F9085EA96E00C94A908833082
:1058600009F44DC028F4813061F0823049F1089587
:10587000853009F482C008F461C0863009F49CC008
:10588000089580911501681720F4861B80931501F7
:1058900002C01092150189E996E00E94A908809142
:1058A00015011F928F9386E996E09F938F930E9434
:1058B00042090F900F900F900F9084E996E09AC0E4
:1058C00080911401681720F4861B8093140102C094
:1058D0001092140185E896E00E94A90880911401B5
:1058E0001F928F9382E896E09F938F930E944209C4
:1058F0000F900F900F900F9080E896E07BC0809102
:105900001301681720F4861B8093130102C01092C4
:10591000130180E796E00E94A908809113011F926D
:105920008F938DE696E09F938F930E9442090F908C
:105930000F900F900F908BE696E05CC08091120163
:10594000681720F4861B8093120102C01092120186
:1059500089E596E00E94A908809112011F928F9319
:1059600086E596E09F938F930E9442090F900F90D7
:105970000F900F9084E596E03DC08091110168176B
:1059800020F4861B8093110102C0109211018EE356
:1059900096E00E94A908809111011F928F938BE3DA
:1059A00096E09F938F930E9442090F900F900F9063
:1059B0000F9089E396E01EC080911001681720F4D3
:1059C000861B8093100102C01092100181E296E0C4
:1059D0000E94A908809110011F928F938EE196E09A
:1059E0009F938F930E9442090F900F900F900F90FA
:1059F0008CE196E00C94A908CF93C82F87E99AE030
:105A00000E94A9086091C2017091C3018091C401F4
:105A10009091C5010E9491261F928F9384E99AE08C
:105A20009F938F930E9442098FE89AE00E94A908F1
:105A30001F92CF938CE89AE09F938F930E94420924
:105A40008AE89AE00E94A90881E090E0A0E0B0E036
:105A5000BC01CD0104C0660F771F881F991FCA952E
:105A6000D2F70E948C228DB79EB708960FB6F89495
:105A70009EBF0FBE8DBFCF910C949D1ECF938732DA
:105A800008F065C08E3108F0B4C1803109F434C12A
:105A900010F5873009F4EFC0B8F4863009F0AFC1D3
:105AA0008091DC01817F8E7F8093DC010E94CC2A73
:105AB00087E99FE00E94A90883E99FE00E94A90866
:105AC00081E08093EF017FC18B3009F489C08E3073
:105AD00009F4FEC094C1873109F442C188F58131CF
