:100000000C949F080C94E3080C94E3080C94E30808
:100010000C94E3080C94E3080C94E3080C94E308B4
:100020000C94E3080C94E3080C942D100C94FD1030
:100030000C94C9220C94E3080C94E3080C94E30894
:100040000C94E3080C94462F0C94E3080C94E308FA
:100050000C94E3080C9411230C94E3080C94E3082B
:100060000C94E3080C94E3080C94E3080C94E30864
:100070000C94E3080C94E3080C94E3080C94E30854
:100080000C94E3080C94E3080C94E3080C94E30844
:100090000C94E3080C94E3080C94E3080C94E30834
:1000A0000C94E3080C94E3080C94E308651287129F
:1000B000731387127313C912ED127313421355137E
:1000C0007B167B16A916A916FE163A179F199F19BB
:1000D00052179F1949184918051919199F198D198F
:1000E000282C502C532A392D392DDD2B392D392D23
:1000F0007C2C392D8F2C042D392D392D392D392D6E
:10010000D92CC02C392DA92C392D692C392D392DFC
:10011000332D332D332D332D332D332D332D332DDF
:10012000332D312D392D312D392D392D392D392DB5
:10013000392D392D392D392D392D392D392D312D97
:10014000392D392DDD2BC02B352D352D352D352D68
:10015000352D352D352D352D352D352D352D352D8F
:10016000162D392D3C2C016202620162026200F1FF
:10017000A100D100D200D0291E1F20212223242536
:1001800026272D2E2A2B141A0815171C180C1213AB
:100190002F303139041607090A0B0D0E0F333400C6
:1001A00028E1001D1B0619051110363738C0E5E09F
:1001B000E3E200002C00000000E6C0E7E4353A3B33
:1001C0003C3D3E3F4041424344454C010152010108
:1001D00001B2014901464748010150514F01010157
:1001E0000101014A4B000101000165C1C2C3AAA976
:1001F000A84D4E01010101010000010000000001B5
:100200000101010A002530313662003A2000253014
:100210003258000A722F632030313233343536378A
:1002200038394142434445460A000A0025303258D5
:1002300000626F756E6365213A2000001080FF0137
:100240002300200122022201224B6579626F617234
:10025000642073746172742E0A0055534220636FD8
:100260006E666967757265642E0A000A0347004866
:100270000036003000000012036700650065006B67
:10028000006800610063006B0000000403090409BA
:10029000028D00050100A0320904000001030101E4
:1002A00000092111010001223F0007058103080018
:1002B0000A090401000103010200092111010001E2
:1002C000224D000705820308000A09040200010309
:1002D00000000009211101000122360007058303F7
:1002E00008000A09040300020300000009211101AB
:1002F00000012220000705840320000107050403F4
:10030000200001090404000103000000092111017B
:1003100000012239000705850310000112011001B8
:1003200000000008EDFE606001000102000105010F
:100330000906A101050719E029E71500250195081F
:1003400075018102050819012905950575019102BC
:1003500095017503910105071900297715002501FD
:10036000957875018102C00631FF0974A1010975F4
:10037000150025FF9520750881020976150025FFD7
:10038000952075089102C005010980A1018502161A
:10039000010026B7001A01002AB7007510950181E7
:1003A00000C0050C0901A1018503160100269C026D
:1003B0001A01002A9C02751095018100C0050109EF
:1003C00002A1010901A1000509190129051500254E
:1003D00001950575018102950175038101050109EA
:1003E0003009311581257F95027508810609381578
:1003F00081257F950175088106050C0A3802158153
:10040000257F950175088106C0C005010906A10177
:10041000050719E029E715002501950875018102F6
:1004200095017508810105081901290595057501D2
:1004300091029501750391010507190029FF150027
:1004400025FF950675088100C00A00253032582026
:10045000006B6579626F6172645F7265706F727450
:100460003A20000A0025303258006B6579626F61CE
:1004700072645F7365745F6C65643A200064656CD8
:100480005F6B65795F6269743A2063616E277420DF
:1004900064656C3A20253032580A006164645F6BF1
:1004A00065795F6269743A2063616E2774206164C4
:1004B000643A20253032580A00646F6E652E0A00B7
:1004C000626F6F676D61676963207363616E3A2065
:1004D0002E2E2E2000290A002575002F00257500DC
:1004E0005D280025640020002564002000256400AC
:1004F00020002564007C0025303258006D6F757334
:10050000656B6579205B62746E7C7820792076203B
:10051000685D287265702F61636C293A205B000A60
:10052000002575006D6B5F776865656C5F74696D3C
:10053000655F746F5F6D6178203D20000A0025754E
:10054000006D6B5F776865656C5F6D61785F737078
:10055000656564203D20000A002575006D6B5F74A1
:10056000696D655F746F5F6D6178203D20000A00E2
:100570002575006D6B5F6D61785F737065656420D4
:100580003D20000A002575006D6B5F696E74657211
:1005900076616C203D20000A002575006D6B5F645C
:1005A000656C6179203D20000A002575006D6B5F48
:1005B000776865656C5F74696D655F746F5F6D61A9
:1005C00078203D20000A002575006D6B5F77686517
:1005D000656C5F6D61785F7370656564203D2000B8
:1005E0000A002575006D6B5F74696D655F746F5FE0
:1005F0006D6178203D20000A002575006D6B5F6DF0
:1006000061785F7370656564203D20000A00257580
:10061000006D6B5F696E74657276616C203D2000C1
:100620000A002575006D6B5F64656C6179203D2063
:10063000000A00257500363A206D6B5F77686565A6
:100640006C5F74696D655F746F5F6D61783A2000EF
:100650000A00257500353A206D6B5F776865656C1B
:100660005F6D61785F73706565643A20000A0025EC
:100670007500343A206D6B5F74696D655F746F5FF0
:100680006D61783A20000A00257500333A206D6BC1
:100690005F6D61785F73706565643A20000A0025BC
:1006A0007500323A206D6B5F696E74657276616CAD
:1006B000286D73293A20000A00257500313A206D13
:1006C0006B5F64656C6179282A31306D73293A203B
:1006D000000A0A2D2D2D2D2D204D6F7573656B652C
:1006E0007920506172616D6574657273202D2D2DB6
:1006F0002D2D0A003E20002575004D003F0073653A
:10070000742064656661756C742076616C756573C0
:100710002E0A000A0025750073656C6563746564B4
:1007200020706172616D657465723A2000433E20ED
:10073000000A51756974204D6F7573656B6579207A
:10074000436F6E736F6C650A00536565206874743F
:10075000703A2F2F656E2E77696B697065646961D9
:100760002E6F72672F77696B692F4D6F7573655F99
:100770006B6579730A000A002575002C207768657F
:10078000656C3D0025750077686572652064656C51
:1007900074613A20637572736F723D000A737065FD
:1007A0006564203D2064656C7461202A206D617849
:1007B0005F7370656564202A2028726570656174B6
:1007C000202F2074696D655F746F5F6D6178290AF1
:1007D000007067646F776E3A096465637265617370
:1007E00065207072616D6574657273282D313029D2
:1007F0000A00706775703A09696E637265617365A6
:10080000207072616D6574657273282B3130290A0E
:1008100000646F776E3A0964656372656173652081
:100820007072616D6574657273282D31290A0075C7
:10083000703A09696E637265617365207072616DEB
:100840006574657273282B31290A00643A0973654F
:10085000742064656661756C742076616C7565736F
:100860000A00703A097072696E74207072616D6569
:10087000746572730A00363A0973656C6563742097
:100880006D6B5F776865656C5F74696D655F746FCC
:100890005F6D61780A00353A0973656C6563742091
:1008A0006D6B5F776865656C5F6D61785F737065B0
:1008B00065640A00343A0973656C656374206D6B76
:1008C0005F74696D655F746F5F6D61780A00333ABC
:1008D0000973656C656374206D6B5F6D61785F7320
:1008E000706565640A00323A0973656C656374204B
:1008F0006D6B5F696E74657276616C286D73290A21
:1009000000313A0973656C656374206D6B5F6465D3
:100910006C6179282A31306D73290A004553432FC1
:10092000713A09717569740A000A0A2D2D2D2D2D51
:10093000204D6F7573656B657920506172616D65CF
:10094000746572732048656C70202D2D2D2D2D0A35
:10095000003F004D303E000A456E746572204D6FB9
:100960007573656B657920436F6E736F6C650A00F4
:100970000A5175697420436F6E736F6C65204D6FFB
:1009800064650A00433E20000A0025750020746F4C
:1009900020002575007377697463685F646566611C
:1009A000756C745F6C617965723A20006D3A096DFF
:1009B0006F7573656B65790A004553432F713A096A
:1009C000717569740A000A0A2D2D2D2D2D20436F93
:1009D0006E736F6C652048656C70202D2D2D2D2D4C
:1009E0000A00506175733A096A756D7020746F2042
:1009F000626F6F746C6F616465720A00436170733B
:100A00003A094C6F636B204B6579626F61726428A1
:100A10004368696C642050726F6F66290A005053F6
:100A200063723A09706F77657220646F776E2F7208
:100A3000656D6F74652077616B652D75700A003484
:100A40002F46343A0973776974636820746F204CB9
:100A50006179657234200A00332F46333A0973777F
:100A60006974636820746F204C6179657233200A61
:100A700000322F46323A0973776974636820746FC5
:100A8000204C6179657232200A00312F46313A09D3
:100A900073776974636820746F204C617965723173
:100AA000200A00302F4631303A0973776974636841
:100AB00020746F204C6179657230200A006E3A090B
:100AC000746F67676C65204E4B524F0A00653A0998
:100AD0007072696E7420656570726F6D20636F6EE1
:100AE0006669670A00733A097072696E74207374DC
:100AF000617475730A00743A097072696E742074B7
:100B0000696D657220636F756E740A00763A0970BC
:100B100072696E74206465766963652076657273A8
:100B2000696F6E202620696E666F0A006D3A09743F
:100B30006F67676C65206D6F75736520646562759E
:100B4000670A006B3A09746F67676C65206B65799B
:100B5000626F6172642064656275670A00783A09A1
:100B6000746F67676C65206D617472697820646565
:100B70006275670A00643A09746F67676C65206480
:100B80006562756720656E61626C650A00633A098B
:100B9000656E74657220636F6E736F6C65206D6F28
:100BA00064650A000A0A2D2D2D2D2D20436F6D6DD1
:100BB000616E642048656C70202D2D2D2D2D0A004E
:100BC0000A002575002E6C6576656C3A20000A00D7
:100BD0002575002E656E61626C653A20000A00255D
:100BE000303258006261636B6C696768745F636F71
:100BF0006E6669672E7261773A20000A00257500DB
:100C00002E6E6B726F3A20000A002575002E7377E6
:100C100061705F6261636B736C6173685F62616373
:100C20006B73706163653A20000A002575002E73AE
:100C30007761705F67726176655F6573633A200004
:100C40000A002575002E6E6F5F6775693A20000AED
:100C5000002575002E737761705F72616C745F722E
:100C60006775693A20000A002575002E7377617058
:100C70005F6C616C745F6C6775693A20000A0025CF
:100C800075002E636170736C6F636B5F746F5F636D
:100C90006F6E74726F6C3A20000A002575002E7317
:100CA0007761705F636F6E74726F6C5F6361707396
:100CB0006C6F636B3A20000A0025303258006B6578
:100CC000796D61705F636F6E6669672E7261773AE6
:100CD00020000A002575002E6D6F7573653A20009F
:100CE0000A002575002E6B6579626F6172643A2087
:100CF000000A002575002E6D61747269783A200033
:100D00000A002575002E656E61626C653A20000A46
:100D100000253032580064656275675F636F6E66E8
:100D200069672E7261773A20000A002575006465B4
:100D30006661756C745F6C617965723A20003F0082
:100D40004E4B524F3A2064697361626C65640A00CD
:100D50004E4B524F3A20656E61626C65640A006BBF
:100D60006579626F6172645F69646C653A202558C9
:100D70000A006B6579626F6172645F70726F746F85
:100D8000636F6C3A2025580A00686F73745F6B6557
:100D900079626F6172645F6C65647328293A2025FB
:100DA000580A000A0A2D2D2D2D2D205374617475BB
:100DB00073202D2D2D2D2D0A0074696D65725F63D2
:100DC0006F756E743A202530346C580A00474343DF
:100DD0003A20342E382E31204156522D4C49424370
:100DE0003A20312E382E3073766E204156525F41B4
:100DF0005243483A20617672350A004F5054494FA9
:100E00004E533A204C55464120424F4F544D414796
:100E10004943204D4F5553454B4559204558545251
:100E2000414B455920434F4E534F4C4520434F4D66
:100E30004D414E44204E4B524F20364B524F204B8B
:100E400045594D41505F494E5F454550524F4D20E9
:100E50004C45444D4150204C45444D41505F494E16
:100E60005F454550524F4D204241434B4C49474806
:100E70005420534F465450574D5F4C4544204252E6
:100E800045415448494E475F4C454420343039363B
:100E90000A004255494C443A2065333665323439AC
:100EA0002D6469727479202830313A33313A3435FF
:100EB000204465632031302032303134290A005615
:100EC00049443A20307846454544286765656B6853
:100ED00061636B29205049443A20307836303630EF
:100EE000284748363029205645523A20307830304D
:100EF00030310A00444553433A20742E6D2E6B2E38
:100F0000206B6579626F617264206669726D7761CA
:100F1000726520666F7220474836300A000A0A2D33
:100F20002D2D2D2D2056657273696F6E202D2D2D60
:100F30002D2D0A000A44454255473A206D6F7573BE
:100F4000652064697361626C65642E0A000A444519
:100F50004255473A206D6F75736520656E61626C0E
:100F600065642E0A000A44454255473A206B65796C
:100F7000626F6172642064697361626C65642E0AD9
:100F8000000A44454255473A206B6579626F6172A9
:100F90006420656E61626C65642E0A000A444542F5
:100FA00055473A206D617472697820646973616293
:100FB0006C65642E0A000A44454255473A206D612B
:100FC0007472697820656E61626C65642E0A000A2D
:100FD00044454255473A20656E61626C65642E0A4D
:100FE000000A44454255473A2064697361626C6562
:100FF000642E0A006E6F7420737570706F72746562
:10100000642E0A000A0A4A756D7020746F20626FA0
:101010006F746C6F616465722E2E2E2000433E202B
:10102000000A456E74657220436F6E736F6C6520A5
:101030004D6F64650A00556E6C6F636B65642E0AB4
:10104000004C6F636B65642E0A006565636F6E66A6
:1010500069673A0A0000000000000000000000017B
:10106000010102020203030404050506060708083D
:10107000090A0B0B0C0D0E0F101112131516171970
:101080001A1B1D1E2022232527292B2D2F313335F6
:10109000383A3D3F4244474A4D505356595C5F628F
:1010A00066696C7074777B7E82868A8E9195999D35
:1010B000A1A5A9ADB0B4B8BCC0C3C7CBCED2D5D85A
:1010C000DBDFE2E4E7EAECEFF1F3F5F7F8FAFBFC3B
:1010D000FDFEFFFFFF6261636B6C696768742073DC
:1010E0007465703A2025750A006261636B6C6967EC
:1010F000687420746F67676C653A2025750A006212
:1011000061636B6C6967687420637573746F6D20BD
:1011100064656372656173653A2025750A006261D2
:10112000636B6C6967687420637573746F6D206995
:101130006E6372656173653A2025750A000011249B
:101140001FBECFEFDAE0DEBFCDBF04B603FE24C082
:101150008091120290911302A0911402B091150295
:101160008730904BA740B04BB9F410921202109206
:101170001302109214021092150214BE84B7877FD6
:1011800084BF88E10FB6F8948093600010926000ED
:101190000FBEE0E0F8E3099511E0A0E0B1E0E4E57E
:1011A000FBE602C005900D92A833B107D9F722E003
:1011B000A8E3B1E001C01D92A231B207E1F70E949D
:1011C000790E0C94A8350C940000FF93EF93E091F6
:1011D000C901F091CA01309709F00995EF91FF918B
:1011E0000895FC018591803011F0EFDFFBCF089569
:1011F000FF27E0E230E247FF0CC0419597FF09C0AE
:10120000EDE26095709580959095611D711D811D31
:10121000911D27FF02C0219530E350E2AA27660FF7
:10122000771F881F991FAA1FA41710F0A41B63958E
:101230005A95A9F7AA3008F0A95FA05DAF93F3957E
:10124000611571058105910541F7ED3211F4EF93B8
:10125000F395F21718F43F93F395FBCF8F91B5DF19
:10126000FA95E1F70895E991F9918591803021F09F
:10127000853219F0AADFF9CF089520E0E89455915E
:101280005532C1F3503311F4689455915A3348F4F0
:10129000505390F3220F022E220F220F200D250F04
:1012A000F4CF0EF4219589919991533619F3533760
:1012B00029F1533559F1BC0188279927E8945C3608
:1012C00021F48991999168945591543639F446EFF7
:1012D0007EF077FF0DC08FEF9FEF0AC055374AE0D1
:1012E00039F0583540E121F0523642E009F00895D6
:1012F000FF93EF937DDFEF91FF91B7CFFF93EF93D4
:10130000FC0181918030B9F360DFFBCFFF93EF9355
:1013100068DFF1CFDF93CF93CDB7DEB72596A3DF9C
:10132000CF91DF910895089508958CE890E0089595
:1013300084E090E00895611107C0FC018281882358
:1013400019F086E691E0089580E090E0089561113B
:1013500018C0FC018281882371F00E94962082725D
:1013600011F085E301C089E2809338018091380152
:101370000E940F1504C0809138010E94D7150C946B
:10138000C7200895462F672F0C947733805C0E9406
:101390006B33089587E791E008958FE691E0089513
:1013A0008AB1807D8AB98BB1807D8BB9089585E043
:1013B00008958EE0089580E885BF85BF0E94D0091A
:1013C00080B38C7F80BB81B3836081BB6E98769A3B
:1013D0008AB18F728AB98BB1806D8BB987B18F73E7
:1013E00087B988B1806C88B984B1847084B985B1BB
:1013F0008B6F85B9E3E4F1E0A9E3B1E011921192BA
:101400001D921D9281E0ED34F807C1F70895CF9247
:10141000DF92EF920F931F93CF93DF93C9E3D1E055
:1014200010E001E0A5E0EA2EBCE2CB2EB2E0DB2E1C
:10143000123071F018F4113041F004C0133059F03B
:10144000143061F0509A58980BC0519A599808C0BE
:10145000529A5A9805C0539A5B9802C0559A5D9863
:1014600080EA8A95F1F78FB18170802790E0799BAF
:1014700003C020E030E002C022E030E0822B932B5A
:10148000669B03C020E030E002C024E030E0822B05
:10149000932B26B1332727FD3095209530952227B1
:1014A000330F221F3327F3E0220F331FFA95E1F7A2
:1014B000822B932B369B03C060E070E002C060E19A
:1014C00070E0862B972B1E9B03C060E070E002C08B
:1014D00060E270E0682B792B4C9B03C020E030E089
:1014E00002C020E430E0262B372B199B03C040E0DC
:1014F00050E002C040E850E0422B532B189B0DC037
:1015000083B1992787FD9095809590958827990FAD
:10151000881F9927982F882702C080E091E0842BAC
:10152000952B1D9B03C020E030E002C020E032E09C
:10153000822B932B1C9B03C020E030E002C020E0F4
:1015400034E0822B932B29B1332727FD309520954A
:1015500030952227330F221F3327322F2227330FB4
:10156000330F330F822B932B4E9B03C020E030E0D0
:1015700002C020E030E1822B932B1B9B03C020E0B4
:1015800030E002C020E030E2822B932B28813981A9
:101590002817390741F199838883809100018823B6
:1015A00001F18091C80180FF04C081E392E00E94B4
:1015B000F1088091C80180FF0CC0809100011F924A
:1015C0008F93DF92CF920E948A090F900F900F9015
:1015D0000F908091C80180FF04C08AE292E00E94CF
:1015E000F108E09200010E94D0091F5F2296153099
:1015F00009F01ECF809100018823C1F081508093B3
:101600000001882339F08FE99FE00197F1F700C0CE
:1016100000000CC0A3E4B1E0E9E3F1E08191919115
:101620008D939D9391E0E334F907C1F781E0DF9159
:10163000CF911F910F91EF90DF90CF900895E82FF9
:10164000F0E0EE0FFF1FED5BFE4F8081918108956A
:10165000CF92DF92EF92FF920F931F93CF93DF937E
:1016600083E192E00E94F10823E4E22E21E0F22ED1
:10167000C0E0D0E03EE0C32E32E0D32E05E012E021
:10168000DF93CF93DF92CF920E948A098BE092E0A2
:101690000E94F108F701819191917F010E946C22D3
:1016A0009F938F931F930F930E948A0983E092E088
:1016B0000E94F10821968DB79EB708960FB6F89450
:1016C0009EBF0FBE8DBFC530D105D1F6DF91CF9142
:1016D0001F910F91FF90EF90DF90CF900895CF93DF
:1016E000DF93C82F80934D01873088F4843018F53C
:1016F0008130D8F10E94C82E0E94312F0E94402FC5
:10170000EC2FF0E0E55CFD4FD491C0E00CC08730D9
:10171000F1F0883051F50E94C82E0E942B2F0E94B4
:10172000402F81E01BC06D2F8C2F0E94E62ECF5FD3
:10173000C530C9F722C00E94C82E0E943A2F0E94CD
:10174000312F86E08C1BDF91CF910C94432F0E94A8
:10175000C82E0E942B2F0E94402F80E00E94342F21
:1017600083E0DF91CF910C94372F0E94312F0E949C
:10177000402FDF91CF910C94D22EDF91CF9108951D
:101780001F93CF93DF9300D000D01F92CDB7DEB769
:10179000162F80914D01873029F4662319F080E2DD
:1017A0000E941A2F80914D01883069F4112359F05D
:1017B00080E20F900F900F900F900F90DF91CF91DC
:1017C0001F910C94002F0F900F900F900F900F907F
:1017D000DF91CF911F910895E82FF0E0EE0FFF1FEA
:1017E000E15CFD4F859194910895229A2A9A80B3E5
:1017F000806F80BB81B3806F81BB0895823079F0A8
:1018000028F4882341F0813041F00895833049F075
:10181000843049F008952A9808958E9808958F98F5
:1018200008958C9808958D980895823079F028F461
:10183000882341F0813041F00895833049F08430AD
:1018400049F008952A9A08958E9A08958F9A0895D6
:101850008C9A08958D9A08958091600108959091D1
:101860000802943009F05AC09091E9009F702091CD
:10187000EC0020FF02C020E801C020E0922B24E011
:101880002093E9002091EB0020FF29C02091EE0079
:1018900027FF25C020914F01222321F02091E8004D
:1018A00025FF1DC010924F012091E4003091E5000A
:1018B00066E007C04091E4005091E5002417350729
:1018C00091F44091E80045FD19C04091080244237D
:1018D00029F1453019F14091EB0045FFEBCF9F70A6
:1018E0009093E9001BC0615021F481E080934F0187
:1018F000F6CF2091E4003091E500E3CF8093F10032
:101900008091E80085FD05C08091E8008E77809386
:10191000E8009F709093E90080E008958FEF0895AC
:10192000CF93DF9300D01F92CDB7DEB7209108028E
:10193000243019F523E029839B838A832093E900CF
:101940008FEF9091E800815095FD06C095ED9A9536
:10195000F1F700008111F5CF8091E80085FF0DC0FF
:1019600040E050E063E070E0CE0101960E94391142
:101970008091E8008E778093E8000F900F900F9091
:10198000DF91CF910895CF93DF9300D01F92CDB711
:10199000DEB720910802243021F522E029839B83C1
:1019A0008A8383E08093E9008FEF9091E800815073
:1019B00095FD06C095ED9A95F1F700008111F5CFE0
:1019C0008091E80085FF0DC040E050E063E070E0EA
:1019D000CE0101960E9439118091E8008E778093A4
:1019E000E8000F900F900F90DF91CF910895209114
:1019F00008022430F1F422E02093E9002FEF309127
:101A0000E800215035FD06C035ED3A95F1F70000AC
:101A10002111F5CF2091E80025FF0BC040E050E0F8
:101A200065E070E00E9439118091E8008E77809324
:101A3000E8000895CF93DF93EC0180910802843091
:101A400009F043C080910C018823C1F085E08093A8
:101A5000E9008FEF9091E800815095FD06C095E177
:101A60009A95F1F700008111F5CF8091E80085FF8C
:101A70002CC040E050E060E170E017C081E080934E
:101A8000E9008FEF9091E800815095FD06C095ED3B
:101A90009A95F1F700008111F5CF8091E80085FF5C
:101AA00014C040E050E068E070E0CE010E943911BF
:101AB0008091E8008E778093E80080E1FE01A0E548
:101AC000B1E001900D928A95E1F7DF91CF910895F1
:101AD00080910702811107C00E9414108091E200DA
:101AE00084608093E20008950895089508950C9409
:101AF000C52280910802843049F58091E9008F70F9
:101B00009091EC0090FF02C090E801C090E0982B0B
:101B100084E08093E9008091EB0080FF14C0809105
:101B2000EE0087FF10C08091E80085FF03C010928F
:101B3000F100F9CF8091E80080FF05C08091E800B6
:101B40008E778093E8009F709093E900089542E0BB
:101B500061EC81E00E94310F42E061EC82E00E9482
:101B6000310F42E061EC83E00E94310F46E261EC0C
:101B700084E00E94310F42E161EC85E00C94310F6A
:101B800080910A02833009F455C030F4813071F03D
:101B9000823009F495C008958A3009F481C08B30F1
:101BA00009F460C0893009F0A3C020C08091090207
:101BB000813A09F09DC08091E800877F8093E8001A
:101BC00080910D0290910E02892B21F060E080E05F
:101BD00090E003C060E180E591E070E00E94821136
:101BE0008091E8008B778093E80008958091090246
:101BF000813209F07DC080910D0290910E02009714
:101C000019F0049709F074C08091E800877F8093F1
:101C1000E8008091E80082FD05C0809108028111F2
:101C2000F8CF66C08091F100809360018091E80058
:101C30008B775AC080910902813A09F059C080918E
:101C40000D0290910E02892B09F052C08091E8009C
:101C5000877F8093E8008091E80080FFFCCF80912F
:101C60000B013DC080910902813209F041C0809191
:101C70000D0290910E02892BD9F58091E800877FA3
:101C80008093E8000E94660F90910B0281E0911111
:101C900001C080E080930B0180930C010C94C0196B
:101CA00080910902813221F58091E800877F80933D
:101CB000E8000E94660F80910C0280934E01089507
:101CC00080910902813AA1F48091E800877F809396
:101CD000E8008091E80080FFFCCF80914E01809366
:101CE000F1008091E8008E778093E8000C94660FF5
:101CF000089584B7877F84BF88E10FB6F8948093F6
:101D00006000109260000FBE90E080E80FB6F8947B
:101D100080936100909361000FBE0E94B70F0E94F4
:101D200014108091E20084608093E2008FE29CE0D6
:101D30000E9402227894809108028430E1F78AE5BB
:101D400092E00E94F1080E941E1481E091E00E943E
:101D50008C1389E492E00E94F1088091080285309A
:101D600071F483E00E948622809106028823A9F301
:101D70000E94B022882389F30E941B0FEECF0E949D
:101D80005614EBCF292F332723303105A9F06CF4FB
:101D90002130310509F442C02230310509F043C039
:101DA0008DE890E02FE832E042C021323105C9F0E1
:101DB0002232310519F137C099278130910541F060
:101DC0008230910541F0892B71F5EBE8F2E005C016
:101DD000E7E7F2E002C0EBE6F2E0849190E09F01D9
:101DE00026C0653000F5E62FF0E0EE0FFF1FEC5D3A
:101DF000FE4F2081318189E090E019C0653098F470
:101E0000E62FF0E0DF01AA0FBB1FA65EBE4F2D91AB
:101E10003C91EB5EFE4F808190E009C082E190E052
:101E20002CE133E004C080E090E020E030E0FA01F3
:101E300031832083089580E189BD82E189BD09B4A1
:101E400000FEFDCF8091D8008F7D8093D8008091D7
:101E5000E00082608093E0008091E00081FDFCCF93
:101E60000895982F973058F59093E900981739F016
:101E70007091EC002091ED005091F00003C0242FF0
:101E8000762F50E021FF19C03091EB003E7F309358
:101E9000EB003091ED003D7F3093ED003091EB0091
:101EA00031603093EB007093EC002093ED00509381
:101EB000F0002091EE0027FF07C09F5FD3CF8F7007
:101EC0008093E90081E0089580E0089580910902FF
:101ED00087FD05C08091E80080FF0EC012C0809190
:101EE000E80082FD05C0809108028111F8CF0895B5
:101EF0008091E8008B7708C0809108028111EACFB9
:101F000008958091E8008E778093E800089580918D
:101F1000E4009091E50045E62091EC0020FF21C00F
:101F20002091E80020FD21C020910802222389F0A1
:101F3000253089F02091EB0025FD0FC02091E400B1
:101F40003091E5002817390739F3415041F0C901B4
:101F5000E3CF82E0089583E0089581E0089584E06E
:101F600008952091E80022FFDFCF80E008950E94CD
:101F700020100E942810E0EEF0E0808181608083D4
:101F8000E8EDF0E080818F77808319BCA7EDB0E0A9
:101F90008C918E7F8C9380818F7E8083109207023C
:101FA00008950F931F93CF93DF930E9420100E94F8
:101FB0002810C8EDD0E088818F7788838881806879
:101FC000888388818F7D888319BC109208021092C3
:101FD0000402109206021092050200EE10E0F801D1
:101FE00080818B7F808388818160888342E060E08C
:101FF00080E00E94310FE1EEF0E080818E7F8083EF
:10200000E2EEF0E08081816080838081886080835F
:10201000F80180818E7F8083888180618883DF9151
:10202000CF911F910F910895E7EDF0E080818160DD
:10203000808384E082BF81E0809307020C94D10FFB
:10204000E8EDF0E080818E7F80831092E2000895B9
:102050001092DA001092E10008951F920F920FB6CD
:102060000F9211242F933F934F935F936F937F931E
:102070008F939F93AF93BF93EF93FF938091E10072
:1020800082FF0BC08091E20082FF07C08091E100D7
:102090008B7F8093E1000E94790D8091DA0080FFB0
:1020A0001FC08091D80080FF1BC08091DA008E7F16
:1020B0008093DA008091D90080FF0DC080E189BD56
:1020C00082E189BD09B400FEFDCF81E08093080262
:1020D0000E94680D05C019BC109208020E94740D80
:1020E0008091E10080FF19C08091E20080FF15C05F
:1020F0008091E2008E7F8093E2008091E200806117
:102100008093E2008091D80080628093D80019BC4F
:1021100085E0809308020E94760D8091E10084FFA3
:102120002EC08091E20084FF2AC080E189BD82E157
:1021300089BD09B400FEFDCF8091D8008F7D8093CA
:10214000D8008091E1008F7E8093E1008091E200D1
:102150008F7E8093E2008091E20081608093E200B4
:1021600080910402811104C08091E30087FF02C0C6
:1021700084E001C081E0809308020E94770D809185
:10218000E10083FF29C08091E20083FF25C0809198
:10219000E100877F8093E10082E080930802109243
:1021A00004028091E1008E7F8093E1008091E20043
:1021B0008E7F8093E2008091E20080618093E20054
:1021C00042E060E080E00E94310F8091F000886082
:1021D0008093F0000E94750DFF91EF91BF91AF9138
:1021E0009F918F917F916F915F914F913F912F912F
:1021F0000F900FBE0F901F9018951F920F920FB661
:102200000F9211242F933F934F935F936F937F937C
:102210008F939F93AF93BF93CF93EF93FF93C0910F
:10222000E900CF708091EC001092E9008091F000FD
:10223000877F8093F00078940E943B121092E9000F
:102240008091F00088608093F000C093E900FF91D6
:10225000EF91CF91BF91AF919F918F917F916F91AE
:102260005F914F913F912F910F900FBE0F901F9054
:102270001895CF92DF92EF92FF920F931F93CF9317
:10228000DF937C018B01EA010E94870F811131C02D
:10229000209731F088819981081B190BE80EF91EEF
:1022A000C12CD12C0115110519F18091E80085FD93
:1022B00014C08091E8008E778093E800209741F069
:1022C000888199818C0D9D1D9983888385E011C03B
:1022D0000E94870F882331F30CC0F70181917F01A1
:1022E0008093F10001501109FFEFCF1ADF0ADACF16
:1022F00080E0DF91CF911F910F91FF90EF90DF90E1
:10230000CF90089520910F023091100226173707C1
:1023100048F06115710539F42091E8002E7720937B
:10232000E80001C0B901FC0120E061157105A9F1C7
:10233000809108028823E9F18530E9F18091E80075
:1023400083FD35C08091E80082FF06C08091E800DF
:1023500082FF26C080E008958091E80080FFE5CFED
:102360002091F3008091F20090E0922B61157105AD
:1023700051F08830910538F421912093F10061509B
:1023800071090196F3CF21E0089709F020E08091D0
:10239000E8008E778093E800C8CF2111C9CFD6CF4F
:1023A00080910802882329F0853081F604C081E0FD
:1023B000089582E0089583E0089520910F023091FE
:1023C00010022617370748F06115710539F420917E
:1023D000E8002E772093E80001C0B901FC0120E05D
:1023E00061157105C1F180910802882309F43FC08D
:1023F000853009F43EC08091E80083FD36C08091AD
:10240000E80082FF06C08091E80082FF27C080E0DC
:1024100008958091E80080FFE3CF2091F300809140
:10242000F20090E0922B6115710559F0883091050A
:1024300040F424912093F100319661507109019686
:10244000F2CF21E0089709F020E08091E8008E7734
:102450008093E800C5CF2111C6CFD5CF8091080267
:10246000882329F0853079F604C081E0089582E060
:10247000089583E008950F931F93CF93DF93CDB713
:10248000DEB7AA970FB6F894DEBF0FBECDBFE9E066
:10249000F2E08091F100819322E0E131F207C9F787
:1024A0000E94C00D8091E80083FF1DC120910902A8
:1024B00030910A02832F90E08A30910508F013C111
:1024C000FC01EA5AFF4F0C945D35203881F0223828
:1024D00009F009C180910D028F708093E90080910D
:1024E000EB0085FB882780F91092E90006C08091F7
:1024F000050290910602911182609091E800977F09
:102500009093E8008093F1001092F100C6C0822FF2
:102510008D7F09F0E8C0222319F0223061F0E3C07A
:1025200080910B02813009F0DEC0333009F080E089
:102530008093060228C080910B02811124C0209153
:102540000D022F7009F4CFC02093E9008091EB00B9
:1025500080FF19C08091EB00333011F4806211C00C
:1025600080618093EB0081E090E0022E01C0880F33
:102570000A94EAF78093EA001092EA008091EB0057
:1025800088608093EB001092E9008091E800877FDB
:1025900087C02111A8C010910B021F770FB7F894C4
:1025A0008091E800877F8093E8000E94660F809109
:1025B000E80080FFFCCF8091E3008078812B80933E
:1025C000E30080688093E300112311F083E001C0F1
:1025D00082E0809308020FBF86C02058223008F0A6
:1025E00082C080910B0290910C028C3D23E09207F7
:1025F00079F583E08A838AE289834FB7F894DE0114
:10260000139620E03EE051E2E32FF0E050935700B4
:10261000E49120FF03C0E295EF703F5FEF708E2FD3
:1026200090E0EA3010F0C79601C0C0968D939D935C
:102630002F5F243149F74FBF8091E800877F809357
:10264000E8006AE270E0CE0101960E94821114C097
:10265000AE014F5F5F4F60910D020E94C20E009766
:1026600009F441C02091E800277F2093E800BC01D5
:1026700089819A810E94DD118091E8008B77809397
:10268000E80031C0203879F58091E800877F809399
:10269000E800809104028093F1008091E8008E7739
:1026A0008093E8000E94660F1EC021111CC090910B
:1026B0000B029230C0F48091E800877F8093E8009D
:1026C000909304020E94660F80910402811104C05D
:1026D0008091E30087FF02C084E001C081E0809325
:1026E00008020E94A70D8091E80083FF0AC0809134
:1026F000EB0080628093EB008091E800877F8093FD
:10270000E800AA960FB6F894DEBF0FBECDBFDF91EA
:10271000CF911F910F910895909366018093650169
:10272000089580916501909166010895E091650199
:10273000F0916601309721F00190F081E02D09942D
:1027400080E00895FF920F931F93CF93DF938C0146
:10275000E0916501F0916601309799F10280F38173
:10276000E02D09958091C80182FF2BC080FF04C035
:1027700081E594E00E94F108E80180E1F82E0BE485
:1027800014E08091C80180FF0BC088811F928F9355
:102790001F930F930E948A090F900F900F900F9034
:1027A000FA942196F110EDCF8091C80180FF09C005
:1027B00089E494E0DF91CF911F910F91FF900C94E9
:1027C000F108DF91CF911F910F91FF900895E09153
:1027D0006501F0916601309721F00480F581E02DCC
:1027E0000994089520916301309164018217930741
:1027F00071F09093640180936301E0916501F09121
:102800006601309721F00680F781E02D0994089544
:1028100020916101309162018217930771F09093CA
:10282000620180936101E0916501F091660130974A
:1028300021F00084F185E02D099408950E94D322AF
:102840000E94DB090E94A0230E94D3320E945031D3
:102850000E94B52E0E9418300C942034CF93C82FBC
:102860008091C80182FF1EC080FF04C08AE694E008
:102870000E94F1088091C80180FF0CC01F92CF9385
:1028800025E634E03F932F930E948A090F900F9022
:102890000F900F908091C80180FF04C083E694E000
:1028A0000E94F1088C2FCF910C94B2315F926F92FD
:1028B0007F928F929F92AF92BF92CF92DF92EF92D0
:1028C000FF920F931F93CF93DF93CDB7DEB72A9775
:1028D0000FB6F894DEBF0FBECDBF0E94070A98E680
:1028E000C92E91E0D92E00E010E0AA24A394B12CC7
:1028F000502E802F0E941F0B3C01F601E190F190B9
:102900006F01E826F926E114F104B1F40F5F1F4FBF
:102910000530110569F78FEF89838A831B820E9436
:10292000DC228160782F9D838C8349815A816B8161
:102930008D810E94041A3AC08091C80181FD0E94D5
:10294000280B20E030E04501022E02C0880C991CC3
:102950000A94E2F7C4018E219F21892B09F12E836D
:102960005F826820792081E0672809F480E0888709
:102970000E94DC228160782F9A8789874E815F814F
:1029800068858A850E94041AF801EE0FFF1FE85936
:10299000FE4F80819181882599259183808306C08F
:1029A0002F5F3F4F2E30310571F6B0CF0E9429279F
:1029B000109167010E9496131817D9F00E94961380
:1029C000809367012A960FB6F894DEBF0FBECDBF85
:1029D000DF91CF911F910F91FF90EF90DF90CF90FB
:1029E000BF90AF909F908F907F906F905F900C946E
:1029F0002E142A960FB6F894DEBF0FBECDBFDF911E
:102A0000CF911F910F91FF90EF90DF90CF90BF90EB
:102A1000AF909F908F907F906F905F900895CF932D
:102A2000C82F882309F4C1C0823859F40E94961334
:102A300081FDBBC089E30E941B1F0E94C72089E360
:102A40000CC0833879F40E94961380FDAEC083E5F4
:102A50000E941B1F0E94C72083E50E94EC1FCF919C
:102A60000C94C720843859F40E94961382FD9DC0AF
:102A700087E40E941B1F0E94C72087E4EECF8CEFE3
:102A80008C0F813A48F48C2F0E94452D81118DC006
:102A90008C2F0E941B1FE3CF80E28C0F883048F4FC
:102AA000C77081E001C0880FCA95EAF70E9499209B
:102AB000D6CF8BE58C0F833078F4C53A29F0C63A2F
:102AC00031F482E890E005C081E890E002C083E83C
:102AD00090E0CF910C94F21388E58C0F833108F0CD
:102AE00064C0C83A39F1C93A41F1CA3A49F1CB3A1E
:102AF00051F1CC3A59F1CD3A61F1C03B69F1CE3A8E
:102B000071F1CF3A79F1C13B81F1C23B89F1C33B0D
:102B100091F1C43B99F1C53BA1F1C63BA9F1C73B7B
:102B2000B1F1C83BB9F1C93BC1F1CA3BC9F58AE271
:102B300092E038C082EE90E035C089EE90E032C07D
:102B40008AEE90E02FC085EB90E02CC086EB90E001
:102B500029C087EB90E026C08CEC90E023C08DEC80
:102B600090E020C083E891E01DC08AE891E01AC09F
:102B700082E991E017C084E991E014C081E292E01B
:102B800011C083E292E00EC084E292E00BC085E2C5
:102B900092E008C086E292E005C087E292E002C0BF
:102BA00080E090E0CF910C940814CF910895882391
:102BB00009F44BC0823859F40E94961381FF45C036
:102BC00089E30E941B1F0E94C72089E30CC0833841
:102BD00071F40E94961380FF38C083E50E941B1F8A
:102BE0000E94C72083E50E94EC1F0C94C720843804
:102BF00059F40E94961382FF28C087E40E941B1F8D
:102C00000E94C72087E4EFCF9CEF980F913A58F3CA
:102C100090E2980F983050F4877091E001C0990FBE
:102C20008A95EAF7892F0E949F20DFCF9BE5980FB6
:102C3000933020F480E090E00C94F213885A8331B2
:102C400020F480E090E00C9408140895882321F08B
:102C50000E9499200C94C7200895882321F00E9497
:102C60009F200C94C7200895CF92DF92EF92FF929D
:102C70000F931F93CF93DF93CDB7DEB728970FB68F
:102C8000F894DEBF0FBECDBF8C0185E0F801DE01F8
:102C9000119601900D928A95E1F7F80140813181FA
:102CA000F280258122952F7083819481892B31F0C8
:102CB0003F3F31F481E04F3F19F403C081E001C090
:102CC00080E080FD3CC349833A8389819A812F83C8
:102CD0000E94D91E9E8388870E94D81E0E94001ED3
:102CE0004E81E42FE295EF70F0E0E05AFF4F2F8124
:102CF00068850C945D35842F807F142F1F70882386
:102D000011F01295107FFF2059F0112309F458C2D9
:102D1000812F68870E94A9200E94C720688550C221
:102D2000862F0E94D715112309F409C3812F0E9411
:102D3000AF2028960FB6F894DEBF0FBECDBFDF914F
:102D4000CF911F910F91FF90EF90DF90CF900C9457
:102D5000C720342F307F842F8F70303211F082954E
:102D6000807F662319F0613009F12AC0FF20A1F0AD
:102D7000222381F1213071F528960FB6F894DEBF39
:102D80000FBECDBFDF91CF911F910F91FF90EF90BC
:102D9000DF90CF900C94B920222319F0213009F450
:102DA000CEC28E830E94BC208E818EC1FF2021F076
:102DB000263008F0C4C20EC0253008F0C0C284C15D
:102DC000FF20C1F0222331F0F801958190FFF8C176
:102DD0009F70958328960FB6F894DEBF0FBECDBFC7
:102DE000DF91CF911F910F91FF90EF90DF90CF90E7
:102DF0000C942616222309F467C1F6C1242F2695C8
:102E00002695237030E02115310521F02130310560
:102E1000C9F095C2FF2021F0862F942F937002C035
:102E200080E090E028960FB6F894DEBF0FBECDBFCD
:102E3000DF91CF911F910F91FF90EF90DF90CF9096
:102E40000C94F213FF2021F0862F942F937002C070
:102E500080E090E028960FB6F894DEBF0FBECDBF9D
:102E6000DF91CF911F910F91FF90EF90DF90CF9066
:102E70000C940814862FFF2019F00E94AF2502C081
:102E80000E94172628960FB6F894DEBF0FBECDBF5E
:102E9000DF91CF911F910F91FF90EF90DF90CF9036
:102EA0000C949C26842F837009F076C0F11047C2E1
:102EB000262F229526952770220F220F862F8F709E
:102EC000C82ED12CE12CF12C022E04C0CC0CDD1C20
:102ED000EE1CFF1C0A94D2F764FF10C06FE070E094
:102EE00080E090E004C0660F771F881F991F2A9525
:102EF000D2F7609570958095909503C060E070E082
:102F0000CB01242F269526952370422F50E0423086
:102F10005105D1F04330510559F16C297D298E2995
:102F20009F294130510541F128960FB6F894DEBF34
:102F30000FBECDBFDF91CF911F910F91FF90EF900A
:102F4000DF90CF900C94151E6C297D298E299F2926
:102F500028960FB6F894DEBF0FBECDBFDF91CF919C
:102F60001F910F91FF90EF90DF90CF900C94271E50
:102F70000E94151EC701B60128960FB6F894DEBF51
:102F80000FBECDBFDF91CF911F910F91FF90EF90BA
:102F9000DF90CF900C94031EFF2019F0842F8170D6
:102FA00001C08695882309F4CAC1262F229526954B
:102FB0002770220F220F862F8F70C82ED12CE12C64
:102FC000F12C022E04C0CC0CDD1CEE1CFF1C0A945C
:102FD000D2F764FF10C06FE070E080E090E004C0C2
:102FE000660F771F881F991F2A95D2F760957095F5
:102FF0008095909503C060E070E0CB01242F26956A
:1030000026952370422F50E042305105D1F04330D5
:10301000510559F16C297D298E299F29413051058F
:1030200041F128960FB6F894DEBF0FBECDBFDF91F9
:10303000CF911F910F91FF90EF90DF90CF900C9464
:10304000B41E6C297D298E299F2928960FB6F894E5
:10305000DEBF0FBECDBFDF91CF911F910F91FF90CB
:10306000EF90DF90CF900C94C61E0E94B41EC70153
:10307000B60128960FB6F894DEBF0FBECDBFDF9124
:10308000CF911F910F91FF90EF90DF90CF900C9414
:10309000A21E603F49F118F4603E48F48CC0623FC4
:1030A00009F451C0E0F1633F09F461C084C0162FF8
:1030B0001F70842F8F71FF2021F00E944D1E812FE1
:1030C00089CE0E94681E812F28960FB6F894DEBF25
:1030D0000FBECDBFDF91CF911F910F91FF90EF9069
:1030E000DF90CF900C942D16FF20A9F0253008F02A
:1030F00026C1842F8F7128960FB6F894DEBF0FBEBD
:10310000CDBFDF91CF911F910F91FF90EF90DF9096
:10311000CF900C94871E263008F011C1EACFFF2013
:10312000A1F0842F8F7128960FB6F894DEBF0FBEE2
:10313000CDBFDF91CF911F910F91FF90EF90DF9066
:10314000CF900C944D1EFF2061F3842F8F71289631
:103150000FB6F894DEBF0FBECDBFDF91CF911F91A8
:103160000F91FF90EF90DF90CF900C94681EFF209E
:1031700091F0842F8F7128960FB6F894DEBF0FBEA2
:10318000CDBFDF91CF911F910F91FF90EF90DF9016
:10319000CF900C943E1E28960FB6F894DEBF0FBE5B
:1031A000CDBFDF91CF911F910F91FF90EF90DF90F6
:1031B000CF900C94391EFF20A1F0222309F4B1CF47
:1031C000862F28960FB6F894DEBF0FBECDBFDF91D5
:1031D000CF911F910F91FF90EF90DF90CF900C94C3
:1031E0000F15222309F4B1CF862F28960FB6F89435
:1031F000DEBF0FBECDBFDF91CF911F910F91FF902A
:10320000EF90DF90CF900C94D7154F70C8010E94BB
:103210009B0928960FB6F894DEBF0FBECDBFDF9195
:10322000CF911F910F91FF90EF90DF90CF900C9472
:103230006A1DF11084C0662341F0842F8F708430A2
:1032400021F0407F862F8F70482B942F9F70492F3D
:1032500050E04230510509F440C0BCF4411551051D
:1032600061F14130510509F06AC028960FB6F89413
:10327000DEBF0FBECDBFDF91CF911F910F91FF90A9
:10328000EF90DF90CF900C94553043305105A9F169
:103290004430510509F053C0862F28960FB6F89494
:1032A000DEBF0FBECDBFDF91CF911F910F91FF9079
:1032B000EF90DF90CF900C94EB3028960FB6F894F7
:1032C000DEBF0FBECDBFDF91CF911F910F91FF9059
:1032D000EF90DF90CF900C94293028960FB6F89499
:1032E000DEBF0FBECDBFDF91CF911F910F91FF9039
:1032F000EF90DF90CF900C94813028960FB6F89421
:10330000DEBF0FBECDBFDF91CF911F910F91FF9018
:10331000EF90DF90CF900C94B3304F70C801289697
:103320000FB6F894DEBF0FBECDBFDF91CF911F91D6
:103330000F91FF90EF90DF90CF900C94A709289603
:103340000FB6F894DEBF0FBECDBFDF91CF911F91B6
:103350000F91FF90EF90DF90CF9008950E94B620DC
:103360000E9488200E94C7200E94CA270E949C2693
:1033700080E090E00E94F21380E090E00C9408144A
:103380000E94A6200C94AE190E94D91E292F2295C6
:103390002F7030E02C3031054CF42A3031056CF4BC
:1033A000225031092230310570F407C02C3031052C
:1033B00031F02F30310519F006C081E0089593FBFC
:1033C000882780F9089580E00895CF93DF9300D097
:1033D00000D01F92CDB7DEB70F900F900F900F90D7
:1033E0000F90DF91CF910895CF93DF9300D000D05D
:1033F00000D0CDB7DEB726960FB6F894DEBF0FBE6D
:10340000CDBFDF91CF910895CF93DF93CDB7DEB7D6
:103410002B970FB6F894DEBF0FBECDBF4F835887F2
:1034200069877A878B87DE01119686E0FD0111920C
:103430008A95E9F785E0FE01379601900D928A950D
:10344000E1F74F81588569857A858B850E94C00B8D
:1034500049815A816B817C818D819E810E94BD1C36
:103460002B960FB6F894DEBF0FBECDBFDF91CF9184
:1034700008951F93CF93DF93C091720116E080915E
:103480007301C81799F0D0E01C9FF0011D9FF00D4B
:103490001124EC58FE4F40815181628173818481F7
:1034A00095810E94F4192196C770E9CFDF91CF91E1
:1034B0001F9108954091A4015091A5016091A6012A
:1034C0007091A7018091A8019091A9010C94F41921
:1034D000CF938091A90182958F7009F05FC0809190
:1034E000A601882309F45AC020917201A0917301AA
:1034F0006091A4017091A5018091A7019091A8010C
:1035000031E06F3F09F030E0B32FC6E02A1709F42D
:1035100045C0009721F07F3F21F44B2F03C041E0CD
:1035200001C040E030E040FD35C0C29FF001C39FC4
:10353000F00D1124EC58FE4F418174132BC04081D3
:10354000641328C04281411125C04381548148172A
:10355000590710F441505109481B590B483C51057B
:10356000C8F48091A9018F7080618093A90186E0E1
:10357000829FF001839FF00D1124E758FE4F808158
:103580008F708061808384EA91E00E943416CF912D
:103590000C94391A2F5F3F4F2770B8CFCF91089501
:1035A000CF92DF92EF92FF920F931F93CF93DF930F
:1035B000CDB7DEB762970FB6F894DEBF0FBECDBFB2
:1035C0008C0185E0F801DE011D9601900D928A952F
:1035D000E1F7D8014C9111965C91119712966C917C
:1035E00012971396ED90FC9014977091A401E091BE
:1035F000A5012091A7013091A8012115310531F0D5
:10360000EF3F31F481E07F3F19F403C081E001C056
:1036100080E0B82FB170CB2E80FD6CC1D090A60198
:10362000DD2009F4F5C0F091A901E216F30638F0A7
:10363000C701821B930B883C910548F09BC02095E5
:1036400030952E0D3F1D283C310508F093C08F2F7B
:10365000807F09F052C0E51314C0741312C0D62E37
:1036600061110FC0FF70F061F093A9010E945A1A16
:1036700084EA91E00E9434168091A901F8018583C3
:103680006CC1EF2831F05F3F31F481E04F3F19F416
:1036900003C081E001C080E080FD03C081E0862797
:1036A00001C080E0F82FF170FF2E80FF1CC08091D8
:1036B00072012091730136E0821709F428C190E06D
:1036C000389FF001399FF00D1124EC58FE4F7181A5
:1036D000571306C07081471303C07281671303C07C
:1036E00001968770E9CFD62E662309F436C1809102
:1036F000A90181608093A90153C0E51308C0741328
:1037000006C0611104C0D8011596FC93AEC04D8768
:103710005E878D859E856A8B0E94C4196A8988237D
:1037200029F1D62E662311F12091A901822F8295CD
:103730008F7090E002970CF460C08091A40190918A
:10374000A50198878F831986FB86EA862C87CE0190
:10375000079651C0E51731F14D875E878D859E85AF
:103760006A8B0E94C4196A8981112EC0C8010E9407
:103770003416A4C08F2F807F69F77E2DF98AE88ADE
:1037800089890E94E51984EA91E00E943416E4EAEE
:10379000F1E086E0DF011D928A95E9F70E945A1A4E
:1037A000D12CDBC07413D8CF6111D6CFD8011596B8
:1037B000FC93C8010E943416E4EAF1E086E0DF01E0
:1037C0001D928A95E9F7C9C0D62E662379F2209119
:1037D000A901822F82958F7090E0029774F08091FA
:1037E000A4019091A5019A8389831B82FD82EC82BA
:1037F0002E83CE0101960E94341686E0F801A4EAD9
:10380000B1E001900D928A95E1F70E94681A6FC0AD
:10381000E216F30628F0C701821B930B9C0104C03B
:10382000209530952E0D3F1D283C310508F052C0E3
:10383000D62E662309F49ACFE5132CC074132AC040
:103840008091A90180FD1DC0982F92959F70C9F0AD
:10385000D80115968C9315979F3039F09F5F9295FC
:10386000907F8F70892B15968C93C8010E94341617
:1038700086E0F801A4EAB1E001900D928A95E1F7A3
:1038800036C086E0F801A4EAB1E001900D928A9575
:10389000E1F763C04D875E878D859E850E94C419C0
:1038A000882379F086E0F801A4EAB1E001900D9256
:1038B0008A95E1F70E94681A0E945A1ADD24D3946F
:1038C0004CC08091A90181608093A901C8010E9428
:1038D000341643C07E2DF98AE88A89890E94E51949
:1038E000E4EAF1E086E0DF011D928A95E9F70E94A3
:1038F0005A1A33C0662309F439CF4D875E878D8508
:103900009E850E94C419882309F430CFCBCF4D8700
:103910005E878D859E850E94D91E292F22952F7046
:1039200030E0223031052CF49F7041F0811106C047
:103930000CC0243031052CF49F7049F4805E88302F
:1039400020F0C8010E943416CF2CDC2C06C0D80110
:1039500015969C91907F91F7F8CF8D2D62960FB6BA
:10396000F894DEBF0FBECDBFDF91CF911F910F91B5
:10397000FF90EF90DF90CF9008951F93CF93DF9348
:10398000CDB7DEB72C970FB6F894DEBF0FBECDBF14
:103990004F83588769877A878B879C87CE010796E4
:1039A0000E94D01A8823C1F02F8138858A859B8593
:1039B000892B31F03F3F11F080E003C02F3FE1F74A
:1039C00081E0811147C04F81588569857A858B8553
:1039D0009C850E94F4193EC086E0FE013796DE0108
:1039E000119601900D928A95E1F7FF81E8854A854D
:1039F0005B854115510531F0EF3F31F481E0FF3F28
:103A000019F403C081E001C080E080FD23C0209153
:103A1000730130E0C90101968770992760917201A6
:103A200070E086179707F1F1F983EA835D834C8391
:103A300096E0929FD001939FB00D1124AC58BE4FD9
:103A4000FE01319601900D929A95E1F780937301F2
:103A50000E94391A16E080917201909173018917C2
:103A600079F1189FC00111248C589E4F0E94D01AE2
:103A7000882331F1E09172011E9FF0011124EC586E
:103A8000FE4F4081518162817381848195810E94C2
:103A9000F4198091720190E00196877099278093C4
:103AA0007201D9CF0E94C019109273011092720155
:103AB000E4EAF1E086E0DF011D928A95E9F7CACFDA
:103AC0002C960FB6F894DEBF0FBECDBFDF91CF911D
:103AD0001F910895EF92FF920F931F93CF93DF935F
:103AE000FC01009709F46DC0F12CEE24E394EF0182
:103AF00021968491843740F4843008F053C081309B
:103B000081F0823021F15DC0853709F445C0B0F104
:103B10009CE7980F903708F054C08F770E94D71514
:103B200043C08F010E5F1F4FFE01849190E2980FFA
:103B3000983050F48770FE2D01C0FF0F8A95EAF788
:103B40008F2F0E94A92015C00E940F1512C08F014F
:103B50000E5F1F4FFE01849190E2980F983058F449
:103B60008770FE2D01C0FF0F8A95EAF78F2F0E9404
:103B7000AF20E80119C00E94D715FBCFCF010296F4
:103B8000FE01C491CC2361F0EFE9FFE03197F1F73A
:103B900000C00000C150F6CFCF010296FE01F490A4
:103BA000EC0102C00E940F158F2D882341F0EFE930
:103BB000FFE03197F1F700C000008150F6CFFE0121
:103BC00096CFDF91CF911F910F91FF90EF900895C5
:103BD0006093AE017093AF018093B0019093B101F7
:103BE0000E9400320C94AE196093AA017093AB014D
:103BF0008093AC019093AD010E9458320C94AE19A1
:103C000008950C94E81D0F931F930091AE0110913D
:103C1000AF012091B0013091B101602B712B822B4B
:103C2000932B1F910F910C94E81D0F931F930091FC
:103C3000AE011091AF012091B0013091B10160232C
:103C40007123822393231F910F910C94E81D0F93EE
:103C50001F930091AE011091AF012091B0013091FE
:103C6000B10160277127822793271F910F910C9430
:103C7000E81D60E070E0CB010C94F41D41E050E0E1
:103C800060E070E004C0440F551F661F771F8A95DF
:103C9000D2F7CB01BA010C94F41D41E050E060E092
:103CA00070E004C0440F551F661F771F8A95D2F736
:103CB0008091AA019091AB01A091AC01B091AD01AE
:103CC000482B592B6A2B7B2BCB01BA010C94F41D8A
:103CD00041E050E060E070E004C0440F551F661FF3
:103CE000771F8A95D2F74095509560957095809191
:103CF000AA019091AB01A091AC01B091AD01482314
:103D000059236A237B23CB01BA010C94F41D41E0B3
:103D100050E060E070E004C0440F551F661F771F3D
:103D20008A95D2F78091AA019091AB01A091AC0144
:103D3000B091AD01482759276A277B27CB01BA01EB
:103D40000C94F41D0F931F930091AA011091AB01E5
:103D50002091AC013091AD01602B712B822B932B04
:103D60001F910F910C94F41D0F931F930091AA01C2
:103D70001091AB012091AC013091AD016023712312
:103D8000822393231F910F910C94F41D0F931F9383
:103D90000091AA011091AB012091AC013091AD01CD
:103DA00060277127822793271F910F910C94F41D90
:103DB0000895CF92DF92EF92FF920F931F93CF93CC
:103DC000DF93EC01C090AE01D090AF01E090B00164
:103DD000F090B1018091AA019091AB01A091AC014A
:103DE000B091AD01C82AD92AEA2AFB2A0FE110E0D6
:103DF000B701A601002E04C07695679557954795A3
:103E00000A94D2F740FF07C0BE01802F0E948F2185
:103E10008130910539F40150110950F7BE0180E05D
:103E20000E948F21DF91CF911F910F91FF90EF9012
:103E3000DF90CF900895CF92DF92EF92FF920F9391
:103E40001F93CF93DF93F82E80910C01882349F1C3
:103E50008F2D8695869586958F3090F4E0910D0193
:103E6000F0910E01E80FF11D8F2D877021E030E0F9
:103E700001C0220F8A95EAF78181822B8183A3C03A
:103E80008091C80180FF9FC01F92FF928BE994E050
:103E90009F938F930E948A090F900F900F900F901D
:103EA00092C0E090C5014091C301E0910D01F091F5
:103EB0000E01442309F472C02091C4018E2D3FEFFE
:103EC00006E010E0A82FBB27A7FDB095EF01CA0FB1
:103ED000DB1F9A819F1509F476C03F3F19F49111B9
:103EE00001C0382FCD010196C6E0D0E0B8010E9494
:103EF00049358213E7CF2E1151C03F3F71F4822F15
:103F0000992787FD90950196BE010E9449358093BF
:103F1000C50141504093C30141C0832F992787FDBC
:103F200090950196BE010E944935EE24E394C6E0C7
:103F3000D0E0082F112707FD10956F01C00ED11E8C
:103F4000D60112966C916623A1F0432F552747FDA9
:103F50005095CF01840F951FDC0112966C93D6010A
:103F600012961C92CA010196BE010E944935382F53
:103F700001C0E394C8010196BE010E944935821335
:103F8000D8CF822F992787FD90958E199109069693
:103F900066E070E00E9449358093C4012091C4011D
:103FA000332727FD3095E20FF31FF282C9010196F6
:103FB00066E070E00E9449358093C4018091C3019E
:103FC0008F5F8093C301DF91CF911F910F91FF907D
:103FD000EF90DF90CF900895DF92EF92FF920F93D2
:103FE0001F93CF93DF93482F80910C01882351F1C9
:103FF000842F8695869586958F3098F4E0910D01F3
:10400000F0910E01E80FF11D477021E030E0042E21
:1040100001C0220F0A94EAF7209581812823218389
:104020006FC08091C80180FF6BC01F924F938DE7D6
:1040300094E09F938F930E948A090F900F900F90A6
:104040000F905EC0E091C501D090C301DD2009F45E
:1040500057C0C0910D01D0910E010091C4011127EC
:1040600007FD109586E0E82EF12CF0E0DE01AE0FA2
:10407000BF1F9D012E5F3F4F12968C91841336C057
:10408000D9011C92DA94D092C301D11004C01092CD
:10409000C5011092C4012091C401822F992787FD88
:1040A0009095059666E070E00E944935E817F9079B
:1040B00039F54091C501E6E0F0E0822F992787FDB0
:1040C00090950596BF010E9449359C010596BF0158
:1040D0000E9449358C0F9D1FDC0112968C91811135
:1040E00002C02413EACF2093C4010AC0CF01019675
:1040F000B7010E944935E82F8017910709F0B5CF25
:10410000DF91CF911F910F91FF90EF90DF90089575
:1041100081E090E0E0910D01F0910E01E80FF91FB0
:104120001082019680319105A9F708958091C70109
:1041300008959091C701982B9093C7010895809599
:104140009091C70198239093C70108951092C701D9
:1041500008959091C601982B9093C601089580957B
:104160009091C60198239093C60108951092C601BC
:1041700008958093B20108951092B201089580913C
:104180000C01811103C08091C30108950895E0914D
:104190000D01F0910E018091C7018083E0910D0126
:1041A000F0910E0180819091C601892B80839091BE
:1041B000B201992361F0E0910D01F0910E0180812F
:1041C000892B80830E94BF2081111092B2018091BF
:1041D0000D0190910E010C94A2138B3B60F4883A70
:1041E00000F5853AA8F4843088F4813009F055C090
:1041F00081E090E00895803E08F44FC0883E30F0A2
:10420000803F08F44AC090E09065089590E00895DA
:10421000853A09F445C0863A09F045C082E890E441
:104220000895883A09F442C0893A09F442C08A3AAA
:1042300009F442C08B3A09F442C08C3A09F442C0F6
:104240008D3A09F442C0803B09F442C08E3A09F429
:1042500042C08F3A09F442C0813B09F442C0823B1C
:1042600009F442C0833B09F442C0843B09F442C0D4
:10427000853B09F442C0863B09F442C0873B09F400
:1042800042C0883B09F442C0893B09F442C08A3BE2
:1042900009F042C08AE296E4089580E090E0089533
:1042A00081E890E4089583E890E4089582EE94E430
:1042B000089589EE94E408958AEE94E4089585EBD8
:1042C00094E4089586EB94E4089587EB94E40895CC
:1042D0008CEC94E408958DEC94E4089583E895E4DF
:1042E00008958AE895E4089582E995E4089584E9BB
:1042F00095E4089581E296E4089583E296E40895B2
:1043000084E296E4089585E296E4089586E296E4D0
:10431000089587E296E4089580E094E408950E9469
:10432000C209803EA8F4803C00F5813309F45CC0EA
:1043300038F4893209F452C08A3209F45BC05FC094
:104340008933B1F08238A1F0853309F441C057C0F8
:10435000833E41F128F4803E99F0823EB9F04FC08F
:10436000863E31F1873E71F14AC00E94C609089528
:104370009091030290FD02C091FF41C080EE3FC0CA
:104380008091030280FFFACF89E339C08091030254
:1043900082FF0CC08091030284FF02C080E02FC026
:1043A00083EE2DC08091030282FFF4CF82EE27C0FE
:1043B0008091030283FF0AC08091030284FDEECF47
:1043C00087EE1DC08091030283FFF6CF86EE17C0F3
:1043D0008091030285FF06C089E211C0809103022B
:1043E00085FFFACF85E30BC08091030286FF06C0EC
:1043F0008AE205C08091030286FFFACF81E30E9422
:10440000ED2008959093CA018093C9010895CF9239
:10441000DF92EF92FF920F931F936C01EE24FF2423
:10442000C114D104E104F10421F46B017C0180E0AA
:1044300001C080E133272F2D1E2D0D2D01151105F3
:104440002105310519F0885F68017901970186011E
:10445000A4E03695279517950795AA95D1F70115EC
:1044600011052105310519F08C5F6801790197016B
:104470008601F2E03695279517950795FA95D1F7BD
:10448000011511052105310519F08E5F68017901CB
:10449000B701A6017695679557954795452B462B0D
:1044A000472B09F08F5F1F910F91FF90EF90DF90E6
:1044B000CF9008958295982F9C7C969596958373BE
:1044C00044E0849F90011124922B892F8A7A86954B
:1044D0009575990F892B08951F93CF93DF931F92A2
:1044E000CDB7DEB799830E945A22182F9981892F60
:1044F0000E945A22212F30E0322F2227A901482B77
:10450000CA010F90DF91CF911F91089590910802F9
:10451000943029F183FF02C090E601C090E48770D7
:10452000892B28E130E00FB6F894A895209360001D
:104530000FBE8093600083B7817F846083BF83B7A1
:10454000816083BF7894889583B78E7F83BF88E12D
:104550000FB6F89480936000109260000FBE08952B
:10456000CF930E9493090E94070A0E949409C0E019
:104570008C2F0E941F0B892B29F4CF5FC530C1F708
:1045800080E001C081E0CF9108950E94C0190C9491
:1045900018301F920F920FB60F9211240F900FBE7A
:1045A0000F901F90189582E084BD93E095BD9AEF1F
:1045B00097BD80936E0008952FB7F8948091CB013A
:1045C0009091CC01A091CD01B091CE012FBF089563
:1045D000CF92DF92EF92FF920F931F932FB7F89431
:1045E0004091CB015091CC016091CD017091CE01F1
:1045F0002FBF6A017B01EE24FF248C0120E030E014
:10460000C016D106E206F30610F441505109481BCA
:10461000590BCA011F910F91FF90EF90DF90CF903F
:1046200008951F920F920FB60F9211248F939F93AC
:10463000AF93BF938091CB019091CC01A091CD011C
:10464000B091CE010196A11DB11D8093CB01909335
:10465000CC01A093CD01B093CE01BF91AF919F91BA
:104660008F910F900FBE0F901F9018950E94B70F5B
:10467000F8942FEF87EA91E6215080409040E1F7CF
:1046800000C0000087E090EBDC0180931202909361
:104690001302A0931402B09315022CE088E190E07D
:1046A0000FB6F894A895809360000FBE2093600029
:1046B000FFCFCF92DF92EF92FF920F931F93CF9392
:1046C000DF93C82ED12C01E010E08D2D0E941F0B2E
:1046D0007C01C0E0D0E098010C2E02C0220F331FF5
:1046E0000A94E2F72E213F21232B29F42196CE3084
:1046F000D10589F709C06C2F7D2D80E00E94C20989
:10470000C812F4CF81E005C0D39485E0D812DDCF84
:1047100080E0DF91CF911F910F91FF90EF90DF909C
:10472000CF900895CF93C82F8CE20E9459238823FD
:1047300021F08C2FCF910C94592380E0CF910895D4
:10474000CF930E94FF24811102C00E94DA2480ECE2
:1047500094E00E94F108C5E6C15049F00E94070AA2
:104760008FE39CE90197F1F700C00000F5CF89EBDA
:1047700094E00E94F10889E20E949223811118C1FD
:104780008AE20E949223882341F00E94F9240E9429
:10479000DA240E94AB330E940F3385E00E949223FB
:1047A00081110E9436230E940A258093C80187E068
:1047B0000E949223882399F18BE10E9492238823FF
:1047C00051F09091C80191FB882780F921E0822760
:1047D00080FB91F922C08EE00E949223882351F041
:1047E0009091C80192FB882780F921E0822780FB05
:1047F00092F913C080E10E9492239091C80188230E
:1048000041F093FB882780F921E0822780FB93F910
:1048100004C0892F809580FB90F99093C801809106
:10482000C8010E940E250E941C258093030280EE81
:104830000E949223882341F080910302982F909543
:1048400090FB80F98093030289E30E9492238823DE
:1048500059F09091030291FB882780F921E082278B
:1048600080FB91F99093030282EE0E9492238823A9
:1048700059F09091030292FB882780F921E082276A
:1048800080FB92F99093030286EE0E949223882384
:1048900059F09091030293FB882780F921E0822749
:1048A00080FB93F99093030283EE0E949223882366
:1048B00059F09091030294FB882780F921E0822728
:1048C00080FB94F99093030285E30E94922388234E
:1048D00059F09091030295FB882780F921E0822707
:1048E00080FB95F99093030281E30E949223882331
:1048F00059F09091030296FB882780F921E08227E6
:1049000080FB96F99093030281E10E949223882311
:1049100059F09091030297FB882780F921E08227C4
:1049200080FB97F990930302809103020E94202557
:104930008091030287FB882780F980930C0187E22E
:104940000E949223C82F8EE10E9492238111C2609F
:104950008FE10E9492238111C46080E20E94922321
:104960008111C86081E20E9492238111C06182E2BC
:104970000E9492238111C06283E20E9492238111DE
:10498000C06484E20E949223882311F0C06802C0B0
:10499000CC2329F08C2F0E9417256C2F03C00E9476
:1049A0001325682F70E080E090E0CF910C94011EF9
:1049B000CF9108956DEE7EEF80E090E00E949335F8
:1049C00060E082E090E00E94853560E083E090E066
:1049D0000E94853560E084E090E00E94853560E0CB
:1049E00085E090E00E94853560E086E090E00C94E0
:1049F00085356FEF7FEF80E090E00C94933580E099
:104A000090E00E947F3521E08D3E9E4F09F020E02E
:104A1000822F089582E090E00C947735682F82E031
:104A200090E00C94853583E090E00C947735682F06
:104A300083E090E00C94853584E090E00C94773529
:104A4000682F84E090E00C94853586E090E00C942B
:104A50007735682F86E090E00C9485358091D10100
:104A600080FF0BC06091120185E0689FB0011124A6
:104A700075956795759567952AC081FF09C0609106
:104A8000120185E0689FB0011124759567951FC0DC
:104A900082FF07C06091120185E0689FB001112478
:104AA00016C04091D2014423C9F06091110146170C
:104AB00088F72091120185E0289F90011124429FE0
:104AC000C001439F900D112470E00E944935603869
:104AD000710540F46115710539F002C065E070E0C0
:104AE000862F08958FE7089581E008958091D10180
:104AF00080FF08C06091100170E07595679575950D
:104B0000679521C081FF06C06091100170E0759526
:104B1000679519C082FF04C06091100170E010C059
:104B20008091D2018823C1F060910F018617A0F710
:104B300090911001989FC001112470E00E944935A6
:104B40006038710528F46115710521F0862F0895EC
:104B50008FE7089581E0089561E070E0F4CF803F31
:104B600021F40E942E25819504C0813F29F40E94E2
:104B70002E258093D5010895823F21F40E942E2591
:104B8000819504C0833F29F40E942E258093D4018F
:104B90000895893F19F40E94762505C08A3F31F4B3
:104BA0000E94762581958093D60108958B3F21F44C
:104BB0000E947625819504C08C3F29F40E947625B9
:104BC0008093D7010895843F21F48091D3018160BF
:104BD00017C0853F21F48091D301826011C0863FC8
:104BE00021F48091D30184600BC0873F21F4809130
:104BF000D301886005C0883F31F48091D301806182
:104C00008093D30108958D3F21F48091D10181607B
:104C10000BC08E3F21F48091D101826005C08F3F8F
:104C200029F48091D10184608093D1010895803F5F
:104C300039F48091D50187FF6CC01092D50169C00D
:104C4000813F29F48091D5011816BCF362C0909180
:104C5000D401823F29F497FF5CC01092D40159C05F
:104C6000833F19F41916CCF354C0893F41F4809165
:104C7000D60118160CF04DC01092D6014AC08A3FDA
:104C800029F48091D60187FF44C0F6CF8B3F39F4D9
:104C90008091D70187FF3DC01092D7013AC08C3F69
:104CA00029F48091D7011816BCF333C0843F21F456
:104CB0008091D3018E7F17C0853F21F48091D3016D
:104CC0008D7F11C0863F21F48091D3018B7F0BC073
:104CD000873F21F48091D301877F05C0883F31F45D
:104CE0008091D3018F7E8093D30113C08D3F21F437
:104CF0008091D1018E7F0BC08E3F21F48091D10134
:104D00008D7F05C08F3F29F48091D1018B7F8093E7
:104D1000D1018091D40181110EC08091D501811102
:104D20000AC08091D601811106C08091D7018111FE
:104D300002C01092D20108958091C80183FF7EC005
:104D40008CEF94E00E94F1088091D3011F928F9321
:104D500087EF94E09F938F930E948A0985EF94E0F8
:104D60000E94F1082091D401822F992787FD909508
:104D70009F932F9382EF94E09F938F930E948A09D1
:104D800080EF94E00E94F1082091D501822F9927AD
:104D900087FD90959F932F938DEE94E09F938F9333
:104DA0000E948A098BEE94E00E94F1082091D601BE
:104DB000822F992787FD90959F932F9388EE94E0FB
:104DC0009F938F930E948A0986EE94E00E94F108D7
:104DD0002091D701822F992787FD90959F932F933C
:104DE00083EE94E09F938F930E948A0980EE94E073
:104DF0000E94F1088091D2011F928F938DED94E073
:104E00009F938F930E948A098BED94E00E94F10892
:104E10008091D1011F928F9388ED94E09F938F939F
:104E20000E948A0985ED94E00E94F1088DB79EB733
:104E30004C960FB6F8949EBF0FBE8DBF83ED91E0E8
:104E40000E94E7130E94DC229093D0018093CF014F
:104E500008951F93CF93DF938091CF019091D0015C
:104E60000E94E8224091D201442321F020911301B5
:104E700030E006C0209114015AE0259F90011124D2
:104E80008217930708F482C08091D4011091D50154
:104E9000D091D601C091D701811107C0111105C071
:104EA000D11103C0CC2309F471C04F3F19F04F5FFB
:104EB0004093D201181624F40E942E258093D40129
:104EC0008091D40187FF05C00E942E258195809393
:104ED000D401111624F40E942E258093D5018091CF
:104EE000D50187FF05C00E942E2581958093D501AD
:104EF0006091D401662339F11091D501112319F184
:104F0000772767FD7095872F972F0E945A3423E3E8
:104F100033E343E35FE30E94BE340E94273460938F
:104F2000D401612F772767FD7095872F972F0E94F7
:104F30005A3423E333E343E35FE30E94BE340E9429
:104F400027346093D5011D1624F40E9476258093A2
:104F5000D6018091D60187FF05C00E9476258195F4
:104F60008093D6011C1624F40E9476258093D701E5
:104F70008091D70187FF05C00E9476258195809397
:104F8000D701DF91CF911F910C949C26DF91CF9197
:104F90001F910895E3EDF1E085E0DF011D928A9510
:104FA000E9F71092D2011092D101089586EC99E0B0
:104FB0000E94F10889EB99E00E94F1088CEA99E0DF
:104FC0000C94F10889E299E00E94F1088CE199E0E3
:104FD0000E94F10881E099E00E94F10886EE98E0D5
:104FE0000E94F1088EEC98E00E94F10884EB98E0B2
:104FF0000E94F10886E998E00E94F10886E798E0AF
:105000000E94F10882E698E00E94F1088BE498E0A3
:105010000E94F1088FE298E00E94F10881E198E097
:105020000E94F10882EF97E00E94F10881ED97E07D
:105030000E94F1088CE997E00E94F10887E897E068
:105040000E94F1081F9285E08F9384E897E09F9378
:105050008F930E948A098BE797E00E94F1081F92C4
:1050600081E08F9388E797E09F938F930E948A094E
:1050700086E797E00E94F1088DB79EB708960FB6B5
:10508000F8949EBF0FBE8DBF89E497E00C94F108A1
:10509000833009F459C028F4813061F0823079F10D
:1050A0000895853009F49AC008F473C0863009F475
:1050B000BAC0089520911401862F90E0820F911DAF
:1050C0008F3F910520F4620F6093140103C08FEFAE
:1050D0008093140185E296E00E94F108809114010A
:1050E0001F928F9382E296E09F938F930E948A098A
:1050F0000F900F900F900F9080E296E0B8C0209133
:105100001301862F90E0820F911D8F3F910520F4AF
:10511000620F6093130103C08FEF8093130181E14D
:1051200096E00E94F108809113011F928F938EE008
:1051300096E09F938F930E948A090F900F900F9093
:105140000F908CE096E093C020911201862F90E0A2
:10515000820F911D8F3F910520F4620F6093120121
:1051600003C08FEF809312018CEF95E00E94F1084D
:10517000809112011F928F9389EF95E09F938F93F7
:105180000E948A090F900F900F900F9087EF95E083
:105190006EC020911101862F90E0820F911D8F3FEC
:1051A000910520F4620F6093110103C08FEF80938B
:1051B000110185EE95E00E94F108809111011F9286
:1051C0008F9382EE95E09F938F930E948A090F90B0
:1051D0000F900F900F9080EE95E049C02091100144
:1051E000862F90E0820F911D8F3F910520F4620F72
:1051F0006093100103C08FEF809310018AEC95E05B
:105200000E94F108809110011F928F9387EC95E026
:105210009F938F930E948A090F900F900F900F9089
:1052200085EC95E024C020910F01862F90E0820F3D
:10523000911D8F3F910520F4620F60930F0103C011
:105240008FEF80930F018DEA95E00E94F108809125
:105250000F011F928F938AEA95E09F938F930E948C
:105260008A090F900F900F900F9088EA95E00C94A8
:10527000F108833009F44DC028F4813061F08230A8
:1052800049F10895853009F482C008F461C0863080
:1052900009F49CC0089580911401681720F4861BBE
:1052A0008093140102C0109214018CE995E00E94D1
:1052B000F108809114011F928F9389E995E09F93E3
:1052C0008F930E948A090F900F900F900F9087E99B
:1052D00095E09AC080911301681720F4861B809393
:1052E000130102C01092130188E895E00E94F108B2
:1052F000809113011F928F9385E895E09F938F9380
:105300000E948A090F900F900F900F9083E895E00C
:105310007BC080911201681720F4861B80931201D4
:1053200002C01092120183E795E00E94F10880917B
:1053300012011F928F9380E795E09F938F930E94B5
:105340008A090F900F900F900F908EE695E05CC049
:1053500080911101681720F4861B8093110102C00F
:10536000109211018CE595E00E94F10880911101E5
:105370001F928F9389E595E09F938F930E948A09EE
:105380000F900F900F900F9087E595E03DC08091B2
:105390001001681720F4861B8093100102C0109240
:1053A000100181E495E00E94F108809110011F92A4
:1053B0008F938EE395E09F938F930E948A090F90BD
:1053C0000F900F900F908CE395E01EC080910F011D
:1053D000681720F4861B80930F0102C010920F0102
:1053E00084E295E00E94F10880910F011F928F9353
:1053F00081E295E09F938F930E948A090F900F900E
:105400000F900F908FE195E00C94F108CF93C82F87
:1054100085E999E00E94F1086091AE017091AF01B9
:105420008091B0019091B1010E9407221F928F9349
:1054300022E939E03F932F930E948A098DE899E091
:105440000E94F1081F92CF932AE839E03F932F93EF
:105450000E948A0988E899E00E94F10861E070E002
:1054600080E090E004C0660F771F881F991FCA95DF
:10547000D2F70E94011E8DB79EB708960FB6F8941A
:105480009EBF0FBE8DBFCF910C94C019CF93482FF4
:1054900050E0FA013697E334F10508F0EAC2E0592A
:1054A000FF4F0C945D358AE490E10E94F1088EE292
:1054B0009DE00E94F1080E9413251F928F938BE2BA
:1054C0009DE09F938F930E948A0989E29DE00E944C
:1054D000F1080E940A25C82F86E19DE00E94F1088C
:1054E0001F92CF9321E13DE03F932F930E948A09C1
:1054F0008FE09DE00E94F10885E09DE00E94F108A8
:105500008C2F81701F928F9322E03DE03F932F9369
:105510000E948A0980E09DE00E94F10886EF9CE0ED
:105520000E94F108C1FB882780F91F928F9323EF17
:105530003CE03F932F930E948A0981EF9CE00E94F8
:10554000F10885EE9CE00E94F108C2FB882780F9F3
:105550001F928F9322EE3CE03F932F930E948A0983
:1055600080EE9CE00E94F10887ED9CE00E94F1082B
:10557000C3FBCC27C0F91F92CF9384ED9CE09F938F
:105580008F930E948A0982ED9CE00E94F1080E949C
:105590001C25C82F8EEB9CE00E94F1081F92CF9330
:1055A00029EB3CE03F932F930E948A0987EB9CE014
:1055B0000E94F1088EE99CE00E94F1088C2F817016
:1055C0001F928F932BE93CE03F932F930E948A090F
:1055D0008DB79EB780960FB6F8949EBF0FBE8DBF55
:1055E00089E99CE00E94F10882E89CE00E94F108B1
:1055F000C1FB882780F91F928F932FE73CE03F93F0
:105600002F930E948A098DE79CE00E94F1088BE6A7
:105610009CE00E94F108C2FB882780F91F928F93BB
:1056200028E63CE03F932F930E948A0986E69CE09F
:105630000E94F10884E59CE00E94F108C3FB8827E2
:1056400080F91F928F9321E53CE03F932F930E94B6
:105650008A098FE49CE00E94F10885E49CE00E94A6
:10566000F108C4FB882780F91F928F9322E43CE065
:105670003F932F930E948A0980E49CE00E94F108E6
:105680008EE29CE00E94F108C5FB882780F91F92FA
:105690008F932BE23CE03F932F930E948A0989E28B
:1056A0009CE00E94F1088DE09CE00E94F108C6FB9E
:1056B000882780F91F928F932AE03CE03F932F9335
:1056C0000E948A0988E09CE00E94F10880E09CE04A
:1056D0000E94F108C7FBCC27C0F91F92CF938DEF32
:1056E0009BE09F938F930E948A098BEF9BE00E941F
:1056F000F1080E942525C82F84EE9BE00E94F10846
:105700001F92CF932FED3BE03F932F930E948A0986
:105710008DB79EB780960FB6F8949EBF0FBE8DBF13
:105720008DED9BE00E94F10883ED9BE00E94F10863
:105730008C2F81701F928F9320ED3BE03F932F932E
:105740000E948A098EEC9BE00E94F10885EC9BE0A8
:105750000E94F108C6951F92CF9382EC9BE09F9325
:105760008F930E948A0980EC9BE00E94F1088DB71C
:105770009EB708960FB6F8949EBF0FBE8DBF1BC094
:105780000E949113892B69F00E9491139093DA0182
:105790008093D90180E090E00E948C1381E490E135
:1057A00008C08091D9019091DA010E948C1386E3A0
:1057B00090E10E94F108C1E061C184EA9BE00E948F
:1057C000F1088DE89BE00E94F10885E79BE00E94CC
:1057D000F1088DE59BE00E94F10883E49BE00E94C4
:1057E000F1088CE29BE00E94F1088CE09BE00E94B3
:1057F000F10886EF9AE00E94F10885EE9AE00E9497
:10580000F1088DEC9AE00E94F1088DEB9AE00E947D
:10581000F10883EA9AE00E94F1088AE89AE00E947F
:10582000F10881E79AE00E94F10888E59AE00E9479
:10583000F1088FE39AE00E94F1088EE19AE00E945D
:10584000F1088CEF99E00E94F10882EE99E0B1CF67
:105850008091C801817F8E7F8093C8010E94D627E6
:1058600081E290E10E94F1088DE190E10E94F1084F
:1058700081E08093D8019FCF0E94C01984E090E11D
:105880000E94F1089FEF23ED80E39150204080407B
:10589000E1F700C000000E94362384EF9FE089CF2B
:1058A0008091C801C82FC17080FF09C081EE9FE0C0
:1058B0000E94F1088091C801817F8E7F44C08FECE7
:1058C0009FE00E94F1088091C80181608093C80127
:1058D00072CF8091C80181FBCC27C0F991E0C92724
:1058E000C0FB81F98093C801CC2319F086EB9FE0BF
:1058F00025C08CE99FE05DCF8091C80182FBCC2759
:10590000C0F991E0C927C0FB82F98093C801CC237C
:1059100019F081E89FE012C085E69FE04ACF8091B0
:10592000C80183FBCC27C0F991E0C927C0FB83F9EC
:105930008093C801CC2351F08DE49FE00E94F108D0
:105940008091C80181608093C80198C084E39FE082
:1059500030CF8DE19FE00E94F10884EF9EE00E942D
:10596000F1088FEB9EE00E94F10882E99EE00E9420
:10597000F1088BEF9DE00E94F1088DEC9DE019CFBE
:105980008091CB019091CC01A091CD01B091CE013D
:10599000BF93AF939F938F9389EB9DE09F938F93DA
:1059A0000E948A090F900F900F900F900F900F9008
:1059B00002CF83EA9DE00E94F1080E9496131F9295
:1059C0008F9389E89DE09F938F930E948A0980912D
:1059D0000B011F928F9382E79DE09F938F930E940C
:1059E0008A0980914E011F928F938FE59DE09F93CE
:1059F0008F930E948A098DB79EB70C960FB6F894C4
:105A00009EBF0FBE8DBFD7CE0E94C019C0910C01A2
:105A100081E0C827C0930C01CC2329F080E59DE0EC
:105A20000E94F1082BC080E49DE0C3CE81E890E0A5
:105A30000E94F2139FEF21EE84E0915020408040BD
:105A4000E1F700C0000080E090E00E94F2139FEFB9
:105A500029E688E1915020408040E1F700C0000035
:105A6000AACE80E003C08D5101C089530E94062A4E
:105A7000A2CE8EE39DE00E94F108C0E08C2FCF9172
:105A8000089580E0089580E00895CF93C82F809115
:105A9000D801813071F020F0823009F44EC05DC130
:105AA000A0910D01B0910E018C91823209F057C185
:105AB00007C0A0910D01B0910E018C91823249F482
:105AC0008C2F0E94412D811135C08C2F0E94462AB7
:105AD00032C08C2F0E94432D81112CC0C431F1F0B3
