:100000000C946F080C94B3080C94B3080C94B308C8
:100010000C94B3080C94B3080C94B3080C94B30874
:100020000C94B3080C94B3080C94E00F0C94B0102B
:100030000C946C220C94B3080C94B3080C94B30881
:100040000C94B3080C94BB2E0C94B3080C94B30816
:100050000C94B3080C94E5210C94B3080C94B308E9
:100060000C94B3080C94B3080C94B3080C94B30824
:100070000C94B3080C94B3080C94B3080C94B30814
:100080000C94B3080C94B3080C94B3080C94B30804
:100090000C94B3080C94B3080C94B3080C94B308F4
:1000A0000C94B3080C94B3080C94B30818123A12C9
:1000B00026133A1226137C12A0122613F5120813E7
:1000C0002E162E165C165C16BF16FB16411941192A
:1000D000131741190A180A18A718BB1841192F1924
:1000E000DB2B032C092AE42CE42C902BE42CE42CAD
:1000F000262CE42C392CAE2CE42CE42CE42CE42C1F
:10010000832C6A2CE42C532CE42C132CE42CE42CAC
:10011000DD2CDD2CDD2CDD2CDD2CDD2CDD2CDD2C97
:10012000DD2CDB2CE42CDB2CE42CE42CE42CE42C68
:10013000E42CE42CE42CE42CE42CE42CE42CDB2C48
:10014000E42CE42C902B762BDF2CDF2CDF2CDF2C07
:10015000DF2CDF2CDF2CDF2CDF2CDF2CDF2CDF2C47
:10016000C02CE42CEF2BF1A100D100D200D0291E2D
:100170001F20212223242526272D2E2A2B141A085E
:1001800015171C180C12132F303139041607090AE1
:100190000B0D0E0F33340028E1001D1B061905114D
:1001A00010363738C0E5E0E3E200002C0000000024
:1001B000E6C0E7E4353A3B3C3D3E3F4041424344E4
:1001C000454C010152010101B20149014647480174
:1001D0000150514F0101010101014A4B0001010091
:1001E0000165C1C2C3AAA9A84D4E010101010100C8
:1001F000000100000000010101010A002530313634
:1002000062003A200025303258000A722F632030F5
:100210003132333435363738394142434445460A62
:10022000000A002530325800626F756E6365213A0E
:100230002000001080FFC280A2A3A24B6579626FEC
:100240006172642073746172742E0A0055534220E7
:10025000636F6E666967757265642E0A000A0347EC
:10026000004800360030000000120367006500659A
:10027000006B006800610063006B0000000403096C
:100280000409028D00050100A032090400000103E9
:10029000010100092111010001223F00070581032E
:1002A00008000A09040100010301020009211101EB
:1002B0000001224D000705820308000A090402001C
:1002C0000103000000092111010001223600070589
:1002D000830308000A090403000203000000092147
:1002E00011010001222000070584032000010705F9
:1002F0000403200001090404000103000000092197
:1003000011010001223900070585031000011201C7
:10031000100100000008EDFE606001000102000114
:1003200005010906A101050719E029E715002501C6
:1003300095087501810205081901290595057501C2
:1003400091029501750391010507190029771500A0
:100350002501957875018102C00631FF0974A1015C
:100360000975150025FF952075088102097615008D
:1003700025FF952075089102C005010980A101851E
:100380000216010026B7001A01002AB70075109561
:10039000018100C0050C0901A10185031601002699
:1003A0009C021A01002A9C02751095018100C0056B
:1003B000010902A1010901A1000509190129051579
:1003C00000250195057501810295017503810105DF
:1003D00001093009311581257F95027508810609CB
:1003E000381581257F950175088106050C0A3802AC
:1003F0001581257F950175088106C0C00501090694
:10040000A101050719E029E71500250195087501E7
:1004100081029501750881010508190129059505D5
:10042000750191029501750391010507190029FFD6
:10043000150025FF950675088100C00A0025303299
:100440005820006B6579626F6172645F7265706FCE
:1004500072743A20000A0025303258006B657962C8
:100460006F6172645F7365745F6C65643A200064E9
:10047000656C5F6B65795F6269743A2063616E27B2
:10048000742064656C3A20253032580A0061646437
:100490005F6B65795F6269743A2063616E277420CF
:1004A0006164643A20253032580A00646F6E652E0C
:1004B0000A00626F6F676D61676963207363616EC5
:1004C0003A202E2E2E2000290A002575002F002507
:1004D00075005D28002564002000256400200025AB
:1004E000640020002564007C0025303258006D6FC8
:1004F0007573656B6579205B62746E7C78207920FA
:100500007620685D287265702F61636C293A205BE4
:10051000000A002575006D6B5F776865656C5F7418
:10052000696D655F746F5F6D6178203D20000A0022
:100530002575006D6B5F776865656C5F6D61785FD1
:100540007370656564203D20000A002575006D6BA1
:100550005F74696D655F746F5F6D6178203D200029
:100560000A002575006D6B5F6D61785F737065655E
:1005700064203D20000A002575006D6B5F696E7474
:10058000657276616C203D20000A002575006D6B58
:100590005F64656C6179203D20000A002575006D5F
:1005A0006B5F776865656C5F74696D655F746F5FBD
:1005B0006D6178203D20000A002575006D6B5F7726
:1005C0006865656C5F6D61785F7370656564203D1B
:1005D00020000A002575006D6B5F74696D655F749E
:1005E0006F5F6D6178203D20000A002575006D6BFE
:1005F0005F6D61785F7370656564203D20000A005F
:100600002575006D6B5F696E74657276616C203D57
:1006100020000A002575006D6B5F64656C617920B0
:100620003D20000A00257500363A206D6B5F776823
:1006300065656C5F74696D655F746F5F6D61783A55
:1006400020000A00257500353A206D6B5F776865DC
:10065000656C5F6D61785F73706565643A20000A50
:1006600000257500343A206D6B5F74696D655F74A9
:100670006F5F6D61783A20000A00257500333A20DB
:100680006D6B5F6D61785F73706565643A20000A19
:1006900000257500323A206D6B5F696E7465727665
:1006A000616C286D73293A20000A00257500313AE3
:1006B000206D6B5F64656C6179282A31306D732918
:1006C0003A20000A0A2D2D2D2D2D204D6F757365B2
:1006D0006B657920506172616D6574657273202D50
:1006E0002D2D2D2D0A003E20002575004D003F00C8
:1006F0007365742064656661756C742076616C75D1
:1007000065732E0A000A0025750073656C656374B5
:10071000656420706172616D657465723A20004392
:100720003E20000A51756974204D6F7573656B65C5
:100730007920436F6E736F6C650A0053656520689E
:100740007474703A2F2F656E2E77696B69706564CB
:1007500069612E6F72672F77696B692F4D6F7573A3
:10076000655F6B6579730A000A002575002C207798
:100770006865656C3D002575007768657265206465
:10078000656C74613A20637572736F723D000A7311
:1007900070656564203D2064656C7461202A206D5D
:1007A00061785F7370656564202A202872657065C2
:1007B0006174202F2074696D655F746F5F6D61785F
:1007C000290A007067646F776E3A09646563726521
:1007D000617365207072616D6574657273282D3167
:1007E00030290A00706775703A09696E6372656135
:1007F0007365207072616D6574657273282B31307A
:10080000290A00646F776E3A0964656372656173E3
:1008100065207072616D6574657273282D31290AC7
:100820000075703A09696E63726561736520707254
:10083000616D6574657273282B31290A00643A0969
:100840007365742064656661756C742076616C757F
:1008500065730A00703A097072696E742070726173
:100860006D65746572730A00363A0973656C656369
:1008700074206D6B5F776865656C5F74696D655F2B
:10088000746F5F6D61780A00353A0973656C656352
:1008900074206D6B5F776865656C5F6D61785F7301
:1008A000706565640A00343A0973656C6563742089
:1008B0006D6B5F74696D655F746F5F6D61780A0061
:1008C000333A0973656C656374206D6B5F6D617895
:1008D0005F73706565640A00323A0973656C65631D
:1008E00074206D6B5F696E74657276616C286D73D0
:1008F000290A00313A0973656C656374206D6B5F7A
:1009000064656C6179282A31306D73290A0045537A
:10091000432F713A09717569740A000A0A2D2D2D49
:100920002D2D204D6F7573656B6579205061726157
:100930006D65746572732048656C70202D2D2D2DAA
:100940002D0A003F004D303E000A456E746572204E
:100950004D6F7573656B657920436F6E736F6C6552
:100960000A000A5175697420436F6E736F6C6520BD
:100970004D6F64650A00433E20000A002575002083
:10098000746F20002575007377697463685F646510
:100990006661756C745F6C617965723A20006D3ABE
:1009A000096D6F7573656B65790A004553432F7147
:1009B0003A09717569740A000A0A2D2D2D2D2D2012
:1009C000436F6E736F6C652048656C70202D2D2D04
:1009D0002D2D0A00506175733A096A756D70207487
:1009E0006F20626F6F746C6F616465720A0043619F
:1009F00070733A094C6F636B204B6579626F61725B
:100A000064284368696C642050726F6F66290A001D
:100A1000505363723A09706F77657220646F776E16
:100A20002F72656D6F74652077616B652D75700A27
:100A300000342F46343A0973776974636820746F01
:100A4000204C6179657234200A00332F46333A090D
:100A500073776974636820746F204C6179657233B1
:100A6000200A00322F46323A09737769746368208E
:100A7000746F204C6179657232200A00312F463143
:100A80003A0973776974636820746F204C617965E3
:100A90007231200A00302F4631303A097377697479
:100AA000636820746F204C6179657230200A006E93
:100AB0003A09746F67676C65204E4B524F0A0065A8
:100AC0003A097072696E7420656570726F6D20638B
:100AD0006F6E6669670A00733A097072696E7420F6
:100AE0007374617475730A00743A097072696E7474
:100AF0002074696D657220636F756E740A00763AB2
:100B0000097072696E742064657669636520766524
:100B10007273696F6E202620696E666F0A006D3AE7
:100B200009746F67676C65206D6F75736520646508
:100B30006275670A006B3A09746F67676C65206BB2
:100B40006579626F6172642064656275670A007816
:100B50003A09746F67676C65206D617472697820FB
:100B600064656275670A00643A09746F67676C654B
:100B700020646562756720656E61626C650A00635A
:100B80003A09656E74657220636F6E736F6C6520D1
:100B90006D6F64650A000A0A2D2D2D2D2D20436FDF
:100BA0006D6D616E642048656C70202D2D2D2D2D8E
:100BB0000A000A002575002E6C6576656C3A2000E7
:100BC0000A002575002E656E61626C653A20000A88
:100BD0000025303258006261636B6C696768745F2E
:100BE000636F6E6669672E7261773A20000A00258E
:100BF00075002E6E6B726F3A20000A002575002E6C
:100C0000737761705F6261636B736C6173685F625D
:100C100061636B73706163653A20000A002575009B
:100C20002E737761705F67726176655F6573633A93
:100C300020000A002575002E6E6F5F6775693A20E7
:100C4000000A002575002E737761705F72616C7405
:100C50005F726775693A20000A002575002E737768
:100C600061705F6C616C745F6C6775693A20000A33
:100C7000002575002E636170736C6F636B5F746F1A
:100C80005F636F6E74726F6C3A20000A0025750006
:100C90002E737761705F636F6E74726F6C5F6361E8
:100CA00070736C6F636B3A20000A00253032580075
:100CB0006B65796D61705F636F6E6669672E7261D7
:100CC000773A20000A002575002E6D6F7573653A1E
:100CD00020000A002575002E6B6579626F617264D1
:100CE0003A20000A002575002E6D61747269783A09
:100CF00020000A002575002E656E61626C653A2041
:100D0000000A00253032580064656275675F636FC2
:100D10006E6669672E7261773A20000A00257500B9
:100D200064656661756C745F6C617965723A200008
:100D30003F004E4B524F3A2064697361626C6564A8
:100D40000A004E4B524F3A20656E61626C65640A30
:100D5000006B6579626F6172645F69646C653A20EB
:100D600025580A006B6579626F6172645F70726FFB
:100D7000746F636F6C3A2025580A00686F73745F54
:100D80006B6579626F6172645F6C65647328293A80
:100D90002025580A000A0A2D2D2D2D2D205374616F
:100DA000747573202D2D2D2D2D0A0074696D6572BB
:100DB0005F636F756E743A202530346C580A0047B3
:100DC00043433A20342E382E31204156522D4C497F
:100DD00042433A20312E382E3073766E20415652DF
:100DE0005F415243483A20617672350A004F5054B1
:100DF000494F4E533A204C55464120424F4F544D97
:100E000041474943204D4F5553454B45592045587F
:100E10005452414B455920434F4E534F4C4520436C
:100E20004F4D4D414E44204E4B524F2034303936B9
:100E30000A004255494C443A203934313465333440
:100E40002D6469727479202830393A33323A31335B
:100E5000204E6F762031382032303134290A005646
:100E600049443A20307846454544286765656B68B3
:100E700061636B29205049443A203078363036304F
:100E8000284748363029205645523A2030783030AD
:100E900030310A00444553433A20742E6D2E6B2E98
:100EA000206B6579626F617264206669726D77612B
:100EB000726520666F7220474836300A000A0A2D94
:100EC0002D2D2D2D2056657273696F6E202D2D2DC1
:100ED0002D2D0A000A44454255473A206D6F75731F
:100EE000652064697361626C65642E0A000A44457A
:100EF0004255473A206D6F75736520656E61626C6F
:100F000065642E0A000A44454255473A206B6579CC
:100F1000626F6172642064697361626C65642E0A39
:100F2000000A44454255473A206B6579626F617209
:100F30006420656E61626C65642E0A000A44454255
:100F400055473A206D6174726978206469736162F3
:100F50006C65642E0A000A44454255473A206D618B
:100F60007472697820656E61626C65642E0A000A8D
:100F700044454255473A20656E61626C65642E0AAD
:100F8000000A44454255473A2064697361626C65C2
:100F9000642E0A006E6F7420737570706F727465C2
:100FA000642E0A000A0A4A756D7020746F20626F01
:100FB0006F746C6F616465722E2E2E2000433E208C
:100FC000000A456E74657220436F6E736F6C652006
:100FD0004D6F64650A00556E6C6F636B65642E0A15
:100FE000004C6F636B65642E0A006565636F6E6607
:100FF00069673A0A000000000000000000000001DC
:10100000010102020203030404050506060708089D
:10101000090A0B0B0C0D0E0F1011121315161719D0
:101020001A1B1D1E2022232527292B2D2F31333556
:10103000383A3D3F4244474A4D505356595C5F62EF
:1010400066696C7074777B7E82868A8E9195999D95
:10105000A1A5A9ADB0B4B8BCC0C3C7CBCED2D5D8BA
:10106000DBDFE2E4E7EAECEFF1F3F5F7F8FAFBFC9B
:10107000FDFEFFFFFF6261636B6C6967687420733C
:101080007465703A2025750A006261636B6C69674C
:10109000687420746F67676C653A2025750A006272
:1010A00061636B6C6967687420637573746F6D201E
:1010B00064656372656173653A2025750A00626133
:1010C000636B6C6967687420637573746F6D2069F6
:1010D0006E6372656173653A2025750A00001124FC
:1010E0001FBECFEFDAE0DEBFCDBF04B603FE24C0E3
:1010F00080910C0290910D02A0910E02B0910F020E
:101100008730904BA740B04BB9F410920C0210926C
:101110000D0210920E0210920F0214BE84B7877F48
:1011200084BF88E10FB6F89480936000109260004D
:101130000FBEE0E0F8E3099511E0A0E0B1E0E6E1E0
:10114000FAE602C005900D92A833B107D9F722E064
:10115000A8E3B1E001C01D92AC30B207E1F70E94F4
:101160002D0E0C9409350C940000FF93EF93E09141
:10117000CC01F091CD01309709F00995EF91FF91E5
:101180000895FC018591803011F0EFDFFBCF0895C9
:10119000FF27E0E230E247FF0CC0419597FF09C00E
:1011A000EDE26095709580959095611D711D811D92
:1011B000911D27FF02C0219530E350E2AA27660F58
:1011C000771F881F991FAA1FA41710F0A41B6395EF
:1011D0005A95A9F7AA3008F0A95FA05DAF93F395DF
:1011E000611571058105910541F7ED3211F4EF9319
:1011F000F395F21718F43F93F395FBCF8F91B5DF7A
:10120000FA95E1F70895E991F9918591803021F0FF
:10121000853219F0AADFF9CF089520E0E8945591BE
:101220005532C1F3503311F4689455915A3348F450
:10123000505390F3220F022E220F220F200D250F64
:10124000F4CF0EF4219589919991533619F35337C0
:1012500029F1533559F1BC0188279927E8945C3668
:1012600021F48991999168945591543639F446EF57
:101270007EF077FF0DC08FEF9FEF0AC055374AE031
:1012800039F0583540E121F0523642E009F0089536
:10129000FF93EF937DDFEF91FF91B7CFFF93EF9334
:1012A000FC0181918030B9F360DFFBCFFF93EF93B6
:1012B00068DFF1CFDF93CF93CDB7DEB72596A3DFFD
:1012C000CF91DF9108958CE890E0089584E090E05C
:1012D0000895611118C0FC018281882371F00E9479
:1012E0003820827211F085E301C089E280933801D1
:1012F000809138010E94C21404C0809138010E947C
:101300008A150C9469200895462F672F0C94D832C3
:10131000805C0E94CC3208958EE691E0089586E6C6
:1013200091E008958AB1807D8AB98BB1807D8BB9B7
:10133000089585E008958EE0089580E885BF85BF13
:101340000E94920980B38C7F80BB81B3836081BB94
:101350006E98769A8AB18F728AB98BB1806D8BB98B
:1013600087B18F7387B988B1806C88B984B1847074
:1013700084B985B18B6F85B9E3E4F1E0A9E3B1E00D
:10138000119211921D921D9281E0ED34F807C1F780
:101390000895CF92DF92EF920F931F93CF93DF9335
:1013A000C9E3D1E010E001E0A5E0EA2EB3E2CB2EE4
:1013B000B2E0DB2E123071F018F4113041F004C0AD
:1013C000133059F0143061F0509A58980BC0519A6C
:1013D000599808C0529A5A9805C0539A5B9802C00F
:1013E000559A5D9880EA8A95F1F78FB181708027D0
:1013F00090E0799B03C020E030E002C022E030E0C2
:10140000822B932B669B03C020E030E002C024E0D7
:1014100030E0822B932B26B1332727FD3095209582
:1014200030952227330F221F3327F3E0220F331F7B
:10143000FA95E1F7822B932B369B03C060E070E0B6
:1014400002C060E170E0862B972B1E9B03C060E01A
:1014500070E002C060E270E0682B792B4C9B03C007
:1014600020E030E002C020E430E0262B372B199B2F
:1014700003C040E050E002C040E850E0422B532B54
:10148000189B0DC083B1992787FD90958095909505
:101490008827990F881F9927982F882702C080E0F6
:1014A00091E0842B952B1D9B03C020E030E002C00F
:1014B00020E032E0822B932B1C9B03C020E030E025
:1014C00002C020E034E0822B932B29B1332727FD83
:1014D0003095209530952227330F221F3327322F46
:1014E0002227330F330F330F822B932B4E9B03C0D6
:1014F00020E030E002C020E030E1822B932B1B9BE8
:1015000003C020E030E002C020E030E2822B932BC9
:10151000288139812817390741F19983888380917F
:101520000001882301F18091FD0180FF04C088E261
:1015300092E00E94C1088091FD0180FF0CC0809163
:1015400000011F928F93DF92CF920E945A090F9051
:101550000F900F900F908091FD0180FF04C081E2F9
:1015600092E00E94C108E09200010E9492091F5F70
:101570002296153009F01ECF809100018823C1F01A
:10158000815080930001882339F08FE99FE0019713
:10159000F1F700C000000CC0A3E4B1E0E9E3F1E022
:1015A000819191918D939D9391E0E334F907C1F777
:1015B00081E0DF91CF911F910F91EF90DF90CF905D
:1015C0000895E82FF0E0EE0FFF1FED5BFE4F8081E6
:1015D00091810895CF92DF92EF92FF920F931F9324
:1015E000CF93DF938AE092E00E94C10823E4E22EC9
:1015F00021E0F22EC0E0D0E035E0C32E32E0D32E61
:101600000CEF11E0DF93CF93DF92CF920E945A0943
:1016100082E092E00E94C108F701819191917F01DF
:101620000E94DB229F938F931F930F930E945A096E
:101630008AEF91E00E94C10821968DB79EB7089667
:101640000FB6F8949EBF0FBE8DBFC530D105D1F641
:10165000DF91CF911F910F91FF90EF90DF90CF908E
:101660000895CF93DF93C82F80934D01873088F47E
:10167000843018F58130D8F10E943D2E0E94A62EAC
:101680000E94B52EEC2FF0E0EE5CFD4FD491C0E04F
:101690000CC08730F1F0883051F50E943D2E0E9439
:1016A000A02E0E94B52E81E01BC06D2F8C2F0E94B2
:1016B0005B2ECF5FC530C9F722C00E943D2E0E942D
:1016C000AF2E0E94A62E86E08C1BDF91CF910C944A
:1016D000B82E0E943D2E0E94A02E0E94B52E80E0C2
:1016E0000E94A92E83E0DF91CF910C94AC2E0E9432
:1016F000A62E0E94B52EDF91CF910C94472EDF913C
:10170000CF9108951F93CF93DF9300D000D01F9205
:10171000CDB7DEB7162F80914D01873029F46623AF
:1017200019F080E20E948F2E80914D01883069F47B
:10173000112359F080E20F900F900F900F900F90AF
:10174000DF91CF911F910C94752E0F900F900F90F9
:101750000F900F90DF91CF911F910895E82FF0E047
:10176000EA5CFD4F84910895229A2A9A80B3806F93
:1017700080BB81B3806F81BB0895823079F028F4FB
:10178000882341F0813041F00895833049F084305E
:1017900049F008952A9808958E9808958F9808958D
:1017A0008C9808958D980895823079F028F48823D4
:1017B00041F0813041F00895833049F0843049F0A0
:1017C00008952A9A08958E9A08958F9A08958C9A6A
:1017D00008958D9A08958091600108959091020274
:1017E000943009F05AC09091E9009F702091EC006C
:1017F00020FF02C020E801C020E0922B24E02093CB
:10180000E9002091EB0020FF29C02091EE0027FF86
:1018100025C020914F01222321F02091E80025FFCF
:101820001DC010924F012091E4003091E50066E068
:1018300007C04091E4005091E5002417350791F46A
:101840004091E80045FD19C040910202442329F16E
:10185000453019F14091EB0045FFEBCF9F7090931D
:10186000E9001BC0615021F481E080934F01F6CF65
:101870002091E4003091E500E3CF8093F100809166
:10188000E80085FD05C08091E8008E778093E80030
:101890009F709093E90080E008958FEF0895CF93B3
:1018A000DF9300D01F92CDB7DEB720910202243023
:1018B00019F523E029839B838A832093E9008FEF26
:1018C0009091E800815095FD06C095ED9A95F1F74D
:1018D00000008111F5CF8091E80085FF0DC040E048
:1018E00050E063E070E0CE0101960E94EC10809120
:1018F000E8008E778093E8000F900F900F90DF91B3
:10190000CF910895CF93DF9300D01F92CDB7DEB76C
:1019100020910202243021F522E029839B838A83CF
:1019200083E08093E9008FEF9091E800815095FD6E
:1019300006C095ED9A95F1F700008111F5CF8091E1
:10194000E80085FF0DC040E050E063E070E0CE01AC
:1019500001960E94EC108091E8008E778093E80059
:101960000F900F900F90DF91CF9108952091020278
:101970002430F1F422E02093E9002FEF3091E800C9
:10198000215035FD06C035ED3A95F1F700002111E3
:10199000F5CF2091E80025FF0BC040E050E065E066
:1019A00070E00E94EC108091E8008E778093E80050
:1019B0000895CF93DF93EC0180910202843009F007
:1019C00043C080910C018823C1F085E08093E90039
:1019D0008FEF9091E800815095FD06C095E19A95B2
:1019E000F1F700008111F5CF8091E80085FF2CC050
:1019F00040E050E060E170E017C081E08093E900D2
:101A00008FEF9091E800815095FD06C095ED9A9575
:101A1000F1F700008111F5CF8091E80085FF14C037
:101A200040E050E068E070E0CE010E94EC10809150
:101A3000E8008E778093E80080E1FE01A0E5B1E048
:101A400001900D928A95E1F7DF91CF910895089565
:101A50000895089508950C946822809102028430BC
:101A600049F58091E9008F709091EC0090FF02C0E1
:101A700090E801C090E0982B84E08093E900809189
:101A8000EB0080FF14C08091EE0087FF10C08091B2
:101A9000E80085FF03C01092F100F9CF8091E800C3
:101AA00080FF05C08091E8008E778093E8009F70EA
:101AB0009093E900089542E061EC81E00E94E40E19
:101AC00042E061EC82E00E94E40E42E061EC83E0DF
:101AD0000E94E40E46E261EC84E00E94E40E42E1E2
:101AE00061EC85E00C94E40E80910402833009F4EB
:101AF00055C030F4813071F0823009F495C00895FA
:101B00008A3009F481C08B3009F460C0893009F053
:101B1000A3C020C080910302813A09F09DC080914A
:101B2000E800877F8093E800809107029091080287
:101B3000892B21F060E080E090E003C060E180E567
:101B400091E070E00E9435118091E8008B778093DE
:101B5000E800089580910302813209F07DC08091F0
:101B6000070290910802009719F0049709F074C0D9
:101B70008091E800877F8093E8008091E80082FDF3
:101B800005C0809102028111F8CF66C08091F100FA
:101B9000809360018091E8008B775AC080910302A6
:101BA000813A09F059C08091070290910802892B6F
:101BB00009F052C08091E800877F8093E80080910F
:101BC000E80080FFFCCF80910B013DC080910302B3
:101BD000813209F041C08091070290910802892B5F
:101BE000D9F58091E800877F8093E8000E94190F63
:101BF0009091050281E0911101C080E080930B017A
:101C000080930C010C94621980910302813221F5BA
:101C10008091E800877F8093E8000E94190F8091EF
:101C2000060280934E01089580910302813AA1F447
:101C30008091E800877F8093E8008091E80080FF32
:101C4000FCCF80914E018093F1008091E8008E7767
:101C50008093E8000C94190F089584B7877F84BFA0
:101C600088E10FB6F89480936000109260000FBE78
:101C700090E080E80FB6F894809361009093610043
:101C80000FBE0E946A0F0E94C70F8091E20084601D
:101C90008093E2008EEE9BE00E940A22789480916D
:101CA00002028430E1F78CE492E00E94C1080E94B5
:101CB000D11381E091E00E943F138BE392E00E94F8
:101CC000C10880910202853069F40E94322280911D
:101CD00000028823B1F30E945722882391F30E94C7
:101CE000CE0EEFCF0E940914ECCF292F33272330DB
:101CF0003105A9F06CF42130310509F442C02230DD
:101D0000310509F043C08DE890E021E832E042C09F
:101D100021323105C9F02232310519F137C0992736
:101D20008130910541F08230910541F0892B71F5A8
:101D3000EDE7F2E005C0E9E6F2E002C0EDE5F2E031
:101D4000849190E09F0126C0653000F5E62FF0E019
:101D5000EE0FFF1FEC5DFE4F2081318189E090E0A6
:101D600019C0653098F4E62FF0E0DF01AA0FBB1F21
:101D7000A65EBE4F2D913C91EB5EFE4F808190E0C0
:101D800009C082E190E02EE033E004C080E090E002
:101D900020E030E0FA0131832083089580E189BD9D
:101DA00082E189BD09B400FEFDCF8091D8008F7D0E
:101DB0008093D8008091E00082608093E000809161
:101DC000E00081FDFCCF0895982F973058F590934F
:101DD000E900981739F07091EC002091ED005091D6
:101DE000F00003C0242F762F50E021FF19C030915E
:101DF000EB003E7F3093EB003091ED003D7F309360
:101E0000ED003091EB0031603093EB007093EC000B
:101E10002093ED005093F0002091EE0027FF07C0C3
:101E20009F5FD3CF8F708093E90081E0089580E0B9
:101E300008958091030287FD05C08091E80080FF2E
:101E40000EC012C08091E80082FD05C080910202A0
:101E50008111F8CF08958091E8008B7708C08091B8
:101E600002028111EACF08958091E8008E77809375
:101E7000E80008958091E4009091E50045E6209106
:101E8000EC0020FF21C02091E80020FD21C020911E
:101E90000202222389F0253089F02091EB0025FDF4
:101EA0000FC02091E4003091E5002817390739F37D
:101EB000415041F0C901E3CF82E0089583E00895E5
:101EC00081E0089584E008952091E80022FFDFCFAB
:101ED00080E008950E94D30F0E94DB0FE0EEF0E057
:101EE000808181608083E8EDF0E080818F7780835E
:101EF00019BCA7EDB0E08C918E7F8C9380818F7E92
:101F000080831092010208950F931F93CF93DF9364
:101F10000E94D30F0E94DB0FC8EDD0E088818F773D
:101F2000888388818068888388818F7D888319BCB5
:101F3000109202021092FE01109200021092FF0114
:101F400000EE10E0F80180818B7F808388818160C2
:101F5000888342E060E080E00E94E40EE1EEF0E081
:101F600080818E7F8083E2EEF0E0808181608083DB
:101F7000808188608083F80180818E7F8083888162
:101F800080618883DF91CF911F910F910895E7EDD4
:101F9000F0E080818160808384E082BF81E0809373
:101FA00001020C94840FE8EDF0E080818E7F808345
:101FB0001092E20008951092DA001092E100089564
:101FC0001F920F920FB60F9211242F933F934F93AE
:101FD0005F936F937F938F939F93AF93BF93EF9391
:101FE000FF938091E10082FF0BC08091E20082FFAD
:101FF00007C08091E1008B7F8093E1000E942D0D4E
:102000008091DA0080FF1FC08091D80080FF1BC044
:102010008091DA008E7F8093DA008091D90080FF72
:102020000DC080E189BD82E189BD09B400FEFDCF0C
:1020300081E0809302020E94270D05C019BC109216
:1020400002020E94280D8091E10080FF19C080915A
:10205000E20080FF15C08091E2008E7F8093E20055
:102060008091E20080618093E2008091D8008062DC
:102070008093D80019BC85E0809302020E942A0D4B
:102080008091E10084FF2EC08091E20084FF2AC08D
:1020900080E189BD82E189BD09B400FEFDCF809158
:1020A000D8008F7D8093D8008091E1008F7E80934F
:1020B000E1008091E2008F7E8093E2008091E20057
:1020C00081608093E2008091FE01811104C08091C3
:1020D000E30087FF02C084E001C081E08093020238
:1020E0000E942B0D8091E10083FF29C08091E200C6
:1020F00083FF25C08091E100877F8093E10082E02B
:10210000809302021092FE018091E1008E7F809305
:10211000E1008091E2008E7F8093E2008091E200F6
:1021200080618093E20042E060E080E00E94E40E83
:102130008091F00088608093F0000E94290DFF914B
:10214000EF91BF91AF919F918F917F916F915F912F
:102150004F913F912F910F900FBE0F901F901895A8
:102160001F920F920FB60F9211242F933F934F930C
:102170005F936F937F938F939F93AF93BF93CF930F
:10218000EF93FF93C091E900CF708091EC00109223
:10219000E9008091F000877F8093F00078940E949E
:1021A000EE111092E9008091F00088608093F000B9
:1021B000C093E900FF91EF91CF91BF91AF919F91B3
:1021C0008F917F916F915F914F913F912F910F90E0
:1021D0000FBE0F901F901895CF92DF92EF92FF9253
:1021E0000F931F93CF93DF937C018B01EA010E9431
:1021F0003A0F811131C0209731F088819981081BF5
:10220000190BE80EF91EC12CD12C0115110519F17D
:102210008091E80085FD14C08091E8008E7780935E
:10222000E800209741F0888199818C0D9D1D99834C
:10223000888385E011C00E943A0F882331F30CC0D7
:10224000F70181917F018093F10001501109FFEFA7
:10225000CF1ADF0ADACF80E0DF91CF911F910F9183
:10226000FF90EF90DF90CF90089520910902309178
:102270000A022617370748F06115710539F42091D5
:10228000E8002E772093E80001C0B901FC0120E0AE
:1022900061157105A9F1809102028823E9F1853069
:1022A000E9F18091E80083FD35C08091E80082FF6C
:1022B00006C08091E80082FF26C080E008958091EA
:1022C000E80080FFE5CF2091F3008091F20090E0DC
:1022D000922B6115710551F08830910538F42191E8
:1022E0002093F100615071090196F3CF21E0089726
:1022F00009F020E08091E8008E778093E800C8CF55
:102300002111C9CFD6CF80910202882329F08530D0
:1023100081F604C081E0089582E0089583E0089585
:102320002091090230910A022617370748F06115FB
:10233000710539F42091E8002E772093E80001C060
:10234000B901FC0120E061157105C1F18091020223
:10235000882309F43FC0853009F43EC08091E8002D
:1023600083FD36C08091E80082FF06C08091E800BE
:1023700082FF27C080E008958091E80080FFE3CFCE
:102380002091F3008091F20090E0922B611571058D
:1023900059F08830910540F424912093F100319652
:1023A000615071090196F2CF21E0089709F020E011
:1023B0008091E8008E778093E800C5CF2111C6CFC9
:1023C000D5CF80910202882329F0853079F604C0A8
:1023D00081E0089582E0089583E008950F931F93AC
:1023E000CF93DF93CDB7DEB7AA970FB6F894DEBFD1
:1023F0000FBECDBFE3E0F2E08091F100819322E0D7
:10240000EB30F207C9F70E94740D8091E80083FF5A
:102410001DC12091030230910402832F90E08A3085
:10242000910508F013C1FC01EA5AFF4F0C94BE3429
:10243000203881F0223809F009C1809107028F709D
:102440008093E9008091EB0085FB882780F910924A
:10245000E90006C08091FF01909100029111826015
:102460009091E800977F9093E8008093F10010929C
:10247000F100C6C0822F8D7F09F0E8C0222319F039
:10248000223061F0E3C080910502813009F0DEC0A6
:10249000333009F080E08093000228C0809105026B
:1024A000811124C0209107022F7009F4CFC020931E
:1024B000E9008091EB0080FF19C08091EB00333080
:1024C00011F4806211C080618093EB0081E090E0A4
:1024D000022E01C0880F0A94EAF78093EA00109256
:1024E000EA008091EB0088608093EB001092E90095
:1024F0008091E800877F87C02111A8C01091050254
:102500001F770FB7F8948091E800877F8093E800E9
:102510000E94190F8091E80080FFFCCF8091E300BA
:102520008078812B8093E30080688093E3001123FF
:1025300011F083E001C082E0809302020FBF86C0E9
:102540002058223008F082C0809105029091060246
:102550008C3D23E0920779F583E08A838AE28983C0
:102560004FB7F894DE01139620E03EE051E2E32FEE
:10257000F0E050935700E49120FF03C0E295EF7024
:102580003F5FEF708E2F90E0EA3010F0C79601C0E9
:10259000C0968D939D932F5F243149F74FBF809153
:1025A000E800877F8093E8006AE270E0CE01019640
:1025B0000E94351114C0AE014F5F5F4F609107025A
:1025C0000E94750E009709F441C02091E800277F12
:1025D0002093E800BC0189819A810E94901180912A
:1025E000E8008B778093E80031C0203879F580913E
:1025F000E800877F8093E8008091FE018093F100DE
:102600008091E8008E778093E8000E94190F1EC029
:1026100021111CC0909105029230C0F48091E80015
:10262000877F8093E8009093FE010E94190F8091AC
:10263000FE01811104C08091E30087FF02C084E0A5
:1026400001C081E0809302020E945B0D8091E8004E
:1026500083FF0AC08091EB0080628093EB00809141
:10266000E800877F8093E800AA960FB6F894DEBF53
:102670000FBECDBFDF91CF911F910F910895909321
:1026800066018093650108958091650190916601CE
:102690000895E0916501F0916601309721F0019075
:1026A000F081E02D099480E00895FF920F931F932D
:1026B000CF93DF938C01E0916501F0916601309733
:1026C00099F10280F381E02D09958091FD0182FF4F
:1026D0002BC080FF04C083E494E00E94C108E8019D
:1026E00080E1F82E0DE314E08091FD0180FF0BC026
:1026F00088811F928F931F930F930E945A090F9006
:102700000F900F900F90FA942196F110EDCF8091D9
:10271000FD0180FF09C08BE394E0DF91CF911F9111
:102720000F91FF900C94C108DF91CF911F910F91F1
:10273000FF900895E0916501F0916601309721F0D6
:102740000480F581E02D0994089520916301309172
:1027500064018217930771F0909364018093630181
:10276000E0916501F0916601309721F00680F781D4
:10277000E02D099408952091610130916201821742
:10278000930771F09093620180936101E09165017C
:10279000F0916601309721F00084F185E02D0994D5
:1027A00008950E94A7210E949D090E943C230E9437
:1027B00049320E94C1300E942A2E0E948D2F0C9413
:1027C0008133CF93C82F8091FD0182FF1EC080FF0F
:1027D00004C08CE594E00E94C1088091FD0180FF57
:1027E0000CC01F92CF9327E534E03F932F930E94B4
:1027F0005A090F900F900F900F908091FD0180FF6C
:1028000004C085E594E00E94C1088C2FCF910C9400
:1028100013315F926F927F928F929F92AF92BF928D
:10282000CF92DF92EF92FF920F931F93CF93DF939C
:10283000CDB7DEB72A970FB6F894DEBF0FBECDBF77
:102840000E94C90998E6C92E91E0D92E00E010E057
:10285000AA24A394B12C502E802F0E94E10A3C019F
:10286000F601E190F1906F01E826F926E114F104F8
:10287000B1F40F5F1F4F0530110569F78FEF8983A2
:102880008A831B820E94B0218160782F9D838C8374
:1028900049815A816B818D810E94A6193AC080912D
:1028A000FD0181FD0E94EA0A20E030E04501022E90
:1028B00002C0880C991C0A94E2F7C4018E219F2162
:1028C000892B09F12E835F826820792081E06728B7
:1028D00009F480E088870E94B0218160782F9A8770
:1028E00089874E815F8168858A850E94A619F801D3
:1028F000EE0FFF1FE859FE4F8081918188259925B1
:102900009183808306C02F5F3F4F2E30310571F6D3
:10291000B0CF0E94C526109167010E944913181775
:10292000D9F00E944913809367012A960FB6F89454
:10293000DEBF0FBECDBFDF91CF911F910F91FF90F2
:10294000EF90DF90CF90BF90AF909F908F907F904F
:102950006F905F900C94E1132A960FB6F894DEBF47
:102960000FBECDBFDF91CF911F910F91FF90EF90E0
:10297000DF90CF90BF90AF909F908F907F906F909F
:102980005F900895CF93C82F882309F4C1C082387F
:1029900059F40E94491381FDBBC089E30E94BD1E0A
:1029A0000E94692089E30CC0833879F40E9449139E
:1029B00080FDAEC083E50E94BD1E0E94692083E5B4
:1029C0000E948E1FCF910C946920843859F40E9484
:1029D000491382FD9DC087E40E94BD1E0E946920AC
:1029E00087E4EECF8CEF8C0F813A48F48C2F0E9455
:1029F000E42981118DC08C2F0E94BD1EE3CF80E29F
:102A00008C0F883048F4C77081E001C0880FCA95E8
:102A1000EAF70E943B20D6CF8BE58C0F833078F409
:102A2000C53A29F0C63A31F482E890E005C081E861
:102A300090E002C083E890E0CF910C94A51388E564
:102A40008C0F833108F064C0C83A39F1C93A41F1BA
:102A5000CA3A49F1CB3A51F1CC3A59F1CD3A61F148
:102A6000C03B69F1CE3A71F1CF3A79F1C13B81F1C6
:102A7000C23B89F1C33B91F1C43B99F1C53BA1F144
:102A8000C63BA9F1C73BB1F1C83BB9F1C93BC1F1A4
:102A9000CA3BC9F58AE292E038C082EE90E035C0C8
:102AA00089EE90E032C08AEE90E02FC085EB90E096
:102AB0002CC086EB90E029C087EB90E026C08CEC20
:102AC00090E023C08DEC90E020C083E891E01DC031
:102AD0008AE891E01AC082E991E017C084E991E0A8
:102AE00014C081E292E011C083E292E00EC084E261
:102AF00092E00BC085E292E008C086E292E005C059
:102B000087E292E002C080E090E0CF910C94BB138A
:102B1000CF910895882309F44BC0823859F40E945C
:102B2000491381FF45C089E30E94BD1E0E946920B0
:102B300089E30CC0833871F40E94491380FF38C0C8
:102B400083E50E94BD1E0E94692083E50E948E1FBE
:102B50000C946920843859F40E94491382FF28C0DC
:102B600087E40E94BD1E0E94692087E4EFCF9CEF9E
:102B7000980F913A58F390E2980F983050F487707C
:102B800091E001C0990F8A95EAF7892F0E944120B0
:102B9000DFCF9BE5980F933020F480E090E00C9419
:102BA000A513885A833120F480E090E00C94BB1385
:102BB0000895882321F00E943B200C9469200895F9
:102BC000882321F00E9441200C9469200895CF921F
:102BD000DF92EF92FF920F931F93CF93DF93CDB7C6
:102BE000DEB728970FB6F894DEBF0FBECDBF8C01BD
:102BF00085E0F801DE01119601900D928A95E1F7CA
:102C0000F80140813181F280258122952F708381E6
:102C10009481892B31F03F3F31F481E04F3F19F42B
:102C200003C081E001C080E080FD2BC349833A836B
:102C300089819A812F830E947B1E9E8388870E94B0
:102C40007A1E0E94A21D4E81E42FE295EF70F0E003
:102C5000E05AFF4F2F8168850C94BE34842F807F0B
:102C6000142F1F70882311F01295107FFF2059F048
:102C7000112309F447C2812F68870E944B200E94CC
:102C8000692068853FC2862F0E948A15112309F4A6
:102C9000F8C2812F0E94512028960FB6F894DEBF0B
:102CA0000FBECDBFDF91CF911F910F91FF90EF909D
:102CB000DF90CF900C946920342F307F842F8F7059
:102CC000303211F08295807F662319F0613009F16E
:102CD0002AC0FF20A1F0222381F1213071F528962E
:102CE0000FB6F894DEBF0FBECDBFDF91CF911F911D
:102CF0000F91FF90EF90DF90CF900C945B202223F8
:102D000019F0213009F4BDC28E830E945E208E81AD
:102D100026C0FF2021F0263008F0B3C20EC02530B7
:102D200008F0AFC21CC0FF20C1F0222331F0F8012F
:102D3000958190FFE7C19F70958328960FB6F89410
:102D4000DEBF0FBECDBFDF91CF911F910F91FF90DE
:102D5000EF90DF90CF900C94D9152111E7C1289600
:102D60000FB6F894DEBF0FBECDBFDF91CF911F919C
:102D70000F91FF90EF90DF90CF900C94E015242FEF
:102D800026952695237030E02115310521F021305C
:102D90003105C9F076C2FF2021F0862F942F937061
:102DA00002C080E090E028960FB6F894DEBF0FBE18
:102DB000CDBFDF91CF911F910F91FF90EF90DF90EA
:102DC000CF900C94A513FF2021F0862F942F9370A1
:102DD00002C080E090E028960FB6F894DEBF0FBEE8
:102DE000CDBFDF91CF911F910F91FF90EF90DF90BA
:102DF000CF900C94BB13862FFF2019F00E944B2517
:102E000002C00E94B32528960FB6F894DEBF0FBE0D
:102E1000CDBFDF91CF911F910F91FF90EF90DF9089
:102E2000CF900C943826842F837009F076C0F1106F
:102E300028C2262F229526952770220F220F862F33
:102E40008F70C82ED12CE12CF12C022E04C0CC0C9A
:102E5000DD1CEE1CFF1C0A94D2F764FF10C06FE06B
:102E600070E080E090E004C0660F771F881F991F14
:102E70002A95D2F7609570958095909503C060E093
:102E800070E0CB01242F269526952370422F50E029
:102E900042305105D1F04330510559F16C297D295B
:102EA0008E299F294130510541F128960FB6F8949B
:102EB000DEBF0FBECDBFDF91CF911F910F91FF906D
:102EC000EF90DF90CF900C94B71D6C297D298E294F
:102ED0009F2928960FB6F894DEBF0FBECDBFDF91B5
:102EE000CF911F910F91FF90EF90DF90CF900C94B6
:102EF000C91D0E94B71DC701B60128960FB6F894E8
:102F0000DEBF0FBECDBFDF91CF911F910F91FF901C
:102F1000EF90DF90CF900C94A51DFF2019F0842F27
:102F2000817001C08695882309F4ABC1262F2295B4
:102F300026952770220F220F862F8F70C82ED12C36
:102F4000E12CF12C022E04C0CC0CDD1CEE1CFF1C6D
:102F50000A94D2F764FF10C06FE070E080E090E068
:102F600004C0660F771F881F991F2A95D2F76095B6
:102F700070958095909503C060E070E0CB01242FA0
:102F8000269526952370422F50E042305105D1F00E
:102F90004330510559F16C297D298E299F294130F3
:102FA000510541F128960FB6F894DEBF0FBECDBF94
:102FB000DF91CF911F910F91FF90EF90DF90CF9015
:102FC0000C94561E6C297D298E299F2928960FB6B0
:102FD000F894DEBF0FBECDBFDF91CF911F910F914F
:102FE000FF90EF90DF90CF900C94681E0E94561EC9
:102FF000C701B60128960FB6F894DEBF0FBECDBF4D
:10300000DF91CF911F910F91FF90EF90DF90CF90C4
:103010000C94441E613F29F118F4603F39F06DC0F3
:10302000623F99F1633F09F444C067C0FF20A9F0F3
:10303000253008F026C1842F8F7128960FB6F8949A
:10304000DEBF0FBECDBFDF91CF911F910F91FF90DB
:10305000EF90DF90CF900C94291E263008F011C11C
:10306000EACFFF20A1F0842F8F7128960FB6F89435
:10307000DEBF0FBECDBFDF91CF911F910F91FF90AB
:10308000EF90DF90CF900C94EF1DFF2061F3842F21
:103090008F7128960FB6F894DEBF0FBECDBFDF91BB
:1030A000CF911F910F91FF90EF90DF90CF900C94F4
:1030B0000A1EFF2091F0842F8F7128960FB6F89486
:1030C000DEBF0FBECDBFDF91CF911F910F91FF905B
:1030D000EF90DF90CF900C94E01D28960FB6F894F7
:1030E000DEBF0FBECDBFDF91CF911F910F91FF903B
:1030F000EF90DF90CF900C94DB1DFF20A1F02223F6
:1031000009F4B1CF862F28960FB6F894DEBF0FBE14
:10311000CDBFDF91CF911F910F91FF90EF90DF9086
:10312000CF900C94C214222309F4B1CF862F289695
:103130000FB6F894DEBF0FBECDBFDF91CF911F91C8
:103140000F91FF90EF90DF90CF900C948A154F7005
:10315000C8010E94A42128960FB6F894DEBF0FBEC6
:10316000CDBFDF91CF911F910F91FF90EF90DF9036
:10317000CF900C940C1DF11084C0662341F0842F75
:103180008F70843021F0407F862F8F70482B942FD2
:103190009F70492F50E04230510509F440C0BCF403
:1031A0004115510561F14130510509F06AC0289679
:1031B0000FB6F894DEBF0FBECDBFDF91CF911F9148
:1031C0000F91FF90EF90DF90CF900C94CA2F433077
:1031D0005105A9F14430510509F053C0862F2896B6
:1031E0000FB6F894DEBF0FBECDBFDF91CF911F9118
:1031F0000F91FF90EF90DF90CF900C946030289665
:103200000FB6F894DEBF0FBECDBFDF91CF911F91F7
:103210000F91FF90EF90DF90CF900C949E2F289607
:103220000FB6F894DEBF0FBECDBFDF91CF911F91D7
:103230000F91FF90EF90DF90CF900C94F62F28968F
:103240000FB6F894DEBF0FBECDBFDF91CF911F91B7
:103250000F91FF90EF90DF90CF900C9428304F703B
:10326000C80128960FB6F894DEBF0FBECDBFDF9120
:10327000CF911F910F91FF90EF90DF90CF900C9422
:10328000690928960FB6F894DEBF0FBECDBFDF9157
:10329000CF911F910F91FF90EF90DF90CF90089505
:1032A0000E9458200E942A200E9469200E946627BE
:1032B0000E94382680E090E00E94A51380E090E014
:1032C0000C94BB130E9448200C9450190E947B1E42
:1032D000292F22952F7030E02C3031054CF42A3004
:1032E00031056CF4225031092230310570F407C0E9
:1032F0002C30310531F02F30310519F006C081E056
:10330000089593FB882780F9089580E00895CF936E
:10331000DF9300D000D01F92CDB7DEB70F900F9093
:103320000F900F900F90DF91CF910895CF93DF937F
:1033300000D000D000D0CDB7DEB726960FB6F894F7
:10334000DEBF0FBECDBFDF91CF910895CF93DF9346
:10335000CDB7DEB72B970FB6F894DEBF0FBECDBF4B
:103360004F83588769877A878B87DE01119686E0BD
:10337000FD0111928A95E9F785E0FE0137960190EB
:103380000D928A95E1F74F81588569857A858B85FD
:103390000E94820B49815A816B817C818D819E8143
:1033A0000E945F1C2B960FB6F894DEBF0FBECDBFF8
:1033B000DF91CF9108951F93CF93DF93C091720156
:1033C00016E080917301C81799F0D0E01C9FF001BE
:1033D0001D9FF00D1124EC58FE4F408151816281F8
:1033E0007381848195810E9496192196C770E9CFD7
:1033F000DF91CF911F9108954091A4015091A501B3
:103400006091A6017091A7018091A8019091A901F6
:103410000C949619CF938091A90182958F7009F031
:103420005FC08091A601882309F45AC020917201DF
:10343000A09173016091A4017091A5018091A701F1
:103440009091A80131E06F3F09F030E0B32FC6E062
:103450002A1709F445C0009721F07F3F21F44B2F34
:1034600003C041E001C040E030E040FD35C0C29FF4
:10347000F001C39FF00D1124EC58FE4F41817413ED
:103480002BC04081641328C04281411125C0438173
:1034900054814817590710F441505109481B590BE2
:1034A000483C5105C8F48091A9018F7080618093D8
:1034B000A90186E0829FF001839FF00D1124E75857
:1034C000FE4F80818F708061808384EA91E00E944A
:1034D000E715CF910C94DB192F5F3F4F2770B8CFC2
:1034E000CF910895CF92DF92EF92FF920F931F93A7
:1034F000CF93DF93CDB7DEB762970FB6F894DEBFF8
:103500000FBECDBF8C0185E0F801DE011D96019054
:103510000D928A95E1F7D8014C9111965C91119723
:1035200012966C9112971396ED90FC9014977091EF
:10353000A401E091A5012091A7013091A8012115D6
:10354000310531F0EF3F31F481E07F3F19F403C0E2
:1035500081E001C080E0B82FB170CB2E80FD6CC13E
:10356000D090A601DD2009F4F5C0F091A901E21682
:10357000F30638F0C701821B930B883C910548F095
:103580009BC0209530952E0D3F1D283C310508F03D
:1035900093C08F2F807F09F052C0E51314C07413BD
:1035A00012C0D62E61110FC0FF70F061F093A90117
:1035B0000E94FC1984EA91E00E94E7158091A9011C
:1035C000F80185836CC1EF2831F05F3F31F481E071
:1035D0004F3F19F403C081E001C080E080FD03C0CB
:1035E00081E0862701C080E0F82FF170FF2E80FF78
:1035F0001CC0809172012091730136E0821709F49A
:1036000028C190E0389FF001399FF00D1124EC584B
:10361000FE4F7181571306C07081471303C072813A
:10362000671303C001968770E9CFD62E662309F48D
:1036300036C18091A90181608093A90153C0E5132F
:1036400008C0741306C0611104C0D8011596FC931C
:10365000AEC04D875E878D859E856A8B0E946619F8
:103660006A89882329F1D62E662311F12091A901B8
:10367000822F82958F7090E002970CF460C0809149
:10368000A4019091A50198878F831986FB86EA860D
:103690002C87CE01079651C0E51731F14D875E8723
:1036A0008D859E856A8B0E9466196A8981112EC05C
:1036B000C8010E94E715A4C08F2F807F69F77E2D77
:1036C000F98AE88A89890E94871984EA91E00E9430
:1036D000E715E4EAF1E086E0DF011D928A95E9F75B
:1036E0000E94FC19D12CDBC07413D8CF6111D6CF46
:1036F000D8011596FC93C8010E94E715E4EAF1E0B1
:1037000086E0DF011D928A95E9F7C9C0D62E6623AF
:1037100079F22091A901822F82958F7090E0029713
:1037200074F08091A4019091A5019A8389831B82F2
:10373000FD82EC822E83CE0101960E94E71586E081
:10374000F801A4EAB1E001900D928A95E1F70E9498
:103750000A1A6FC0E216F30628F0C701821B930B0A
:103760009C0104C0209530952E0D3F1D283C31054D
:1037700008F052C0D62E662309F49ACFE5132CC068
:1037800074132AC08091A90180FD1DC0982F9295C5
:103790009F70C9F0D80115968C9315979F3039F01A
:1037A0009F5F9295907F8F70892B15968C93C8019F
:1037B0000E94E71586E0F801A4EAB1E001900D92BD
:1037C0008A95E1F736C086E0F801A4EAB1E00190FD
:1037D0000D928A95E1F763C04D875E878D859E8542
:1037E0000E946619882379F086E0F801A4EAB1E026
:1037F00001900D928A95E1F70E940A1A0E94FC1925
:10380000DD24D3944CC08091A90181608093A901EB
:10381000C8010E94E71543C07E2DF98AE88A89898C
:103820000E948719E4EAF1E086E0DF011D928A95A3
:10383000E9F70E94FC1933C0662309F439CF4D879C
:103840005E878D859E850E946619882309F430CF96
:10385000CBCF4D875E878D859E850E947B1E292F4D
:1038600022952F7030E0223031052CF49F7041F00A
:10387000811106C00CC0243031052CF49F7049F42E
:10388000805E883020F0C8010E94E715CF2CDC2C28
:1038900006C0D80115969C91907F91F7F8CF8D2D99
:1038A00062960FB6F894DEBF0FBECDBFDF91CF9109
:1038B0001F910F91FF90EF90DF90CF9008951F938D
:1038C000CF93DF93CDB7DEB72C970FB6F894DEBF5A
:1038D0000FBECDBF4F83588769877A878B879C87B8
:1038E000CE0107960E94721A8823C1F02F81388575
:1038F0008A859B85892B31F03F3F11F080E003C022
:103900002F3FE1F781E0811147C04F8158856985DC
:103910007A858B859C850E9496193EC086E0FE01C3
:103920003796DE01119601900D928A95E1F7FF819D
:10393000E8854A855B854115510531F0EF3F31F44B
:1039400081E0FF3F19F403C081E001C080E080FD09
:1039500023C02091730130E0C90101968770992737
:103960006091720170E086179707F1F1F983EA839D
:103970005D834C8396E0929FD001939FB00D1124FC
:10398000AC58BE4FFE01319601900D929A95E1F729
:10399000809373010E94DB1916E08091720190916F
:1039A0007301891779F1189FC00111248C589E4F1B
:1039B0000E94721A882331F1E09172011E9FF0017A
:1039C0001124EC58FE4F40815181628173818481C2
:1039D00095810E9496198091720190E001968770FE
:1039E000992780937201D9CF0E94621910927301B6
:1039F00010927201E4EAF1E086E0DF011D928A95FF
:103A0000E9F7CACF2C960FB6F894DEBF0FBECDBF34
:103A1000DF91CF911F910895EF92FF920F931F9323
:103A2000CF93DF93FC01009709F46DC0F12CEE24D5
:103A3000E394EF0121968491843740F4843008F0B8
:103A400053C0813081F0823021F15DC0853709F4A7
:103A500045C0B0F19CE7980F903708F054C08F77BD
:103A60000E948A1543C08F010E5F1F4FFE01849193
:103A700090E2980F983050F48770FE2D01C0FF0F30
:103A80008A95EAF78F2F0E944B2015C00E94C2141E
:103A900012C08F010E5F1F4FFE01849190E2980FBC
:103AA000983058F48770FE2D01C0FF0F8A95EAF711
:103AB0008F2F0E945120E80119C00E948A15FBCF68
:103AC000CF010296FE01C491CC2361F0EFE9FFE043
:103AD0003197F1F700C00000C150F6CFCF01029638
:103AE000FE01F490EC0102C00E94C2148F2D8823C5
:103AF00041F0EFE9FFE03197F1F700C0000081509D
:103B0000F6CFFE0196CFDF91CF911F910F91FF90DD
:103B1000EF9008956093AE017093AF018093B00170
:103B20009093B1010E9473310C9450196093AA01D3
:103B30007093AB018093AC019093AD010E94CA31A8
:103B40000C94501908950C948A1D0F931F930091A3
:103B5000AE011091AF012091B0013091B101602B05
:103B6000712B822B932B1F910F910C948A1D0F9315
:103B70001F930091AE011091AF012091B0013091DF
:103B8000B10160237123822393231F910F910C9421
:103B90008A1D0F931F930091AE011091AF012091E8
:103BA000B0013091B10160277127822793271F91BF
:103BB0000F910C948A1D60E070E0CB010C94961D6F
:103BC00041E050E060E070E004C0440F551F661F04
:103BD000771F8A95D2F7CB01BA010C94961D41E06C
:103BE00050E060E070E004C0440F551F661F771F6F
:103BF0008A95D2F78091AA019091AB01A091AC0176
:103C0000B091AD01482B592B6A2B7B2BCB01BA010C
:103C10000C94961D41E050E060E070E004C0440F59
:103C2000551F661F771F8A95D2F74095509560956E
:103C300070958091AA019091AB01A091AC01B091D7
:103C4000AD01482359236A237B23CB01BA010C948D
:103C5000961D41E050E060E070E004C0440F551F45
:103C6000661F771F8A95D2F78091AA019091AB01C8
:103C7000A091AC01B091AD01482759276A277B2755
:103C8000CB01BA010C94961D0F931F930091AA01CA
:103C90001091AB012091AC013091AD01602B712BE3
:103CA000822B932B1F910F910C94961D0F931F93B2
:103CB0000091AA011091AB012091AC013091AD01AE
:103CC00060237123822393231F910F910C94961DDF
:103CD0000F931F930091AA011091AB012091AC01A9
:103CE0003091AD0160277127822793271F910F9193
:103CF0000C94961D0895CF92DF92EF92FF920F934E
:103D00001F93CF93DF93EC01C090AE01D090AF0131
:103D1000E090B001F090B1018091AA019091AB01C7
:103D2000A091AC01B091AD01C82AD92AEA2AFB2A98
:103D30000FE110E0B701A601002E04C0769567954B
:103D4000579547950A94D2F740FF07C0BE01802FD0
:103D50000E9431218130910539F40150110950F749
:103D6000BE0180E00E943121DF91CF911F910F9120
:103D7000FF90EF90DF90CF900895CF92DF92EF9277
:103D8000FF920F931F93CF93DF93F82E80910C0136
:103D9000882349F18F2D8695869586958F3090F4EE
:103DA000E0910D01F0910E01E80FF11D8F2D87704C
:103DB00021E030E001C0220F8A95EAF78181822B51
:103DC0008183A3C08091FD0180FF9FC01F92FF925D
:103DD0008DE894E09F938F930E945A090F900F9063
:103DE0000F900F9092C0E090C5014091C301E09107
:103DF0000D01F0910E01442309F472C02091C40119
:103E00008E2D3FEF06E010E0A82FBB27A7FDB09551
:103E1000EF01CA0FDB1F9A819F1509F476C03F3F5F
:103E200019F4911101C0382FCD010196C6E0D0E000
:103E3000B8010E94AA348213E7CF2E1151C03F3F30
:103E400071F4822F992787FD90950196BE010E94FB
:103E5000AA348093C50141504093C30141C0832FD0
:103E6000992787FD90950196BE010E94AA34EE2401
:103E7000E394C6E0D0E0082F112707FD10956F01ED
:103E8000C00ED11ED60112966C916623A1F0432F6D
:103E9000552747FD5095CF01840F951FDC011296E1
:103EA0006C93D60112961C92CA010196BE010E9423
:103EB000AA34382F01C0E394C8010196BE010E94C4
:103EC000AA348213D8CF822F992787FD90958E1917
:103ED0009109069666E070E00E94AA348093C401BE
:103EE0002091C401332727FD3095E20FF31FF282A2
:103EF000C901019666E070E00E94AA348093C40173
:103F00008091C3018F5F8093C301DF91CF911F9197
:103F10000F91FF90EF90DF90CF900895DF92EF9296
:103F2000FF920F931F93CF93DF93482F80910C0143
:103F3000882351F1842F8695869586958F3098F445
:103F4000E0910D01F0910E01E80FF11D477021E0A5
:103F500030E0042E01C0220F0A94EAF720958181F7
:103F6000282321836FC08091FD0180FF6BC01F92C9
:103F70004F938FE694E09F938F930E945A090F907E
:103F80000F900F900F905EC0E091C501D090C301DB
:103F9000DD2009F457C0C0910D01D0910E010091B0
:103FA000C401112707FD109586E0E82EF12CF0E002
:103FB000DE01AE0FBF1F9D012E5F3F4F12968C9109
:103FC000841336C0D9011C92DA94D092C301D11067
:103FD00004C01092C5011092C4012091C401822F27
:103FE000992787FD9095059666E070E00E94AA34B7
:103FF000E817F90739F54091C501E6E0F0E0822FB6
:10400000992787FD90950596BF010E94AA349C01CF
:104010000596BF010E94AA348C0F9D1FDC011296E9
:104020008C91811102C02413EACF2093C4010AC0ED
:10403000CF010196B7010E94AA34E82F801791079B
:1040400009F0B5CFDF91CF911F910F91FF90EF90C5
:10405000DF90089581E090E0E0910D01F0910E0174
:10406000E80FF91F1082019680319105A9F7089594
:104070008091C70108959091C701982B9093C70133
:10408000089580959091C70198239093C701089552
:104090001092C70108959091C601982B9093C60184
:1040A000089580959091C60198239093C601089534
:1040B0001092C60108958093B20108951092B20142
:1040C000089580910C01811103C08091C30108956E
:1040D0000895E0910D01F0910E018091C701808358
:1040E000E0910D01F0910E0180819091C601892B24
:1040F00080839091B201992361F0E0910D01F091DC
:104100000E018081892B80830E9461208111109291
:10411000B20180910D0190910E010C9455138B3BCF
:1041200060F4883A00F5853AA8F4843088F4813048
:1041300009F055C081E090E00895803E08F44FC03A
:10414000883E30F0803F08F44AC090E090650895C2
:1041500090E00895853A09F445C0863A09F045C0D3
:1041600082E890E40895883A09F442C0893A09F453
:1041700042C08A3A09F442C08B3A09F442C08C3AF0
:1041800009F442C08D3A09F442C0803B09F442C0B0
:104190008E3A09F442C08F3A09F442C0813B09F4D7
:1041A00042C0823B09F442C0833B09F442C0843BD5
:1041B00009F442C0853B09F442C0863B09F442C081
:1041C000873B09F442C0883B09F442C0893B09F4AB
:1041D00042C08A3B09F042C08AE296E4089580E03A
:1041E00090E0089581E890E4089583E890E40895CC
:1041F00082EE94E4089589EE94E408958AEE94E4BE
:10420000089585EB94E4089586EB94E4089587EB94
:1042100094E408958CEC94E408958DEC94E408956E
:1042200083E895E408958AE895E4089582E995E4A1
:10423000089584E995E4089581E296E4089583E27F
:1042400096E4089584E296E4089585E296E408955C
:1042500086E296E4089587E296E4089580E094E487
:1042600008950E948409803EA8F4803C00F58133C3
:1042700009F45CC038F4893209F452C08A3209F476
:104280005BC05FC08933B1F08238A1F0853309F497
:1042900041C057C0833E41F128F4803E99F0823EF0
:1042A000B9F04FC0863E31F1873E71F14AC00E949D
:1042B000880908959091FC0190FD02C091FF41C0D2
:1042C00080EE3FC08091FC0180FFFACF89E339C0C6
:1042D0008091FC0182FF0CC08091FC0184FF02C030
:1042E00080E02FC083EE2DC08091FC0182FFF4CFCF
:1042F00082EE27C08091FC0183FF0AC08091FC01FF
:1043000084FDEECF87EE1DC08091FC0183FFF6CFC8
:1043100086EE17C08091FC0185FF06C089E211C0BE
:104320008091FC0185FFFACF85E30BC08091FC01F1
:1043300086FF06C08AE205C08091FC0186FFFACFA5
:1043400081E30E948F20089580E090E0089582E04C
:1043500084BD93E095BD9AEF97BD80936E0008955C
:104360002FB7F8948091C8019091C901A091CA011A
:10437000B091CB012FBF0895CF92DF92EF92FF92C1
:104380000F931F932FB7F8944091C8015091C90122
:104390006091CA017091CB012FBF6A017B01EE24AD
:1043A000FF248C0120E030E0C016D106E206F306BF
:1043B00010F441505109481B590BCA011F910F912C
:1043C000FF90EF90DF90CF9008951F920F920FB65D
:1043D0000F9211248F939F93AF93BF938091C80145
:1043E0009091C901A091CA01B091CB010196A11D84
:1043F000B11D8093C8019093C901A093CA01B093E5
:10440000CB01BF91AF919F918F910F900FBE0F90F5
:104410001F9018959093CD018093CC0108950E9430
:104420006A0FF8942FEF87EA91E621508040904080
:10443000E1F700C0000087E090EBDC0180930C0204
:1044400090930D02A0930E02B0930F022CE088E12E
:1044500090E00FB6F894A895809360000FBE20936B
:104460006000FFCF80E00E94310BF894A89523E410
:1044700088E190E00FB6F894A895809360000FBE95
:104480002093600083B7817F846083BF83B781609E
:1044900083BF7894889583B78E7F83BF88E10FB6FA
:1044A000F89480936000109260000FBE0895CF933F
:1044B0000E94C909C0E08C2F0E94E10A892B29F4CF
:1044C000CF5FC530C1F780E001C081E0CF91089592
:1044D0000E9462190C948D2F1F920F920FB60F92AB
:1044E00011240F900FBE0F901F901895CF92DF925E
:1044F000EF92FF920F931F936C01EE24FF24C114DF
:10450000D104E104F10421F46B017C0180E001C0DD
:1045100080E133272F2D1E2D0D2D011511052105AD
:10452000310519F0885F6801790197018601A4E0DF
:104530003695279517950795AA95D1F70115110579
:104540002105310519F08C5F680179019701860119
:10455000F2E03695279517950795FA95D1F701154D
:1045600011052105310519F08E5F68017901B70148
:10457000A6017695679557954795452B462B472B72
:1045800009F08F5F1F910F91FF90EF90DF90CF9018
:1045900008958295982F9C7C96959695837344E018
:1045A000849F90011124922B892F8A7A8695957584
:1045B000990F892B08951F93CF93DF931F92CDB747
:1045C000DEB799830E94C922182F9981892F0E94F2
:1045D000C922212F30E0322F2227A901482BCA01FE
:1045E0000F90DF91CF911F910895CF92DF92EF92BC
:1045F000FF920F931F93CF93DF93C82ED12C01E02E
:1046000010E08D2D0E94E10A7C01C0E0D0E098010D
:104610000C2E02C0220F331F0A94E2F72E213F21F5
:10462000232B29F42196CE30D10589F709C06C2FB0
:104630007D2D80E00E948409C812F4CF81E005C07E
:10464000D39485E0D812DDCF80E0DF91CF911F9128
:104650000F91FF90EF90DF90CF900895CF93C82FE8
:104660008CE20E94F522882321F08C2FCF910C94AC
:10467000F52280E0CF910895CF930E949B24811171
:1046800002C00E94762482EB94E00E94C108C5E635
:10469000C15049F00E94C9098FE39CE90197F1F7E5
:1046A00000C00000F5CF8BEA94E00E94C10889E2C7
:1046B0000E942E23811118C18AE20E942E23882392
:1046C00041F00E9495240E9476240E940C330E949F
:1046D000753285E00E942E2381110E940F220E94D4
:1046E000A6248093FD0187E00E942E23882399F160
:1046F0008BE10E942E23882351F09091FD0191FBC4
:10470000882780F921E0822780FB91F922C08EE082
:104710000E942E23882351F09091FD0192FB88275F
:1047200080F921E0822780FB92F913C080E10E948A
:104730002E239091FD01882341F093FB882780F977
:1047400021E0822780FB93F904C0892F809580FBAC
:1047500090F99093FD018091FD010E94AA240E948E
:10476000B8248093FC0180EE0E942E23882341F020
:104770008091FC01982F909590FB80F98093FC012B
:1047800089E30E942E23882359F09091FC0191FB2C
:10479000882780F921E0822780FB91F99093FC0122
:1047A00082EE0E942E23882359F09091FC0192FB07
:1047B000882780F921E0822780FB92F99093FC0101
:1047C00086EE0E942E23882359F09091FC0193FBE2
:1047D000882780F921E0822780FB93F99093FC01E0
:1047E00083EE0E942E23882359F09091FC0194FBC4
:1047F000882780F921E0822780FB94F99093FC01BF
:1048000085E30E942E23882359F09091FC0195FBAB
:10481000882780F921E0822780FB95F99093FC019D
:1048200081E30E942E23882359F09091FC0196FB8E
:10483000882780F921E0822780FB96F99093FC017C
:1048400081E10E942E23882359F09091FC0197FB6F
:10485000882780F921E0822780FB97F99093FC015B
:104860008091FC010E94BC248091FC0187FB882779
:1048700080F980930C0187E20E942E23C82F8EE1DD
:104880000E942E238111C2608FE10E942E2381118C
:10489000C46080E20E942E238111C86081E20E94E0
:1048A0002E238111C06182E20E942E238111C062F9
:1048B00083E20E942E238111C06484E20E942E2391
:1048C000882311F0C06802C0CC2329F08C2F0E94ED
:1048D000B3246C2F03C00E94AF24682F70E080E0E7
:1048E00090E0CF910C94A31DCF9108956DEE7EEFD3
:1048F00080E090E00E94F43460E082E090E00E946A
:10490000E63460E083E090E00E94E63460E084E01A
:1049100090E00E94E63460E085E090E00E94E6349A
:1049200060E086E090E00C94E6346FEF7FEF80E08B
:1049300090E00C94F43480E090E00E94E03421E0B8
:104940008D3E9E4F09F020E0822F089582E090E096
:104950000C94D834682F82E090E00C94E63483E025
:1049600090E00C94D834682F83E090E00C94E63407
:1049700084E090E00C94D834682F84E090E00C94AC
:10498000E63486E090E00C94D834682F86E090E01E
:104990000C94E6348091D00180FF0BC0609112012D
:1049A00085E0689FB00111247595679575956795A9
:1049B0002AC081FF09C06091120185E0689FB001A3
:1049C0001124759567951FC082FF07C06091120181
:1049D00085E0689FB001112416C04091D1014423A5
:1049E000C9F060911101461788F72091120185E006
:1049F000289F90011124429FC001439F900D1124D4
:104A000070E00E94AA346038710540F461157105A8
:104A100039F002C065E070E0862F08958FE70895B1
:104A200081E008958091D00180FF08C0609110015D
:104A300070E0759567957595679521C081FF06C0F3
:104A40006091100170E07595679519C082FF04C0F0
:104A50006091100170E010C08091D1018823C1F0F5
:104A600060910F018617A0F790911001989FC001E7
:104A7000112470E00E94AA346038710528F4611591
:104A8000710521F0862F08958FE7089581E008953C
:104A900061E070E0F4CF803F21F40E94CA24819548
:104AA00004C0813F29F40E94CA248093D401089550
:104AB000823F21F40E94CA24819504C0833F29F4D7
:104AC0000E94CA248093D3010895893F19F40E945B
:104AD000122505C08A3F31F40E94122581958093EA
:104AE000D50108958B3F21F40E941225819504C0C1
:104AF0008C3F29F40E9412258093D6010895843FAB
:104B000021F48091D201816017C0853F21F480910A
:104B1000D201826011C0863F21F48091D20184606D
:104B20000BC0873F21F48091D201886005C0883F87
:104B300031F48091D20180618093D20108958D3F3C
:104B400021F48091D00181600BC08E3F21F48091CF
:104B5000D001826005C08F3F29F48091D00184602C
:104B60008093D0010895803F39F48091D40187FF6C
:104B70006CC01092D40169C0813F29F48091D401A6
:104B80001816BCF362C09091D301823F29F497FFBD
:104B90005CC01092D30159C0833F19F41916CCF3AD
:104BA00054C0893F41F48091D50118160CF04DC0D6
:104BB0001092D5014AC08A3F29F48091D50187FF20
:104BC00044C0F6CF8B3F39F48091D60187FF3DC0BA
:104BD0001092D6013AC08C3F29F48091D601181664
:104BE000BCF333C0843F21F48091D2018E7F17C083
:104BF000853F21F48091D2018D7F11C0863F21F441
:104C00008091D2018B7F0BC0873F21F48091D2012C
:104C1000877F05C0883F31F48091D2018F7E8093D9
:104C2000D20113C08D3F21F48091D0018E7F0BC043
:104C30008E3F21F48091D0018D7F05C08F3F29F4F4
:104C40008091D0018B7F8093D0018091D30181111D
:104C50000EC08091D40181110AC08091D5018111CB
:104C600006C08091D601811102C01092D101089531
:104C70008091FD0183FF7EC08EEE94E00E94C1080A
:104C80008091D2011F928F9389EE94E09F938F932E
:104C90000E945A0987EE94E00E94C1082091D30136
:104CA000822F992787FD90959F932F9384EE94E010
:104CB0009F938F930E945A0982EE94E00E94C1084C
:104CC0002091D401822F992787FD90959F932F9350
:104CD0008FED94E09F938F930E945A098DED94E09D
:104CE0000E94C1082091D501822F992787FD9095B8
:104CF0009F932F938AED94E09F938F930E945A097C
:104D000088ED94E00E94C1082091D601822F992756
:104D100087FD90959F932F9385ED94E09F938F93BC
:104D20000E945A0982ED94E00E94C1088091D1014D
:104D30001F928F938FEC94E09F938F930E945A0958
:104D40008DEC94E00E94C1088091D0011F928F9356
:104D50008AEC94E09F938F930E945A0987EC94E029
:104D60000E94C1088DB79EB74C960FB6F8949EBFAF
:104D70000FBE8DBF82ED91E00E949A130E94B02178
:104D80009093CF018093CE0108951F93CF93DF932B
:104D90008091CE019091CF010E94BC214091D10120
:104DA000442321F02091130130E006C0209114012A
:104DB0005AE0259F900111248217930708F482C0BE
:104DC0008091D3011091D401D091D501C091D60129
:104DD000811107C0111105C0D11103C0CC2309F402
:104DE00071C04F3F19F04F5F4093D101181624F462
:104DF0000E94CA248093D3018091D30187FF05C00C
:104E00000E94CA2481958093D301111624F40E9434
:104E1000CA248093D4018091D40187FF05C00E94E9
:104E2000CA2481958093D4016091D301662339F11E
:104E30001091D401112319F1772767FD7095872F01
:104E4000972F0E94BB3323E333E343E35FE30E94E6
:104E50001F340E9488336093D301612F772767FD49
:104E60007095872F972F0E94BB3323E333E343E3EF
:104E70005FE30E941F340E9488336093D4011D16A3
:104E800024F40E9412258093D5018091D50187FFDB
:104E900005C00E94122581958093D5011C1624F42B
:104EA0000E9412258093D6018091D60187FF05C00C
:104EB0000E94122581958093D601DF91CF911F9199
:104EC0000C943826DF91CF911F910895E2EDF1E027
:104ED00085E0DF011D928A95E9F71092D1011092C9
:104EE000D001089588EB99E00E94C1088BEA99E00F
:104EF0000E94C1088EE999E00C94C1088BE199E009
:104F00000E94C1088EE099E00E94C10883EF98E0FA
:104F10000E94C10888ED98E00E94C10880EC98E0EA
:104F20000E94C10886EA98E00E94C10888E898E0DB
:104F30000E94C10888E698E00E94C10884E598E0D4
:104F40000E94C1088DE398E00E94C10881E298E0C8
:104F50000E94C10883E098E00E94C10884EE97E0B7
:104F60000E94C10883EC97E00E94C1088EE897E098
:104F70000E94C10889E797E00E94C1081F9285E05E
:104F80008F9386E797E09F938F930E945A098DE64F
:104F900097E00E94C1081F9281E08F938AE697E014
:104FA0009F938F930E945A0988E697E00E94C10858
:104FB0008DB79EB708960FB6F8949EBF0FBE8DBFF3
:104FC0008BE397E00C94C108833009F459C028F4AE
:104FD000813061F0823079F10895853009F49AC00A
:104FE00008F473C0863009F4BAC008952091140102
:104FF000862F90E0820F911D8F3F910520F4620F64
:105000006093140103C08FEF8093140187E196E051
:105010000E94C108809114011F928F9384E196E051
:105020009F938F930E945A090F900F900F900F90AB
:1050300082E196E0B8C020911301862F90E0820FA4
:10504000911D8F3F910520F4620F6093130103C0FF
:105050008FEF8093130183E096E00E94C108809156
:1050600013011F928F9380E096E09F938F930E948D
:105070005A090F900F900F900F908EEF95E093C00C
:1050800020911201862F90E0820F911D8F3F910594
:1050900020F4620F6093120103C08FEF809312011E
:1050A0008EEE95E00E94C108809112011F928F93AD
:1050B0008BEE95E09F938F930E945A090F900F906B
:1050C0000F900F9089EE95E06EC020911101862F10
:1050D00090E0820F911D8F3F910520F4620F609345
:1050E000110103C08FEF8093110187ED95E00E94BD
:1050F000C108809111011F928F9384ED95E09F93D9
:105100008F930E945A090F900F900F900F9082ED8D
:1051100095E049C020911001862F90E0820F911DEB
:105120008F3F910520F4620F6093100103C08FEF51
:10513000809310018CEB95E00E94C10880911001D2
:105140001F928F9389EB95E09F938F930E945A094A
:105150000F900F900F900F9087EB95E024C0209157
:105160000F01862F90E0820F911D8F3F910520F453
:10517000620F60930F0103C08FEF80930F018FE9DF
:1051800095E00E94C10880910F011F928F938CE9D6
:1051900095E09F938F930E945A090F900F900F9064
:1051A0000F908AE995E00C94C108833009F44DC052
:1051B00028F4813061F0823049F10895853009F496
:1051C00082C008F461C0863009F49CC008958091C3
:1051D0001401681720F4861B8093140102C01092FA
:1051E00014018EE895E00E94C108809114011F927D
:1051F0008F938BE895E09F938F930E945A090F90AD
:105200000F900F900F9089E895E09AC0809113015C
:10521000681720F4861B8093130102C010921301BB
:105220008AE795E00E94C108809113011F928F9335
:1052300087E795E09F938F930E945A090F900F90F4
:105240000F900F9085E795E07BC080911201681761
:1052500020F4861B8093120102C01092120185E691
:1052600095E00E94C108809112011F928F9382E6FF
:1052700095E09F938F930E945A090F900F900F9083
:105280000F9080E695E05CC080911101681720F4D2
:10529000861B8093110102C0109211018EE495E0EB
:1052A0000E94C108809111011F928F938BE495E0B9
:1052B0009F938F930E945A090F900F900F900F9019
:1052C00089E495E03DC080911001681720F4861BA9
:1052D0008093100102C01092100183E395E00E94B8
:1052E000C108809110011F928F9380E395E09F93F6
:1052F0008F930E945A090F900F900F900F908EE29B
:1053000095E01EC080910F01681720F4861B8093E2
:105310000F0102C010920F0186E195E00E94C108C2
:1053200080910F011F928F9383E195E09F938F935C
:105330000E945A090F900F900F900F9081E195E015
:105340000C94C108CF93C82F87E899E00E94C10848
:105350006091AE017091AF018091B0019091B10167
:105360000E9476221F928F9324E839E03F932F9377
:105370000E945A098FE799E00E94C1081F92CF93BB
:105380002CE739E03F932F930E945A098AE799E06E
:105390000E94C10861E070E080E090E004C0660F08
:1053A000771F881F991FCA95D2F70E94A31D8DB73A
:1053B0009EB708960FB6F8949EBF0FBE8DBFCF91D3
:1053C0000C94621980E00895CF93C82F8091DA0180
:1053D000813009F402C320F0823009F426C335C4B9
:1053E000A0910D01B0910E018C91823209F02FC471
:1053F0008C2F0E94E2298111EDC24C2F50E0FA015E
:105400003697E334F10508F0DFC2E059FF4F0C9402
:10541000BE348AEE9FE00E94C10880E29DE00E94B7
:10542000C1080E94AF241F928F938DE19DE09F934E
:105430008F930E945A098BE19DE00E94C1080E944F
:10544000A624C82F88E09DE00E94C1081F92CF9338
:1054500023E03DE03F932F930E945A0981E09DE0B5
:105460000E94C10887EF9CE00E94C1088C2F8170C8
:105470001F928F9324EF3CE03F932F930E945A0991
:1054800082EF9CE00E94C10888EE9CE00E94C10867
:10549000C1FB882780F91F928F9325EE3CE03F9354
:1054A0002F930E945A0983EE9CE00E94C10887ED69
:1054B0009CE00E94C108C2FB882780F91F928F934D
:1054C00024ED3CE03F932F930E945A0982ED9CE02B
:1054D0000E94C10889EC9CE00E94C108C3FBCC2754
:1054E000C0F91F92CF9386EC9CE09F938F930E940C
:1054F0005A0984EC9CE00E94C1080E94B824C82F7D
:1055000080EB9CE00E94C1081F92CF932BEA3CE005
:105510003F932F930E945A0989EA9CE00E94C10898
:1055200080E99CE00E94C1088C2F81701F928F93AC
:105530002DE83CE03F932F930E945A098DB79EB708
:1055400080960FB6F8949EBF0FBE8DBF8BE89CE08F
:105550000E94C10884E79CE00E94C108C1FB882723
:1055600080F91F928F9321E73CE03F932F930E9495
:105570005A098FE69CE00E94C1088DE59CE00E94DC
:10558000C108C2FB882780F91F928F932AE53CE06F
:105590003F932F930E945A0988E59CE00E94C1081E
:1055A00086E49CE00E94C108C3FB882780F91F9213
:1055B0008F9323E43CE03F932F930E945A0981E4A8
:1055C0009CE00E94C10887E39CE00E94C108C4FBE4
:1055D000882780F91F928F9324E33CE03F932F9319
:1055E0000E945A0982E39CE00E94C10880E29CE08C
:1055F0000E94C108C5FB882780F91F928F932DE177
:105600003CE03F932F930E945A098BE19CE00E945B
:10561000C1088FEF9BE00E94C108C6FB882780F974
:105620001F928F932CEF3BE03F932F930E945A09D8
:105630008AEF9BE00E94C10882EF9BE00E94C108B4
:10564000C7FBCC27C0F91F92CF938FEE9BE09F93AF
:105650008F930E945A098DEE9BE00E94C1080E9420
:10566000C124C82F86ED9BE00E94C1081F92CF93F2
:1056700021ED3BE03F932F930E945A098DB79EB7CF
:1056800080960FB6F8949EBF0FBE8DBF8FEC9BE047
:105690000E94C10885EC9BE00E94C1088C2F81709C
:1056A0001F928F9322EC3BE03F932F930E945A0965
:1056B00080EC9BE00E94C10887EB9BE00E94C10840
:1056C000C6951F92CF9384EB9BE09F938F930E948C
:1056D0005A0982EB9BE00E94C1088DB79EB70896DD
:1056E0000FB6F8949EBF0FBE8DBF74C10E944413C5
:1056F000892B69F00E9444139093D8018093D701BD
:1057000080E090E00E943F1381EE9FE036C18091DF
:10571000D7019091D8010E943F1386ED9FE02DC1E3
:1057200086E99BE00E94C1088FE79BE00E94C108C8
:1057300087E69BE00E94C1088FE49BE00E94C108BD
:1057400085E39BE00E94C1088EE19BE00E94C108B6
:105750008EEF9AE00E94C10888EE9AE00E94C1088C
:1057600087ED9AE00E94C1088FEB9AE00E94C10881
:105770008FEA9AE00E94C10885E99AE00E94C10878
:105780008CE79AE00E94C10883E69AE00E94C10873
:105790008AE49AE00E94C10881E39AE00E94C1086D
:1057A00080E19AE00E94C1088EEE99E00E94C10853
:1057B00084ED99E0E2C08091FD01817F8E7F80932E
:1057C000FD010E94722781EC9FE00E94C1088DEBD1
:1057D0009FE00E94C10881E08093DA01FBC00E9433
:1057E000621984EA9FE00E94C1089FEF23ED80E3E5
:1057F000915020408040E1F700C000000E940F223D
:1058000084E99FE0BAC08091FD0180FF09C081E872
:105810009FE00E94C1088091FD01817F8E7F3DC085
:105820008FE69FE035C09091FD0191FB882780F9BC
:1058300021E0822780FB91F99093FD01882319F0E4
:1058400086E59FE025C08CE39FE097C09091FD0125
:1058500092FB882780F921E0822780FB92F99093C0
:10586000FD01882319F081E29FE012C085E09FE0EE
:1058700084C09091FD0193FB882780F921E0822765
:1058800080FB93F99093FD01882351F08DEE9EE00B
:105890000E94C1088091FD0181608093FD019AC042
:1058A00084ED9EE06AC08DEB9EE00E94C10884E911
:1058B0009EE00E94C1088FE59EE00E94C10882E33D
:1058C0009EE00E94C1088DEE9DE00E94C1088FEB12
:1058D0009DE053C08091C8019091C901A091CA0177
:1058E000B091CB01BF93AF939F938F938BEA9DE0D1
:1058F0009F938F930E945A090F900F900F900F90D3
:105900000F900F9067C085E99DE00E94C1080E943A
:1059100049131F928F938BE79DE09F938F930E9473
:105920005A0980910B011F928F9384E69DE09F930B
:105930008F930E945A0980914E011F928F9381E5A7
:105940009DE09F938F930E945A098DB79EB70C9646
:105950000FB6F8949EBF0FBE8DBF3CC00E94621967
:1059600080910C0191E0892780930C01882319F024
:1059700082E49DE002C082E39DE00E94C1082AC04B
:1059800081E890E00E94A5139FEF21EE84E0915002
:1059900020408040E1F700C0000080E090E00E94DD
:1059A000A5139FEF29E688E1915020408040E1F760
:1059B00000C000000FC080E004C083EE01C087EC8F
:1059C0008C0F0E94A22906C080E39DE00E94C108BE
:1059D00080E001C081E081703BC1C431E1F090F40E
:1059E000CB30A1F0C031F1F40E947E2789E499E028
:1059F0000E94C10885E499E00E94C10882E080937A
:105A0000DA0121C1C93239F0C83361F40E9472272A
:105A100086E799E0FFC082E699E00E94C1081092F3
:105A2000DA0111C183E499E0F5C0C83228F5CE311E
:105A300008F0C0C0CB30A1F1D0F4C73009F0E8C005
:105A40008EE18093140182E3809313018AE08093B6
:105A5000120184E18093110188E08093100188E2B3
:105A600080930F0180EF96E00E94C108D6C0C33139
:105A700041F1C431C1F0CCC0CB3409F4BEC028F42C
:105A8000C93289F0C83361F0C3C0C13509F4B3C06D
:105A9000C23509F4AEC0CE3409F0BAC06AE0B3C072
:105AA0000E947E27BAC01092D90183E297E00E943B
:105AB000C1088FE197E00E94C10881E08093DA017C
:105AC000C7C083EC96E00E94C1088EEA96E00E946F
:105AD000C108809114011F928F938BEA96E09F93E7
