:100000000C9406010C944D010C944D010C944D017F
:100010000C944D010C944D010C944D010C944D0128
:100020000C944D010C944D010C94B0070C94820873
:100030000C9423170C944D010C944D010C944D011C
:100040000C944D010C9439200C944D010C944D01ED
:100050000C944D010C948B170C944D010C944D0194
:100060000C944D010C944D010C944D010C944D01D8
:100070000C944D010C944D010C944D010C944D01C8
:100080000C944D010C944D010C944D010C944D01B8
:100090000C944D010C944D010C944D010C944D01A8
:1000A0000C944D010C944D010C944D01EA080D097E
:1000B000C8090D09C80952097509C8099709AA098B
:1000C000B30CB30CE00CE00C3B0D750DDE0FDE0F36
:1000D0008D0DDE0F8A0E8A0E450F5B0FDE0FCA0FE5
:1000E000016202620162026200F1A100D100D2004D
:1000F000D0291E1F20212223242526272D2E2A2BFE
:10010000141A0815171C180C12132F303139041645
:1001100007090A0B0D0E0F33340028E1001D1B06E2
:1001200019051110363738C0E5E0E3E200002C0075
:10013000000000E6C0E7E4353A3B3C3D3E3F40412D
:10014000424344454C010152010101B401490146B9
:100150004748010150514F0101010101014A4B0083
:100160000101000165C1C2C3AAA9A84D4E01010148
:1001700001010000010000000001010101001080E8
:10018000FF012300200122022201220000000000C2
:100190000000000000010101020202030304040543
:1001A000050606070808090A0B0B0C0D0E0F1011A7
:1001B0001213151617191A1B1D1E20222325272975
:1001C0002B2D2F313335383A3D3F4244474A4D506D
:1001D0005356595C5F6266696C7074777B7E828669
:1001E0008A8E9195999DA1A5A9ADB0B4B8BCC0C3A4
:1001F000C7CBCED2D5D8DBDFE2E4E7EAECEFF1F310
:10020000F5F7F8FAFBFCFDFEFFFFFF0011241FBE0F
:10021000CFEFDAE0DEBFCDBF04B603FE27C080918A
:100220002E0490912F04A0913004B09131048730B6
:10023000904BA740B04BD1F410922E0410922F0493
:10024000109230041092310414BE84B7877F84BFAB
:100250000FB6F894A8958091600088618093600043
:10026000109260000FBEE0E0F8E3099512E0A0E014
:10027000B1E0E4E4F4E502C005900D92AE3DB107B3
:10028000D9F724E0AEEDB2E001C01D92AE32B20764
:10029000E1F70E947E050C94202A0C9400008CE863
:1002A00090E0089584E090E00895611104C0FC019D
:1002B0008281811103C080E090E0089580EE90E09B
:1002C00008950F931F93CF93DF938C01D62FC42FE4
:1002D000611118C0FC018281882371F00E9481168F
:1002E000827211F085E301C089E28093DE02809181
:1002F000DE020E94420B04C08091DE020E94150CB7
:100300000E94B516F80182818823B1F1D130A1F5A0
:10031000C230F1F050F4CC23A9F0C13069F5DF917F
:10032000CF911F910F910C940323C430E9F0B0F0EA
:10033000C53011F561E08EE1DF91CF911F910F91F2
:100340000C949123DF91CF911F910F910C94FC227B
:10035000DF91CF911F910F910C941F23DF91CF91CB
:100360001F910F910C94362361E08EE1DF91CF91C4
:100370001F910F910C948023DF91CF911F910F91CA
:100380000895462F672F0C94DA27805C0E94CE27B1
:10039000089581EF90E0089589EE90E008958AB184
:1003A000807D8AB98BB1807D8BB9089585E00895F1
:1003B0008EE0089580E885BF85BF0E94CF0180B39D
:1003C0008C7F80BB81B3836081BB6E98769A8AB143
:1003D0008F728AB98BB1806D8BB987B18F7387B9F2
:1003E00088B1806C88B984B1847084B985B18B6F11
:1003F00085B9E9EEF2E0AFEDB2E0119211921D92F3
:100400001D9282E0E33FF807C1F70895CF92DF9293
:10041000EF92FF920F931F93CF93DF931F92CDB76D
:10042000DEB70FED12E0680160E0FF24F394B5E061
:10043000EB2E623071F018F4613041F004C063308B
:1004400059F0643061F0509A58980BC0519A5998FD
:1004500008C0529A5A9805C0539A5B9802C0559AA0
:100460005D9880EA8A95F1F78FB181708F2590E0D1
:10047000799903C022E030E002C020E030E0822B16
:10048000932B669903C024E030E002C020E030E006
:10049000AC01422B532B26B1022E000C330B2095BE
:1004A0003095C9018827990F881F9927A3E0880FE5
:1004B000991FAA95E1F7842B952B369903C0A0E1EB
:1004C000B0E002C0A0E0B0E08A2B9B2B1E9903C0D5
:1004D000A0E2B0E002C0A0E0B0E08A2B9B2B4C99D8
:1004E00003C0E0E4F0E002C0E0E0F0E08E2B9F2BE0
:1004F000199903C020E830E002C020E030E0AC01F0
:10050000422B532B189B0EC023B1022E000C330B31
:1005100020953095C9018827990F881F9927982F12
:10052000882702C080E091E0842B952B1D9903C0A1
:1005300040E052E002C040E050E0842B952B1C9933
:1005400003C040E054E002C040E050E0842B952B13
:1005500049B1042E000C550B409550959A01222765
:10056000330F221F3327322F2227330F330F330F3E
:10057000282B392B4E9903C080E090E102C080E027
:1005800090E0282B392B1B9903C040E050E202C0B9
:1005900040E050E0242B352BD6018D919C91119792
:1005A0008217930721F02D933C93E0920001698319
:1005B0000E94CF0169816F5FB2E0CB0ED11C653024
:1005C00009F037CF809100018823C1F081508093DA
:1005D0000001882339F0EFE9FFE03197F1F700C01F
:1005E00000000CC0E9EEF2E0D8018D919D918D01E3
:1005F00081939193B2E0093E1B07B1F781E00F9020
:10060000DF91CF911F910F91FF90EF90DF90CF90EE
:100610000895E82FF0E0EE0FFF1FE751FD4F8081B6
:10062000918108950895CF93DF93C82F0E947A1F78
:10063000C73088F4C43018F5C130D8F10E94981F33
:100640000E94F51F0E943120EC2FF0E0E358FE4F8E
:10065000C491D0E00CC0C730F1F0C83051F50E9411
:10066000981F0E94EF1F0E94312081E01BC06C2F59
:100670008D2F0E94AD1FDF5FD530C9F72AC00E94C1
:10068000981F0E942B200E94F51F86E08C1BDF9193
:10069000CF910C9436200E94981F0E94EF1F0E9459
:1006A000312080E00E94122083E0DF91CF910C94F2
:1006B00020200E94F51F0E943120C0E060E08C2FB6
:1006C0000E94AD1FCF5FC530C9F7DF91CF910C9469
:1006D0009E1FDF91CF9108951F93CF93DF9300D09A
:1006E00000D01F92CDB7DEB7162F80912D0480FF6A
:1006F00020C08E7F8E3041F4662331F080E20E946C
:10070000232080E10E94E11F80912D048E7F8031A3
:1007100081F4112371F080E20E94232080E10F9088
:100720000F900F900F900F90DF91CF911F910C942D
:10073000C71F0F900F900F900F900F90DF91CF91E8
:100740001F910895089560E0FC0180810C94662358
:1007500060E0FC0180810C946623E82FF0E0EE0F4E
:10076000FF1FEF57FE4F85919491089580910303E9
:100770000895CF93DF9300D01F92CDB7DEB79C01D1
:1007800080912304843019F593E099833B832A8375
:100790009093E9008FEF9091E800815095FD06C09D
:1007A00095ED9A95F1F700008111F5CF8091E80061
:1007B00085FF0DC040E050E063E070E0CE0101969F
:1007C0000E9424068091E8008E778093E8000F90C5
:1007D0000F900F90DF91CF910895CF93DF9300D0CA
:1007E0001F92CDB7DEB720912304243021F522E0FB
:1007F00029839B838A8383E08093E9008FEF909124
:10080000E800815095FD06C095ED9A95F1F700003E
:100810008111F5CF8091E80085FF0DC040E050E0E8
:1008200063E070E0CE0101960E9424068091E8000A
:100830008E778093E8000F900F900F90DF91CF910B
:100840000895209123042430F1F422E02093E9005C
:100850002FEF3091E800215035FD06C035ED3A9577
:10086000F1F700002111F5CF2091E80025FF0BC022
:1008700040E050E065E070E00E9424068091E800CE
:100880008E778093E8000895CF93DF93EC019091E9
:100890002304943009F046C080910B018823D9F0DD
:1008A00080910C018823B9F09093E9008FEF90912B
:1008B000E800815095FD06C095E19A95F1F700009A
:1008C0008111F5CF8091E80085FF2CC040E050E019
:1008D00060E170E017C081E08093E9008FEF9091B4
:1008E000E800815095FD06C095ED9A95F1F700005E
:1008F0008111F5CF8091E80085FF14C040E050E001
:1009000068E070E0CE010E9424068091E8008E77B6
:100910008093E80080E1FE01A3EFB2E001900D9228
:100920008A95E1F7DF91CF9108958091220481119A
:1009300009C00E9437070E9492078091E2008460FC
:100940008093E2000895109222040895089542E0F1
:1009500061EC81E00E94D20642E061EC82E00E94FC
:10096000D20642E061EC83E00E94D20642E161ECF3
:1009700084E00C94D20680912504833009F455C09C
:1009800030F4813071F0823009F48EC008958A30DD
:1009900009F47AC08B3009F460C0893009F09CC03A
:1009A00020C080912404813A09F096C08091E8002B
:1009B000877F8093E8008091280490912904892BF7
:1009C00021F460E183EF92E003C060E080E090E01A
:1009D00070E00E946F068091E8008B778093E800BA
:1009E000089580912404813209F076C08091280412
:1009F00090912904009719F0039709F06DC0809138
:100A0000E800877F8093E8008091E80082FD05C0C0
:100A1000809123048111F8CF5FC08091F100809311
:100A200003038091E8008B7753C080912404813ABE
:100A300009F052C08091280490912904892B09F073
:100A40004BC08091E800877F8093E8008091E800A8
:100A500080FFFCCF80910B0136C08091240481324D
:100A6000D9F58091280490912904892BA9F58091CA
:100A7000E800877F8093E8000E94E60680912604C4
:100A800080930B010C94FF0F80912404813221F597
:100A90008091E800877F8093E8000E94E6068091BD
:100AA000270480930403089580912404813AA1F4DB
:100AB0008091E800877F8093E8008091E80080FFC4
:100AC000FCCF809104038093F1008091E8008E7741
:100AD0008093E8000C94E60608950895089508951B
:100AE0000C946F050E94DD1680912104882329F063
:100AF0000E940A1781110C940E06089584B7877F0F
:100B000084BF0FB6F894A8958091600088618093A7
:100B10006000109260000FBE90E080E80FB6F8947D
:100B200080936100909361000FBE0E946D050E944A
:100B3000310A0E9437070E9492078091E200846088
:100B40008093E2007894809123048430E1F70E943E
:100B5000330A81E091E00E94DD090E946E058091D8
:100B60002304853019F40E947205F9CF0E94450ACA
:100B7000F6CF0C941F170C94B905292F3327233077
:100B80003105C1F05CF42130310579F022303105B6
:100B9000E9F58DE690E028E531E03CC021323105F1
:100BA000C1F02232310511F131C082E190E025EC33
:100BB00031E030C099278330910540F5FC01EE0FFC
:100BC000FF1FE25DFE4F20813181FC01E55DFE4F9C
:100BD0001AC06430D8F4E62FF0E0EE0FFF1FED5D91
:100BE000FE4F2081318189E090E014C0643070F4C0
:100BF00070E0FB01EE0FFF1FE55EFE4F20813181AB
:100C0000FB01E95EFE4F808190E004C080E090E04F
:100C100020E030E0FA0131832083089580E189BD2E
:100C200082E189BD09B400FEFDCF8091D8008F7D9F
:100C30008093D8008091E00082608093E0008091F2
:100C4000E00081FDFCCF0895CF92DF92EF92FF92FA
:100C50000F931F93CF93DF93EC018B016A010E94E6
:100C60000507811133C0C114D10439F0F601808128
:100C70009181081B190BC80FD91FE12CF12C01150C
:100C8000110519F18091E80085FD16C08091E800FA
:100C90008E778093E800C114D10449F0F601808179
:100CA0009181E80EF91EF182E08285E00FC00E947A
:100CB0000507882321F30AC089918093F100015030
:100CC0001109FFEFEF1AFF0ADACF80E0DF91CF9131
:100CD0001F910F91FF90EF90DF90CF90089520919A
:100CE0002A0430912B042617370748F06115710547
:100CF00039F42091E8002E772093E80001C0B90173
:100D000040E061157105A9F120912304222309F423
:100D100043C0253009F442C02091E80023FD40C0C3
:100D20002091E80022FD32C02091E80020FFE9CFA9
:100D30004091F3002091F20030E0342BFC01CF0110
:100D40006115710559F02830310540F48191809387
:100D5000F100615071092F5F3F4FF1CF41E0283022
:100D6000310509F040E02091E8002E772093E8005B
:100D7000C8CF4111C9CF0AC080912304882361F0F4
:100D8000853061F08091E80083FD0AC08091E80021
:100D900082FFF2CF80E0089582E0089583E0089515
:100DA00081E008958F708093E900EBEEF0E08081A0
:100DB00081608083EDEEF0E010826093EC00408370
:100DC0008091EE00881F8827881F08958091240451
:100DD00087FF11C08091E80082FD05C08091230447
:100DE0008111F8CF11C08091E8008B770BC0809102
:100DF0002304882349F08091E80080FFF8CF809198
:100E0000E8008E778093E80008952091E400309107
:100E1000E50095E64091EC00842F817040FF22C0F0
:100E20008091E80080FD1CC080912304882391F00C
:100E3000853091F08091EB0085FD10C04091E40079
:100E40005091E5004217530729F39A01915011F789
:100E500084E0089582E0089583E0089581E0089594
:100E600080E008954091E80042FFDECF08950E949F
:100E7000A3070E94AB07E0EEF0E0808181608083F1
:100E8000E8EDF0E080818F77808319BCA7EDB0E0BA
:100E90008C918E7F8C9380818F7E80831092220430
:100EA00008950F931F93CF93DF930E94A3070E948F
:100EB000AB07C8EDD0E088818F7788838881806810
:100EC000888388818F7D888319BC109223041092B7
:100ED00020041092210400EE10E0F80180818B7F45
:100EE000808388818160888342E060E080E00E94A6
:100EF000D206E1EEF0E080818E7F8083E2EEF0E0CA
:100F0000808181608083808188608083F801808116
:100F10008E7F8083888180618883DF91CF911F914C
:100F20000F910895E8EDF0E080818F7E8083E7EDFA
:100F3000F0E080818160808384E082BF81E08093E3
:100F400022040C945107E8EDF0E080818E7F8083CD
:100F50001092E20008951092DA001092E1000895D4
:100F60001F920F920FB60F9211242F933F934F931E
:100F70005F936F937F938F939F93AF93BF93EF9301
:100F8000FF938091E10082FF0BC08091E20082FF1D
:100F900007C08091E1008B7F8093E1000E94DC0913
:100FA0008091DA0080FF1FC08091D80080FF1BC0B5
:100FB0008091DA008E7F8093DA008091D90080FFE3
:100FC0000DC080E189BD82E189BD09B400FEFDCF7D
:100FD00081E0809323040E94950405C019BC1092FF
:100FE00023040E94A3048091E10080FF19C0809136
:100FF000E20080FF15C08091E2008E7F8093E200C6
:101000008091E20080618093E2008091D80080624C
:101010008093D80019BC85E0809323040E9470055A
:101020008091E10084FF30C08091E20084FF2CC0F9
:1010300080E189BD82E189BD09B400FEFDCF8091C8
:10104000D8008F7D8093D8008091E1008F7E8093BF
:10105000E1008091E2008F7E8093E2008091E200C7
:1010600081608093E20080912004882311F084E065
:1010700007C08091E30087FD02C081E001C083E0EA
:10108000809323040E94BB058091E10083FF29C067
:101090008091E20083FF25C08091E100877F8093EB
:1010A000E10082E080932304109220048091E1000B
:1010B0008E7F8093E1008091E2008E7F8093E2003A
:1010C0008091E20080618093E20042E060E080E095
:1010D0000E94D2068091F00088608093F0000E9408
:1010E000A604FF91EF91BF91AF919F918F917F9156
:1010F0006F915F914F913F912F910F900FBE0F9085
:101100001F9018951F920F920FB60F9211242F93D4
:101110003F934F935F936F937F938F939F93AF937F
:10112000BF93CF93DF93EF93FF93C091E900CF700C
:101130008091EC00D82FD17080FDD0E81092E900AA
:101140008091F000877F8093F00078940E94C60819
:101150001092E9008091F00088608093F000CD2B20
:10116000CF70C093E900FF91EF91DF91CF91BF91D4
:10117000AF919F918F917F916F915F914F913F912F
:101180002F910F900FBE0F901F9018951F93CF9324
:10119000DF9300D0CDB7DEB7E4E2F4E088E08E0F55
:1011A0009091F10091938E13FBCF0E94BB0480912C
:1011B000E80083FFEDC08091240490912504492F1D
:1011C00050E04A30510508F0E3C0FA01EA5AFF4FF7
:1011D0000C94E929803881F0823809F0D9C08091D7
:1011E00028048F708093E9008091EB0085FB8827AD
:1011F00080F91092E90007C080912104882311F042
:1012000082E001C080E09091E800977F9093E80031
:101210008093F1001092F10095C0282F2D7F09F0E6
:10122000B7C0882319F0823061F0B2C080912604E3
:10123000813009F0ADC0933009F080E08093210443
:101240002BC080912604811127C0809128048F70C3
:1012500009F49EC08093E9002091EB0020FF1CC0A0
:10126000933021F48091EB00806214C09091EB00E8
:1012700090619093EB0021E030E0A90102C0440F9F
:10128000551F8A95E2F74093EA001092EA00809198
:10129000EB0088608093EB001092E9008091E800F9
:1012A000877F53C0811174C0109126041F778091ED
:1012B000E3008078812B8093E3008091E800877FB2
:1012C0008093E8000E94E6068091E80080FFFCCF52
:1012D0008091E30080688093E300111102C082E0F6
:1012E00001C083E08093230453C08058823008F00B
:1012F0004FC0AE014F5F5F4F60912804809126047C
:10130000909127040E94BD05BC01892B09F440C0BF
:101310009091E800977F9093E80089819A810E94DC
:101320006F068091E8008B778093E80031C08038A9
:1013300079F58091E800877F8093E8008091200410
:101340008093F1008091E8008E778093E8000E94FE
:10135000E6061EC081111CC0909126049230C0F494
:101360008091E800877F8093E800909320040E949A
:10137000E60680912004811106C08091E30087FD7C
:1013800002C081E001C084E0809323040E94A7048E
:101390008091E80083FF0AC08091E800877F8093F6
:1013A000E8008091EB0080628093EB000F900F903B
:1013B000DF91CF911F910895089590930A03809330
:1013C00009030895E0910903F0910A03309721F091
:1013D0000190F081E02D099480E00895E0910903E7
:1013E000F0910A03309721F00280F381E02D0994F7
:1013F0000895E0910903F0910A03309721F00480E9
:10140000F581E02D09940895209107033091080398
:101410008217930771F09093080380930703E0917C
:101420000903F0910A03309721F00680F781E02D3F
:1014300009940895209105033091060382179307BC
:1014400071F09093060380930503E0910903F091F6
:101450000A03309721F00084F185E02D0994089566
:1014600008950C94300A0E944C170E94DA010E94E1
:101470005E190E9432270E9430250E94671F0E9439
:10148000CD230E94AD220C9489284F925F927F92C7
:101490008F929F92AF92BF92CF92DF92EF92FF9284
:1014A0000F931F93CF93DF9300D000D01F92CDB73F
:1014B000DEB70E9406029CE0C92E93E0D92E00E020
:1014C00010E0AA24A394B12C702E802F0E9409034F
:1014D0004C01F601419051906F0148265926411464
:1014E0005104B1F40F5F1F4F0530110569F78FEFFD
:1014F00089838A831B820E9455178160782F9D8380
:101500008C8349815A816B818D810E94020B41C07D
:1015100080916C0381FD0E94120320E030E0750190
:10152000022E02C0EE0CFF1C0A94E2F7C7018421D0
:101530009521892B41F129837A828E209F2091E089
:10154000892809F490E09B830E9455178160782FC9
:101550009D838C8349815A816B818D810E94020B0E
:1015600049815A816B817C818D810E946C03000FBF
:10157000111FF801E45FFC4F80819181E826F92674
:10158000F182E08206C02F5F3F4F2E30310539F6E1
:10159000A9CF0E94DB160E94951C10910B030E949C
:1015A000E2091817D1F00E94E20980930B030F9013
:1015B0000F900F900F900F90DF91CF911F910F918F
:1015C000FF90EF90DF90CF90BF90AF909F908F9063
:1015D0007F905F904F900C94BB250F900F900F90D1
:1015E0000F900F90DF91CF911F910F91FF90EF908F
:1015F000DF90CF90BF90AF909F908F907F905F9043
:101600004F900895CF93DF93CDB7DEB72B970FB6EA
:10161000F894DEBF0FBECDBF942F4F83252F588780
:1016200069877A878B874A855B85452B21F02F3F19
:1016300009F59F3FF9F4DE01119686E0FD01119254
:101640008A95E9F785E0FE01379601900D928A951B
:10165000E1F749815A816B817C818D819E810E9455
:1016600099122B960FB6F894DEBF0FBECDBFDF9157
:10167000CF9108954F81588569857A858B850E9421
:101680006C03D9CFCF93882309F4CDC0C82F8238FB
:1016900059F40E94E20981FDC6C089E30E94241525
:1016A0000E94B51689E30CC0833879F40E94E209E0
:1016B00080FDB9C083E50E9424150E94B51683E51C
:1016C0000E94E915CF910C94B516843859F40E9404
:1016D000E20982FDA8C087E40E9424150E94B51685
:1016E00087E4EECF8CEF8C0F813A48F48C2F0E9468
:1016F000CF1E811198C08C2F0E942415E3CF80E269
:101700008C0F883048F4C77081E001C0880FCA95FB
:10171000EAF70E948416D6CF8BE58C0F833078F4DD
:10172000C53A29F0C63A31F083E890E005C081E877
:1017300090E002C082E890E0CF910C94040A88E522
:101740008C0F853108F06FC0C83A61F1C93A69F170
:10175000CA3A71F1CB3A79F1CC3A81F1CD3A89F1BB
:10176000CE3A91F1CF3A99F1C13BA1F1C03BA9F139
:10177000C23BB1F1C33BB9F1C43BC1F1C53BC9F1B7
:10178000C63BD1F1C73BD9F1C83BE1F1C93BE9F117
:10179000CA3BF1F1CB3BF9F1CC3B09F43FC080E00F
:1017A00090E03EC082EE90E03BC089EE90E038C011
:1017B0008AEE90E035C085EB90E032C086EB90E099
:1017C0002FC083EB90E02CC084EB90E029C087EB26
:1017D00090E026C08CEC90E023C08DEC90E020C01F
:1017E00083E891E01DC08AE891E01AC082E991E0A7
:1017F00017C084E991E014C081E292E011C083E255
:1018000092E00EC084E292E00BC085E292E008C054
:1018100086E292E005C087E292E002C08AE292E0AE
:10182000CF910C941A0ACF910895882309F44BC0E4
:10183000823859F40E94E20981FF45C089E30E9481
:1018400024150E94B51689E30CC0833871F40E94F8
:10185000E20980FF38C083E50E9424150E94B51676
:1018600083E50E94E9150C94B516843859F40E945A
:10187000E20982FF28C087E40E9424150E94B51661
:1018800087E4EFCF9CEF980F913A58F390E2980FCE
:10189000983050F4877091E001C0990F8A95EAF76B
:1018A000892F0E948A16DFCF9BE5980F933020F492
:1018B00080E090E00C94040A885A853120F480E09E
:1018C00090E00C941A0A0895882321F00E9484164F
:1018D0000C94B5160895882321F00E948A160C9462
:1018E000B5160895CF92DF92EF92FF920F931F9358
:1018F000CF93DF93CDB7DEB727970FB6F894DEBF4F
:101900000FBECDBF25E0FC01DE01119601900D92C6
:101910002A95E1F7FC0140813181028125812295E0
:101920002F7063817481672B09F448C33F3F19F41A
:101930004F3F09F443C36C0149833A8389819A81FB
:101940002F830E94E314182F9E830E94E2140E94AA
:10195000F2139E81E92FE295EF70F0E0E05AFF4F1D
:101960002F810C94E929892F807F9F70F92E88237D
:1019700019F0F29490EFF922002349F0FF2009F4C6
:101980005FC28F2D0E9497160E94B51659C2812FF3
:101990000E94150CFF2009F411C38F2D0E949D1683
:1019A00027960FB6F894DEBF0FBECDBFDF91CF9163
:1019B0001F910F91FF90EF90DF90CF900C94B51690
:1019C000892F807F9F70F92E803219F0F29480EF7A
:1019D000F822112319F0113001F129C00023A9F0D8
:1019E0008F2D222349F1213039F527960FB6F8942F
:1019F000DEBF0FBECDBFDF91CF911F910F91FF9042
:101A0000EF90DF90CF900C94A716222319F021308D
:101A100009F4D4C20E94AA162CC00023E9F0263093
:101A200008F0CCC20E9481168F2129F022C0002329
:101A3000F1F0211115C08F2D27960FB6F894DEBF57
:101A40000FBECDBFDF91CF911F910F91FF90EF900F
:101A5000DF90CF900C94640C253008F0AFC209C021
:101A6000F601858180FFECC18F708583E4CF211161
:101A7000FBC18F2D69C1292F26952695237030E053
:101A80002115310521F021303105C1F097C2002325
:101A900019F0812F937002C080E090E027960FB676
:101AA000F894DEBF0FBECDBFDF91CF911F910F9194
:101AB000FF90EF90DF90CF900C94040A002319F070
:101AC000812F937002C080E090E027960FB6F894C3
:101AD000DEBF0FBECDBFDF91CF911F910F91FF9061
:101AE000EF90DF90CF900C941A0A812F002319F009
:101AF0000E949D1B02C00E94051C27960FB6F894F9
:101B0000DEBF0FBECDBFDF91CF911F910F91FF9030
:101B1000EF90DF90CF900C948A1C892F837009F08E
:101B200079C001114BC2812F829586958770880FED
:101B3000880F212F2F70C22ED12CE12CF12C082ED2
:101B400004C0CC0CDD1CEE1CFF1C0A94D2F714FF61
:101B500012C04FE050E060E070E004C0440F551F39
:101B6000661F771F8A95D2F78A019B010095109511
:101B70002095309503C000E010E098019695969569
:101B80009370492F50E0C901B80142305105D1F09E
:101B90004330510559F16C297D298E299F29413007
:101BA000510541F127960FB6F894DEBF0FBECDBFA9
:101BB000DF91CF911F910F91FF90EF90DF90CF9029
:101BC0000C9407146C297D298E299F2927960FB61E
:101BD000F894DEBF0FBECDBFDF91CF911F910F9163
:101BE000FF90EF90DF90CF900C9419140E9407148F
:101BF000C701B60127960FB6F894DEBF0FBECDBF62
:101C0000DF91CF911F910F91FF90EF90DF90CF90D8
:101C10000C94F513002319F0892F817001C086956B
:101C2000882309F4CBC1812F829586958770880F10
:101C3000880F212F2F70C22ED12CE12CF12C082ED1
:101C400004C0CC0CDD1CEE1CFF1C0A94D2F714FF60
:101C500012C04FE050E060E070E004C0440F551F38
:101C6000661F771F8A95D2F78A019B010095109510
:101C70002095309503C000E010E098019695969568
:101C80009370492F50E0C901B80142305105D1F09D
:101C90004330510559F16C297D298E299F29413006
:101CA000510541F127960FB6F894DEBF0FBECDBFA8
:101CB000DF91CF911F910F91FF90EF90DF90CF9028
:101CC0000C94BE146C297D298E299F2927960FB666
:101CD000F894DEBF0FBECDBFDF91CF911F910F9162
:101CE000FF90EF90DF90CF900C94D0140E94BE1420
:101CF000C701B60127960FB6F894DEBF0FBECDBF61
:101D0000DF91CF911F910F91FF90EF90DF90CF90D7
:101D10000C94AC14103F41F118F4103E48F48BC001
:101D2000123F09F450C0D8F1133F09F460C083C0DA
:101D30001F70892F8F71002321F00E944514812F7D
:101D40007BCE0E946614812F27960FB6F894DEBFD3
:101D50000FBECDBFDF91CF911F910F91FF90EF90FC
:101D6000DF90CF900C946B0C0023A9F0253008F085
:101D700025C1892F8F7127960FB6F894DEBF0FBE4D
:101D8000CDBFDF91CF911F910F91FF90EF90DF902A
:101D9000CF900C948B14263008F010C1EACF0023AA
:101DA000A1F0892F8F7127960FB6F894DEBF0FBE72
:101DB000CDBFDF91CF911F910F91FF90EF90DF90FA
:101DC000CF900C944514002361F3892F8F712796CF
:101DD0000FB6F894DEBF0FBECDBFDF91CF911F913C
:101DE0000F91FF90EF90DF90CF900C94661400233A
:101DF00091F0892F8F7127960FB6F894DEBF0FBE32
:101E0000CDBFDF91CF911F910F91FF90EF90DF90A9
:101E1000CF900C94301427960FB6F894DEBF0FBE07
:101E2000CDBFDF91CF911F910F91FF90EF90DF9089
:101E3000CF900C942B140023A1F0222309F4B1CFEE
:101E4000812F27960FB6F894DEBF0FBECDBFDF916E
:101E5000CF911F910F91FF90EF90DF90CF900C9456
:101E6000420B222309F4B1CF812F27960FB6F894A5
:101E7000DEBF0FBECDBFDF91CF911F910F91FF90BD
:101E8000EF90DF90CF900C94150C492F4F70612F7D
:101E9000C6010E94550127960FB6F894DEBF0FBE0B
:101EA000CDBFDF91CF911F910F91FF90EF90DF9009
:101EB000CF900C943D13011181C0112341F0892F63
:101EC0008F70843021F0907F212F2F70922B9F7084
:101ED000892F90E082309105E9F1ACF4009751F13F
:101EE000019709F06BC027960FB6F894DEBF0FBEBE
:101EF000CDBFDF91CF911F910F91FF90EF90DF90B9
:101F0000CF900C94F72383309105A1F1049709F049
:101F100055C0812F27960FB6F894DEBF0FBECDBFF8
:101F2000DF91CF911F910F91FF90EF90DF90CF90B5
:101F30000C94522427960FB6F894DEBF0FBECDBF87
:101F4000DF91CF911F910F91FF90EF90DF90CF9095
:101F50000C94DE2327960FB6F894DEBF0FBECDBFDC
:101F6000DF91CF911F910F91FF90EF90DF90CF9075
:101F70000C94102427960FB6F894DEBF0FBECDBF89
:101F8000DF91CF911F910F91FF90EF90DF90CF9055
:101F90000C942F24492F4F70612FC60127960FB63E
:101FA000F894DEBF0FBECDBFDF91CF911F910F918F
:101FB000FF90EF90DF90CF900C94610127960FB6C1
:101FC000F894DEBF0FBECDBFDF91CF911F910F916F
:101FD000FF90EF90DF90CF9008950E94A4160E948A
:101FE00073160E94B5160E943A1D0E948A1C80E05A
:101FF00090E00E94040A80E090E00C941A0A0E948B
:1020000094160C94ED0F0E94E314292F22952F7043
:1020100030E02C3031054CF42A3031056CF422507C
:1020200031092230310588F407C02C30310549F0E0
:102030002F30310531F009C0803E48F0803F29F44F
:1020400006C093FB882780F9089580E0089581E019
:102050000895CF93DF9300D000D01F92CDB7DEB7A5
:102060000F900F900F900F900F90DF91CF910895E8
:10207000CF93DF9300D000D000D0CDB7DEB7269647
:102080000FB6F894DEBF0FBECDBFDF91CF9108959C
:102090001F93CF93DF93C091160316E0809117032F
:1020A000C81799F0D0E01C9FF0011D9FF00D11247E
:1020B000E85EFC4F4081518162817381848195810A
:1020C0000E9438102196C770E9CFDF91CF911F9100
:1020D0000895409148035091490360914A037091DB
:1020E0004B0380914C0390914D030C9438108091D8
:1020F0004D0382958F7009F054C080914A03882364
:1021000009F44FC080911603A09117036091480312
:102110007091490340914B0350914C03B6E08A17EC
:1021200009F43FC090E041155105C1F17F3F11F422
:102130006F3FA1F1B89FF001B99FF00D1124E85E47
:10214000FC4F218172132AC02081621327C0228193
:10215000211124C0238134812417350710F4215024
:102160003109241B350B283C3105C0F420914D0367
:102170002F70206120934D0326E0289FF001299FB6
:10218000F00D1124E35EFC4F80818F7080618083AD
:1021900088E493E00E94720C0C94481001968770BA
:1021A000BECF0895CF92DF92EF92FF920F931F93CD
:1021B000CF93DF93CDB7DEB762970FB6F894DEBF4B
:1021C0000FBECDBF8C0185E0F801DE011D960190A8
:1021D0000D928A95E1F7D8014C9111965C91119777
:1021E00012966C9112971396CD90DC9014973091C3
:1021F00048037091490380914B0390914C030097E1
:1022000009F46BC17F3F19F43F3F09F466C1E090C8
:102210004A03EE2009F4C0C020914D03C816D90628
:1022200028F0F601E81BF90BCF0104C080959095CA
:102230008C0D9D1DFF24F394883C910578F0F12CC2
:10224000207F09F0C6C07C2DD98AC88A89890E945E
:10225000291088E493E00E94720CB1C0822F807F25
:1022600009F046C0751314C0341312C0611110C0B8
:102270002F70206120934D030E94691088E493E041
:102280000E94720C80914D03D80115968C932EC03C
:10229000CD2819F15F3F11F44F3FF9F0F62E61118F
:1022A0001CC0809116032091170336E0821709F4B1
:1022B0005AC090E0389FF001399FF00D1124E85E7C
:1022C000FC4F7181571306C07081471303C07281A0
:1022D000711103C001968770E9CFF62E662309F4C9
:1022E00018C180914D03816080934D03F12C11C181
:1022F000751308C0341306C0611104C080914D03EA
:10230000D801C3C04D875E878D859E856A8B0E94EC
:1023100003106A898823E1F16623D1F120914D03EE
:10232000822F82958F7090E0029774F0809148031D
:102330009091490398878F831986DB86CA862C87FC
:10234000CE0107960E94720C86E0F801A8E4B3E083
:1023500001900D928A95E1F70E9477100E94691012
:10236000FF24F394D6C04D875E878D859E850E949D
:10237000E314292F22952F7030E0223031050CF024
:10238000BCC09F7009F0B6C0805E883008F4C1C040
:10239000C8010E94720CE4CFC816D90608F453C0D5
:1023A000F601E81BF90BCF01883C910508F450C0F9
:1023B000F12C7C2DD98AC88A89890E942910E8E4E9
:1023C000F3E086E0DF011D928A95E9F70E9469102B
:1023D000A0C0751314C0341312C0611110C08091D5
:1023E0004D03F8018583C8010E94720C86E0E8E481
:1023F000F3E0DF011D928A95E9F7FE2C8AC04D8734
:102400005E878D859E856A8B0E9403106A8988236A
:1024100009F4BECF662309F4BBCF20914D03822F70
:1024200082958F7090E002970CF48ECF80914803D4
:10243000909149039A8389831B82DD82CC822E830B
:10244000CE0101967FCF809590958C0D9D1DACCFD0
:10245000F62E662309F49CCF75132EC034132CC0BE
:1024600020914D0320FD1FC0822F82958F70D9F0DF
:10247000D80115962C9315978F3049F08F5F982FC0
:102480009295907F822F8F70892B15968C93C8011F
:102490000E94720C86E0F801A8E4B3E001900D926E
:1024A0008A95E1F793CF86E0F801A8E4B3E00190C4
:1024B0000D928A95E1F72DC04D875E878D859E85AB
:1024C0000E940310811140CF80914D038160809361
:1024D0004D03C8010E94720C1CC0662309F458CF3A
:1024E0004D875E878D859E850E940310882309F4A1
:1024F0004FCF2ACF811148CF0CC0243031050CF0CA
:1025000047CF9F7009F440CFF8019581907F09F083
:102510003BCF8F2D62960FB6F894DEBF0FBECDBFB6
:10252000DF91CF911F910F91FF90EF90DF90CF90AF
:1025300008951F93CF93DF93CDB7DEB72C970FB6D7
:10254000F894DEBF0FBECDBF4F83588769877A8767
:102550008B879C87CE0107960E94D210882369F052
:102560008F8198852A853B85232BF1F19F3F09F0C8
:1025700063C08F3F09F060C037C086E0FE01379628
:10258000DE01119601900D928A95E1F76F817885B1
:10259000EA85FB85309741F17F3F11F46F3F21F1D0
:1025A0002091170330E0C901019687709927409167
:1025B000160350E08417950709F447C069837A83AE
:1025C000FD83EC8396E0929FD001939FB00D112480
:1025D000A85EBC4FFE01319601900D929A95E1F7ED
:1025E000809317030E94481016E080911603909183
:1025F00017038917C1F1189FC0011124885E9C4FF1
:102600000E94D210882379F1E09116031E9FF001F9
:102610001124E85EFC4F4081518162817381848185
:1026200095810E9438108091160390E00196877082
:10263000992780931603D9CF4F81588569857A856C
:102640008B859C850E943810CFCF0E94FF0F10927F
:10265000170310921603E8E4F3E086E0DF011D9211
:102660008A95E9F7C1CF2C960FB6F894DEBF0FBE5E
:10267000CDBFDF91CF911F910895DF92EF92FF922E
:102680000F931F93CF93DF93FC01892B09F48AC02A
:10269000E12CF12CDD24D394EF0121968491853730
:1026A00009F461C058F4843708F04EC0843008F053
:1026B0006AC08130D1F0823071F174C0883709F47A
:1026C0005DC050F4863709F455C0873709F06AC0F9
:1026D0008E2D0E94911654C09CE7980F903708F0F9
:1026E00061C08F770E94150C50C08F010E5F1F4F85
:1026F000FE01849190E2980F983050F48770FD2D80
:1027000001C0FF0F8A95EAF78F2F0E94971614C019
:102710000E94420B13C08F010E5F1F4FFE01C49138
:1027200080E28C0F883060F4C7708D2D01C0880F57
:10273000CA95EAF70E949D160E94B516E80125C0C9
:102740008C2F0E94150CFACF9F012E5F3F4FFE0188
:10275000C491CC2369F08FE99FE00197F1F700C0A5
:102760000000C150F6CF9F012E5F3F4FFE01F49055
:10277000E9010BC00E948116E82E07C00E94941642
:102780000E94B51602C00E94420B8F2D882341F093
:10279000EFE9FFE03197F1F700C000008150F6CF7C
:1027A000FE017ACFDF91CF911F910F91FF90EF90B3
:1027B000DF90089560935203709353038093540302
:1027C000909355030E9411260C94ED0F60934E03D5
:1027D00070934F0380935003909351030E9470268F
:1027E0000C94ED0F08950C94DA130F931F9300913E
:1027F0005203109153032091540330915503602BE1
:10280000712B822B932B1F910F910C94DA130F9342
:102810001F93009152031091530320915403309160
:10282000550360237123822393231F910F910C94EE
:10283000DA130F931F9300915203109153032091C9
:1028400054033091550360277127822793271F91E6
:102850000F910C94DA1360E070E0CB010C94E61356
:102860000F931F9341E050E060E070E08A019B010C
:1028700004C0000F111F221F331F8A95D2F7C90110
:10288000B8011F910F910C94E6130F931F9341E031
:1028900050E060E070E004C0440F551F661F771FD2
:1028A0008A95D2F780914E0390914F03A0915003E7
:1028B000B09151038A019B01082B192B2A2B3B2B2A
:1028C000C901B8011F910F910C94E6130F931F9348
:1028D00041E050E060E070E004C0440F551F661F07
:1028E000771F8A95D2F740955095609570958091A5
:1028F0004E0390914F03A0915003B09151038A0170
:102900009B01082319232A233B23C901B8011F91E6
:102910000F910C94E6130F931F9341E050E060E099
:1029200070E004C0440F551F661F771F8A95D2F7C9
:1029300080914E0390914F03A0915003B0915103A9
:102940008A019B01082719272A273B27C901B801BB
:102950001F910F910C94E6130F931F9300914E0358
:1029600010914F032091500330915103602B712B34
:10297000822B932B1F910F910C94E6130F931F93AF
:1029800000914E0310914F03209150033091510359
:1029900060237123822393231F910F910C94E613DC
:1029A0000F931F9300914E0310914F0320915003FA
:1029B0003091510360277127822793271F910F9130
:1029C0000C94E6130895CF92DF92EF92FF920F934B
:1029D0001F93CF93DF938C01C0905203D090530389
:1029E000E0905403F090550340914E0350914F03F3
:1029F0006091500370915103C42AD52AE62AF72A20
:102A0000CFE1D0E0D701C6010C2E04C0B695A79542
:102A1000979587950A94D2F780FF07C0B8018C2F4D
:102A20000E9491188130910531F4219758F7B8012F
:102A300080E00E949118DF91CF911F910F91FF903C
:102A4000EF90DF90CF900895CF92DF92EF92FF92B8
:102A50000F931F93CF93DF93C82F80910B0188238F
:102A6000E1F080910C018823C1F08C2F869586952A
:102A700086958F3008F0A4C0E0910D01F0910E0111
:102A8000E80FF11DC77081E090E001C0880FCA9582
:102A9000EAF79181892B818393C0D09069033091AB
:102AA0006703E0910D01F0910E01332309F473C027
:102AB000409168038D2D2FEF96E0E92EF12C082F21
:102AC000082E000C110BBF01600F711FDB01129665
:102AD0009C919C1709F474C02F3F19F4911101C007
:102AE000282FC801019606E010E0B7010E94D52901
:102AF0008413E5CFD22F4D114EC02F3F69F4842FA0
:102B0000440F990B0196B8010E94D529809369035F
:102B10003150309367033FC0822F220F990B0196EB
:102B2000B8010E94D529282FFF24F39406E010E075
:102B3000022E000C330B6F01C20ED31ED60112966B
:102B40005C91552391F08D2FDD0F990BBF01680F1C
:102B5000791FDB0112965C93D60112961C920196A6
:102B6000B8010E94D529D82F01C0F394C90101965C
:102B7000B8010E94D529282F8413DACF242F440FBF
:102B8000330B2F193109C901069666E070E00E94E7
:102B9000D5298093680320916803022E000C330B23
:102BA000E20FF31FC283C901019666E070E00E9444
:102BB000D52980936803809167038F5F80936703B3
:102BC000DF91CF911F910F91FF90EF90DF90CF9009
:102BD0000895EF92FF920F931F93CF93C82F809188
:102BE0000B018823E9F080910C018823C9F08C2F18
:102BF0008695869586958F3008F06FC0E0910D011F
:102C0000F0910E01E80FF11DC77081E090E001C066
:102C1000880FCA95EAF780959181892381835DC0E9
:102C20002091690340916703442309F456C0E09161
:102C30000D01F0910E0100916803002E000C110BA4
:102C400086E0E82EF12C30E0DF01A20FB31FCD01AA
:102C5000029612965C915C1336C0DC011C924150C6
:102C600040936703411104C01092690310926803F6
:102C700040916803842F042E000C990B059666E0A2
:102C800070E00E94D5292817390739F5C0916903EA
:102C900006E010E0842F440F990B0596B8010E94BE
:102CA000D5299C01482F0596B8010E94D529DF013E
:102CB000A80FB91F12968C91811102C02C13EACF74
:102CC000209368030AC0C9010196B7010E94D52963
:102CD000282F8017910709F0B6CFCF911F910F9140
:102CE000FF90EF90089581E090E0E0910D01F09168
:102CF0000E01E80FF91F1082019680319105A9F7A6
:102D0000089580916B03089590916B03892B8093B4
:102D10006B030895809590916B03892380936B03D7
:102D2000089580936B03089510926B03089590911A
:102D30006A03892B80936A030895809590916A03B2
:102D4000892380936A03089510926A0308958093FB
:102D50005603089510925603089580910C01811135
:102D600003C08091670308950895E0910D01F091EB
:102D70000E0180916B038083E0910D01F0910E01B3
:102D8000908180916A03892B8083809156038823E8
:102D900061F0E0910D01F0910E019081892B80830B
:102DA0000E94AD1681111092560380910D019091F1
:102DB0000E010C94EE090895089580912304843047
:102DC00031F110926D0320E488E190E00FB6F894A1
:102DD000A895809360000FBE209360000E94841F1E
:102DE00083B7817F846083BF83B7816083BF78941A
:102DF000889583B78E7F83BF0FB6F894A89580918E
:102E00006000886180936000109260000FBE08959A
:102E100008950895CF930E9408170E9406020E9409
:102E20000917C0E08C2F0E940903892B29F4CF5F7A
:102E3000C530C1F780E001C081E0CF9108950E94C4
:102E4000FF0F0C94CD231F920F920FB60F921124F7
:102E50008F939F93AF93BF9380916D03811113C0A4
:102E600080916E0390916F03A0917003B0917103F4
:102E70004196A11DB11D80936E0390936F03A093A3
:102E80007003B0937103BF91AF919F918F910F9099
:102E90000FBE0F901F90189582E084BD93E095BD02
:102EA0009AEF97BD80936E0008952FB7F8948091A4
:102EB0006E0390916F03A0917003B09171032FBFC7
:102EC0000895CF92DF92EF92FF920F931F932FB747
:102ED000F89440916E0350916F036091700370916C
:102EE00071032FBF6A017B01EE24FF248C0120E0D7
:102EF00030E0C016D106E206F30610F44150510945
:102F00009A01281B390BC9011F910F91FF90EF9077
:102F1000DF90CF9008951F920F920FB60F92112459
:102F20008F939F93AF93BF9380916E0390916F03A4
:102F3000A0917003B09171030196A11DB11D809302
:102F40006E0390936F03A0937003B0937103BF91CE
:102F5000AF919F918F910F900FBE0F901F9018957A
:102F60000E943707F8942FEF87EA91E621508040BE
:102F70009040E1F700C0000087E090EBDC01809317
:102F80002E0490932F04A0933004B09331049CE05E
:102F900088E10FB6F894A895809360000FBE9093D7
:102FA0006000FFCF8D3B50F4883A70F5853A18F5F4
:102FB0008430F8F4813009F46CC068C0883E98F41D
:102FC000803EB8F48F3B09F061C00E94FF0F2FEFE5
:102FD00080E792E0215080409040E1F700C000007F
:102FE0000E94B01753C0803F08F450C090E0906535
:102FF000089590E00895853A09F44EC0863A09F4A0
:103000004EC083E890E40895883A09F44BC0893AA9
:1030100009F44BC08A3A09F44BC08B3A09F44BC00F
:103020008C3A09F44BC08D3A09F44BC08E3A09F43E
:103030004BC08F3A09F44BC0813B09F44BC0803B35
:1030400009F44BC0823B09F44BC0833B09F44BC0ED
:10305000843B09F44BC0853B09F44BC0863B09F423
:103060004BC0873B09F44BC0883B09F44BC0893BFC
:1030700009F44BC08A3B09F44BC08B3B09F44BC0AD
:103080008C3B09F44BC080E094E4089580E090E02C
:10309000089581E090E0089581E890E4089582E841
:1030A00090E4089582EE94E4089589EE94E40895FE
:1030B0008AEE94E4089585EB94E4089586EB94E415
:1030C000089583EB94E4089584EB94E4089587EBEA
:1030D00094E408958CEC94E408958DEC94E40895C0
:1030E00083E895E408958AE895E4089582E995E4F3
:1030F000089584E995E4089581E296E4089583E2D1
:1031000096E4089584E296E4089585E296E40895AD
:1031100086E296E4089587E296E408958AE296E4CA
:1031200008950E94C101803EA8F4803C00F58133DF
:1031300009F45CC038F4893209F452C08A3209F4C7
:103140005BC05FC08933B1F08238A1F0853309F4E8
:1031500041C057C0833E41F128F4803E99F0823E41
:10316000B9F04FC0863E31F1873E71F14AC00E94EE
:10317000C501089590912C0490FD02C091FF41C0BB
:1031800080EE3FC080912C0480FFFACF89E339C0E4
:1031900080912C0482FF0CC080912C0484FF02C01B
:1031A00080E02FC083EE2DC080912C0482FFF4CFED
:1031B00082EE27C080912C0483FF0AC080912C04EA
:1031C00084FDEECF87EE1DC080912C0483FFF6CFE7
:1031D00086EE17C080912C0485FF06C089E211C0DD
:1031E00080912C0485FFFACF85E30BC080912C04DD
:1031F00086FF06C08AE205C080912C0486FFFACFC4
:1032000081E30E94D2170895AF92BF92CF92DF92CE
:10321000EF92FF920F931F93CF937C01C0E0CC24D9
:10322000C394D12C8C2F0E9409035C0100E010E0B4
:10323000C601002E02C0880F991F0A94E2F78A2166
:103240009B21892BB1F0602F7C2F80E00E94911888
:103250009C018E159F0559F0832F807E932F907CC3
:1032600011F0803A31F430E02E153F0511F481E081
:1032700009C00F5F1F4F0E301105D1F6CF5FC5306B
:1032800089F680E0CF911F910F91FF90EF90DF9032
:10329000CF90BF90AF900895CF93DF93EC018CE275
:1032A00090E00E940419882329F0CE01DF91CF918C
:1032B0000C94041980E0DF91CF910895CF930E9480
:1032C000DA1A811102C00E94AB1AC5E6C15049F05A
:1032D0000E9406028FE39CE90197F1F700C000000D
:1032E000F5CF89E290E00E944C19811132C18AE247
:1032F00090E00E944C19882341F00E94D41A0E9449
:10330000AB1A0E940F280E946D2785E090E00E9472
:103310004C1981110E94B0170E94DC160E94E51A18
:1033200080936C0387E090E00E944C198823C1F1E0
:103330008BE190E00E944C19882351F080916C033E
:1033400081FB222720F991E0922790FB81F90FC0A1
:103350008EE090E00E944C19882361F080916C030C
:1033600082FB222720F991E0922790FB82F980933B
:103370006C0316C080E190E00E944C1990916C03A0
:10338000882341F093FB222720F981E0822780FBEC
:1033900093F904C0892F809580FB90F990936C037A
:1033A00080916C030E94E91A0E94F71A80932C0402
:1033B00080EE90E00E944C19882341F080912C040B
:1033C000982F909590FB80F980932C0489E390E0EE
:1033D0000E944C19882359F080912C0481FB2227EC
:1033E00020F991E0922790FB81F980932C0482EEE2
:1033F00090E00E944C19882359F080912C0482FBA4
:10340000222720F991E0922790FB82F980932C04E7
:1034100086EE90E00E944C19882359F080912C048C
:1034200083FB222720F991E0922790FB83F9809378
:103430002C0483EE90E00E944C19882359F080916F
:103440002C0484FB222720F991E0922790FB84F939
:1034500080932C0485E390E00E944C19882359F056
:1034600080912C0485FB222720F991E0922790FB84
:1034700085F980932C0481E390E00E944C19882305
:1034800059F080912C0486FB222720F991E09227A5
:1034900090FB86F980932C0481E190E00E944C1906
:1034A000882359F080912C0487FB222720F991E092
:1034B000922790FB87F980932C0480912C040E9422
:1034C000FB1A80912C0487FB882780F980930C01DC
:1034D00087E290E00E944C19C82F8EE190E00E9494
:1034E0004C198111C2608FE190E00E944C1981114A
:1034F000C46080E290E00E944C198111C86081E2B2
:1035000090E00E944C198111C06182E290E00E941B
:103510004C198111C06283E290E00E944C19811124
:10352000C06484E290E00E944C19882311F0C068C6
:1035300002C0CC2329F08C2F0E94F21A6C2F03C0FA
:103540000E94EE1A682F70E080E090E0CF910C941A
:10355000F313CF9108956DEE7EEF80E090E00E942E
:103560000B2A60E082E090E00E94FD2960E083E0A9
:1035700090E00E94FD2960E084E090E00E94FD2937
:1035800060E085E090E00E94FD2960E086E090E048
:103590000E94FD2960E087E090E00E94FD2960E044
:1035A00088E090E00C94FD296FEF7FEF80E090E0E1
:1035B0000C940B2A80E090E00E94F72921E08D3ED8
:1035C0009E4F09F020E0822F089582E090E00C9455
:1035D000EF29682F82E090E00C94FD2983E090E0D1
:1035E0000C94EF29682F83E090E00C94FD2984E08F
:1035F00090E00C94EF29682F84E090E00C94FD2972
:1036000086E090E00C94EF29682F86E090E00C941F
:10361000FD2987E090E00C94EF29682F87E090E087
:103620000C94FD2988E090E00C94EF29682F88E045
:1036300090E00C94FD298091740380FF0BC0609191
:10364000120185E0689FB001112475956795759505
:1036500067952BC081FF09C06091120185E0689FCA
:10366000B00111247595679520C082FF07C0609155
:10367000120185E0689FB001112417C09091750375
:103680009923D1F060911101961788F720911201CA
:1036900085E0289F90011124929FA001939F500DD7
:1036A000112470E0CA010E94D5296038710540F4E8
:1036B0006115710539F002C065E070E0862F08954C
:1036C0008FE7089581E008958091740380FF08C01A
:1036D0006091100170E0759567957595679521C0AB
:1036E00081FF06C06091100170E07595679519C063
:1036F00082FF04C06091100170E010C090917503CA
:103700009923C1F060910F019617A0F780911001E5
:10371000899FC001112470E00E94D529603871058D
:1037200028F46115710521F0862F08958FE708951B
:1037300081E0089561E070E0F4CF803F21F40E94C1
:103740001B1B819504C0813F29F40E941B1B8093A1
:1037500078030895823F21F40E941B1B819504C0C9
:10376000833F29F40E941B1B809377030895893FB0
:1037700019F40E94641B05C08A3F31F40E94641B47
:1037800081958093790308958B3F21F40E94641BF7
:10379000819504C08C3F29F40E94641B80937A03B6
:1037A0000895843F21F480917603816017C0853F9E
:1037B00021F480917603826011C0863F21F48091CC
:1037C000760384600BC0873F21F480917603886084
:1037D00005C0883F31F48091760380618093760341
:1037E00008958D3F21F48091740381600BC08E3F5A
:1037F00021F480917403826005C08F3F29F4809189
:1038000074038460809374030895803F39F4809139
:10381000780387FF6CC01092780369C0813F29F458
:10382000809178031816BCF362C090917703823FB1
:1038300029F497FF5CC01092770359C0833F19F4B5
:103840001916CCF354C0893F41F4809179031816BE
:103850000CF04DC0109279034AC08A3F29F4809140
:10386000790387FF44C0F6CF8B3F39F480917A0308
:1038700087FF3DC010927A033AC08C3F29F48091B3
:103880007A031816BCF333C0843F21F48091760389
:103890008E7F17C0853F21F4809176038D7F11C004
:1038A000863F21F4809176038B7F0BC0873F21F404
:1038B00080917603877F05C0883F31F4809176033D
:1038C0008F7E8093760313C08D3F21F48091740323
:1038D0008E7F0BC08E3F21F4809174038D7F05C0D5
:1038E0008F3F29F4809174038B7F809374038091C0
:1038F000770381110EC08091780381110AC08091F5
:103900007903811106C080917A03811102C010925F
:103910007503089586E793E00E94F9090E94551700
:10392000909373038093720308951F93CF93DF9353
:1039300080917203909173030E946117AC01909182
:103940007503992321F02091130130E006C02091E6
:1039500014018AE0289F900111244217530708F4AC
:1039600085C080917703C0917803D091790310913D
:103970007A03811107C0C11175C0D11173C0111133
:1039800071C074C09F3F19F09F5F90937503181624
:1039900024F40E941B1B809377038091770387FF99
:1039A00005C00E941B1B8195809377031C1624F48D
:1039B0000E941B1B809378038091780387FF05C0CA
:1039C0000E941B1B81958093780360917703662387
:1039D00031F1C0917803CC2311F1062E000C770B46
:1039E000880B990B0E94C82823E333E343E35FE38A
:1039F0000E942C290E949028609377036C2FCC0F93
:103A0000770B880B990B0E94C82823E333E343E329
:103A10005FE30E942C290E949028609378031D1672
:103A200024F40E94641B809379038091790387FFBB
:103A300005C00E94641B819580937903111624F4BC
:103A40000E94641B80937A0380917A0387FF05C0EC
:103A50000E94641B819580937A03DF91CF911F911F
:103A60000C948A1C9F3F09F08FCF97CFDF91CF91A5
:103A70001F910895E6E7F3E085E0DF011D928A9546
:103A8000E9F710927503109274030895833081F161
:103A900028F4813059F08230D1F00895853009F44E
:103AA00049C0B8F1863009F456C0089580911401D8
:103AB000262F30E0280F311D2F3F310524F4680FE9
:103AC0006093140108958FEF8093140108958091FD
:103AD0001301262F30E0280F311D2F3F310524F42C
:103AE000680F6093130108958FEF80931301089579
:103AF00080911201262F30E0280F311D2F3F310514
:103B000024F4680F6093120108958FEF80931201DF
:103B1000089580911101262F30E0280F311D2F3F8D
:103B2000310524F4680F6093110108958FEF80939D
:103B30001101089580911001262F30E0280F311DCA
:103B40002F3F310524F4680F6093100108958FEF23
:103B500080931001089580910F01262F30E0280FE7
:103B6000311D2F3F310524F4680F60930F01089534
:103B70008FEF80930F010895833011F128F4813085
:103B800049F0823091F00895853081F120F186303E
:103B9000C1F1089580911401681720F4861B809369
:103BA000140108951092140108958091130168176B
:103BB00020F4861B80931301089510921301089539
:103BC00080911201681720F4861B809312010895DA
:103BD00010921201089580911101681720F4861B3C
:103BE00080931101089510921101089580911001A0
:103BF000681720F4861B809310010895109210011D
:103C0000089580910F01681720F4861B80930F019F
:103C1000089510920F0108950F931F938B3109F4AB
:103C200075C0A0F58E3009F484C0C0F4873009F463
:103C300062C068F4863009F0AAC080916C03817F6D
:103C40008E7F80936C0381E080937C03A1C08830D9
:103C500009F44AC08B3009F498C099C0813109F445
:103C600072C068F4803109F092C080916C0383FBCC
:103C7000222720F991E0922790FB83F950C08631EA
:103C800009F483C0893109F480C081C0853309F407
:103C900063C068F4873209F45FC028F48E3108F4F9
:103CA00076C08D515FC0893209F456C070C083342C
:103CB00038F48A3308F055C0883309F466C067C009
:103CC000833409F449C0883409F061C00E94FF0FB1
:103CD0000FEF13ED20E3015010402040E1F700C04A
:103CE00000000E94B01751C00E94E51A0E94F71A06
:103CF0000E94001B4AC090916C03892F817090FF35
:103D000012C0917F9E7F90936C0342C080916C03A0
:103D100081FB222720F991E0922790FB81F9809383
:103D20006C03992391F180916C03816080936C0303
:103D30002CC080916C0382FB222720F991E092270E
:103D400090FB82F9ECCF0E94FF0F90910C0181E073
:103D5000892780930C0119C061E070E080E090E059
:103D600010C0895341E050E060E070E08A019B019F
:103D700004C0000F111F221F331F8A95D2F7C901FB
:103D8000B8010E94F3130E94FF0F81E001C080E0A0
:103D90001F910F91089580E0089580E00895CF93DA
:103DA000C82F80917C03813069F018F08230C9F10E
:103DB00084C0E0910D01F0910E018081823209F002
:103DC0007EC007C0E0910D01F0910E01808182322A
:103DD00061F48C2F0E94CB1E811104C08C2F0E9495
:103DE0000C1E1DC081E090E01AC08C2F0E94CD1ED9
:103DF000811114C0C43179F048F4CB3079F0C0316E
:103E000009F061C082E080937C0308C0C93219F0D8
:103E1000C83321F058C010927C0355C081E08170F6
:103E200054C0C93291F120F5C43179F1B0F4C730F2
:103E300009F047C08EE18093140182E3809313015F
:103E40008AE08093120184E18093110188E08093DD
:103E5000100188E280930F0134C0CE51C63088F53E
:103E6000EC2FF0E0ED52FD4F808180937B0329C061
:103E7000CE34E9F020F4CB3421F56AE013C0C1352B
:103E800079F0C235F1F461E00DC080917B038823A5
:103E900019F010927B0315C081E080937C0315C05C
:103EA00061E006C080917B030E94461D0AC06AE063
:103EB00080917B030E94BC1D04C010927C0380E0B3
:103EC00004C081E002C080E0AACFCF910895E1E86C
:103ED000F0E08081886080838081816080838FB7FB
:103EE000F89493E09093890090ED909388008FBFB1
:103EF0000C94CF26EFE6F0E080818260808381E041
:103F000080939D030C94EA26CF9380916F008D7F60
:103F100080936F0010929D03C0E08C2F0E94DD26DD
:103F2000CF5FC530D1F780919D03CF910C94EA26E5
:103F300080919C038F6180939C030895CF9310928E
:103F40009C03C0E08C2F0E94DD26CF5FC530D1F7E7
:103F500080919D03CF910C94EA26E82FF0E0EE5675
:103F6000FC4F60830895E82FF0E0EE56FC4F20816F
:103F7000422F50E08FEF90E0861B91098417950740
:103F80001CF48FEF80830895620F60830895CF93B0
:103F9000DF93D82FC0E06D2F8C2F0E94B31FCF5F0F
:103FA000C530C9F7DF91CF910895E82FF0E0EE56C4
:103FB000FC4F8081861710F410820895861B808341
:103FC0000895CF93DF93D82FC0E06D2F8C2F0E94E0
:103FD000D51FCF5FC530C9F7DF91CF91089580918C
:103FE00091038F6180939103089510929103089536
:103FF0004091900321E030E0662341F001C0220FA0
:104000008A95EAF7242B209390030895B90102C002
:10401000660F771F8A95E2F7CB0180958423809302
:1040200090030895CF93DF93D82FC0E06D2F8C2F8E
:104030000E94F81FCF5FC530C9F7DF91CF91089577
:1040400080938F030895EAE8F3E08083818382837D
:10405000838384830895809189038F61809389038A
:10406000089510928903109288030895809387031E
:1040700008951F920F920FB60F921124EF92FF92A4
:104080000F931F932F933F934F935F936F937F9360
:104090008F939F93AF93BF93CF93DF93EF93FF9350
:1040A000809180038F5F8093800307E913E0C0E075
:1040B000D0E0FC2E20919C0330E00C2E02C03695FF
:1040C00027950A94E2F720FF1AC08091800381119E
:1040D0000DC0F8018081882319F08C2F0E94D02612
:1040E000FE01EE56FC4F8081F801808390918003A1
:1040F000F8018081981303C08F2D0E94DD26219640
:104100000F5F1F4FC530D105A1F680917F038F5FF0
:10411000803418F480937F03B7C010927F03E0903F
:104120009103EE20E9F180917E038F5F80937E03FF
:1041300090918F039817A0F510927E030AE813E080
:10414000C0E0D0E0F12CC7010C2E02C096958795F7
:104150000A94E2F780FF1AC0F8018081882319F0E1
:104160008150808313C08091900390E00C2E02C098
:10417000969587950A94E2F761E080FF04C08C2F42
:104180000E94D51F03C08C2F0E94B31F21960F5F82
:104190001F4FC530D105B9F687E993E00E94A3030C
:1041A00090918903992309F46BC080917D038F5FFF
:1041B00080937D0320918703281708F061C0109237
:1041C0007D034091810350918803A2E8B3E020E091
:1041D00030E0C1E0D0E0692F70E0022E02C0769599
:1041E00067950A94E2F760FF3AC08C91E82FF0E0FF
:1041F000E557FE4F0491B9016E567C4FFB010083D9
:10420000642F70E0022E02C0769567950A94E2F75B
:1042100060FF19C0811115C0BE01022E01C0660FDA
:104220000A94EAF760954623E52FF0E0022E02C0DB
:10423000F695E7950A94E2F7E0FF11C0962356231E
:104240000EC081500BC08F3741F4BE01022E01C059
:10425000660F0A94EAF7462B02C08F5F8C932F5F9C
:104260003F4F11962530310509F0B5CF9093890362
:10427000409381035093880387E993E00E94A80349
:104280000E94A2030E94A123FF91EF91DF91CF91A1
:10429000BF91AF919F918F917F916F915F914F915E
:1042A0003F912F911F910F91FF90EF900F900FBEB4
:1042B0000F901F90189525B1242B35B1542F509590
:1042C000352354B1452B44B94FB7F894FC01CB01C9
:1042D000880F991F680F791F6E0F7F1FE617F7076A
:1042E00089F0819198E025B9000000C087FF35B9B9
:1042F000880F000000C000C000C035B900C09A950A
:1043000091F7ECCF4FBF089521B3242B31B3542F35
:104310005095352350B3452B40BB4FB7F894FC0163
:10432000CB01880F991F680F791F6E0F7F1FE6174B
:10433000F70789F0819198E021BB000000C087FF5A
:1043400031BB880F000000C000C000C031BB00C0FE
:104350009A9591F7ECCF4FBF0895EF92FF920F938C
:104360001F93CF93DF9300D000D01F92CDB7DEB75D
:10437000F90170E0869F9001879F300D1124232F53
:104380003327042F10E0209FD001219FB00D309FD4
:10439000B00D112420E031E07901E61AF70AE09E21
:1043A0009001E19E300DF09E300D11243C83398345
:1043B000832F8B0F8D838A834B1B4B83892F90E038
:1043C00063E070E00E94C129DE01A80FB91F1396B7
:1043D0002C912183DE01A80FB91F12962C91208306
:1043E000DE01A80FB91F11968C9182830F900F9058
:1043F0000F900F900F90DF91CF911F910F91FF9031
:10440000EF900895DF92EF92FF920F931F93CF9357
:10441000DF9300D01F92CDB7DEB78091A103882330
:1044200009F445C0D12CE12C43E0F42E6091150134
:10443000D61660F50D2D10E070E0C7010E94D52959
:10444000609FF001619FF00D709FF00D112480912D
:10445000A2039091A3039E012F5F3F4F4091A503BC
:104460006091A4038E0F9F1F0E94AD21F801EE0FF3
:10447000FF1F0E0F1F1FF801EA55FC4F89819A811B
:10448000AB8180839183A283D394D0CF60911501B7
:1044900086EA93E00E94EF260F900F900F90DF9135
:1044A000CF911F910F91FF90EF90DF9008959E01A3
:1044B0002F5F3F4F4091A5036091A4038091A20319
:1044C0009091A3030E94AD2120E08091150128174F
:1044D000E8F6822F90E0FC01EE0FFF1F8E0F9F1F6A
:1044E000FC01EA55FC4F89819A81AB8180839183DD
:1044F000A2832F5FEACF811103C01092A50306C0EB
:10450000909116019093A5038830D8F41092080476
:104510001092A103882399F0873019F41092A40314
:104520000EC090E001979695982F882797958795CC
:104530009093A3038093A2038FEF8093A4030C9422
:1045400002229FEF9093A40391E090930804893096
:1045500008F490E09093A1030895CF931092A303E1
:104560001092A2038FEF8093A403CFE0C093A50322
:104570000E94091B809306040E94121B8F3018F0C2
:104580008093160102C0C09316018091060487FF34
:1045900007C08F770E947B22809106048F7704C02A
:1045A00080E00E947B2280E00E947B2281E0809359
:1045B0000704CF91089580910604806880930604D3
:1045C000982F9F7721F480788160809306048091F2
:1045D00006048F770E947B22809106040C940D1BA9
:1045E000809106048F778093060480E00E947B22EE
:1045F000809106040C940D1B8091060487FD0C9499
:10460000F0220C94DB2280910604982F9F7791F082
:1046100091589F778078892B809306048F7791E05B
:1046200009F490E08091060490FB87F980930604DA
:104630000E940D1B809106048F770C947B22809141
:104640000604982F9F77292F30E0293031054CF44C
:104650009F5F9F778078892B8068809306040E94F3
:104660000D1B809106048F770C947B229091060499
:1046700081E0890F8F7790788A3020F4892B80939E
:10468000060402C090930604809106048F7791E09F
:1046900009F490E08091060490FB87F9809306046A
:1046A0000E940D1B809106048F770C947B2281322F
:1046B00008F080E28093150180910704882329F097
:1046C0008091060487FD0C940222089590910704BE
:1046D0009923A9F08F3008F48FE0809316016623A8
:1046E00021F0809116010E94161B8091060487FF1D
:1046F00006C0809116018093A5030C9402220895B0
:1047000090911601292F30E02E503109482F50E0AA
:10471000421753071CF4981B892F01C08FE00C949B
:10472000662390911601492F50E02FEF30E0281BAF
:1047300031092417350714F0890F01C08FEF0C944D
:10474000662380910804882339F18091A0038F5F4C
:104750008093A003909108049817F0F41092A0039E
:1047600080919E0390919F039093A3038093A20353
:104770000E94022280919E0390919F0301968115D1
:1047800023E0920728F490939F0380939E0308955B
:1047900010929F0310929E0308950E94DA1A8111CD
:1047A00002C00E94AB1A0E94001B80932D0480FF60
:1047B00002C0869501C080E00C94130380912D0403
:1047C00080FF14C0982F9695292F30E028303105AE
:1047D00044F49F5F990F8170892B80932D040E9470
:1047E000041B80912D0486950C94130308958091E9
:1047F0002D0480FF14C0982F9695292F30E0223089
:10480000310544F09158990F8170892B80932D04C4
:104810000E94041B80912D0486950C941303089527
:1048200080912D04982F9095917090FB80F9809342
:104830002D04992339F0982F9E7F21F48170826096
:1048400080932D0480912D040E94041B80912D04DF
:1048500080FF02C0869501C080E00C941303909104
:104860002D04892F86958F5F8F779170893028F47A
:10487000880F892B80932D0402C090932D04809182
:104880002D048E7F91E009F490E080912D0490FB3F
:1048900080F980932D040E94041B80912D0486953D
:1048A0000C941303880F90912D049170892B8093A1
:1048B0002D048E7F91E009F490E080912D0490FB0F
:1048C00080F980932D040E94041B80912D0486950D
:1048D0000C941303823079F028F4882341F081305E
:1048E00041F00895833049F0843049F008952A9AC0
:1048F00008958F9A08958E9A08958D9A08958C9AA6
:104900000895823079F028F4882341F0813041F015
:104910000895833049F0843049F008952A98089525
:104920008F9808958E9808958D9808958C9808957D
:1049300020910E0430E0082E02C0369527950A9487
:10494000E2F720FD0C946A240C94812420910E043B
:1049500030E0082E02C0369527950A94E2F720FD34
:104960000C9481240C946A24CF93DF93229A879A23
:10497000869A859A849AC0E0D0E080910F0490E0F6
:104980000C2E02C0969587950A94E2F780FD03C02D
:104990008C2F0E94A6242196C530D10571F7DF9196
:1049A000CF910895EF92FF920F931F93CF93DF93D0
:1049B000009115040827611102C009F44AC0C0E043
:1049C000D0E0E62EF82E10E08C2F9C2F20910F04C3
:1049D00030E00C2E02C0369527950A94E2F720FDB0
:1049E00031C020919C0330E00C2E02C036952795F3
:1049F0000A94E2F720FF0BC02091110430E00C2E46
:104A000002C0369527950A94E2F720FD1BC0E110FD
:104A100009C09801092E02C0369527950A94E2F73D
:104A200020FF10C0209110042F2530E002C03695E1
:104A300027959A95E2F720FF03C00E94982402C0B0
:104A40000E94A6242196C530D10509F0BDCFF09271
:104A50001504DF91CF911F910F91FF90EF90089572
:104A6000FF920F931F93CF93DF93C0E0D0E0F12C20
:104A700001E010E08C2F0E94832797FF14C09091D3
:104A80000F0498010C2E01C0220F0A94EAF7292B7B
:104A900020930F04FE01E75FFB4F8083F81608F0B8
:104AA00057C0F82E55C096FF0BC080910E04980198
:104AB0000C2E01C0220F0A94EAF7282B20930E0433
:104AC00094FF0BC08091100498010C2E01C0220F9E
:104AD0000A94EAF7282B2093100495FF0BC08091CD
:104AE000110498010C2E01C0220F0A94EAF7282B1A
:104AF000209311049F70292F30E02230310589F076
:104B000023303105D1F02130310511F50C2E01C0D3
:104B1000220F0A94EAF790911304292B209313048F
:104B200017C08091120498010C2E01C0220F0A9424
:104B3000EAF7282B209312040BC0809114049801EB
:104B40000C2E01C0220F0A94EAF7282B209314049C
:104B50002196C530D10509F08DCF0E94B42461E0C3
:104B600080E00E94D2248F2DDF91CF911F910F9171
:104B7000FF900C945723CF92DF92EF92FF920F9306
:104B80001F93CF93DF9390911404992309F440C0AD
:104B900010911504C0E0D0E0E82EF12CCC24C39491
:104BA000D12C0C2F8091140490E00C2E02C096950D
:104BB00087950A94E2F780FF1BC0802F0E9483270D
:104BC000970102C0359527958A95E2F720FF08C026
:104BD000C6010C2E01C0880F0A94EAF7182B08C0F2
:104BE000C6010C2E01C0880F0A94EAF7809518239D
:104BF0002196C530D105A9F660E0812FDF91CF91D4
:104C00001F910F91FF90EF90DF90CF900C94D224E2
:104C1000DF91CF911F910F91FF90EF90DF90CF9098
:104C20000895AF92BF92CF92DF92EF92FF920F93CF
:104C30001F93CF93DF9320911304222309F445C0DF
:104C40006B017C0110911504C0E0D0E0AA24A3946C
:104C5000B12C0C2F8091130490E00C2E02C096957D
:104C600087950A94E2F780FF1EC0802F0E94832759
:104C7000A701960104C056954795379527958A95C3
:104C8000D2F720FF08C0C5010C2E01C0880F0A947E
:104C9000EAF7182B08C0C5010C2E01C0880F0A9432
:104CA000EAF7809518232196C530D10591F660E08A
:104CB000812FDF91CF911F910F91FF90EF90DF90A7
:104CC000CF90BF90AF900C94D224DF91CF911F91E1
:104CD0000F91FF90EF90DF90CF90BF90AF9008952D
:104CE000AF92BF92CF92DF92EF92FF920F931F93FA
:104CF000CF93DF9320911204222309F445C06B0166
:104D00007C0110911504C0E0D0E0AA24A394B12C3A
:104D10000C2F8091120490E00C2E02C0969587957E
:104D20000A94E2F780FF1EC0802F0E948327A7010C
:104D3000960104C056954795379527958A95D2F7E1
:104D400020FF08C0C5010C2E01C0880F0A94EAF7A5
:104D5000182B08C0C5010C2E01C0880F0A94EAF771
:104D6000809518232196C530D10591F660E0812FFA
:104D7000DF91CF911F910F91FF90EF90DF90CF9037
:104D8000BF90AF900C94D224DF91CF911F910F91DF
:104D9000FF90EF90DF90CF90BF90AF90089508956F
:104DA0002091110430E0082E02C0369527950A9410
:104DB000E2F720FD0C94982408952091110430E02E
:104DC000082E02C0369527950A94E2F720FD0C9430
:104DD000A624089561E0809115040C94D2240F93C9
:104DE0001F93CF93DF938C01C0E0D0E020910F049C
:104DF00030E00C2E02C0369527950A94E2F720FF8A
:104E000028C0C230A9F018F4C13069F004C0C33022
:104E1000A1F0C430B9F06091090470E044E0C80129
:104E20000E945B2116C060910A0470E040E80EC049
:104E300060910B0470E040E409C060910C0470E0E4
:104E400040E204C060910D0470E040E1C8010E949E
:104E500084212196C530D10549F6DF91CF911F916C
:104E60000F910895CF92DF92EF92FF920F931F93CD
:104E7000CF93DF9306E114E0C9E0D0E0E12CF12C00
:104E8000CE010E94F729F80191838083019699F45D
:104E9000C701880F991F9C012A5E3B4F69018E2D27
:104EA0000E94AD03F60191838083F80160817181D6
:104EB000CE010E940B2AFFEFEF1AFF0A22960E5F27
:104EC0001F4FC331D105E1F6DF91CF911F910F91B3
:104ED000FF90EF90DF90CF9008950F931F93CF93A3
:104EE00009E010E0C0E08C2F0E94AD03BC01C801B6
:104EF0000E940B2ACF5F0E5F1F4FC530A1F7CF91E5
:104F00001F910F910895E82FF0E0EE0FFF1FEA5E6A
:104F1000FB4F808191810895CF92DF92EF92FF92B3
:104F20000F931F93CF9383E190E00E94F7298C01A8
:104F3000C12CD12C2DEEE22E2EEFF22E0E94D601A6
:104F4000C82F0E94D801C89FC00111249C0183E092
:104F5000220F331F8A95E1F7205C3F4FC216D3061C
:104F600080F4C60145960E94EF29282F30E0C0FE4C
:104F700002C0322F2227E20EF31E8FEFC81AD80A82
:104F8000DDCF81E00E151F0509F080E0CF911F9164
:104F90000F91FF90EF90DF90CF90089590E0880FF1
:104FA000991F45960C94F72990E0880F991F459614
:104FB0000C940B2AEF92FF920F931F93CF93DF93E2
:104FC00000D0CDB7DEB7182F4A8369830E94D6017F
:104FD000082F0E94D801089FC0011124189F70015A
:104FE000199FF00C11240E94D80169819701689FD4
:104FF000200D311D1124C9014A81840F911D8B5A46
:105000009F4F0F900F90DF91CF911F910F91FF90C5
:10501000EF900C94EF298B5A9F4F0C94FD298F929F
:105020009F92AF92BF92CF92DF92EF92FF920F9337
:105030001F93CF93DF930E94CC016C010E94C901A2
:105040007C01C114D10409F10E9452014C01A12C30
:10505000B12C0DEE1EEFA814B90420F4F601C59191
:10506000D49102C0C0E0D0E0BE018A2D0E94D427B6
:105070000C0F1D1F8FEFA81AB80A82E0C80ED11CB2
:1050800080E2A816B10439F702C00DEE1EEFE1145C
:10509000F10471F10E944F016C01A12CB12C0E940E
:1050A000D601C82F0E94D801C89FC001112423E057
:1050B000880F991F2A95E1F7A816B906C8F4AC1411
:1050C000BD0428F4F701EA0DFB1DC49101C0C0E046
:1050D0006C2FC5010E940B28EC2FF0E0A0FE02C04F
:1050E000FE2FEE270E0F1F1F8FEFA81AB80AD7CF7B
:1050F000B80183E190E0DF91CF911F910F91FF9074
:10510000EF90DF90CF90BF90AF909F908F900C94D6
:105110000B2A0E948C27811102C00C940F2808953D
:105120000E9497286894B1110C94262908950E9432
:105130000B2988F09F5798F0B92F9927B751B0F0F5
:10514000E1F0660F771F881F991F1AF0BA95C9F70B
:1051500014C0B13091F00E942529B1E008950C945B
:105160002529672F782F8827B85F39F0B93FCCF30E
:10517000869577956795B395D9F73EF49095809588
:10518000709561957F4F8F4F9F4F0895E89409C0A8
:1051900097FB3EF490958095709561957F4F8F4F6A
:1051A0009F4F9923A9F0F92F96E9BB279395F69580
:1051B000879577956795B795F111F8CFFAF4BB0FFE
:1051C00011F460FF1BC06F5F7F4F8F4F9F4F16C062
:1051D000882311F096E911C0772321F09EE8872FEC
:1051E000762F05C0662371F096E8862F70E060E0A8
:1051F0002AF09A95660F771F881FDAF7880F969521
:10520000879597F9089557FD9058440F551F59F009
:105210005F3F71F04795880F97FB991F61F09F3FA3
:1052200079F087950895121613061406551FF2CFCC
:105230004695F1DF08C0161617061806991FF1CF1C
:1052400086957105610508940895E894BB27662743
:105250007727CB0197F908950E943F290C94B02934
:105260000E94A22938F00E94A92920F0952311F06C
:105270000C9499290C949F2911240C9426290E949E
:10528000032970F3959FC1F3950F50E0551F629F5E
:10529000F001729FBB27F00DB11D639FAA27F00D8F
:1052A000B11DAA1F649F6627B00DA11D661F829FB6
:1052B0002227B00DA11D621F739FB00DA11D621F9B
:1052C000839FA00D611D221F749F3327A00D611DB8
:1052D000231F849F600D211D822F762F6A2F11249A
:1052E0009F5750409AF0F1F088234AF0EE0FFF1FCD
:1052F000BB1F661F771F881F91505040A9F79E3F24
:10530000510580F00C9499290C9426295F3FE4F311
:10531000983ED4F3869577956795B795F795E79579
:105320009F5FC1F7FE2B880F911D9695879597F982
:10533000089597F99F6780E870E060E008959FEF17
:1053400080EC089500240A9416161706180609061C
:10535000089500240A9412161306140605060895EB
:10536000092E0394000C11F4882352F0BB0F40F473
:10537000BF2B11F460FF04C06F5F7F4F8F4F9F4FB3
:105380000895AA1BBB1B51E107C0AA1FBB1FA6178C
:10539000B70710F0A61BB70B881F991F5A95A9F7DE
:1053A00080959095BC01CD01089597FB072E16F4CA
:1053B000009407D077FD09D00E94C12907FC05D0D1
:1053C0003EF4909581959F4F0895709561957F4F1C
:1053D0000895EE0FFF1F0590F491E02D0994F999BF
:1053E000FECF92BD81BDF89A992780B50895A8E1B6
:1053F000B0E042E050E00C94122A262FF999FECF3B
:105400001FBA92BD81BD20BD0FB6F894FA9AF99AE1
:105410000FBE019608950E94FD29272F0C94FE29A6
:10542000DC01CB01FC01F999FECF06C0F2BDE1BD64
:10543000F89A319600B40D9241505040B8F7089553
:04544000F894FFCF0E
:1054440005B60344042104ED03B9030101570328FD
:1054540008140A321E200F404D36399302460210BA
:1054640002D7016A0183019C01B50104120A5401A7
:10547400400134010A0347004800360030000000B0
:1054840012036700650065006B006800610063003B
:105494006B0000000403090409026D00040100A06C
:1054A4003209040000010301010009211101000176
:1054B4002240000705810308000A090401000103D2
:1054C400010200092111010001224D000705820398
:1054D40008000A0904020001030000000921110167
:1054E40000012236000705830308000A09040300AB
:1054F4000103000000092111010001223900070500
:1055040084031000011201100100000008EDFE6088
:105514006001000102000105010906A10105071946
:10552400E029E71500250195087501810205081990
:1055340001290595057501910295017503910105F0
:10554400071900297715002501957875018102C096
:1055540005010980A101850216010026B7001A0180
:10556400002AB700751095018100C0050C0901A13E
:10557400018503160100269C021A01002A9C02756B
:105584001095018100C005010902A1010901A100D2
:1055940005091901290515002501950575018102E3
:1055A4009501750381010501093009311581257FB4
:1055B40095027508810609381581257F95017508BE
:1055C4008106050C0A38021581257F95017508812D
:1055D40006C0C005010906A101050719E029E71560
:1055E4000025019508750181029501750881010561
:1055F4000819012905950575019102950175039115
:10560400010507190029FF150026FF0095067508F6
:0E5614008100C001020304050607080900001A
:00000001FF
