:100000000C9403010C944A010C944A010C944A018B
:100010000C944A010C944A010C944A010C944A0134
:100020000C944A010C944A010C94A3070C94750893
:100030000C9416170C944A010C944A010C944A0132
:100040000C944A010C941A200C944A010C944A0115
:100050000C944A010C947E170C944A010C944A01AA
:100060000C944A010C944A010C944A010C944A01E4
:100070000C944A010C944A010C944A010C944A01D4
:100080000C944A010C944A010C944A010C944A01C4
:100090000C944A010C944A010C944A010C944A01B4
:1000A0000C944A010C944A010C944A01DD080009A1
:1000B000BB090009BB0945096809BB098A099D09F3
:1000C000A60CA60CD30CD30C2E0D680DD10FD10F9E
:1000D000800DD10F7D0E7D0E380F4E0FD10FBD0F4D
:1000E000016202620162026200F1A100D100D2004D
:1000F000D0291E1F20212223242526272D2E2A2BFE
:10010000141A0815171C180C12132F303139041645
:1001100007090A0B0D0E0F33340028E1001D1B06E2
:1001200019051110363738C0E5E0E3E200002C0075
:10013000000000E6C0E7E4353A3B3C3D3E3F40412D
:10014000424344454C010152010101B401490146B9
:100150004748010150514F0101010101014A4B0083
:100160000101000165C1C2C3AAA9A84D4E01010148
:1001700001010000010000000001010101001080E8
:10018000FF012300600000000000000000000001EB
:10019000010102020203030404050506060708081C
:1001A000090A0B0B0C0D0E0F10111213151617194F
:1001B0001A1B1D1E2022232527292B2D2F313335D5
:1001C000383A3D3F4244474A4D505356595C5F626E
:1001D00066696C7074777B7E82868A8E9195999D14
:1001E000A1A5A9ADB0B4B8BCC0C3C7CBCED2D5D839
:1001F000DBDFE2E4E7EAECEFF1F3F5F7F8FAFBFC1A
:10020000FDFEFFFFFF0011241FBECFEFDAE0DEBFCF
:10021000CDBF04B603FE27C08091190490911A0443
:10022000A0911B04B0911C048730904BA740B04BA9
:10023000D1F41092190410921A0410921B04109217
:100240001C0414BE84B7877F84BF0FB6F894A895AA
:1002500080916000886180936000109260000FBE02
:10026000E0E0F8E3099512E0A0E0B1E0EAE4F2E5AD
:1002700002C005900D92AE3DB107D9F724E0AEED76
:10028000B2E001C01D92A931B207E1F70E947105E9
:100290000C9423290C9400008CE890E0089584E0ED
:1002A00090E00895611104C0FC018281811103C0B6
:1002B00080E090E0089580EE90E008950F931F9302
:1002C000CF93DF938C01D62FC42F611118C0FC018E
:1002D0008281882371F00E947416827211F085E386
:1002E00001C089E28093DE028091DE020E94350B1C
:1002F00004C08091DE020E94080C0E94A816F8013A
:1003000082818823B1F1D130A1F5C230F1F050F4EF
:10031000CC23A9F0C13069F5DF91CF911F910F91E6
:100320000C94BD22C430E9F0B0F0C53011F561E0A5
:100330008EE1DF91CF911F910F910C944B23DF91B0
:10034000CF911F910F910C94B622DF91CF911F9105
:100350000F910C94D922DF91CF911F910F910C94A2
:10036000F02261E08EE1DF91CF911F910F910C940B
:100370003A23DF91CF911F910F910895462F672F58
:100380000C94DD26805C0E94D126089581EF90E0D8
:10039000089589EE90E008958AB1807D8AB98BB185
:1003A000807D8BB9089585E008958EE0089580E8FA
:1003B00085BF85BF0E94CC0180B38C7F80BB81B399
:1003C000836081BB6E98769A8AB18F728AB98BB13D
:1003D000806D8BB987B18F7387B988B1806C88B90C
:1003E00084B1847484B985B18B6B85B9E9EEF2E090
:1003F000AFEDB2E0119211921D921D9282E0E33FA7
:10040000F807C1F70895CF92DF92EF92FF920F9312
:100410001F93CF93DF931F92CDB7DEB70FED12E09E
:10042000680140E0FF24F394B5E0EB2E423071F018
:1004300018F4413041F004C0433059F0443061F0C9
:10044000509A58980BC0519A599808C0529A5A9885
:1004500005C0539A5B9802C0559A5D9880EA8A95C8
:10046000F1F72FB121702F2530E0799903C082E098
:1004700090E002C080E090E0282B392B669903C001
:1004800084E090E002C080E090E0822B932B66B184
:10049000062E000C770B609570959B012227330F79
:1004A000221F3327A3E0220F331FAA95E1F7282B41
:1004B000392B369903C080E190E002C080E090E0E3
:1004C000B901682B792B23B1022E000C330B209538
:1004D0003095C9018827990F881F9927E5E0880F73
:1004E000991FEA95E1F7862B972B4C9903C020E4DE
:1004F00030E002C020E030E0822B932B199903C03A
:1005000020E830E002C020E030E0822B932B1899E5
:1005100003C0A0E0B1E002C0A0E0B0E08A2B9B2BBA
:100520001D9903C0E0E0F2E002C0E0E0F0E08E2BB5
:100530009F2B1C9903C020E034E002C020E030E093
:10054000BC01622B732B29B1022E000C330B2095BA
:100550003095C9018827990F881F9927982F8827D8
:10056000990F990F990F862B972B4E9903C020E076
:1005700030E102C020E030E0822B932B1B9903C0B6
:1005800020E030E202C020E030E0822B932BD60145
:100590002D913C9111972817390721F08D939C9349
:1005A000E092000149830E94CC0149814F5FB2E093
:1005B000CB0ED11C453009F039CF80910001882342
:1005C000C1F0815080930001882339F0EFE9FFE00A
:1005D0003197F1F700C000000CC0E9EEF2E0D8015D
:1005E0008D919D918D0181939193B2E0093E1B07FE
:1005F000B1F781E00F90DF91CF911F910F91FF90A4
:10060000EF90DF90CF900895E82FF0E0EE0FFF1FFE
:10061000E751FD4F8081918108950895CF93C82FB0
:100620000E946D1FC730C0F4C43010F5C130C0F156
:100630000E94881F0E94DC1F0E941220EC2FF0E015
:10064000E358FE4FC4916C2F80E00E949A1F6C2FDC
:1006500081E0CF910C949A1FC730A9F0C83001F502
:100660000E94881F0E94D61F0E94122081E012C0A3
:100670000E94881F0E940C200E94DC1F86E08C1BB9
:10068000CF910C9417200E94881F0E94D61F0E94B1
:10069000122080E00E94F91F83E0CF910C94042087
:1006A0000E94DC1F0E94122060E080E00E949A1FDE
:1006B00060E081E00E949A1FCF910C948E1F1F93DF
:1006C000CF93DF9300D000D01F92CDB7DEB7162FA7
:1006D0008091180480FF20C08E7F8E3041F4662305
:1006E00031F080E20E94072080E10E94CB1F8091C0
:1006F00018048E7F803181F4112371F080E20E9412
:10070000072080E10F900F900F900F900F90DF91D6
:10071000CF911F910C94B41F0F900F900F900F90DA
:100720000F90DF91CF911F910895089560E0FC0133
:1007300080810C94202360E0FC0180810C942023B4
:10074000E82FF0E0EE0FFF1FEF57FE4F85919491D9
:100750000895809103030895CF93DF9300D01F92F3
:10076000CDB7DEB79C0180910E04843019F593E07B
:1007700099833B832A839093E9008FEF9091E8005F
:10078000815095FD06C095ED9A95F1F70000811115
:10079000F5CF8091E80085FF0DC040E050E063E0B8
:1007A00070E0CE0101960E9417068091E8008E77D6
:1007B0008093E8000F900F900F90DF91CF910895F4
:1007C000CF93DF9300D01F92CDB7DEB720910E04F8
:1007D000243021F522E029839B838A8383E0809360
:1007E000E9008FEF9091E800815095FD06C095EDEE
:1007F0009A95F1F700008111F5CF8091E80085FF0F
:100800000DC040E050E063E070E0CE0101960E9430
:1008100017068091E8008E778093E8000F900F9084
:100820000F90DF91CF91089520910E042430F1F4C0
:1008300022E02093E9002FEF3091E800215035FDB0
:1008400006C035ED3A95F1F700002111F5CF209162
:10085000E80025FF0BC040E050E065E070E00E943A
:1008600017068091E8008E778093E8000895CF9373
:10087000DF93EC0190910E04943009F046C0809112
:100880000B018823D9F080910C018823B9F0909353
:10089000E9008FEF9091E800815095FD06C095E149
:1008A0009A95F1F700008111F5CF8091E80085FF5E
:1008B0002CC040E050E060E170E017C081E0809320
:1008C000E9008FEF9091E800815095FD06C095ED0D
:1008D0009A95F1F700008111F5CF8091E80085FF2E
:1008E00014C040E050E068E070E0CE010E941706BE
:1008F0008091E8008E778093E80080E1FE01A3EF0D
:10090000B2E001900D928A95E1F7DF91CF910895C1
:1009100080910D04811109C00E942A070E94850759
:100920008091E20084608093E200089510920D04AB
:100930000895089542E061EC81E00E94C50642E01E
:1009400061EC82E00E94C50642E061EC83E00E9417
:10095000C50642E161EC84E00C94C5068091100468
:10096000833009F455C030F4813071F0823009F4DD
:100970008EC008958A3009F47AC08B3009F460C0C3
:10098000893009F09CC020C080910F04813A09F0A1
:1009900096C08091E800877F8093E80080911304DF
:1009A00090911404892B21F460E183EF92E003C05D
:1009B00060E080E090E070E00E9462068091E800D4
:1009C0008B778093E800089580910F04813209F0BD
:1009D00076C08091130490911404009719F0039746
:1009E00009F06DC08091E800877F8093E8008091D6
:1009F000E80082FD05C080910E048111F8CF5FC030
:100A00008091F100809303038091E8008B7753C0BD
:100A100080910F04813A09F052C0809113049091A3
:100A20001404892B09F04BC08091E800877F8093E4
:100A3000E8008091E80080FFFCCF80910B0136C078
:100A400080910F048132D9F58091130490911404A0
:100A5000892BA9F58091E800877F8093E8000E94A8
:100A6000D9068091110480930B010C94F20F8091B0
:100A70000F04813221F58091E800877F8093E800A0
:100A80000E94D906809112048093040308958091F6
:100A90000F04813AA1F48091E800877F8093E800F9
:100AA0008091E80080FFFCCF809104038093F100E7
:100AB0008091E8008E778093E8000C94D906089521
:100AC0000895089508950C9462050E94D0168091AF
:100AD0000C04882329F00E94FD1681110C94010654
:100AE000089584B7877F84BF0FB6F894A895809146
:100AF0006000886180936000109260000FBE90E0FB
:100B000080E80FB6F89480936100909361000FBE67
:100B10000E9460050E94240A0E942A070E948507FD
:100B20008091E20084608093E200789480910E04CA
:100B30008430E1F70E94260A81E091E00E94D0090A
:100B40000E94610580910E04853019F40E946505AC
:100B5000F9CF0E94380AF6CF0C9412170C94AC050A
:100B6000292F332723303105C1F05CF421303105C2
:100B700079F022303105E9F58DE690E028E531E0A5
:100B80003CC021323105C1F02232310511F131C0B2
:100B900082E190E025EC31E030C099278330910567
:100BA00040F5FC01EE0FFF1FE25DFE4F2081318119
:100BB000FC01E55DFE4F1AC06430D8F4E62FF0E08A
:100BC000EE0FFF1FED5DFE4F2081318189E090E047
:100BD00014C0643070F470E0FB01EE0FFF1FE55E9F
:100BE000FE4F20813181FB01E95EFE4F808190E064
:100BF00004C080E090E020E030E0FA0131832083FF
:100C0000089580E189BD82E189BD09B400FEFDCF70
:100C10008091D8008F7D8093D8008091E000826021
:100C20008093E0008091E00081FDFCCF0895CF9299
:100C3000DF92EF92FF920F931F93CF93DF93EC011C
:100C40008B016A010E94F806811133C0C114D104DE
:100C500039F0F60180819181081B190BC80FD91F4B
:100C6000E12CF12C0115110519F18091E80085FDA9
:100C700016C08091E8008E778093E800C114D104FB
:100C800049F0F60180819181E80EF91EF182E0823F
:100C900085E00FC00E94F806882321F30AC08991DD
:100CA0008093F10001501109FFEFEF1AFF0ADACF2C
:100CB00080E0DF91CF911F910F91FF90EF90DF9037
:100CC000CF90089520911504309116042617370708
:100CD00048F06115710539F42091E8002E772093D2
:100CE000E80001C0B90140E061157105A9F120914A
:100CF0000E04222309F443C0253009F442C0209198
:100D0000E80023FD40C02091E80022FD32C0209180
:100D1000E80020FFE9CF4091F3002091F20030E09D
:100D2000342BFC01CF016115710559F028303105D4
:100D300040F481918093F100615071092F5F3F4F22
:100D4000F1CF41E02830310509F040E02091E80082
:100D50002E772093E800C8CF4111C9CF0AC08091F7
:100D60000E04882361F0853061F08091E80083FDF6
:100D70000AC08091E80082FFF2CF80E0089582E00F
:100D8000089583E0089581E008958F708093E900CD
:100D9000EBEEF0E0808181608083EDEEF0E0108288
:100DA0006093EC0040838091EE00881F8827881FA5
:100DB000089580910F0487FF11C08091E80082FDA3
:100DC00005C080910E048111F8CF11C08091E80018
:100DD0008B770BC080910E04882349F08091E80046
:100DE00080FFF8CF8091E8008E778093E800089527
:100DF0002091E4003091E50095E64091EC00842FCD
:100E0000817040FF22C08091E80080FD1CC080916D
:100E10000E04882391F0853091F08091EB0085FDE0
:100E200010C04091E4005091E5004217530729F3A8
:100E30009A01915011F784E0089582E0089583E0CB
:100E4000089581E0089580E008954091E80042FF10
:100E5000DECF08950E9496070E949E07E0EEF0E024
:100E6000808181608083E8EDF0E080818F778083EE
:100E700019BCA7EDB0E08C918E7F8C9380818F7E22
:100E8000808310920D0408950F931F93CF93DF93E7
:100E90000E9496070E949E07C8EDD0E088818F7758
:100EA000888388818068888388818F7D888319BC46
:100EB00010920E0410920B0410920C0400EE10E03D
:100EC000F80180818B7F808388818160888342E004
:100ED00060E080E00E94C506E1EEF0E080818E7F58
:100EE0008083E2EEF0E08081816080838081886091
:100EF0008083F80180818E7F8083888180618883F0
:100F0000DF91CF911F910F910895E8EDF0E080817E
:100F10008F7E8083E7EDF0E080818160808384E0D4
:100F200082BF81E080930D040C944407E8EDF0E06B
:100F300080818E7F80831092E20008951092DA0003
:100F40001092E10008951F920F920FB60F92112494
:100F50002F933F934F935F936F937F938F939F93C1
:100F6000AF93BF93EF93FF938091E10082FF0BC09B
:100F70008091E20082FF07C08091E1008B7F809327
:100F8000E1000E94CF098091DA0080FF1FC08091AC
:100F9000D80080FF1BC08091DA008E7F8093DA003A
:100FA0008091D90080FF0DC080E189BD82E189BDBB
:100FB00009B400FEFDCF81E080930E040E948804F6
:100FC00005C019BC10920E040E9496048091E100A5
:100FD00080FF19C08091E20080FF15C08091E2007F
:100FE0008E7F8093E2008091E20080618093E20036
:100FF0008091D80080628093D80019BC85E08093EE
:101000000E040E9463058091E10084FF30C080914E
:10101000E20084FF2CC080E189BD82E189BD09B472
:1010200000FEFDCF8091D8008F7D8093D800809105
:10103000E1008F7E8093E1008091E2008F7E8093BB
:10104000E2008091E20081608093E20080910B04D5
:10105000882311F084E007C08091E30087FD02C07F
:1010600081E001C083E080930E040E94AE05809170
:10107000E10083FF29C08091E20083FF25C08091B9
:10108000E100877F8093E10082E080930E0410925C
:101090000B048091E1008E7F8093E1008091E2005B
:1010A0008E7F8093E2008091E20080618093E20075
:1010B00042E060E080E00E94C5068091F000886018
:1010C0008093F0000E949904FF91EF91BF91AF913E
:1010D0009F918F917F916F915F914F913F912F9150
:1010E0000F900FBE0F901F9018951F920F920FB682
:1010F0000F9211242F933F934F935F936F937F939E
:101100008F939F93AF93BF93CF93DF93EF93FF930F
:10111000C091E900CF708091EC00D82FD17080FD94
:10112000D0E81092E9008091F000877F8093F00072
:1011300078940E94B9081092E9008091F0008860CC
:101140008093F000CD2BCF70C093E900FF91EF9119
:10115000DF91CF91BF91AF919F918F917F916F91CF
:101160005F914F913F912F910F900FBE0F901F9065
:1011700018951F93CF93DF9300D0CDB7DEB7EFE084
:10118000F4E088E08E0F9091F10091938E13FBCFE5
:101190000E94AE048091E80083FFEDC080910F04AF
:1011A00090911004492F50E04A30510508F0E3C0F7
:1011B000FA01EA5AFF4F0C94EC28803881F082380B
:1011C00009F0D9C0809113048F708093E900809159
:1011D000EB0085FB882780F91092E90007C0809119
:1011E0000C04882311F082E001C080E09091E800B7
:1011F000977F9093E8008093F1001092F10095C0E2
:10120000282F2D7F09F0B7C0882319F0823061F0B4
:10121000B2C080911104813009F0ADC0933009F063
:1012200080E080930C042BC080911104811127C0B1
:10123000809113048F7009F49EC08093E90020917F
:10124000EB0020FF1CC0933021F48091EB00806202
:1012500014C09091EB0090619093EB0021E030E09E
:10126000A90102C0440F551F8A95E2F74093EA0096
:101270001092EA008091EB0088608093EB0010925E
:10128000E9008091E800877F53C0811174C01091FC
:1012900011041F778091E3008078812B8093E30015
:1012A0008091E800877F8093E8000E94D9068091B2
:1012B000E80080FFFCCF8091E30080688093E3002A
:1012C000111102C082E001C083E080930E0453C07C
:1012D0008058823008F04FC0AE014F5F5F4F609181
:1012E000130480911104909112040E94B005BC0176
:1012F000892B09F440C09091E800977F9093E80013
:1013000089819A810E9462068091E8008B778093A0
:10131000E80031C0803879F58091E800877F8093BC
:10132000E80080910B048093F1008091E8008E77B3
:101330008093E8000E94D9061EC081111CC09091C4
:1013400011049230C0F48091E800877F8093E80018
:1013500090930B040E94D90680910B04811106C062
:101360008091E30087FD02C081E001C084E08093AA
:101370000E040E949A048091E80083FF0AC08091C5
:10138000E800877F8093E8008091EB008062809383
:10139000EB000F900F90DF91CF911F91089508956A
:1013A00090930A03809309030895E0910903F09153
:1013B0000A03309721F00190F081E02D099480E03C
:1013C0000895E0910903F0910A03309721F002801B
:1013D000F381E02D09940895E0910903F0910A0347
:1013E000309721F00480F581E02D09940895209133
:1013F0000703309108038217930771F09093080355
:1014000080930703E0910903F0910A03309721F0DC
:101410000680F781E02D099408952091050330910D
:1014200006038217930771F09093060380930503D8
:10143000E0910903F0910A03309721F00084F185CF
:10144000E02D0994089508950C94230A0E943F17F3
:101450000E94D7010E9451190E9449260E94C62469
:101460000E945A1F0E9487230E9467220C948C2797
:101470004F925F927F928F929F92AF92BF92CF9244
:10148000DF92EF92FF920F931F93CF93DF9300D0E1
:1014900000D01F92CDB7DEB70E9403029CE0C92E98
:1014A00093E0D92E00E010E0AA24A394B12C702E72
:1014B000802F0E9404034C01F601419051906F016E
:1014C0004826592641145104B1F40F5F1F4F0530CF
:1014D000110569F78FEF89838A831B820E94481761
:1014E0008160782F9D838C8349815A816B818D81A6
:1014F0000E94F50A41C080916C0381FD0E940D039A
:1015000020E030E07501022E02C0EE0CFF1C0A94B0
:10151000E2F7C70184219521892B41F129837A8241
:101520008E209F2091E0892809F490E09B830E94FF
:1015300048178160782F9D838C8349815A816B8104
:101540008D810E94F50A49815A816B817C818D8150
:101550000E945F03000F111FF801E45FFC4F8081C0
:101560009181E826F926F182E08206C02F5F3F4F85
:101570002E30310539F6A9CF0E94CE160E94881C64
:1015800010910B030E94D5091817D1F00E94D509BC
:1015900080930B030F900F900F900F900F90DF919F
:1015A000CF911F910F91FF90EF90DF90CF90BF9060
:1015B000AF909F908F907F905F904F900C945125AB
:1015C0000F900F900F900F900F90DF91CF911F9180
:1015D0000F91FF90EF90DF90CF90BF90AF909F90D2
:1015E0008F907F905F904F900895CF93DF93CDB70A
:1015F000DEB72B970FB6F894DEBF0FBECDBF942F8A
:101600004F83252F588769877A878B874A855B8523
:10161000452B21F02F3F09F59F3FF9F4DE0111968C
:1016200086E0FD0111928A95E9F785E0FE01379683
:1016300001900D928A95E1F749815A816B817C81F5
:101640008D819E810E948C122B960FB6F894DEBF7E
:101650000FBECDBFDF91CF9108954F815885698529
:101660007A858B850E945F03D9CFCF93882309F4B5
:10167000CDC0C82F823859F40E94D50981FDC6C05B
:1016800089E30E9417150E94A81689E30CC08338CD
:1016900079F40E94D50980FDB9C083E50E94171531
:1016A0000E94A81683E50E94DC15CF910C94A81621
:1016B000843859F40E94D50982FDA8C087E40E94AD
:1016C00017150E94A81687E4EECF8CEF8C0F813A95
:1016D00048F48C2F0E94C21E811198C08C2F0E944A
:1016E0001715E3CF80E28C0F883048F4C77081E093
:1016F00001C0880FCA95EAF70E947716D6CF8BE50E
:101700008C0F833078F4C53A29F0C63A31F083E87B
:1017100090E005C081E890E002C082E890E0CF91BF
:101720000C94F70988E58C0F853108F06FC0C83A32
:1017300061F1C93A69F1CA3A71F1CB3A79F1CC3A1F
:1017400081F1CD3A89F1CE3A91F1CF3A99F1C13B8D
:10175000A1F1C03BA9F1C23BB1F1C33BB9F1C43B1C
:10176000C1F1C53BC9F1C63BD1F1C73BD9F1C83B7B
:10177000E1F1C93BE9F1CA3BF1F1CB3BF9F1CC3BDB
:1017800009F43FC080E090E03EC082EE90E03BC0B4
:1017900089EE90E038C08AEE90E035C085EB90E0AD
:1017A00032C086EB90E02FC083EB90E02CC084EB3E
:1017B00090E029C087EB90E026C08CEC90E023C03D
:1017C0008DEC90E020C083E891E01DC08AE891E0B4
:1017D0001AC082E991E017C084E991E014C081E267
:1017E00092E011C083E292E00EC084E292E00BC06E
:1017F00085E292E008C086E292E005C087E292E0CE
:1018000002C08AE292E0CF910C940D0ACF91089524
:10181000882309F44BC0823859F40E94D50981FF0E
:1018200045C089E30E9417150E94A81689E30CC0E1
:10183000833871F40E94D50980FF38C083E50E9487
:1018400017150E94A81683E50E94DC150C94A816B3
:10185000843859F40E94D50982FF28C087E40E9489
:1018600017150E94A81687E4EFCF9CEF980F913AC6
:1018700058F390E2980F983050F4877091E001C0CF
:10188000990F8A95EAF7892F0E947D16DFCF9BE595
:10189000980F933020F480E090E00C94F709885A78
:1018A000853120F480E090E00C940D0A089588239F
:1018B00021F00E9477160C94A8160895882321F031
:1018C0000E947D160C94A8160895CF92DF92EF9295
:1018D000FF920F931F93CF93DF93CDB7DEB7279778
:1018E0000FB6F894DEBF0FBECDBF25E0FC01DE01D0
:1018F000119601900D922A95E1F7FC01408131810A
:101900000281258122952F7063817481672B09F4F0
:1019100048C33F3F19F44F3F09F443C36C01498367
:101920003A8389819A812F830E94D614182F9E832F
:101930000E94D5140E94E5139E81E92FE295EF7075
:10194000F0E0E05AFF4F2F810C94EC28892F807F24
:101950009F70F92E882319F0F29490EFF92200235A
:1019600049F0FF2009F45FC28F2D0E948A160E9461
:10197000A81659C2812F0E94080CFF2009F411C338
:101980008F2D0E94901627960FB6F894DEBF0FBEDB
:10199000CDBFDF91CF911F910F91FF90EF90DF901E
:1019A000CF900C94A816892F807F9F70F92E8032DB
:1019B00019F0F29480EFF822112319F0113001F19F
:1019C00029C00023A9F08F2D222349F1213039F5B8
:1019D00027960FB6F894DEBF0FBECDBFDF91CF9133
:1019E0001F910F91FF90EF90DF90CF900C949A167B
:1019F000222319F0213009F4D4C20E949D162CC074
:101A00000023E9F0263008F0CCC20E9474168F2122
:101A100029F022C00023F1F0211115C08F2D279647
:101A20000FB6F894DEBF0FBECDBFDF91CF911F91EF
:101A30000F91FF90EF90DF90CF900C94570C2530D2
:101A400008F0AFC209C0F601858180FFECC18F703C
:101A50008583E4CF2111FBC18F2D69C1292F2695E4
:101A60002695237030E02115310521F02130310514
:101A7000C1F097C2002319F0812F937002C080E05B
:101A800090E027960FB6F894DEBF0FBECDBFDF9172
:101A9000CF911F910F91FF90EF90DF90CF900C941A
:101AA000F709002319F0812F937002C080E090E0C5
:101AB00027960FB6F894DEBF0FBECDBFDF91CF9152
:101AC0001F910F91FF90EF90DF90CF900C940D0A33
:101AD000812F002319F00E94901B02C00E94F81B66
:101AE00027960FB6F894DEBF0FBECDBFDF91CF9122
:101AF0001F910F91FF90EF90DF90CF900C947D1C81
:101B0000892F837009F079C001114BC2812F829512
:101B100086958770880F880F212F2F70C22ED12CA9
:101B2000E12CF12C082E04C0CC0CDD1CEE1CFF1C9B
:101B30000A94D2F714FF12C04FE050E060E070E06A
:101B400004C0440F551F661F771F8A95D2F78A017C
:101B50009B01009510952095309503C000E010E0A2
:101B60009801969596959370492F50E0C901B80158
:101B700042305105D1F04330510559F16C297D298E
:101B80008E299F294130510541F127960FB6F894CF
:101B9000DEBF0FBECDBFDF91CF911F910F91FF90A0
:101BA000EF90DF90CF900C94FA136C297D298E2949
:101BB0009F2927960FB6F894DEBF0FBECDBFDF91E9
:101BC000CF911F910F91FF90EF90DF90CF900C94E9
:101BD0000C140E94FA13C701B60127960FB6F894A9
:101BE000DEBF0FBECDBFDF91CF911F910F91FF9050
:101BF000EF90DF90CF900C94E813002319F0892F19
:101C0000817001C08695882309F4CBC1812F82950C
:101C100086958770880F880F212F2F70C22ED12CA8
:101C2000E12CF12C082E04C0CC0CDD1CEE1CFF1C9A
:101C30000A94D2F714FF12C04FE050E060E070E069
:101C400004C0440F551F661F771F8A95D2F78A017B
:101C50009B01009510952095309503C000E010E0A1
:101C60009801969596959370492F50E0C901B80157
:101C700042305105D1F04330510559F16C297D298D
:101C80008E299F294130510541F127960FB6F894CE
:101C9000DEBF0FBECDBFDF91CF911F910F91FF909F
:101CA000EF90DF90CF900C94B1146C297D298E2990
:101CB0009F2927960FB6F894DEBF0FBECDBFDF91E8
:101CC000CF911F910F91FF90EF90DF90CF900C94E8
:101CD000C3140E94B114C701B60127960FB6F89439
:101CE000DEBF0FBECDBFDF91CF911F910F91FF904F
:101CF000EF90DF90CF900C949F14103F41F118F4B7
:101D0000103E48F48BC0123F09F450C0D8F1133F85
:101D100009F460C083C01F70892F8F71002321F0E8
:101D20000E943814812F7BCE0E945914812F279650
:101D30000FB6F894DEBF0FBECDBFDF91CF911F91DC
:101D40000F91FF90EF90DF90CF900C945E0C0023EA
:101D5000A9F0253008F025C1892F8F7127960FB67D
:101D6000F894DEBF0FBECDBFDF91CF911F910F91D1
:101D7000FF90EF90DF90CF900C947E14263008F007
:101D800010C1EACF0023A1F0892F8F7127960FB6DB
:101D9000F894DEBF0FBECDBFDF91CF911F910F91A1
:101DA000FF90EF90DF90CF900C943814002361F3F4
:101DB000892F8F7127960FB6F894DEBF0FBECDBF67
:101DC000DF91CF911F910F91FF90EF90DF90CF9017
:101DD0000C945914002391F0892F8F7127960FB618
:101DE000F894DEBF0FBECDBFDF91CF911F910F9151
:101DF000FF90EF90DF90CF900C94231427960FB6AE
:101E0000F894DEBF0FBECDBFDF91CF911F910F9130
:101E1000FF90EF90DF90CF900C941E140023A1F060
:101E2000222309F4B1CF812F27960FB6F894DEBF95
:101E30000FBECDBFDF91CF911F910F91FF90EF901B
:101E4000DF90CF900C94350B222309F4B1CF812F72
:101E500027960FB6F894DEBF0FBECDBFDF91CF91AE
:101E60001F910F91FF90EF90DF90CF900C94080C92
:101E7000492F4F70612FC6010E94520127960FB65D
:101E8000F894DEBF0FBECDBFDF91CF911F910F91B0
:101E9000FF90EF90DF90CF900C943013011181C030
:101EA000112341F0892F8F70843021F0907F212FF2
:101EB0002F70922B9F70892F90E082309105E9F16D
:101EC000ACF4009751F1019709F06BC027960FB65B
:101ED000F894DEBF0FBECDBFDF91CF911F910F9160
:101EE000FF90EF90DF90CF900C94B1238330910559
:101EF000A1F1049709F055C0812F27960FB6F894E9
:101F0000DEBF0FBECDBFDF91CF911F910F91FF902C
:101F1000EF90DF90CF900C940C2427960FB6F89496
:101F2000DEBF0FBECDBFDF91CF911F910F91FF900C
:101F3000EF90DF90CF900C94982327960FB6F894EB
:101F4000DEBF0FBECDBFDF91CF911F910F91FF90EC
:101F5000EF90DF90CF900C94CA2327960FB6F89499
:101F6000DEBF0FBECDBFDF91CF911F910F91FF90CC
:101F7000EF90DF90CF900C94E923492F4F70612FA1
:101F8000C60127960FB6F894DEBF0FBECDBFDF9116
:101F9000CF911F910F91FF90EF90DF90CF900C9415
:101FA0005E0127960FB6F894DEBF0FBECDBFDF915E
:101FB000CF911F910F91FF90EF90DF90CF900895F8
:101FC0000E9497160E9466160E94A8160E942D1D58
:101FD0000E947D1C80E090E00E94F70980E090E084
:101FE0000C940D0A0E9487160C94E00F0E94D614E0
:101FF000292F22952F7030E02C3031054CF42A30F7
:1020000031056CF4225031092230310588F407C0C3
:102010002C30310549F02F30310531F009C0803EB8
:1020200048F0803F29F406C093FB882780F9089583
:1020300080E0089581E00895CF93DF9300D000D031
:102040001F92CDB7DEB70F900F900F900F900F90AB
:10205000DF91CF910895CF93DF9300D000D000D0CF
:10206000CDB7DEB726960FB6F894DEBF0FBECDBF54
:10207000DF91CF9108951F93CF93DF93C091160303
:1020800016E080911703C81799F0D0E01C9FF0016B
:102090001D9FF00D1124E85EFC4F4081518162814B
:1020A0007381848195810E942B102196C770E9CF9E
:1020B000DF91CF911F9108954091480350914903BA
:1020C00060914A0370914B0380914C0390914D03B2
:1020D0000C942B1080914D0382958F7009F054C0A1
:1020E00080914A03882309F44FC080911603A09180
:1020F0001703609148037091490340914B0350913D
:102100004C03B6E08A1709F43FC090E04115510531
:10211000C1F17F3F11F46F3FA1F1B89FF001B99F6A
:10212000F00D1124E85EFC4F218172132AC020813A
:10213000621327C02281211124C0238134812417F6
:10214000350710F421503109241B350B283C31058B
:10215000C0F420914D032F70206120934D0326E0A1
:10216000289FF001299FF00D1124E35EFC4F808130
:102170008F708061808388E493E00E94650C0C94EA
:102180003B1001968770BECF0895CF92DF92EF92F9
:10219000FF920F931F93CF93DF93CDB7DEB7629774
:1021A0000FB6F894DEBF0FBECDBF8C0185E0F801FD
:1021B000DE011D9601900D928A95E1F7D8014C91B0
:1021C00011965C91119712966C9112971396CD907F
:1021D000DC901497309148037091490380914B0330
:1021E00090914C03009709F46BC17F3F19F43F3F76
:1021F00009F466C1E0904A03EE2009F4C0C02091C2
:102200004D03C816D90628F0F601E81BF90BCF01DB
:1022100004C0809590958C0D9D1DFF24F394883CFF
:10222000910578F0F12C207F09F0C6C07C2DD98A69
:10223000C88A89890E941C1088E493E00E94650C7A
:10224000B1C0822F807F09F046C0751314C03413CB
:1022500012C0611110C02F70206120934D030E94A5
:102260005C1088E493E00E94650C80914D03D801D6
:1022700015968C932EC0CD2819F15F3F11F44F3F76
:10228000F9F0F62E61111CC08091160320911703FE
:1022900036E0821709F45AC090E0389FF001399F68
:1022A000F00D1124E85EFC4F7181571306C0708158
:1022B000471303C07281711103C001968770E9CF83
:1022C000F62E662309F418C180914D038160809336
:1022D0004D03F12C11C1751308C0341306C06111F0
:1022E00004C080914D03D801C3C04D875E878D85A2
:1022F0009E856A8B0E94F60F6A898823E1F1662326
:10230000D1F120914D03822F82958F7090E002973A
:1023100074F0809148039091490398878F831986C0
:10232000DB86CA862C87CE0107960E94650C86E064
:10233000F801A8E4B3E001900D928A95E1F70E94BC
:102340006A100E945C10FF24F394D6C04D875E870C
:102350008D859E850E94D614292F22952F7030E0FE
:10236000223031050CF0BCC09F7009F0B6C0805E11
:10237000883008F4C1C0C8010E94650CE4CFC816BB
:10238000D90608F453C0F601E81BF90BCF01883CCD
:10239000910508F450C0F12C7C2DD98AC88A89890E
:1023A0000E941C10E8E4F3E086E0DF011D928A95AC
:1023B000E9F70E945C10A0C0751314C0341312C05A
:1023C000611110C080914D03F8018583C8010E94FE
:1023D000650C86E0E8E4F3E0DF011D928A95E9F7F9
:1023E000FE2C8AC04D875E878D859E856A8B0E94F4
:1023F000F60F6A89882309F4BECF662309F4BBCFA0
:1024000020914D03822F82958F7090E002970CF4FB
:102410008ECF80914803909149039A8389831B82D0
:10242000DD82CC822E83CE0101967FCF8095909560
:102430008C0D9D1DACCFF62E662309F49CCF751331
:102440002EC034132CC020914D0320FD1FC0822FBD
:1024500082958F70D9F0D80115962C9315978F30EF
:1024600049F08F5F982F9295907F822F8F70892BE4
:1024700015968C93C8010E94650C86E0F801A8E4CB
:10248000B3E001900D928A95E1F793CF86E0F801D1
:10249000A8E4B3E001900D928A95E1F72DC04D8735
:1024A0005E878D859E850E94F60F811140CF8091B9
:1024B0004D03816080934D03C8010E94650C1CC0D0
:1024C000662309F458CF4D875E878D859E850E94CF
:1024D000F60F882309F44FCF2ACF811148CF0CC0C3
:1024E000243031050CF047CF9F7009F440CFF8013C
:1024F0009581907F09F03BCF8F2D62960FB6F894AF
:10250000DEBF0FBECDBFDF91CF911F910F91FF9026
:10251000EF90DF90CF9008951F93CF93DF93CDB7C7
:10252000DEB72C970FB6F894DEBF0FBECDBF4F833A
:10253000588769877A878B879C87CE0107960E9488
:10254000C510882369F08F8198852A853B85232BC8
:10255000F1F19F3F09F063C08F3F09F060C037C0C1
:1025600086E0FE013796DE01119601900D928A9564
:10257000E1F76F817885EA85FB85309741F17F3FF0
:1025800011F46F3F21F12091170330E0C90101964A
:10259000877099274091160350E08417950709F436
:1025A00047C069837A83FD83EC8396E0929FD001D4
:1025B000939FB00D1124A85EBC4FFE01319601908F
:1025C0000D929A95E1F7809317030E943B1016E055
:1025D00080911603909117038917C1F1189FC001CC
:1025E0001124885E9C4F0E94C510882379F1E091E8
:1025F00016031E9FF0011124E85EFC4F40815181BB
:1026000062817381848195810E942B1080911603D1
:1026100090E001968770992780931603D9CF4F8158
:10262000588569857A858B859C850E942B10CFCF34
:102630000E94F20F1092170310921603E8E4F3E0E1
:1026400086E0DF011D928A95E9F7C1CF2C960FB67F
:10265000F894DEBF0FBECDBFDF91CF911F910895DB
:10266000DF92EF92FF920F931F93CF93DF93FC01C2
:10267000892B09F48AC0E12CF12CDD24D394EF01DD
:1026800021968491853709F461C058F4843708F0A5
:102690004EC0843008F06AC08130D1F0823071F1D0
:1026A00074C0883709F45DC050F4863709F455C00A
:1026B000873709F06AC08E2D0E94841654C09CE7AB
:1026C000980F903708F061C08F770E94080C50C0B7
:1026D0008F010E5F1F4FFE01849190E2980F98309A
:1026E00050F48770FD2D01C0FF0F8A95EAF78F2FF8
:1026F0000E948A1614C00E94350B13C08F010E5F12
:102700001F4FFE01C49180E28C0F883060F4C770C7
:102710008D2D01C0880FCA95EAF70E9490160E947D
:10272000A816E80125C08C2F0E94080CFACF9F0143
:102730002E5F3F4FFE01C491CC2369F08FE99FE0EB
:102740000197F1F700C00000C150F6CF9F012E5F46
:102750003F4FFE01F490E9010BC00E947416E82E71
:1027600007C00E9487160E94A81602C00E94350B5F
:102770008F2D882341F0EFE9FFE03197F1F700C09A
:1027800000008150F6CFFE017ACFDF91CF911F91EB
:102790000F91FF90EF90DF90089560935203709334
:1027A000530380935403909355030E9487250C9400
:1027B000E00F60934E0370934F0380935003909308
:1027C00051030E94C9250C94E00F08950C94CD1379
:1027D0000F931F93009152031091530320915403C0
:1027E00030915503602B712B822B932B1F910F91EE
:1027F0000C94CD130F931F93009152031091530328
:102800002091540330915503602371238223932335
:102810001F910F910C94CD130F931F9300915203AE
:102820001091530320915403309155036027712771
:10283000822793271F910F910C94CD1360E070E0D5
:10284000CB010C94D9130F931F9341E050E060E04B
:1028500070E08A019B0104C0000F111F221F331F6B
:102860008A95D2F7C901B8011F910F910C94D91321
:102870000F931F9341E050E060E070E004C0440F0C
:10288000551F661F771F8A95D2F780914E0390914E
:102890004F03A0915003B09151038A019B01082B73
:1028A000192B2A2B3B2BC901B8011F910F910C94B6
:1028B000D9130F931F9341E050E060E070E004C033
:1028C000440F551F661F771F8A95D2F74095509584
:1028D0006095709580914E0390914F03A0915003A5
:1028E000B09151038A019B01082319232A233B231A
:1028F000C901B8011F910F910C94D9130F931F9325
:1029000041E050E060E070E004C0440F551F661FD6
:10291000771F8A95D2F780914E0390914F03A09133
:102920005003B09151038A019B01082719272A27D8
:102930003B27C901B8011F910F910C94D9130F9334
:102940001F9300914E0310914F032091500330913B
:102950005103602B712B822B932B1F910F910C94A1
:10296000D9130F931F9300914E0310914F032091A1
:1029700050033091510360237123822393231F91CD
:102980000F910C94D9130F931F9300914E03109144
:102990004F03209150033091510360277127822704
:1029A00093271F910F910C94D9130895CF92DF9222
:1029B000EF92FF920F931F93CF93DF938C01C09000
:1029C0005203D0905303E0905403F090550340918C
:1029D0004E0350914F036091500370915103C42AEC
:1029E000D52AE62AF72ACFE1D0E0D701C6010C2E7E
:1029F00004C0B695A795979587950A94D2F780FF5E
:102A000007C0B8018C2F0E9484188130910531F4E1
:102A1000219758F7B80180E00E948418DF91CF9188
:102A20001F910F91FF90EF90DF90CF900895CF927C
:102A3000DF92EF92FF920F931F93CF93DF93C82FF4
:102A400080910B018823E1F080910C018823C1F073
:102A50008C2F8695869586958F3008F0A4C0E091DE
:102A60000D01F0910E01E80FF11DC77081E090E0BB
:102A700001C0880FCA95EAF79181892B818393C0A1
:102A8000D090690330916703E0910D01F0910E0140
:102A9000332309F473C0409168038D2D2FEF96E026
:102AA000E92EF12C082F082E000C110BBF01600F2E
:102AB000711FDB0112969C919C1709F474C02F3F83
:102AC00019F4911101C0282FC801019606E010E009
:102AD000B7010E94D8288413E5CFD22F4D114EC0E4
:102AE0002F3F69F4842F440F990B0196B8010E947F
:102AF000D828809369033150309367033FC0822FF9
:102B0000220F990B0196B8010E94D828282FFF2484
:102B1000F39406E010E0022E000C330B6F01C20E9E
:102B2000D31ED60112965C91552391F08D2FDD0FA7
:102B3000990BBF01680F791FDB0112965C93D601D8
:102B400012961C920196B8010E94D828D82F01C075
:102B5000F394C9010196B8010E94D828282F841344
:102B6000DACF242F440F330B2F193109C9010696F0
:102B700066E070E00E94D828809368032091680383
:102B8000022E000C330BE20FF31FC283C901019622
:102B900066E070E00E94D828809368038091670304
:102BA0008F5F80936703DF91CF911F910F91FF900B
:102BB000EF90DF90CF900895EF92FF920F931F93C5
:102BC000CF93C82F80910B018823E9F080910C01ED
:102BD0008823C9F08C2F8695869586958F3008F0CE
:102BE0006FC0E0910D01F0910E01E80FF11DC7706B
:102BF00081E090E001C0880FCA95EAF78095918145
:102C0000892381835DC02091690340916703442338
:102C100009F456C0E0910D01F0910E010091680396
:102C2000002E000C110B86E0E82EF12C30E0DF01C5
:102C3000A20FB31FCD01029612965C915C1336C0B1
:102C4000DC011C92415040936703411104C0109273
:102C500069031092680340916803842F042E000CCE
:102C6000990B059666E070E00E94D828281739076E
:102C700039F5C091690306E010E0842F440F990BE9
:102C80000596B8010E94D8289C01482F0596B801E6
:102C90000E94D828DF01A80FB91F12968C918111CC
:102CA00002C02C13EACF209368030AC0C901019621
:102CB000B7010E94D828282F8017910709F0B6CFB6
:102CC000CF911F910F91FF90EF90089581E090E0D8
:102CD000E0910D01F0910E01E80FF91F10820196AD
:102CE00080319105A9F7089580916B030895909123
:102CF0006B03892B80936B030895809590916B03F0
:102D0000892380936B03089580936B030895109239
:102D10006B03089590916A03892B80936A03089549
:102D2000809590916A03892380936A030895109295
:102D30006A030895809356030895109256030895E8
:102D400080910C01811103C080916703089508955B
:102D5000E0910D01F0910E0180916B038083E09171
:102D60000D01F0910E01908180916A03892B80837F
:102D700080915603882361F0E0910D01F0910E01DE
:102D80009081892B80830E94A01681111092560396
:102D900080910D0190910E010C94E1090895089520
:102DA00080910E04843031F110926D0320E488E1AB
:102DB00090E00FB6F894A895809360000FBE209322
:102DC00060000E94771F83B7817F846083BF83B7D1
:102DD000816083BF7894889583B78E7F83BF0FB659
:102DE000F894A895809160008861809360001092AB
:102DF00060000FBE089508950895CF930E94FB16BA
:102E00000E9403020E94FC16C0E08C2F0E94040363
:102E1000892B29F4CF5FC530C1F780E001C081E084
:102E2000CF9108950E94F20F0C9487231F920F9266
:102E30000FB60F9211248F939F93AF93BF938091FE
:102E40006D03811113C080916E0390916F03A09167
:102E50007003B09171034196A11DB11D80936E0363
:102E600090936F03A0937003B0937103BF91AF91E0
:102E70009F918F910F900FBE0F901F90189582E039
:102E800084BD93E095BD9AEF97BD80936E00089541
:102E90002FB7F89480916E0390916F03A091700307
:102EA000B09171032FBF0895CF92DF92EF92FF92FE
:102EB0000F931F932FB7F89440916E0350916F03B7
:102EC00060917003709171032FBF6A017B01EE2442
:102ED000FF248C0120E030E0C016D106E206F306A4
:102EE00010F4415051099A01281B390BC9011F9157
:102EF0000F91FF90EF90DF90CF9008951F920F9267
:102F00000FB60F9211248F939F93AF93BF9380912D
:102F10006E0390916F03A0917003B09171030196BD
:102F2000A11DB11D80936E0390936F03A093700356
:102F3000B0937103BF91AF919F918F910F900FBE8E
:102F40000F901F9018950E942A07F8942FEF87EA98
:102F500091E6215080409040E1F700C0000087E0FA
:102F600090EBDC018093190490931A04A0931B0446
:102F7000B0931C049CE088E10FB6F894A895809368
:102F800060000FBE90936000FFCF8D3B50F4883AF5
:102F900070F5853A18F58430F8F4813009F46CC086
:102FA00068C0883E98F4803EB8F48F3B09F061C059
:102FB0000E94F20F2FEF80E792E021508040904076
:102FC000E1F700C000000E94A31753C0803F08F43F
:102FD00050C090E09065089590E00895853A09F416
:102FE0004EC0863A09F44EC083E890E40895883ACA
:102FF00009F44BC0893A09F44BC08A3A09F44BC032
:103000008B3A09F44BC08C3A09F44BC08D3A09F461
:103010004BC08E3A09F44BC08F3A09F44BC0813B48
:1030200009F44BC0803B09F44BC0823B09F44BC010
:10303000833B09F44BC0843B09F44BC0853B09F446
:103040004BC0863B09F44BC0873B09F44BC0883B1F
:1030500009F44BC0893B09F44BC08A3B09F44BC0CF
:103060008B3B09F44BC08C3B09F44BC080E094E4EB
:10307000089580E090E0089581E090E0089581E86F
:1030800090E4089582E890E4089582EE94E408952F
:1030900089EE94E408958AEE94E4089585EB94E42F
:1030A000089586EB94E4089583EB94E4089584EB0B
:1030B00094E4089587EB94E408958CEC94E40895E7
:1030C0008DEC94E4089583E895E408958AE895E406
:1030D000089582E995E4089584E995E4089581E2EC
:1030E00096E4089583E296E4089584E296E40895D0
:1030F00085E296E4089586E296E4089587E296E4F0
:1031000008958AE296E408950E94BE01803EA8F4E4
:10311000803C00F5813309F45CC038F4893209F44D
:1031200052C08A3209F45BC05FC08933B1F0823883
:10313000A1F0853309F441C057C0833E41F128F422
:10314000803E99F0823EB9F04FC0863E31F1873E15
:1031500071F14AC00E94C20108959091170490FD38
:1031600002C091FF41C080EE3FC08091170480FFF4
:10317000FACF89E339C08091170482FF0CC0809197
:10318000170484FF02C080E02FC083EE2DC0809121
:10319000170482FFF4CF82EE27C08091170483FFCB
:1031A0000AC08091170484FDEECF87EE1DC0809188
:1031B000170483FFF6CF86EE17C08091170485FFB2
:1031C00006C089E211C08091170485FFFACF85E31C
:1031D0000BC08091170486FF06C08AE205C080916B
:1031E000170486FFFACF81E30E94C5170895AF92B6
:1031F000BF92CF92DF92EF92FF920F931F93CF93E4
:103200007C01C0E0CC24C394D12C8C2F0E940403F9
:103210005C0100E010E0C601002E02C0880F991F7B
:103220000A94E2F78A219B21892BB1F0602F7C2F31
:1032300080E00E9484189C018E159F0559F0832F11
:10324000807E932F907C11F0803A31F430E02E157F
:103250003F0511F481E009C00F5F1F4F0E301105CB
:10326000D1F6CF5FC53089F680E0CF911F910F91E5
:10327000FF90EF90DF90CF90BF90AF900895CF93E5
:10328000DF93EC018CE290E00E94F718882329F08C
:10329000CE01DF91CF910C94F71880E0DF91CF91B0
:1032A0000895CF930E94CD1A811102C00E949E1AE8
:1032B000C5E6C15049F00E9403028FE39CE90197E3
:1032C000F1F700C00000F5CF89E290E00E943F19BD
:1032D000811132C18AE290E00E943F19882341F0B7
:1032E0000E94C71A0E949E1A0E9412270E947626E8
:1032F00085E090E00E943F1981110E94A3170E946F
:10330000CF160E94D81A80936C0387E090E00E9449
:103310003F198823C1F18BE190E00E943F19882377
:1033200051F080916C0381FB222720F991E09227D4
:1033300090FB81F90FC08EE090E00E943F19882336
:1033400061F080916C0382FB222720F991E09227A3
:1033500090FB82F980936C0316C080E190E00E949C
:103360003F1990916C03882341F093FB222720F9A9
:1033700081E0822780FB93F904C0892F809580FB30
:1033800090F990936C0380916C030E94DC1A0E9468
:10339000EA1A8093170480EE90E00E943F19882378
:1033A00041F080911704982F909590FB80F98093BD
:1033B000170489E390E00E943F19882359F0809117
:1033C000170481FB222720F991E0922790FB81F9D5
:1033D0008093170482EE90E00E943F19882359F0F1
:1033E0008091170482FB222720F991E0922790FB1D
:1033F00082F98093170486EE90E00E943F1988239B
:1034000059F08091170483FB222720F991E092273D
:1034100090FB83F98093170483EE90E00E943F199C
:10342000882359F08091170484FB222720F991E02A
:10343000922790FB84F98093170485E390E00E9423
:103440003F19882359F08091170485FB222720F922
:1034500091E0922790FB85F98093170481E390E037
:103460000E943F19882359F08091170486FB222778
:1034700020F991E0922790FB86F98093170481E16F
:1034800090E00E943F19882359F08091170487FB30
:10349000222720F991E0922790FB87F98093170467
:1034A000809117040E94EE1A8091170487FB8827E9
:1034B00080F980930C0187E290E00E943F19C82FA9
:1034C0008EE190E00E943F198111C2608FE190E08F
:1034D0000E943F198111C46080E290E00E943F1970
:1034E0008111C86081E290E00E943F198111C061A2
:1034F00082E290E00E943F198111C06283E290E075
:103500000E943F198111C06484E290E00E943F193B
:10351000882311F0C06802C0CC2329F08C2F0E94B0
:10352000E51A6C2F03C00E94E11A682F70E080E05A
:1035300090E0CF910C94E613CF9108956DEE7EEF5D
:1035400080E090E00E940E2960E082E090E00E941E
:10355000002960E083E090E00E94002960E084E0C0
:1035600090E00E94002960E085E090E00E94002940
:1035700060E086E090E00E94002960E087E090E053
:103580000E94002960E088E090E00C9400296FEF31
:103590007FEF80E090E00C940E2980E090E00E94A4
:1035A000FA2821E08D3E9E4F09F020E0822F0895F9
:1035B00082E090E00C94F228682F82E090E00C9476
:1035C000002983E090E00C94F228682F83E090E0DB
:1035D0000C94002984E090E00C94F228682F84E099
:1035E00090E00C94002986E090E00C94F228682F7B
:1035F00086E090E00C94002987E090E00C94F2289B
:10360000682F87E090E00C94002988E090E00C940B
:10361000F228682F88E090E00C94002980917403D0
:1036200080FF0BC06091120185E0689FB0011124FA
:1036300075956795759567952BC081FF09C0609159
:10364000120185E0689FB00111247595679520C02F
:1036500082FF07C06091120185E0689FB0011124CC
:1036600017C0909175039923D1F0609111019617BD
:1036700088F72091120185E0289F90011124929FE4
:10368000A001939F500D112470E0CA010E94D82818
:103690006038710540F46115710539F002C065E0CC
:1036A00070E0862F08958FE7089581E00895809156
:1036B000740380FF08C06091100170E075956795F4
:1036C0007595679521C081FF06C06091100170E07B
:1036D0007595679519C082FF04C06091100170E074
:1036E00010C0909175039923C1F060910F01961756
:1036F000A0F780911001899FC001112470E00E9401
:10370000D8286038710528F46115710521F0862FDD
:1037100008958FE7089581E0089561E070E0F4CFA7
:10372000803F21F40E940E1B819504C0813F29F443
:103730000E940E1B809378030895823F21F40E941B
:103740000E1B819504C0833F29F40E940E1B8093B9
:1037500077030895893F19F40E94571B05C08A3FDB
:1037600031F40E94571B81958093790308958B3F14
:1037700021F40E94571B819504C08C3F29F40E94BC
:10378000571B80937A030895843F21F48091760338
:10379000816017C0853F21F480917603826011C05B
:1037A000863F21F48091760384600BC0873F21F42B
:1037B00080917603886005C0883F31F4809176035C
:1037C00080618093760308958D3F21F48091740386
:1037D00081600BC08E3F21F480917403826005C02C
:1037E0008F3F29F48091740384608093740308955B
:1037F000803F39F48091780387FF6CC01092780382
:1038000069C0813F29F4809178031816BCF362C027
:1038100090917703823F29F497FF5CC01092770361
:1038200059C0833F19F41916CCF354C0893F41F4B1
:103830008091790318160CF04DC0109279034AC09C
:103840008A3F29F48091790387FF44C0F6CF8B3FEC
:1038500039F480917A0387FF3DC010927A033AC011
:103860008C3F29F480917A031816BCF333C0843F4F
:1038700021F4809176038E7F17C0853F21F48091DB
:1038800076038D7F11C0863F21F4809176038B7F74
:103890000BC0873F21F480917603877F05C0883F66
:1038A00031F4809176038F7E8093760313C08D3F31
:1038B00021F4809174038E7F0BC08E3F21F48091A0
:1038C00074038D7F05C08F3F29F4809174038B7F33
:1038D000809374038091770381110EC080917803E7
:1038E00081110AC080917903811106C080917A0309
:1038F000811102C010927503089586E793E00E943B
:10390000EC090E9448179093730380937203089503
:103910001F93CF93DF9380917203909173030E9462
:103920005417AC0190917503992321F02091130154
:1039300030E006C0209114018AE0289F90011124F4
:103940004217530708F485C080917703C09178032C
:10395000D091790310917A03811107C0C11175C00C
:10396000D11173C0111171C074C09F3F19F09F5FD6
:1039700090937503181624F40E940E1B809377030E
:103980008091770387FF05C00E940E1B819580936D
:1039900077031C1624F40E940E1B809378038091F9
:1039A000780387FF05C00E940E1B819580937803E2
:1039B00060917703662331F1C0917803CC2311F134
:1039C000062E000C770B880B990B0E94CB2723E364
:1039D00033E343E35FE30E942F280E949327609321
:1039E00077036C2FCC0F770B880B990B0E94CB279A
:1039F00023E333E343E35FE30E942F280E949327EE
:103A0000609378031D1624F40E94571B809379035A
:103A10008091790387FF05C00E94571B8195809391
:103A20007903111624F40E94571B80937A03809126
:103A30007A0387FF05C00E94571B819580937A0304
:103A4000DF91CF911F910C947D1C9F3F09F08FCF88
:103A500097CFDF91CF911F910895E6E7F3E085E0DE
:103A6000DF011D928A95E9F7109275031092740395
:103A70000895833081F128F4813059F08230D1F0FB
:103A80000895853009F449C0B8F1863009F456C06C
:103A9000089580911401262F30E0280F311D2F3F0B
:103AA000310524F4680F6093140108958FEF80931B
:103AB0001401089580911301262F30E0280F311D45
:103AC0002F3F310524F4680F6093130108958FEFA1
:103AD00080931301089580911201262F30E0280F62
:103AE000311D2F3F310524F4680F609312010895B2
:103AF0008FEF80931201089580911101262F30E0FD
:103B0000280F311D2F3F310524F4680F60931101F8
:103B100008958FEF80931101089580911001262F51
:103B200030E0280F311D2F3F310524F4680F6093DA
:103B3000100108958FEF80931001089580910F0177
:103B4000262F30E0280F311D2F3F310524F4680F58
:103B500060930F0108958FEF80930F0108958330D4
:103B600011F128F4813049F0823091F008958530C8
:103B700081F120F18630C1F1089580911401681718
:103B800020F4861B80931401089510921401089567
:103B900080911301681720F4861B80931301089508
:103BA00010921301089580911201681720F4861B6A
:103BB00080931201089510921201089580911101CD
:103BC000681720F4861B809311010895109211014B
:103BD000089580911001681720F4861B80931001CE
:103BE000089510921001089580910F01681720F434
:103BF000861B80930F01089510920F0108950F9373
:103C00001F938B3109F475C0A0F58E3009F484C080
:103C1000C0F4873009F462C068F4863009F0AAC0A5
:103C200080916C03817F8E7F80936C0381E0809311
:103C30007C03A1C0883009F44AC08B3009F498C0D5
:103C400099C0813109F472C068F4803109F092C0E2
:103C500080916C0383FB222720F991E0922790FB4F
:103C600083F950C0863109F483C0893109F480C0DA
:103C700081C0853309F463C068F4873209F45FC0FA
:103C800028F48E3108F476C08D515FC0893209F472
:103C900056C070C0833438F48A3308F055C0883376
:103CA00009F466C067C0833409F449C0883409F058
:103CB00061C00E94F20F0FEF13ED20E3015010409E
:103CC0002040E1F700C000000E94A31751C00E94ED
:103CD000D81A0E94EA1A0E94F31A4AC090916C0303
:103CE000892F817090FF12C0917F9E7F90936C030B
:103CF00042C080916C0381FB222720F991E092273A
:103D000090FB81F980936C03992391F180916C036E
:103D1000816080936C032CC080916C0382FB22270E
:103D200020F991E0922790FB82F9ECCF0E94F20FEC
:103D300090910C0181E0892780930C0119C061E00A
:103D400070E080E090E010C0895341E050E060E016
:103D500070E08A019B0104C0000F111F221F331F56
:103D60008A95D2F7C901B8010E94E6130E94F20FAA
:103D700081E001C080E01F910F91089580E00895D7
:103D800080E00895CF93C82F80917C03813069F043
:103D900018F08230C9F184C0E0910D01F0910E015C
:103DA0008081823209F07EC007C0E0910D01F09160
:103DB0000E018081823261F48C2F0E94BE1E81111F
:103DC00004C08C2F0E94FF1D1DC081E090E01AC02E
:103DD0008C2F0E94C01E811114C0C43179F048F4A8
:103DE000CB3079F0C03109F061C082E080937C0370
:103DF00008C0C93219F0C83321F058C010927C03B2
:103E000055C081E0817054C0C93291F120F5C431B0
:103E100079F1B0F4C73009F047C08EE18093140106
:103E200082E3809313018AE08093120184E18093FE
:103E3000110188E08093100188E280930F0134C063
:103E4000CE51C63088F5EC2FF0E0ED52FD4F808169
:103E500080937B0329C0CE34E9F020F4CB3421F5E4
:103E60006AE013C0C13579F0C235F1F461E00DC0EC
:103E700080917B03882319F010927B0315C081E0A9
:103E800080937C0315C061E006C080917B030E9493
:103E9000391D0AC06AE080917B030E94AF1D04C0F7
:103EA00010927C0380E004C081E002C080E0AACFD1
:103EB000CF910895E1E8F0E080818860808380817F
:103EC000816080838FB7F89493E09093890090EDA0
:103ED000909388008FBF0C940B26EFE6F0E0808172
:103EE0008260808381E0809391030C942626EFE624
:103EF000F0E080818D7F80831092910380E00E94AA
:103F0000192681E00E941926809191030C9426269F
:103F100080919003836080939003089510929003A2
:103F200080E00E94192681E00E9419268091910369
:103F30000C942626E82FF0E0E457FC4F60830895A8
:103F4000E82FF0E0E457FC4F2081422F50E08FEF44
:103F500090E0861B9109841795071CF48FEF8083EE
:103F60000895620F60830895CF93C82F682F80E073
:103F70000E94A01F6C2F81E0CF910C94A01FE82F0E
:103F8000F0E0E457FC4F8081861710F4108208950A
:103F9000861B80830895CF93C82F682F80E00E94EE
:103FA000BF1F6C2F81E0CF910C94BF1F80918B03BA
:103FB000836080938B03089510928B030895409142
:103FC0008A0321E030E0662341F001C0220F8A9588
:103FD000EAF7242B20938A030895B90102C0660FE3
:103FE000771F8A95E2F7CB018095842380938A031B
:103FF0000895CF93C82F682F80E00E94DF1F6C2F99
:1040000081E0CF910C94DF1F809389030895E7E846
:10401000F3E0808381830895809186038360809399
:104020008603089510928603109285030895809365
:10403000840308951F920F920FB60F921124EF92EE
:10404000FF920F931F932F933F934F935F936F9321
:104050007F938F939F93AF93BF93CF93DF93EF9310
:10406000FF93809180038F5F809380030EE813E0BD
:10407000C0E0D0E0FC2E2091900330E00C2E02C076
:10408000369527950A94E2F720FF1AC080918003A5
:1040900081110DC0F8018081882319F08C2F0E94B6
:1040A0000C26FE01E457FC4F8081F801808390913B
:1040B0008003F8018081981303C08F2D0E94192678
:1040C0000F5F1F4F219719F0C1E0D0E0D3CF80914F
:1040D0007F038F5F803418F480937F03B8C0109201
:1040E0007F03E0908B03EE20F1F180917E038F5FE0
:1040F00080937E03909189039817A8F510927E0310
:1041000007E813E0C0E0D0E0F12CC7010C2E02C09C
:10411000969587950A94E2F780FF1AC0F80180818E
:10412000882319F08150808313C080918A0390E026
:104130000C2E02C0969587950A94E2F761E080FF05
:1041400004C08C2F0E94BF1F03C08C2F0E94A01F91
:104150000F5F1F4F219719F0C1E0D0E0D6CF8EE856
:1041600093E00E94960390918603992309F46BC013
:1041700080917D038F5F80937D03209184032817B6
:1041800008F061C010927D03209181033091850376
:10419000A2E8B3E040E050E0C1E0D0E0692F70E079
:1041A000042E02C0769567950A94E2F760FF3AC044
:1041B0008C91E82FF0E0EB57FE4F0491BA01645761
:1041C0007C4FFB010083622F70E0042E02C07695C5
:1041D00067950A94E2F760FF19C0811115C0BE010E
:1041E000042E01C0660F0A94EAF760952623E32F98
:1041F000F0E0042E02C0F695E7950A94E2F7E0FF9E
:1042000011C0962336230EC081500BC08F3741F466
:10421000BE01042E01C0660F0A94EAF7262B02C0E5
:104220008F5F8C9311964130510519F041E050E0B9
:10423000B5CF9093860320938103309385038EE856
:1042400093E00E949B030E9495030E945B23FF91D1
:10425000EF91DF91CF91BF91AF919F918F917F911E
:104260006F915F914F913F912F911F910F91FF900F
:10427000EF900F900FBE0F901F90189525B1242B33
:1042800035B1542F5095352354B1452B44B94FB710
:10429000F894FC01CB01880F991F680F791F6E0FEE
:1042A0007F1FE617F70789F0819198E025B9000094
:1042B00000C087FF35B9880F000000C000C000C0F3
:1042C00035B900C09A9591F7ECCF4FBF0895EF92A2
:1042D000FF920F931F93CF93DF9300D000D01F92D4
:1042E000CDB7DEB7F90170E0869F9001879F300D52
:1042F0001124232F3327042F10E0209FD001219F6A
:10430000B00D309FB00D112420E031E07901E61AA4
:10431000F70AE09E9001E19E300DF09E300D1124D1
:104320003C833983832F8B0F8D838A834B1B4B8375
:10433000892F90E063E070E00E94C428DE01A80F9E
:10434000B91F13962C912183DE01A80FB91F129675
:104350002C912083DE01A80FB91F11968C918283C6
:104360000F900F900F900F900F90DF91CF911F91B2
:104370000F91FF90EF900895DF92EF92FF920F93CD
:104380001F93CF93DF9300D01F92CDB7DEB78091FC
:104390009503882309F445C0D12CE12C43E0F42E89
:1043A00060911501D61660F50D2D10E070E0C70183
:1043B0000E94D828609FF001619FF00D709FF00D62
:1043C000112480919603909197039E012F5F3F4F98
:1043D00040919903609198038E0F9F1F0E9467215F
:1043E000F801EE0FFF1F0E0F1F1FF801E656FC4FDE
:1043F00089819A81AB8180839183A283D394D0CF2A
:10440000609115018AE993E00E942B260F900F908E
:104410000F90DF91CF911F910F91FF90EF90DF9060
:1044200008959E012F5F3F4F40919903609198033B
:1044300080919603909197030E94672120E08091DC
:1044400015012817E8F6822F90E0FC01EE0FFF1F00
:104450008E0F9F1FFC01E656FC4F89819A81AB812C
:1044600080839183A2832F5FEACF811103C01092D2
:10447000990306C090911601909399038830D8F45F
:104480001092FC0310929503882399F0873019F459
:10449000109298030EC090E001979695982F882768
:1044A0009795879590939703809396038FEF8093CA
:1044B00098030C94BC219FEF9093980391E0909304
:1044C000FC03893008F490E0909395030895CF930E
:1044D00010929703109296038FEF80939803CFE08A
:1044E000C09399030E94FC1A8093FA030E94051B53
:1044F0008F3018F08093160102C0C093160180918E
:10450000FA0387FF07C08F770E9435228091FA0354
:104510008F7704C080E00E94352280E00E9435221F
:1045200081E08093FB03CF9108958091FA03806826
:104530008093FA03982F9F7721F48078816080938D
:10454000FA038091FA038F770E9435228091FA0353
:104550000C94001B8091FA038F778093FA0380E01C
:104560000E9435228091FA030C94001B8091FA037B
:1045700087FD0C94AA220C9495228091FA03982F1F
:104580009F7791F091589F778078892B8093FA03D9
:104590008F7791E009F490E08091FA0390FB87F91E
:1045A0008093FA030E94001B8091FA038F770C948A
:1045B00035228091FA03982F9F77292F30E02930F8
:1045C00031054CF49F5F9F778078892B80688093BA
:1045D000FA030E94001B8091FA038F770C94352216
:1045E0009091FA0381E0890F8F7790788A3020F4D8
:1045F000892B8093FA0302C09093FA038091FA0307
:104600008F7791E009F490E08091FA0390FB87F9AD
:104610008093FA030E94001B8091FA038F770C9419
:104620003522813208F080E2809315018091FB03EE
:10463000882329F08091FA0387FD0C94BC2108950A
:104640009091FB039923A9F08F3008F48FE08093B9
:104650001601662321F0809116010E94091B8091AA
:10466000FA0387FF06C080911601809399030C948A
:10467000BC21089590911601292F30E02E50310968
:10468000482F50E0421753071CF4981B892F01C094
:104690008FE00C94202390911601492F50E02FEFCA
:1046A00030E0281B31092417350714F0890F01C0A9
:1046B0008FEF0C9420238091FC03882339F18091A3
:1046C00094038F5F809394039091FC039817F0F408
:1046D0001092940380919203909193039093970387
:1046E000809396030E94BC21809192039091930342
:1046F0000196811523E0920728F490939303809309
:1047000092030895109293031092920308950E94C9
:10471000CD1A811102C00E949E1A0E94F31A809342
:10472000180480FF02C0869501C080E00C940E033F
:104730008091180480FF14C0982F9695292F30E09F
:104740002830310544F49F5F990F8170892B809345
:1047500018040E94F71A8091180486950C940E0391
:1047600008958091180480FF14C0982F9695292FE2
:1047700030E02230310544F09158990F8170892B37
:10478000809318040E94F71A8091180486950C945F
:104790000E03089580911804982F9095917090FBC6
:1047A00080F980931804992339F0982F9E7F21F483
:1047B0008170826080931804809118040E94F71A17
:1047C0008091180480FF02C0869501C080E00C949F
:1047D0000E0390911804892F86958F5F8F779170C3
:1047E000893028F4880F892B8093180402C0909395
:1047F0001804809118048E7F91E009F490E0809174
:10480000180490FB80F9809318040E94F71A809195
:10481000180486950C940E03880F909118049170DB
:10482000892B809318048E7F91E009F490E08091A9
:10483000180490FB80F9809318040E94F71A809165
:10484000180486950C940E03882319F0813019F012
:1048500008952A9A08952E9A0895882319F0813090
:1048600019F008952A9808952E9808952091FF032D
:1048700030E0082E02C0369527950A94E2F720FD15
:104880000C9424240C942D242091FF0330E0082E56
:1048900002C0369527950A94E2F720FD0C942D244A
:1048A0000C942424CF93DF93229A269A80910004BB
:1048B000C82F80FD03C080E00E944424C1FD05C0D4
:1048C00081E0DF91CF910C944424DF91CF91089542
:1048D000EF92FF920F931F93CF93DF930091060403
:1048E0000827611102C009F44AC0C0E0D0E0E62EFA
:1048F000F82E10E08C2F9C2F2091000430E00C2E1D
:1049000002C0369527950A94E2F720FD31C0209128
:10491000900330E00C2E02C0369527950A94E2F7FA
:1049200020FF0BC02091020430E00C2E02C036950F
:1049300027950A94E2F720FD1BC0E11009C09801F9
:10494000092E02C0369527950A94E2F720FF10C081
:10495000209101042F2530E002C0369527959A95C5
:10496000E2F720FF03C00E94362402C00E944424C4
:10497000219719F0C1E0D0E0BDCFF0920604DF919D
:10498000CF911F910F91FF90EF900895FF920F9399
:104990001F93CF93DF93C0E0D0E0F12C01E010E053
:1049A0008C2F0E94862697FF14C0909100049801D6
:1049B0000C2E01C0220F0A94EAF7292B2093000441
:1049C000FE01E350FC4F8083F81608F057C0F82E24
:1049D00055C096FF0BC08091FF0398010C2E01C0BB
:1049E000220F0A94EAF7282B2093FF0394FF0BC0B1
:1049F0008091010498010C2E01C0220F0A94EAF75D
:104A0000282B2093010495FF0BC08091020498018C
:104A10000C2E01C0220F0A94EAF7282B20930204DF
:104A20009F70292F30E02230310589F02330310585
:104A3000D1F02130310511F50C2E01C0220F0A945E
:104A4000EAF790910404292B2093040417C0809165
:104A5000030498010C2E01C0220F0A94EAF7282BB8
:104A6000209303040BC08091050498010C2E01C013
:104A7000220F0A94EAF7282B20930504219719F0B6
:104A8000C1E0D0E08DCF0E94522461E080E00E941E
:104A900068248F2DDF91CF911F910F91FF900C947F
:104AA0001123CF93DF9390910504992369F1D82FB7
:104AB000C091060490FF0FC080E00E9486262D2F33
:104AC00030E002C0359527958A95E2F720FD02C0B7
:104AD000CE7F01C0C1608091050481FF0FC081E0DD
:104AE0000E9486262D2F30E002C0359527958A95A5
:104AF000E2F720FD02C0CD7F01C0C26060E08C2FD4
:104B0000DF91CF910C946824DF91CF910895CF92DB
:104B1000DF92EF92FF92CF9320910404222399F128
:104B20006B017C01C091060420FF11C080E00E944F
:104B30008626A701960104C0569547953795279577
:104B40008A95D2F720FD02C0CE7F01C0C16080915E
:104B5000040481FF0FC081E00E94862604C0F69401
:104B6000E794D794C7948A95D2F7C0FC02C0CD7F52
:104B700001C0C26060E08C2FCF91FF90EF90DF907A
:104B8000CF900C946824CF91FF90EF90DF90CF905E
:104B90000895CF92DF92EF92FF92CF93209103047A
:104BA000222399F16B017C01C091060420FF11C002
:104BB00080E00E948626A701960104C0569547957D
:104BC000379527958A95D2F720FD02C0CE7F01C088
:104BD000C1608091030481FF0FC081E00E9486269E
:104BE00004C0F694E794D794C7948A95D2F7C0FC92
:104BF00002C0CD7F01C0C26060E08C2FCF91FF90DA
:104C0000EF90DF90CF900C946824CF91FF90EF90BD
:104C1000DF90CF90089508952091020430E0082E8F
:104C200002C0369527950A94E2F720FD0C943624AD
:104C300008952091020430E0082E02C03695279591
:104C40000A94E2F720FD0C944424089561E08091D9
:104C500006040C946824CF93DF93EC018091000448
:104C600080FF07C06091FD0370E044E0CE010E9428
:104C70003E218091000481FF09C06091FE0370E035
:104C800040E4CE01DF91CF910C943E21DF91CF9192
:104C9000089589E090E00E94FA2890930804809398
:104CA0000704019661F480E00E94A0039093080439
:104CB00080930704BC0189E090E00E940E298BE0FC
:104CC00090E00E94FA2890930A04809309040196C8
:104CD00061F481E00E94A00390930A048093090488
:104CE000BC018BE090E00C940E29089580E00E94B6
:104CF000A003BC0189E090E00E940E2981E00E949F
:104D0000A003BC018BE090E00C940E29E82FF0E0AA
:104D1000EE0FFF1FE95FFB4F808191810895CF92D5
:104D2000DF92EF92FF920F931F93CF9383E190E076
:104D30000E94FA288C01C12CD12C2DEEE22E2EEFF0
:104D4000F22E0E94D301C82F0E94D501C89FC00136
:104D500011249C0183E0220F331F8A95E1F7205C28
:104D60003F4FC216D30680F4C60145960E94F22832
:104D7000282F30E0C0FE02C0322F2227E20EF31EA1
:104D80008FEFC81AD80ADDCF81E00E151F0509F094
:104D900080E0CF911F910F91FF90EF90DF90CF9027
:104DA000089590E0880F991F45960C94FA2890E09A
:104DB000880F991F45960C940E29EF92FF920F933E
:104DC0001F93CF93DF9300D0CDB7DEB7182F4A8360
:104DD00069830E94D301082F0E94D501089FC0015A
:104DE0001124189F7001199FF00C11240E94D50105
:104DF00069819701689F200D311D1124C9014A81E5
:104E0000840F911D8B5A9F4F0F900F90DF91CF9180
:104E10001F910F91FF90EF900C94F2288B5A9F4FA7
:104E20000C9400298F929F92AF92BF92CF92DF9203
:104E3000EF92FF920F931F93CF93DF930E94C901CC
:104E40006C010E94C6017C01C114D10409F10E94C9
:104E50004F014C01A12CB12C0DEE1EEFA814B9048A
:104E600020F4F601C591D49102C0C0E0D0E0BE01AB
:104E70008A2D0E94D7260C0F1D1F8FEFA81AB80A83
:104E800082E0C80ED11C80E2A816B10439F702C036
:104E90000DEE1EEFE114F10471F10E944C016C0162
:104EA000A12CB12C0E94D301C82F0E94D501C89F0C
:104EB000C001112423E0880F991F2A95E1F7A81655
:104EC000B906C8F4AC14BD0428F4F701EA0DFB1DC3
:104ED000C49101C0C0E06C2FC5010E940E27EC2FC9
:104EE000F0E0A0FE02C0FE2FEE270E0F1F1F8FEF77
:104EF000A81AB80AD7CFB80183E190E0DF91CF912B
:104F00001F910F91FF90EF90DF90CF90BF90AF90E7
:104F10009F908F900C940E290E948F26811102C0C1
:104F20000C94122708950E949A276894B1110C944A
:104F3000292808950E940E2888F09F5798F0B92FCD
:104F40009927B751B0F0E1F0660F771F881F991FBE
:104F50001AF0BA95C9F714C0B13091F00E94282810
:104F6000B1E008950C942828672F782F8827B85F20
:104F700039F0B93FCCF3869577956795B395D9F716
:104F80003EF490958095709561957F4F8F4F9F4F20
:104F90000895E89409C097FB3EF49095809570952C
:104FA00061957F4F8F4F9F4F9923A9F0F92F96E975
:104FB000BB279395F695879577956795B795F111EA
:104FC000F8CFFAF4BB0F11F460FF1BC06F5F7F4F87
:104FD0008F4F9F4F16C0882311F096E911C0772399
:104FE00021F09EE8872F762F05C0662371F096E8A2
:104FF000862F70E060E02AF09A95660F771F881F71
:10500000DAF7880F9695879597F9089557FD905888
:10501000440F551F59F05F3F71F04795880F97FB7C
:10502000991F61F09F3F79F0879508951216130636
:105030001406551FF2CF4695F1DF08C01616170665
:105040001806991FF1CF869571056105089408959A
:10505000E894BB2766277727CB0197F908950E942C
:1050600042280C94B3280E94A52838F00E94AC284E
:1050700020F0952311F00C949C280C94A228112464
:105080000C9429280E94062870F3959FC1F3950F70
:1050900050E0551F629FF001729FBB27F00DB11DBC
:1050A000639FAA27F00DB11DAA1F649F6627B00D4C
:1050B000A11D661F829F2227B00DA11D621F739F35
:1050C000B00DA11D621F839FA00D611D221F749F43
:1050D0003327A00D611D231F849F600D211D822F8A
:1050E000762F6A2F11249F5750409AF0F1F08823B1
:1050F0004AF0EE0FFF1FBB1F661F771F881F9150DE
:105100005040A9F79E3F510580F00C949C280C94C8
:1051100029285F3FE4F3983ED4F386957795679509
:10512000B795F795E7959F5FC1F7FE2B880F911D07
:105130009695879597F9089597F99F6780E870E0AD
:1051400060E008959FEF80EC089500240A941616FD
:10515000170618060906089500240A941216130665
:10516000140605060895092E0394000C11F48823F3
:1051700052F0BB0F40F4BF2B11F460FF04C06F5F0F
:105180007F4F8F4F9F4F0895AA1BBB1B51E107C054
:10519000AA1FBB1FA617B70710F0A61BB70B881FC7
:1051A000991F5A95A9F780959095BC01CD01089556
:1051B00097FB072E16F4009407D077FD09D00E94C4
:1051C000C42807FC05D03EF4909581959F4F089523
:1051D000709561957F4F0895EE0FFF1F0590F49134
:1051E000E02D0994F999FECF92BD81BDF89A9927D7
:1051F00080B50895A8E1B0E042E050E00C94152994
:10520000262FF999FECF1FBA92BD81BD20BD0FB6E2
:10521000F894FA9AF99A0FBE019608950E9400290F
:10522000272F0C940129DC01CB01FC01F999FECF59
:1052300006C0F2BDE1BDF89A319600B40D9241501E
:0A5240005040B8F70895F894FFCF2E
:10524A0005A90337041404E003AC0301015703283A
:10525A0008140A321E200F404D36399302460210B6
:10526A0002D7016A0183019C01B50104120A5401A3
:10527A00400134010A0347004800360030000000AC
:10528A0012036700650065006B0068006100630037
:10529A006B0000000403090409026D00040100A068
:1052AA003209040000010301010009211101000172
:1052BA002240000705810308000A090401000103CE
:1052CA00010200092111010001224D000705820394
:1052DA0008000A0904020001030000000921110163
:1052EA0000012236000705830308000A09040300A7
:1052FA0001030000000921110100012239000705FC
:10530A0084031000011201100100000008EDFE6084
:10531A006001000102000105010906A10105071942
:10532A00E029E7150025019508750181020508198C
:10533A0001290595057501910295017503910105EC
:10534A00071900297715002501957875018102C092
:10535A0005010980A101850216010026B7001A017C
:10536A00002AB700751095018100C0050C0901A13A
:10537A00018503160100269C021A01002A9C027567
:10538A001095018100C005010902A1010901A100CE
:10539A0005091901290515002501950575018102DF
:1053AA009501750381010501093009311581257FB0
:1053BA0095027508810609381581257F95017508BA
:1053CA008106050C0A38021581257F950175088129
:1053DA0006C0C005010906A101050719E029E7155C
:1053EA00002501950875018102950175088101055D
:1053FA000819012905950575019102950175039111
:10540A00010507190029FF150026FF0095067508F2
:0E541A008100C0010203040506070809000016
:00000001FF
