:100000000C94C8000C940F010C940F010C940F0178
:100010000C940F010C940F010C940F010C940F0120
:100020000C940F010C940F010C9488060C945A0741
:100030000C94E6150C940F010C940F010C940F0115
:100040000C940F010C94021F0C940F010C940F01DF
:100050000C940F010C944E160C940F010C940F018C
:100060000C940F010C940F010C940F010C940F01D0
:100070000C940F010C940F010C940F010C940F01C0
:100080000C940F010C940F010C940F010C940F01B0
:100090000C940F010C940F010C940F010C940F01A0
:1000A0000C940F010C940F010C940F01C207E5078B
:1000B000A008E507A0082A084D08A0086F088208D4
:1000C000770B770BA40BA40BFF0B390CA20EA20E1F
:1000D000510CA20E4E0D4E0D090E1F0EA20E8E0ECD
:1000E000016202620162026200292B672A535455A1
:1000F000565F6061575C5D5E58595A5B5862006399
:1001000000001080FF00230020002000200060007D
:1001100000000000000000000001010102020203D3
:1001200003040405050606070808090A0B0B0C0D55
:100130000E0F10111213151617191A1B1D1E20224F
:10014000232527292B2D2F313335383A3D3F424483
:10015000474A4D505356595C5F6266696C707477BC
:100160007B7E82868A8E9195999DA1A5A9ADB0B41A
:10017000B8BCC0C3C7CBCED2D5D8DBDFE2E4E7EA58
:10018000ECEFF1F3F5F7F8FAFBFCFDFEFFFFFF00E3
:1001900011241FBECFEFDAE0DEBFCDBF04B603FEF1
:1001A00027C08091230490912404A0912504B0914C
:1001B00026048730904BA740B04BD1F41092230413
:1001C00010922404109225041092260414BE84B7C1
:1001D000877F84BF0FB6F894A895809160008861EE
:1001E00080936000109260000FBEE0E0F8E3099594
:1001F00012E0A0E0B1E0E4ECF1E502C005900D9260
:10020000A03EB107D9F724E0A0EEB2E001C01D92F4
:10021000A332B207E1F70E9456040C94E0280C9434
:10022000000088E190E0089580E090E00895611179
:1002300004C0FC018281811103C080E090E0089538
:1002400080EE90E00895FC018281882301F1611124
:100250001EC0423081F028F4442349F0413049F077
:100260000895443061F048F0453069F008950C94E9
:10027000BC210C94C3210C94DF210C94F62161E085
:100280008EE10C94402261E08EE10C94512208959D
:10029000462F672F0C949A26805C0E948E26089524
:1002A00089EE90E0089589EE90E008958AB1807C0F
:1002B0008AB98BB1807C8BB9089586E0089584E07B
:1002C000089580E885BF85BF0E94560180B38C7F6A
:1002D00080BB81B3836081BB6E98769A3F98479AC2
:1002E000A0EEB2E0E6EEF2E086E08E0F11921D92F3
:1002F0008E13FCCF0895FF920F931F93CF93DF933C
:1003000000EE12E0C0E0D1E085E0F82EC33099F0B5
:1003100028F4C13051F0C23059F004C0C43071F03B
:10032000C53079F0509A58980EC0519A59980BC020
:10033000529A5A9808C0539A5B9805C0549A5C9890
:1003400002C0559A5D9880EA8A95F1F78FB1817065
:100350008D27799902C092E001C090E0892B6699BF
:1003600002C094E001C090E0282F292B96B190950F
:10037000892F881F8827881F880F880F880F822B56
:10038000F8019081981719F08083F09200010E9483
:100390005601CF5F0F5F1F4FC63009F0B7CF809176
:1003A00000018823B1F0815080930001882339F047
:1003B0008FE99FE00197F1F700C000000AC0A6EEA8
:1003C000B2E0E0EEF2E0CF018A5F91919D938E134F
:1003D000FCCF81E0DF91CF911F910F91FF900895A5
:1003E000E82FF0E0EA51FD4F2081822F90E021E0DC
:1003F00030E002C0220F331F6A95E2F72823392329
:1004000081E0232B09F480E00895E82FF0E0EA5121
:10041000FD4F808108950895CF93C82F0E94411EFB
:10042000C73090F4C430E0F4C13090F10E945F1EF8
:100430000E94BE1E0E94FA1EEC2FF0E0EF5FFE4FFE
:100440008491CF910C94741EC730A9F0C83001F587
:100450000E945F1E0E94B81E0E94FA1E81E012C018
:100460000E945F1E0E94F41E0E94BE1E86E08C1B2E
:10047000CF910C94FF1E0E945F1E0E94B81E0E9426
:10048000FA1E80E00E94DB1E83E0CF910C94E91EEF
:100490000E94BE1E0E94FA1ECF910C94651E1F93EF
:1004A000CF93DF9300D000D01F92CDB7DEB7162FC9
:1004B0008091220480FF20C08E7F8E3041F466231D
:1004C00031F080E20E94EC1E80E10E94AA1E809121
:1004D00022048E7F803181F4112371F080E20E942A
:1004E000EC1E80E10F900F900F900F900F90DF9116
:1004F000CF911F910C94901E0F900F900F900F9022
:100500000F90DF91CF911F910895E82FF0E0EE0F4B
:10051000FF1FEB5FFE4F8591949108958091FC023F
:100520000895CF93DF9300D01F92CDB7DEB79C0123
:1005300080911804843019F593E099833B832A83D2
:100540009093E9008FEF9091E800815095FD06C0EF
:1005500095ED9A95F1F700008111F5CF8091E800B3
:1005600085FF0DC040E050E063E070E0CE010196F1
:100570000E94FC048091E8008E778093E8000F9041
:100580000F900F90DF91CF910895CF93DF9300D01C
:100590001F92CDB7DEB720911804243021F522E058
:1005A00029839B838A8383E08093E9008FEF909176
:1005B000E800815095FD06C095ED9A95F1F7000091
:1005C0008111F5CF8091E80085FF0DC040E050E03B
:1005D00063E070E0CE0101960E94FC048091E80087
:1005E0008E778093E8000F900F900F90DF91CF915E
:1005F0000895209118042430F1F422E02093E900BA
:100600002FEF3091E800215035FD06C035ED3A95C9
:10061000F1F700002111F5CF2091E80025FF0BC074
:1006200040E050E065E070E00E94FC048091E8004A
:100630008E778093E8000895CF93DF93EC0190913B
:100640001804943009F046C080910B018823D9F03A
:1006500080910C018823B9F09093E9008FEF90917D
:10066000E800815095FD06C095E19A95F1F70000EC
:100670008111F5CF8091E80085FF2CC040E050E06B
:1006800060E170E017C081E08093E9008FEF909106
:10069000E800815095FD06C095ED9A95F1F70000B0
:1006A0008111F5CF8091E80085FF14C040E050E053
:1006B00068E070E0CE010E94FC048091E8008E7733
:1006C0008093E80080E1FE01ACEEB2E001900D9273
:1006D0008A95E1F7DF91CF910895809117048111F8
:1006E00009C00E940F060E946A068091E2008460A1
:1006F0008093E2000895109217040895089542E04F
:1007000061EC81E00E94AA0542E061EC82E00E9477
:10071000AA0542E061EC83E00E94AA0542E161EC97
:1007200084E00C94AA0580911A04833009F455C022
:1007300030F4813071F0823009F48EC008958A302F
:1007400009F47AC08B3009F460C0893009F09CC08C
:1007500020C080911904813A09F096C08091E80088
:10076000877F8093E80080911D0490911E04892B5F
:1007700021F460E18CEE92E003C060E080E090E064
:1007800070E00E9447058091E8008B778093E80035
:10079000089580911904813209F076C080911D047A
:1007A00090911E04009719F0039709F06DC0809195
:1007B000E800877F8093E8008091E80082FD05C013
:1007C000809118048111F8CF5FC08091F10080936F
:1007D000FC028091E8008B7753C080911904813A24
:1007E00009F052C080911D0490911E04892B09F0DC
:1007F0004BC08091E800877F8093E8008091E800FB
:1008000080FFFCCF80910B0136C0809119048132AA
:10081000D9F580911D0490911E04892BA9F5809132
:10082000E800877F8093E8000E94BE0580911B044A
:1008300080930B010C94C30E80911904813221F531
:100840008091E800877F8093E8000E94BE05809138
:100850001C048093FD02089580911904813AA1F44B
:100860008091E800877F8093E8008091E80080FF16
:10087000FCCF8091FD028093F1008091E8008E779B
:100880008093E8000C94BE05089508950895089596
:100890000C9447040E94A11580911604882329F026
:1008A0000E94CE1581110C94E604089584B7877FC9
:1008B00084BF0FB6F894A8958091600088618093FA
:1008C0006000109260000FBE90E080E80FB6F894D0
:1008D00080936100909361000FBE0E9445040E94C6
:1008E00009090E940F060E946A068091E200846056
:1008F0008093E2007894809118048430E1F70E949C
:100900000B0981E091E00E94B5080E9446048091A5
:100910001804853019F40E944A04F9CF0E941D0979
:10092000F6CF0C94E2150C949104292F3327233031
:100930003105C1F05CF42130310579F02230310508
:10094000E9F58DE690E02AE531E03CC02132310541
:10095000C1F02232310511F131C082E190E027EC83
:1009600031E030C099278330910540F5FC01EE0F4E
:10097000FF1FE25DFE4F20813181FC01E55DFE4FEE
:100980001AC06430D8F4E62FF0E0EE0FFF1FED5DE3
:10099000FE4F2081318189E090E014C0643070F412
:1009A00070E0FB01EE0FFF1FE55EFE4F20813181FD
:1009B000FB01E95EFE4F808190E004C080E090E0A2
:1009C00020E030E0FA0131832083089580E189BD81
:1009D00082E189BD09B400FEFDCF8091D8008F7DF2
:1009E0008093D8008091E00082608093E000809145
:1009F000E00081FDFCCF0895CF92DF92EF92FF924D
:100A00000F931F93CF93DF93EC018B016A010E9438
:100A1000DD05811133C0C114D10439F0F6018081A4
:100A20009181081B190BC80FD91FE12CF12C01155E
:100A3000110519F18091E80085FD16C08091E8004C
:100A40008E778093E800C114D10449F0F6018081CB
:100A50009181E80EF91EF182E08285E00FC00E94CC
:100A6000DD05882321F30AC089918093F1000150AC
:100A70001109FFEFEF1AFF0ADACF80E0DF91CF9183
:100A80001F910F91FF90EF90DF90CF9008952091EC
:100A90001F04309120042617370748F061157105AF
:100AA00039F42091E8002E772093E80001C0B901C5
:100AB00040E061157105A9F120911804222309F481
:100AC00043C0253009F442C02091E80023FD40C016
:100AD0002091E80022FD32C02091E80020FFE9CFFC
:100AE0004091F3002091F20030E0342BFC01CF0163
:100AF0006115710559F02830310540F481918093DA
:100B0000F100615071092F5F3F4FF1CF41E0283074
:100B1000310509F040E02091E8002E772093E800AD
:100B2000C8CF4111C9CF0AC080911804882361F051
:100B3000853061F08091E80083FD0AC08091E80073
:100B400082FFF2CF80E0089582E0089583E0089567
:100B500081E008958F708093E900EBEEF0E08081F2
:100B600081608083EDEEF0E010826093EC004083C2
:100B70008091EE00881F8827881F089580911904AE
:100B800087FF11C08091E80082FD05C080911804A4
:100B90008111F8CF11C08091E8008B770BC0809154
:100BA0001804882349F08091E80080FFF8CF8091F5
:100BB000E8008E778093E80008952091E40030915A
:100BC000E50095E64091EC00842F817040FF22C043
:100BD0008091E80080FD1CC080911804882391F06A
:100BE000853091F08091EB0085FD10C04091E400CC
:100BF0005091E5004217530729F39A01915011F7DC
:100C000084E0089582E0089583E0089581E00895E6
:100C100080E008954091E80042FFDECF08950E94F1
:100C20007B060E948306E0EEF0E080818160808395
:100C3000E8EDF0E080818F77808319BCA7EDB0E00C
:100C40008C918E7F8C9380818F7E8083109217048D
:100C500008950F931F93CF93DF930E947B060E940A
:100C60008306C8EDD0E088818F778883888180688B
:100C7000888388818F7D888319BC10921804109214
:100C800015041092160400EE10E0F80180818B7FAD
:100C9000808388818160888342E060E080E00E94F8
:100CA000AA05E1EEF0E080818E7F8083E2EEF0E045
:100CB000808181608083808188608083F801808169
:100CC0008E7F8083888180618883DF91CF911F919F
:100CD0000F910895E8EDF0E080818F7E8083E7ED4D
:100CE000F0E080818160808384E082BF81E0809336
:100CF00017040C942906E8EDF0E080818E7F808354
:100D00001092E20008951092DA001092E100089526
:100D10001F920F920FB60F9211242F933F934F9370
:100D20005F936F937F938F939F93AF93BF93EF9353
:100D3000FF938091E10082FF0BC08091E20082FF6F
:100D400007C08091E1008B7F8093E1000E94B4088E
:100D50008091DA0080FF1FC08091D80080FF1BC007
:100D60008091DA008E7F8093DA008091D90080FF35
:100D70000DC080E189BD82E189BD09B400FEFDCFCF
:100D800081E0809318040E946D0305C019BC109285
:100D900018040E947B038091E10080FF19C08091BC
:100DA000E20080FF15C08091E2008E7F8093E20018
:100DB0008091E20080618093E2008091D80080629F
:100DC0008093D80019BC85E0809318040E944804E1
:100DD0008091E10084FF30C08091E20084FF2CC04C
:100DE00080E189BD82E189BD09B400FEFDCF80911B
:100DF000D8008F7D8093D8008091E1008F7E809312
:100E0000E1008091E2008F7E8093E2008091E20019
:100E100081608093E20080911504882311F084E0C2
:100E200007C08091E30087FD02C081E001C083E03C
:100E3000809318040E9493048091E10083FF29C0ED
:100E40008091E20083FF25C08091E100877F80933D
:100E5000E10082E080931804109215048091E10073
:100E60008E7F8093E1008091E2008E7F8093E2008C
:100E70008091E20080618093E20042E060E080E0E7
:100E80000E94AA058091F00088608093F0000E9483
:100E90007E03FF91EF91BF91AF919F918F917F91D1
:100EA0006F915F914F913F912F910F900FBE0F90D7
:100EB0001F9018951F920F920FB60F9211242F9327
:100EC0003F934F935F936F937F938F939F93AF93D2
:100ED000BF93CF93DF93EF93FF93C091E900CF705F
:100EE0008091EC00D82FD17080FDD0E81092E900FD
:100EF0008091F000877F8093F00078940E949E0795
:100F00001092E9008091F00088608093F000CD2B72
:100F1000CF70C093E900FF91EF91DF91CF91BF9126
:100F2000AF919F918F917F916F915F914F913F9181
:100F30002F910F900FBE0F901F9018951F93CF9376
:100F4000DF9300D0CDB7DEB7E9E1F4E088E08E0FA3
:100F50009091F10091938E13FBCF0E9493038091A7
:100F6000E80083FFEDC08091190490911A04492F85
:100F700050E04A30510508F0E3C0FA01EA5AFF4F49
:100F80000C94A928803881F0823809F0D9C080916A
:100F90001D048F708093E9008091EB0085FB88270A
:100FA00080F91092E90007C080911604882311F09F
:100FB00082E001C080E09091E800977F9093E80084
:100FC0008093F1001092F10095C0282F2D7F09F039
:100FD000B7C0882319F0823061F0B2C080911B0441
:100FE000813009F0ADC0933009F080E080931604A1
:100FF0002BC080911B04811127C080911D048F702C
:1010000009F49EC08093E9002091EB0020FF1CC0F2
:10101000933021F48091EB00806214C09091EB003A
:1010200090619093EB0021E030E0A90102C0440FF1
:10103000551F8A95E2F74093EA001092EA008091EA
:10104000EB0088608093EB001092E9008091E8004B
:10105000877F53C0811174C010911B041F7780914A
:10106000E3008078812B8093E3008091E800877F04
:101070008093E8000E94BE058091E80080FFFCCFCD
:101080008091E30080688093E300111102C082E048
:1010900001C083E08093180453C08058823008F068
:1010A0004FC0AE014F5F5F4F60911D0480911B04E4
:1010B00090911C040E949504BC01892B09F440C046
:1010C0009091E800977F9093E80089819A810E942F
:1010D00047058091E8008B778093E80031C0803825
:1010E00079F58091E800877F8093E800809115046E
:1010F0008093F1008091E8008E778093E8000E9451
:10110000BE051EC081111CC090911B049230C0F41A
:101110008091E800877F8093E800909315040E94F7
:10112000BE0580911504811106C08091E30087FD02
:1011300002C081E001C084E0809318040E947F0314
:101140008091E80083FF0AC08091E800877F809348
:10115000E8008091EB0080628093EB000F900F908D
:10116000DF91CF911F910895089590930303809389
:1011700002030895E0910203F0910303309721F0F8
:101180000190F081E02D099480E00895E091020340
:10119000F0910303309721F00280F381E02D099450
:1011A0000895E0910203F0910303309721F0048049
:1011B000F581E02D099408952091000330910103F9
:1011C0008217930771F09093010380930003E091DD
:1011D0000203F0910303309721F00680F781E02DA0
:1011E000099408952091FE023091FF02821793071F
:1011F00071F09093FF028093FE02E0910203F09160
:101200000303309721F00084F185E02D09940895BF
:1012100008950C9408090E940F160E9461010E9413
:1012200019180E94F2250E94F0230E942E1E0E948F
:101230008D220E946D210C944927CF92DF92EF926C
:10124000FF920F931F93CF93DF9300D000D000D075
:10125000CDB7DEB70E947B0185E0C82E83E0D82E93
:1012600000E010E0E02E802F0E940502F60141917F
:101270006F01F42EF826B1F40F5F1F4F06301105F1
:1012800089F78FEF89838A831B820E9418168160F9
:10129000782F9D838C8349815A816B818D810E9437
:1012A000C60947C09091610391FF04C08E830E94DC
:1012B0000B028E8120E030E04F2D50E0922FBA01DA
:1012C000022E02C0759567950A94E2F760FF2BC065
:1012D0002983EA8221E030E0690102C0CC0CDD1CE8
:1012E0009A95E2F790E08C219D21892B09F420E06A
:1012F0002B830E9418168160782F9D838C834981EF
:101300005A816B818D810E94C60949815A816B8106
:101310007C818D810E944F02F801EB5FFC4F808140
:10132000C826C08206C02F5F3F4F2430310531F6FA
:10133000A3CF0E949F150E94501B109104030E948E
:10134000BA081817A1F00E94BA08809304032696E1
:101350000FB6F894DEBF0FBECDBFDF91CF911F91C6
:101360000F91FF90EF90DF90CF900C947B24269606
:101370000FB6F894DEBF0FBECDBFDF91CF911F91A6
:101380000F91FF90EF90DF90CF900895CF93DF9370
:10139000CDB7DEB72B970FB6F894DEBF0FBECDBF2B
:1013A000942F4F83252F588769877A878B874A85A3
:1013B0005B85452B21F02F3F09F59F3FF9F4DE01B6
:1013C000119686E0FD0111928A95E9F785E0FE010C
:1013D000379601900D928A95E1F749815A816B8188
:1013E0007C818D819E810E945D112B960FB6F894B1
:1013F000DEBF0FBECDBFDF91CF9108954F815885DD
:1014000069857A858B850E944F02D9CFCF93882337
:1014100009F4CDC0C82F823859F40E94BA0881FD62
:10142000C6C089E30E94E8130E94791589E30CC0C5
:10143000833879F40E94BA0880FDB9C083E50E9420
:10144000E8130E94791583E50E94AD14CF910C94A6
:101450007915843859F40E94BA0882FDA8C087E43F
:101460000E94E8130E94791587E4EECF8CEF8C0F71
:10147000813A48F48C2F0E948A1D811198C08C2FCC
:101480000E94E813E3CF80E28C0F883048F4C770E5
:1014900081E001C0880FCA95EAF70E944815D6CFAF
:1014A0008BE58C0F833078F4C53A29F0C63A31F0D9
:1014B00083E890E005C081E890E002C082E890E017
:1014C000CF910C94DC0888E58C0F853108F06FC053
:1014D000C83A61F1C93A69F1CA3A71F1CB3A79F186
:1014E000CC3A81F1CD3A89F1CE3A91F1CF3A99F1E6
:1014F000C13BA1F1C03BA9F1C23BB1F1C33BB9F182
:10150000C43BC1F1C53BC9F1C63BD1F1C73BD9F1E1
:10151000C83BE1F1C93BE9F1CA3BF1F1CB3BF9F141
:10152000CC3B09F43FC080E090E03EC082EE90E00A
:101530003BC089EE90E038C08AEE90E035C085EB84
:1015400090E032C086EB90E02FC083EB90E02CC09F
:1015500084EB90E029C087EB90E026C08CEC90E013
:1015600023C08DEC90E020C083E891E01DC08AE8A4
:1015700091E01AC082E991E017C084E991E014C0BB
:1015800081E292E011C083E292E00EC084E292E038
:101590000BC085E292E008C086E292E005C087E2D7
:1015A00092E002C08AE292E0CF910C94F208CF91CF
:1015B0000895882309F44BC0823859F40E94BA0870
:1015C00081FF45C089E30E94E8130E94791589E3F1
:1015D0000CC0833871F40E94BA0880FF38C083E5DC
:1015E0000E94E8130E94791583E50E94AD140C94C3
:1015F0007915843859F40E94BA0882FF28C087E41C
:101600000E94E8130E94791587E4EFCF9CEF980FB2
:10161000913A58F390E2980F983050F4877091E027
:1016200001C0990F8A95EAF7892F0E944E15DFCFE6
:101630009BE5980F933020F480E090E00C94DC0858
:10164000885A853120F480E090E00C94F2080895E7
:10165000882321F00E9448150C9479150895882359
:1016600021F00E944E150C9479150895CF92DF92C7
:10167000EF92FF920F931F93CF93DF93CDB7DEB717
:1016800027970FB6F894DEBF0FBECDBF25E0FC0153
:10169000DE01119601900D922A95E1F7FC0140813F
:1016A00031810281258122952F7063817481672B9E
:1016B00009F448C33F3F19F44F3F09F443C36C0199
:1016C00049833A8389819A812F830E94A713182F17
:1016D0009E830E94A6130E94B6129E81E92FE29576
:1016E000EF70F0E0E05AFF4F2F810C94A928892F6A
:1016F000807F9F70F92E882319F0F29490EFF922E1
:10170000002349F0FF2009F45FC28F2D0E945B1572
:101710000E94791559C2812F0E94D90AFF2009F42D
:1017200011C38F2D0E94611527960FB6F894DEBF66
:101730000FBECDBFDF91CF911F910F91FF90EF9022
:10174000DF90CF900C947915892F807F9F70F92EB0
:10175000803219F0F29480EFF822112319F0113041
:1017600001F129C00023A9F08F2D222349F1213056
:1017700039F527960FB6F894DEBF0FBECDBFDF91C7
:10178000CF911F910F91FF90EF90DF90CF900C942D
:101790006B15222319F0213009F4D4C20E946E1572
:1017A0002CC00023E9F0263008F0CCC20E94451579
:1017B0008F2129F022C00023F1F0211115C08F2DB7
:1017C00027960FB6F894DEBF0FBECDBFDF91CF9145
:1017D0001F910F91FF90EF90DF90CF900C94280B0A
:1017E000253008F0AFC209C0F601858180FFECC149
:1017F0008F708583E4CF2111FBC18F2D69C1292F03
:1018000026952695237030E02115310521F02130F1
:101810003105C1F097C2002319F0812F937002C0E7
:1018200080E090E027960FB6F894DEBF0FBECDBFE4
:10183000DF91CF911F910F91FF90EF90DF90CF90AC
:101840000C94DC08002319F0812F937002C080E013
:1018500090E027960FB6F894DEBF0FBECDBFDF91A4
:10186000CF911F910F91FF90EF90DF90CF900C944C
:10187000F208812F002319F00E94581A02C00E941A
:10188000C01A27960FB6F894DEBF0FBECDBFDF910A
:10189000CF911F910F91FF90EF90DF90CF900C941C
:1018A000451B892F837009F079C001114BC2812F2C
:1018B000829586958770880F880F212F2F70C22EF2
:1018C000D12CE12CF12C082E04C0CC0CDD1CEE1C1C
:1018D000FF1C0A94D2F714FF12C04FE050E060E002
:1018E00070E004C0440F551F661F771F8A95D2F71A
:1018F0008A019B01009510952095309503C000E06A
:1019000010E09801969596959370492F50E0C90183
:10191000B80142305105D1F04330510559F16C29DD
:101920007D298E299F294130510541F127960FB617
:10193000F894DEBF0FBECDBFDF91CF911F910F9105
:10194000FF90EF90DF90CF900C94CB126C297D2903
:101950008E299F2927960FB6F894DEBF0FBECDBF04
:10196000DF91CF911F910F91FF90EF90DF90CF907B
:101970000C94DD120E94CB12C701B60127960FB658
:10198000F894DEBF0FBECDBFDF91CF911F910F91B5
:10199000FF90EF90DF90CF900C94B912002319F0D4
:1019A000892F817001C08695882309F4CBC1812FCE
:1019B000829586958770880F880F212F2F70C22EF1
:1019C000D12CE12CF12C082E04C0CC0CDD1CEE1C1B
:1019D000FF1C0A94D2F714FF12C04FE050E060E001
:1019E00070E004C0440F551F661F771F8A95D2F719
:1019F0008A019B01009510952095309503C000E069
:101A000010E09801969596959370492F50E0C90182
:101A1000B80142305105D1F04330510559F16C29DC
:101A20007D298E299F294130510541F127960FB616
:101A3000F894DEBF0FBECDBFDF91CF911F910F9104
:101A4000FF90EF90DF90CF900C9482136C297D294A
:101A50008E299F2927960FB6F894DEBF0FBECDBF03
:101A6000DF91CF911F910F91FF90EF90DF90CF907A
:101A70000C9494130E948213C701B60127960FB6E7
:101A8000F894DEBF0FBECDBFDF91CF911F910F91B4
:101A9000FF90EF90DF90CF900C947013103F41F1C6
:101AA00018F4103E48F48BC0123F09F450C0D8F12E
:101AB000133F09F460C083C01F70892F8F7100230A
:101AC00021F00E940913812F7BCE0E942A13812FBF
:101AD00027960FB6F894DEBF0FBECDBFDF91CF9132
:101AE0001F910F91FF90EF90DF90CF900C942F0BF0
:101AF0000023A9F0253008F025C1892F8F71279682
:101B00000FB6F894DEBF0FBECDBFDF91CF911F910E
:101B10000F91FF90EF90DF90CF900C944F132630F1
:101B200008F010C1EACF0023A1F0892F8F7127960A
:101B30000FB6F894DEBF0FBECDBFDF91CF911F91DE
:101B40000F91FF90EF90DF90CF900C94091300233A
:101B500061F3892F8F7127960FB6F894DEBF0FBE01
:101B6000CDBFDF91CF911F910F91FF90EF90DF904C
:101B7000CF900C942A13002391F0892F8F71279610
:101B80000FB6F894DEBF0FBECDBFDF91CF911F918E
:101B90000F91FF90EF90DF90CF900C94F412279666
:101BA0000FB6F894DEBF0FBECDBFDF91CF911F916E
:101BB0000F91FF90EF90DF90CF900C94EF120023E5
:101BC000A1F0222309F4B1CF812F27960FB6F89404
:101BD000DEBF0FBECDBFDF91CF911F910F91FF9060
:101BE000EF90DF90CF900C94060A222309F4B1CF36
:101BF000812F27960FB6F894DEBF0FBECDBFDF91C1
:101C0000CF911F910F91FF90EF90DF90CF900C94A8
:101C1000D90A492F4F70612FC6010E9417012796DC
:101C20000FB6F894DEBF0FBECDBFDF91CF911F91ED
:101C30000F91FF90EF90DF90CF900C940112011163
:101C400081C0112341F0892F8F70843021F0907F63
:101C5000212F2F70922B9F70892F90E08230910559
:101C6000E9F1ACF4009751F1019709F06BC02796A8
:101C70000FB6F894DEBF0FBECDBFDF91CF911F919D
:101C80000F91FF90EF90DF90CF900C94B7228330AC
:101C90009105A1F1049709F055C0812F27960FB641
:101CA000F894DEBF0FBECDBFDF91CF911F910F9192
:101CB000FF90EF90DF90CF900C94122327960FB6F1
:101CC000F894DEBF0FBECDBFDF91CF911F910F9172
:101CD000FF90EF90DF90CF900C949E2227960FB646
:101CE000F894DEBF0FBECDBFDF91CF911F910F9152
:101CF000FF90EF90DF90CF900C94D02227960FB6F4
:101D0000F894DEBF0FBECDBFDF91CF911F910F9131
:101D1000FF90EF90DF90CF900C94EF22492F4F70FF
:101D2000612FC60127960FB6F894DEBF0FBECDBF58
:101D3000DF91CF911F910F91FF90EF90DF90CF90A7
:101D40000C94230127960FB6F894DEBF0FBECDBFCB
:101D5000DF91CF911F910F91FF90EF90DF90CF9087
:101D600008950E9468150E9437150E9479150E94F7
:101D7000F51B0E94451B80E090E00E94DC0880E09B
:101D800090E00C94F2080E9458150C94B10E0E9439
:101D9000A713292F22952F7030E02C3031054CF4F9
:101DA0002A3031056CF4225031092230310588F493
:101DB00007C02C30310549F02F30310531F009C012
:101DC000803E48F0803F29F406C093FB882780F9C5
:101DD000089580E0089581E00895CF93DF9300D0C7
:101DE00000D01F92CDB7DEB70F900F900F900F90DD
:101DF0000F90DF91CF910895CF93DF9300D000D063
:101E000000D0CDB7DEB726960FB6F894DEBF0FBE72
:101E1000CDBFDF91CF9108951F93CF93DF93C091F2
:101E20000B0316E080910C03C81799F0D0E01C9FBB
:101E3000F0011D9FF00D1124E35FFC4F40815181A3
:101E400062817381848195810E94FC0E2196C77006
:101E5000E9CFDF91CF911F91089540913D035091BB
:101E60003E0360913F037091400380914103909144
:101E700042030C94FC0E8091420382958F7009F00E
:101E800054C080913F03882309F44FC080910B0315
:101E9000A0910C0360913D0370913E03409140037B
:101EA00050914103B6E08A1709F43FC090E0411514
:101EB0005105C1F17F3F11F46F3FA1F1B89FF001CF
:101EC000B99FF00D1124E35FFC4F218172132AC0EA
:101ED0002081621327C02281211124C023813481F3
:101EE0002417350710F421503109241B350B283CE9
:101EF0003105C0F4209142032F70206120934203EA
:101F000026E0289FF001299FF00D1124EE5EFC4F82
:101F100080818F70806180838DE393E00E94360B17
:101F20000C940C0F01968770BECF0895CF92DF926C
:101F3000EF92FF920F931F93CF93DF93CDB7DEB74E
:101F400062970FB6F894DEBF0FBECDBF8C0185E05F
:101F5000F801DE011D9601900D928A95E1F7D801F6
:101F60004C9111965C91119712966C911297139661
:101F7000CD90DC90149730913D0370913E03809199
:101F8000400390914103009709F46BC17F3F19F41E
:101F90003F3F09F466C1E0903F03EE2009F4C0C062
:101FA00020914203C816D90628F0F601E81BF90B68
:101FB000CF0104C0809590958C0D9D1DFF24F39456
:101FC000883C910578F0F12C207F09F0C6C07C2D6B
:101FD000D98AC88A89890E94ED0E8DE393E00E9418
:101FE000360BB1C0822F807F09F046C0751314C034
:101FF000341312C0611110C02F702061209342036E
:102000000E942D0F8DE393E00E94360B80914203D6
:10201000D80115968C932EC0CD2819F15F3F11F48D
:102020004F3FF9F0F62E61111CC080910B032091F7
:102030000C0336E0821709F45AC090E0389FF00193
:10204000399FF00D1124E35FFC4F7181571306C0D7
:102050007081471303C07281711103C001968770AC
:10206000E9CFF62E662309F418C1809142038160FE
:1020700080934203F12C11C1751308C0341306C0BC
:10208000611104C080914203D801C3C04D875E87AF
:102090008D859E856A8B0E94C70E6A898823E1F12F
:1020A0006623D1F120914203822F82958F7090E0B8
:1020B000029774F080913D0390913E0398878F833F
:1020C0001986DB86CA862C87CE0107960E94360BBE
:1020D00086E0F801ADE3B3E001900D928A95E1F757
:1020E0000E943B0F0E942D0FFF24F394D6C04D8712
:1020F0005E878D859E850E94A713292F22952F70BC
:1021000030E0223031050CF0BCC09F7009F0B6C041
:10211000805E883008F4C1C0C8010E94360BE4CF4D
:10212000C816D90608F453C0F601E81BF90BCF0115
:10213000883C910508F450C0F12C7C2DD98AC88ABE
:1021400089890E94ED0EEDE3F3E086E0DF011D9248
:102150008A95E9F70E942D0FA0C0751314C034139F
:1021600012C0611110C080914203F8018583C8013B
:102170000E94360B86E0EDE3F3E0DF011D928A95C5
:10218000E9F7FE2C8AC04D875E878D859E856A8B18
:102190000E94C70E6A89882309F4BECF662309F41A
:1021A000BBCF20914203822F82958F7090E00297DF
:1021B0000CF48ECF80913D0390913E039A838983E6
:1021C0001B82DD82CC822E83CE0101967FCF80954B
:1021D00090958C0D9D1DACCFF62E662309F49CCFF7
:1021E00075132EC034132CC02091420320FD1FC054
:1021F000822F82958F70D9F0D80115962C93159760
:102200008F3049F08F5F982F9295907F822F8F703B
:10221000892B15968C93C8010E94360B86E0F80135
:10222000ADE3B3E001900D928A95E1F793CF86E09C
:10223000F801ADE3B3E001900D928A95E1F72DC06E
:102240004D875E878D859E850E94C70E811140CF88
:1022500080914203816080934203C8010E94360B43
:102260001CC0662309F458CF4D875E878D859E85F7
:102270000E94C70E882309F44FCF2ACF811148CF7F
:102280000CC0243031050CF047CF9F7009F440CFCB
:10229000F8019581907F09F03BCF8F2D62960FB6A4
:1022A000F894DEBF0FBECDBFDF91CF911F910F918C
:1022B000FF90EF90DF90CF9008951F93CF93DF931F
:1022C000CDB7DEB72C970FB6F894DEBF0FBECDBFEB
:1022D0004F83588769877A878B879C87CE010796BB
:1022E0000E94960F882369F08F8198852A853B8507
:1022F000232BF1F19F3F09F063C08F3F09F060C0CD
:1023000037C086E0FE013796DE01119601900D92EE
:102310008A95E1F76F817885EA85FB85309741F1F1
:102320007F3F11F46F3F21F120910C0330E0C90190
:1023300001968770992740910B0350E08417950709
:1023400009F447C069837A83FD83EC8396E0929F0A
:10235000D001939FB00D1124A35FBC4FFE013196B5
:1023600001900D929A95E1F780930C030E940C0F57
:1023700016E080910B0390910C038917C1F1189F0F
:10238000C0011124835F9C4F0E94960F882379F12E
:10239000E0910B031E9FF0011124E35FFC4F40818D
:1023A000518162817381848195810E94FC0E8091AC
:1023B0000B0390E001968770992780930B03D9CF88
:1023C0004F81588569857A858B859C850E94FC0E96
:1023D000CFCF0E94C30E10920C0310920B03EDE3BB
:1023E000F3E086E0DF011D928A95E9F7C1CF2C96D4
:1023F0000FB6F894DEBF0FBECDBFDF91CF911F9116
:102400000895DF92EF92FF920F931F93CF93DF9384
:10241000FC01892B09F48AC0E12CF12CDD24D39432
:10242000EF0121968491853709F461C058F484370F
:1024300008F04EC0843008F06AC08130D1F082309C
:1024400071F174C0883709F45DC050F4863709F41F
:1024500055C0873709F06AC08E2D0E94551554C0AB
:102460009CE7980F903708F061C08F770E94D90AD7
:1024700050C08F010E5F1F4FFE01849190E2980FB4
:10248000983050F48770FD2D01C0FF0F8A95EAF750
:102490008F2F0E945B1514C00E94060A13C08F0183
:1024A0000E5F1F4FFE01C49180E28C0F883060F4F4
:1024B000C7708D2D01C0880FCA95EAF70E9461157B
:1024C0000E947915E80125C08C2F0E94D90AFACF05
:1024D0009F012E5F3F4FFE01C491CC2369F08FE92D
:1024E0009FE00197F1F700C00000C150F6CF9F01B7
:1024F0002E5F3F4FFE01F490E9010BC00E9445158D
:10250000E82E07C00E9458150E94791502C00E944B
:10251000060A8F2D882341F0EFE9FFE03197F1F7AC
:1025200000C000008150F6CFFE017ACFDF91CF913D
:102530001F910F91FF90EF90DF90089560934703F4
:10254000709348038093490390934A030E94D124D7
:102550000C94B10E6093430370934403809345033E
:10256000909346030E9430250C94B10E08950C946C
:102570009E120F931F9300914703109148032091DF
:10258000490330914A03602B712B822B932B1F91AF
:102590000F910C949E120F931F930091470310917B
:1025A00048032091490330914A0360237123822319
:1025B00093231F910F910C949E120F931F930091E0
:1025C0004703109148032091490330914A03602743
:1025D0007127822793271F910F910C949E1260E020
:1025E00070E0CB010C94AA120F931F9341E050E0CE
:1025F00060E070E08A019B0104C0000F111F221FE0
:10260000331F8A95D2F7C901B8011F910F910C941D
:10261000AA120F931F9341E050E060E070E004C005
:10262000440F551F661F771F8A95D2F78091430389
:1026300090914403A0914503B09146038A019B0108
:10264000082B192B2A2B3B2BC901B8011F910F9185
:102650000C94AA120F931F9341E050E060E070E0E9
:1026600004C0440F551F661F771F8A95D2F7409507
:102670005095609570958091430390914403A0918B
:102680004503B09146038A019B01082319232A239D
:102690003B23C901B8011F910F910C94AA120F930B
:1026A0001F9341E050E060E070E004C0440F551F0C
:1026B000661F771F8A95D2F7809143039091440358
:1026C000A0914503B09146038A019B010827192771
:1026D0002A273B27C901B8011F910F910C94AA1218
:1026E0000F931F93009143031091440320914503DE
:1026F00030914603602B712B822B932B1F910F91EE
:102700000C94AA120F931F9300914303109144035A
:102710002091450330914603602371238223932344
:102720001F910F910C94AA120F931F9300914303D2
:10273000109144032091450330914603602771278F
:10274000822793271F910F910C94AA120895CF927C
:10275000DF92EF92FF920F931F93CF93DF938C0141
:10276000C0904703D0904803E0904903F0904A039B
:102770004091430350914403609145037091460397
:10278000C42AD52AE62AF72ACFE1D0E0D701C6012C
:102790000C2E04C0B695A795979587950A94D2F705
:1027A00080FF07C0B8018C2F0E945417813091051B
:1027B00031F4219758F7B80180E00E945417DF9157
:1027C000CF911F910F91FF90EF90DF90CF900895E0
:1027D000CF92DF92EF92FF920F931F93CF93DF93ED
:1027E000C82F80910B018823E1F080910C01882390
:1027F000C1F08C2F8695869586958F3008F0A4C001
:10280000E0910D01F0910E01E80FF11DC77081E01C
:1028100090E001C0880FCA95EAF79181892B8183E6
:1028200093C0D0905E0330915C03E0910D01F09174
:102830000E01332309F473C040915D038D2D2FEFFA
:1028400096E0E92EF12C082F082E000C110BBF0189
:10285000600F711FDB0112969C919C1709F474C0E4
:102860002F3F19F4911101C0282FC801019606E0ED
:1028700010E0B7010E9495288413E5CFD22F4D11A7
:102880004EC02F3F69F4842F440F990B0196B80175
:102890000E94952880935E03315030935C033FC0C3
:1028A000822F220F990B0196B8010E949528282F9C
:1028B000FF24F39406E010E0022E000C330B6F01AE
:1028C000C20ED31ED60112965C91552391F08D2F26
:1028D000DD0F990BBF01680F791FDB0112965C9326
:1028E000D60112961C920196B8010E949528D82F05
:1028F00001C0F394C9010196B8010E949528282FC0
:102900008413DACF242F440F330B2F193109C90157
:10291000069666E070E00E94952880935D03209102
:102920005D03022E000C330BE20FF31FC283C901BB
:10293000019666E070E00E94952880935D03809187
:102940005C038F5F80935C03DF91CF911F910F91A8
:10295000FF90EF90DF90CF900895EF92FF920F934A
:102960001F93CF93C82F80910B018823E9F08091AA
:102970000C018823C9F08C2F8695869586958F301B
:1029800008F06FC0E0910D01F0910E01E80FF11D0C
:10299000C77081E090E001C0880FCA95EAF7809582
:1029A0009181892381835DC020915E0340915C0306
:1029B000442309F456C0E0910D01F0910E010091FD
:1029C0005D03002E000C110B86E0E82EF12C30E0A8
:1029D000DF01A20FB31FCD01029612965C915C132A
:1029E00036C0DC011C92415040935C03411104C08D
:1029F00010925E0310925D0340915D03842F042EBC
:102A0000000C990B059666E070E00E949528281747
:102A1000390739F5C0915E0306E010E0842F440FBA
:102A2000990B0596B8010E9495289C01482F0596A0
:102A3000B8010E949528DF01A80FB91F12968C914A
:102A4000811102C02C13EACF20935D030AC0C90193
:102A50000196B7010E949528282F8017910709F049
:102A6000B6CFCF911F910F91FF90EF90089581E025
:102A700090E0E0910D01F0910E01E80FF91F108236
:102A8000019680319105A9F708958091600308951A
:102A900090916003892B80936003089580959091B5
:102AA00060038923809360030895809360030895F1
:102AB00010926003089590915F03892B80935F03C8
:102AC0000895809590915F03892380935F03089513
:102AD00010925F03089580934B03089510924B0367
:102AE000089580910C01811103C080915C030895C9
:102AF0000895E0910D01F0910E01809160038083B3
:102B0000E0910D01F0910E01908180915F03892B7E
:102B1000808380914B03882361F0E0910D01F09157
:102B20000E019081892B80830E9471158111109272
:102B30004B0380910D0190910E010C94C6080895ED
:102B4000089580911804843031F11092620320E4DA
:102B500088E190E00FB6F894A895809360000FBECE
:102B6000209360000E944B1E83B7817F846083BFE7
:102B700083B7816083BF7894889583B78E7F83BF46
:102B80000FB6F894A89580916000886180936000EA
:102B9000109260000FBE089508950895CF930E948B
:102BA000CC150E947B010E94CD15C0E08C2F0E94A5
:102BB0000502811104C0CF5FC630C1F701C081E0BA
:102BC000CF9108950E94C30E0C948D221F920F92F4
:102BD0000FB60F9211248F939F93AF93BF93809161
:102BE0006203811113C08091630390916403A091EB
:102BF0006503B09166034196A11DB11D80936303E7
:102C000090936403A0936503B0936603BF91AF9163
:102C10009F918F910F900FBE0F901F90189582E09B
:102C200084BD93E095BD9AEF97BD80936E000895A3
:102C30002FB7F8948091630390916403A09165038A
:102C4000B09166032FBF0895CF92DF92EF92FF926B
:102C50000F931F932FB7F89440916303509164032F
:102C600060916503709166032FBF6A017B01EE24BA
:102C7000FF248C0120E030E0C016D106E206F30606
:102C800010F4415051099A01281B390BC9011F91B9
:102C90000F91FF90EF90DF90CF9008951F920F92C9
:102CA0000FB60F9211248F939F93AF93BF93809190
:102CB000630390916403A0916503B091660301964C
:102CC000A11DB11D8093630390936403A0936503DA
:102CD000B0936603BF91AF919F918F910F900FBEFC
:102CE0000F901F9018950E940F06F8942FEF87EA17
:102CF00091E6215080409040E1F700C0000087E05D
:102D000090EBDC018093230490932404A09325048A
:102D1000B09326049CE088E10FB6F894A8958093C0
:102D200060000FBE90936000FFCF8D3B50F4883A57
:102D300070F5853A18F58430F8F4813009F46CC0E8
:102D400068C0883E98F4803EB8F48F3B09F061C0BB
:102D50000E94C30E2FEF80E792E021508040904008
:102D6000E1F700C000000E94731653C0803F08F4D2
:102D700050C090E09065089590E00895853A09F478
:102D80004EC0863A09F44EC083E890E40895883A2C
:102D900009F44BC0893A09F44BC08A3A09F44BC094
:102DA0008B3A09F44BC08C3A09F44BC08D3A09F4C4
:102DB0004BC08E3A09F44BC08F3A09F44BC0813BAB
:102DC00009F44BC0803B09F44BC0823B09F44BC073
:102DD000833B09F44BC0843B09F44BC0853B09F4A9
:102DE0004BC0863B09F44BC0873B09F44BC0883B82
:102DF00009F44BC0893B09F44BC08A3B09F44BC032
:102E00008B3B09F44BC08C3B09F44BC080E094E44D
:102E1000089580E090E0089581E090E0089581E8D1
:102E200090E4089582E890E4089582EE94E4089591
:102E300089EE94E408958AEE94E4089585EB94E491
:102E4000089586EB94E4089583EB94E4089584EB6D
:102E500094E4089587EB94E408958CEC94E4089549
:102E60008DEC94E4089583E895E408958AE895E468
:102E7000089582E995E4089584E995E4089581E24E
:102E800096E4089583E296E4089584E296E4089532
:102E900085E296E4089586E296E4089587E296E452
:102EA00008958AE296E408950E944801803EA8F4BD
:102EB000803C00F5813309F45CC038F4893209F4B0
:102EC00052C08A3209F45BC05FC08933B1F08238E6
:102ED000A1F0853309F441C057C0833E41F128F485
:102EE000803E99F0823EB9F04FC0863E31F1873E78
:102EF00071F14AC00E944C0108959091210490FD07
:102F000002C091FF41C080EE3FC08091210480FF4C
:102F1000FACF89E339C08091210482FF0CC08091EF
:102F2000210484FF02C080E02FC083EE2DC0809179
:102F3000210482FFF4CF82EE27C08091210483FF19
:102F40000AC08091210484FDEECF87EE1DC08091E0
:102F5000210483FFF6CF86EE17C08091210485FF00
:102F600006C089E211C08091210485FFFACF85E374
:102F70000BC08091210486FF06C08AE205C08091C3
:102F8000210486FFFACF81E30E9495160895CF921F
:102F9000DF92EF92FF920F931F93CF936C01C0E0EB
:102FA0008C2F0E94050200E010E0E82EF12CC701F2
:102FB000002E02C0959587950A94E2F780FF16C00F
:102FC000602F7C2F80E00E9454179C018C159D057A
:102FD00059F0832F807E932F907C11F0803A31F44A
:102FE00030E02C153D0511F481E009C00F5F1F4F43
:102FF00004301105E1F6CF5FC63091F680E0CF9145
:103000001F910F91FF90EF90DF90CF900895CF9395
:10301000DF93EC0180EC90E00E94C717882329F031
:10302000CE01DF91CF910C94C71780E0DF91CF9153
:103030000895CF930E949519811102C00E946619CC
:10304000C5E6C15049F00E947B018FE39CE90197DE
:10305000F1F700C00000F5CF89E290E00E94071868
:10306000811132C18AE290E00E940718882341F062
:103070000E948F190E9466190E94CF260E942D2659
:1030800085E090E00E94071881110E9473160E944B
:10309000A0150E94A0198093610387E090E00E9430
:1030A00007188823C1F18BE190E00E94071888235C
:1030B00051F08091610381FB222720F991E0922752
:1030C00090FB81F90FC08EE090E00E9407188823E2
:1030D00061F08091610382FB222720F991E0922721
:1030E00090FB82F98093610316C080E190E00E941A
:1030F000071890916103882341F093FB222720F960
:1031000081E0822780FB93F904C0892F809580FBA2
:1031100090F990936103809161030E94A4190E9429
:10312000B2198093210480EE90E00E940718882352
:1031300041F080912104982F909590FB80F9809325
:10314000210489E390E00E940718882359F08091B8
:10315000210481FB222720F991E0922790FB81F93D
:103160008093210482EE90E00E940718882359F092
:103170008091210482FB222720F991E0922790FB85
:1031800082F98093210486EE90E00E94071888233C
:1031900059F08091210483FB222720F991E09227A6
:1031A00090FB83F98093210483EE90E00E9407183E
:1031B000882359F08091210484FB222720F991E093
:1031C000922790FB84F98093210485E390E00E948C
:1031D0000718882359F08091210485FB222720F9C4
:1031E00091E0922790FB85F98093210481E390E0A0
:1031F0000E940718882359F08091210486FB22271A
:1032000020F991E0922790FB86F98093210481E1D7
:1032100090E00E940718882359F08091210487FBD1
:10322000222720F991E0922790FB87F980932104CF
:10323000809121040E94B6198091210487FB882780
:1032400080F980930C0187E290E00E940718C82F54
:103250008EE190E00E9407188111C2608FE190E03A
:103260000E9407188111C46080E290E00E94071854
:103270008111C86081E290E00E9407188111C0614D
:1032800082E290E00E9407188111C06283E290E020
:103290000E9407188111C06484E290E00E94071820
:1032A000882311F0C06802C0CC2329F08C2F0E9423
:1032B000AD196C2F03C00E94A919682F70E080E03F
:1032C00090E0CF910C94B712CF9108956DEE7EEF00
:1032D00080E090E00E94CB2860E082E090E00E94D5
:1032E000BD2860E083E090E00E94BD2860E084E0BB
:1032F00090E00E94BD2860E085E090E00E94BD283B
:1033000060E086E090E00E94BD2860E087E090E009
:103310000E94BD2860E088E090E00C94BD286FEF2B
:103320007FEF80E090E00C94CB2880E090E00E945A
:10333000B72821E08D3E9E4F09F020E0822F0895AE
:1033400082E090E00C94AF28682F82E090E00C942B
:10335000BD2883E090E00C94AF28682F83E090E0D4
:103360000C94BD2884E090E00C94AF28682F84E092
:1033700090E00C94BD2886E090E00C94AF28682F74
:1033800086E090E00C94BD2887E090E00C94AF2894
:10339000682F87E090E00C94BD2888E090E00C94C2
:1033A000AF28682F88E090E00C94BD2880916903D5
:1033B00080FF0BC06091120185E0689FB00111246D
:1033C00075956795759567952BC081FF09C06091CC
:1033D000120185E0689FB00111247595679520C0A2
:1033E00082FF07C06091120185E0689FB00111243F
:1033F00017C090916A039923D1F06091110196173B
:1034000088F72091120185E0289F90011124929F56
:10341000A001939F500D112470E0CA010E949528CD
:103420006038710540F46115710539F002C065E03E
:1034300070E0862F08958FE7089581E008958091C8
:10344000690380FF08C06091100170E07595679571
:103450007595679521C081FF06C06091100170E0ED
:103460007595679519C082FF04C06091100170E0E6
:1034700010C090916A039923C1F060910F019617D3
:10348000A0F780911001899FC001112470E00E9473
:1034900095286038710528F46115710521F0862F93
:1034A00008958FE7089581E0089561E070E0F4CF1A
:1034B000803F21F40E94D619819504C0813F29F4F0
:1034C0000E94D61980936D030895823F21F40E94D3
:1034D000D619819504C0833F29F40E94D6198093A0
:1034E0006C030895893F19F40E941F1A05C08A3F92
:1034F00031F40E941F1A819580936E0308958B3FCB
:1035000021F40E941F1A819504C08C3F29F40E9467
:103510001F1A80936F030895843F21F480916B03F9
:10352000816017C0853F21F480916B03826011C0D8
:10353000863F21F480916B0384600BC0873F21F4A8
:1035400080916B03886005C0883F31F480916B03E4
:10355000806180936B0308958D3F21F4809169030E
:1035600081600BC08E3F21F480916903826005C0A9
:103570008F3F29F4809169038460809369030895E3
:10358000803F39F480916D0387FF6CC010926D030A
:1035900069C0813F29F480916D031816BCF362C0A5
:1035A00090916C03823F29F497FF5CC010926C03EA
:1035B00059C0833F19F41916CCF354C0893F41F424
:1035C00080916E0318160CF04DC010926E034AC025
:1035D0008A3F29F480916E0387FF44C0F6CF8B3F6A
:1035E00039F480916F0387FF3DC010926F033AC09A
:1035F0008C3F29F480916F031816BCF333C0843FCD
:1036000021F480916B038E7F17C0853F21F4809158
:103610006B038D7F11C0863F21F480916B038B7FFC
:103620000BC0873F21F480916B03877F05C0883FE3
:1036300031F480916B038F7E80936B0313C08D3FB9
:1036400021F4809169038E7F0BC08E3F21F480911D
:1036500069038D7F05C08F3F29F4809169038B7FBB
:103660008093690380916C0381110EC080916D037A
:1036700081110AC080916E03811106C080916F0391
:10368000811102C010926A0308958BE693E00E94B4
:10369000D1080E94181690936803809367030895D9
:1036A0001F93CF93DF9380916703909168030E94EB
:1036B0002416AC0190916A03992321F02091130103
:1036C00030E006C0209114018AE0289F9001112467
:1036D0004217530708F485C080916C03C0916D03B5
:1036E000D0916E0310916F03811107C0C11175C095
:1036F000D11173C0111171C074C09F3F19F09F5F49
:1037000090936A03181624F40E94D61980936C03D0
:1037100080916C0387FF05C00E94D6198195809324
:103720006C031C1624F40E94D61980936D038091BB
:103730006D0387FF05C00E94D619819580936D03A4
:1037400060916C03662331F1C0916D03CC2311F1BC
:10375000062E000C770B880B990B0E94882723E319
:1037600033E343E35FE30E94EC270E94502760931A
:103770006C036C2FCC0F770B880B990B0E9488275A
:1037800023E333E343E35FE30E94EC270E945027E7
:1037900060936D031D1624F40E941F1A80936E031C
:1037A00080916E0387FF05C00E941F1A8195809348
:1037B0006E03111624F40E941F1A80936F038091E8
:1037C0006F0387FF05C00E941F1A819580936F03C6
:1037D000DF91CF911F910C94451B9F3F09F08FCF34
:1037E00097CFDF91CF911F910895EBE6F3E085E04D
:1037F000DF011D928A95E9F710926A03109269031E
:103800000895833081F128F4813059F08230D1F06D
:103810000895853009F449C0B8F1863009F456C0DE
:10382000089580911401262F30E0280F311D2F3F7D
:10383000310524F4680F6093140108958FEF80938D
:103840001401089580911301262F30E0280F311DB7
:103850002F3F310524F4680F6093130108958FEF13
:1038600080931301089580911201262F30E0280FD4
:10387000311D2F3F310524F4680F60931201089524
:103880008FEF80931201089580911101262F30E06F
:10389000280F311D2F3F310524F4680F609311016B
:1038A00008958FEF80931101089580911001262FC4
:1038B00030E0280F311D2F3F310524F4680F60934D
:1038C000100108958FEF80931001089580910F01EA
:1038D000262F30E0280F311D2F3F310524F4680FCB
:1038E00060930F0108958FEF80930F010895833047
:1038F00011F128F4813049F0823091F0089585303B
:1039000081F120F18630C1F108958091140168178A
:1039100020F4861B809314010895109214010895D9
:1039200080911301681720F4861B8093130108957A
:1039300010921301089580911201681720F4861BDC
:10394000809312010895109212010895809111013F
:10395000681720F4861B80931101089510921101BD
:10396000089580911001681720F4861B8093100140
:10397000089510921001089580910F01681720F4A6
:10398000861B80930F01089510920F0108950F93E5
:103990001F938B3109F475C0A0F58E3009F484C0F3
:1039A000C0F4873009F462C068F4863009F0AAC018
:1039B00080916103817F8E7F8093610381E080939A
:1039C0007103A1C0883009F44AC08B3009F498C053
:1039D00099C0813109F472C068F4803109F092C055
:1039E0008091610383FB222720F991E0922790FBCD
:1039F00083F950C0863109F483C0893109F480C04D
:103A000081C0853309F463C068F4873209F45FC06C
:103A100028F48E3108F476C08D515FC0893209F4E4
:103A200056C070C0833438F48A3308F055C08833E8
:103A300009F466C067C0833409F449C0883409F0CA
:103A400061C00E94C30E0FEF13ED20E30150104040
:103A50002040E1F700C000000E94731651C00E9490
:103A6000A0190E94B2190E94BB194AC0909161032B
:103A7000892F817090FF12C0917F9E7F9093610388
:103A800042C08091610381FB222720F991E09227B7
:103A900090FB81F980936103992391F180916103F7
:103AA0008160809361032CC08091610382FB222797
:103AB00020F991E0922790FB82F9ECCF0E94C30E8F
:103AC00090910C0181E0892780930C0119C061E07D
:103AD00070E080E090E010C0895341E050E060E089
:103AE00070E08A019B0104C0000F111F221F331FC9
:103AF0008A95D2F7C901B8010E94B7120E94C30E7D
:103B000081E001C080E01F910F91089580E0089549
:103B100080E00895CF93C82F809171038130A1F088
:103B200020F0823009F444C08FC060E080E00E9441
:103B3000F001882309F48AC063E080E00E94F0016C
:103B4000882309F483C00CC060E080E00E94F0018B
:103B5000882391F063E080E00E94F001882361F007
:103B60008C2F0E94861D811104C08C2F0E94C71CBF
:103B70001DC081E090E01AC08C2F0E94881D811129
:103B800014C0C43179F048F4CB3079F0C03109F079
:103B900061C082E08093710308C0C93219F0C83354
:103BA00021F058C01092710355C081E0817054C05B
:103BB000C93291F120F5C43179F1B0F4C73009F080
:103BC00047C08EE18093140182E3809313018AE061
:103BD0008093120184E18093110188E080931001A9
:103BE00088E280930F0134C0CE51C63088F5EC2FA7
:103BF000F0E0EB52FD4F80818093700329C0CE34FA
:103C0000E9F020F4CB3421F56AE013C0C13579F036
:103C1000C235F1F461E00DC080917003882319F082
:103C20001092700315C081E08093710315C061E0AC
:103C300006C0809170030E94011C0AC06AE0809156
:103C400070030E94771C04C01092710380E004C0CE
:103C500081E002C080E0AACFCF910895E1E8F0E0D2
:103C60008081886080838081816080838FB7F894B1
:103C700093E09093890090ED909388008FBF0C940F
:103C80008F25EFE6F0E080818260808381E0809381
:103C900092030C94AA25CF9380916F008D7F80931F
:103CA0006F0010929203C0E08C2F0E949D25CF5F81
:103CB000C530D1F780919203CF910C94AA258091C1
:103CC00091038F61809391030895CF931092910394
:103CD000C0E08C2F0E949D25CF5FC530D1F7809129
:103CE0009203CF910C94AA25E7E8F3E080838183C7
:103CF0008283838384830895E82FF0E0E957FC4FA3
:103D00002081422F50E08FEF90E0861B91098417AD
:103D100095071CF48FEF80830895620F60830895E8
:103D2000CF93DF93D82FC0E06D2F8C2F0E947C1E85
:103D3000CF5FC530C9F7DF91CF910895E82FF0E04C
:103D4000E957FC4F8081861710F410820895861B76
:103D500080830895CF93DF93D82FC0E06D2F8C2FF1
:103D60000E949E1ECF5FC530C9F7DF91CF910895A5
:103D7000809186038F618093860308951092860355
:103D800008954091850321E030E0662341F001C0B1
:103D9000220F8A95EAF7242B209385030895B90111
:103DA00002C0660F771F8A95E2F7CB0180958423C6
:103DB000809385030895CF93DF93D82FC0E06D2FB4
:103DC0008C2F0E94C11ECF5FC530C9F7DF91CF9104
:103DD0000895809384030895EFE7F3E0808381835F
:103DE000828383838483089580917E038F6180938F
:103DF0007E03089510927E0310927D0308958093B0
:103E00007C0308951F920F920FB60F921124EF9228
:103E1000FF920F931F932F933F934F935F936F9353
:103E20007F938F939F93AF93BF93CF93DF93EF9342
:103E3000FF93809175038F5F809375030CE813E007
:103E4000C0E0D0E0FC2E2091910330E00C2E02C0A7
:103E5000369527950A94E2F720FF1AC080917503E2
:103E600081110DC0F8018081882319F08C2F0E94E8
:103E70009025FE01E957FC4F8081F80180839091E5
:103E80007503F8018081981303C08F2D0E949D2532
:103E900021960F5F1F4FC530D105A1F680917403A5
:103EA0008F5F803418F480937403AEC01092740353
:103EB000E0908603E11005C090917E0391113BC014
:103EC00065C0809173038F5F809373039091840327
:103ED000981790F7109273030FE713E0C0E0D0E05B
:103EE000F12CC7010C2E02C0969587950A94E2F733
:103EF00080FF1AC0F8018081882319F081508083E7
:103F000013C08091850390E00C2E02C09695879592
:103F10000A94E2F761E080FF04C08C2F0E949E1E8D
:103F200003C08C2F0E947C1E21960F5F1F4FC5304F
:103F3000D105B9F6C1CF809172038F5F8093720370
:103F400020917C03281710F510927203409176039C
:103F500050917D03A7E7B3E020E030E0C1E0D0E07E
:103F6000692F70E0022E02C0769567950A94E2F7F9
:103F700060FD0FC02F5F3F4F11962530310581F74F
:103F800090937E034093760350937D030E946122B9
:103F90003BC08C91E82FF0E0E15FFE4F0491B90146
:103FA00069577C4FFB010083642F70E0022E02C032
:103FB000769567950A94E2F760FF19C0811115C0E4
:103FC000BE01022E01C0660F0A94EAF760954623EF
:103FD000E52FF0E0022E02C0F695E7950A94E2F78D
:103FE000E0FFC8CF96235623C5CF81500BC08F3733
:103FF00041F4BE01022E01C0660F0A94EAF7462B77
:10400000B9CF8F5F8C93B6CFFF91EF91DF91CF91B6
:10401000BF91AF919F918F917F916F915F914F91E0
:104020003F912F911F910F91FF90EF900F900FBE36
:104030000F901F90189525B1242B35B1542F509512
:10404000352354B1452B44B94FB7F894FC01CB014B
:10405000880F991F680F791F6E0F7F1FE617F707EC
:1040600089F0819198E025B9000000C087FF35B93B
:10407000880F000000C000C000C035B900C09A958C
:1040800091F7ECCF4FBF089521B3242B31B3542FB8
:104090005095352350B3452B40BB4FB7F894FC01E6
:1040A000CB01880F991F680F791F6E0F7F1FE617CE
:1040B000F70789F0819198E021BB000000C087FFDD
:1040C00031BB880F000000C000C000C031BB00C081
:1040D0009A9591F7ECCF4FBF0895EF92FF920F930F
:1040E0001F93CF93DF9300D000D01F92CDB7DEB7E0
:1040F000F90170E0869F9001879F300D1124232FD6
:104100003327042F10E0209FD001219FB00D309F56
:10411000B00D112420E031E07901E61AF70AE09EA3
:104120009001E19E300DF09E300D11243C833983C7
:10413000832F8B0F8D838A834B1B4B83892F90E0BA
:1041400063E070E00E948128DE01A80FB91F13967A
:104150002C912183DE01A80FB91F12962C91208388
:10416000DE01A80FB91F11968C9182830F900F90DA
:104170000F900F900F90DF91CF911F910F91FF90B3
:10418000EF900895DF92EF92FF920F931F93CF93DA
:10419000DF9300D01F92CDB7DEB7809196038823BE
:1041A00009F445C0D12CE12C43E0F42E60911501B7
:1041B000D61660F50D2D10E070E0C7010E9495281D
:1041C000609FF001619FF00D709FF00D11248091B0
:1041D0009703909198039E012F5F3F4F40919A0360
:1041E000609199038E0F9F1F0E946D20F801EE0FC2
:1041F000FF1F0E0F1F1FF801E556FC4F89819A81A2
:10420000AB8180839183A283D394D0CF6091150139
:104210008BE993E00E94AF250F900F900F90DF91F4
:10422000CF911F910F91FF90EF90DF9008959E0125
:104230002F5F3F4F40919A036091990380919703BC
:10424000909198030E946D2020E08091150128171D
:10425000E8F6822F90E0FC01EE0FFF1F8E0F9F1FEC
:10426000FC01E556FC4F89819A81AB818083918363
:10427000A2832F5FEACF811103C010929A0306C078
:104280009091160190939A038830D8F41092FD0310
:1042900010929603882399F0873019F410929903AD
:1042A0000EC090E001979695982F8827979587954F
:1042B00090939803809397038FEF809399030C94C6
:1042C000C2209FEF9093990391E09093FD03893072
:1042D00008F490E0909396030895CF93109298037A
:1042E000109297038FEF80939903CFE0C0939A03C6
:1042F0000E94C4198093FB030E94CD198F3018F0DF
:104300008093160102C0C09316018091FB0387FFC2
:1043100007C08F770E943B218091FB038F7704C0F9
:1043200080E00E943B2180E00E943B2181E080935D
:10433000FC03CF9108958091FB0380688093FB0379
:10434000982F9F7721F4807881608093FB03809180
:10435000FB038F770E943B218091FB030C94C819CB
:104360008091FB038F778093FB0380E00E943B21C9
:104370008091FB030C94C8198091FB0387FD0C947A
:10438000B0210C949B218091FB03982F9F7791F093
:1043900091589F778078892B8093FB038F7791E0EA
:1043A00009F490E08091FB0390FB87F98093FB0375
:1043B0000E94C8198091FB038F770C943B21809158
:1043C000FB03982F9F77292F30E0293031054CF4DB
:1043D0009F5F9F778078892B80688093FB030E9482
:1043E000C8198091FB038F770C943B219091FB03BC
:1043F00081E0890F8F7790788A3020F4892B809321
:10440000FB0302C09093FB038091FB038F7791E045
:1044100009F490E08091FB0390FB87F98093FB0304
:104420000E94C8198091FB038F770C943B21813245
:1044300008F080E2809315018091FC03882329F025
:104440008091FB0387FD0C94C22008959091FC039A
:104450009923A9F08F3008F48FE08093160166232A
:1044600021F0809116010E94D1198091FB0387FFF2
:1044700006C08091160180939A030C94C22008957F
:1044800090911601292F30E02E503109482F50E02D
:10449000421753071CF4981B892F01C08FE00C941E
:1044A000262290911601492F50E02FEF30E0281B73
:1044B00031092417350714F0890F01C08FEF0C94D0
:1044C00026228091FD03882339F1809195038F5F27
:1044D000809395039091FD039817F0F41092950343
:1044E0008091930390919403909398038093970302
:1044F0000E94C220809193039091940301968115AC
:1045000023E0920728F490939403809393030895F3
:10451000109294031092930308950E9495198111AB
:1045200002C00E9466190E94BB198093220480FF7A
:1045300002C0869501C080E00C940C028091220498
:1045400080FF14C0982F9695292F30E02830310530
:1045500044F49F5F990F8170892B809322040E94FD
:10456000BF198091220486950C940C0208958091C5
:10457000220480FF14C0982F9695292F30E0223016
:10458000310544F09158990F8170892B8093220452
:104590000E94BF198091220486950C940C02089504
:1045A00080912204982F9095917090FB80F98093D0
:1045B0002204992339F0982F9E7F21F48170826024
:1045C00080932204809122040E94BF1980912204CA
:1045D00080FF02C0869501C080E00C940C0290918F
:1045E0002204892F86958F5F8F779170893028F408
:1045F000880F892B8093220402C09093220480911B
:1046000022048E7F91E009F490E08091220490FBD7
:1046100080F9809322040E94BF198091220486951C
:104620000C940C02880F909122049170892B809336
:1046300022048E7F91E009F490E08091220490FBA7
:1046400080F9809322040E94BF19809122048695EC
:104650000C940C02823079F028F4882341F08130E8
:1046600041F00895833049F0843049F008952A9A42
:1046700008958F9A08958E9A08958D9A08952D9A87
:104680000895823079F028F4882341F0813041F098
:104690000895833049F0843049F008952A980895A8
:1046A0008F9808958E9808958D9808952D9808955F
:1046B0002091030430E0082E02C0369527950A9415
:1046C000E2F720FD0C942A230C944123209103044B
:1046D00030E0082E02C0369527950A94E2F720FDB7
:1046E0000C9441230C942A23CF93DF93229A879A28
:1046F000869A859A259AC0E0D0E08091040490E0E3
:104700000C2E02C0969587950A94E2F780FD03C0AF
:104710008C2F0E9466232196C530D10571F7DF9159
:10472000CF910895EF92FF920F931F93CF93DF9352
:1047300000910A040827611102C009F44AC0C0E0D0
:10474000D0E0E62EF82E10E08C2F9C2F2091040450
:1047500030E00C2E02C0369527950A94E2F720FD32
:1047600031C02091910330E00C2E02C03695279580
:104770000A94E2F720FF0BC02091060430E00C2ED3
:1047800002C0369527950A94E2F720FD1BC0E11080
:1047900009C09801092E02C0369527950A94E2F7C0
:1047A00020FF10C0209105042F2530E002C036956F
:1047B00027959A95E2F720FF03C00E94582302C074
:1047C0000E9466232196C530D10509F0BDCFF09235
:1047D0000A04DF91CF911F910F91FF90EF90089500
:1047E000FF920F931F93CF93DF93C0E0D0E0F12CA3
:1047F00001E010E08C2F0E94432697FF14C0909197
:10480000040498010C2E01C0220F0A94EAF7292B08
:1048100020930404FE01E250FC4F8083F81608F058
:1048200057C0F82E55C096FF0BC080910304980125
:104830000C2E01C0220F0A94EAF7282B20930304C0
:1048400094FF0BC08091050498010C2E01C0220F2B
:104850000A94EAF7282B2093050495FF0BC080915A
:10486000060498010C2E01C0220F0A94EAF7282BA7
:10487000209306049F70292F30E02230310589F003
:1048800023303105D1F02130310511F50C2E01C056
:10489000220F0A94EAF790910804292B2093080428
:1048A00017C08091070498010C2E01C0220F0A94B2
:1048B000EAF7282B209307040BC080910904980184
:1048C0000C2E01C0220F0A94EAF7282B209309042A
:1048D0002196C530D10509F08DCF0E94742361E087
:1048E00080E00E9492238F2DDF91CF911F910F9135
:1048F000FF900C941722CF92DF92EF92FF920F93CA
:104900001F93CF93DF9390910904992309F440C03A
:1049100010910A04C0E0D0E0E82EF12CCC24C3941E
:10492000D12C0C2F8091090490E00C2E02C096959A
:1049300087950A94E2F780FF1BC0802F0E944326D0
:10494000970102C0359527958A95E2F720FF08C0A8
:10495000C6010C2E01C0880F0A94EAF7182B08C074
:10496000C6010C2E01C0880F0A94EAF7809518231F
:104970002196C530D105A9F660E0812FDF91CF9156
:104980001F910F91FF90EF90DF90CF900C949223A6
:10499000DF91CF911F910F91FF90EF90DF90CF901B
:1049A0000895AF92BF92CF92DF92EF92FF920F9352
:1049B0001F93CF93DF9320910804222309F445C06D
:1049C0006B017C0110910A04C0E0D0E0AA24A394FA
:1049D000B12C0C2F8091080490E00C2E02C096950B
:1049E00087950A94E2F780FF1EC0802F0E9443261D
:1049F000A701960104C056954795379527958A9546
:104A0000D2F720FF08C0C5010C2E01C0880F0A9400
:104A1000EAF7182B08C0C5010C2E01C0880F0A94B4
:104A2000EAF7809518232196C530D10591F660E00C
:104A3000812FDF91CF911F910F91FF90EF90DF9029
:104A4000CF90BF90AF900C949223DF91CF911F91A4
:104A50000F91FF90EF90DF90CF90BF90AF900895AF
:104A6000AF92BF92CF92DF92EF92FF920F931F937C
:104A7000CF93DF9320910704222309F445C06B01F3
:104A80007C0110910A04C0E0D0E0AA24A394B12CC8
:104A90000C2F8091070490E00C2E02C0969587950C
:104AA0000A94E2F780FF1EC0802F0E944326A701D0
:104AB000960104C056954795379527958A95D2F764
:104AC00020FF08C0C5010C2E01C0880F0A94EAF728
:104AD000182B08C0C5010C2E01C0880F0A94EAF7F4
:104AE000809518232196C530D10591F660E0812F7D
:104AF000DF91CF911F910F91FF90EF90DF90CF90BA
:104B0000BF90AF900C949223DF91CF911F910F91A2
:104B1000FF90EF90DF90CF90BF90AF9008950895F1
:104B20002091060430E0082E02C0369527950A949D
:104B3000E2F720FD0C94582308952091060430E0FC
:104B4000082E02C0369527950A94E2F720FD0C94B2
:104B50006623089561E080910A040C9492230F93D8
:104B60001F93CF93DF938C01C0E0D0E02091040429
:104B700030E00C2E02C0369527950A94E2F720FF0C
:104B800028C0C23091F018F4C13051F004C0C330D5
:104B900089F0C430B9F06091FE0370E044E016C0C3
:104BA0006091FF0370E040E809C06091000470E08C
:104BB00040E404C06091010470E040E2C8010E943A
:104BC000442007C06091020470E040E2C8010E94E6
:104BD0001B202196C530D10549F6DF91CF911F9159
:104BE0000F910895CF92DF92EF92FF920F931F9350
:104BF000CF93DF930BE014E0C9E0D0E0E12CF12C7F
:104C0000CE010E94B728F80191838083019699F420
:104C1000C701880F991F9C01255F3B4F69018E2DAD
:104C20000E948502F60191838083F8016081718181
:104C3000CE010E94CB28FFEFEF1AFF0A22960E5FEB
:104C40001F4FC331D105E1F6DF91CF911F910F9135
:104C5000FF90EF90DF90CF9008950F931F93CF9325
:104C600009E010E0C0E08C2F0E948502BC01C80161
:104C70000E94CB28CF5F0E5F1F4FC530A1F7CF91A9
:104C80001F910F910895E82FF0E0EE0FFF1FE55FF1
:104C9000FB4F808191810895CF92DF92EF92FF9236
:104CA0000F931F93CF9383E190E00E94B7288C016C
:104CB000C12CD12C2DEEE22E2EEFF22E0E945D01A2
:104CC000C82F0E945F01C89FC00111249C0185E08C
:104CD000220F331F8A95E1F7205C3F4FC216D3069F
:104CE00080F4C60145960E94AF28282F30E0C0FE10
:104CF00002C0322F2227E20EF31E8FEFC81AD80A05
:104D0000DDCF81E00E151F0509F080E0CF911F91E6
:104D10000F91FF90EF90DF90CF90089590E0880F73
:104D2000991F45960C94B72890E0880F991F4596D7
:104D30000C94CB28EF92FF920F931F93CF93DF93A6
:104D400000D0CDB7DEB7182F4A8369830E945D017A
:104D5000082F0E945F01089FC0011124189F700155
:104D6000199FF00C11240E945F0169819701689FCF
:104D7000200D311D1124C9014A81840F911D8B5AC8
:104D80009F4F0F900F90DF91CF911F910F91FF9048
:104D9000EF900C94AF288B5A9F4F0C94BD288F92A4
:104DA0009F92AF92BF92CF92DF92EF92FF920F93BA
:104DB0001F93CF93DF930E9453016C010E94500117
:104DC0007C01C114D10409F10E9414014C01A12CF1
:104DD000B12C0DEE1EEFA814B90420F4F601C59114
:104DE000D49102C0C0E0D0E0BE018A2D0E9494267A
:104DF0000C0F1D1F8FEFA81AB80A82E0C80ED11C35
:104E000080E2A816B10439F702C00DEE1EEFE114DE
:104E1000F10471F10E9411016C01A12CB12C0E94CE
:104E20005D01C82F0E945F01C89FC001112425E0C9
:104E3000880F991F2A95E1F7A816B906C8F4AC1493
:104E4000BD0428F4F701EA0DFB1DC49101C0C0E0C8
:104E50006C2FC5010E94CB26EC2FF0E0A0FE02C013
:104E6000FE2FEE270E0F1F1F8FEFA81AB80AD7CFFD
:104E7000B80183E190E0DF91CF911F910F91FF90F6
:104E8000EF90DF90CF90BF90AF909F908F900C9459
:104E9000CB280E944C26811102C00C94CF26089585
:104EA0000E9457276894B1110C94E62708950E9438
:104EB000CB2788F09F5798F0B92F9927B751B0F0BA
:104EC000E1F0660F771F881F991F1AF0BA95C9F78E
:104ED00014C0B13091F00E94E527B1E008950C9420
:104EE000E527672F782F8827B85F39F0B93FCCF3D3
:104EF000869577956795B395D9F73EF4909580950B
:104F0000709561957F4F8F4F9F4F0895E89409C02A
:104F100097FB3EF490958095709561957F4F8F4FEC
:104F20009F4F9923A9F0F92F96E9BB279395F69502
:104F3000879577956795B795F111F8CFFAF4BB0F80
:104F400011F460FF1BC06F5F7F4F8F4F9F4F16C0E4
:104F5000882311F096E911C0772321F09EE8872F6E
:104F6000762F05C0662371F096E8862F70E060E02A
:104F70002AF09A95660F771F881FDAF7880F9695A3
:104F8000879597F9089557FD9058440F551F59F08C
:104F90005F3F71F04795880F97FB991F61F09F3F26
:104FA00079F087950895121613061406551FF2CF4F
:104FB0004695F1DF08C0161617061806991FF1CF9F
:104FC00086957105610508940895E894BB276627C6
:104FD0007727CB0197F908950E94FF270C9470283A
:104FE0000E94622838F00E94692820F0952311F071
:104FF0000C9459280C945F2811240C94E6270E94E5
:10500000C32770F3959FC1F3950F50E0551F629F22
:10501000F001729FBB27F00DB11D639FAA27F00D11
:10502000B11DAA1F649F6627B00DA11D661F829F38
:105030002227B00DA11D621F739FB00DA11D621F1D
:10504000839FA00D611D221F749F3327A00D611D3A
:10505000231F849F600D211D822F762F6A2F11241C
:105060009F5750409AF0F1F088234AF0EE0FFF1F4F
:10507000BB1F661F771F881F91505040A9F79E3FA6
:10508000510580F00C9459280C94E6275F3FE4F317
:10509000983ED4F3869577956795B795F795E795FC
:1050A0009F5FC1F7FE2B880F911D9695879597F905
:1050B000089597F99F6780E870E060E008959FEF9A
:1050C00080EC089500240A9416161706180609069F
:1050D000089500240A94121613061406050608956E
:1050E000092E0394000C11F4882352F0BB0F40F4F6
:1050F000BF2B11F460FF04C06F5F7F4F8F4F9F4F36
:105100000895AA1BBB1B51E107C0AA1FBB1FA6170E
:10511000B70710F0A61BB70B881F991F5A95A9F760
:1051200080959095BC01CD01089597FB072E16F44C
:10513000009407D077FD09D00E94812807FC05D094
:105140003EF4909581959F4F0895709561957F4F9E
:105150000895EE0FFF1F0590F491E02D0994F99941
:10516000FECF92BD81BDF89A992780B50895A8E138
:10517000B0E042E050E00C94D228262FF999FECFFF
:105180001FBA92BD81BD20BD0FB6F894FA9AF99A64
:105190000FBE019608950E94BD28272F0C94BE28AB
:1051A000DC01CB01FC01F999FECF06C0F2BDE1BDE7
:1051B000F89A319600B40D9241505040B8F70895D6
:0451C000F894FFCF91
:1051C400058E021C03F902C502910201014C032859
:1051D40008140A321E200F404D3639950248021237
:1051E40002D9016C0185019E01B70104120C56011C
:1051F400420134010C034700480050006100640080
:10520400000012036700650065006B006800610020
:1052140063006B0000000403090409026D0004012B
:1052240000A0320904000001030101000921110159
:1052340000012240000705810308000A0904010057
:105244000103010200092111010001224D0007059B
:10525400820308000A090402000103000000092176
:10526400110100012236000705830308000A09041E
:10527400030001030000000921110100012239008B
:10528400070584031000011201100100000008ED5D
:10529400FE101002000102000105010906A101052A
:1052A4000719E029E7150025019508750181020514
:1052B4000819012905950575019102950175039158
:1052C40001050719002977150025019578750181D5
:1052D40002C005010980A101850216010026B7005C
:1052E4001A01002AB700751095018100C0050C0948
:1052F40001A1018503160100269C021A01002A9CC3
:1053040002751095018100C005010902A10109017E
:10531400A100050919012905150025019505750147
:105324008102950175038101050109300931158157
:10533400257F95027508810609381581257F950119
:1053440075088106050C0A38021581257F950175BB
:10535400088106C0C005010906A101050719E02955
:10536400E7150025019508750181029501750881ED
:105374000105081901290595057501910295017525
:105384000391010507190029FF150026FF00950662
:1053940075088100C001020304050607080900001E
:00000001FF
