:100000000C94C7080C940B090C940B090C940B0965
:100010000C940B090C940B090C940B090C940B0910
:100020000C940B090C940B090C947F120C944F1335
:100030000C94420E0C940B090C940B090C940B09B4
:100040000C940B090C9408310C940B090C940B09BB
:100050000C940B090C94B7240C940B090C940B0909
:100060000C940B090C940B090C940B090C940B09C0
:100070000C940B090C940B090C940B090C940B09B0
:100080000C940B090C940B090C940B090C940B09A0
:100090000C940B090C940B090C940B090C940B0990
:1000A0000C940B090C940B090C940B09B714D9147C
:1000B000C515D914C5151B153F15C5159415A715DC
:1000C000F318F318211921198419C019061C061CEC
:1000D000D819061CCF1ACF1A6C1B801B061CF41BE8
:1000E0006D2E952E9B2C762F762F222E762F762F07
:1000F000B82E762FCB2E402F762F762F762F762F79
:10010000152FFC2E762FE52E762FA52E762F762F07
:100110006F2F6F2F6F2F6F2F6F2F6F2F6F2F6F2FEF
:100120006F2F6D2F762F6D2F762F762F762F762FC0
:10013000762F762F762F762F762F762F762F6D2FA0
:10014000762F762F222E082E712F712F712F712F5F
:10015000712F712F712F712F712F712F712F712F9F
:10016000522F762F812E0000000029003A3B3C3DA3
:1001700000000000000053545556351E1F20212258
:100180000000000000005F6061572B141A0815176B
:100190000000000000005C5D5E0039041607090ADB
:1001A000000000000000595A5B58E11D1B061905AC
:1001B00000000000000062006300E0E3E2002C00A9
:1001C000000000000000000000000000000000002F
:1001D000000000000000000000000000000000001F
:1001E0000000000000003E3F404142434445464776
:1001F00048000000000023242526272D2E2A494AE6
:100200004B00000000001C180C12132F30314C4D15
:100210004E00000000000B0D0E0F333400280000CC
:1002200000000000000011103637380000E50052D1
:10023000000000000000002C00E6E7C0E400505180
:100240004F0000000000000000000000000000005F
:10025000000000000000000000000000000000009E
:100260000000000000000A002530313662003A200C
:100270000025303258000A722F6320303132333477
:1002800035363738394142434445460A000A00258D
:1002900030325800626F756E6365213A200000109D
:1002A00080FF414243806932632074696D656F75D8
:1002B000740A00666F756E643A2025640A006C6FDC
:1002C00073743A2025640A004B6579626F61726429
:1002D0002073746172742E0A0055534220636F6E4E
:1002E000666967757265642E0A000E034B0069002B
:1002F0006D00650072006100000024036B00610066
:1003000069003100310030003300400067006D00AB
:10031000610069006C002E0063006F006D0000003A
:100320000403090409028D00050100A0320904003C
:10033000000103010100092111010001223F000712
:1003400005810308000A09040100010301020009F4
:100350002111010001224D000705820308000A094E
:1003600004020001030000000921110100012236EE
:10037000000705830308000A0904030002030000C4
:10038000000921110100012220000705840320003B
:100390000107050403200001090404000103000013
:1003A0000009211101000122390007058503100011
:1003B000011201100100000008C016DB2705000132
:1003C00002000105010906A101050719E029E71549
:1003D0000025019508750181020508190129059577
:1003E0000575019102950175039101050719002911
:1003F0007715002501957875018102C00631FF0946
:1004000074A1010975150025FF9520750881020961
:1004100076150025FF952075089102C00501098019
:10042000A101850216010026B7001A01002AB700B3
:10043000751095018100C0050C0901A10185031605
:100440000100269C021A01002A9C02751095018168
:1004500000C005010902A1010901A1000509190156
:100460002905150025019505750181029501750382
:1004700081010501093009311581257F9502750833
:10048000810609381581257F950175088106050CBF
:100490000A38021581257F950175088106C0C005BF
:1004A000010906A101050719E029E71500250195B5
:1004B0000875018102950175088101050819012956
:1004C00005950575019102950175039101050719BF
:1004D0000029FF150025FF950675088100C00A0058
:1004E0002530325820006B6579626F6172645F72EB
:1004F00065706F72743A20000A0025303258006B24
:100500006579626F6172645F7365745F6C65643A8C
:10051000200064656C5F6B65795F6269743A206383
:10052000616E27742064656C3A20253032580A00C9
:100530006164645F6B65795F6269743A2063616EC0
:100540002774206164643A20253032580A00646FB1
:100550006E652E0A00626F6F676D61676963207355
:1005600063616E3A202E2E2E2000290A0025750088
:100570002F002575005D28002564002000256400FB
:10058000200025640020002564007C0025303258BE
:10059000006D6F7573656B6579205B62746E7C7836
:1005A0002079207620685D287265702F61636C2940
:1005B0003A205B000A002575006D6B5F7768656502
:1005C0006C5F74696D655F746F5F6D6178203D204D
:1005D000000A002575006D6B5F776865656C5F6D5F
:1005E00061785F7370656564203D20000A002575A1
:1005F000006D6B5F74696D655F746F5F6D6178200E
:100600003D20000A002575006D6B5F6D61785F739A
:1006100070656564203D20000A002575006D6B5FE4
:10062000696E74657276616C203D20000A00257544
:10063000006D6B5F64656C6179203D20000A0025C8
:1006400075006D6B5F776865656C5F74696D655F7C
:10065000746F5F6D6178203D20000A002575006D84
:100660006B5F776865656C5F6D61785F73706565FA
:1006700064203D20000A002575006D6B5F74696D74
:10068000655F746F5F6D6178203D20000A002575FD
:10069000006D6B5F6D61785F7370656564203D20F0
:1006A000000A002575006D6B5F696E746572766176
:1006B0006C203D20000A002575006D6B5F64656C41
:1006C0006179203D20000A00257500363A206D6BC7
:1006D0005F776865656C5F74696D655F746F5F6D8A
:1006E00061783A20000A00257500353A206D6B5F6D
:1006F000776865656C5F6D61785F73706565643A96
:1007000020000A00257500343A206D6B5F74696D16
:10071000655F746F5F6D61783A20000A002575008F
:10072000333A206D6B5F6D61785F73706565643A15
:1007300020000A00257500323A206D6B5F696E74E7
:10074000657276616C286D73293A20000A00257560
:1007500000313A206D6B5F64656C6179282A313015
:100760006D73293A20000A0A2D2D2D2D2D204D6F55
:100770007573656B657920506172616D6574657222
:1007800073202D2D2D2D2D0A003E20002575004DA6
:10079000003F007365742064656661756C74207633
:1007A000616C7565732E0A000A0025750073656C0F
:1007B000656374656420706172616D657465723A19
:1007C0002000433E20000A51756974204D6F7573F7
:1007D000656B657920436F6E736F6C650A005365B6
:1007E0006520687474703A2F2F656E2E77696B6977
:1007F00070656469612E6F72672F77696B692F4D21
:100800006F7573655F6B6579730A000A0025750063
:100810002C20776865656C3D0025750077686572EA
:10082000652064656C74613A20637572736F723D04
:10083000000A7370656564203D2064656C746120F6
:100840002A206D61785F7370656564202A202872A4
:100850006570656174202F2074696D655F746F5FCA
:100860006D6178290A007067646F776E3A09646574
:10087000637265617365207072616D657465727312
:10088000282D3130290A00706775703A09696E6346
:100890007265617365207072616D6574657273282D
:1008A0002B3130290A00646F776E3A0964656372F0
:1008B00065617365207072616D6574657273282D52
:1008C00031290A0075703A09696E63726561736552
:1008D000207072616D6574657273282B31290A006E
:1008E000643A097365742064656661756C7420767A
:1008F000616C7565730A00703A097072696E7420D4
:100900007072616D65746572730A00363A097365B9
:100910006C656374206D6B5F776865656C5F746987
:100920006D655F746F5F6D61780A00353A097365B4
:100930006C656374206D6B5F776865656C5F6D6176
:10094000785F73706565640A00343A0973656C6595
:100950006374206D6B5F74696D655F746F5F6D614B
:10096000780A00333A0973656C656374206D6B5FB8
:100970006D61785F73706565640A00323A0973656A
:100980006C656374206D6B5F696E74657276616C03
:10099000286D73290A00313A0973656C6563742008
:1009A0006D6B5F64656C6179282A31306D73290A3B
:1009B000004553432F713A09717569740A000A0A98
:1009C0002D2D2D2D2D204D6F7573656B6579205064
:1009D0006172616D65746572732048656C70202D5D
:1009E0002D2D2D2D0A003F004D303E000A456E741E
:1009F0006572204D6F7573656B657920436F6E73FB
:100A00006F6C650A000A5175697420436F6E736FCD
:100A10006C65204D6F64650A00433E20000A002586
:100A2000750020746F200025750073776974636802
:100A30005F64656661756C745F6C617965723A209C
:100A4000006D3A096D6F7573656B65790A004553E2
:100A5000432F713A09717569740A000A0A2D2D2D08
:100A60002D2D20436F6E736F6C652048656C702070
:100A70002D2D2D2D2D0A00506175733A096A756D63
:100A80007020746F20626F6F746C6F616465720A9E
:100A900000436170733A094C6F636B204B65796258
:100AA0006F617264284368696C642050726F6F666E
:100AB000290A00505363723A09706F776572206497
:100AC0006F776E2F72656D6F74652077616B652D22
:100AD00075700A00342F46343A0973776974636875
:100AE00020746F204C6179657234200A00332F46E0
:100AF000333A0973776974636820746F204C6179A5
:100B0000657233200A00322F46323A0973776974CE
:100B1000636820746F204C6179657232200A00315D
:100B20002F46313A0973776974636820746F204CDB
:100B30006179657231200A00302F4631303A0973ED
:100B4000776974636820746F204C61796572302016
:100B50000A006E3A09746F67676C65204E4B524FFE
:100B60000A00653A097072696E7420656570726F6B
:100B70006D20636F6E6669670A00733A0970726967
:100B80006E74207374617475730A00743A0970721C
:100B9000696E742074696D657220636F756E740A76
:100BA00000763A097072696E7420646576696365CF
:100BB0002076657273696F6E202620696E666F0AF3
:100BC000006D3A09746F67676C65206D6F757365AA
:100BD0002064656275670A006B3A09746F67676C19
:100BE00065206B6579626F61726420646562756708
:100BF0000A00783A09746F67676C65206D617472DA
:100C000069782064656275670A00643A09746F67E1
:100C1000676C6520646562756720656E61626C65EE
:100C20000A00633A09656E74657220636F6E736FB4
:100C30006C65206D6F64650A000A0A2D2D2D2D2D1F
:100C400020436F6D6D616E642048656C70202D2DA2
:100C50002D2D2D0A000A002575002E6C6576656C19
:100C60003A20000A002575002E656E61626C653AB7
:100C700020000A0025303258006261636B6C69679E
:100C800068745F636F6E6669672E7261773A2000E1
:100C90000A002575002E6E6B726F3A20000A00253F
:100CA00075002E737761705F6261636B736C617343
:100CB000685F6261636B73706163653A20000A006C
:100CC0002575002E737761705F67726176655F6569
:100CD00073633A20000A002575002E6E6F5F6775FA
:100CE000693A20000A002575002E737761705F72E3
:100CF000616C745F726775693A20000A002575009F
:100D00002E737761705F6C616C745F6C6775693AA4
:100D100020000A002575002E636170736C6F636B91
:100D20005F746F5F636F6E74726F6C3A20000A00BD
:100D30002575002E737761705F636F6E74726F6CD0
:100D40005F636170736C6F636B3A20000A0025303B
:100D50003258006B65796D61705F636F6E666967AD
:100D60002E7261773A20000A002575002E6D6F758E
:100D700073653A20000A002575002E6B6579626F55
:100D80006172643A20000A002575002E6D6174724C
:100D900069783A20000A002575002E656E61626C44
:100DA000653A20000A002530325800646562756794
:100DB0005F636F6E6669672E7261773A20000A0082
:100DC00025750064656661756C745F6C6179657228
:100DD0003A20003F004E4B524F3A206469736162E3
:100DE0006C65640A004E4B524F3A20656E61626C2E
:100DF00065640A006B6579626F6172645F69646C37
:100E0000653A2025580A006B6579626F6172645FEC
:100E100070726F746F636F6C3A2025580A00686FA8
:100E200073745F6B6579626F6172645F6C65647324
:100E300028293A2025580A000A0A2D2D2D2D2D206B
:100E4000537461747573202D2D2D2D2D0A00746936
:100E50006D65725F636F756E743A202530346C581F
:100E60000A004743433A20342E382E31204156524F
:100E70002D4C4942433A20312E382E3073766E2065
:100E80004156525F415243483A20617672350A001A
:100E90004F5054494F4E533A204C55464120424FF3
:100EA0004F544D41474943204D4F5553454B4559AC
:100EB0002045585452414B455920434F4E534F4CB7
:100EC0004520434F4D4D414E44204E4B524F203410
:100ED0003039360A004255494C443A206363363370
:100EE0003930362D6469727479202830353A3237BA
:100EF0003A3339204E6F7620313220323031342966
:100F00000A005649443A20307831366330286B6104
:100F1000693131303340676D61696C2E636F6D29C3
:100F2000205049443A20307832376462284B696D4A
:100F300065726129205645523A203078303030357C
:100F40000A00444553433A20742E6D2E6B2E206BBD
:100F50006579626F617264206669726D776172652E
:100F600020666F72204B696D6572610A000A0A2D56
:100F70002D2D2D2D2056657273696F6E202D2D2D10
:100F80002D2D0A000A44454255473A206D6F75736E
:100F9000652064697361626C65642E0A000A4445C9
:100FA0004255473A206D6F75736520656E61626CBE
:100FB00065642E0A000A44454255473A206B65791C
:100FC000626F6172642064697361626C65642E0A89
:100FD000000A44454255473A206B6579626F617259
:100FE0006420656E61626C65642E0A000A444542A5
:100FF00055473A206D617472697820646973616243
:101000006C65642E0A000A44454255473A206D61DA
:101010007472697820656E61626C65642E0A000ADC
:1010200044454255473A20656E61626C65642E0AFC
:10103000000A44454255473A2064697361626C6511
:10104000642E0A006E6F7420737570706F72746511
:10105000642E0A000A0A4A756D7020746F20626F50
:101060006F746C6F616465722E2E2E2000433E20DB
:10107000000A456E74657220436F6E736F6C652055
:101080004D6F64650A00556E6C6F636B65642E0A64
:10109000004C6F636B65642E0A006565636F6E6656
:1010A00069673A0A0000000000000000000000012B
:1010B00001010202020303040405050606070808ED
:1010C000090A0B0B0C0D0E0F101112131516171920
:1010D0001A1B1D1E2022232527292B2D2F313335A6
:1010E000383A3D3F4244474A4D505356595C5F623F
:1010F00066696C7074777B7E82868A8E9195999DE5
:10110000A1A5A9ADB0B4B8BCC0C3C7CBCED2D5D809
:10111000DBDFE2E4E7EAECEFF1F3F5F7F8FAFBFCEA
:10112000FDFEFFFFFF6261636B6C6967687420738B
:101130007465703A2025750A006261636B6C69679B
:10114000687420746F67676C653A2025750A0062C1
:1011500061636B6C6967687420637573746F6D206D
:1011600064656372656173653A2025750A00626182
:10117000636B6C6967687420637573746F6D206945
:101180006E6372656173653A2025750A000011244B
:101190001FBECFEFDAE0DEBFCDBF04B603FE24C032
:1011A0008091F0039091F103A091F203B091F303C9
:1011B0008730904BA740B04BB9F41092F0031092D7
:1011C000F1031092F2031092F30314BE84B7877FE9
:1011D00084BF88E10FB6F89480936000109260009D
:1011E0000FBEE0E0F8E3099511E0A0E0B1E0EAEE1F
:1011F000FDE602C005900D92AA3BB107D9F723E0A6
:10120000AAEBB1E001C01D92A03FB207E1F70E9436
:10121000CC100C94F3360C940000FF93EF93E09104
:10122000B003F091B103309709F00995EF91FF9168
:101230000895FC018591803011F0EFDFFBCF089518
:10124000FF27E0E230E247FF0CC0419597FF09C05D
:10125000EDE26095709580959095611D711D811DE1
:10126000911D27FF02C0219530E350E2AA27660FA7
:10127000771F881F991FAA1FA41710F0A41B63953E
:101280005A95A9F7AA3008F0A95FA05DAF93F3952E
:10129000611571058105910541F7ED3211F4EF9368
:1012A000F395F21718F43F93F395FBCF8F91B5DFC9
:1012B000FA95E1F70895E991F9918591803021F04F
:1012C000853219F0AADFF9CF089520E0E89455910E
:1012D0005532C1F3503311F4689455915A3348F4A0
:1012E000505390F3220F022E220F220F200D250FB4
:1012F000F4CF0EF4219589919991533619F3533710
:1013000029F1533559F1BC0188279927E8945C36B7
:1013100021F48991999168945591543639F446EFA6
:101320007EF077FF0DC08FEF9FEF0AC055374AE080
:1013300039F0583540E121F0523642E009F0089585
:10134000FF93EF937DDFEF91FF91B7CFFF93EF9383
:10135000FC0181918030B9F360DFFBCFFF93EF9305
:1013600068DFF1CFDF93CF93CDB7DEB72596A3DF4C
:10137000CF91DF91089580E091E0089580E090E0C2
:101380000895462F672F0C94DE34805C0E94D2347F
:10139000089586E691E0089586E691E008958091AB
:1013A00001018695089580E885BF85BF0E94370EAC
:1013B0000E945A0D90910201EAE3F2E0AAEBB1E03B
:1013C00080E0891751F011921192119211921D92A1
:1013D0001D921D921D928F5FF4CF5C980895EF923D
:1013E000FF920F931F93CF93DF930E94BD0DF12CBB
:1013F00035E0E32ECFE8D2E030910201F31608F099
:101400004FC08F2D0E946F0D20EA2A95F1F70E94A0
:10141000D20C27E02F1528F0DC01CB01AA27BB272F
:1014200002C0AA27BB2724E0F29EF0011124E65453
:10143000FE4F0081118122813381081719072A0785
:101440003B0751F180839183A283B3838091000194
:10145000882301F18091D90380FF04C084E992E0E0
:101460000E9419098091D90380FF0CC0809100016E
:101470001F928F93DF93CF930E94B2090F900F902A
:101480000F900F908091D90380FF04C08DE892E007
:101490000E941909E09200010E945A0DF394ACCF0A
:1014A000809100018823F1F0815080930001811127
:1014B00006C0CAEBD1E0EAE3F2E020E007C08FE922
:1014C0009FE00197F1F700C000000CC0231751F016
:1014D00089919991A991B99181939193A193B19394
:1014E0002F5FF4CF81E0DF91CF911F910F91FF909B
:1014F000EF90089594E0899FF0011124E65CFD4F80
:1015000060817181828193810895DF92EF92FF92D1
:101510000F931F93CF93DF9386E792E00E94190900
:10152000D12C01E712E0C8E6D2E080910201D81682
:1015300058F5ED2CF12C1F92DF921F930F930E9410
:10154000B2098EE692E00E941909F701EE0FFF1F23
:10155000EE0FFF1FE65CFD4F808191810E94832585
:101560009F938F93DF93CF930E94B20986E692E018
:101570000E941909D3948DB79EB708960FB6F894B8
:101580009EBF0FBE8DBFD1CFDF91CF911F910F9125
:10159000FF90EF90DF900895CF93C82F8130C8F06F
:1015A000843058F08730A8F40E94CF300E94FC307D
:1015B00086E08C1BCF910C9405310E94CF300E94A5
:1015C0000231EC2FF0E0E256FD4F8491CF910C9464
:1015D000F0300E940231CF910C94D930E82FF0E026
:1015E000EE55FD4F84910895249A2C9A6E9A769A1E
:1015F000259A2D9A269A2E980895813041F028F048
:10160000823039F0833039F008952C980895769817
:1016100008952D9808952E9A0895813041F028F06C
:10162000823039F0833039F008952C9A0895769AF3
:1016300008952D9A08952E9808951092B9008CE07F
:101640008093B800089594EA9093BC009091BC00F8
:1016500097FD06C09091BA029923C1F31092BA0285
:101660009091B900987F983021F0903111F081E08D
:1016700008958093BB0084E88093BC008091BC00F7
:1016800087FD06C08091BA028823C1F31092BA0286
:101690008091B900887F883111F0803441F780E073
:1016A000089584E98093BC008091BC0084FF07C04A
:1016B0008091BA028823C1F31092BA020895089566
:1016C0008093BB0084E88093BC008091BC0087FDC0
:1016D00006C08091BA028823C1F31092BA02909199
:1016E000B900987F81E0983209F480E0089584EC95
:1016F0008093BC008091BC0087FD06C08091BA0237
:101700008823C1F31092BA028091BB00089584E847
:101710008093BC008091BC0087FD06C08091BA0216
:101720008823C1F31092BA028091BB000895F89407
:10173000A89526E488E190E00FB6F894A8958093E8
:1017400060000FBE2093600078940895AF92BF921E
:10175000CF92DF92EF92FF920F931F93CF93DF937D
:101760008BE090E00E94C236F82E8CE090E00E9460
:10177000C236C82E8FEF8F0DDD24D3948E3F08F430
:10178000D12CCC2019F08FEFC81201C0D3942C2D8E
:1017900030E02F0D311D2134310514F0D39443C0B6
:1017A000D11041C0F0920201C092010103E411E0A6
:1017B000E12C8DE090E0BB24BA94EF1450F4EC01DE
:1017C00021960E94C236F8018083803428F0D39499
:1017D00003C0F801B082EC01E3940F5F1F4FF0E407
:1017E000EF1611F0CE01E9CF03E011E0B12CAA24ED
:1017F000AA94BC1468F47E018FEFE81AF80ACE01AF
:101800000E94C236F8018083803428F0D39403C04C
:10181000F801A0827E01B3940F5F1F4FF0E4BF1662
:1018200011F0E701E6CF8D2DDF91CF911F910F9140
:10183000FF90EF90DF90CF90BF90AF9008951F93EF
:10184000CF93DF93609102018BE090E00E94D0364D
:10185000609101018CE090E00E94D0368DE090E034
:10186000E3EFE80F20910201E21750F4EC0121961A
:10187000F0E0ED5BFE4F60810E94D036CE01F0CFEC
:10188000182FE82FE11B20910101E21750F4EC0121
:101890002196F0E0ED5FFE4F60810E94D036CE01D0
:1018A000F0CFDF91CF911F9108950F931F93CF93A6
:1018B000DF931F92CDB7DEB78A01A895805E880FAF
:1018C00069830E94230B698181110FC0862F0E94BA
:1018D000600B81110AC0F80180810E94600B8111A8
:1018E00004C0F80181810E94600B89830E94510B22
:1018F00089810F90DF91CF911F910F910895EF9201
:10190000FF920F931F93CF93DF931F92CDB7DEB754
:10191000182F7A01A895105E110F812F69830E94FC
:10192000230B082F6981811115C0862F0E94600B3F
:10193000082F81110FC0812F81600E94230B082F77
:10194000811108C00E94770BF70180830E94870BEA
:10195000F70181830E94510B802F0F90DF91CF916F
:101960001F910F91FF90EF900895AB0162E00C94EE
:10197000550CAB0166E00C94550CAB0160E00C9487
:101980007F0C8093DA038093DB038093DC038093E6
:10199000DD038093DE038093DF038093E003809375
:1019A000E10308954F925F926F927F928F929F9280
:1019B000AF92BF92CF92DF92EF92FF920F931F935D
:1019C000CF93DF938FEF0E94C10C0AED13E0F12C4F
:1019D000B8018F2D0E94BD0CF3940E5F1F4F74E071
:1019E000672EF610F5CFB090010163E0462E61E05E
:1019F000562EF20160E070E0CB0101E010E020E043
:101A000030E0AE2FA419AB1508F043C0AF0143502E
:101A100051406A01F1905FEFF51699F3BF2DB29531
:101A2000BF70AB2FA170CA2F612CD62DEF2CE29482
:101A3000E69447E0E422AF2DA695A695A695AB27A0
:101A4000A0FBAA24A0F8AA2DB0E0AE0DB11DAE0DEA
:101A5000B11DAA0FBB1FAC0FBD1FA652BC4FAC914E
:101A6000B0E04F2D4770042E02C0B595A7950A949B
:101A7000E2F7A0FDC6CF3801490104C0660C771C0F
:101A8000881C991CCA94D2F7662977298829992934
:101A9000B8CFDF91CF911F910F91FF90EF90DF9022
:101AA000CF90BF90AF909F908F907F906F905F90FE
:101AB0004F9008951F93CF93DF938FEF0E94C10C37
:101AC000CAEDD3E010E0BE01812F0E94B90C1F5F68
:101AD00022961430C1F7DF91CF911F9108951F9383
:101AE000CF93DF93182F8FEF0E94C10CE12FF0E00E
:101AF000ED5BFE4F90819F3F69F1392F32953F702A
:101B0000892F86958695869583278170292F229522
:101B100026952770220F820F682F70E03170C32F37
:101B200020E0D22F660F771FC60FD71FC652DC4F9B
:101B3000977021E030E001C0220F9A95EAF72095D6
:101B400098812923288366527C4FDF91CF911F9182
:101B50000C94B90CDF91CF911F910895CF93C82FAA
:101B600080E00E94C10C6C2F70E0660F771F6652F8
:101B70007C4F8C2FCF910C94B50CAF92BF92CF922B
:101B8000DF92EF92FF920F931F93CF93DF93A8956D
:101B9000C0E0D0E001E010E0B3EBEB2EB2E0FB2EB2
:101BA0008EEBC82E82E0D82EAC2EBC2ECE018096B5
:101BB000880F991F81600E94230B2091BB0230E0A7
:101BC0000C2E02C0359527950A94E2F720FF1DC020
:101BD0008823E9F18091D90380FF0AC0DF93CF9376
:101BE000DF92CF920E94B2090F900F900F900F904A
:101BF00098010B2C01C0220F0A94EAF720958091DE
:101C0000BB0282238093BB0220C0811120C080913F
:101C1000D90380FF0AC0DF93CF93FF92EF920E9417
:101C2000B2090F900F900F900F9098010B2C01C0EC
:101C3000220F0A94EAF79091BB02922B9093BB0279
:101C40000E94510B8A2D0E94AE0D0E94271C2196E6
:101C5000C430D10509F0A8CFDF91CF911F910F912A
:101C6000FF90EF90DF90CF90BF90AF9008950E94CB
:101C7000A60B81110E941F0C0E941D0B0E94970B46
:101C80000C94BD0D1F920F920FB60F9211242F933B
:101C90003F934F935F936F937F938F939F93AF93F4
:101CA000BF93EF93FF938091D90380FF08C086EA2A
:101CB00092E09F938F930E94B2090F900F90109221
:101CC000BC00509A5198499B17C084E98093BC008E
:101CD00081E08093BA02FF91EF91BF91AF919F9104
:101CE0008F917F916F915F914F913F912F910F90C5
:101CF0000FBE0F901F90189589E0589895E09A951F
:101D0000F1F70000589A95E09A95F1F7000081509C
:101D1000A1F7DBCF8091CE0208959091E603943035
:101D200009F05AC09091E9009F702091EC0020FFCB
:101D300002C020E801C020E0922B24E02093E900BB
:101D40002091EB0020FF29C02091EE0027FF25C045
:101D50002091BD02222321F02091E80025FF1DC023
:101D60001092BD022091E4003091E50066E007C0CA
:101D70004091E4005091E5002417350791F440911B
:101D8000E80045FD19C04091E603442329F14530A0
:101D900019F14091EB0045FFEBCF9F709093E90064
:101DA0001BC0615021F481E08093BD02F6CF2091E9
:101DB000E4003091E500E3CF8093F1008091E800EA
:101DC00085FD05C08091E8008E778093E8009F70C4
:101DD0009093E90080E008958FEF0895CF93DF930B
:101DE00000D01F92CDB7DEB72091E603243019F55D
:101DF00023E029839B838A832093E9008FEF9091CE
:101E0000E800815095FD06C095ED9A95F1F7000028
:101E10008111F5CF8091E80085FF0DC040E050E0D2
:101E200063E070E0CE0101960E948B138091E80080
:101E30008E778093E8000F900F900F90DF91CF91F5
:101E40000895CF93DF9300D01F92CDB7DEB72091D6
:101E5000E603243021F522E029839B838A8383E0F3
:101E60008093E9008FEF9091E800815095FD06C0C6
:101E700095ED9A95F1F700008111F5CF8091E8007A
:101E800085FF0DC040E050E063E070E0CE010196B8
:101E90000E948B138091E8008E778093E8000F906A
:101EA0000F900F90DF91CF9108952091E603243099
:101EB000F1F422E02093E9002FEF3091E800215067
:101EC00035FD06C035ED3A95F1F700002111F5CF4B
:101ED0002091E80025FF0BC040E050E065E070E095
:101EE0000E948B138091E8008E778093E80008951C
:101EF000CF93DF93EC018091E603843009F043C077
:101F000080918E018823C1F085E08093E9008FEFF6
:101F10009091E800815095FD06C095E19A95F1F702
:101F200000008111F5CF8091E80085FF2CC040E0D2
:101F300050E060E170E017C081E08093E9008FEF2E
:101F40009091E800815095FD06C095ED9A95F1F7C6
:101F500000008111F5CF8091E80085FF14C040E0BA
:101F600050E068E070E0CE010E948B138091E800A1
:101F70008E778093E80080E1FE01AEEBB2E0019045
:101F80000D928A95E1F7DF91CF9108950895089514
:101F9000089508950C941A258091E603843049F53C
:101FA0008091E9008F709091EC0090FF02C090E862
:101FB00001C090E0982B84E08093E9008091EB00D1
:101FC00080FF14C08091EE0087FF10C08091E80070
:101FD00085FF03C01092F100F9CF8091E80080FFE7
:101FE00005C08091E8008E778093E8009F70909301
:101FF000E900089542E061EC81E00E94831142E033
:1020000061EC82E00E94831142E061EC83E00E9477
:10201000831146E261EC84E00E94831142E161ECAD
:1020200085E00C9483118091E803833009F455C056
:1020300030F4813071F0823009F495C008958A300F
:1020400009F481C08B3009F460C0893009F0A3C065
:1020500020C08091E703813A09F09DC08091E8009B
:10206000877F8093E8008091EB039091EC03892BAC
:1020700021F060E080E090E003C060E18EEB92E050
:1020800070E00E94D4138091E8008B778093E80081
:1020900008958091E703813209F07DC08091EB03C0
:1020A0009091EC03009719F0049709F074C08091A7
:1020B000E800877F8093E8008091E80082FD05C0FA
:1020C0008091E6038111F8CF66C08091F100809382
:1020D000CE028091E8008B775AC08091E703813A65
:1020E00009F059C08091EB039091EC03892B09F022
:1020F00052C08091E800877F8093E8008091E800DB
:1021000080FFFCCF80918D013DC08091E70381323B
:1021100009F041C08091EB039091EC03892BD9F534
:102120008091E800877F8093E8000E94B811909129
:10213000E90381E0911101C080E080938D018093DB
:102140008E010C94271C8091E703813221F5809148
:10215000E800877F8093E8000E94B8118091EA032D
:102160008093BC0208958091E703813AA1F48091A5
:10217000E800877F8093E8008091E80080FFFCCF33
:102180008091BC028093F1008091E8008E7780936B
:10219000E8000C94B811089584B7877F84BF88E164
:1021A0000FB6F89480936000109260000FBE90E02C
:1021B00080E80FB6F89480936100909361000FBEA1
:1021C0000E9409120E9466128091E200846080934E
:1021D000E2008DE89EE00E94DC2478948091E60382
:1021E0008430E1F789ED92E00E9419090E9470168F
:1021F00083E891E00E94DE1588EC92E00E941909C4
:102200008091E603853069F40E9404258091E403FF
:102210008823B1F30E940725882391F30E946D1152
:10222000EFCF0E94A816ECCF292F3327233031059A
:10223000A9F06CF42130310509F442C02230310597
:1022400009F043C08DE890E024E233E042C021323F
:102250003105C9F02232310519F137C09927813093
:10226000910541F08230910541F0892B71F5E0E252
:10227000F3E005C0EAEFF2E002C0EAEEF2E084919A
:1022800090E09F0126C0653000F5E62FF0E0EE0FEC
:10229000FF1FEA55FE4F2081318189E090E019C08F
:1022A000653098F4E62FF0E0DF01AA0FBB1FA456BB
:1022B000BE4F2D913C91E956FE4F808190E009C0C0
:1022C00082E190E021EB33E004C080E090E020E088
:1022D00030E0FA0131832083089580E189BD82E1F5
:1022E00089BD09B400FEFDCF8091D8008F7D809319
:1022F000D8008091E00082608093E0008091E0004F
:1023000081FDFCCF0895982F973058F59093E90000
:10231000981739F07091EC002091ED005091F00089
:1023200003C0242F762F50E021FF19C03091EB001D
:102330003E7F3093EB003091ED003D7F3093ED0018
:102340003091EB0031603093EB007093EC00209300
:10235000ED005093F0002091EE0027FF07C09F5F33
:10236000D3CF8F708093E90081E0089580E00895D5
:102370008091E70387FD05C08091E80080FF0EC0D3
:1023800012C08091E80082FD05C08091E6038111B2
:10239000F8CF08958091E8008B7708C08091E6031C
:1023A0008111EACF08958091E8008E778093E8004C
:1023B00008958091E4009091E50045E62091EC00BD
:1023C00020FF21C02091E80020FD21C02091E603DC
:1023D000222389F0253089F02091EB0025FD0FC0E4
:1023E0002091E4003091E5002817390739F3415076
:1023F00041F0C901E3CF82E0089583E0089581E0D0
:10240000089584E008952091E80022FFDFCF80E066
:1024100008950E9472120E947A12E0EEF0E080812C
:1024200081608083E8EDF0E080818F77808319BC44
:10243000A7EDB0E08C918E7F8C9380818F7E80831E
:102440001092E50308950F931F93CF93DF930E949B
:1024500072120E947A12C8EDD0E088818F7788834B
:1024600088818068888388818F7D888319BC1092D9
:10247000E6031092E2031092E4031092E30300EEED
:1024800010E0F80180818B7F808388818160888360
:1024900042E060E080E00E948311E1EEF0E08081A4
:1024A0008E7F8083E2EEF0E0808181608083808196
:1024B00088608083F80180818E7F8083888180613D
:1024C0008883DF91CF911F910F910895E7EDF0E0A0
:1024D00080818160808384E082BF81E08093E50316
:1024E0000C942312E8EDF0E080818E7F80831092BF
:1024F000E20008951092DA001092E10008951F9210
:102500000F920FB60F9211242F933F934F935F9327
:102510006F937F938F939F93AF93BF93EF93FF93AB
:102520008091E10082FF0BC08091E20082FF07C032
:102530008091E1008B7F8093E1000E94CC0F80911D
:10254000DA0080FF1FC08091D80080FF1BC08091FF
:10255000DA008E7F8093DA008091D90080FF0DC071
:1025600080E189BD82E189BD09B400FEFDCF81E033
:102570008093E6030E94C60F05C019BC1092E603C3
:102580000E94C70F8091E10080FF19C08091E20096
:1025900080FF15C08091E2008E7F8093E2008091E1
:1025A000E20080618093E2008091D8008062809395
:1025B000D80019BC85E08093E6030E94C90F809182
:1025C000E10084FF2EC08091E20084FF2AC080E1F8
:1025D00089BD82E189BD09B400FEFDCF8091D8009C
:1025E0008F7D8093D8008091E1008F7E8093E10001
:1025F0008091E2008F7E8093E2008091E200816012
:102600008093E2008091E203811104C08091E30095
:1026100087FF02C084E001C081E08093E6030E944E
:10262000CA0F8091E10083FF29C08091E20083FFFF
:1026300025C08091E100877F8093E10082E0809354
:10264000E6031092E2038091E1008E7F8093E10027
:102650008091E2008E7F8093E2008091E2008061B1
:102660008093E20042E060E080E00E94831180916C
:10267000F00088608093F0000E94C80FFF91EF91F6
:10268000BF91AF919F918F917F916F915F914F918A
:102690003F912F910F900FBE0F901F9018951F9292
:1026A0000F920FB60F9211242F933F934F935F9386
:1026B0006F937F938F939F93AF93BF93CF93EF933A
:1026C000FF93C091E900CF708091EC001092E90077
:1026D0008091F000877F8093F00078940E948D14A1
:1026E0001092E9008091F00088608093F000C09320
:1026F000E900FF91EF91CF91BF91AF919F918F91A1
:102700007F916F915F914F913F912F910F900FBEED
:102710000F901F901895CF92DF92EF92FF920F9338
:102720001F93CF93DF937C018B01EA010E94D911A3
:10273000811131C0209731F088819981081B190BD4
:10274000E80EF91EC12CD12C0115110519F180914B
:10275000E80085FD14C08091E8008E778093E80042
:10276000209741F0888199818C0D9D1D99838883E4
:1027700085E011C00E94D911882331F30CC0F70104
:1027800081917F018093F10001501109FFEFCF1A71
:10279000DF0ADACF80E0DF91CF911F910F91FF9098
:1027A000EF90DF90CF9008952091ED033091EE03EC
:1027B0002617370748F06115710539F42091E800B4
:1027C0002E772093E80001C0B901FC0120E06115DB
:1027D0007105A9F18091E6038823E9F18530E9F1DB
:1027E0008091E80083FD35C08091E80082FF06C03B
:1027F0008091E80082FF26C080E008958091E80083
:1028000080FFE5CF2091F3008091F20090E0922BC1
:102810006115710551F08830910538F421912093AC
:10282000F100615071090196F3CF21E0089709F09A
:1028300020E08091E8008E778093E800C8CF2111D6
:10284000C9CFD6CF8091E603882329F0853081F661
:1028500004C081E0089582E0089583E00895209106
:10286000ED033091EE032617370748F06115710527
:1028700039F42091E8002E772093E80001C0B901D7
:10288000FC0120E061157105C1F18091E603882308
:1028900009F43FC0853009F43EC08091E80083FD13
:1028A00036C08091E80082FF06C08091E80082FF78
:1028B00027C080E008958091E80080FFE3CF209159
:1028C000F3008091F20090E0922B6115710559F0B0
:1028D0008830910540F424912093F10031966150A5
:1028E00071090196F2CF21E0089709F020E080916C
:1028F000E8008E778093E800C5CF2111C6CFD5CFF1
:102900008091E603882329F0853079F604C081E0C0
:10291000089582E0089583E008950F931F93CF9365
:10292000DF93CDB7DEB7AA970FB6F894DEBF0FBE20
:10293000CDBFE7EEF3E08091F100819323E0EF3E1D
:10294000F207C9F70E9413108091E80083FF1DC1B0
:102950002091E7033091E803832F90E08A309105BE
:1029600008F013C1FC01EA5AFF4F0C94A836203836
:1029700081F0223809F009C18091EB038F708093B8
:10298000E9008091EB0085FB882780F91092E9002F
:1029900006C08091E3039091E403911182609091CD
:1029A000E800977F9093E8008093F1001092F10087
:1029B000C6C0822F8D7F09F0E8C0222319F0223093
:1029C00061F0E3C08091E903813009F0DEC033306B
:1029D00009F080E08093E40328C08091E90381112D
:1029E00024C02091EB032F7009F4CFC02093E9009D
:1029F0008091EB0080FF19C08091EB00333011F41F
:102A0000806211C080618093EB0081E090E0022E33
:102A100001C0880F0A94EAF78093EA001092EA0056
:102A20008091EB0088608093EB001092E900809128
:102A3000E800877F87C02111A8C01091E9031F77A4
:102A40000FB7F8948091E800877F8093E8000E9498
:102A5000B8118091E80080FFFCCF8091E30080787E
:102A6000812B8093E30080688093E300112311F0B1
:102A700083E001C082E08093E6030FBF86C0205848
:102A8000223008F082C08091E9039091EA038C3DE6
:102A900023E0920779F583E08A838AE289834FB73E
:102AA000F894DE01139620E03EE051E2E32FF0E0DF
:102AB00050935700E49120FF03C0E295EF703F5F11
:102AC000EF708E2F90E0EA3010F0C79601C0C096EC
:102AD0008D939D932F5F243149F74FBF8091E8007C
:102AE000877F8093E8006AE270E0CE0101960E9441
:102AF000D41314C0AE014F5F5F4F6091EB030E948F
:102B00001411009709F441C02091E800277F209319
:102B1000E800BC0189819A810E942F148091E8000D
:102B20008B778093E80031C0203879F58091E800F8
:102B3000877F8093E8008091E2038093F100809189
:102B4000E8008E778093E8000E94B8111EC0211122
:102B50001CC09091E9039230C0F48091E800877F17
:102B60008093E8009093E2030E94B8118091E20301
:102B7000811104C08091E30087FF02C084E001C09E
:102B800081E08093E6030E94FA0F8091E80083FFC2
:102B90000AC08091EB0080628093EB008091E80096
:102BA000877F8093E800AA960FB6F894DEBF0FBE29
:102BB000CDBFDF91CF911F910F9108959093D402D3
:102BC0008093D30208958091D3029091D402089506
:102BD000E091D302F091D402309721F00190F0817E
:102BE000E02D099480E00895FF920F931F93CF93F7
:102BF000DF938C01E091D302F091D402309799F1E8
:102C00000280F381E02D09958091D90382FF2BC0CA
:102C100080FF04C086EE94E00E941909E80180E17B
:102C2000F82E00EE14E08091D90380FF0BC088815C
:102C30001F928F931F930F930E94B2090F900F90D2
:102C40000F900F90FA942196F110EDCF8091D90357
:102C500080FF09C08EED94E0DF91CF911F910F911D
:102C6000FF900C941909DF91CF911F910F91FF9064
:102C70000895E091D302F091D402309721F00480BE
:102C8000F581E02D099408952091D1023091D2026E
:102C90008217930771F09093D2028093D102E09152
:102CA000D302F091D402309721F00680F781E02D15
:102CB000099408952091CF023091D0028217930792
:102CC00071F09093D0028093CF02E091D302F09103
:102CD000D402309721F00084F185E02D0994089505
:102CE0000E9479240E94D3090E94E3250E94613446
:102CF0000E94D9320E94BC300E94A5310C946B35E1
:102D0000CF93C82F8091D90382FF1EC080FF04C0DB
:102D10008FEF94E00E9419098091D90380FF0CC0C5
:102D20001F92CF932AEF34E03F932F930E94B20972
:102D30000F900F900F900F908091D90380FF04C0E7
:102D400088EF94E00E9419098C2FCF910C942B33BB
:102D50004F925F926F927F929F92AF92BF92CF926B
:102D6000DF92EF92FF920F931F93CF93DF93CDB734
:102D7000DEB72E970FB6F894DEBF0FBECDBF0E9410
:102D8000EF0936EDA32E32E0B32E00E010E0902ED6
:102D9000802F0E947A0AF501C190D190E190F190C4
:102DA0005F01C626D726E826F926C114D104E1041E
:102DB000F104B1F40F5F1F4F0032110541F78FEF9F
:102DC00089838A831B820E9482248160782F9D835D
:102DD0008C8349815A816B818D810E947A1C5EC0EF
:102DE0002091D90321FF0AC06B877C878D879E873E
:102DF0000E94850A9E858D857C856B8520E030E06C
:102E0000422F26013701022E04C07694679457940E
:102E100047940A94D2F740FE3AC02E839F82C12C79
:102E2000D12C7601C39404C0CC0CDD1CEE1CFF1C1D
:102E30004A95D2F7DC01CB018C219D21AE21BF2127
:102E400021E0892B8A2B8B2B09F420E028870E9414
:102E500082248160782F9A8789874E815F81688577
:102E60008A850E947A1CF801EE0FFF1FEE0FFF1FEC
:102E7000EA52FD4F80819181A281B3818C259D25ED
:102E8000AE25BF2580839183A283B38307C02F5FC4
:102E90003F4F2032310509F0B3CF8CCF0E94572924
:102EA0001091D5020E94E8151817D9F00E94E81574
:102EB0008093D5022E960FB6F894DEBF0FBECDBF1D
:102EC000DF91CF911F910F91FF90EF90DF90CF9006
:102ED000BF90AF909F907F906F905F904F900C94B9
:102EE00080162E960FB6F894DEBF0FBECDBFDF91D1
:102EF000CF911F910F91FF90EF90DF90CF90BF90F7
:102F0000AF909F907F906F905F904F900895CF9378
:102F1000C82F882309F4C1C0823859F40E94E815EB
:102F200081FDBBC089E30E9491210E943A2389E37D
:102F30000CC0833879F40E94E81580FDAEC083E5AB
:102F40000E9491210E943A2383E50E946222CF9140
:102F50000C943A23843859F40E94E81582FD9DC0F0
:102F600087E40E9491210E943A2387E4EECF8CEF00
:102F70008C0F813A48F48C2F0E94762C81118DC0E1
:102F80008C2F0E949121E3CF80E28C0F883048F48F
:102F9000C77081E001C0880FCA95EAF70E940C2330
:102FA000D6CF8BE58C0F833078F4C53A29F0C63A3A
:102FB00031F482E890E005C081E890E002C083E847
:102FC00090E0CF910C94441688E58C0F833108F083
:102FD00064C0C83A39F1C93A41F1CA3A49F1CB3A29
:102FE00051F1CC3A59F1CD3A61F1C03B69F1CE3A99
:102FF00071F1CF3A79F1C13B81F1C23B89F1C33B19
:1030000091F1C43B99F1C53BA1F1C63BA9F1C73B86
:10301000B1F1C83BB9F1C93BC1F1CA3BC9F58AE27C
:1030200092E038C082EE90E035C089EE90E032C088
:103030008AEE90E02FC085EB90E02CC086EB90E00C
:1030400029C087EB90E026C08CEC90E023C08DEC8B
:1030500090E020C083E891E01DC08AE891E01AC0AA
:1030600082E991E017C084E991E014C081E292E026
:1030700011C083E292E00EC084E292E00BC085E2D0
:1030800092E008C086E292E005C087E292E002C0CA
:1030900080E090E0CF910C945A16CF910895882348
:1030A00009F44BC0823859F40E94E81581FF45C0ED
:1030B00089E30E9491210E943A2389E30CC083385E
:1030C00071F40E94E81580FF38C083E50E949121C9
:1030D0000E943A2383E50E9462220C943A238438AA
:1030E00059F40E94E81582FF28C087E40E949121CC
:1030F0000E943A2387E4EFCF9CEF980F913A58F360
:1031000090E2980F983050F4877091E001C0990FC9
:103110008A95EAF7892F0E941223DFCF9BE5980F4B
:10312000933020F480E090E00C944416885A833168
:1031300020F480E090E00C945A160895882321F042
:103140000E940C230C943A230895882321F00E94B6
:1031500012230C943A230895CF92DF92EF92FF92BC
:103160000F931F93CF93DF93CDB7DEB728970FB69A
:10317000F894DEBF0FBECDBF8C0185E0F801DE0103
:10318000119601900D928A95E1F7F8014081318105
:10319000F280258122952F7083819481892B31F0D3
:1031A0003F3F31F481E04F3F19F403C081E001C09B
:1031B00080E080FD2BC349833A8389819A812F83E4
:1031C0000E944F219E8388870E944E210E94762074
:1031D0004E81E42FE295EF70F0E0E05AFF4F2F812F
:1031E00068850C94A836842F807F142F1F70882345
:1031F00011F01295107FFF2059F0112309F447C2F6
:10320000812F68870E941C230E943A2368853FC251
:10321000862F0E944F18112309F4F8C2812F0E94B3
:10322000222328960FB6F894DEBF0FBECDBFDF91E4
:10323000CF911F910F91FF90EF90DF90CF900C9462
:103240003A23342F307F842F8F70303211F08295E3
:10325000807F662319F0613009F12AC0FF20A1F0B8
:10326000222381F1213071F528960FB6F894DEBF44
:103270000FBECDBFDF91CF911F910F91FF90EF90C7
:10328000DF90CF900C942C23222319F0213009F4E5
:10329000BDC28E830E942F238E8126C0FF2021F085
:1032A000263008F0B3C20EC0253008F0AFC21CC0F3
:1032B000FF20C1F0222331F0F801958190FFE7C192
:1032C0009F70958328960FB6F894DEBF0FBECDBFD2
:1032D000DF91CF911F910F91FF90EF90DF90CF90F2
:1032E0000C949E182111E7C128960FB6F894DEBF02
:1032F0000FBECDBFDF91CF911F910F91FF90EF9047
:10330000DF90CF900C94A518242F26952695237036
:1033100030E02115310521F021303105C9F076C2A8
:10332000FF2021F0862F942F937002C080E090E060
:1033300028960FB6F894DEBF0FBECDBFDF91CF91B8
:103340001F910F91FF90EF90DF90CF900C94441657
:10335000FF2021F0862F942F937002C080E090E030
:1033600028960FB6F894DEBF0FBECDBFDF91CF9188
:103370001F910F91FF90EF90DF90CF900C945A1611
:10338000862FFF2019F00E94DD2702C00E944528E9
:1033900028960FB6F894DEBF0FBECDBFDF91CF9158
:1033A0001F910F91FF90EF90DF90CF900C94CA285F
:1033B000842F837009F076C0F11028C2262F229541
:1033C00026952770220F220F862F8F70C82ED12CA2
:1033D000E12CF12C022E04C0CC0CDD1CEE1CFF1CD9
:1033E0000A94D2F764FF10C06FE070E080E090E0D4
:1033F00004C0660F771F881F991F2A95D2F7609522
:1034000070958095909503C060E070E0CB01242F0B
:10341000269526952370422F50E042305105D1F079
:103420004330510559F16C297D298E299F2941305E
:10343000510541F128960FB6F894DEBF0FBECDBFFF
:10344000DF91CF911F910F91FF90EF90DF90CF9080
:103450000C948B206C297D298E299F2928960FB6E4
:10346000F894DEBF0FBECDBFDF91CF911F910F91BA
:10347000FF90EF90DF90CF900C949D200E948B20C6
:10348000C701B60128960FB6F894DEBF0FBECDBFB8
:10349000DF91CF911F910F91FF90EF90DF90CF9030
:1034A0000C947920FF2019F0842F817001C086953B
:1034B000882309F4ABC1262F229526952770220F69
:1034C000220F862F8F70C82ED12CE12CF12C022ECA
:1034D00004C0CC0CDD1CEE1CFF1C0A94D2F764FF68
:1034E00010C06FE070E080E090E004C0660F771FCE
:1034F000881F991F2A95D2F76095709580959095B1
:1035000003C060E070E0CB01242F26952695237040
:10351000422F50E042305105D1F04330510559F16E
:103520006C297D298E299F294130510541F128962A
:103530000FB6F894DEBF0FBECDBFDF91CF911F91C4
:103540000F91FF90EF90DF90CF900C942A216C297F
:103550007D298E299F2928960FB6F894DEBF0FBECD
:10356000CDBFDF91CF911F910F91FF90EF90DF9032
:10357000CF900C943C210E942A21C701B6012896C5
:103580000FB6F894DEBF0FBECDBFDF91CF911F9174
:103590000F91FF90EF90DF90CF900C941821613F36
:1035A00029F118F4603F39F06DC0623F99F1633F33
:1035B00009F444C067C0FF20A9F0253008F026C1F7
:1035C000842F8F7128960FB6F894DEBF0FBECDBF43
:1035D000DF91CF911F910F91FF90EF90DF90CF90EF
:1035E0000C94FD20263008F011C1EACFFF20A1F095
:1035F000842F8F7128960FB6F894DEBF0FBECDBF13
:10360000DF91CF911F910F91FF90EF90DF90CF90BE
:103610000C94C320FF2061F3842F8F7128960FB67E
:10362000F894DEBF0FBECDBFDF91CF911F910F91F8
:10363000FF90EF90DF90CF900C94DE20FF2091F070
:10364000842F8F7128960FB6F894DEBF0FBECDBFC2
:10365000DF91CF911F910F91FF90EF90DF90CF906E
:103660000C94B42028960FB6F894DEBF0FBECDBFE1
:10367000DF91CF911F910F91FF90EF90DF90CF904E
:103680000C94AF20FF20A1F0222309F4B1CF862FA4
:1036900028960FB6F894DEBF0FBECDBFDF91CF9155
:1036A0001F910F91FF90EF90DF90CF900C948717B0
:1036B000222309F4B1CF862F28960FB6F894DEBFE7
:1036C0000FBECDBFDF91CF911F910F91FF90EF9073
:1036D000DF90CF900C944F184F70C8010E94752452
:1036E00028960FB6F894DEBF0FBECDBFDF91CF9105
:1036F0001F910F91FF90EF90DF90CF900C94E01FFF
:10370000F11084C0662341F0842F8F70843021F043
:10371000407F862F8F70482B942F9F70492F50E049
:103720004230510509F440C0BCF44115510561F126
:103730004130510509F06AC028960FB6F894DEBFF3
:103740000FBECDBFDF91CF911F910F91FF90EF90F2
:10375000DF90CF900C94E23143305105A9F1443011
:10376000510509F053C0862F28960FB6F894DEBF96
:103770000FBECDBFDF91CF911F910F91FF90EF90C2
:10378000DF90CF900C94783228960FB6F894DEBF75
:103790000FBECDBFDF91CF911F910F91FF90EF90A2
:1037A000DF90CF900C94B63128960FB6F894DEBF18
:1037B0000FBECDBFDF91CF911F910F91FF90EF9082
:1037C000DF90CF900C940E3228960FB6F894DEBF9F
:1037D0000FBECDBFDF91CF911F910F91FF90EF9062
:1037E000DF90CF900C9440324F70C80128960FB6EE
:1037F000F894DEBF0FBECDBFDF91CF911F910F9127
:10380000FF90EF90DF90CF900C94782428960FB61D
:10381000F894DEBF0FBECDBFDF91CF911F910F9106
:10382000FF90EF90DF90CF9008950E9429230E948F
:10383000FE220E943A230E94F8290E94CA2880E0B2
:1038400090E00E94441680E090E00C945A160E948A
:1038500019230C94151C0E944F21292F22952F709B
:1038600030E02C3031054CF42A3031056CF4225014
:1038700031092230310570F407C02C30310531F0A8
:103880002F30310519F006C081E0089593FB882799
:1038900080F9089580E00895CF93DF9300D000D0A1
:1038A0001F92CDB7DEB70F900F900F900F900F9033
:1038B000DF91CF910895CF93DF9300D000D000D057
:1038C000CDB7DEB726960FB6F894DEBF0FBECDBFDC
:1038D000DF91CF910895CF93DF9300D000D01F9256
:1038E000CDB7DEB70F900F900F900F900F90DF9134
:1038F000CF910895CF93DF93CDB7DEB72B970FB657
:10390000F894DEBF0FBECDBF4F83588769877A8793
:103910008B87DE01119686E0FD0111928A95E9F709
:1039200085E0FE01379601900D928A95E1F74F816F
:10393000588569857A858B850E946B1C49815A81DF
:103940006B817C818D819E810E94331F2B960FB6E7
:10395000F894DEBF0FBECDBFDF91CF9108951F93C6
:10396000CF93DF93C091560316E080915703C81799
:1039700099F0D0E01C9FF0011D9FF00D1124E85A32
:10398000FC4F4081518162817381848195810E94C5
:103990005B1C2196C770E9CFDF91CF911F910895ED
:1039A000409188035091890360918A0370918B0341
:1039B00080918C0390918D030C945B1CCF9380912C
:1039C0008D0382958F7009F05FC080918A038823F0
:1039D00009F45AC020915603A091570360918803BF
:1039E0007091890380918B0390918C0331E06F3F3C
:1039F00009F030E0B32FC6E02A1709F445C000975C
:103A000021F07F3F21F44B2F03C041E001C040E093
:103A100030E040FD35C0C29FF001C39FF00D11247E
:103A2000E85AFC4F418174132BC04081641328C0B5
:103A30004281411125C0438154814817590710F430
:103A400041505109481B590B483C5105C8F480911D
:103A50008D038F70806180938D0386E0829FF001DB
:103A6000839FF00D1124E35AFC4F80818F70806199
:103A7000808388E893E00E94AC18CF910C94AF1C2F
:103A80002F5F3F4F2770B8CFCF910895CF92DF922D
:103A9000EF92FF920F931F93CF93DF93CDB7DEB7D3
:103AA00062970FB6F894DEBF0FBECDBF8C0185E0E4
:103AB000F801DE011D9601900D928A95E1F7D8017B
:103AC0004C9111965C91119712966C9112971396E6
:103AD000ED90FC90149770918803E09189032091F8
:103AE0008B0330918C032115310531F0EF3F31F418
:103AF00081E07F3F19F403C081E001C080E0B82F6E
:103B0000B170CB2E80FD6CC1D0908A03DD2009F40A
:103B1000F5C0F0918D03E216F30638F0C701821B61
:103B2000930B883C910548F09BC0209530952E0D55
:103B30003F1D283C310508F093C08F2F807F09F08E
:103B400052C0E51314C0741312C0D62E61110FC0F9
:103B5000FF70F061F0938D030E94D01C88E893E021
:103B60000E94AC1880918D03F80185836CC1EF2809
:103B700031F05F3F31F481E04F3F19F403C081E041
:103B800001C080E080FD03C081E0862701C080E0A5
:103B9000F82FF170FF2E80FF1CC0809156032091FA
:103BA000570336E0821709F428C190E0389FF001EE
:103BB000399FF00D1124E85AFC4F7181571306C04C
:103BC0007081471303C07281671303C00196877029
:103BD000E9CFD62E662309F436C180918D0381602A
:103BE00080938D0353C0E51308C0741306C06111A0
:103BF00004C0D8011596FC93AEC04D875E878D85B5
:103C00009E856A8B0E942B1C6A89882329F1D62EF7
:103C1000662311F120918D03822F82958F7090E0A1
:103C200002970CF460C08091880390918903988773
:103C30008F831986FB86EA862C87CE01079651C0B2
:103C4000E51731F14D875E878D859E856A8B0E94D1
:103C50002B1C6A8981112EC0C8010E94AC18A4C017
:103C60008F2F807F69F77E2DF98AE88A89890E94E3
:103C70004C1C88E893E00E94AC18E8E8F3E086E08A
:103C8000DF011D928A95E9F70E94D01CD12CDBC080
:103C90007413D8CF6111D6CFD8011596FC93C80103
:103CA0000E94AC18E8E8F3E086E0DF011D928A95F7
:103CB000E9F7C9C0D62E662379F220918D03822FB1
:103CC00082958F7090E0029774F0809188039091B4
:103CD00089039A8389831B82FD82EC822E83CE0125
:103CE00001960E94AC1886E0F801A8E8B3E00190C4
:103CF0000D928A95E1F70E94DE1C6FC0E216F30672
:103D000028F0C701821B930B9C0104C020953095BD
:103D10002E0D3F1D283C310508F052C0D62E6623DB
:103D200009F49ACFE5132CC074132AC080918D0337
:103D300080FD1DC0982F92959F70C9F0D8011596EF
:103D40008C9315979F3039F09F5F9295907F8F707D
:103D5000892B15968C93C8010E94AC1886E0F80157
:103D6000A8E8B3E001900D928A95E1F736C086E0AD
:103D7000F801A8E8B3E001900D928A95E1F763C0DD
:103D80004D875E878D859E850E942B1C882379F048
:103D900086E0F801A8E8B3E001900D928A95E1F77A
:103DA0000E94DE1C0E94D01CDD24D3944CC0809164
:103DB0008D03816080938D03C8010E94AC1843C0BD
:103DC0007E2DF98AE88A89890E944C1CE8E8F3E094
:103DD00086E0DF011D928A95E9F70E94D01C33C06E
:103DE000662309F439CF4D875E878D859E850E94B5
:103DF0002B1C882309F430CFCBCF4D875E878D8570
:103E00009E850E944F21292F22952F7030E022306D
:103E100031052CF49F7041F0811106C00CC0243094
:103E200031052CF49F7049F4805E883020F0C80181
:103E30000E94AC18CF2CDC2C06C0D80115969C91A2
:103E4000907F91F7F8CF8D2D62960FB6F894DEBF74
:103E50000FBECDBFDF91CF911F910F91FF90EF90DB
:103E6000DF90CF9008951F93CF93DF93CDB7DEB748
:103E70002C970FB6F894DEBF0FBECDBF4F83588787
:103E800069877A878B879C87CE0107960E94461D9B
:103E90008823C1F02F8138858A859B85892B31F055
:103EA0003F3F11F080E003C02F3FE1F781E0811137
:103EB00047C04F81588569857A858B859C850E948E
:103EC0005B1C3EC086E0FE013796DE011196019034
:103ED0000D928A95E1F7FF81E8854A855B8541155A
:103EE000510531F0EF3F31F481E0FF3F19F403C099
:103EF00081E001C080E080FD23C02091570330E0C5
:103F0000C9010196877099276091560370E0861762
:103F10009707F1F1F983EA835D834C8396E0929FE2
:103F2000D001939FB00D1124A85ABC4FFE013196C9
:103F300001900D929A95E1F7809357030E94AF1C70
:103F400016E08091560390915703891779F1189FD5
:103F5000C0011124885A9C4F0E94461D882331F1CC
:103F6000E09156031E9FF0011124E85AFC4F408156
:103F7000518162817381848195810E945B1C809153
:103F8000560390E001968770992780935603D9CF06
:103F90000E94271C1092570310925603E8E8F3E0A2
:103FA00086E0DF011D928A95E9F7CACF2C960FB6FD
:103FB000F894DEBF0FBECDBFDF91CF911F91089562
:103FC000EF92FF920F931F93CF93DF93FC01009723
:103FD00009F46DC0F12CEE24E394EF012196849155
:103FE000843740F4843008F053C0813081F082304F
:103FF00021F15DC0853709F445C0B0F19CE7980F09
:10400000903708F054C08F770E944F1843C08F013B
:104010000E5F1F4FFE01849190E2980F983050F48C
:104020008770FE2D01C0FF0F8A95EAF78F2F0E943F
:104030001C2315C00E94871712C08F010E5F1F4FEF
:10404000FE01849190E2980F983058F48770FE2D0D
:1040500001C0FF0F8A95EAF78F2F0E942223E80103
:1040600019C00E944F18FBCFCF010296FE01C491E8
:10407000CC2361F0EFE9FFE03197F1F700C00000D9
:10408000C150F6CFCF010296FE01F490EC0102C0C0
:104090000E9487178F2D882341F0EFE9FFE03197C9
:1040A000F1F700C000008150F6CFFE0196CFDF91FE
:1040B000CF911F910F91FF90EF900895609392031D
:1040C0007093930380939403909395030E948B3392
:1040D0000C94151C60938E0370938F038093900350
:1040E000909391030E94E2330C94151C08950C9454
:1040F0005E200F931F9300919203109193032091E0
:10410000940330919503602B712B822B932B1F917D
:104110000F910C945E200F931F93009192031091C6
:10412000930320919403309195036023712382239C
:1041300093231F910F910C945E200F931F93009176
:10414000920310919303209194033091950360277B
:104150007127822793271F910F910C945E2060E0B6
:1041600070E0CB010C946A2041E050E060E070E028
:1041700004C0440F551F661F771F8A95D2F7CB01E5
:10418000BA010C946A2041E050E060E070E004C0A5
:10419000440F551F661F771F8A95D2F780918E03B3
:1041A00090918F03A0919003B0919103482B592BCC
:1041B0006A2B7B2BCB01BA010C946A2041E050E0C2
:1041C00060E070E004C0440F551F661F771F8A959A
:1041D000D2F7409550956095709580918E0390919F
:1041E0008F03A0919003B0919103482359236A2330
:1041F0007B23CB01BA010C946A2041E050E060E0DF
:1042000070E004C0440F551F661F771F8A95D2F7D0
:1042100080918E0390918F03A0919003B0919103B0
:10422000482759276A277B27CB01BA010C946A20BB
:104230000F931F9300918E0310918F032091900391
:1042400030919103602B712B822B932B1F910F9137
:104250000C946A200F931F9300918E0310918F038B
:104260002091900330919103602371238223932343
:104270001F910F910C946A200F931F9300918E034E
:1042800010918F0320919003309191036027712743
:10429000822793271F910F910C946A200895CF9243
:1042A000DF92EF92FF920F931F93CF93DF93EC0176
:1042B000C0909203D0909303E0909403F090950304
:1042C00080918E0390918F03A0919003B091910300
:1042D000C82AD92AEA2AFB2A0FE110E0B701A60171
:1042E000002E04C076956795579547950A94D2F7A6
:1042F00040FF07C0BE01802F0E940224813091053B
:1043000039F40150110950F7BE0180E00E940224E7
:10431000DF91CF911F910F91FF90EF90DF90CF90A1
:104320000895CF92DF92EF92FF920F931F93CF9356
:10433000DF93F82E80918E01882349F18F2D869589
:10434000869586958F3090F4E0918F01F0919001E1
:10435000E80FF11D8F2D877021E030E001C0220FA2
:104360008A95EAF78181822B8183A3C08091D9034A
:1043700080FF9FC01F92FF9280E395E09F938F93F1
:104380000E94B2090F900F900F900F9092C0E09092
:10439000A9034091A703E0918F01F091900144237C
:1043A00009F472C02091A8038E2D3FEF06E010E0C3
:1043B000A82FBB27A7FDB095EF01CA0FDB1F9A817D
:1043C0009F1509F476C03F3F19F4911101C0382FB1
:1043D000CD010196C6E0D0E0B8010E949436821368
:1043E000E7CF2E1151C03F3F71F4822F992787FDEF
:1043F00090950196BE010E9494368093A903415086
:104400004093A70341C0832F992787FD909501967C
:10441000BE010E949436EE24E394C6E0D0E0082F5B
:10442000112707FD10956F01C00ED11ED6011296FF
:104430006C916623A1F0432F552747FD5095CF017E
:10444000840F951FDC0112966C93D60112961C9274
:10445000CA010196BE010E949436382F01C0E39430
:10446000C8010196BE010E9494368213D8CF822FD4
:10447000992787FD90958E199109069666E070E060
:104480000E9494368093A8032091A803332727FD28
:104490003095E20FF31FF282C901019666E070E0E9
:1044A0000E9494368093A8038091A7038F5F809326
:1044B000A703DF91CF911F910F91FF90EF90DF90B5
:1044C000CF900895DF92EF92FF920F931F93CF93B7
:1044D000DF93482F80918E01882351F1842F869598
:1044E000869586958F3098F4E0918F01F091900138
:1044F000E80FF11D477021E030E0042E01C0220FCB
:104500000A94EAF720958181282321836FC0809146
:10451000D90380FF6BC01F924F9382E195E09F9378
:104520008F930E94B2090F900F900F900F905EC072
:10453000E091A903D090A703DD2009F457C0C091F2
:104540008F01D09190010091A803112707FD1095CC
:1045500086E0E82EF12CF0E0DE01AE0FBF1F9D01DA
:104560002E5F3F4F12968C91841336C0D9011C9256
:10457000DA94D092A703D11004C01092A90310922C
:10458000A8032091A803822F992787FD909505966F
:1045900066E070E00E949436E817F90739F540911B
:1045A000A903E6E0F0E0822F992787FD9095059614
:1045B000BF010E9494369C010596BF010E9494366B
:1045C0008C0F9D1FDC0112968C91811102C0241367
:1045D000EACF2093A8030AC0CF010196B7010E9439
:1045E0009436E82F8017910709F0B5CFDF91CF916E
:1045F0001F910F91FF90EF90DF90089581E090E080
:10460000E0918F01F0919001E80FF91F108201965F
:1046100080319105A9F708959091AB03982B909361
:10462000AB03089580959091AB0398239093AB03CF
:1046300008951092AB0308959091AA03982B90933C
:10464000AA03089580959091AA0398239093AA03B2
:1046500008951092AA0308958093960308951092E6
:104660009603089580918E01811103C08091A70364
:1046700008950895E0918F01F09190018091AB032E
:104680008083E0918F01F091900180819091AA0345
:10469000892B808390919603992361F0E0918F019B
:1046A000F09190018081892B80830E9432238111B7
:1046B0001092960380918F01909190010C94F415C3
:1046C0008B3B60F4883A00F5853AA8F4843088F48E
:1046D000813009F055C081E090E00895803E08F4F3
:1046E0004FC0883E30F0803F08F44AC090E09065AB
:1046F000089590E00895853A09F445C0863A09F096
:1047000045C082E890E40895883A09F442C0893AA5
:1047100009F442C08A3A09F442C08B3A09F442C013
:104720008C3A09F442C08D3A09F442C0803B09F446
:1047300042C08E3A09F442C08F3A09F442C0813B2C
:1047400009F442C0823B09F442C0833B09F442C0F1
:10475000843B09F442C0853B09F442C0863B09F41E
:1047600042C0873B09F442C0883B09F442C0893B00
:1047700009F442C08A3B09F042C08AE296E40895F7
:1047800080E090E0089581E890E4089583E890E463
:10479000089582EE94E4089589EE94E408958AEEF3
:1047A00094E4089585EB94E4089586EB94E40895E9
:1047B00087EB94E408958CEC94E408958DEC94E4F4
:1047C000089583E895E408958AE895E4089582E9D8
:1047D00095E4089584E995E4089581E296E40895C6
:1047E00083E296E4089584E296E4089585E296E4EF
:1047F000089586E296E4089587E296E4089580E0BD
:1048000094E408950E94C109803EA8F4803C00F51C
:10481000813309F45CC038F4893209F452C08A3219
:1048200009F45BC05FC08933B1F08238A1F08533F1
:1048300009F441C057C0833E41F128F4803E99F00D
:10484000823EB9F04FC0863E31F1873E71F14AC0D9
:104850000E94C50908959091D80390FD02C091FF70
:1048600041C080EE3FC08091D80380FFFACF89E33A
:1048700039C08091D80382FF0CC08091D80384FF97
:1048800002C080E02FC083EE2DC08091D80382FF4C
:10489000F4CF82EE27C08091D80383FF0AC08091B5
:1048A000D80384FDEECF87EE1DC08091D80383FF2F
:1048B000F6CF86EE17C08091D80385FF06C089E247
:1048C00011C08091D80385FFFACF85E30BC080919A
:1048D000D80386FF06C08AE205C08091D80386FF10
:1048E000FACF81E30E946023089580E090E008956C
:1048F000089582E084BD93E095BD9AEF97BD8093C3
:104900006E0008952FB7F8948091AC039091AD0399
:10491000A091AE03B091AF032FBF0895CF92DF9265
:10492000EF92FF920F931F932FB7F8944091AC032F
:104930005091AD036091AE037091AF032FBF6A0138
:104940007B01EE24FF248C0120E030E0C016D1066C
:10495000E206F30610F441505109481B590BCA01F5
:104960001F910F91FF90EF90DF90CF9008951F92CD
:104970000F920FB60F9211248F939F93AF93BF9313
:104980008091AC039091AD03A091AE03B091AF03C1
:104990000196A11DB11D8093AC039093AD03A0932C
:1049A000AE03B093AF03BF91AF919F918F910F90E2
:1049B0000FBE0F901F9018959093B1038093B00392
:1049C00008950E940912F8942FEF87EA91E621508A
:1049D00080409040E1F700C0000087E090EBDC01F0
:1049E0008093F0039093F103A093F203B093F30349
:1049F0002CE088E190E00FB6F894A89580936000D1
:104A00000FBE20936000FFCF80E00C94CC0ACF93C0
:104A10000E94EF09C0E08C2F0E947A0A672B682B56
:104A2000692B29F4CF5FC032B1F780E001C081E08B
:104A3000CF9108950E94271C0C94A531CF92DF924C
:104A4000EF92FF920F931F936C01EE24FF24C11489
:104A5000D104E104F10421F46B017C0180E001C088
:104A600080E133272F2D1E2D0D2D01151105210558
:104A7000310519F0885F6801790197018601A4E08A
:104A80003695279517950795AA95D1F70115110524
:104A90002105310519F08C5F6801790197018601C4
:104AA000F2E03695279517950795FA95D1F70115F8
:104AB00011052105310519F08E5F68017901B701F3
:104AC000A6017695679557954795452B462B472B1D
:104AD00009F08F5F1F910F91FF90EF90DF90CF90C3
:104AE00008958295982F9C7C96959695837344E0C3
:104AF000849F90011124922B892F8A7A869595752F
:104B0000990F892B08951F93CF93DF931F92CDB7F1
:104B1000DEB799830E947125182F9981892F0E94F1
:104B20007125212F30E0322F2227A901482BCA01FD
:104B30000F90DF91CF911F910895CF92DF92EF9266
:104B4000FF920F931F93CF93DF93082F10E0812FD5
:104B50000E947A0A6B017C01C0E0D0E0B701A60197
:104B60000C2E04C076956795579547950A94D2F711
:104B700040FD05C02196C032D10581F709C06C2FD8
:104B8000712F80E00E94C1090813F4CF81E004C0B6
:104B90001F5F1032E1F680E0DF91CF911F910F91FE
:104BA000FF90EF90DF90CF900895CF93C82F8CE2C5
:104BB0000E949D25882321F08C2FCF910C949D2558
:104BC00080E0CF910895CF930E942D27811102C0DC
:104BD0000E94082785E595E00E941909C5E6C150A5
:104BE00049F00E94EF098FE39CE90197F1F700C0BB
:104BF0000000F5CF8EE495E00E94190989E20E9439
:104C0000D525811103C18AE20E94D525882341F070
:104C10000E9427270E9408270E9403350E948D3496
:104C200085E00E94D52581110E94E1240E94382749
:104C30008093D90387E00E94D5258823D1F08BE1AA
:104C40000E94D525811115C08EE00E94D5258111C5
:104C500010C080E10E94D525882359F09091D90396
:104C600093FB882780F921E0822780FB93F99093BA
:104C7000D9038091D903866081608093D9030E9413
:104C80003C270E944A278093D80380EE0E94D525B6
:104C9000882341F08091D803982F909590FB80F95C
:104CA0008093D80389E30E94D525882359F09091F9
:104CB000D80391FB882780F921E0822780FB91F9B6
:104CC0009093D80382EE0E94D525882359F09091C5
:104CD000D80392FB882780F921E0822780FB92F994
:104CE0009093D80386EE0E94D525882359F09091A1
:104CF000D80393FB882780F921E0822780FB93F972
:104D00009093D80383EE0E94D525882359F0909183
:104D1000D80394FB882780F921E0822780FB94F94F
:104D20009093D80385E30E94D525882359F090916C
:104D3000D80395FB882780F921E0822780FB95F92D
:104D40009093D80381E30E94D525882359F0909150
:104D5000D80396FB882780F921E0822780FB96F90B
:104D60009093D80381E10E94D525882359F0909132
:104D7000D80397FB882780F921E0822780FB97F9E9
:104D80009093D8038091D8030E944E278091D80336
:104D900087FB882780F980938E0187E20E94D525C2
:104DA000C82F8EE10E94D5258111C2608FE10E943B
:104DB000D5258111C46080E20E94D5258111C8608B
:104DC00081E20E94D5258111C06182E20E94D52531
:104DD0008111C06283E20E94D5258111C06484E202
:104DE0000E94D525882311F0C06802C0CC2329F089
:104DF0008C2F0E9445276C2F03C00E944127682FEB
:104E000070E080E090E0CF910C947720CF910895EE
:104E10006DEE7EEF80E090E00E94DE3660E082E0A2
:104E200090E00E94D03660E083E090E00E94D036AF
:104E300060E084E090E00E94D03660E085E090E0A1
:104E40000E94D03660E086E090E00C94D0366FEFA0
:104E50007FEF80E090E00C94DE3680E090E00E94EE
:104E6000CA3621E08D3E9E4F09F020E0822F089542
:104E700082E090E00C94C236682F82E090E00C94BF
:104E8000D03683E090E00C94C236682F83E090E047
:104E90000C94D03684E090E00C94C236682F84E005
:104EA00090E00C94D03686E090E00C94C236682FE7
:104EB00086E090E00C94D0368091B40380FF0BC064
:104EC0006091940185E0689FB00111247595679504
:104ED000759567952AC081FF09C06091940185E0AE
:104EE000689FB0011124759567951FC082FF07C0A8
:104EF0006091940185E0689FB001112416C0409133
:104F0000B5034423C9F060919301461788F72091B7
:104F1000940185E0289F90011124429FC001439F86
:104F2000900D112470E00E9494366038710540F4B1
:104F30006115710539F002C065E070E0862F0895B3
:104F40008FE7089581E008958091B40380FF08C041
:104F50006091920170E0759567957595679521C090
:104F600081FF06C06091920170E07595679519C048
:104F700082FF04C06091920170E010C08091B5037F
:104F80008823C1F0609191018617A0F7909192015A
:104F9000989FC001112470E00E949436603871051A
:104FA00028F46115710521F0862F08958FE7089583
:104FB00081E0089561E070E0F4CF803F21F40E9429
:104FC0005C27819504C0813F29F40E945C2780936F
:104FD000B8030895823F21F40E945C27819504C0A4
:104FE000833F29F40E945C278093B7030895893F8B
:104FF00019F40E94A42705C08A3F31F40E94A42717
:1050000081958093B90308958B3F21F40E94A427D2
:10501000819504C08C3F29F40E94A4278093BA0391
:105020000895843F21F48091B603816017C0853FC5
:1050300021F48091B603826011C0863F21F48091F3
:10504000B60384600BC0873F21F48091B60388606B
:1050500005C0883F31F48091B60380618093B60328
:1050600008958D3F21F48091B40381600BC08E3F81
:1050700021F48091B403826005C08F3F29F48091B0
:10508000B40384608093B4030895803F39F4809121
:10509000B80387FF6CC01092B80369C0813F29F440
:1050A0008091B8031816BCF362C09091B703823F99
:1050B00029F497FF5CC01092B70359C0833F19F4DD
:1050C0001916CCF354C0893F41F48091B9031816E6
:1050D0000CF04DC01092B9034AC08A3F29F4809168
:1050E000B90387FF44C0F6CF8B3F39F48091BA03F0
:1050F00087FF3DC01092BA033AC08C3F29F48091DB
:10510000BA031816BCF333C0843F21F48091B60370
:105110008E7F17C0853F21F48091B6038D7F11C02B
:10512000863F21F48091B6038B7F0BC0873F21F42B
:105130008091B603877F05C0883F31F48091B60324
:105140008F7E8093B60313C08D3F21F48091B4030A
:105150008E7F0BC08E3F21F48091B4038D7F05C0FC
:105160008F3F29F48091B4038B7F8093B4038091A7
:10517000B70381110EC08091B80381110AC08091DC
:10518000B903811106C08091BA03811102C0109247
:10519000B50308958091D90383FF7EC081E995E02E
:1051A0000E9419098091B6031F928F938CE895E0B5
:1051B0009F938F930E94B2098AE895E00E94190993
:1051C0002091B703822F992787FD90959F932F9366
:1051D00087E895E09F938F930E94B20985E895E058
:1051E0000E9419092091B803822F992787FD909575
:1051F0009F932F9382E895E09F938F930E94B2092B
:1052000080E895E00E9419092091B903822F99271F
:1052100087FD90959F932F938DE795E09F938F93B4
:105220000E94B2098BE795E00E9419092091BA0308
:10523000822F992787FD90959F932F9388E795E07C
:105240009F938F930E94B20985E795E00E94190908
:105250008091B5031F928F9382E795E09F938F9380
:105260000E94B20980E795E00E9419098091B40379
:105270001F928F938DE695E09F938F930E94B209C2
:105280008AE695E00E9419098DB79EB74C960FB635
:10529000F8949EBF0FBE8DBF86EB93E00E94391637
:1052A0000E9482249093B3038093B20308951F93C6
:1052B000CF93DF938091B2039091B3030E948E2429
:1052C0004091B503442321F02091950130E006C0C0
:1052D000209196015AE0259F90011124821793078F
:1052E00008F482C08091B7031091B803D091B9033C
:1052F000C091BA03811107C0111105C0D11103C0BB
:10530000CC2309F471C04F3F19F04F5F4093B503B0
:10531000181624F40E945C278093B7038091B7038A
:1053200087FF05C00E945C2781958093B703111603
:1053300024F40E945C278093B8038091B80387FF10
:1053400005C00E945C2781958093B8036091B703E4
:10535000662339F11091B803112319F1772767FDFE
:105360007095872F972F0E94A53523E333E343E3FE
:105370005FE30E9409360E9472356093B703612F84
:10538000772767FD7095872F972F0E94A53523E318
:1053900033E343E35FE30E9409360E947235609372
:1053A000B8031D1624F40E94A4278093B9038091AA
:1053B000B90387FF05C00E94A42781958093B90394
:1053C0001C1624F40E94A4278093BA038091BA0388
:1053D00087FF05C00E94A42781958093BA03DF91BF
:1053E000CF911F910C94CA28DF91CF911F910895FE
:1053F000E6EBF3E085E0DF011D928A95E9F7109274
:10540000B5031092B40308958BE59AE00E94190940
:105410008EE49AE00E94190981E49AE00C9419093B
:105420008EEB99E00E94190981EB99E00E9419091D
:1054300086E999E00E9419098BE799E00E94190911
:1054400083E699E00E94190989E499E00E9419090C
:105450008BE299E00E9419098BE099E00E941909FA
:1054600087EF98E00E94190980EE98E00E941909E0
:1054700084EC98E00E94190986EA98E00E941909D4
:1054800087E898E00E94190986E698E00E941909C9
:1054900081E398E00E9419098CE198E00E941909C3
:1054A0001F9285E08F9389E198E09F938F930E94EC
:1054B000B20980E198E00E9419091F9281E08F9360
:1054C0008DE098E09F938F930E94B2098BE098E063
:1054D0000E9419098DB79EB708960FB6F8949EBF23
:1054E0000FBE8DBF8EED97E00C941909833009F43F
:1054F00059C028F4813061F0823079F10895853007
:1055000009F49AC008F473C0863009F4BAC008954B
:1055100020919601862F90E0820F911D8F3F91057B
:1055200020F4620F6093960103C08FEF8093960181
:105530008AEB96E00E941909809196011F928F9341
:1055400087EB96E09F938F930E94B2090F900F9084
:105550000F900F9085EB96E0B8C020919501862FB3
:1055600090E0820F911D8F3F910520F4620F6093B0
:10557000950103C08FEF8093950186EA96E00E9423
:105580001909809195011F928F9383EA96E09F936A
:105590008F930E94B2090F900F900F900F9081EAA5
:1055A00096E093C020919401862F90E0820F911D88
:1055B0008F3F910520F4620F6093940103C08FEF39
:1055C0008093940181E996E00E94190980919401E9
:1055D0001F928F938EE896E09F938F930E94B2095B
:1055E0000F900F900F900F908CE896E06EC0209176
:1055F0009301862F90E0820F911D8F3F910520F43B
:10560000620F6093930103C08FEF809393018AE749
:1056100096E00E941909809193011F928F9387E76A
:1056200096E09F938F930E94B2090F900F900F9076
:105630000F9085E796E049C020919201862F90E077
:10564000820F911D8F3F910520F4620F60939201AC
:1056500003C08FEF809392018FE596E00E941909B5
:10566000809192011F928F938CE596E09F938F9388
:105670000E94B2090F900F900F900F908AE596E06C
:1056800024C020919101862F90E0820F911D8F3FC1
:10569000910520F4620F6093910103C08FEF809316
:1056A000910182E496E00E941909809191011F9274
:1056B0008F938FE396E09F938F930E94B2090F9090
:1056C0000F900F900F908DE396E00C9419098330A2
:1056D00009F44DC028F4813061F0823049F1089519
:1056E000853009F482C008F461C0863009F49CC09A
:1056F000089580919601681720F4861B8093960187
:1057000002C01092960181E396E00E9419098091EF
:1057100096011F928F938EE296E09F938F930E9443
:10572000B2090F900F900F900F908CE296E09AC004
:1057300080919501681720F4861B8093950102C023
:10574000109295018DE196E00E94190980919501D2
:105750001F928F938AE196E09F938F930E94B209E4
:105760000F900F900F900F9088E196E07BC0809192
:105770009401681720F4861B8093940102C0109254
:10578000940188E096E00E941909809194011F928B
:105790008F9385E096E09F938F930E94B2090F90BC
:1057A0000F900F900F9083E096E05CC08091930182
:1057B000681720F4861B8093930102C01092930116
:1057C00081EF95E00E941909809193011F928F93B8
:1057D0008EEE95E09F938F930E94B2090F900F90E9
:1057E0000F900F908CEE95E03DC08091920168176C
:1057F00020F4861B8093920102C01092920186EDE4
:1058000095E00E941909809192011F928F9383ED78
:1058100095E09F938F930E94B2090F900F900F9085
:105820000F9081ED95E01EC080919101681720F4E2
:10583000861B8093910102C01092910189EB95E043
:105840000E941909809191011F928F9386EB95E038
:105850009F938F930E94B2090F900F900F900F901B
:1058600084EB95E00C941909CF93C82F8AE29AE053
:105870000E9419096091920370919303809194039F
:10588000909195030E941E251F928F9327E23AE084
:105890003F932F930E94B20982E29AE00E94190975
:1058A0001F92CF932FE13AE03F932F930E94B209CA
:1058B0008DE19AE00E94190961E070E080E090E0DB
:1058C00004C0660F771F881F991FCA95D2F70E94E0
:1058D00077208DB79EB708960FB6F8949EBF0FBE7F
:1058E0008DBFCF910C94271C80E00895CF93C82FD3
:1058F0008091BE03813009F402C320F0823009F4A4
:1059000026C335C4A0918F01B09190018C91823251
:1059100009F02FC48C2F0E94742C8111EDC24C2FE2
:1059200050E0FA013697E334F10508F0DFC2E059A0
:10593000FF4F0C94A8368AE990E10E94190983EC84
:105940009DE00E9419090E9441271F928F9380ECCD
:105950009DE09F938F930E94B2098EEB9DE00E9481
:1059600019090E943827C82F8BEA9DE00E94190967
:105970001F92CF9326EA3DE03F932F930E94B209F6
:1059800084EA9DE00E9419098AE99DE00E941909B4
:105990008C2F81701F928F9327E93DE03F932F93C7
:1059A0000E94B20985E99DE00E9419098BE89DE0FB
:1059B0000E941909C1FB882780F91F928F9328E85C
:1059C0003DE03F932F930E94B20986E89DE00E943C
:1059D00019098AE79DE00E941909C2FB882780F90E
:1059E0001F928F9327E73DE03F932F930E94B209C8
:1059F00085E79DE00E9419098CE69DE00E94190947
:105A0000C3FBCC27C0F91F92CF9389E69DE09F93FB
:105A10008F930E94B20987E69DE00E9419090E94B7
:105A20004A27C82F83E59DE00E9419091F92CF9352
:105A30002EE43DE03F932F930E94B2098CE49DE059
:105A40000E94190983E39DE00E9419098C2F81703F
:105A50001F928F9320E33DE03F932F930E94B20962
:105A60008DB79EB780960FB6F8949EBF0FBE8DBFC0
:105A70008EE29DE00E94190987E19DE00E941909CC
:105A8000C1FB882780F91F928F9324E13DE03F936B
:105A90002F930E94B20982E19DE00E94190980E0E3
:105AA0009DE00E941909C2FB882780F91F928F93FD
:105AB0002DEF3CE03F932F930E94B2098BEF9CE0C7
:105AC0000E94190989EE9CE00E941909C3FB8827EE
:105AD00080F91F928F9326EE3CE03F932F930E9414
