:100000000C9453020C9497020C9497020C94970250
:100010000C9497020C9497020C9497020C949702FC
:100020000C9497020C9497020C94950B0C94670C0B
:100030000C94F7060C9497020C9497020C94970278
:100040000C9497020C9403230C9497020C9497023F
:100050000C9497020C94081C0C9497020C94970231
:100060000C9497020C9497020C9497020C949702AC
:100070000C9497020C9497020C9497020C9497029C
:100080000C9497020C9497020C9497020C9497028C
:100090000C9497020C9497020C9497020C9497027C
:1000A0000C9497020C9497020C949702CC0CEE0CD3
:1000B000D90DEE0CD90D300D530DD90DA80DBB0D7A
:1000C000A410A410D210D21027116311B413B413CA
:1000D0007B11B41372127212B4132E13B413A21341
:1000E00032214A21152113211321B9211321132172
:1000F000612113216B217D21132113211321132150
:10010000B921B9211321B921132157211321132119
:10011000A621A621A621A621A621A621A621A621A7
:10012000A621A1211321A121132113211321132180
:100130001321132113211321132113211321A12191
:1001400013211321B9211C21A821A821A821A8210C
:10015000A821A821A821A821A821A821A821A82157
:10016000862113213C2129003A3B3C3D3E3F404142
:100170004243444546474800000000000000351E49
:100180001F20212223242526272D2E2A494A4B537E
:100190005455560000002B141A0815171C180C1281
:1001A000132F30314C4D4E5F606157000000390411
:1001B0001607090A0B0D0E0F333400280000005CEF
:1001C0005D5E00000000E11D1B06190511103637A9
:1001D000380000E5005200595A5B58000000E0E387
:1001E000E20000002C000000E6E7C0E450514F623E
:1001F000006300000000000000000000000000009C
:1002000000000000000000000000000000000000EE
:1002100000000000000000000000000000000000DE
:1002200000000000000000000000000000000000CE
:1002300000000000000000000000000000000000BE
:1002400000000000000000000000000000000000AE
:10025000000000000000000000000000000000009E
:10026000000000000000001080FF000301030203F3
:1002700000200E034B0069006D00650072006100F4
:10028000000024036B006100690031003100300080
:100290003300400067006D00610069006C002E00B3
:1002A00063006F006D0000000403090409026D0083
:1002B000040100A03209040000010301010009212A
:1002C00011010001223F000705810308000A09040B
:1002D00001000103010200092111010001224D006A
:1002E0000705820308000A09040200010300000058
:1002F0000921110100012236000705830308000AC5
:10030000090403000103000000092111010001227A
:1003100039000705840310000112011001000000DC
:1003200008C016DB2705000102000105010906A12E
:1003300001050719E029E7150025019508750181D8
:1003400002050819012905950575019102950175A8
:100350000391010507190029771500250195787586
:10036000018102C005010980A10185021601002654
:10037000B7001A01002AB700751095018100C00569
:100380000C0901A1018503160100269C021A010037
:100390002A9C02751095018100C005010902A10186
:1003A0000901A10005091901290515002501950577
:1003B000750181029501750381010501093009313B
:1003C0001581257F95027508810609381581257FDD
:1003D000950175088106050C0A38021581257F955F
:1003E0000175088106C0C005010906A101050719AC
:1003F000E029E71500250195087501810295017531
:1004000008810105081901290595057501910295D5
:1004100001750391010507190029FF150025FF95B6
:100420000675088100C00000000000000000000008
:100430000101010202020303040405050606070880
:1004400008090A0B0B0C0D0E0F10111213151617BD
:10045000191A1B1D1E2022232527292B2D2F31334E
:1004600035383A3D3F4244474A4D505356595C5FF8
:100470006266696C7074777B7E82868A8E919599AC
:100480009DA1A5A9ADB0B4B8BCC0C3C7CBCED2D5D1
:10049000D8DBDFE2E4E7EAECEFF1F3F5F7F8FAFB9B
:1004A000FCFDFEFFFFFF11241FBECFEFDAE0DEBF31
:1004B000CDBF04B603FE24C08091020490910304D2
:1004C000A0910404B09105048730904BA740B04B35
:1004D000B9F41092020410920304109204041092D2
:1004E000050414BE84B7877F84BF88E10FB6F894F3
:1004F00080936000109260000FBEE0E0F8E3099581
:1005000011E0A0E0B1E0E4E5F2E502C005900D9253
:10051000A83BB107D9F724E0A8EBB1E001C01D92D8
:10052000A230B207E1F70E94DD080C9428290C9450
:1005300000000895089580E091E0089580E090E043
:100540000895462F672F0C941327805C0E9405277F
:10055000089586E691E0089586E691E008950C946A
:100560004905CF9380E885BF85BF0E94EC060E94B5
:100570004D06C0E00E944605C817A0F424E0C29FC3
:10058000C0011124FC01E85CFD4F1082118212822F
:100590001382FC01E854FE4F1082118212821382F2
:1005A000CF5FE8CF5C98CF9108950F931F93CF93BF
:1005B000DF930E94A606C0E0D5E00E944605C8175A
:1005C00010F58C2F0E94620620EA2A95F1F78C2FF5
:1005D0000E94C90524E0C29FF0011124E854FE4F97
:1005E00000811181228133810617170728073907F7
:1005F00031F06083718382839383D09300010E94E2
:100600004D06CF5FDACF80910001882339F1815008
:1006100080930001811102C0C0E007C08FE99FE014
:100620000197F1F700C0000019C00E944605C817E5
:10063000A8F424E0C29FC0011124FC01E85CFD4F36
:10064000DC01A854BE4F8D919D910D90BC91A02DC1
:1006500080839183A283B383CF5FE7CF81E0DF9173
:10066000CF911F910F91089594E0899FF00111247B
:10067000E85CFD4F60817181828193810895CF9301
:10068000C0E00E944605C81710F4CF5FFACFCF91A3
:100690000895CF93C82F8093B802873090F48430A8
:1006A000E0F4813090F10E9462220E94D1220E94E7
:1006B000FD22EC2FF0E0EA59FD4F8491CF910C948C
:1006C00083228730A9F0883001F50E9462220E94BF
:1006D000CB220E94FD2281E012C00E9462220E9471
:1006E000D1220E94F72286E08C1BCF910C9400232C
:1006F0000E9462220E94CB220E94FD2280E00E9482
:10070000E62283E0CF910C94F4220E94D1220E9431
:10071000FD22CF910C946C221F93CF93DF9300D0D6
:1007200000D01F92CDB7DEB7162F8091B802873068
:1007300029F4662319F080E20E94BA228091B8025F
:10074000883069F4112359F080E20F900F900F90D8
:100750000F900F90DF91CF911F910C94A0220F90DA
:100760000F900F900F900F90DF91CF911F910895F0
:10077000E82FF0E0EE0FFF1FE659FD4F85919491B1
:100780000895259A2D9A269A2E9A3E9A469A3F9A2D
:1007900047980895813041F028F0823039F0833055
:1007A00039F008952D9808952E9808954698089543
:1007B000479A0895813041F028F0823039F0833033
:1007C00039F008952D9A08952E9A0895469A08951D
:1007D000479808951092B9008CE08093B80008956E
:1007E00094EA9093BC009091BC0097FD06C0909154
:1007F000B9029923C1F31092B9029091B900987F80
:10080000983021F0903111F081E008958093BB0081
:1008100084E88093BC008091BC0087FD06C0809175
:10082000B9028823C1F31092B9028091B900887F80
:10083000883111F0803441F780E0089584E9809395
:10084000BC008091BC0084FF07C08091B90288235E
:10085000C1F31092B902089508958093BB0084E813
:100860008093BC008091BC0087FD06C08091B902D6
:100870008823C1F31092B9029091B900987F81E06A
:10088000983209F480E0089584EC8093BC00809154
:10089000BC0087FD06C08091B9028823C1F3109285
:1008A000B9028091BB00089584E88093BC008091D8
:1008B000BC0087FD06C08091B9028823C1F3109265
:1008C000B9028091BB000895F894A89526E488E1C8
:1008D00090E00FB6F894A895809360000FBE209327
:1008E000600078940895AF92BF92CF92DF92EF921A
:1008F000FF920F931F93CF93DF938FE090E00E94BE
:10090000F728F82E80E190E00E94F728C82E8FEF9C
:100910008F0DDD24D3948E3F08F4D12CCC2019F018
:100920008FEFC81201C0D3942F2D30E04C2D50E032
:10093000C901840F951F8134910514F0D39464C0CC
:10094000D11062C0F0920401C09203012F5F3F4FAB
:1009500035952795209302014F5F5F4F5595479539
:100960004093010141E050E002C0440F551F2A9519
:10097000E2F741505109662757FD6095762F409365
:10098000C3025093C4026093C5027093C60205E48B
:1009900011E0E12C81E190E0BB24BA94EF1450F413
:1009A000EC0121960E94F728F8018083803428F01A
:1009B000D39403C0F801B082EC01E3940F5F1F4FA2
:1009C000F0E4EF1611F0CE01E9CF05E011E0B12C13
:1009D000AA24AA94BC1468F47E018FEFE81AF80ADE
:1009E000CE010E94F728F8018083803428F0D39448
:1009F00003C0F801A0827E01B3940F5F1F4FF0E4A3
:100A0000BF1611F0E701E6CF8D2DDF91CF911F9139
:100A10000F91FF90EF90DF90CF90BF90AF9008952F
:100A20001F93CF93DF93609104018FE090E00E94C9
:100A300005296091030180E190E00E94052981E190
:100A400090E0EFEEE80F20910401E21750F4EC0182
:100A50002196F0E0EB5BFE4F60810E940529CE01FC
:100A6000F0CF182FE82FE11B20910301E21750F47B
:100A7000EC012196F0E0EB5FFE4F60810E940529BA
:100A8000CE01F0CFDF91CF911F91089580910401A5
:100A900008958091010108950F931F93CF93DF93E1
:100AA0001F92CDB7DEB78A01A895805E880F698353
:100AB0000E94F003698181110FC0862F0E942D04CE
:100AC00081110AC0F80180810E942D04811104C0A7
:100AD000F80181810E942D0489830E941E0489816E
:100AE0000F90DF91CF911F910F910895EF92FF9298
:100AF0000F931F93CF93DF931F92CDB7DEB7182FBD
:100B00007A01A895105E110F812F69830E94F0036E
:100B1000082F6981811115C0862F0E942D04082F8E
:100B200081110FC0812F81600E94F003082F811175
:100B300008C00E944404F70180830E945404F70116
:100B400081830E941E04802F0F90DF91CF911F910F
:100B50000F91FF90EF900895AB0162E00C944C056B
:100B6000AB0166E00C944C05AB0160E00C9476059B
:100B70008093BB028093BC028093BD028093BE022F
:100B80008093BF028093C0028093C1028093C2020F
:100B900008958F929F92BF92CF92DF92EF92FF9231
:100BA0000F931F93CF93DF93C82F8FEF0E94B80549
:100BB0000BEB12E0D0E0B8018D2F0E94B405DF5F8F
:100BC0000E5F1F4FD430B9F7B0900301B5E08B2E04
:100BD000B1E09B2EF40100E010E0980141E050E00C
:100BE00060E070E08E2F88198B1578F5CF01855065
:100BF00091406C01D191DF3FA9F3D3FBEE24E0F8E3
:100C0000FD2EF294AFE0FA228E2D90E08F0D911D13
:100C10008F0D911D85549D4FDC018C9190E0D77014
:100C200002C095958795DA95E2F780FDDBCFDB0171
:100C3000CA0104C0880F991FAA1FBB1FCA94D2F70C
:100C4000082B192B2A2B3B2BCDCF80910201C817E3
:100C500068F46091C3027091C4028091C5029091C2
:100C6000C60260237123822393230BC0C901B801FC
:100C70000090010104C096958795779567950A9431
:100C8000D2F7DF91CF911F910F91FF90EF90DF90FE
:100C9000CF90BF909F908F9008951F93CF93DF9335
:100CA0008FEF0E94B805CBEBD2E010E0BE01812FA0
:100CB0000E94B0051F5F22961430C1F7DF91CF91DB
:100CC0001F9108951F93CF93DF93182F8FEF0E94EA
:100CD000B805E12FF0E0EB5BFE4F90819F3F19F1EB
:100CE000892F82958F70682F70E093FB222720F95F
:100CF000C22F20E0D22F660F771FC60FD71FC55413
:100D0000DD4F977021E030E001C0220F9A95EAF79D
:100D1000209598812923288365547D4FDF91CF91B9
:100D20001F910C94B005DF91CF911F910895CF933F
:100D3000C82F80E00E94B8056C2F70E0660F771F07
:100D400065547D4F8C2FCF910C94AC05FF920F937F
:100D50001F93CF93DF93A895C0E0D0E001E010E0AF
:100D6000CE018096880F991F81600E94F003409108
:100D7000BA02242F30E00C2E02C0359527950A9434
:100D8000E2F720FF0DC08823E9F098010C2E01C086
:100D9000220F0A94EAF7209524232093BA0210C068
:100DA000811110C0C8010C2E01C0880F0A94EAF707
:100DB000842B8093BA020E941E048C2F0E949706F7
:100DC0000E94D5132196C430D10551F6DF91CF9101
:100DD0001F910F91FF9008950E94730481110E944A
:100DE00010050E94EA030E9464040C94A6061F9258
:100DF0000F920FB60F9211248F939F931092BC0005
:100E0000509A5198499B0DC084E98093BC0081E0C1
:100E10008093B9029F918F910F900FBE0F901F90FA
:100E2000189589E0589895E09A95F1F70000589A3E
:100E300095E09A95F1F700008150A1F7E5CF8091F8
:100E4000D7020895CF93DF9300D01F92CDB7DEB7BE
:100E50002091F803243019F523E029839B838A83AA
:100E60002093E9008FEF9091E800815095FD06C036
:100E700095ED9A95F1F700008111F5CF8091E8008A
:100E800085FF0DC040E050E063E070E0CE010196C8
:100E90000E9488098091E8008E778093E8000F9087
:100EA0000F900F90DF91CF910895CF93DF9300D0F3
:100EB0001F92CDB7DEB72091F803243021F522E050
:100EC00029839B838A8383E08093E9008FEF90914D
:100ED000E800815095FD06C095ED9A95F1F7000068
:100EE0008111F5CF8091E80085FF0DC040E050E012
:100EF00063E070E0CE0101960E9488098091E800CD
:100F00008E778093E8000F900F900F90DF91CF9134
:100F100008952091F8032430F1F422E02093E900B1
:100F20002FEF3091E800215035FD06C035ED3A95A0
:100F3000F1F700002111F5CF2091E80025FF0BC04B
:100F400040E050E065E070E00E9488098091E80090
:100F50008E778093E8000895CF93DF93EC01809122
:100F6000F803843009F042C0909190019923B9F0C0
:100F70008093E9008FEF9091E800815095FD06C0C5
:100F800095E19A95F1F700008111F5CF8091E80085
:100F900085FF2CC040E050E060E170E017C081E0C8
:100FA0008093E9008FEF9091E800815095FD06C095
:100FB00095ED9A95F1F700008111F5CF8091E80049
:100FC00085FF14C040E050E068E070E0CE010E9470
:100FD00088098091E8008E778093E80080E1FE0127
:100FE000A7ECB2E001900D928A95E1F7DF91CF91E5
:100FF00008958091F703811109C00E941A0B0E9485
:10100000770B8091E20084608093E2000895109253
:10101000F703089508950C949A020C94C61B089542
:1010200042E061EC81E00E94940A42E061EC82E0DF
:101030000E94940A42E061EC83E00E94940A42E13B
:1010400061EC84E00C94940A8091FA03833009F4F3
:1010500055C030F4813071F0823009F495C00895A4
:101060008A3009F481C08B3009F460C0893009F0FE
:10107000A3C020C08091F903813A09F09DC08091FE
:10108000E800877F8093E8008091FD039091FE0344
:10109000892B21F060E080E090E003C060E187EC04
:1010A00092E070E00E94D1098091E8008B778093F4
:1010B000E80008958091F903813209F07DC08091A4
:1010C000FD039091FE03009719F0039709F074C097
:1010D0008091E800877F8093E8008091E80082FD9E
:1010E00005C08091F8038111F8CF66C08091F100AE
:1010F0008093D7028091E8008B775AC08091F903E2
:10110000813A09F059C08091FD039091FE03892B2B
:1011100009F052C08091E800877F8093E8008091B9
:10112000E80080FFFCCF80918F013DC08091F903E2
:10113000813209F041C08091FD039091FE03892B1B
:10114000D9F58091E800877F8093E8000E94C90A62
:101150009091FB0381E0911101C080E080938F01A9
:10116000809390010C94D5138091F903813221F57D
:101170008091E800877F8093E8000E94C90A8091EF
:10118000FC038093D80208958091F903813AA1F479
:101190008091E800877F8093E8008091E80080FFDD
:1011A000FCCF8091D8028093F1008091E8008E7787
:1011B0008093E8000C94C90A089584B7877F84BFA0
:1011C00088E10FB6F89480936000109260000FBE23
:1011D00090E080E80FB6F8948093610090936100EE
:1011E0000FBE0E941A0B0E94770B8091E200846070
:1011F0008093E20078948091F8038430E1F70E94B4
:10120000490E85E891E00E94F10D8091F803853048
:1012100069F40E94871B8091F6038823B1F30E9432
:10122000AF1B882391F30E947209EFCF0E94590EE1
:10123000ECCF292F332723303105A9F06CF421306E
:10124000310509F442C02230310509F043C08DE672
:1012500090E02CEA32E042C021323105C9F022325E
:10126000310519F137C099278130910541F082305D
:10127000910541F0892B71F5E8EAF2E005C0E2E85A
:10128000F2E002C0E2E7F2E0849190E09F0126C024
:10129000643000F5E62FF0E0EE0FFF1FEB55FE4F38
:1012A0002081318189E090E019C0643098F4E62F04
:1012B000F0E0DF01AA0FBB1FA356BE4F2D913C915A
:1012C000E756FE4F808190E009C082E190E029E17D
:1012D00033E004C080E090E020E030E0FA013183A8
:1012E0002083089580E189BD82E189BD09B400FEB3
:1012F000FDCF8091D8008F7D8093D8008091E00051
:1013000082608093E0008091E00081FDFCCF089531
:10131000CF92DF92EF92FF920F931F93CF93DF93C1
:101320007C018B01EA010E94EA0A811131C02097F9
:1013300031F088819981081B190BE80EF91EC12C28
:10134000D12C0115110519F18091E80085FD14C01B
:101350008091E8008E778093E800209741F08881A3
:1013600099818C0D9D1D9983888385E011C00E9411
:10137000EA0A882331F30CC0F70181917F01809341
:10138000F10001501109FFEFCF1ADF0ADACF80E038
:10139000DF91CF911F910F91FF90EF90DF90CF9051
:1013A00008952091FF03309100042617370748F075
:1013B0006115710539F42091E8002E772093E8003B
:1013C00001C0B901FC0120E061157105B9F18091FE
:1013D000F803882309F440C0853009F43FC08091A8
:1013E000E80083FD3DC08091E80082FF06C0809147
:1013F000E80082FF26C080E008958091E80080FF29
:10140000E3CF2091F3008091F20090E0922B6115E0
:10141000710551F08830910538F421912093F10045
:10142000615071090196F3CF21E0089709F020E09F
:101430008091E8008E778093E800C6CF2111C7CF56
:10144000D6CF8091F803882339F0853039F0809128
:10145000E80083FFCCCF04C082E0089583E00895C4
:1014600081E008952091FF0330910004261737078B
:1014700048F06115710539F42091E8002E7720932A
:10148000E80001C0B901FC0120E061157105C1F15E
:101490008091F803882309F441C0853009F440C0E5
:1014A0008091E80083FD3EC08091E80082FF06C085
:1014B0008091E80082FF27C080E008958091E800D5
:1014C00080FFE3CF2091F3008091F20090E0922B17
:1014D0006115710559F08830910540F424912093ED
:1014E000F1003196615071090196F2CF21E0089721
:1014F00009F020E08091E8008E778093E800C5CF66
:101500002111C6CFD5CF8091F803882339F08530DB
:1015100039F08091E80083FFCBCF04C082E00895CA
:1015200083E0089581E00895982F973058F59093BF
:10153000E900981739F07091EC002091ED0050917E
:10154000F00003C0242F762F50E021FF19C0309106
:10155000EB003E7F3093EB003091ED003D7F309308
:10156000ED003091EB0031603093EB007093EC00B4
:101570002093ED005093F0002091EE0027FF07C06C
:101580009F5FD3CF8F708093E90081E0089580E062
:1015900008958091F90387FD05C08091E80080FFE0
:1015A0000EC012C08091E80082FD05C08091F80352
:1015B0008111F8CF08958091E8008B7708C0809161
:1015C000F8038111EACF08958091E8008E77809327
:1015D000E80008958091E4009091E50045E62091AF
:1015E000EC0020FF21C02091E80020FD21C02091C7
:1015F000F803222389F0253089F02091EB0025FDA6
:101600000FC02091E4003091E5002817390739F325
:10161000415041F0C901E3CF82E0089583E008958D
:1016200081E0089584E008952091E80022FFDFCF53
:1016300080E008950E94880B0E94900BE0EEF0E09D
:10164000808181608083E8EDF0E080818F77808306
:1016500019BCA7EDB0E08C918E7F8C9380818F7E3A
:1016600080831092F70308950F931F93CF93DF9316
:101670000E94880B0E94900BC8EDD0E088818F7784
:10168000888388818068888388818F7D888319BC5E
:101690001092F8031092F4031092F6031092F503DF
:1016A00000EE10E0F80180818B7F8083888181606B
:1016B000888342E060E080E00E94940AE1EEF0E07E
:1016C00080818E7F8083E2EEF0E080818160808384
:1016D000808188608083F80180818E7F808388810B
:1016E00080618883DF91CF911F910F910895E8ED7C
:1016F000F0E080818F7E8083E7EDF0E08081816083
:10170000808384E082BF81E08093F7030C94340BE4
:10171000E8EDF0E080818E7F80831092E2000895F2
:101720001092DA001092E10008951F920F920FB606
:101730000F9211242F933F934F935F936F937F9357
:101740008F939F93AF93BF93EF93FF938091E100AB
:1017500082FF0BC08091E20082FF07C08091E10010
:101760008B7F8093E1000E940F088091DA0080FF58
:101770001FC08091D80080FF1BC08091DA008E7F4F
:101780008093DA008091D90080FF0DC080E189BD8F
:1017900082E189BD09B400FEFDCF81E08093F803AA
:1017A0000E94F90705C019BC1092F8030E940708AF
:1017B0008091E10080FF19C08091E20080FF15C098
:1017C0008091E2008E7F8093E2008091E200806150
:1017D0008093E2008091D80080628093D80019BC89
:1017E00085E08093F8030E940B088091E10084FF5C
:1017F00030C08091E20084FF2CC080E189BD82E18D
:1018000089BD09B400FEFDCF8091D8008F7D809303
:10181000D8008091E1008F7E8093E1008091E2000A
:101820008F7E8093E2008091E20081608093E200ED
:101830008091F403882311F084E007C08091E300D5
:1018400087FF02C083E001C081E08093F8030E941B
:101850000D088091E10083FF29C08091E20083FFA1
:1018600025C08091E100877F8093E10082E0809332
:10187000F8031092F4038091E1008E7F8093E100E1
:101880008091E2008E7F8093E2008091E20080618F
:101890008093E20042E060E080E00E94940A809140
:1018A000F00088608093F0000E940A08FF91EF9199
:1018B000BF91AF919F918F917F916F915F914F9168
:1018C0003F912F910F900FBE0F901F9018951F9270
:1018D0000F920FB60F9211242F933F934F935F9364
:1018E0006F937F938F939F93AF93BF93CF93EF9318
:1018F000FF93C091E900CF708091EC001092E90055
:101900008091F000877F8093F00078940E94A30C70
:101910001092E9008091F00088608093F000C093FD
:10192000E900FF91EF91CF91BF91AF919F918F917E
:101930007F916F915F914F913F912F910F900FBECB
:101940000F901F9018951F93CF93DF93CDB7DEB7FD
:10195000AA970FB6F894DEBF0FBECDBFE9EFF3E054
:101960008091F100819324E0E130F207C9F70E94F1
:1019700024088091E80083FF1CC12091F903309175
:10198000FA03832F90E08A30910508F012C1FC0120
:10199000EA5AFF4F0C94DD28203881F0223809F0F4
:1019A00008C18091FD038F708093E9008091EB0066
:1019B00085FB882780F91092E90006C08091F50325
:1019C0009091F603911182609091E800977F909337
:1019D000E8008093F1001092F100C5C0822F8D7F46
:1019E00009F0E7C0222319F0223061F0E2C08091B3
:1019F000FB03813009F0DDC0333009F080E08093D3
:101A0000F60328C08091FB03811124C02091FD03BF
:101A10002F7009F4CEC02093E9008091EB0080FF85
:101A200019C08091EB00333011F4806211C08061E5
:101A30008093EB0081E090E0022E01C0880F0A94B1
:101A4000EAF78093EA001092EA008091EB00886048
:101A50008093EB001092E9008091E800877F86C0B8
:101A60002111A7C01091FB031F778091E3008078BC
:101A7000812B8093E3008091E800877F8093E800CA
:101A80000E94C90A8091E80080FFFCCF8091E300AA
:101A900080688093E300112311F083E001C082E0AD
:101AA0008093F80386C02058223008F082C08091CD
:101AB000FB039091FC038C3D23E0920779F583E0D2
:101AC0008A838AE289834FB7F894DE01139620E077
:101AD0003EE051E2E32FF0E050935700E49120FF05
:101AE00003C0E295EF703F5FEF708E2F90E0EA3019
:101AF00010F0C79601C0C0968D939D932F5F24313F
:101B000049F74FBF8091E800877F8093E8006AE241
:101B100070E0CE0101960E94D10914C0AE014F5F62
:101B20005F4F6091FD030E941909009709F441C0BD
:101B30002091E800277F2093E800BC0189819A81E9
:101B40000E94320A8091E8008B778093E80031C0D0
:101B5000203879F58091E800877F8093E8008091B4
:101B6000F4038093F1008091E8008E778093E80081
:101B70000E94C90A1EC021111CC09091FB03923023
:101B8000C0F48091E800877F8093E8009093F4038D
:101B90000E94C90A8091F403811104C08091E3007E
:101BA00087FF02C084E001C081E08093F8030E94B7
:101BB00010088091E80083FF0AC08091E800877FC9
:101BC0008093E8008091EB0080628093EB00AA96FE
:101BD0000FB6F894DEBF0FBECDBFDF91CF911F913E
:101BE00008959093DE028093DD0208958091DD02D6
:101BF0009091DE020895E091DD02F091DE023097CF
:101C000021F00190F081E02D099480E00895E091A9
:101C1000DD02F091DE02309721F00280F381E02DA9
:101C200009940895E091DD02F091DE02309721F0F1
:101C30000480F581E02D099408952091DB02309114
:101C4000DC028217930771F09093DC028093DB0231
:101C5000E091DD02F091DE02309721F00680F781FD
:101C6000E02D099408952091D9023091DA0282176B
:101C7000930771F09093DA028093D902E091DD022C
:101C8000F091DE02309721F00084F185E02D099477
:101C900008950E94CA1B0E94B1020E94961C0E94D5
:101CA0007E260E94FB240E944F220E940F240C9447
:101CB000A0274F925F926F927F929F92AF92BF92B6
:101CC000CF92DF92EF92FF920F931F93CF93DF9308
:101CD000CDB7DEB72E970FB6F894DEBF0FBECDBFDF
:101CE0000E94D50230EEA32E32E0B32E00E010E0C9
:101CF000902E802F0E943403F501C190D190E19085
:101D0000F1905F01C626D726E826F926C114D10432
:101D1000E104F104B1F40F5F1F4F0032110541F7E8
:101D20008FEF89838A831B820E94D31B8160782F67
:101D30009D838C8349815A816B818D810E941D1402
:101D40005EC02091B60321FF0AC06B877C878D8718
:101D50009E870E943F039E858D857C856B8520E054
:101D600030E0422F26013701022E04C0769467949A
:101D7000579447940A94D2F740FE3AC02E839F822C
:101D8000C12CD12C7601C39404C0CC0CDD1CEE1CFC
:101D9000FF1C4A95D2F7DC01CB018C219D21AE219D
:101DA000BF2121E0892B8A2B8B2B09F420E0288787
:101DB0000E94D31B8160782F9A8789874E815F812B
:101DC00068858A850E941D14F801EE0FFF1FEE0F33
:101DD000FF1FE052FD4F80819181A281B3818C254C
:101DE0009D25AE25BF2580839183A283B38307C041
:101DF0002F5F3F4F2032310509F0B3CF8CCF0E94C7
:101E0000951F1091DF020E94FB0D1817D9F00E9458
:101E1000FB0D8093DF022E960FB6F894DEBF0FBE47
:101E2000CDBFDF91CF911F910F91FF90EF90DF9089
:101E3000CF90BF90AF909F907F906F905F904F90AA
:101E40000C945D252E960FB6F894DEBF0FBECDBF65
:101E5000DF91CF911F910F91FF90EF90DF90CF9086
:101E6000BF90AF909F907F906F905F904F9008953C
:101E7000CF93C82F882309F4C1C0823859F40E9437
:101E8000FB0D81FDBBC089E30E94B6180E943F1A7A
:101E900089E30CC0833879F40E94FB0D80FDAEC04D
:101EA00083E50E94B6180E943F1A83E50E947719C5
:101EB000CF910C943F1A843859F40E94FB0D82FD97
:101EC0009DC087E40E94B6180E943F1A87E4EECFB7
:101ED0008CEF8C0F813A48F48C2F0E94BF21811126
:101EE0008DC08C2F0E94B618E3CF80E28C0F883013
:101EF00048F4C77081E001C0880FCA95EAF70E94D4
:101F0000111AD6CF8BE58C0F833078F4C53A29F0BF
:101F1000C63A31F482E890E005C081E890E002C062
:101F200083E890E0CF910C941D0E88E58C0F8331EF
:101F300008F064C0C83A39F1C93A41F1CA3A49F1E6
:101F4000CB3A51F1CC3A59F1CD3A61F1C03B69F14C
:101F5000CE3A71F1CF3A79F1C13B81F1C23B89F1BF
:101F6000C33B91F1C43B99F1C53BA1F1C63BA9F13B
:101F7000C73BB1F1C83BB9F1C93BC1F1CA3BC9F597
:101F80008AE292E038C082EE90E035C089EE90E0BF
:101F900032C08AEE90E02FC085EB90E02CC086EB3B
:101FA00090E029C087EB90E026C08CEC90E023C045
:101FB0008DEC90E020C083E891E01DC08AE891E0BC
:101FC0001AC082E991E017C084E991E014C081E26F
:101FD00092E011C083E292E00EC084E292E00BC076
:101FE00085E292E008C086E292E005C087E292E0D6
:101FF00002C080E090E0CF910C94330ECF91089511
:10200000882309F44BC0823859F40E94FB0D81FFEC
:1020100045C089E30E94B6180E943F1A89E30CC0AC
:10202000833871F40E94FB0D80FF38C083E50E9465
:10203000B6180E943F1A83E50E9477190C943F1A44
:10204000843859F40E94FB0D82FF28C087E40E9467
:10205000B6180E943F1A87E4EFCF9CEF980F913A91
:1020600058F390E2980F983050F4877091E001C0D7
:10207000990F8A95EAF7892F0E94171ADFCF9BE5FF
:10208000980F933020F480E090E00C941D0E885A55
:10209000833120F480E090E00C94330E089588237F
:1020A00021F00E94111A0C943F1A0895882321F000
:1020B0000E94171A0C943F1A0895CF92DF92EF9264
:1020C000FF920F931F93CF93DF93CDB7DEB728977F
:1020D0000FB6F894DEBF0FBECDBF8C0185E0F801CE
:1020E000DE01119601900D928A95E1F7F801408189
:1020F0003181F280258122952F7083819481892BF3
:1021000031F03F3F31F481E04F3F19F403C081E0EB
:1021100001C080E080FD28C349833A8389819A8188
:102120002F830E9474189E8388870E9473180E94D0
:102130009B174E81E42FE295EF70F0E0E05AFF4FDD
:102140002F8168850C94DD28842F807F142F1F70C9
:10215000882311F01295107FFF2059F0112309F404
:1021600058C2812F68870E94211A0E943F1A6885F1
:1021700050C2862F0E940010112309F4F5C2812F4E
:102180000E94271A28960FB6F894DEBF0FBECDBF67
:10219000DF91CF911F910F91FF90EF90DF90CF9043
:1021A0000C943F1A342F307F842F8F70303211F00F
:1021B0008295807F662319F0613009F12AC0FF20E3
:1021C000A1F0222381F1213071F528960FB6F89401
:1021D000DEBF0FBECDBFDF91CF911F910F91FF905A
:1021E000EF90DF90CF900C94311A222319F0213018
:1021F00009F4BAC28E830E94341A8E818EC1FF20E8
:1022000021F0263008F0B0C20EC0253008F0ACC274
:1022100084C1FF20C1F0222331F0F801958190FFA5
:10222000F8C19F70958328960FB6F894DEBF0FBE55
:10223000CDBFDF91CF911F910F91FF90EF90DF9075
:10224000CF900C944F10222309F467C1F6C1242FBC
:1022500026952695237030E02115310521F0213097
:102260003105C9F081C2FF2021F0862F942F937091
:1022700002C080E090E028960FB6F894DEBF0FBE53
:10228000CDBFDF91CF911F910F91FF90EF90DF9025
:10229000CF900C941D0EFF2021F0862F942F937069
:1022A00002C080E090E028960FB6F894DEBF0FBE23
:1022B000CDBFDF91CF911F910F91FF90EF90DF90F5
:1022C000CF900C94330E862FFF2019F00E949D1E94
:1022D00002C00E94051F28960FB6F894DEBF0FBEFD
:1022E000CDBFDF91CF911F910F91FF90EF90DF90C5
:1022F000CF900C948A1F842F837009F076C0F11060
:1023000033C2262F229526952770220F220F862F63
:102310008F70C82ED12CE12CF12C022E04C0CC0CD5
:10232000DD1CEE1CFF1C0A94D2F764FF10C06FE0A6
:1023300070E080E090E004C0660F771F881F991F4F
:102340002A95D2F7609570958095909503C060E0CE
:1023500070E0CB01242F269526952370422F50E064
:1023600042305105D1F04330510559F16C297D2996
:102370008E299F294130510541F128960FB6F894D6
:10238000DEBF0FBECDBFDF91CF911F910F91FF90A8
:10239000EF90DF90CF900C94B0176C297D298E2997
:1023A0009F2928960FB6F894DEBF0FBECDBFDF91F0
:1023B000CF911F910F91FF90EF90DF90CF900C94F1
:1023C000C2170E94B017C701B60128960FB6F8943D
:1023D000DEBF0FBECDBFDF91CF911F910F91FF9058
:1023E000EF90DF90CF900C949E17FF2019F0842F70
:1023F000817001C08695882309F4B6C1262F2295E5
:1024000026952770220F220F862F8F70C82ED12C71
:10241000E12CF12C022E04C0CC0CDD1CEE1CFF1CA8
:102420000A94D2F764FF10C06FE070E080E090E0A3
:1024300004C0660F771F881F991F2A95D2F76095F1
:1024400070958095909503C060E070E0CB01242FDB
:10245000269526952370422F50E042305105D1F049
:102460004330510559F16C297D298E299F2941302E
:10247000510541F128960FB6F894DEBF0FBECDBFCF
:10248000DF91CF911F910F91FF90EF90DF90CF9050
:102490000C944F186C297D298E299F2928960FB6F8
:1024A000F894DEBF0FBECDBFDF91CF911F910F918A
:1024B000FF90EF90DF90CF900C9461180E944F181E
:1024C000C701B60128960FB6F894DEBF0FBECDBF88
:1024D000DF91CF911F910F91FF90EF90DF90CF9000
:1024E0000C943D18603F49F118F4603E48F48CC0EC
:1024F000623F09F451C0E0F1633F09F461C084C058
:10250000162F1F70842F8F71FF2021F00E94E81773
:10251000812F89CE0E940318812F28960FB6F89438
:10252000DEBF0FBECDBFDF91CF911F910F91FF9006
:10253000EF90DF90CF900C945610FF20A9F025303B
:1025400008F012C1842F8F7128960FB6F894DEBF61
:102550000FBECDBFDF91CF911F910F91FF90EF90F4
:10256000DF90CF900C942218263008F0FDC0EACFFF
:10257000FF20A1F0842F8F7128960FB6F894DEBF4C
:102580000FBECDBFDF91CF911F910F91FF90EF90C4
:10259000DF90CF900C94E817FF2061F3842F8F71A8
:1025A00028960FB6F894DEBF0FBECDBFDF91CF9156
:1025B0001F910F91FF90EF90DF90CF900C94031834
:1025C000FF2091F0842F8F7128960FB6F894DEBF0C
:1025D0000FBECDBFDF91CF911F910F91FF90EF9074
:1025E000DF90CF900C94D91728960FB6F894DEBFE1
:1025F0000FBECDBFDF91CF911F910F91FF90EF9054
:10260000DF90CF900C94D417FF20A1F0222309F47F
:10261000B1CF862F28960FB6F894DEBF0FBECDBF80
:10262000DF91CF911F910F91FF90EF90DF90CF90AE
:102630000C94380F222309F4B1CF862F28960FB6B9
:10264000F894DEBF0FBECDBFDF91CF911F910F91E8
:10265000FF90EF90DF90CF900C940010F11084C0A9
:10266000662341F0842F8F70843021F0407F862FC5
:102670008F70482B942F9F70492F50E042305105A6
:1026800009F440C0BCF44115510561F141305105D8
:1026900009F06AC028960FB6F894DEBF0FBECDBF12
:1026A000DF91CF911F910F91FF90EF90DF90CF902E
:1026B0000C94392443305105A9F14430510509F0F7
:1026C00053C0862F28960FB6F894DEBF0FBECDBF3D
:1026D000DF91CF911F910F91FF90EF90DF90CF90FE
:1026E0000C94962428960FB6F894DEBF0FBECDBF8B
:1026F000DF91CF911F910F91FF90EF90DF90CF90DE
:102700000C94202428960FB6F894DEBF0FBECDBFE0
:10271000DF91CF911F910F91FF90EF90DF90CF90BD
:102720000C94522428960FB6F894DEBF0FBECDBF8E
:10273000DF91CF911F910F91FF90EF90DF90CF909D
:102740000C9471244F70C80128960FB6F894DEBF20
:102750000FBECDBFDF91CF911F910F91FF90EF90F2
:10276000DF90CF900C94861B28960FB6F894DEBFAE
:102770000FBECDBFDF91CF911F910F91FF90EF90D2
:10278000DF90CF9008950E942E1A0E94031A0E9493
:102790003F1A0E9436200E948A1F80E090E00E942B
:1027A0001D0E80E090E00C94330E0E941E1A0C94D3
:1027B000C3130E947418292F22952F7030E02C30FB
:1027C00031054CF42A3031056CF4225031092230A5
:1027D000310590F407C02C30310551F02F30310510
:1027E00039F00AC0803E10F0803F31F481E0089556
:1027F00093FB882780F9089580E00895CF93DF93B5
:1028000000D000D01F92CDB7DEB70F900F900F9081
:102810000F900F90DF91CF910895CF93DF9300D069
:1028200000D000D0CDB7DEB726960FB6F894DEBF45
:102830000FBECDBFDF91CF910895CF93DF93CDB77A
:10284000DEB72B970FB6F894DEBF0FBECDBF4F8318
:10285000588769877A878B87DE01119686E0FD01AC
:1028600011928A95E9F785E0FE01379601900D9265
:102870008A95E1F74F81588569857A858B850E9415
:102880008C0349815A816B817C818D819E810E945C
:10289000D6162B960FB6F894DEBF0FBECDBFDF91D4
:1028A000CF9108951F93CF93DF93C091600316E0FB
:1028B00080916103C81799F0D0E01C9FF0011D9F23
:1028C000F00D1124EE59FC4F4081518162817381DA
:1028D000848195810E940D142196C770E9CFDF9104
:1028E000CF911F910895409192035091930360916D
:1028F00094037091950380919603909197030C94A3
:102900000D14CF938091970382958F7009F05FC06B
:1029100080919403882309F45AC020916003A09108
:10292000610360919203709193038091950390915C
:10293000960331E06F3F09F030E0B32FC6E02A176D
:1029400009F445C0009721F07F3F21F44B2F03C0CD
:1029500041E001C040E030E040FD35C0C29FF001E1
:10296000C39FF00D1124EE59FC4F418174132BC00D
:102970004081641328C04281411125C043815481A4
:102980004817590710F441505109481B590B483C4E
:102990005105C8F4809197038F70806180939703ED
:1029A00086E0829FF001839FF00D1124E959FC4FCE
:1029B00080818F708061808382E993E00E945D1046
:1029C000CF910C9452142F5F3F4F2770B8CFCF9107
:1029D0000895CF92DF92EF92FF920F931F93CF93C0
:1029E000DF93CDB7DEB762970FB6F894DEBF0FBEA8
:1029F000CDBF8C0185E0F801DE011D9601900D929E
:102A00008A95E1F7D8014C9111965C911197129635
:102A10006C9112971396ED90FC901497709192031D
:102A2000E091930320919503309196032115310590
:102A300031F0EF3F31F481E07F3F19F403C081E0D2
:102A400001C080E0B82FB170CB2E80FD6CC1D0905A
:102A50009403DD2009F4F5C0F0919703E216F30624
:102A600038F0C701821B930B883C910548F09BC04E
:102A7000209530952E0D3F1D283C310508F093C060
:102A80008F2F807F09F052C0E51314C0741312C059
:102A9000D62E61110FC0FF70F061F09397030E9472
:102AA000731482E993E00E945D1080919703F8010E
:102AB00085836CC1EF2831F05F3F31F481E04F3FF7
:102AC00019F403C081E001C080E080FD03C081E013
:102AD000862701C080E0F82FF170FF2E80FF1CC018
:102AE000809160032091610336E0821709F428C1C8
:102AF00090E0389FF001399FF00D1124EE59FC4F02
:102B00007181571306C07081471303C07281671328
:102B100003C001968770E9CFD62E662309F436C12B
:102B20008091970381608093970353C0E51308C099
:102B3000741306C0611104C0D8011596FC93AEC091
:102B40004D875E878D859E856A8B0E94D9136A8921
:102B5000882329F1D62E662311F120919703822F25
:102B600082958F7090E002970CF460C08091920380
:102B70009091930398878F831986FB86EA862C872A
:102B8000CE01079651C0E51731F14D875E878D85DF
:102B90009E856A8B0E94D9136A8981112EC0C80153
:102BA0000E945D10A4C08F2F807F69F77E2DF98A67
:102BB000E88A89890E94FE1382E993E00E945D10F1
:102BC000E2E9F3E086E0DF011D928A95E9F70E94D1
:102BD0007314D12CDBC07413D8CF6111D6CFD801B8
:102BE0001596FC93C8010E945D10E2E9F3E086E0CF
:102BF000DF011D928A95E9F7C9C0D62E662379F2C6
:102C000020919703822F82958F7090E0029774F045
:102C100080919203909193039A8389831B82FD8212
:102C2000EC822E83CE0101960E945D1086E0F801B1
:102C3000A2E9B3E001900D928A95E1F70E94811418
:102C40006FC0E216F30628F0C701821B930B9C01AC
:102C500004C0209530952E0D3F1D283C310508F00D
:102C600052C0D62E662309F49ACFE5132CC07413F4
:102C70002AC08091970380FD1DC0982F92959F7068
:102C8000C9F0D80115968C9315979F3039F09F5F46
:102C90009295907F8F70892B15968C93C8010E9416
:102CA0005D1086E0F801A2E9B3E001900D928A95EB
:102CB000E1F736C086E0F801A2E9B3E001900D9299
:102CC0008A95E1F763C04D875E878D859E850E945A
:102CD000D913882379F086E0F801A2E9B3E00190E6
:102CE0000D928A95E1F70E9481140E947314DD24ED
:102CF000D3944CC080919703816080939703C8015F
:102D00000E945D1043C07E2DF98AE88A89890E945D
:102D1000FE13E2E9F3E086E0DF011D928A95E9F710
:102D20000E94731433C0662309F439CF4D875E8740
:102D30008D859E850E94D913882309F430CFCBCF8F
:102D40004D875E878D859E850E947418292F229558
:102D50002F7030E0223031052CF49F7041F081114A
:102D600006C00CC0243031052CF49F7049F4805EFD
:102D7000883020F0C8010E945D10CF2CDC2C06C0EA
:102D8000D80115969C91907F91F7F8CF8D2D629682
:102D90000FB6F894DEBF0FBECDBFDF91CF911F916C
:102DA0000F91FF90EF90DF90CF9008951F93CF93F6
:102DB000DF93CDB7DEB72C970FB6F894DEBF0FBE0A
:102DC000CDBF4F83588769877A878B879C87CE01D1
:102DD00007960E94E9148823C1F02F8138858A85DF
:102DE0009B85892B31F03F3F11F080E003C02F3FDE
:102DF000E1F781E0811147C04F81588569857A8567
:102E00008B859C850E940D143EC086E0FE0137969E
:102E1000DE01119601900D928A95E1F7FF81E88518
:102E20004A855B854115510531F0EF3F31F481E072
:102E3000FF3F19F403C081E001C080E080FD23C0A2
:102E40002091610330E0C901019687709927609154
:102E5000600370E086179707F1F1F983EA835D83D9
:102E60004C8396E0929FD001939FB00D1124AE59F0
:102E7000BC4FFE01319601900D929A95E1F7809337
:102E800061030E94521416E08091600390916103E7
:102E9000891779F1189FC00111248E599C4F0E9407
:102EA000E914882331F1E09160031E9FF0011124A1
:102EB000EE59FC4F408151816281738184819581FB
:102EC0000E940D148091600390E00196877099270D
:102ED00080936003D9CF0E94D513109261031092A2
:102EE0006003E2E9F3E086E0DF011D928A95E9F7ED
:102EF000CACF2C960FB6F894DEBF0FBECDBFDF91C0
:102F0000CF911F91089560939C0370939D038093CC
:102F10009E0390939F030E94AB250C94C313609370
:102F200098037093990380939A0390939B030E9454
:102F300003260C94C31308950C9483170F931F93C7
:102F400000919C0310919D0320919E0330919F035B
:102F5000602B712B822B932B1F910F910C94831755
:102F60000F931F9300919C0310919D0320919E034A
:102F700030919F0360237123822393231F910F912C
:102F80000C9483170F931F9300919C0310919D0342
:102F900020919E0330919F036027712782279327FA
:102FA0001F910F910C94831760E070E0CB010C949B
:102FB0008F1741E050E060E070E004C0440F551FFF
:102FC000661F771F8A95D2F7CB01BA010C948F1731
:102FD00041E050E060E070E004C0440F551F661F00
:102FE000771F8A95D2F78091980390919903A091C9
:102FF0009A03B0919B03482B592B6A2B7B2BCB0157
:10300000BA010C948F1741E050E060E070E004C01A
:10301000440F551F661F771F8A95D2F7409550952C
:10302000609570958091980390919903A0919A036F
:10303000B0919B03482359236A237B23CB01BA0118
:103040000C948F1741E050E060E070E004C0440F42
:10305000551F661F771F8A95D2F78091980390912C
:103060009903A0919A03B0919B03482759276A2797
:103070007B27CB01BA010C948F170F931F930091FC
:1030800098031091990320919A0330919B03602B30
:10309000712B822B932B1F910F910C948F170F93F1
:1030A0001F93009198031091990320919A033091F6
:1030B0009B0360237123822393231F910F910C9410
:1030C0008F170F931F9300919803109199032091EC
:1030D0009A0330919B0360277127822793271F91C2
:1030E0000F910C948F170895CF92DF92EF92FF9279
:1030F0000F931F93CF93DF93EC01C0909C03D0906C
:103100009D03E0909E03F0909F038091980390911F
:103110009903A0919A03B0919B03C82AD92AEA2A5D
:10312000FB2A0FE110E0B701A601002E04C076953E
:103130006795579547950A94D2F740FF07C0BE019F
:10314000802F0E94131B8130910539F40150110921
:1031500050F7BE0180E00E94131BDF91CF911F91B9
:103160000F91FF90EF90DF90CF900895CF92DF9274
:10317000EF92FF920F931F93CF93DF93F82E8091DE
:1031800090018823C9F08F2D8695869586958F307E
:1031900008F0A4C0E0919101F0919201E80FF11DB7
:1031A0008F2D877021E030E001C0220F8A95EAF769
:1031B0008181822B818392C0E090B3034091B1035F
:1031C000E0919101F0919201442309F472C02091A1
:1031D000B2038E2D3FEF06E010E0A82FBB27A7FD1E
:1031E000B095EF01CA0FDB1F9A819F1509F476C0D5
:1031F0003F3F19F4911101C0382FCD010196C6E06F
:10320000D0E0B8010E94C9288213E7CF2E1151C027
:103210003F3F71F4822F992787FD90950196BE015B
:103220000E94C9288093B30341504093B10341C029
:10323000832F992787FD90950196BE010E94C9288A
:10324000EE24E394C6E0D0E0082F112707FD109587
:103250006F01C00ED11ED60112966C916623A1F0AB
:10326000432F552747FD5095CF01840F951FDC0153
:1032700012966C93D60112961C92CA010196BE0159
:103280000E94C928382F01C0E394C8010196BE01ED
:103290000E94C9288213D8CF822F992787FD909545
:1032A0008E199109069666E070E00E94C928809305
:1032B000B2032091B203332727FD3095E20FF31FAD
:1032C000F282C901019666E070E00E94C9288093ED
:1032D000B2038091B1038F5F8093B103DF91CF91EF
:1032E0001F910F91FF90EF90DF90CF900895DF92A4
:1032F000EF92FF920F931F93CF93DF93482F80910C
:1033000090018823D1F0842F8695869586958F30FD
:1033100008F071C0E0919101F0919201E80FF11D68
:10332000477021E030E0042E01C0220F0A94EAF732
:1033300020958181282321835EC0E091B303D09042
:10334000B103DD2009F457C0C0919101D0919201E1
:103350000091B203112707FD109586E0E82EF12CAD
:10336000F0E0DE01AE0FBF1F9D012E5F3F4F1296B2
:103370008C91841336C0D9011C92DA94D092B10397
:10338000D11004C01092B3031092B2032091B20383
:10339000822F992787FD9095059666E070E00E9440
:1033A000C928E817F90739F54091B303E6E0F0E0E2
:1033B000822F992787FD90950596BF010E94C92805
:1033C0009C010596BF010E94C9288C0F9D1FDC013E
:1033D00012968C91811102C02413EACF2093B2037C
:1033E0000AC0CF010196B7010E94C928E82F8017B3
:1033F000910709F0B5CFDF91CF911F910F91FF9009
:10340000EF90DF90089581E090E0E0919101F091DC
:103410009201E80FF91F1082019680319105A9F7FA
:1034200008959091B503982B9093B50308958095D6
:103430009091B50398239093B50308951092B50326
:1034400008959091B403982B9093B40308958095B8
:103450009091B40398239093B40308951092B40309
:1034600008958093A00308951092A0030895809179
:103470009001811103C08091B10308950895E091F6
:103480009101F09192018091B5038083E0919101C7
:10349000F091920180819091B403892B8083909167
:1034A000A003992361F0E0919101F0919201808154
:1034B000892B80830E94371A81111092A00380917A
:1034C0009101909192010C94070E8D3B60F4883A23
:1034D00000F5853AA8F4843088F4813009F05BC0A7
:1034E00081E090E00895803E08F455C0883E30F0B9
:1034F000803F08F450C090E09065089590E00895F2
:10350000853A09F44BC0863A09F04BC082E890E452
:103510000895883A09F448C0893A09F448C08A3ABB
:1035200009F448C08B3A09F448C08C3A09F448C001
:103530008B3B09F448C08C3B09F448C08D3A09F430
:1035400048C0803B09F448C08E3A09F448C08F3A1D
:1035500009F448C0813B09F448C0823B09F448C0E3
:10356000833B09F448C0843B09F448C0853B09F417
:1035700048C0863B09F448C0873B09F448C0883BF3
:1035800009F448C0893B09F448C08A3B09F048C0A7
:103590008AE296E4089580E090E0089581E890E45E
:1035A000089583E890E4089582EE94E4089589EE06
:1035B00094E408958AEE94E4089585EB94E40895E4
:1035C00086EB94E4089583EB94E4089584EB94E40B
:1035D000089587EB94E408958CEC94E408958DECC1
:1035E00094E4089583E895E408958AE895E40895BD
:1035F00082E995E4089584E995E4089581E296E4EA
:10360000089583E296E4089584E296E4089585E2BD
:1036100096E4089586E296E4089587E296E4089594
:1036200080E094E408950E94A102803EA8F4803CCA
:1036300000F5813309F45CC038F4893209F452C0D2
:103640008A3209F45BC05FC08933B1F08238A1F0DF
:10365000853309F441C057C0833E41F128F4803ED0
:1036600099F0823EB9F04FC0863E31F1873E71F14C
:103670004AC00E94A50208959091F30390FD02C0F4
:1036800091FF41C080EE3FC08091F30380FFFACFED
:1036900089E339C08091F30382FF0CC08091F3036A
:1036A00084FF02C080E02FC083EE2DC08091F30321
:1036B00082FFF4CF82EE27C08091F30383FF0AC01C
:1036C0008091F30384FDEECF87EE1DC08091F3035C
:1036D00083FFF6CF86EE17C08091F30385FF06C007
:1036E00089E211C08091F30385FFFACF85E30BC017
:1036F0008091F30386FF06C08AE205C08091F30340
:1037000086FFFACF81E30E94651A0895089580919B
:10371000F803843019F11092B70320E488E190E0B7
:103720000FB6F894A895809360000FBE20936000B8
:103730000E946C2283B7817F846083BF83B78160DE
:1037400083BF7894889583B78E7F83BF88E10FB657
:10375000F89480936000109260000FBE0895CF939C
:103760000E9499020E94D5020E949A02C0E08C2F0A
:103770000E943403672B682B692B29F4CF5FC0327A
:10378000B1F780E001C081E0CF9108950E94D51388
:103790000C940F2482E084BD93E095BD9AEF97BD11
:1037A00080936E0008952FB7F8948091B80390919C
:1037B000B903A091BA03B091BB032FBF0895CF9274
:1037C000DF92EF92FF920F931F932FB7F8944091DF
:1037D000B8035091B9036091BA037091BB032FBF36
:1037E0006A017B01EE24FF248C0120E030E0C0164A
:1037F000D106E206F30610F441505109481B590B5B
:10380000CA011F910F91FF90EF90DF90CF90089524
:103810001F920F920FB60F9211248F939F93AF9325
:10382000BF938091B8039091B903A091BA03B0916E
:10383000BB030196A11DB11D8093B8039093B903FA
:10384000A093BA03B093BB03BF91AF919F918F91A7
:103850000F900FBE0F901F9018950E941A0BF894AE
:103860002FEF87EA91E6215080409040E1F700C0B9
:10387000000087E090EBDC01809302049093030446
:10388000A0930404B09305042CE088E190E00FB607
:10389000F894A895809360000FBE20936000FFCF3E
:1038A000CF92DF92EF92FF920F931F93CF93DF930C
:1038B000082F10E0812F0E9434036B017C01C0E0CF
:1038C000D0E0B701A6010C2E04C0769567955795F8
:1038D00047950A94D2F740FD05C02196C032D10524
:1038E00081F709C06C2F712F80E00E94A10208139C
:1038F000F4CF81E004C01F5F1032E1F680E0DF9179
:10390000CF911F910F91FF90EF90DF90CF9008958E
:10391000CF93C82F8CE20E94501C882321F08C2F5B
:10392000CF910C94501C80E0CF910895CF930E94CA
:10393000ED1D811102C00E94C81DC5E6C15049F0AD
:103940000E94D5028FE39CE90197F1F700C00000C7
:10395000F5CF89E20E94881C811118C18AE20E9479
:10396000881C882341F00E94E71D0E94C81D0E9408
:1039700038270E94BA2685E00E94881C81110E9487
:103980002D1C0E94F81D8093B60387E00E94881CBE
:10399000882399F18BE10E94881C882351F0909133
:1039A000B60391FB882780F921E0822780FB91F9FB
:1039B00022C08EE00E94881C882351F09091B603AB
:1039C00092FB882780F921E0822780FB92F913C0BF
:1039D00080E10E94881C9091B603882341F093FBFC
:1039E000882780F921E0822780FB93F904C0892F82
:1039F000809580FB90F99093B6038091B6030E9466
:103A0000FC1D0E940A1E8093F30380EE0E94881C16
:103A1000882341F08091F303982F909590FB80F9D3
:103A20008093F30389E30E94881C882359F09091C6
:103A3000F30391FB882780F921E0822780FB91F92D
:103A40009093F30382EE0E94881C882359F0909192
:103A5000F30392FB882780F921E0822780FB92F90B
:103A60009093F30386EE0E94881C882359F090916E
:103A7000F30393FB882780F921E0822780FB93F9E9
:103A80009093F30383EE0E94881C882359F0909151
:103A9000F30394FB882780F921E0822780FB94F9C7
:103AA0009093F30385E30E94881C882359F090913A
:103AB000F30395FB882780F921E0822780FB95F9A5
:103AC0009093F30381E30E94881C882359F090911E
:103AD000F30396FB882780F921E0822780FB96F983
:103AE0009093F30381E10E94881C882359F0909100
:103AF000F30397FB882780F921E0822780FB97F961
:103B00009093F3038091F3030E940E1E8091F303C0
:103B100087FB882780F98093900187E20E94881CA8
:103B2000C82F8EE10E94881C8111C2608FE10E9423
:103B3000881C8111C46080E20E94881C8111C860C9
:103B400081E20E94881C8111C06182E20E94881C6F
:103B50008111C06283E20E94881C8111C06484E2EA
:103B60000E94881C882311F0C06802C0CC2329F071
:103B70008C2F0E94051E6C2F03C00E94011E682F0F
:103B800070E080E090E0CF910C949C17CF91089565
:103B90006DEE7EEF80E090E00E94132960E082E00D
:103BA00090E00E94052960E083E090E00E940529F2
:103BB00060E084E090E00E94052960E085E090E00C
:103BC0000E94052960E086E090E00C9405296FEFE3
:103BD0007FEF80E090E00C94132980E090E00E9459
:103BE000FF2821E08D3E9E4F09F020E0822F0895AE
:103BF00082E090E00C94F728682F82E090E00C942B
:103C0000052983E090E00C94F728682F83E090E08A
:103C10000C94052984E090E00C94F728682F84E048
:103C200090E00C94052986E090E00C94F728682F2A
:103C300086E090E00C9405298091BE0380FF0BC0C4
:103C40006091960185E0689FB00111247595679594
:103C5000759567952AC081FF09C06091960185E03E
:103C6000689FB0011124759567951FC082FF07C03A
:103C70006091960185E0689FB001112416C04091C3
:103C8000BF034423C9F060919501461788F720913E
:103C9000960185E0289F90011124429FC001439F17
:103CA000900D112470E00E94C9286038710540F41D
:103CB0006115710539F002C065E070E0862F089546
:103CC0008FE7089581E008958091BE0380FF08C0CA
:103CD0006091940170E0759567957595679521C021
:103CE00081FF06C06091940170E07595679519C0D9
:103CF00082FF04C06091940170E010C08091BF0306
:103D00008823C1F0609193018617A0F790919401E8
:103D1000989FC001112470E00E94C9286038710585
:103D200028F46115710521F0862F08958FE7089515
:103D300081E0089561E070E0F4CF803F21F40E94BB
:103D40001C1E819504C0813F29F40E941C1E809393
:103D5000C2030895823F21F40E941C1E819504C075
:103D6000833F29F40E941C1E8093C1030895893F5C
:103D700019F40E94641E05C08A3F31F40E94641E3B
:103D800081958093C30308958B3F21F40E94641EA4
:103D9000819504C08C3F29F40E94641E8093C40363
:103DA0000895843F21F48091C003816017C0853F4E
:103DB00021F48091C003826011C0863F21F480917C
:103DC000C00384600BC0873F21F48091C0038860EA
:103DD00005C0883F31F48091C00380618093C003A7
:103DE00008958D3F21F48091BE0381600BC08E3F0A
:103DF00021F48091BE03826005C08F3F29F4809139
:103E0000BE0384608093BE030895803F39F480919F
:103E1000C20387FF6CC01092C20369C0813F29F4BE
:103E20008091C2031816BCF362C09091C103823F17
:103E300029F497FF5CC01092C10359C0833F19F465
:103E40001916CCF354C0893F41F48091C30318166E
:103E50000CF04DC01092C3034AC08A3F29F48091F0
:103E6000C30387FF44C0F6CF8B3F39F48091C4036E
:103E700087FF3DC01092C4033AC08C3F29F4809163
:103E8000C4031816BCF333C0843F21F48091C003EF
:103E90008E7F17C0853F21F48091C0038D7F11C0B4
:103EA000863F21F48091C0038B7F0BC0873F21F4B4
:103EB0008091C003877F05C0883F31F48091C003A3
:103EC0008F7E8093C00313C08D3F21F48091BE0389
:103ED0008E7F0BC08E3F21F48091BE038D7F05C085
:103EE0008F3F29F48091BE038B7F8093BE03809126
:103EF000C10381110EC08091C20381110AC080915B
:103F0000C303811106C08091C403811102C01092C5
:103F1000BF03089580EC93E00E94120E0E94D31B11
:103F20009093BD038093BC0308951F93CF93DF93B9
:103F30008091BC039091BD030E94DF1B4091BF03A1
:103F4000442321F02091970130E006C02091980190
:103F50005AE0259F900111248217930708F482C02C
:103F60008091C1031091C203D091C303C091C403D7
:103F7000811107C0111105C0D11103C0CC2309F470
:103F800071C04F3F19F04F5F4093BF03181624F4E0
:103F90000E941C1E8093C1038091C10387FF05C04E
:103FA0000E941C1E81958093C103111624F40E9467
:103FB0001C1E8093C2038091C20387FF05C00E942C
:103FC0001C1E81958093C2036091C103662339F161
:103FD0001091C203112319F1772767FD7095872F80
:103FE000972F0E94DA2723E333E343E35FE30E9442
:103FF0003E280E94A7276093C103612F772767FDA2
:104000007095872F972F0E94DA2723E333E343E34A
:104010005FE30E943E280E94A7276093C2031D16FB
:1040200024F40E94641E8093C3038091C30387FF1E
:1040300005C00E94641E81958093C3031C1624F45E
:104040000E94641E8093C4038091C40387FF05C04F
:104050000E94641E81958093C403DF91CF911F91CC
:104060000C948A1FDF91CF911F910895E0ECF3E04B
:1040700085E0DF011D928A95E9F71092BF03109247
:10408000BE030895833081F128F4813059F08230E5
:10409000D1F00895853009F449C0B8F1863009F4AB
:1040A00056C0089520919801862F90E0820F911DAF
:1040B0008F3F910520F4620F6093980108958FEF70
:1040C00080939801089520919701862F90E0820FA8
:1040D000911D8F3F910520F4620F60939701089521
:1040E0008FEF80939701089520919601862F90E09D
:1040F000820F911D8F3F910520F4620F609396010E
:1041000008958FEF80939601089520919501862F51
:1041100090E0820F911D8F3F910520F4620F609314
:10412000950108958FEF8093950108952091940152
:10413000862F90E0820F911D8F3F910520F4620F32
:104140006093940108958FEF8093940108952091D6
:104150009301862F90E0820F911D8F3F910520F4EF
:10416000620F6093930108958FEF809393010895F8
:10417000833011F128F4813049F0823091F00895B4
:10418000853081F120F18630C1F108958091980148
:10419000681720F4861B8093980108951092980167
:1041A000089580919701681720F4861B80939701EA
:1041B000089510929701089580919601681720F450
:1041C000861B809396010895109296010895809120
:1041D0009501681720F4861B80939501089510922D
:1041E0009501089580919401681720F4861B8093AF
:1041F0009401089510929401089580919301681795
:1042000020F4861B809393010895109293010895E2
:10421000482F50E0FA013697E334F10520F4E059D5
:10422000FF4F0C94DD2880E008950E94F81D0E9445
:104230000A1E0E94131E9DC00E94F60D892B59F084
:104240000E94F60D9093C6038093C5030E94D51378
:1042500080E090E004C08091C5039091C6030E9465
:10426000F10D87C08091B603817F8E7F8093B60366
:1042700081E08093C80308950E94D5132FEF83ED4A
:1042800090E3215080409040E1F700C000000E9480
:104290002D1C6FC09091B603892F817090FF03C0D1
:1042A000917F9E7F27C091609093B60362C09091EA
:1042B000B60391FB882780F921E0822780FB91F9E2
:1042C00013C09091B60392FB882780F921E08227E2
:1042D00080FB92F909C09091B60393FB882780F97F
:1042E00021E0822780FB93F99093B603882309F499
:1042F00040C091609093B60308950E94D5138091B9
:10430000900191E089278093900133C081E890E08B
:104310000E941D0E2FEF81EE94E0215080409040CE
:10432000E1F700C0000080E090E00E941D0E2FEF3A
:1043300089E698E1215080409040E1F700C00000FC
:1043400018C061E070E080E090E00FC023EE01C093
:1043500027EC280F61E070E080E090E004C0660F79
:10436000771F881F991F2A95D2F70E949C170E94D9
:10437000D51381E0089580E0089580E00895CF93FB
:10438000C82F8091C803813069F018F08230B1F1F4
:104390007CC0A0919101B09192018C91823209F080
:1043A00076C007C0A0919101B09192018C918232A8
:1043B00049F48C2F0E94BB2181111DC08C2F0E94BB
:1043C00008211AC08C2F0E94BD21811114C0C43154
:1043D00079F048F4CB3079F0C03109F05CC082E06C
:1043E0008093C80308C0C93219F0C83321F053C004
:1043F0001092C80350C081E081704FC0C93291F162
:1044000020F5C43179F1B0F4C73009F042C08EE133
:104410008093980182E3809397018AE080939601CC
:1044200084E18093950188E08093940188E28093F1
:1044300093012FC0CE51CA3060F5EC2FF0E0E35568
:10444000FE4F80818093C70324C0CE34C1F020F496
:10445000CB34F9F46AE00EC0C13551F0C235C9F46D
:1044600061E008C01092C70381E08093C80315C0C3
:1044700061E006C08091C7030E9442200AC06AE042
:104480008091C7030E94B82004C01092C80380E046
:1044900004C081E002C080E0AFCFCF910895E1E891
:1044A000F0E08081886080838081816080838FB725
:1044B000F89493E09093890090ED909388008FBFDB
:1044C0000C945B26EFE6F0E080818260808381E0DF
:1044D0008093E4030C947626EFE6F0E080818D7FF4
:1044E00080831092E40380E00E94692681E00E94AC
:1044F000692682E00E94692683E00E9469268091F5
:10450000E4030C9476268093DC038093DD03809390
:10451000DE038093DF030895E82FF0E0E452FC4FC0
:104520004081242F30E08FEF90E0861B91098217A5
:1045300093071CF48FEF80830895640F60830895C0
:10454000CF93DF93D82FC0E06D2F8C2F0E948C2249
:10455000CF5FC430C9F7DF91CF910895E82FF0E025
:10456000E452FC4F8081861710F410820895861B58
:1045700080830895CF93DF93D82FC0E06D2F8C2FC9
:104580000E94AE22CF5FC430C9F7DF91CF9108956A
:104590008091E40308958091DB038F608093DB03B7
:1045A00008951092DB0308959091DA0321E030E042
:1045B000082E01C0220F0A94EAF7662311F0292B76
:1045C00002C0209529232093DA030895CF93DF9327
:1045D000D82FC0E06D2F8C2F0E94D422CF5FC43023
:1045E000C9F7DF91CF9108958093D9030895809101
:1045F000D4038F608093D40308951092D403089558
:104600008093D20308951F920F920FB60F92112438
:10461000EF92FF920F931F932F933F934F935F93CC
:104620006F937F938F939F93AF93BF93CF93DF93BA
:10463000EF93FF938091CC038F5F8093CC0300EEC8
:1046400013E0C0E0D0E0FC2E8091CC0381110DC0BE
:10465000F8018081882319F08C2F0E945C26FE01CE
:10466000E452FC4F8081F8018083F80181918F0131
:104670009091CC03981303C08F2D0E946926219638
:10468000C430D10501F78091CB038F5F8093CB03BA
:10469000803408F4ADC01092CB03E090DB03E1104E
:1046A00005C0F090D403F1103BC0A2C08091CA03B2
:1046B0008F5F8093CA039091D903981790F7109257
:1046C000CA0305ED13E0C0E0D0E0F12CC7010C2EC9
:1046D00002C0969587950A94E2F780FF1AC0F80108
:1046E0008081882319F08150808313C08091DA0380
:1046F00090E00C2E02C0969587950A94E2F761E04F
:1047000080FF04C08C2F0E94AE2203C08C2F0E9419
:104710008C2221960F5F1F4FC430D105B9F6C1CF4F
:104720008091C9038F5F8093C9039091D20398173A
:1047300008F05EC01092C9031091CD030091D3031D
:10474000AEECB3E080E090E041E050E02F2D30E0AF
:10475000082E02C0369527950A94E2F720FF3CC048
:104760006C91E62FF0E0EA5DFB4FE491EC01C4525E
:10477000DC4FE883212F30E0082E02C036952795C4
:104780000A94E2F73C9120FF1AC0611115C0BA01EA
:10479000082E01C0660F0A94EAF760951623202FB1
:1047A00030E0082E02C0369527950A94E2F720FFE4
:1047B00013C00623F62210C061506C930DC06F37F2
:1047C00041F49A01082E01C0220F0A94EAF7122B35
:1047D00003C021E0230F2C9301961196843091059C
:1047E00009F0B4CFF092D4031093CD030093D30318
:1047F000FF91EF91DF91CF91BF91AF919F918F91F9
:104800007F916F915F914F913F912F911F910F91E8
:10481000FF90EF900F900FBE0F901F9018950E9481
:10482000ED1D811102C00E94C81D0E94131E8093BD
:10483000010480FF02C0869501C080E00C9449030A
:104840008091010480FF14C0982F9695292F30E0A5
:104850002830310544F49F5F990F8170892B809334
:1048600001040E94171E8091010486950C9449034F
:1048700008958091010480FF14C0982F9695292FE8
:1048800030E02230310544F09158990F8170892B26
:10489000809301040E94171E8091010486950C9458
:1048A0004903089580910104982F9095917090FB91
:1048B00080F980930104992339F0982F9E7F21F489
:1048C0008170826080930104809101040E94171E10
:1048D0008091010480FF02C0869501C080E00C94A5
:1048E000490330910104232F26952F5F2F77822FC4
:1048F00090E0317009972CF4220F232B20930104B0
:1049000002C030930104809101048E7F91E009F48C
:1049100090E08091010490FB80F9809301040E9453
:10492000171E8091010486950C944903880F90917D
:1049300001049170982B909301049E7F21E009F46B
:1049400020E08091010420FB80F9809301040E9403
:10495000171E8091010486950C944903DF92EF9213
:10496000FF920F931F93CF93DF93F82EE62E0091C3
:10497000EA030827611101C0B1F1C0E0D0E010E006
:10498000DC2E0E94C822882359F02091E60330E0F3
:104990000C2E02C0369527950A94E2F720FD1DC023
:1049A000E11009C098010C2E02C0369527950A9493
:1049B000E2F720FF12C02091E5032F2530E00C2EF6
:1049C00002C0369527950A94E2F78D2D20FF03C08B
:1049D0000E94CA0302C00E94DA032196C430D105A6
:1049E00079F6F092EA03DF91CF911F910F91FF903A
:1049F000EF90DF9008950F931F93CF93DF93C0E064
:104A0000D0E001E010E08C2F0E94CF2694FF0BC075
:104A10008091E50398010C2E01C0220F0A94EAF759
:104A2000822B8093E50395FF0BC08091E6039801EC
:104A30000C2E01C0220F0A94EAF7822B8093E60322
:104A40009F70892F90E08230910589F08330910525
:104A5000D1F08130910511F50C2E01C0880F0A9418
:104A6000EAF79091E803982B9093E80317C0209100
:104A7000E703C8010C2E01C0880F0A94EAF7282B1F
:104A80002093E7030BC02091E903C8010C2E01C05D
:104A9000880F0A94EAF7282B2093E9032196C43063
:104AA000D10509F0B0CF0E94C10361E080E0DF9141
:104AB000CF911F910F910C94AE24CF92DF92EF9281
:104AC000FF920F931F93CF93DF939091E903992364
:104AD000C9F1D090EA03C0E0D0E0E82EF12C01E06B
:104AE00010E02091E90330E08C2F0C2E02C03695A7
:104AF00027950A94E2F720FF15C00E94CF26970160
:104B000002C0359527958A95E2F7C90198010C2EC8
:104B100001C0220F0A94EAF780FF02C0D22A02C025
:104B20002095D2222196C430D105D9F660E08D2D92
:104B3000DF91CF911F910F91FF90EF90DF90CF9079
:104B40000C94AE24DF91CF911F910F91FF90EF90C5
:104B5000DF90CF900895AF92BF92CF92DF92EF9205
:104B6000FF920F931F93CF93DF936B017C01809192
:104B7000E8038823E9F1B090EA03C0E0D0E001E067
:104B800010E02091E80330E00C2E02C03695279506
:104B90000A94E2F720FF1AC08C2F0E94CF26A701AB
:104BA000960104C056954795379527958A95D2F773
:104BB000DA01C90198010C2E01C0220F0A94EAF70C
:104BC00080FF02C0B22A02C02095B2222196C430D2
:104BD000D105B9F660E08B2DDF91CF911F910F9138
:104BE000FF90EF90DF90CF90BF90AF900C94AE24E9
:104BF000DF91CF911F910F91FF90EF90DF90CF90B9
:104C0000BF90AF900895AF92BF92CF92DF92EF9294
:104C1000FF920F931F93CF93DF936B017C018091E1
:104C2000E7038823E9F1B090EA03C0E0D0E001E0B7
:104C300010E02091E70330E00C2E02C03695279556
:104C40000A94E2F720FF1AC08C2F0E94CF26A701FA
:104C5000960104C056954795379527958A95D2F7C2
:104C6000DA01C90198010C2E01C0220F0A94EAF75B
:104C700080FF02C0B22A02C02095B2222196C43021
:104C8000D105B9F660E08B2DDF91CF911F910F9187
:104C9000FF90EF90DF90CF90BF90AF900C94AE2438
:104CA000DF91CF911F910F91FF90EF90DF90CF9008
:104CB000BF90AF90089508952091E60330E0082E4C
:104CC00002C0369527950A94E2F720FD0C94CA039A
:104CD00008952091E60330E0082E02C0369527950E
:104CE0000A94E2F720FD0C94DA030895811105C0BF
:104CF00061E08091EA030C94AE240895CF92DF9294
:104D0000EF92FF920F931F93CF93DF930BEE13E07D
:104D100097E0E92EF12CC0E0D0E0C7010E94FF2807
:104D2000F80191838083019699F46E01CC0CDD1C0F
:104D3000C60185519C4F6C018C2F0E94B803F6016F
:104D400091838083F80160817181C7010E941329DA
:104D50002196F2E0EF0EF11C0E5F1F4FC430D1051B
:104D6000E1F6DF91CF911F910F91FF90EF90DF90CF
:104D7000CF9008951F93CF93DF93C7E0D0E010E06A
:104D8000812F0E94B803BC01CE010E9413291F5F2E
:104D900022961430A9F7DF91CF911F910895E82F43
:104DA000F0E0EE0FFF1FE551FC4F808191810895E7
:104DB000EF92FF920F931F93CF93DF9381E590E0E3
:104DC0000E94FF287C01C0E0D0E00DEE1EEFCE0176
:104DD0008D5A9F4F0E94F728282F30E0C0FF02C055
:104DE000322F2227020F131F2196C03483E0D807E9
:104DF00071F781E0E016F10609F080E0DF91CF91D4
:104E00001F910F91FF90EF90089590E0880F991FE8
:104E10008D5A9F4F0C94FF2890E0880F991F8D5A50
:104E20009F4F0C9413291F93CF93DF9300D0CDB7DE
:104E3000DEB7182F4A8369830E94AF02212F30E02A
:104E4000322F22276981689F200D311D11244A814C
:104E5000240F311DC9018D569F4F0F900F90DF9188
:104E6000CF911F910C94F7288D569F4F0C940529D4
:104E70008F929F92AF92BF92CF92DF92EF92FF926A
:104E80000F931F93CF93DF930E94AC027C010E948B
:104E9000A9025C01E114F104F1F00E949E024C01B0
:104EA000C0E0D0E00DEE1EEFC815D90520F4F701E3
:104EB000C590D49002C0C12CD12CB6018C2F0E9479
:104EC0000C270C0D1D1D219682E0E80EF11CC0324E
:104ED000D10551F702C00DEE1EEFA114B104F9F097
:104EE0000E949B027C01C0E0D0E0CE15DF0528F4D3
:104EF000F501EC0FFD1FD49001C0D12C6D2DCE011A
:104F00000E9434276D2D70E0C0FF02C0762F662707
:104F1000060F171F2196C11583E0D80731F7B80196
:104F200081E590E0DF91CF911F910F91FF90EF907D
:104F3000DF90CF90BF90AF909F908F900C941329EB
:104F40000E94D826811102C00C943827089504D0FD
:104F50006894B1118DC0089570D088F09F5790F07B
:104F6000B92F9927B751A0F0D1F0660F771F881F8E
:104F7000991F1AF0BA95C9F712C0B13081F077D0F5
:104F8000B1E0089574C0672F782F8827B85F39F093
:104F9000B93FCCF3869577956795B395D9F73EF4ED
:104FA00090958095709561957F4F8F4F9F4F089595
:104FB000E89409C097FB3EF49095809570956195B3
:104FC0007F4F8F4F9F4F9923A9F0F92F96E9BB2769
:104FD0009395F695879577956795B795F111F8CFE5
:104FE000FAF4BB0F11F460FF1BC06F5F7F4F8F4F50
:104FF0009F4F16C0882311F096E911C0772321F046
:105000009EE8872F762F05C0662371F096E8862FDD
:1050100070E060E02AF09A95660F771F881FDAF734
:10502000880F9695879597F9089557FD9058440FE6
:10503000551F59F05F3F71F04795880F97FB991FF7
:1050400061F09F3F79F087950895121613061406B4
:10505000551FF2CF4695F1DF08C016161706180641
:10506000991FF1CF86957105610508940895E8941C
:10507000BB2766277727CB0197F908950BD078C017
:1050800069D028F06ED018F0952309F05AC05FC09F
:105090001124EECFCADFA0F3959FD1F3950F50E016
:1050A000551F629FF001729FBB27F00DB11D639FDA
:1050B000AA27F00DB11DAA1F649F6627B00DA11D80
:1050C000661F829F2227B00DA11D621F739FB00D26
:1050D000A11D621F839FA00D611D221F749F332796
:1050E000A00D611D231F849F600D211D822F762F2F
:1050F0006A2F11249F5750408AF0E1F088234AF02C
:10510000EE0FFF1FBB1F661F771F881F9150504077
:10511000A9F79E3F510570F014C0AACF5F3FECF392
:10512000983EDCF3869577956795B795F795E79563
:105130009F5FC1F7FE2B880F911D9695879597F974
:10514000089597F99F6780E870E060E008959FEF09
:1051500080EC089500240A9416161706180609060E
:10516000089500240A9412161306140605060895DD
:10517000092E0394000C11F4882352F0BB0F40F465
:10518000BF2B11F460FF04C06F5F7F4F8F4F9F4FA5
:10519000089597FB072E16F4009407D077FD09D0E9
:1051A0000E94E32807FC05D03EF4909581959F4F1F
:1051B0000895709561957F4F0895EE0FFF1F05903C
:1051C000F491E02D0994AA1BBB1B51E107C0AA1F53
:1051D000BB1FA617B70710F0A61BB70B881F991F98
:1051E0005A95A9F780959095BC01CD010895F9993C
:1051F000FECF92BD81BDF89A992780B50895A8E1A8
:10520000B0E042E050E00C941A29262FF999FECF25
:105210001FBA92BD81BD20BD0FB6F894FA9AF99AD3
:105220000FBE019608950E940529272F0C94062988
:10523000DC01CB01FC01F999FECF06C0F2BDE1BD56
:10524000F89A319600B40D9241505040B8F7089545
:04525000F894FFCF00
:10525400051008201008090A0B0C0D0E0F1011126E
:10526400131415161728292A2B2C2D2E2F303132E2
:105274003334353637000000000000000000000021
:10528400000000000000000000000000000000001A
:10529400000000000000010203040506072021228B
:1052A4002324252627FFFFFFFFFFFFFFFFFFFFFF4C
:1052B400FFFFFFFFFF0000000000000000000000EF
:1052C40000000000000000000000000000000000DA
:1052D40000000000001F07AC0789075507220701DB
:1052E40001A1032808140A321E3F4D3639E7039AF8
:1052F4000364032B03BE02D702F002090301020375
:0853040004050607080900007A
:00000001FF
