:100000000C944B090C948F090C948F090C948F0954
:100010000C948F090C948F090C948F090C948F0900
:100020000C948F090C948F090C9431130C940114C7
:100030000C94F40E0C948F090C948F090C948F0976
:100040000C948F090C94F6310C948F090C948F0941
:100050000C948F090C945A250C948F090C948F09D9
:100060000C948F090C948F090C948F090C948F09B0
:100070000C948F090C948F090C948F090C948F09A0
:100080000C948F090C948F090C948F090C948F0990
:100090000C948F090C948F090C948F090C948F0980
:1000A0000C948F090C948F090C948F0969158B158A
:1000B00077168B157716CD15F11577164616591646
:1000C000A519A519D319D319361A721AB81CB81C58
:1000D0008A1AB81C811B811B1E1C321CB81CA61C52
:1000E000102F382F3E2D19301930C52E19301930E8
:1000F0005B2F19306E2FE32F19301930193019305A
:10010000B82F9F2F1930882F1930482F19301930E8
:1001100012301230123012301230123012301230CF
:1001200012301030193010301930193019301930A0
:100130001930193019301930193019301930103080
:1001400019301930C52EAB2E143014301430143041
:10015000143014301430143014301430143014307F
:10016000F52F1930242FF1A100D200D100D02900A1
:100170003A3B3C3D3E3F40414243444546474800B0
:10018000000000000000351E1F2021222324252608
:10019000272D2E2A494A4B535455560000002B1444
:1001A0001A0815171C180C12132F30314C4D4E5FC6
:1001B00060615700000039041607090A0B0D0E0F85
:1001C000333400280000005C5D5E00000000E11D8B
:1001D0001B06190511103637380000E5005200598A
:1001E0005A5B58000000E0E3E20000002C00000031
:1001F000E6E7C0E450514F620063000000000000D9
:1002000000000000000000000000000000000000EE
:1002100000000000000000000000000000000000DE
:1002200000000000000000000000000000000000CE
:1002300000000000000000000000000000000000BE
:1002400000000000000000000000000000000000AE
:10025000000000000000000000000000000000009E
:10026000000000000000000000000000000001008D
:10027000010101010101010101010101010101006F
:1002800000000000000001C1C2C301010101010121
:1002900001010101010101530101010000000101FF
:1002A000010101010101010101010101010101013E
:1002B0000101010000000101010101010101010131
:1002C0000101000100000001010100000000010126
:1002D0000101010101010101010000010001000112
:1002E0000101010000000101010000000100000007
:1002F00001010101010101010001000000000000F5
:1003000000000000000000000000000000000000ED
:1003100000000000000000000000000000000000DD
:1003200000000000000000000000000000000000CD
:1003300000000000000000000000000000000000BD
:1003400000000000000000000000000000000000AD
:10035000000000000000000000000000000000009D
:1003600000000000000000000000000000000A0083
:100370002530313662003A200025303258000A72AA
:100380002F632030313233343536373839414243E8
:100390004445460A000A002530325800626F756EE7
:1003A0006365213A2000001080FF4142438069329A
:1003B000632074696D656F75740A00666F756E648D
:1003C0003A2025640A006C6F73743A2025640A0091
:1003D0004B6579626F6172642073746172742E0A66
:1003E0000055534220636F6E666967757265642EAF
:1003F0000A000E034B0069006D0065007200610089
:10040000000024036B0061006900310031003000FE
:100410003300400067006D00610069006C002E0031
:1004200063006F006D0000000403090409028D00E1
:10043000050100A0320904000001030101000921A7
:1004400011010001223F000705810308000A090489
:1004500001000103010200092111010001224D00E8
:100460000705820308000A090402000103000000D6
:100470000921110100012236000705830308000A43
:1004800009040300020300000009211101000122F8
:100490002000070584032000010705040320000154
:1004A00009040400010300000009211101000122D8
:1004B000390007058503100001120110010000003A
:1004C00008C016DB2705000102000105010906A18D
:1004D00001050719E029E715002501950875018137
:1004E0000205081901290595057501910295017507
:1004F00003910105071900297715002501957875E5
:10050000018102C00631FF0974A10109751500259A
:10051000FF9520750881020976150025FF95207545
:10052000089102C005010980A1018502160100267B
:10053000B7001A01002AB700751095018100C005A7
:100540000C0901A1018503160100269C021A010075
:100550002A9C02751095018100C005010902A101C4
:100560000901A100050919012905150025019505B5
:100570007501810295017503810105010930093179
:100580001581257F95027508810609381581257F1B
:10059000950175088106050C0A38021581257F959D
:1005A0000175088106C0C005010906A101050719EA
:1005B000E029E7150025019508750181029501756F
:1005C0000881010508190129059505750191029514
:1005D00001750391010507190029FF150025FF95F5
:1005E0000675088100C00A002530325820006B656E
:1005F00079626F6172645F7265706F72743A200025
:100600000A0025303258006B6579626F6172645F51
:100610007365745F6C65643A200064656C5F6B653C
:10062000795F6269743A2063616E27742064656C37
:100630003A20253032580A006164645F6B65795F47
:100640006269743A2063616E2774206164643A20A1
:10065000253032580A00646F6E652E0A00626F6F93
:10066000676D61676963207363616E3A202E2E2E79
:100670002000290A002575002F002575005D28003F
:10068000256400200025640020002564002000254A
:1006900064007C0025303258006D6F7573656B65A2
:1006A00079205B62746E7C782079207620685D28E2
:1006B0007265702F61636C293A205B000A00257512
:1006C000006D6B5F776865656C5F74696D655F74FD
:1006D0006F5F6D6178203D20000A002575006D6B0D
:1006E0005F776865656C5F6D61785F737065656481
:1006F000203D20000A002575006D6B5F74696D65F3
:100700005F746F5F6D6178203D20000A00257500E1
:100710006D6B5F6D61785F7370656564203D20006F
:100720000A002575006D6B5F696E74657276616C89
:10073000203D20000A002575006D6B5F64656C61CB
:1007400079203D20000A002575006D6B5F77686594
:10075000656C5F74696D655F746F5F6D6178203D76
:1007600020000A002575006D6B5F776865656C5F1A
:100770006D61785F7370656564203D20000A002517
:1007800075006D6B5F74696D655F746F5F6D617827
:10079000203D20000A002575006D6B5F6D61785F5C
:1007A0007370656564203D20000A002575006D6B3F
:1007B0005F696E74657276616C203D20000A0025C9
:1007C00075006D6B5F64656C6179203D20000A00E7
:1007D000257500363A206D6B5F776865656C5F74D0
:1007E000696D655F746F5F6D61783A20000A00255E
:1007F0007500353A206D6B5F776865656C5F6D617C
:10080000785F73706565643A20000A0025750034CE
:100810003A206D6B5F74696D655F746F5F6D6178B1
:100820003A20000A00257500333A206D6B5F6D6138
:10083000785F73706565643A20000A0025750032A0
:100840003A206D6B5F696E74657276616C286D73AA
:10085000293A20000A00257500313A206D6B5F644B
:10086000656C6179282A31306D73293A20000A0AB3
:100870002D2D2D2D2D204D6F7573656B65792050B5
:100880006172616D6574657273202D2D2D2D2D0A99
:10089000003E20002575004D003F00736574206404
:1008A000656661756C742076616C7565732E0A00DF
:1008B0000A0025750073656C65637465642070615A
:1008C00072616D657465723A2000433E20000A51E2
:1008D000756974204D6F7573656B657920436F6E14
:1008E000736F6C650A0053656520687474703A2FE5
:1008F0002F656E2E77696B6970656469612E6F7202
:10090000672F77696B692F4D6F7573655F6B6579BD
:10091000730A000A002575002C20776865656C3D18
:100920000025750077686572652064656C74613AAE
:1009300020637572736F723D000A73706565642081
:100940003D2064656C7461202A206D61785F73704E
:10095000656564202A2028726570656174202F20E7
:1009600074696D655F746F5F6D6178290A007067E7
:10097000646F776E3A0964656372656173652070B0
:1009800072616D6574657273282D3130290A0070AB
:100990006775703A09696E6372656173652070727C
:1009A000616D6574657273282B3130290A00646F9C
:1009B000776E3A0964656372656173652070726170
:1009C0006D6574657273282D31290A0075703A09B6
:1009D000696E637265617365207072616D657465BF
:1009E0007273282B31290A00643A097365742064F4
:1009F000656661756C742076616C7565730A00704C
:100A00003A097072696E74207072616D65746572F6
:100A1000730A00363A0973656C656374206D6B5F09
:100A2000776865656C5F74696D655F746F5F6D6134
:100A3000780A00353A0973656C656374206D6B5FE5
:100A4000776865656C5F6D61785F73706565640A72
:100A500000343A0973656C656374206D6B5F74696B
:100A60006D655F746F5F6D61780A00333A09736575
:100A70006C656374206D6B5F6D61785F7370656525
:100A8000640A00323A0973656C656374206D6B5FAC
:100A9000696E74657276616C286D73290A00313A4B
:100AA0000973656C656374206D6B5F64656C617957
:100AB000282A31306D73290A004553432F713A09B2
:100AC000717569740A000A0A2D2D2D2D2D204D6F88
:100AD0007573656B657920506172616D65746572BF
:100AE000732048656C70202D2D2D2D2D0A003F00A0
:100AF0004D303E000A456E746572204D6F7573650A
:100B00006B657920436F6E736F6C650A000A5175CF
:100B1000697420436F6E736F6C65204D6F64650A56
:100B200000433E20000A0025750020746F20002538
:100B300075007377697463685F64656661756C746A
:100B40005F6C617965723A20006D3A096D6F75735B
:100B5000656B65790A004553432F713A09717569D0
:100B6000740A000A0A2D2D2D2D2D20436F6E736FF0
:100B70006C652048656C70202D2D2D2D2D0A0050A0
:100B80006175733A096A756D7020746F20626F6FBA
:100B9000746C6F616465720A00436170733A094C4A
:100BA0006F636B204B6579626F617264284368697B
:100BB0006C642050726F6F66290A00505363723A5A
:100BC00009706F77657220646F776E2F72656D6F35
:100BD00074652077616B652D75700A00342F46347B
:100BE0003A0973776974636820746F204C61796582
:100BF0007234200A00332F46333A097377697463DD
:100C00006820746F204C6179657233200A00322F9E
:100C100046323A0973776974636820746F204C61B7
:100C200079657232200A00312F46313A09737769AB
:100C300074636820746F204C6179657231200A00FA
:100C4000302F4631303A0973776974636820746FC6
:100C5000204C6179657230200A006E3A09746F6722
:100C6000676C65204E4B524F0A00653A09707269F5
:100C70006E7420656570726F6D20636F6E66696754
:100C80000A00733A097072696E7420737461747526
:100C9000730A00743A097072696E742074696D6524
:100CA0007220636F756E740A00763A097072696E0D
:100CB00074206465766963652076657273696F6E0A
:100CC000202620696E666F0A006D3A09746F6767A7
:100CD0006C65206D6F7573652064656275670A00C9
:100CE0006B3A09746F67676C65206B6579626F6139
:100CF00072642064656275670A00783A09746F67E8
:100D0000676C65206D6174726978206465627567CF
:100D10000A00643A09746F67676C652064656275E0
:100D20006720656E61626C650A00633A09656E74DE
:100D3000657220636F6E736F6C65206D6F64650AFA
:100D4000000A0A2D2D2D2D2D20436F6D6D616E64CF
:100D50002048656C70202D2D2D2D2D0A000A0025B0
:100D600075002E6C6576656C3A20000A00257500CA
:100D70002E656E61626C653A20000A00253032589B
:100D8000006261636B6C696768745F636F6E66694C
:100D9000672E7261773A20000A002575002E6E6B6F
:100DA000726F3A20000A002575002E737761705F1C
:100DB0006261636B736C6173685F6261636B7370B4
:100DC0006163653A20000A002575002E7377617013
:100DD0005F67726176655F6573633A20000A00257C
:100DE00075002E6E6F5F6775693A20000A002575E1
:100DF000002E737761705F72616C745F72677569E2
:100E00003A20000A002575002E737761705F6C61CF
:100E10006C745F6C6775693A20000A002575002EB6
:100E2000636170736C6F636B5F746F5F636F6E741D
:100E3000726F6C3A20000A002575002E737761707E
:100E40005F636F6E74726F6C5F636170736C6F63FE
:100E50006B3A20000A0025303258006B65796D61CD
:100E6000705F636F6E6669672E7261773A20000A61
:100E7000002575002E6D6F7573653A20000A0025F8
:100E800075002E6B6579626F6172643A20000A000A
:100E90002575002E6D61747269783A20000A00256C
:100EA00075002E656E61626C653A20000A0025307F
:100EB00032580064656275675F636F6E6669672E9E
:100EC0007261773A20000A002575006465666175D5
:100ED0006C745F6C617965723A20003F004E4B5232
:100EE0004F3A2064697361626C65640A004E4B522C
:100EF0004F3A20656E61626C65640A006B657962C9
:100F00006F6172645F69646C653A2025580A006BF2
:100F10006579626F6172645F70726F746F636F6C1A
:100F20003A2025580A00686F73745F6B6579626FA9
:100F30006172645F6C65647328293A2025580A0041
:100F40000A0A2D2D2D2D2D20537461747573202DBB
:100F50002D2D2D2D0A0074696D65725F636F756E9E
:100F6000743A202530346C580A004743433A203401
:100F70002E382E31204156522D4C4942433A2031D1
:100F80002E382E3073766E204156525F41524348C0
:100F90003A20617672350A004F5054494F4E533A09
:100FA000204C55464120424F4F544D414749432024
:100FB0004D4F5553454B45592045585452414B458B
:100FC0005920434F4E534F4C4520434F4D4D414EBA
:100FD00044204E4B524F20343039360A0042554996
:100FE0004C443A20636336333930362D6469727469
:100FF00079202830373A34333A3431204E6F762016
:1010000031312032303134290A005649443A2030F7
:101010007831366330286B61693131303340676D28
:1010200061696C2E636F6D29205049443A203078F5
:1010300032376462284B696D6572612920564552CA
:101040003A203078303030350A00444553433A2056
:10105000742E6D2E6B2E206B6579626F6172642029
:101060006669726D7761726520666F72204B696D7B
:101070006572610A000A0A2D2D2D2D2D20566572EC
:1010800073696F6E202D2D2D2D2D0A000A444542C7
:1010900055473A206D6F7573652064697361626CA2
:1010A00065642E0A000A44454255473A206D6F7523
:1010B000736520656E61626C65642E0A000A4445A2
:1010C0004255473A206B6579626F617264206469AA
:1010D0007361626C65642E0A000A44454255473AC2
:1010E000206B6579626F61726420656E61626C6508
:1010F000642E0A000A44454255473A206D617472D5
:1011000069782064697361626C65642E0A000A4420
:10111000454255473A206D617472697820656E6169
:10112000626C65642E0A000A44454255473A2065C0
:101130006E61626C65642E0A000A44454255473A66
:101140002064697361626C65642E0A006E6F74209E
:10115000737570706F727465642E0A000A0A4A759E
:101160006D7020746F20626F6F746C6F6164657254
:101170002E2E2E2000433E20000A456E74657220FC
:10118000436F6E736F6C65204D6F64650A00556E1A
:101190006C6F636B65642E0A004C6F636B65642E25
:1011A0000A006565636F6E6669673A0A00000000B1
:1011B000000000000000000101010202020303041C
:1011C0000405050606070808090A0B0B0C0D0E0F8F
:1011D00010111213151617191A1B1D1E2022232574
:1011E00027292B2D2F313335383A3D3F4244474A8A
:1011F0004D505356595C5F6266696C7074777B7EA4
:1012000082868A8E9195999DA1A5A9ADB0B4B8BCEE
:10121000C0C3C7CBCED2D5D8DBDFE2E4E7EAECEF40
:10122000F1F3F5F7F8FAFBFCFDFEFFFFFF626163E7
:101230006B6C6967687420737465703A2025750A51
:10124000006261636B6C6967687420746F67676CB8
:10125000653A2025750A006261636B6C6967687482
:1012600020637573746F6D20646563726561736567
:101270003A2025750A006261636B6C6967687420A7
:10128000637573746F6D20696E6372656173653A1F
:101290002025750A000011241FBECFEFDAE0DEBF63
:1012A000CDBF04B603FE24C08091B2039091B30376
:1012B000A091B403B091B5038730904BA740B04BD9
:1012C000B9F41092B2031092B3031092B4031092C7
:1012D000B50314BE84B7877F84BF88E10FB6F89446
:1012E00080936000109260000FBEE0E0F8E3099583
:1012F00011E0A0E0B1E0E0E3F0E702C005900D925C
:10130000AA37B107D9F723E0AAE7B1E001C01D92DF
:10131000A23BB207E1F70E947E110C9416380C94A0
:101320000000FF93EF93E0917103F0917203309707
:1013300009F00995EF91FF910895FC0185918030A6
:1013400011F0EFDFFBCF0895FF27E0E230E247FF27
:101350000CC0419597FF09C0EDE2609570958095AE
:101360009095611D711D811D911D27FF02C0219562
:1013700030E350E2AA27660F771F881F991FAA1F24
:10138000A41710F0A41B63955A95A9F7AA3008F08A
:10139000A95FA05DAF93F395611571058105910576
:1013A00041F7ED3211F4EF93F395F21718F43F93F0
:1013B000F395FBCF8F91B5DFFA95E1F70895E991A9
:1013C000F9918591803021F0853219F0AADFF9CFAB
:1013D000089520E0E89455915532C1F3503311F44B
:1013E000689455915A3348F4505390F3220F022ECB
:1013F000220F220F200D250FF4CF0EF42195899195
:101400009991533619F3533729F1533559F1BC01EA
:1014100088279927E8945C3621F4899199916894FA
:101420005591543639F446EF7EF077FF0DC08FEFBB
:101430009FEF0AC055374AE039F0583540E121F0B6
:10144000523642E009F00895FF93EF937DDFEF916C
:10145000FF91B7CFFF93EF93FC0181918030B9F3F7
:1014600060DFFBCFFF93EF9368DFF1CFDF93CF9384
:10147000CDB7DEB72596A3DFCF91DF91089580E049
:1014800092E0089584E090E00895462F672F0C9431
:101490000136805C0E94F53508958EE691E008954E
:1014A00086E691E0089580910101089580E885BF66
:1014B00085BF0E94E90E0E94140E90910201EAEF8E
:1014C000F1E0AAE7B1E080E0891751F011921192A2
:1014D000119211921D921D921D921D928F5FF4CF59
:1014E0005C980895EF92FF920F931F93CF93DF9331
:1014F0000E946F0EF12C85E0E82EC7E9D3E0309111
:101500000201F31608F045C08F2D0E94210E20EA3B
:101510002A95F1F70E94900D24E0F29EF00111242B
:10152000E658FE4F0081118122813381061717078B
:101530002807390751F160837183828393838091F7
:101540000001882301F180919F0380FF04C08CE992
:1015500093E00E949D0980919F0380FF0CC08091C1
:1015600000011F928F93DF93CF930E94360A0F9052
:101570000F900F900F9080919F0380FF04C085E92A
:1015800093E00E949D09E09200010E94140EF394E2
:10159000B6CF809100018823F1F081508093000143
:1015A000811106C0CAE7D1E0EAEFF1E020E007C010
:1015B0008FE99FE00197F1F700C000000CC02317EE
:1015C00051F089919991A991B99181939193A193A6
:1015D000B1932F5FF4CF81E0DF91CF911F910F91F5
:1015E000FF90EF90089594E0899FF0011124E65058
:1015F000FE4F60817181828193810895DF92EF9225
:10160000FF920F931F93CF93DF938EE793E00E9497
:101610009D09D12C09E713E0C0E7D3E080910201D6
:10162000D81658F5ED2CF12C1F92DF921F930F93D3
:101630000E94360A86E793E00E949D09F701EE0FAB
:10164000FF1FEE0FFF1FE650FE4F808191810E9429
:1016500026269F938F93DF93CF930E94360A8EE6C0
:1016600093E00E949D09D3948DB79EB708960FB65C
:10167000F8949EBF0FBE8DBFD1CFDF91CF911F9148
:101680000F91FF90EF90DF900895CF93C82F809334
:101690007A02873090F48430E0F4813090F10E9437
:1016A00072310E94E1310E94F031EC2FF0E0EA55F6
:1016B000FC4F8491CF910C9493318730A9F08830FE
:1016C00001F50E9472310E94DB310E94F03181E00D
:1016D00012C00E9472310E94E1310E94EA3186E01C
:1016E0008C1BCF910C94F3310E9472310E94DB313C
:1016F0000E94F03180E00E94E43183E0CF910C94AD
:10170000E7310E94E1310E94F031CF910C947C319D
:101710001F93CF93DF9300D000D01F92CDB7DEB7D9
:10172000162F80917A02873029F4662319F080E21F
:101730000E94CA3180917A02883069F4112359F0ED
:1017400080E20F900F900F900F900F90DF91CF914C
:101750001F910C94B0310F900F900F900F900F903D
:10176000DF91CF911F910895E82FF0E0E655FC4FEF
:1017700084910895249A2C9A6E9A769A259A2D9A95
:10178000269A2E980895813041F028F0823039F061
:10179000833039F008952C980895769808952D98FF
:1017A00008952E9A0895813041F028F0823039F062
:1017B000833039F008952C9A0895769A08952D9AD9
:1017C00008952E9808951092B9008CE08093B80087
:1017D000089594EA9093BC009091BC0097FD06C0D8
:1017E00090917B029923C1F310927B029091B900F2
:1017F000987F983021F0903111F081E00895809326
:10180000BB0084E88093BC008091BC0087FD06C0CB
:1018100080917B028823C1F310927B028091B900F2
:10182000887F883111F0803441F780E0089584E9A1
:101830008093BC008091BC0084FF07C080917B0234
:101840008823C1F310927B02089508958093BB0012
:1018500084E88093BC008091BC0087FD06C0809125
:101860007B028823C1F310927B029091B900987F8C
:1018700081E0983209F480E0089584EC8093BC0004
:101880008091BC0087FD06C080917B028823C1F354
:1018900010927B028091BB00089584E88093BC0085
:1018A0008091BC0087FD06C080917B028823C1F334
:1018B00010927B028091BB000895F894A89526E4CD
:1018C00088E190E00FB6F894A895809360000FBE71
:1018D0002093600078940895AF92BF92CF92DF92E8
:1018E000EF92FF920F931F93CF93DF938BE090E0E3
:1018F0000E94E537F82E8CE090E00E94E537C82E74
:101900008FEF8F0DDD24D3948E3F08F4D12CCC20A3
:1019100019F08FEFC81201C0D3942C2D30E02F0D99
:10192000311D2132310514F0D39443C0D11041C090
:10193000F0920201C092010103E211E0E12C8DE07E
:1019400090E0BB24BA94EF1450F4EC0121960E946D
:10195000E537F8018083803228F0D39403C0F80182
:10196000B082EC01E3940F5F1F4FF0E2EF1611F02D
:10197000CE01E9CF03E011E0B12CAA24AA94BC1453
:1019800068F47E018FEFE81AF80ACE010E94E5376D
:10199000F8018083803228F0D39403C0F801A0823C
:1019A0007E01B3940F5F1F4FF0E2BF1611F0E70105
:1019B000E6CF8D2DDF91CF911F910F91FF90EF908A
:1019C000DF90CF90BF90AF9008951F93CF93DF9398
:1019D000609102018BE090E00E94F3376091010179
:1019E0008CE090E00E94F3378DE090E0E3EFE80FA9
:1019F00020910201E21750F4EC012196F0E0ED5D38
:101A0000FE4F60810E94F337CE01F0CF182FE82FF0
:101A1000E11B20910101E21750F4EC012196F0E066
:101A2000ED5FFE4F60810E94F337CE01F0CFDF9172
:101A3000CF911F9108950F931F93CF93DF931F9220
:101A4000CDB7DEB78A01A895805E880F69830E94B2
:101A5000E90B698181110FC0862F0E94260C81112C
:101A60000AC0F80180810E94260C811104C0F8018F
:101A700081810E94260C89830E94170C89810F9016
:101A8000DF91CF911F910F910895EF92FF920F93E5
:101A90001F93CF93DF931F92CDB7DEB7182F7A0134
:101AA000A895105E110F812F69830E94E90B082F02
:101AB0006981811115C0862F0E94260C082F811183
:101AC0000FC0812F81600E94E90B082F811108C08F
:101AD0000E943D0CF70180830E944D0CF701818329
:101AE0000E94170C802F0F90DF91CF911F910F91C3
:101AF000FF90EF900895AB0162E00C941B0DAB01D9
:101B000066E00C941B0DAB0160E00C94450D8093D6
:101B1000A0038093A1038093A2038093A30308955D
:101B20004F925F926F927F928F929F92AF92BF92ED
:101B3000CF92DF92EF92FF920F931F93CF93DF9399
:101B40008FEF0E94870D60EA73E080E00E94830DB2
:101B500062EA73E081E00E94830DB090010163E0CE
:101B6000462E61E0562EF20160E070E0CB0101E00C
:101B700010E020E030E0AE2FA419AB1508F043C010
:101B8000AF01435051406A01F1905FEFF51699F3B0
:101B9000BF2DB295BF70AB2FA170CA2F612CD62D6F
:101BA000EF2CE294E69447E0E422AF2DA695A695AB
:101BB000A695AB27A0FBAA24A0F8AA2DB0E0AE0DF5
:101BC000B11DAE0DB11DAA0FBB1FAC0FBD1FA0569E
:101BD000BC4FAC91B0E04F2D4770042E02C0B595BC
:101BE000A7950A94E2F7A0FDC6CF3801490104C0C9
:101BF000660C771C881C991CCA94D2F76629772931
:101C000088299929B8CFDF91CF911F910F91FF902B
:101C1000EF90DF90CF90BF90AF909F908F907F908C
:101C20006F905F904F9008958FEF0E94870D60EA4C
:101C300073E080E00E947F0D62EA73E081E00C9423
:101C40007F0D1F93CF93DF93182F8FEF0E94870D87
:101C5000E12FF0E0ED5DFE4F90819F3F69F1392F5C
:101C600032953F70892F869586958695832781705A
:101C7000292F229526952770220F820F682F70E05A
:101C80003170C32F20E0D22F660F771FC60FD71FEA
:101C9000C056DC4F977021E030E001C0220F9A95CA
:101CA000EAF7209598812923288360567C4FDF919D
:101CB000CF911F910C947F0DDF91CF911F910895CB
:101CC000CF93C82F80E00E94870D6C2F70E0660FC5
:101CD000771F60567C4F8C2FCF910C947B0DAF9269
:101CE000BF92CF92DF92EF92FF920F931F93CF9309
:101CF000DF93A895C0E0D0E001E010E0BBEBEB2E55
:101D0000B3E0FB2E86ECC82E83E0D82EAC2EBC2E82
:101D1000CE018096880F991F81600E94E90B209167
:101D20007C0230E00C2E02C0359527950A94E2F72C
:101D300020FF1DC08823E9F180919F0380FF0AC026
:101D4000DF93CF93DF92CF920E94360A0F900F90CD
:101D50000F900F9098010B2C01C0220F0A94EAF704
:101D6000209580917C02822380937C0220C0811187
:101D700020C080919F0380FF0AC0DF93CF93FF9222
:101D8000EF920E94360A0F900F900F900F909801DB
:101D90000B2C01C0220F0A94EAF790917C02922B3F
:101DA00090937C020E94170C8A2D0E94600E0E9464
:101DB000D91C2196C230D10509F0A8CFDF91CF916F
:101DC0001F910F91FF90EF90DF90CF90BF90AF9059
:101DD00008950E946C0C81110E94E50C0E94E30B97
:101DE0000E945D0C0C946F0E1F920F920FB60F9213
:101DF00011242F933F934F935F936F937F938F9310
:101E00009F93AF93BF93EF93FF9380919F0380FFC6
:101E100008C08EEA93E09F938F930E94360A0F903A
:101E20000F901092BC00509A5198499B17C084E9BA
:101E30008093BC0081E080937B02FF91EF91BF9182
:101E4000AF919F918F917F916F915F914F913F9152
:101E50002F910F900FBE0F901F90189589E0589802
:101E600095E09A95F1F70000589A95E09A95F1F768
:101E700000008150A1F7DBCF80918F0208959091EF
:101E8000A803943009F05AC09091E9009F70209106
:101E9000EC0020FF02C020E801C020E0922B24E0EB
:101EA0002093E9002091EB0020FF29C02091EE0053
:101EB00027FF25C020917E02222321F02091E800F7
:101EC00025FF1DC010927E022091E4003091E500B4
:101ED00066E007C04091E4005091E5002417350703
:101EE00091F44091E80045FD19C04091A8034423B6
:101EF00029F1453019F14091EB0045FFEBCF9F7080
:101F00009093E9001BC0615021F481E080937E0230
:101F1000F6CF2091E4003091E500E3CF8093F1000B
:101F20008091E80085FD05C08091E8008E77809360
:101F3000E8009F709093E90080E008958FEF089586
:101F4000CF93DF9300D01F92CDB7DEB72091A803C7
:101F5000243019F523E029839B838A832093E900A9
:101F60008FEF9091E800815095FD06C095ED9A9510
:101F7000F1F700008111F5CF8091E80085FF0DC0D9
:101F800040E050E063E070E0CE0101960E943D1415
:101F90008091E8008E778093E8000F900F900F906B
:101FA000DF91CF910895CF93DF9300D01F92CDB7EB
:101FB000DEB72091A803243021F522E029839B83FA
:101FC0008A8383E08093E9008FEF9091E80081504D
:101FD00095FD06C095ED9A95F1F700008111F5CFBA
:101FE0008091E80085FF0DC040E050E063E070E0C4
:101FF000CE0101960E943D148091E8008E77809377
:10200000E8000F900F900F90DF91CF9108952091ED
:10201000A8032430F1F422E02093E9002FEF30915F
:10202000E800215035FD06C035ED3A95F1F7000086
:102030002111F5CF2091E80025FF0BC040E050E0D2
:1020400065E070E00E943D148091E8008E778093F7
:10205000E8000895CF93DF93EC018091A8038430CA
:1020600009F043C080914E018823C1F085E0809340
:10207000E9008FEF9091E800815095FD06C095E151
:102080009A95F1F700008111F5CF8091E80085FF66
:102090002CC040E050E060E170E017C081E0809328
:1020A000E9008FEF9091E800815095FD06C095ED15
:1020B0009A95F1F700008111F5CF8091E80085FF36
:1020C00014C040E050E068E070E0CE010E943D1492
:1020D0008091E8008E778093E80080E1FE01AFE711
:1020E000B2E001900D928A95E1F7DF91CF910895CA
:1020F00008950895089508950C94BD258091A8032E
:10210000843049F58091E9008F709091EC0090FF48
:1021100002C090E801C090E0982B84E08093E90031
:102120008091EB0080FF14C08091EE0087FF10C00B
:102130008091E80085FF03C01092F100F9CF8091F3
:10214000E80080FF05C08091E8008E778093E8006A
:102150009F709093E900089542E061EC81E00E9455
:10216000351242E061EC82E00E94351242E061ECFF
:1021700083E00E94351246E261EC84E00E94351251
:1021800042E161EC85E00C9435128091AA03833022
:1021900009F455C030F4813071F0823009F495C0F3
:1021A00008958A3009F481C08B3009F460C0893009
:1021B00009F0A3C020C08091A903813A09F09DC015
:1021C0008091E800877F8093E8008091AD03909133
:1021D000AE03892B21F060E080E090E003C060E175
:1021E0008FE792E070E00E9486148091E8008B7780
:1021F0008093E80008958091A903813209F07DC0A1
:102200008091AD039091AE03009719F0049709F007
:1022100074C08091E800877F8093E8008091E80097
:1022200082FD05C08091A8038111F8CF66C080911E
:10223000F10080938F028091E8008B775AC08091E3
:10224000A903813A09F059C08091AD039091AE0382
:10225000892B09F052C08091E800877F8093E800C5
:102260008091E80080FFFCCF80914D013DC08091BE
:10227000A903813209F041C08091AD039091AE0372
:10228000892BD9F58091E800877F8093E8000E9430
:102290006A129091AB0381E0911101C080E08093BC
:1022A0004D0180934E010C94D91C8091A903813279
:1022B00021F58091E800877F8093E8000E946A12F0
:1022C0008091AC0380937D0208958091A903813AA7
:1022D000A1F48091E800877F8093E8008091E80076
:1022E00080FFFCCF80917D028093F1008091E80017
:1022F0008E778093E8000C946A12089584B7877FE4
:1023000084BF88E10FB6F89480936000109260005B
:102310000FBE90E080E80FB6F89480936100909330
:1023200061000FBE0E94BB120E9418138091E20050
:1023300084608093E2008FE39FE00E947F25789481
:102340008091A8038430E1F781EE93E00E949D091B
:102350000E94221783E491E00E94901680ED93E0A2
:102360000E949D098091A803853069F40E94A725E9
:102370008091A6038823B1F30E94AA25882391F3B4
:102380000E941F12EFCF0E945A17ECCF292F33273C
:1023900023303105A9F06CF42130310509F442C035
:1023A0002230310509F043C08DE890E02CE234E0A2
:1023B00042C021323105C9F02232310519F137C04E
:1023C00099278130910541F08230910541F0892BA8
:1023D00071F5E8E2F4E005C0E2E0F4E002C0E2EF0B
:1023E000F3E0849190E09F0126C0653000F5E62F70
:1023F000F0E0EE0FFF1FEA59FE4F2081318189E0A6
:1024000090E019C0653098F4E62FF0E0DF01AA0FE4
:10241000BB1FA45ABE4F2D913C91E95AFE4F8081BB
:1024200090E009C082E190E029EB34E004C080E054
:1024300090E020E030E0FA0131832083089580E1CC
:1024400089BD82E189BD09B400FEFDCF8091D8002D
:102450008F7D8093D8008091E00082608093E000BF
:102460008091E00081FDFCCF0895982F973058F5BA
:102470009093E900981739F07091EC002091ED00ED
:102480005091F00003C0242F762F50E021FF19C097
:102490003091EB003E7F3093EB003091ED003D7FBB
:1024A0003093ED003091EB0031603093EB0070938E
:1024B000EC002093ED005093F0002091EE0027FFF8
:1024C00007C09F5FD3CF8F708093E90081E00895AC
:1024D00080E008958091A90387FD05C08091E80000
:1024E00080FF0EC012C08091E80082FD05C080917F
:1024F000A8038111F8CF08958091E8008B7708C078
:102500008091A8038111EACF08958091E8008E7729
:102510008093E80008958091E4009091E50045E6FD
:102520002091EC0020FF21C02091E80020FD21C077
:102530002091A803222389F0253089F02091EB0017
:1025400025FD0FC02091E4003091E50028173907E0
:1025500039F3415041F0C901E3CF82E0089583E0AF
:10256000089581E0089584E008952091E80022FF15
:10257000DFCF80E008950E9424130E942C13E0EE28
:10258000F0E0808181608083E8EDF0E080818F77EA
:10259000808319BCA7EDB0E08C918E7F8C938081F5
:1025A0008F7E80831092A70308950F931F93CF937C
:1025B000DF930E9424130E942C13C8EDD0E0888181
:1025C0008F77888388818068888388818F7D8883DE
:1025D00019BC1092A8031092A4031092A6031092A3
:1025E000A50300EE10E0F80180818B7F8083888155
:1025F0008160888342E060E080E00E943512E1EE75
:10260000F0E080818E7F8083E2EEF0E08081816067
:102610008083808188608083F80180818E7F8083C1
:10262000888180618883DF91CF911F910F910895F8
:10263000E7EDF0E080818160808384E082BF81E00B
:102640008093A7030C94D512E8EDF0E080818E7F93
:1026500080831092E20008951092DA001092E10057
:1026600008951F920F920FB60F9211242F933F934C
:102670004F935F936F937F938F939F93AF93BF938A
:10268000EF93FF938091E10082FF0BC08091E20005
:1026900082FF07C08091E1008B7F8093E1000E9460
:1026A0007E108091DA0080FF1FC08091D80080FFEB
:1026B0001BC08091DA008E7F8093DA008091D90070
:1026C00080FF0DC080E189BD82E189BD09B400FEB3
:1026D000FDCF81E08093A8030E94781005C019BC4B
:1026E0001092A8030E9479108091E10080FF19C028
:1026F0008091E20080FF15C08091E2008E7F809380
:10270000E2008091E20080618093E2008091D80035
:1027100080628093D80019BC85E08093A8030E9452
:102720007B108091E10084FF2EC08091E20084FF45
:102730002AC080E189BD82E189BD09B400FEFDCFD8
:102740008091D8008F7D8093D8008091E1008F7EAA
:102750008093E1008091E2008F7E8093E20080917F
:10276000E20081608093E2008091A403811104C0A3
:102770008091E30087FF02C084E001C081E0809384
:10278000A8030E947C108091E10083FF29C0809102
:10279000E20083FF25C08091E100877F8093E10004
:1027A00082E08093A8031092A4038091E1008E7FC1
:1027B0008093E1008091E2008E7F8093E20080911F
:1027C000E20080618093E20042E060E080E00E94ED
:1027D00035128091F00088608093F0000E947A109A
:1027E000FF91EF91BF91AF919F918F917F916F91E9
:1027F0005F914F913F912F910F900FBE0F901F90BF
:1028000018951F920F920FB60F9211242F933F939A
:102810004F935F936F937F938F939F93AF93BF93E8
:10282000CF93EF93FF93C091E900CF708091EC00BC
:102830001092E9008091F000877F8093F0007894F7
:102840000E943F151092E9008091F000886080930B
:10285000F000C093E900FF91EF91CF91BF91AF914C
:102860009F918F917F916F915F914F913F912F91A8
:102870000F900FBE0F901F901895CF92DF92EF929E
:10288000FF920F931F93CF93DF937C018B01EA019B
:102890000E948B12811131C0209731F0888199817B
:1028A000081B190BE80EF91EC12CD12C01151105BE
:1028B00019F18091E80085FD14C08091E8008E77C1
:1028C0008093E800209741F0888199818C0D9D1DAF
:1028D0009983888385E011C00E948B12882331F38D
:1028E0000CC0F70181917F018093F1000150110923
:1028F000FFEFCF1ADF0ADACF80E0DF91CF911F918F
:102900000F91FF90EF90DF90CF9008952091AF034B
:102910003091B0032617370748F06115710539F477
:102920002091E8002E772093E80001C0B901FC0156
:1029300020E061157105A9F18091A8038823E9F1D0
:102940008530E9F18091E80083FD35C08091E80091
:1029500082FF06C08091E80082FF26C080E00895D3
:102960008091E80080FFE5CF2091F3008091F20094
:1029700090E0922B6115710551F08830910538F483
:1029800021912093F100615071090196F3CF21E06C
:10299000089709F020E08091E8008E778093E800A6
:1029A000C8CF2111C9CFD6CF8091A803882329F0A1
:1029B000853081F604C081E0089582E0089583E0C7
:1029C00008952091AF033091B0032617370748F0E0
:1029D0006115710539F42091E8002E772093E80005
:1029E00001C0B901FC0120E061157105C1F18091C0
:1029F000A803882309F43FC0853009F43EC08091C4
:102A0000E80083FD36C08091E80082FF06C0809117
:102A1000E80082FF27C080E008958091E80080FFF1
:102A2000E3CF2091F3008091F20090E0922B6115AA
:102A3000710559F08830910540F424912093F100FC
:102A40003196615071090196F2CF21E0089709F0A3
:102A500020E08091E8008E778093E800C5CF2111B7
:102A6000C6CFD5CF8091A803882329F0853079F689
:102A700004C081E0089582E0089583E008950F93F3
:102A80001F93CF93DF93CDB7DEB7AA970FB6F89415
:102A9000DEBF0FBECDBFE9EAF3E08091F100819384
:102AA00023E0E13BF207C9F70E94C5108091E800DE
:102AB00083FF1DC12091A9033091AA03832F90E0C9
:102AC0008A30910508F013C1FC01EA5AFF4F0C94BB
:102AD000CB37203881F0223809F009C18091AD034D
:102AE0008F708093E9008091EB0085FB882780F947
:102AF0001092E90006C08091A5039091A603911160
:102B000082609091E800977F9093E8008093F100B5
:102B10001092F100C6C0822F8D7F09F0E8C02223F9
:102B200019F0223061F0E3C08091AB03813009F0ED
:102B3000DEC0333009F080E08093A60328C0809186
:102B4000AB03811124C02091AD032F7009F4CFC0D5
:102B50002093E9008091EB0080FF19C08091EB0089
:102B6000333011F4806211C080618093EB0081E00A
:102B700090E0022E01C0880F0A94EAF78093EA00E1
:102B80001092EA008091EB0088608093EB00109235
:102B9000E9008091E800877F87C02111A8C01091CB
:102BA000AB031F770FB7F8948091E800877F80937D
:102BB000E8000E946A128091E80080FFFCCF8091BB
:102BC000E3008078812B8093E30080688093E300AA
:102BD000112311F083E001C082E08093A8030FBFAE
:102BE00086C02058223008F082C08091AB039091BB
:102BF000AC038C3D23E0920779F583E08A838AE277
:102C000089834FB7F894DE01139620E03EE051E24D
:102C1000E32FF0E050935700E49120FF03C0E295CA
:102C2000EF703F5FEF708E2F90E0EA3010F0C796A4
:102C300001C0C0968D939D932F5F243149F74FBFFC
:102C40008091E800877F8093E8006AE270E0CE011F
:102C500001960E94861414C0AE014F5F5F4F6091D1
:102C6000AD030E94C611009709F441C02091E8000D
:102C7000277F2093E800BC0189819A810E94E1149A
:102C80008091E8008B778093E80031C0203879F597
:102C90008091E800877F8093E8008091A40380936F
:102CA000F1008091E8008E778093E8000E946A121C
:102CB0001EC021111CC09091AB039230C0F48091D2
:102CC000E800877F8093E8009093A4030E946A1233
:102CD0008091A403811104C08091E30087FF02C0AA
:102CE00084E001C081E08093A8030E94AC10809131
:102CF000E80083FF0AC08091EB0080628093EB00C4
:102D00008091E800877F8093E800AA960FB6F89438
:102D1000DEBF0FBECDBFDF91CF911F910F91089500
:102D200090939502809394020895809194029091DB
:102D300095020895E0919402F0919502309721F068
:102D40000190F081E02D099480E00895FF920F93A7
:102D50001F93CF93DF938C01E0919402F091950241
:102D6000309799F10280F381E02D099580919F03BE
:102D700082FF2BC080FF04C08EEE95E00E949D096B
:102D8000E80180E1F82E08EE15E080919F0380FFB6
:102D90000BC088811F928F931F930F930E94360A56
:102DA0000F900F900F900F90FA942196F110EDCFA5
:102DB00080919F0380FF09C086EE95E0DF91CF915F
:102DC0001F910F91FF900C949D09DF91CF911F915E
:102DD0000F91FF900895E0919402F0919502309741
:102DE00021F00480F581E02D09940895209192024C
:102DF000309193028217930771F09093930280931E
:102E00009202E0919402F0919502309721F00680B1
:102E1000F781E02D0994089520919002309191025C
:102E20008217930771F09093910280939002E09142
:102E30009402F0919502309721F00084F185E02D05
:102E4000099408950E941C250E94560A0E94862615
:102E50000E9484350E94FC330E945F310E94C83278
:102E60000C948E36CF93C82F80919F0382FF1EC093
:102E700080FF04C087E096E00E949D0980919F0337
:102E800080FF0CC01F92CF9322E036E03F932F9338
:102E90000E94360A0F900F900F900F9080919F0321
:102EA00080FF04C080E096E00E949D098C2FCF91A6
:102EB0000C944E344F925F926F927F929F92AF929A
:102EC000BF92CF92DF92EF92FF920F931F93CF9317
:102ED000DF93CDB7DEB72E970FB6F894DEBF0FBEE7
:102EE000CDBF0E94720A37E9A32E32E0B32E00E074
:102EF00010E0902E802F0E94F30AF501C190D1902E
:102F0000E190F1905F01C626D726E826F926C11484
:102F1000D104E104F104B1F40F5F1F4F0032110539
:102F200041F78FEF89838A831B820E942525816068
:102F3000782F9D838C8349815A816B818D810E947A
:102F40001D1D5EC020919F0321FF0AC06B877C87F7
:102F50008D879E870E94FE0A9E858D857C856B8568
:102F600020E030E0422F26013701022E04C0769483
:102F70006794579447940A94D2F740FE3AC02E8340
:102F80009F82C12CD12C7601C39404C0CC0CDD1CD3
:102F9000EE1CFF1C4A95D2F7DC01CB018C219D2150
:102FA000AE21BF2121E0892B8A2B8B2B09F420E055
:102FB00028870E9425258160782F9A8789874E81EE
:102FC0005F8168858A850E941D1DF801EE0FFF1F35
:102FD000EE0FFF1FE956FD4F80819181A281B381E1
:102FE0008C259D25AE25BF2580839183A283B38345
:102FF00007C02F5F3F4F2032310509F0B3CF8CCF90
:103000000E94FA29109196020E949A161817D9F078
:103010000E949A16809396022E960FB6F894DEBF01
:103020000FBECDBFDF91CF911F910F91FF90EF9019
:10303000DF90CF90BF90AF909F907F906F905F9008
:103040004F900C9432172E960FB6F894DEBF0FBE39
:10305000CDBFDF91CF911F910F91FF90EF90DF9047
:10306000CF90BF90AF909F907F906F905F904F9068
:103070000895CF93C82F882309F4C1C0823859F42A
:103080000E949A1681FDBBC089E30E9434220E94EF
:10309000DD2389E30CC0833879F40E949A1680FD01
:1030A000AEC083E50E9434220E94DD2383E50E94A6
:1030B0000523CF910C94DD23843859F40E949A168D
:1030C00082FD9DC087E40E9434220E94DD2387E4B4
:1030D000EECF8CEF8C0F813A48F48C2F0E94192D83
:1030E00081118DC08C2F0E943422E3CF80E28C0F9F
:1030F000883048F4C77081E001C0880FCA95EAF7AC
:103100000E94AF23D6CF8BE58C0F833078F4C53A7D
:1031100029F0C63A31F482E890E005C081E890E0F9
:1031200002C083E890E0CF910C94F61688E58C0FEE
:10313000833108F064C0C83A39F1C93A41F1CA3A5A
:1031400049F1CB3A51F1CC3A59F1CD3A61F1C03B5A
:1031500069F1CE3A71F1CF3A79F1C13B81F1C23BCD
:1031600089F1C33B91F1C43B99F1C53BA1F1C63B49
:10317000A9F1C73BB1F1C83BB9F1C93BC1F1CA3BA9
:10318000C9F58AE292E038C082EE90E035C089EE5F
:1031900090E032C08AEE90E02FC085EB90E02CC02A
:1031A00086EB90E029C087EB90E026C08CEC90E0A5
:1031B00023C08DEC90E020C083E891E01DC08AE838
:1031C00091E01AC082E991E017C084E991E014C04F
:1031D00081E292E011C083E292E00EC084E292E0CC
:1031E0000BC085E292E008C086E292E005C087E26B
:1031F00092E002C080E090E0CF910C940C17CF9148
:103200000895882309F44BC0823859F40E949A1615
:1032100081FF45C089E30E9434220E94DD2389E3B7
:103220000CC0833871F40E949A1680FF38C083E581
:103230000E9434220E94DD2383E50E9405230C9422
:10324000DD23843859F40E949A1682FF28C087E44F
:103250000E9434220E94DD2387E4EFCF9CEF980F79
:10326000913A58F390E2980F983050F4877091E0BB
:1032700001C0990F8A95EAF7892F0E94B523DFCF05
:103280009BE5980F933020F480E090E00C94F616C4
:10329000885A833120F480E090E00C940C17089554
:1032A000882321F00E94AF230C94DD230895882306
:1032B00021F00E94B5230C94DD230895CF92DF9274
:1032C000EF92FF920F931F93CF93DF93CDB7DEB7AB
:1032D00028970FB6F894DEBF0FBECDBF8C0185E0F6
:1032E000F801DE01119601900D928A95E1F7F8013F
:1032F00040813181F280258122952F7083819481D4
:10330000892B31F03F3F31F481E04F3F19F403C086
:1033100081E001C080E080FD2BC349833A8389812D
:103320009A812F830E94F2219E8388870E94F12137
:103330000E9419214E81E42FE295EF70F0E0E05AEF
:10334000FF4F2F8168850C94CB37842F807F142FFB
:103350001F70882311F01295107FFF2059F0112360
:1033600009F447C2812F68870E94BF230E94DD2392
:1033700068853FC2862F0E940119112309F4F8C203
:10338000812F0E94C52328960FB6F894DEBF0FBE8A
:10339000CDBFDF91CF911F910F91FF90EF90DF9004
:1033A000CF900C94DD23342F307F842F8F703032F8
:1033B00011F08295807F662319F0613009F12AC0EF
:1033C000FF20A1F0222381F1213071F528960FB65C
:1033D000F894DEBF0FBECDBFDF91CF911F910F914B
:1033E000FF90EF90DF90CF900C94CF23222319F021
:1033F000213009F4BDC28E830E94D2238E8126C063
:10340000FF2021F0263008F0B3C20EC0253008F0AE
:10341000AFC21CC0FF20C1F0222331F0F80195811A
:1034200090FFE7C19F70958328960FB6F894DEBF92
:103430000FBECDBFDF91CF911F910F91FF90EF9005
:10344000DF90CF900C9450192111E7C128960FB648
:10345000F894DEBF0FBECDBFDF91CF911F910F91CA
:10346000FF90EF90DF90CF900C945719242F269562
:103470002695237030E02115310521F021303105EA
:10348000C9F076C2FF2021F0862F942F937002C0DE
:1034900080E090E028960FB6F894DEBF0FBECDBF57
:1034A000DF91CF911F910F91FF90EF90DF90CF9020
:1034B0000C94F616FF2021F0862F942F937002C0F3
:1034C00080E090E028960FB6F894DEBF0FBECDBF27
:1034D000DF91CF911F910F91FF90EF90DF90CF90F0
:1034E0000C940C17862FFF2019F00E94802802C030
:1034F0000E94E82828960FB6F894DEBF0FBECDBF15
:10350000DF91CF911F910F91FF90EF90DF90CF90BF
:103510000C946D29842F837009F076C0F11028C2B5
:10352000262F229526952770220F220F862F8F7027
:10353000C82ED12CE12CF12C022E04C0CC0CDD1CA9
:10354000EE1CFF1C0A94D2F764FF10C06FE070E01D
:1035500080E090E004C0660F771F881F991F2A95AE
:10356000D2F7609570958095909503C060E070E00B
:10357000CB01242F269526952370422F50E0423010
:103580005105D1F04330510559F16C297D298E291F
:103590009F294130510541F128960FB6F894DEBFBE
:1035A0000FBECDBFDF91CF911F910F91FF90EF9094
:1035B000DF90CF900C942E216C297D298E299F2994
:1035C00028960FB6F894DEBF0FBECDBFDF91CF9126
:1035D0001F910F91FF90EF90DF90CF900C944021BE
:1035E0000E942E21C701B60128960FB6F894DEBFBF
:1035F0000FBECDBFDF91CF911F910F91FF90EF9044
:10360000DF90CF900C941C21FF2019F0842F817043
:1036100001C08695882309F4ABC1262F22952695F3
:103620002770220F220F862F8F70C82ED12CE12CED
:10363000F12C022E04C0CC0CDD1CEE1CFF1C0A94E5
:10364000D2F764FF10C06FE070E080E090E004C04B
:10365000660F771F881F991F2A95D2F7609570957E
:103660008095909503C060E070E0CB01242F2695F3
:1036700026952370422F50E042305105D1F043305F
:10368000510559F16C297D298E299F294130510519
:1036900041F128960FB6F894DEBF0FBECDBFDF9183
:1036A000CF911F910F91FF90EF90DF90CF900C94EE
:1036B000CD216C297D298E299F2928960FB6F89453
:1036C000DEBF0FBECDBFDF91CF911F910F91FF9055
:1036D000EF90DF90CF900C94DF210E94CD21C701A5
:1036E000B60128960FB6F894DEBF0FBECDBFDF91AE
:1036F000CF911F910F91FF90EF90DF90CF900C949E
:10370000BB21613F29F118F4603F39F06DC0623F81
:1037100099F1633F09F444C067C0FF20A9F0253048
:1037200008F026C1842F8F7128960FB6F894DEBF5B
:103730000FBECDBFDF91CF911F910F91FF90EF9002
:10374000DF90CF900C94A021263008F011C1EACF71
:10375000FF20A1F0842F8F7128960FB6F894DEBF5A
:103760000FBECDBFDF91CF911F910F91FF90EF90D2
:10377000DF90CF900C946621FF2061F3842F8F712E
:1037800028960FB6F894DEBF0FBECDBFDF91CF9164
:103790001F910F91FF90EF90DF90CF900C948121BB
:1037A000FF2091F0842F8F7128960FB6F894DEBF1A
:1037B0000FBECDBFDF91CF911F910F91FF90EF9082
:1037C000DF90CF900C94572128960FB6F894DEBF67
:1037D0000FBECDBFDF91CF911F910F91FF90EF9062
:1037E000DF90CF900C945221FF20A1F0222309F406
:1037F000B1CF862F28960FB6F894DEBF0FBECDBF8F
:10380000DF91CF911F910F91FF90EF90DF90CF90BC
:103810000C943918222309F4B1CF862F28960FB6BD
:10382000F894DEBF0FBECDBFDF91CF911F910F91F6
:10383000FF90EF90DF90CF900C9401194F70C8016A
:103840000E94182528960FB6F894DEBF0FBECDBF94
:10385000DF91CF911F910F91FF90EF90DF90CF906C
:103860000C948320F11084C0662341F0842F8F7064
:10387000843021F0407F862F8F70482B942F9F70CB
:10388000492F50E04230510509F440C0BCF44115C5
:10389000510561F14130510509F06AC028960FB613
:1038A000F894DEBF0FBECDBFDF91CF911F910F9176
:1038B000FF90EF90DF90CF900C940533433051058B
:1038C000A9F14430510509F053C0862F28960FB650
:1038D000F894DEBF0FBECDBFDF91CF911F910F9146
:1038E000FF90EF90DF90CF900C949B3328960FB60B
:1038F000F894DEBF0FBECDBFDF91CF911F910F9126
:10390000FF90EF90DF90CF900C94D93228960FB6AD
:10391000F894DEBF0FBECDBFDF91CF911F910F9105
:10392000FF90EF90DF90CF900C94313328960FB634
:10393000F894DEBF0FBECDBFDF91CF911F910F91E5
:10394000FF90EF90DF90CF900C9463334F70C801DD
:1039500028960FB6F894DEBF0FBECDBFDF91CF9192
:103960001F910F91FF90EF90DF90CF900C941B254B
:1039700028960FB6F894DEBF0FBECDBFDF91CF9172
:103980001F910F91FF90EF90DF90CF9008950E94CC
:10399000CC230E94A1230E94DD230E949B2A0E9427
:1039A0006D2980E090E00E94F61680E090E00C9493
:1039B0000C170E94BC230C94C71C0E94F221292FD3
:1039C00022952F7030E02C3031054CF42A3031052F
:1039D0006CF4225031092230310570F407C02C30CC
:1039E000310531F02F30310519F006C081E008951E
:1039F00093FB882780F9089580E00895CF93DF93A3
:103A000000D000D01F92CDB7DEB70F900F900F906F
:103A10000F900F90DF91CF910895CF93DF9300D057
:103A200000D000D0CDB7DEB726960FB6F894DEBF33
:103A30000FBECDBFDF91CF910895CF93DF93CDB768
:103A4000DEB72B970FB6F894DEBF0FBECDBF4F8306
:103A5000588769877A878B87DE01119686E0FD019A
:103A600011928A95E9F785E0FE01379601900D9253
:103A70008A95E1F74F81588569857A858B850E9403
:103A8000880B49815A816B817C818D819E810E9446
:103A9000D61F2B960FB6F894DEBF0FBECDBFDF91B9
:103AA000CF9108951F93CF93DF93C091170316E032
:103AB00080911803C81799F0D0E01C9FF0011D9F5A
:103AC000F00D1124E75EFC4F4081518162817381CA
:103AD000848195810E940D1D2196C770E9CFDF91E9
:103AE000CF911F9108954091490350914A036091ED
:103AF0004B0370914C0380914D0390914E030C94B5
:103B00000D1DCF9380914E0382958F7009F05FC099
:103B100080914B03882309F45AC020911703A09188
:103B200018036091490370914A0380914C0390916E
:103B30004D0331E06F3F09F030E0B32FC6E02A17A4
:103B400009F445C0009721F07F3F21F44B2F03C0BB
:103B500041E001C040E030E040FD35C0C29FF001CF
:103B6000C39FF00D1124E75EFC4F418174132BC0FD
:103B70004081641328C04281411125C04381548192
:103B80004817590710F441505109481B590B483C3C
:103B90005105C8F480914E038F70806180934E036D
:103BA00086E0829FF001839FF00D1124E25EFC4FBE
:103BB00080818F708061808389E493E00E945E1928
:103BC000CF910C94521D2F5F3F4F2770B8CFCF91EC
:103BD0000895CF92DF92EF92FF920F931F93CF93AE
:103BE000DF93CDB7DEB762970FB6F894DEBF0FBE96
:103BF000CDBF8C0185E0F801DE011D9601900D928C
:103C00008A95E1F7D8014C9111965C911197129623
:103C10006C9112971396ED90FC9014977091490354
:103C2000E0914A0320914C0330914D032115310559
:103C300031F0EF3F31F481E07F3F19F403C081E0C0
:103C400001C080E0B82FB170CB2E80FD6CC1D09048
:103C50004B03DD2009F4F5C0F0914E03E216F306A4
:103C600038F0C701821B930B883C910548F09BC03C
:103C7000209530952E0D3F1D283C310508F093C04E
:103C80008F2F807F09F052C0E51314C0741312C047
:103C9000D62E61110FC0FF70F061F0934E030E94A9
:103CA000731D89E493E00E945E1980914E03F80130
:103CB00085836CC1EF2831F05F3F31F481E04F3FE5
:103CC00019F403C081E001C080E080FD03C081E001
:103CD000862701C080E0F82FF170FF2E80FF1CC006
:103CE000809117032091180336E0821709F428C148
:103CF00090E0389FF001399FF00D1124E75EFC4FF2
:103D00007181571306C07081471303C07281671316
:103D100003C001968770E9CFD62E662309F436C119
:103D200080914E03816080934E0353C0E51308C019
:103D3000741306C0611104C0D8011596FC93AEC07F
:103D40004D875E878D859E856A8B0E94DD1C6A8902
:103D5000882329F1D62E662311F120914E03822F5C
:103D600082958F7090E002970CF460C080914903B7
:103D700090914A0398878F831986FB86EA862C8761
:103D8000CE01079651C0E51731F14D875E878D85CD
:103D90009E856A8B0E94DD1C6A8981112EC0C80134
:103DA0000E945E19A4C08F2F807F69F77E2DF98A4B
:103DB000E88A89890E94FE1C89E493E00E945E19CA
:103DC000E9E4F3E086E0DF011D928A95E9F70E94BD
:103DD000731DD12CDBC07413D8CF6111D6CFD8019D
:103DE0001596FC93C8010E945E19E9E4F3E086E0B1
:103DF000DF011D928A95E9F7C9C0D62E662379F2B4
:103E000020914E03822F82958F7090E0029774F07C
:103E10008091490390914A039A8389831B82FD8292
:103E2000EC822E83CE0101960E945E1986E0F80195
:103E3000A9E4B3E001900D928A95E1F70E94811DFB
:103E40006FC0E216F30628F0C701821B930B9C019A
:103E500004C0209530952E0D3F1D283C310508F0FB
:103E600052C0D62E662309F49ACFE5132CC07413E2
:103E70002AC080914E0380FD1DC0982F92959F709F
:103E8000C9F0D80115968C9315979F3039F09F5F34
:103E90009295907F8F70892B15968C93C8010E9404
:103EA0005E1986E0F801A9E4B3E001900D928A95CD
:103EB000E1F736C086E0F801A9E4B3E001900D9285
:103EC0008A95E1F763C04D875E878D859E850E9448
:103ED000DD1C882379F086E0F801A9E4B3E00190C5
:103EE0000D928A95E1F70E94811D0E94731DDD24C9
:103EF000D3944CC080914E03816080934E03C801DF
:103F00000E945E1943C07E2DF98AE88A89890E9441
:103F1000FE1CE9E4F3E086E0DF011D928A95E9F7F3
:103F20000E94731D33C0662309F439CF4D875E8725
:103F30008D859E850E94DD1C882309F430CFCBCF70
:103F40004D875E878D859E850E94F221292F2295BF
:103F50002F7030E0223031052CF49F7041F0811138
:103F600006C00CC0243031052CF49F7049F4805EEB
:103F7000883020F0C8010E945E19CF2CDC2C06C0CE
:103F8000D80115969C91907F91F7F8CF8D2D629670
:103F90000FB6F894DEBF0FBECDBFDF91CF911F915A
:103FA0000F91FF90EF90DF90CF9008951F93CF93E4
:103FB000DF93CDB7DEB72C970FB6F894DEBF0FBEF8
:103FC000CDBF4F83588769877A878B879C87CE01BF
:103FD00007960E94E91D8823C1F02F8138858A85C4
:103FE0009B85892B31F03F3F11F080E003C02F3FCC
:103FF000E1F781E0811147C04F81588569857A8555
:104000008B859C850E940D1D3EC086E0FE01379683
:10401000DE01119601900D928A95E1F7FF81E88506
:104020004A855B854115510531F0EF3F31F481E060
:10403000FF3F19F403C081E001C080E080FD23C090
:104040002091180330E0C90101968770992760918B
:10405000170370E086179707F1F1F983EA835D8310
:104060004C8396E0929FD001939FB00D1124A75EE0
:10407000BC4FFE01319601900D929A95E1F7809325
:1040800018030E94521D16E08091170390911803A7
:10409000891779F1189FC0011124875E9C4F0E94F7
:1040A000E91D882331F1E09117031E9FF0011124CF
:1040B000E75EFC4F408151816281738184819581EB
:1040C0000E940D1D8091170390E00196877099273B
:1040D00080931703D9CF0E94D91C10921803109215
:1040E0001703E9E4F3E086E0DF011D928A95E9F722
:1040F000CACF2C960FB6F894DEBF0FBECDBFDF91AE
:10410000CF911F910895EF92FF920F931F93CF933A
:10411000DF93FC01009709F46DC0F12CEE24E394C9
:10412000EF0121968491843740F4843008F053C025
:10413000813081F0823021F15DC0853709F445C0BE
:10414000B0F19CE7980F903708F054C08F770E9429
:10415000011943C08F010E5F1F4FFE01849190E251
:10416000980F983050F48770FE2D01C0FF0F8A958C
:10417000EAF78F2F0E94BF2315C00E94391812C082
:104180008F010E5F1F4FFE01849190E2980F9830CF
:1041900058F48770FE2D01C0FF0F8A95EAF78F2F24
:1041A0000E94C523E80119C00E940119FBCFCF016D
:1041B0000296FE01C491CC2361F0EFE9FFE0319754
:1041C000F1F700C00000C150F6CFCF010296FE010A
:1041D000F490EC0102C00E9439188F2D882341F021
:1041E000EFE9FFE03197F1F700C000008150F6CF12
:1041F000FE0196CFDF91CF911F910F91FF90EF902D
:1042000008956093530370935403809355039093E0
:1042100056030E94AE340C94C71C60934F037093F6
:10422000500380935103909352030E9405350C94E0
:10423000C71C08950C9401210F931F930091530301
:10424000109154032091550330915603602B712B2C
:10425000822B932B1F910F910C9401210F931F938D
:10426000009153031091540320915503309156034C
:1042700060237123822393231F910F910C940121BA
:104280000F931F93009153031091540320915503F2
:104290003091560360277127822793271F910F9132
:1042A0000C94012160E070E0CB010C940D2141E001
:1042B00050E060E070E004C0440F551F661F771F98
:1042C0008A95D2F7CB01BA010C940D2141E050E060
:1042D00060E070E004C0440F551F661F771F8A9589
:1042E000D2F780914F0390915003A0915103B09168
:1042F0005203482B592B6A2B7B2BCB01BA010C9410
:104300000D2141E050E060E070E004C0440F551F13
:10431000661F771F8A95D2F74095509560957095E6
:1043200080914F0390915003A0915103B09152039B
:10433000482359236A237B23CB01BA010C940D2116
:1043400041E050E060E070E004C0440F551F661F7C
:10435000771F8A95D2F780914F0390915003A091D7
:104360005103B0915203482759276A277B27CB0175
:10437000BA010C940D210F931F9300914F031091DC
:1043800050032091510330915203602B712B822BEB
:10439000932B1F910F910C940D210F931F9300915C
:1043A0004F03109150032091510330915203602329
:1043B0007123822393231F910F910C940D210F934E
:1043C0001F9300914F03109150032091510330919E
:1043D000520360277127822793271F910F910C9416
:1043E0000D210895CF92DF92EF92FF920F931F93CA
:1043F000CF93DF93EC01C0905303D0905403E0902F
:104400005503F090560380914F0390915003A09173
:104410005103B0915203C82AD92AEA2AFB2A0FE194
:1044200010E0B701A601002E04C076956795579558
:1044300047950A94D2F740FF07C0BE01802F0E9423
:10444000A5248130910539F40150110950F7BE01BE
:1044500080E00E94A524DF91CF911F910F91FF90E2
:10446000EF90DF90CF900895CF92DF92EF92FF927E
:104470000F931F93CF93DF93F82E80914E018823E3
:1044800049F18F2D8695869586958F3090F4E09131
:104490004F01F0915001E80FF11D8F2D877021E041
:1044A00030E001C0220F8A95EAF78181822B818357
:1044B000A3C080919F0380FF9FC01F92FF9288E35B
:1044C00096E09F938F930E94360A0F900F900F9063
:1044D0000F9092C0E0906A0340916803E0914F0111
:1044E000F0915001442309F472C0209169038E2D8C
:1044F0003FEF06E010E0A82FBB27A7FDB095EF0126
:10450000CA0FDB1F9A819F1509F476C03F3F19F44B
:10451000911101C0382FCD010196C6E0D0E0B8015D
:104520000E94B7378213E7CF2E1151C03F3F71F47D
:10453000822F992787FD90950196BE010E94B7377B
:1045400080936A0341504093680341C0832F9927A9
:1045500087FD90950196BE010E94B737EE24E39443
:10456000C6E0D0E0082F112707FD10956F01C00E9F
:10457000D11ED60112966C916623A1F0432F5527C8
:1045800047FD5095CF01840F951FDC0112966C9367
:10459000D60112961C92CA010196BE010E94B7373D
:1045A000382F01C0E394C8010196BE010E94B737BD
:1045B0008213D8CF822F992787FD90958E19910964
:1045C000069666E070E00E94B737809369032091F9
:1045D0006903332727FD3095E20FF31FF282C901EB
:1045E000019666E070E00E94B7378093690380917E
:1045F00068038F5F80936803DF91CF911F910F91C4
:10460000FF90EF90DF90CF900895DF92EF92FF92AE
:104610000F931F93CF93DF93482F80914E018823F0
:1046200051F1842F8695869586958F3098F4E09188
:104630004F01F0915001E80FF11D477021E030E08B
:10464000042E01C0220F0A94EAF7209581812823C5
:1046500021836FC080919F0380FF6BC01F924F9397
:104660008AE196E09F938F930E94360A0F900F90F5
:104670000F900F905EC0E0916A03D0906803DD2038
:1046800009F457C0C0914F01D091500100916903C6
:10469000112707FD109586E0E82EF12CF0E0DE01F1
:1046A000AE0FBF1F9D012E5F3F4F12968C9184135A
:1046B00036C0D9011C92DA94D0926803D11004C09C
:1046C00010926A031092690320916903822F99273F
:1046D00087FD9095059666E070E00E94B737E81771
:1046E000F90739F540916A03E6E0F0E0822F992757
:1046F00087FD90950596BF010E94B7379C010596EE
:10470000BF010E94B7378C0F9D1FDC0112968C9160
:10471000811102C02413EACF209369030AC0CF019C
:104720000196B7010E94B737E82F8017910709F06B
:10473000B5CFDF91CF911F910F91FF90EF90DF9058
:10474000089581E090E0E0914F01F0915001E80F71
:10475000F91F1082019680319105A9F70895909173
:104760006C03982B90936C030895809590916C0343
:10477000982390936C03089510926C030895909180
:104780006B03982B90936B030895809590916B0326
:10479000982390936B03089510926B030895809370
:1047A0005703089510925703089580914E01811187
:1047B00003C08091680308950895E0914F01F0913E
:1047C000500180916C038083E0914F01F091500182
:1047D000808190916B03892B80839091570399235B
:1047E00061F0E0914F01F09150018081892B80832D
:1047F0000E94D52381111092570380914F0190910F
:1048000050010C94A6168B3B60F4883A00F5853A6B
:10481000A8F4843088F4813009F055C081E090E03C
:104820000895803E08F44FC0883E30F0803F08F481
:104830004AC090E09065089590E00895853A09F4A3
:1048400045C0863A09F045C082E890E40895883A68
:1048500009F442C0893A09F442C08A3A09F442C0D4
:104860008B3A09F442C08C3A09F442C08D3A09F4FB
:1048700042C0803B09F442C08E3A09F442C08F3AEC
:1048800009F442C0813B09F442C0823B09F442C0B2
:10489000833B09F442C0843B09F442C0853B09F4E0
:1048A00042C0863B09F442C0873B09F442C0883BC2
:1048B00009F442C0893B09F442C08A3B09F042C076
:1048C0008AE296E4089580E090E0089581E890E41B
:1048D000089583E890E4089582EE94E4089589EEC3
:1048E00094E408958AEE94E4089585EB94E40895A1
:1048F00086EB94E4089587EB94E408958CEC94E4BB
:1049000008958DEC94E4089583E895E408958AE889
:1049100095E4089582E995E4089584E995E408957D
:1049200081E296E4089583E296E4089584E296E4B1
:10493000089585E296E4089586E296E4089587E274
:1049400096E4089580E094E408950E94450A803E2C
:10495000A8F4803C00F5813309F45CC038F4893256
:1049600009F452C08A3209F45BC05FC08933B1F0E8
:104970008238A1F0853309F441C057C0833E41F12C
:1049800028F4803E99F0823EB9F04FC0863E31F166
:10499000873E71F14AC00E94490A089590919E0392
:1049A00090FD02C091FF41C080EE3FC080919E0308
:1049B00080FFFACF89E339C080919E0382FF0CC04B
:1049C00080919E0384FF02C080E02FC083EE2DC043
:1049D00080919E0382FFF4CF82EE27C080919E03D8
:1049E00083FF0AC080919E0384FDEECF87EE1DC039
:1049F00080919E0383FFF6CF86EE17C080919E03C1
:104A000085FF06C089E211C080919E0385FFFACF21
:104A100085E30BC080919E0386FF06C08AE205C035
:104A200080919E0386FFFACF81E30E9403240895BC
:104A300080E090E00895089582E084BD93E095BD04
:104A40009AEF97BD80936E0008952FB7F8948091E8
:104A50006D0390916E03A0916F03B09170032FBF0F
:104A60000895CF92DF92EF92FF920F931F932FB78B
:104A7000F89440916D0350916E0360916F037091B3
:104A800070032FBF6A017B01EE24FF248C0120E01C
:104A900030E0C016D106E206F30610F44150510989
:104AA000481B590BCA011F910F91FF90EF90DF90A7
:104AB000CF9008951F920F920FB60F9211248F93EB
:104AC0009F93AF93BF9380916D0390916E03A091DC
:104AD0006F03B09170030196A11DB11D80936D030A
:104AE00090936E03A0936F03B0937003BF91AF9147
:104AF0009F918F910F900FBE0F901F9018959093DC
:104B000072038093710308950E94BB12F8942FEFF3
:104B100087EA91E6215080409040E1F700C0000014
:104B200087E090EBDC018093B2039093B303A093F2
:104B3000B403B093B5032CE088E190E00FB6F8948D
:104B4000A895809360000FBE20936000FFCF80E0A7
:104B50000C94450BCF930E94720AC0E08C2F0E94E8
:104B6000F30A672B682B692B29F4CF5FC032B1F7AA
:104B700080E001C081E0CF9108950E94D91C0C947F
:104B8000C832CF92DF92EF92FF920F931F936C0186
:104B9000EE24FF24C114D104E104F10421F46B01DB
:104BA0007C0180E001C080E133272F2D1E2D0D2DCB
:104BB000011511052105310519F0885F680179019A
:104BC00097018601A4E03695279517950795AA9534
:104BD000D1F7011511052105310519F08C5F680128
:104BE000790197018601F2E036952795179507958B
:104BF000FA95D1F7011511052105310519F08E5FE0
:104C000068017901B701A601769567955795479593
:104C1000452B462B472B09F08F5F1F910F91FF907B
:104C2000EF90DF90CF9008958295982F9C7C969579
:104C30009695837344E0849F90011124922B892FD1
:104C40008A7A86959575990F892B08951F93CF932E
:104C5000DF931F92CDB7DEB799830E941426182FD9
:104C60009981892F0E941426212F30E0322F22278C
:104C7000A901482BCA010F90DF91CF911F91089590
:104C8000CF92DF92EF92FF920F931F93CF93DF9318
:104C9000082F10E0812F0E94F30A6B017C01C0E015
:104CA000D0E0B701A6010C2E04C076956795579504
:104CB00047950A94D2F740FD05C02196C032D10530
:104CC00081F709C06C2F712F80E00E94450A0813FC
:104CD000F4CF81E004C01F5F1032E1F680E0DF9185
:104CE000CF911F910F91FF90EF90DF90CF9008959B
:104CF000CF93C82F8CE20E944026882321F08C2F6E
:104D0000CF910C94402680E0CF910895CF930E94DC
:104D1000D027811102C00E94AB278DE596E00E944A
:104D20009D09C5E6C15049F00E94720A8FE39CE9D3
:104D30000197F1F700C00000F5CF86E596E00E94EC
:104D40009D0989E20E947826811103C18AE20E94AE
:104D50007826882341F00E94CA270E94AB270E9430
:104D600026360E94B03585E00E94782681110E9487
:104D700084250E94DB2780939F0387E00E9478268A
:104D80008823D1F08BE10E947826811115C08EE036
:104D90000E947826811110C080E10E947826882325
:104DA00059F090919F0393FB882780F921E0822797
:104DB00080FB93F990939F0380919F0386608160AD
:104DC00080939F030E94DF270E94ED2780939E031C
:104DD00080EE0E947826882341F080919E03982FD0
:104DE000909590FB80F980939E0389E30E9478263A
:104DF000882359F090919E0391FB882780F921E048
:104E0000822780FB91F990939E0382EE0E94782680
:104E1000882359F090919E0392FB882780F921E026
:104E2000822780FB92F990939E0386EE0E9478265B
:104E3000882359F090919E0393FB882780F921E005
:104E4000822780FB93F990939E0383EE0E9478263D
:104E5000882359F090919E0394FB882780F921E0E4
:104E6000822780FB94F990939E0385E30E94782625
:104E7000882359F090919E0395FB882780F921E0C3
:104E8000822780FB95F990939E0381E30E94782608
:104E9000882359F090919E0396FB882780F921E0A2
:104EA000822780FB96F990939E0381E10E947826E9
:104EB000882359F090919E0397FB882780F921E081
:104EC000822780FB97F990939E0380919E030E9416
:104ED000F12780919E0387FB882780F980934E01FC
:104EE00087E20E947826C82F8EE10E9478268111E1
:104EF000C2608FE10E9478268111C46080E20E9426
:104F000078268111C86081E20E9478268111C061F3
:104F100082E20E9478268111C06283E20E94782694
:104F20008111C06484E20E947826882311F0C06851
:104F300002C0CC2329F08C2F0E94E8276C2F03C0DD
:104F40000E94E427682F70E080E090E0CF910C94FD
:104F50001A21CF9108956DEE7EEF80E090E00E94DF
:104F6000013860E082E090E00E94F33760E083E087
:104F700090E00E94F33760E084E090E00E94F33715
:104F800060E085E090E00E94F33760E086E090E02A
:104F90000C94F3376FEF7FEF80E090E00C940138D2
:104FA00080E090E00E94ED3721E08D3E9E4F09F0B9
:104FB00020E0822F089582E090E00C94E537682F7E
:104FC00082E090E00C94F33783E090E00C94E537B6
:104FD000682F83E090E00C94F33784E090E00C9429
:104FE000E537682F84E090E00C94F33786E090E09A
:104FF0000C94E537682F86E090E00C94F3378091AD
:10500000750380FF0BC06091540185E0689FB0017B
:10501000112475956795759567952AC081FF09C01C
:105020006091540185E0689FB001112475956795E2
:105030001FC082FF07C06091540185E0689FB001E6
:10504000112416C0409176034423C9F060915301A6
:10505000461788F72091540185E0289F900111247C
:10506000429FC001439F900D112470E00E94B7370A
:105070006038710540F46115710539F002C065E0D2
:1050800070E0862F08958FE7089581E0089580915C
:10509000750380FF08C06091520170E075956795B7
:1050A0007595679521C081FF06C06091520170E03F
:1050B0007595679519C082FF04C06091520170E038
:1050C00010C0809176038823C1F06091510186174A
:1050D000A0F790915201989FC001112470E00E94A6
:1050E000B7376038710528F46115710521F0862FF6
:1050F00008958FE7089581E0089561E070E0F4CFAE
:10510000803F21F40E94FF27819504C0813F29F44C
:105110000E94FF27809379030895823F21F40E9423
:10512000FF27819504C0833F29F40E94FF278093C5
:1051300078030895893F19F40E94472805C08A3FE3
:1051400031F40E944728819580937A0308958B3F1C
:1051500021F40E944728819504C08C3F29F40E94C5
:10516000472880937B030895843F21F4809177033F
:10517000816017C0853F21F480917703826011C060
:10518000863F21F48091770384600BC0873F21F430
:1051900080917703886005C0883F31F48091770360
:1051A00080618093770308958D3F21F4809175038A
:1051B00081600BC08E3F21F480917503826005C031
:1051C0008F3F29F48091750384608093750308955F
:1051D000803F39F48091790387FF6CC01092790386
:1051E00069C0813F29F4809179031816BCF362C02D
:1051F00090917803823F29F497FF5CC01092780366
:1052000059C0833F19F41916CCF354C0893F41F4B7
:1052100080917A0318160CF04DC010927A034AC0A0
:105220008A3F29F480917A0387FF44C0F6CF8B3FF1
:1052300039F480917B0387FF3DC010927B033AC015
:105240008C3F29F480917B031816BCF333C0843F54
:1052500021F4809177038E7F17C0853F21F48091E0
:1052600077038D7F11C0863F21F4809177038B7F78
:105270000BC0873F21F480917703877F05C0883F6B
:1052800031F4809177038F7E8093770313C08D3F35
:1052900021F4809175038E7F0BC08E3F21F48091A5
:1052A00075038D7F05C08F3F29F4809175038B7F37
:1052B000809375038091780381110EC080917903EA
:1052C00081110AC080917A03811106C080917B030D
:1052D000811102C010927603089580919F0383FF8D
:1052E0007EC089E996E00E949D09809177031F9214
:1052F0008F9384E996E09F938F930E94360A82E908
:1053000096E00E949D0920917803822F992787FDBE
:1053100090959F932F938FE896E09F938F930E9491
:10532000360A8DE896E00E949D0920917903822F2C
:10533000992787FD90959F932F938AE896E09F93F6
:105340008F930E94360A88E896E00E949D0920917A
:105350007A03822F992787FD90959F932F9385E855
:1053600096E09F938F930E94360A83E896E00E940E
:105370009D0920917B03822F992787FD90959F930C
:105380002F9380E896E09F938F930E94360A8DE7D3
:1053900096E00E949D09809176031F928F938AE781
:1053A00096E09F938F930E94360A88E796E00E94CA
:1053B0009D09809175031F928F9385E796E09F93D7
:1053C0008F930E94360A82E796E00E949D098DB76E
:1053D0009EB74C960FB6F8949EBF0FBE8DBF87E761
:1053E00093E00E94EB160E9425259093740380930E
:1053F000730308951F93CF93DF938091730390916C
:1054000074030E94312540917603442321F02091BA
:10541000550130E006C0209156015AE0259F9001C9
:1054200011248217930708F482C0809178031091A9
:105430007903D0917A03C0917B03811107C01111C8
:1054400005C0D11103C0CC2309F471C04F3F19F03E
:105450004F5F40937603181624F40E94FF27809331
:1054600078038091780387FF05C00E94FF2781950C
:1054700080937803111624F40E94FF278093790308
:105480008091790387FF05C00E94FF278195809353
:10549000790360917803662339F110917903112320
:1054A00019F1772767FD7095872F972F0E94C836CF
:1054B00023E333E343E35FE30E942C370E949536F6
:1054C00060937803612F772767FD7095872F972F5B
:1054D0000E94C83623E333E343E35FE30E942C37A3
:1054E0000E949536609379031D1624F40E94472884
:1054F00080937A0380917A0387FF05C00E94472832
:10550000819580937A031C1624F40E944728809387
:105510007B0380917B0387FF05C00E94472881950C
:1055200080937B03DF91CF911F910C946D29DF91C4
:10553000CF911F910895E7E7F3E085E0DF011D9229
:105540008A95E9F71092760310927503089583E621
:105550009BE00E949D0986E59BE00E949D0989E4ED
:105560009BE00C949D0986EC9AE00E949D0989EBD2
:105570009AE00E949D098EE99AE00E949D0983E8C5
:105580009AE00E949D098BE69AE00E949D0981E5C0
:105590009AE00E949D0983E39AE00E949D0983E1BD
:1055A0009AE00E949D098FEF99E00E949D0988EE84
:1055B00099E00E949D098CEC99E00E949D098EEA79
:1055C00099E00E949D098FE899E00E949D098EE66E
:1055D00099E00E949D0989E399E00E949D0984E277
:1055E00099E00E949D091F9285E08F9381E299E0E6
:1055F0009F938F930E94360A88E199E00E949D094B
:105600001F9281E08F9385E199E09F938F930E9491
:10561000360A83E199E00E949D098DB79EB70896EE
:105620000FB6F8949EBF0FBE8DBF86EE98E00C9427
:105630009D09833009F459C028F4813061F082302B
:1056400079F10895853009F49AC008F473C0863062
:1056500009F4BAC0089520915601862F90E0820F78
:10566000911D8F3F910520F4620F6093560103C096
:105670008FEF8093560182EC97E00E949D09809104
:1056800056011F928F938FEB97E09F938F930E9409
:10569000360A0F900F900F900F908DEB97E0B8C0E7
:1056A00020915501862F90E0820F911D8F3F91052B
:1056B00020F4620F6093550103C08FEF8093550172
:1056C0008EEA97E00E949D09809155011F928F9369
:1056D0008BEA97E09F938F930E94360A0F900F906A
:1056E0000F900F9089EA97E093C020915401862F84
:1056F00090E0820F911D8F3F910520F4620F60931F
:10570000540103C08FEF8093540189E997E00E9410
:105710009D09809154011F928F9386E997E09F9392
:105720008F930E94360A0F900F900F900F9084E98C
:1057300097E06EC020915301862F90E0820F911D5B
:105740008F3F910520F4620F6093530103C08FEFE8
:105750008093530182E897E00E949D098091530154
:105760001F928F938FE797E09F938F930E94360A43
:105770000F900F900F900F908DE797E049C0209108
:105780005201862F90E0820F911D8F3F910520F4EA
:10579000620F6093520103C08FEF8093520187E63E
:1057A00097E00E949D09809152011F928F9384E699
:1057B00097E09F938F930E94360A0F900F900F905F
:1057C0000F9082E697E024C020915101862F90E04F
:1057D000820F911D8F3F910520F4620F609351015C
:1057E00003C08FEF809351018AE497E00E949D09E6
:1057F000809151011F928F9387E497E09F938F933D
:105800000E94360A0F900F900F900F9085E497E05A
:105810000C949D09833009F44DC028F4813061F067
:10582000823049F10895853009F482C008F461C0DE
:10583000863009F49CC0089580915601681720F4C1
:10584000861B8093560102C01092560189E397E0AF
:105850000E949D09809156011F928F9386E397E0E5
:105860009F938F930E94360A0F900F900F900F9086
:1058700084E397E09AC080915501681720F4861B55
:105880008093550102C01092550185E297E00E9475
:105890009D09809155011F928F9382E297E09F931B
:1058A0008F930E94360A0F900F900F900F9080E216
:1058B00097E07BC080915401681720F4861B809389
:1058C000540102C01092540180E197E00E949D09AA
:1058D000809154011F928F938DE097E09F938F9357
:1058E0000E94360A0F900F900F900F908BE097E078
:1058F0005CC080915301681720F4861B809353018C
:1059000002C01092530189EF96E00E949D09809198
:1059100053011F928F9386EF96E09F938F930E947F
:10592000360A0F900F900F900F9084EF96E03DC0D5
:1059300080915201681720F4861B8093520102C0A7
:10594000109252018EED96E00E949D0980915201C5
:105950001F928F938BED96E09F938F930E94360A50
:105960000F900F900F900F9089ED96E01EC08091E0
:105970005101681720F4861B8093510102C01092D8
:10598000510181EC96E00E949D09809151011F9286
:105990008F938EEB96E09F938F930E94360A0F9021
:1059A0000F900F900F908CEB96E00C949D09CF9385
:1059B000C82F82E39BE00E949D0960915303709180
:1059C000540380915503909156030E94C1251F9264
:1059D0008F932FE23BE03F932F930E94360A8AE297
:1059E0009BE00E949D091F92CF9327E23BE03F93EB
:1059F0002F930E94360A85E29BE00E949D0961E098
:105A000070E080E090E004C0660F771F881F991F48
:105A1000CA95D2F70E941A218DB79EB708960FB685
:105A2000F8949EBF0FBE8DBFCF910C94D91C80E01F
:105A30000895CF93C82F80917F03813009F402C36A
:105A400020F0823009F426C335C4A0914F01B091F3
:105A500050018C91823209F02FC48C2F0E94172D97
:105A60008111EDC24C2F50E0FA013697E334F10575
:105A700008F0DFC2E059FF4F0C94CB3782EA91E186
:105A80000E949D098BEC9EE00E949D090E94E427E4
:105A90001F928F9388EC9EE09F938F930E94360A0B
:105AA00086EC9EE00E949D090E94DB27C82F83EBB5
:105AB0009EE00E949D091F92CF932EEA3EE03F9305
:105AC0002F930E94360A8CEA9EE00E949D0982EA8A
:105AD0009EE00E949D098C2F81701F928F932FE969
