:100000000C94AF090C94F3090C94F3090C94F309C4
:100010000C94F3090C94F3090C94F3090C94F30970
:100020000C94F3090C94F3090C9474130C94441479
:100030000C94370F0C94F3090C94F3090C94F30906
:100040000C94F3090C94F3090C94F3090C94F30940
:100050000C94F3090C94F0240C94F3090C94F30918
:100060000C94F3090C94F3090C94F3090C94F30920
:100070000C94F3090C94F3090C94F3090C94F30910
:100080000C9431310C94F3090C94F3090C94F3099A
:100090000C94F3090C94F3090C94F3090C94F309F0
:1000A0000C94F3090C94F3090C94F309AC15CE15D8
:1000B000BA16CE15BA1610163416BA1689169C162C
:1000C000121A121A401A401AA31ADF1A1B1D1B1DFE
:1000D000F71A1B1DEE1BEE1B8B1C9F1C1B1D091D05
:1000E0008B2EB32ED02C942F942F402E942F942F00
:1000F000D62E942FE92E5E2F942F942F942F942F89
:10010000332F1A2F942F032F942FC32E942F942F15
:100110008D2F8D2F8D2F8D2F8D2F8D2F8D2F8D2FFF
:100120008D2F8B2F942F8B2F942F942F942F942FD0
:10013000942F942F942F942F942F942F942F8B2FB0
:10014000942F942F402E262E8F2F8F2F8F2F8F2F6F
:100150008F2F8F2F8F2F8F2F8F2F8F2F8F2F8F2FAF
:10016000702F942F9F2EF1A100D200D100D000005B
:10017000000029003A3B3C3D0000000000005354C1
:100180005556351E1F2021220000000000005F6030
:1001900061572B141A0815170000000000005C5D61
:1001A0005E0039041607090A000000000000595AD1
:1001B0005B58E11D1B0619050000000000006200ED
:1001C0006300E0E3E2002C000000000000000000FB
:1001D000000000000000000000000000000000001F
:1001E00000000000000000000000000000003E3F92
:1001F0004041424344454647480000000000232454
:100200002526272D2E2A494A4B00000000001C18E5
:100210000C12132F30314C4D4E00000000000B0D1E
:100220000E0F333400280000000000000000111001
:100230003637380000E50052000000000000002CB6
:1002400000E6E7C0E40050514F000000000000004D
:10025000000000000000000000000000000000009E
:10026000000000000000000000000000000000008E
:10027000000000000000000000000000000000007E
:10028000000000000000000000000000000000006E
:10029000000000000000000000000000000000005E
:1002A000000000000000000000000000000000004E
:1002B000000000000000000000000000000000003E
:1002C000000000000000000000000000000000002E
:1002D000000000000000000000000000000000001E
:1002E000000000000000000000000000000000000E
:1002F000000000000000C2C1C300000000000000B8
:1003000000000000000000000000000000000000ED
:1003100000000000000000000000000000000000DD
:1003200000000000000000000000000000000000CD
:1003300000000000000000000000000000000000BD
:1003400000000000000000000000000000000000AD
:10035000000000000000000000000000000000009D
:1003600000000000000000000000000000000A0083
:100370002530313662003A200025303258000A72AA
:100380002F632030313233343536373839414243E8
:100390004445460A000A002530325800626F756EE7
:1003A0006365213A2000001080FF69326320746980
:1003B0006D656F75740A00666F756E643A2025640A
:1003C0000A006C6F73743A2025640A004B657962E9
:1003D0006F6172642073746172742E0A0055534207
:1003E00020636F6E666967757265642E0A000E037E
:1003F0004B0069006D00650072006100000024037D
:100400006B006100690031003100300033004000B2
:1004100067006D00610069006C002E0063006F00D2
:100420006D0000000403090409028D00050100A00D
:10043000320904000001030101000921110100013A
:10044000223F000705810308000A09040100010397
:10045000010200092111010001224D00070582035C
:1004600008000A090402000103000000092111012B
:1004700000012236000705830308000A090403006F
:1004800002030000000921110100012220000705DC
:10049000840320000107050403200001090404006F
:1004A00001030000000921110100012239000705A4
:1004B00085031000011201100100000008C016DBC6
:1004C0002705000102000105010906A10105071920
:1004D000E029E71500250195087501810205081935
:1004E0000129059505750191029501750391010595
:1004F000071900297715002501957875018102C03B
:100500000631FF0974A1010975150025FF952075B5
:100510000881020976150025FF952075089102C013
:1005200005010980A101850216010026B7001A0104
:10053000002AB700751095018100C0050C0901A1C2
:10054000018503160100269C021A01002A9C0275EF
:100550001095018100C005010902A1010901A10056
:100560000509190129051500250195057501810267
:100570009501750381010501093009311581257F38
:1005800095027508810609381581257F9501750842
:100590008106050C0A38021581257F9501750881B1
:1005A00006C0C005010906A101050719E029E715E4
:1005B00000250195087501810295017508810105E5
:1005C0000819012905950575019102950175039199
:1005D000010507190029FF150025FF9506750881FB
:1005E00000C00A002530325820006B6579626F61C7
:1005F00072645F7265706F72743A20000A00253071
:100600003258006B6579626F6172645F7365745F05
:100610006C65643A200064656C5F6B65795F626944
:10062000743A2063616E27742064656C3A2025302B
:1006300032580A006164645F6B65795F6269743A7D
:100640002063616E2774206164643A20253032583B
:100650000A00646F6E652E0A00626F6F676D6167D6
:100660006963207363616E3A202E2E2E2000290AC2
:10067000002575002F002575005D280025640020E9
:1006800000256400200025640020002564007C0013
:1006900025303258006D6F7573656B6579205B622C
:1006A000746E7C782079207620685D287265702FC2
:1006B00061636C293A205B000A002575006D6B5F51
:1006C000776865656C5F74696D655F746F5F6D6198
:1006D00078203D20000A002575006D6B5F77686506
:1006E000656C5F6D61785F7370656564203D2000A7
:1006F0000A002575006D6B5F74696D655F746F5FCF
:100700006D6178203D20000A002575006D6B5F6DDE
:1007100061785F7370656564203D20000A0025756F
:10072000006D6B5F696E74657276616C203D2000B0
:100730000A002575006D6B5F64656C6179203D2052
:10074000000A002575006D6B5F776865656C5F74E6
:10075000696D655F746F5F6D6178203D20000A00F0
:100760002575006D6B5F776865656C5F6D61785F9F
:100770007370656564203D20000A002575006D6B6F
:100780005F74696D655F746F5F6D6178203D2000F7
:100790000A002575006D6B5F6D61785F737065652C
:1007A00064203D20000A002575006D6B5F696E7442
:1007B000657276616C203D20000A002575006D6B26
:1007C0005F64656C6179203D20000A002575003664
:1007D0003A206D6B5F776865656C5F74696D655F06
:1007E000746F5F6D61783A20000A00257500353A14
:1007F000206D6B5F776865656C5F6D61785F7370A6
:100800006565643A20000A00257500343A206D6B56
:100810005F74696D655F746F5F6D61783A20000A7F
:1008200000257500333A206D6B5F6D61785F7370E2
:100830006565643A20000A00257500323A206D6B28
:100840005F696E74657276616C286D73293A200059
:100850000A00257500313A206D6B5F64656C617923
:10086000282A31306D73293A20000A0A2D2D2D2DAA
:100870002D204D6F7573656B657920506172616DC8
:100880006574657273202D2D2D2D2D0A003E2000DC
:100890002575004D003F00736574206465666175C1
:1008A0006C742076616C7565732E0A000A002575DC
:1008B0000073656C656374656420706172616D6559
:1008C0007465723A2000433E20000A517569742015
:1008D0004D6F7573656B657920436F6E736F6C65D3
:1008E0000A0053656520687474703A2F2F656E2E68
:1008F00077696B6970656469612E6F72672F7769BC
:100900006B692F4D6F7573655F6B6579730A000AAC
:10091000002575002C20776865656C3D0025750005
:1009200077686572652064656C74613A20637572DE
:10093000736F723D000A7370656564203D206465C5
:100940006C7461202A206D61785F73706565642026
:100950002A2028726570656174202F2074696D6586
:100960005F746F5F6D6178290A007067646F776EDE
:100970003A096465637265617365207072616D65C3
:1009800074657273282D3130290A00706775703ACA
:1009900009696E637265617365207072616D65745B
:1009A000657273282B3130290A00646F776E3A091B
:1009B0006465637265617365207072616D657465ED
:1009C0007273282D31290A0075703A09696E6372B5
:1009D00065617365207072616D6574657273282B33
:1009E00031290A00643A097365742064656661758B
:1009F0006C742076616C7565730A00703A097072C8
:100A0000696E74207072616D65746572730A003668
:100A10003A0973656C656374206D6B5F7768656513
:100A20006C5F74696D655F746F5F6D61780A003526
:100A30003A0973656C656374206D6B5F77686565F3
:100A40006C5F6D61785F73706565640A00343A09A4
:100A500073656C656374206D6B5F74696D655F743D
:100A60006F5F6D61780A00333A0973656C65637472
:100A7000206D6B5F6D61785F73706565640A00322D
:100A80003A0973656C656374206D6B5F696E74659C
:100A90007276616C286D73290A00313A0973656CAE
:100AA000656374206D6B5F64656C6179282A3130F1
:100AB0006D73290A004553432F713A0971756974A2
:100AC0000A000A0A2D2D2D2D2D204D6F7573656B93
:100AD000657920506172616D657465727320486537
:100AE0006C70202D2D2D2D2D0A003F004D303E0025
:100AF0000A456E746572204D6F7573656B6579205C
:100B0000436F6E736F6C650A000A517569742043F8
:100B10006F6E736F6C65204D6F64650A00433E20F5
:100B2000000A0025750020746F200025750073777A
:100B3000697463685F64656661756C745F6C617924
:100B400065723A20006D3A096D6F7573656B657952
:100B50000A004553432F713A09717569740A000AF6
:100B60000A2D2D2D2D2D20436F6E736F6C6520483F
:100B7000656C70202D2D2D2D2D0A00506175733A56
:100B8000096A756D7020746F20626F6F746C6F618D
:100B90006465720A00436170733A094C6F636B209D
:100BA0004B6579626F617264284368696C64205098
:100BB000726F6F66290A00505363723A09706F773B
:100BC000657220646F776E2F72656D6F7465207724
:100BD000616B652D75700A00342F46343A097377BE
:100BE0006974636820746F204C6179657234200ADF
:100BF00000332F46333A0973776974636820746F42
:100C0000204C6179657233200A00322F46323A094E
:100C100073776974636820746F204C6179657232F0
:100C2000200A00312F46313A0973776974636820CE
:100C3000746F204C6179657231200A00302F463183
:100C4000303A0973776974636820746F204C617956
:100C5000657230200A006E3A09746F67676C652010
:100C60004E4B524F0A00653A097072696E742065E6
:100C70006570726F6D20636F6E6669670A00733A04
:100C8000097072696E74207374617475730A0074EC
:100C90003A097072696E742074696D657220636FB1
:100CA000756E740A00763A097072696E7420646514
:100CB000766963652076657273696F6E2026206998
:100CC0006E666F0A006D3A09746F67676C65206D18
:100CD0006F7573652064656275670A006B3A097405
:100CE0006F67676C65206B6579626F617264206401
:100CF000656275670A00783A09746F67676C6520EA
:100D00006D61747269782064656275670A00643A7F
:100D100009746F67676C6520646562756720656E2E
:100D200061626C650A00633A09656E7465722063DE
:100D30006F6E736F6C65206D6F64650A000A0A2D13
:100D40002D2D2D2D20436F6D6D616E642048656CD7
:100D500070202D2D2D2D2D0A000A002575002E6CDA
:100D60006576656C3A20000A002575002E656E6177
:100D7000626C653A20000A002530325800626163D7
:100D80006B6C696768745F636F6E6669672E72610A
:100D9000773A20000A002575002E737761705F6234
:100DA00061636B736C6173685F6261636B737061C5
:100DB00063653A20000A002575002E737761705F25
:100DC00067726176655F6573633A20000A00257576
:100DD000002E6E6F5F6775693A20000A0025750066
:100DE0002E737761705F72616C745F726775693AB8
:100DF00020000A002575002E737761705F6C616CAE
:100E0000745F6C6775693A20000A002575002E63CF
:100E10006170736C6F636B5F746F5F636F6E74721E
:100E20006F6C3A20000A002575002E737761705FA1
:100E3000636F6E74726F6C5F636170736C6F636B02
:100E40003A20000A0025303258006B65796D6170D8
:100E50005F636F6E6669672E7261773A20000A00E1
:100E60002575002E6D6F7573653A20000A00257593
:100E7000002E6B6579626F6172643A20000A00256A
:100E800075002E6D61747269783A20000A0025752C
:100E9000002E656E61626C653A20000A00253032D2
:100EA000580064656275675F636F6E6669672E726E
:100EB00061773A20000A0025750064656661756CEB
:100EC000745F6C617965723A20003F004E4B524F5F
:100ED0003A2064697361626C65640A004E4B524F3C
:100EE0003A20656E61626C65640A006B6579626FB9
:100EF0006172645F69646C653A2025580A006B650D
:100F000079626F6172645F70726F746F636F6C3A55
:100F10002025580A00686F73745F6B6579626F6192
:100F200072645F6C65647328293A2025580A000AA8
:100F30000A2D2D2D2D2D20537461747573202D2DA8
:100F40002D2D2D0A0074696D65725F636F756E7467
:100F50003A202530346C580A004743433A20342E57
:100F6000382E31204156522D4C4942433A20312EE1
:100F7000382E3073766E204156525F415243483AC4
:100F800020617672350A004F5054494F4E533A2033
:100F90004C55464120424F4F544D41474943204D07
:100FA0004F5553454B45592045585452414B45598F
:100FB00020434F4E534F4C4520434F4D4D414E44DF
:100FC000204E4B524F20343039360A004255494C9E
:100FD000443A20623265363132612D646972747927
:100FE000202830363A35373A3436204E6F76202076
:100FF000342032303134290A005649443A203078BE
:1010000031366330286B61693131303340676D614F
:10101000696C2E636F6D29205049443A2030783234
:10102000376462284B696D65726129205645523AD2
:10103000203078303030350A00444553433A20742C
:101040002E6D2E6B2E206B6579626F617264206647
:1010500069726D7761726520666F72204B696D658C
:1010600072610A000A0A2D2D2D2D2D2056657273EE
:10107000696F6E202D2D2D2D2D0A000A44454255F5
:10108000473A206D6F7573652064697361626C65A2
:10109000642E0A000A44454255473A206D6F757325
:1010A0006520656E61626C65642E0A000A444542E3
:1010B00055473A206B6579626F6172642064697389
:1010C00061626C65642E0A000A44454255473A2025
:1010D0006B6579626F61726420656E61626C6564D4
:1010E0002E0A000A44454255473A206D61747269E0
:1010F000782064697361626C65642E0A000A444555
:101100004255473A206D617472697820656E61625C
:101110006C65642E0A000A44454255473A20656EC4
:1011200061626C65642E0A000A44454255473A20C4
:1011300064697361626C65642E0A006E6F7420735B
:101140007570706F727465642E0A000A0A4A756DB4
:101150007020746F20626F6F746C6F616465722EA3
:101160002E2E2000433E20000A456E7465722043F7
:101170006F6E736F6C65204D6F64650A00556E6C01
:101180006F636B65642E0A004C6F636B65642E0A97
:10119000006565636F6E6669673A0A006272656131
:1011A0007468696E67206C6564207365742064756B
:1011B000726174696F6E3A2025750A00627265610A
:1011C0007468696E67206C656420746F67676C650E
:1011D0003A2025750A00627265617468696E67203D
:1011E0006C6564206F66663A2025750A0062726538
:1011F000617468696E67206C6564206F6E3A2025A3
:10120000750A00000000000000000000000101015C
:101210000202020303040405050606070808090A7A
:101220000B0B0C0D0E0F10111213151617191A1B9C
:101230001D1E2022232527292B2D2F313335383A07
:101240003D3F4244474A4D505356595C5F62666980
:101250006C7074777B7E82868A8E9195999DA1A50C
:10126000A9ADB0B4B8BCC0C3C7CBCED2D5D8DBDF34
:10127000E2E4E7EAECEFF1F3F5F7F8FAFBFCFDFE48
:10128000FFFFFFFFFFFFFFFEFDFCFBFAF8F7F5F3A2
:10129000F1EFECEAE7E4E2DFDBD8D5D2CECBC7C38F
:1012A000C0BCB8B4B0ADA9A5A19D9995918E8A8610
:1012B000827E7B7774706C6966625F5C59565350AE
:1012C0004D4A4744423F3D3A383533312F2D2B2983
:1012D00027252322201E1D1B1A191716151312115C
:1012E000100F0E0D0C0B0B0A090808070606050562
:1012F00004040303020202010101000000000000D7
:101300000000006261636B6C6967687420737465C8
:10131000703A2025750A006261636B6C69676874B6
:1013200020746F67676C653A2025750A00626163F7
:101330006B6C696768742064656372656173653A94
:101340002025750A006261636B6C696768742069A7
:101350006E6372656173653A2025750A0000112479
:101360001FBECFEFDAE0DEBFCDBF04B603FE24C060
:101370008091D7039091D803A091D903B091DA035B
:101380008730904BA740B04BB9F41092D70310921E
:10139000D8031092D9031092DA0314BE84B7877F62
:1013A00084BF88E10FB6F8948093600010926000CB
:1013B0000FBEE0E0F8E3099511E0A0E0B1E0E4E55C
:1013C000F9E602C005900D92AA3BB107D9F723E0D8
:1013D000AAEBB1E001C01D92A73DB207E1F70E9460
:1013E000C1110C94A8340C940000FF93EF93E0918A
:1013F000AD03F091AE03309709F00995EF91FF919D
:101400000895FC018591803011F0EFDFFBCF089546
:10141000FF27E0E230E247FF0CC0419597FF09C08B
:10142000EDE26095709580959095611D711D811D0F
:10143000911D27FF02C0219530E350E2AA27660FD5
:10144000771F881F991FAA1FA41710F0A41B63956C
:101450005A95A9F7AA3008F0A95FA05DAF93F3955C
:10146000611571058105910541F7ED3211F4EF9396
:10147000F395F21718F43F93F395FBCF8F91B5DFF7
:10148000FA95E1F70895E991F9918591803021F07D
:10149000853219F0AADFF9CF089520E0E89455913C
:1014A0005532C1F3503311F4689455915A3348F4CE
:1014B000505390F3220F022E220F220F200D250FE2
:1014C000F4CF0EF4219589919991533619F353373E
:1014D00029F1533559F1BC0188279927E8945C36E6
:1014E00021F48991999168945591543639F446EFD5
:1014F0007EF077FF0DC08FEF9FEF0AC055374AE0AF
:1015000039F0583540E121F0523642E009F00895B3
:10151000FF93EF937DDFEF91FF91B7CFFF93EF93B1
:10152000FC0181918030B9F360DFFBCFFF93EF9333
:1015300068DFF1CFDF93CF93CDB7DEB72596A3DF7A
:10154000CF91DF91089580E092E0089584E090E0EB
:101550000895462F672F0C949332805C0E94873247
:1015600008958EE691E0089586E691E008958091D1
:1015700001018695089580E885BF85BF0E942A0FE6
:101580000E944D0E90910201EAE3F2E0AAEBB1E075
:1015900080E0891751F011921192119211921D92CF
:1015A0001D921D921D928F5FF4CF5C980895EF926B
:1015B000FF920F931F93CF93DF930E94B00EF12CF5
:1015C00035E0E32EC7E9D3E030910201F31608F0CD
:1015D0004FC08F2D0E94620E20EA2A95F1F70E94DB
:1015E000C50D27E02F1528F0DC01CB01AA27BB276A
:1015F00002C0AA27BB2724E0F29EF0011124E65482
:10160000FE4F0081118122813381081719072A07B3
:101610003B0751F180839183A283B38380910001C2
:10162000882301F18091C00380FF04C08CE993E01E
:101630000E94010A8091C00380FF0CC080910001CC
:101640001F928F93DF93CF930E949A0A0F900F906F
:101650000F900F908091C00380FF04C085E993E054
:101660000E94010AE09200010E944D0EF394ACCF5B
:10167000809100018823F1F0815080930001811155
:1016800006C0CAEBD1E0EAE3F2E020E007C08FE950
:101690009FE00197F1F700C000000CC0231751F044
:1016A00089919991A991B99181939193A193B193C2
:1016B0002F5FF4CF81E0DF91CF911F910F91FF90C9
:1016C000EF90089594E0899FF0011124E65CFD4FAE
:1016D00060817181828193810895DF92EF92FF9200
:1016E0000F931F93CF93DF938EE793E00E94010A3D
:1016F000D12C09E713E0C0E7D3E080910201D816AE
:1017000058F5ED2CF12C1F92DF921F930F930E943E
:101710009A0A86E793E00E94010AF701EE0FFF1F85
:10172000EE0FFF1FE65CFD4F808191810E94BC257A
:101730009F938F93DF93CF930E949A0A8EE693E054
:101740000E94010AD3948DB79EB708960FB6F894FD
:101750009EBF0FBE8DBFD1CFDF91CF911F910F9153
:10176000FF90EF90DF90089581FF02C0249A01C09E
:1017700024982C9882FF02C06E9A01C06E987698C9
:1017800080FF02C0259A01C025982D980895269AB9
:10179000F894E0E8F0E0808181628083E1E8F0E0A5
:1017A000808183608083789408952698F894E0E897
:1017B000F0E080818E7D8083E1E8F0E080818C7FA5
:1017C0008083789410928B0010928A000895CF93B2
:1017D000C82F8130E8F0843058F08730C8F40E9478
:1017E000C70B0E94EC3086E08C1BCF910C941E310D
:1017F0000E94C70B0E940531EC2FF0E0EA55FC4F28
:10180000E491F0E0F0938B00E0938A00CF9108958B
:101810000E940531CF910C94D50B90E090938B00F2
:1018200080938A0008951092B9008CE08093B800EC
:10183000089594EA9093BC009091BC0097FD06C077
:101840009091BA029923C1F31092BA029091B90013
:10185000987F983021F0903111F081E008958093C5
:10186000BB0084E88093BC008091BC0087FD06C06B
:101870008091BA028823C1F31092BA028091B90014
:10188000887F883111F0803441F780E0089584E941
:101890008093BC008091BC0084FF07C08091BA0295
:1018A0008823C1F31092BA02089508958093BB0073
:1018B00084E88093BC008091BC0087FD06C08091C5
:1018C000BA028823C1F31092BA029091B900987FAE
:1018D00081E0983209F480E0089584EC8093BC00A4
:1018E0008091BC0087FD06C08091BA028823C1F3B5
:1018F0001092BA028091BB00089584E88093BC00E6
:101900008091BC0087FD06C08091BA028823C1F394
:101910001092BA028091BB000895F894A89526E42D
:1019200088E190E00FB6F894A895809360000FBE10
:101930002093600078940895AF92BF92CF92DF9287
:10194000EF92FF920F931F93CF93DF9387E090E086
:101950000E947734F82E8093020188E090E00E9484
:101960007734C82E809301018FEF8F0DDD24D3943F
:101970008E3F08F4D12CCC2019F08FEFC81201C093
:10198000D3942C2D30E02F0D311D213431050CF076
:10199000D39403E411E0E12C89E090E0BB24BA94F5
:1019A000EF1450F4EC0121960E947734F801808303
:1019B000803428F0D39403C0F801B082EC01E394A2
:1019C0000F5F1F4FF0E4EF1611F0CE01E9CF03E0F7
:1019D00011E0B12CAA24AA94BC1468F47E018FEF04
:1019E000E81AF80ACE010E947734F8018083803427
:1019F00028F0D39403C0F801A0827E01B3940F5F56
:101A00001F4FF0E4BF1611F0E701E6CF8D2DDF91F7
:101A1000CF911F910F91FF90EF90DF90CF90BF90EB
:101A2000AF9008951F93CF93DF936091020187E0F9
:101A300090E00E9485346091010188E090E00E946E
:101A4000853489E090E0E7EFE80F20910201E2178A
:101A500050F4EC012196F0E0ED5BFE4F60810E94B6
:101A60008534CE01F0CF182FE82FE11B2091010122
:101A7000E21750F4EC012196F0E0ED5FFE4F60813B
:101A80000E948534CE01F0CFDF91CF911F91089550
:101A90000F931F93CF93DF931F92CDB7DEB78A01C9
:101AA000A895805E880F69830E94190C6981811155
:101AB0000FC0862F0E94560C81110AC0F801808148
:101AC0000E94560C811104C0F80181810E94560CBD
:101AD00089830E94470C89810F90DF91CF911F91DC
:101AE0000F910895EF92FF920F931F93CF93DF937F
:101AF0001F92CDB7DEB7182F7A01A895105E110F8F
:101B0000812F69830E94190C082F6981811115C0EA
:101B1000862F0E94560C082F81110FC0812F8160E3
:101B20000E94190C082F811108C00E946D0CF7014A
:101B300080830E947D0CF70181830E94470C802FD7
:101B40000F90DF91CF911F910F91FF90EF9008952B
:101B5000AB0162E00C94480DAB0166E00C94480DBB
:101B6000AB0160E00C94720D8093C1038093C203BB
:101B70008093C3038093C4038093C5038093C603FB
:101B80008093C7038093C80308954F925F926F922A
:101B90007F928F929F92AF92BF92CF92DF92EF92FD
:101BA000FF920F931F93CF93DF938FEF0E94B40D9B
:101BB00001EC13E0F12CB8018F2D0E94B00DF394CD
:101BC0000E5F1F4F74E0672EF610F5CFB090010145
:101BD00063E0462E61E0562EF20160E070E0CB013A
:101BE00001E010E020E030E0AE2FA419AB1508F0C2
:101BF00043C0AF01435051406A01F1905FEFF516C9
:101C000099F3BF2DB295BF70AB2FA170CA2F612C75
:101C1000D62DEF2CE294E69447E0E422AF2DA69572
:101C2000A695A695AB27A0FBAA24A0F8AA2DB0E004
:101C3000AE0DB11DAE0DB11DAA0FBB1FAC0FBD1F68
:101C4000AF53BC4FAC91B0E04F2D4770042E02C093
:101C5000B595A7950A94E2F7A0FDC6CF38014901D2
:101C600004C0660C771C881C991CCA94D2F766299C
:101C7000772988299929B8CFDF91CF911F910F91AA
:101C8000FF90EF90DF90CF90BF90AF909F908F909C
:101C90007F906F905F904F9008951F93CF93DF9345
:101CA0008FEF0E94B40DC1ECD3E010E0BE01812F94
:101CB0000E94AC0D1F5F22961430C1F7DF91CF91C7
:101CC0001F9108951F93CF93DF93182F8FEF0E94DA
:101CD000B40DE12FF0E0ED5BFE4F90819F3F69F185
:101CE000392F32953F70892F869586958695832763
:101CF0008170292F229526952770220F820F682F39
:101D000070E03170C32F20E0D22F660F771FC60F0F
:101D1000D71FCF53DC4F977021E030E001C0220F76
:101D20009A95EAF720959881292328836F537C4F51
:101D3000DF91CF911F910C94AC0DDF91CF911F914A
:101D40000895CF93C82F80E00E94B40D6C2F70E0EF
:101D5000660F771F6F537C4F8C2FCF910C94A80D7B
:101D6000AF92BF92CF92DF92EF92FF920F931F93A9
:101D7000CF93DF93A895C0E0D0E001E010E0B7EB8F
:101D8000EB2EB3E0FB2E82ECC82E83E0D82EAC2ED7
:101D9000BC2ECE018096880F991F81600E94190C7D
:101DA0002091BB0230E00C2E02C0359527950A9495
:101DB000E2F720FF1DC08823E9F18091C00380FF76
:101DC0000AC0DF93CF93DF92CF920E949A0A0F90BE
:101DD0000F900F900F9098010B2C01C0220F0A94C6
:101DE000EAF720958091BB0282238093BB0220C03A
:101DF000811120C08091C00380FF0AC0DF93CF9380
:101E0000FF92EF920E949A0A0F900F900F900F90FE
:101E100098010B2C01C0220F0A94EAF79091BB02A3
:101E2000922B9093BB020E94470C8A2D0E94A10E18
:101E30000E943C1D2196C430D10509F0A8CFDF9146
:101E4000CF911F910F91FF90EF90DF90CF90BF90B7
:101E5000AF9008950E94120D0E949C0C81110E9467
:101E6000120D0E94130C0E94B00E0C948D0C1F9248
:101E70000F920FB60F9211242F933F934F935F93BE
:101E80006F937F938F939F93AF93BF93EF93FF9342
:101E90008091C00380FF08C08AEA93E09F938F93EC
:101EA0000E949A0A0F900F901092BC00509A51987D
:101EB000499B17C084E98093BC0081E08093BA02FB
:101EC000FF91EF91BF91AF919F918F917F916F9112
:101ED0005F914F913F912F910F900FBE0F901F90E8
:101EE000189589E0589895E09A95F1F70000589A6E
:101EF00095E09A95F1F700008150A1F7DBCF809132
:101F0000CE0208959091CD03943009F05AC090917B
:101F1000E9009F702091EC0020FF02C020E801C082
:101F200020E0922B24E02093E9002091EB0020FF99
:101F300029C02091EE0027FF25C02091BD02222359
:101F400021F02091E80025FF1DC01092BD022091D4
:101F5000E4003091E50066E007C04091E400509154
:101F6000E5002417350791F44091E80045FD19C0BC
:101F70004091CD03442329F1453019F14091EB0004
:101F800045FFEBCF9F709093E9001BC0615021F497
:101F900081E08093BD02F6CF2091E4003091E5000E
:101FA000E3CF8093F1008091E80085FD05C080912A
:101FB000E8008E778093E8009F709093E90080E0BE
:101FC00008958FEF0895CF93DF9300D01F92CDB780
:101FD000DEB72091CD03243019F523E029839B83BC
:101FE0008A832093E9008FEF9091E800815095FD5E
:101FF00006C095ED9A95F1F700008111F5CF80911B
:10200000E80085FF0DC040E050E063E070E0CE01E5
:1020100001960E9480148091E8008E778093E800FA
:102020000F900F900F90DF91CF910895CF93DF9392
:1020300000D01F92CDB7DEB72091CD03243021F51B
:1020400022E029839B838A8383E08093E9008FEFDA
:102050009091E800815095FD06C095ED9A95F1F7B5
:1020600000008111F5CF8091E80085FF0DC040E0B0
:1020700050E063E070E0CE0101960E9480148091F0
:10208000E8008E778093E8000F900F900F90DF911B
:10209000CF9108952091CD032430F1F422E02093D4
:1020A000E9002FEF3091E800215035FD06C035EDF5
:1020B0003A95F1F700002111F5CF2091E80025FFB6
:1020C0000BC040E050E065E070E00E948014809119
:1020D000E8008E778093E8000895CF93DF93EC01BA
:1020E0008091CD03843009F043C080918E01882314
:1020F000C1F085E08093E9008FEF9091E800815076
:1021000095FD06C095E19A95F1F700008111F5CF94
:102110008091E80085FF2CC040E050E060E170E075
:1021200017C081E08093E9008FEF9091E800815023
:1021300095FD06C095ED9A95F1F700008111F5CF58
:102140008091E80085FF14C040E050E068E070E056
:10215000CE010E9480148091E8008E778093E80081
:1021600080E1FE01AEEBB2E001900D928A95E1F7BD
:10217000DF91CF91089508950895089508950C94DE
:1021800053258091CD03843049F58091E9008F700B
:102190009091EC0090FF02C090E801C090E0982B75
:1021A00084E08093E9008091EB0080FF14C080916F
:1021B000EE0087FF10C08091E80085FF03C01092F9
:1021C000F100F9CF8091E80080FF05C08091E80020
:1021D0008E778093E8009F709093E900089542E025
:1021E00061EC81E00E94781242E061EC82E00E94A2
:1021F000781242E061EC83E00E94781246E261ECE2
:1022000084E00E94781242E161EC85E00C9478123F
:102210008091CF03833009F455C030F4813071F0E0
:10222000823009F495C008958A3009F481C08B305A
:1022300009F460C0893009F0A3C020C08091CE03AA
:10224000813A09F09DC08091E800877F8093E80083
:102250008091D2039091D303892B21F060E080E03C
:1022600090E003C060E18EEB92E070E00E94C91440
:102270008091E8008B778093E80008958091CE03E9
:10228000813209F07DC08091D2039091D3030097F1
:1022900019F0049709F074C08091E800877F80935B
:1022A000E8008091E80082FD05C08091CD03811196
:1022B000F8CF66C08091F1008093CE028091E80053
:1022C0008B775AC08091CE03813A09F059C0809132
:1022D000D2039091D303892B09F052C08091E8007A
:1022E000877F8093E8008091E80080FFFCCF809199
:1022F0008D013DC08091CE03813209F041C08091B3
:10230000D2039091D303892BD9F58091E800877F80
:102310008093E8000E94AD129091D00381E091116A
:1023200001C080E080938D0180938E010C943C1D50
:102330008091CE03813221F58091E800877F8093E0
:10234000E8000E94AD128091D1038093BC020895F1
:102350008091CE03813AA1F48091E800877F809339
:10236000E8008091E80080FFFCCF8091BC02809360
:10237000F1008091E8008E778093E8000C94AD1214
:10238000089584B7877F84BF88E10FB6F89480935F
:102390006000109260000FBE90E080E80FB6F894E5
:1023A00080936100909361000FBE0E94FE120E9414
:1023B0005B138091E20084608093E20082E89FE0FA
:1023C0000E94152578948091CD038430E1F78DED3E
:1023D00093E00E94010A0E94651783E891E00E9441
:1023E000D3168CEC93E00E94010A8091CD038530D6
:1023F00069F40E943D258091CB038823B1F30E94AC
:102400004025882391F30E946212EFCF0E94991712
:10241000ECCF292F332723303105A9F06CF421307C
:10242000310509F442C02230310509F043C08DE87E
:1024300090E028E234E042C021323105C9F0223276
:10244000310519F137C099278130910541F082306B
:10245000910541F0892B71F5E4E2F4E005C0EEEF5F
:10246000F3E002C0EEEEF3E0849190E09F0126C01D
:10247000653000F5E62FF0E0EE0FFF1FEA55FE4F46
:102480002081318189E090E019C0653098F4E62F11
:10249000F0E0DF01AA0FBB1FA456BE4F2D913C9167
:1024A000E956FE4F808190E009C082E190E025EB83
:1024B00034E004C080E090E020E030E0FA013183B5
:1024C0002083089580E189BD82E189BD09B400FEC1
:1024D000FDCF8091D8008F7D8093D8008091E0005F
:1024E00082608093E0008091E00081FDFCCF089540
:1024F000982F973058F59093E900981739F070911C
:10250000EC002091ED005091F00003C0242F762FB5
:1025100050E021FF19C03091EB003E7F3093EB007B
:102520003091ED003D7F3093ED003091EB00316054
:102530003093EB007093EC002093ED005093F0008B
:102540002091EE0027FF07C09F5FD3CF8F7080934D
:10255000E90081E0089580E008958091CE0387FD31
:1025600005C08091E80080FF0EC012C08091E80095
:1025700082FD05C08091CD038111F8CF089580912F
:10258000E8008B7708C08091CD038111EACF0895D0
:102590008091E8008E778093E80008958091E400B0
:1025A0009091E50045E62091EC0020FF21C02091AC
:1025B000E80020FD21C02091CD03222389F02530A1
:1025C00089F02091EB0025FD0FC02091E4003091AF
:1025D000E5002817390739F3415041F0C901E3CF2D
:1025E00082E0089583E0089581E0089584E00895ED
:1025F0002091E80022FFDFCF80E008950E9467135A
:102600000E946F13E0EEF0E0808181608083E8ED4E
:10261000F0E080818F77808319BCA7EDB0E08C91CA
:102620008E7F8C9380818F7E80831092CC0308955F
:102630000F931F93CF93DF930E9467130E946F1332
:10264000C8EDD0E088818F7788838881806888830F
:1026500088818F7D888319BC1092CD031092C903A5
:102660001092CB031092CA0300EE10E0F8018081B3
:102670008B7F808388818160888342E060E080E096
:102680000E947812E1EEF0E080818E7F8083E2EE9E
:10269000F0E0808181608083808188608083F801A0
:1026A00080818E7F8083888180618883DF91CF9154
:1026B0001F910F910895E7EDF0E0808181608083A4
:1026C00084E082BF81E08093CC030C941813E8ED82
:1026D000F0E080818E7F80831092E2000895109256
:1026E000DA001092E10008951F920F920FB60F9238
:1026F00011242F933F934F935F936F937F938F9307
:102700009F93AF93BF93EF93FF938091E10082FF7C
:102710000BC08091E20082FF07C08091E1008B7FB7
:102720008093E1000E94C1108091DA0080FF1FC0F9
:102730008091D80080FF1BC08091DA008E7F80934B
:10274000DA008091D90080FF0DC080E189BD82E16F
:1027500089BD09B400FEFDCF81E08093CD030E94C6
:10276000BB1005C019BC1092CD030E94BC10809113
:10277000E10080FF19C08091E20080FF15C08091C8
:10278000E2008E7F8093E2008091E200806180937E
:10279000E2008091D80080628093D80019BC85E067
:1027A0008093CD030E94BE108091E10084FF2EC073
:1027B0008091E20084FF2AC080E189BD82E189BD69
:1027C00009B400FEFDCF8091D8008F7D8093D800A2
:1027D0008091E1008F7E8093E1008091E2008F7E06
:1027E0008093E2008091E20081608093E20080911A
:1027F000C903811104C08091E30087FF02C084E017
:1028000001C081E08093CD030E94BF108091E10060
:1028100083FF29C08091E20083FF25C08091E10001
:10282000877F8093E10082E08093CD031092C903FB
:102830008091E1008E7F8093E1008091E2008E7FA5
:102840008093E2008091E20080618093E20042E0A8
:1028500060E080E00E9478128091F00088608093B0
:10286000F0000E94BD10FF91EF91BF91AF919F9139
:102870008F917F916F915F914F913F912F910F9029
:102880000FBE0F901F9018951F920F920FB60F92C8
:1028900011242F933F934F935F936F937F938F9365
:1028A0009F93AF93BF93CF93EF93FF93C091E900B2
:1028B000CF708091EC001092E9008091F000877F4A
:1028C0008093F00078940E9482151092E900809124
:1028D000F00088608093F000C093E900FF91EF91D1
:1028E000CF91BF91AF919F918F917F916F915F91A8
:1028F0004F913F912F910F900FBE0F901F90189501
:10290000CF92DF92EF92FF920F931F93CF93DF93BB
:102910007C018B01EA010E94CE12811131C0209707
:1029200031F088819981081B190BE80EF91EC12C22
:10293000D12C0115110519F18091E80085FD14C015
:102940008091E8008E778093E800209741F088819D
:1029500099818C0D9D1D9983888385E011C00E940B
:10296000CE12882331F30CC0F70181917F0180934F
:10297000F10001501109FFEFCF1ADF0ADACF80E032
:10298000DF91CF911F910F91FF90EF90DF90CF904B
:1029900008952091D4033091D5032617370748F0C6
:1029A0006115710539F42091E8002E772093E80035
:1029B00001C0B901FC0120E061157105A9F1809108
:1029C000CD038823E9F18530E9F18091E80083FDAA
:1029D00035C08091E80082FF06C08091E80082FF48
:1029E00026C080E008958091E80080FFE5CF209127
:1029F000F3008091F20090E0922B6115710551F087
:102A00008830910538F421912093F10061507109CB
:102A10000196F3CF21E0089709F020E08091E800CB
:102A20008E778093E800C8CF2111C9CFD6CF80918F
:102A3000CD03882329F0853081F604C081E0089514
:102A400082E0089583E008952091D4033091D50366
:102A50002617370748F06115710539F42091E80011
:102A60002E772093E80001C0B901FC0120E0611538
:102A70007105C1F18091CD03882309F43FC08530F1
:102A800009F43EC08091E80083FD36C08091E800E3
:102A900082FF06C08091E80082FF27C080E0089591
:102AA0008091E80080FFE3CF2091F3008091F20055
:102AB00090E0922B6115710559F08830910540F432
:102AC00024912093F1003196615071090196F2CF63
:102AD00021E0089709F020E08091E8008E7780934C
:102AE000E800C5CF2111C6CFD5CF8091CD03882373
:102AF00029F0853079F604C081E0089582E00895D8
:102B000083E008950F931F93CF93DF93CDB7DEB784
:102B1000AA970FB6F894DEBF0FBECDBFEEECF3E080
:102B20008091F100819323E0E63DF207C9F70E940E
:102B300008118091E80083FF1DC12091CE033091E0
:102B4000CF03832F90E08A30910508F013C1FC0178
:102B5000EA5AFF4F0C945D34203881F0223809F096
:102B600009C18091D2038F708093E9008091EB00BE
:102B700085FB882780F91092E90006C08091CA037E
:102B80009091CB03911182609091E800977F909390
:102B9000E8008093F1001092F100C6C0822F8D7F73
:102BA00009F0E8C0222319F0223061F0E3C08091DF
:102BB000D003813009F0DEC0333009F080E080932B
:102BC000CB0328C08091D003811124C02091D2036F
:102BD0002F7009F4CFC02093E9008091EB0080FFB3
:102BE00019C08091EB00333011F4806211C0806114
:102BF0008093EB0081E090E0022E01C0880F0A94E0
:102C0000EAF78093EA001092EA008091EB00886076
:102C10008093EB001092E9008091E800877F87C0E5
:102C20002111A8C01091D0031F770FB7F89480919D
:102C3000E800877F8093E8000E94AD128091E80051
:102C400080FFFCCF8091E3008078812B8093E300AC
:102C500080688093E300112311F083E001C082E0DB
:102C60008093CD030FBF86C02058223008F082C069
:102C70008091D0039091D1038C3D23E0920779F5A8
:102C800083E08A838AE289834FB7F894DE01139642
:102C900020E03EE051E2E32FF0E050935700E49152
:102CA00020FF03C0E295EF703F5FEF708E2F90E042
:102CB000EA3010F0C79601C0C0968D939D932F5FA8
:102CC000243149F74FBF8091E800877F8093E80067
:102CD0006AE270E0CE0101960E94C91414C0AE01F0
:102CE0004F5F5F4F6091D2030E940912009709F471
:102CF00041C02091E800277F2093E800BC01898132
:102D00009A810E9424158091E8008B778093E800D7
:102D100031C0203879F58091E800877F8093E80002
:102D20008091C9038093F1008091E8008E778093B1
:102D3000E8000E94AD121EC021111CC09091D0036A
:102D40009230C0F48091E800877F8093E8009093F0
:102D5000C9030E94AD128091C903811104C0809102
:102D6000E30087FF02C084E001C081E08093CD03CF
:102D70000E94EF108091E80083FF0AC08091EB0071
:102D800080628093EB008091E800877F8093E80069
:102D9000AA960FB6F894DEBF0FBECDBFDF91CF91DC
:102DA0001F910F9108959093D4028093D3020895B8
:102DB0008091D3029091D4020895E091D302F091D2
:102DC000D402309721F00190F081E02D099480E049
:102DD0000895FF920F931F93CF93DF938C01E0919F
:102DE000D302F091D402309799F10280F381E02D63
:102DF00009958091C00382FF2BC080FF04C08AEE3A
:102E000095E00E94010AE80180E1F82E04EE15E049
:102E10008091C00380FF0BC088811F928F931F9306
:102E20000F930E949A0A0F900F900F900F90FA94B0
:102E30002196F110EDCF8091C00380FF09C082EE92
:102E400095E0DF91CF911F910F91FF900C94010AB3
:102E5000DF91CF911F910F91FF900895E091D302E0
:102E6000F091D402309721F00480F581E02D09948F
:102E700008952091D1023091D2028217930771F008
:102E80009093D2028093D102E091D302F091D402C8
:102E9000309721F00680F781E02D09940895209164
:102EA000CF023091D0028217930771F09093D00235
:102EB0008093CF02E091D302F091D402309721F0B9
:102EC0000084F185E02D099408950E94B2240E94A7
:102ED000BB0A0E941C260E946B310E94DA300C94BF
:102EE0002033CF93C82F8091C00382FF1EC080FF84
:102EF00004C083E096E00E94010A8091C00380FF35
:102F00000CC01F92CF932EEF35E03F932F930E947A
:102F10009A0A0F900F900F900F908091C00380FF3E
:102F200004C08CEF95E00E94010A8C2FCF910C9485
:102F3000B40B4F925F926F927F929F92AF92BF922B
:102F4000CF92DF92EF92FF920F931F93CF93DF9375
:102F5000CDB7DEB72E970FB6F894DEBF0FBECDBF4C
:102F60000E94D70A36EDA32E32E0B32E00E010E027
:102F7000902E802F0E94620BF501C190D190E190BC
:102F8000F1905F01C626D726E826F926C114D104A0
:102F9000E104F104B1F40F5F1F4F0032110541F756
:102FA0008FEF89838A831B820E94BB248160782FE4
:102FB0009D838C8349815A816B818D810E94781811
:102FC0005EC02091C00321FF0AC06B877C878D877C
:102FD0009E870E946D0B9E858D857C856B8520E08C
:102FE00030E0422F26013701022E04C07694679408
:102FF000579447940A94D2F740FE3AC02E839F829A
:10300000C12CD12C7601C39404C0CC0CDD1CEE1C69
:10301000FF1C4A95D2F7DC01CB018C219D21AE210A
:10302000BF2121E0892B8A2B8B2B09F420E02887F4
:103030000E94BB248160782F9A8789874E815F81A7
:1030400068858A850E947818F801EE0FFF1FEE0F41
:10305000FF1FEA52FD4F80819181A281B3818C25AF
:103060009D25AE25BF2580839183A283B38307C0AE
:103070002F5F3F4F2032310509F0B3CF8CCF0E9434
:103080008C291091D5020E94DD161817D9F00E94E4
:10309000DD168093D5022E960FB6F894DEBF0FBED4
:1030A000CDBFDF91CF911F910F91FF90EF90DF90F7
:1030B000CF90BF90AF909F907F906F905F904F9018
:1030C0000C9471172E960FB6F894DEBF0FBECDBFCD
:1030D000DF91CF911F910F91FF90EF90DF90CF90F4
:1030E000BF90AF909F907F906F905F904F900895AA
:1030F000CF93DF93CDB7DEB72B970FB6F894DEBF33
:103100000FBECDBF4F83588769877A878B87DE01D3
:10311000119686E0FD0111928A95E9F785E0FE019E
:10312000379601900D928A95E1F749815A816B811A
:103130007C818D819E810E9404202B960FB6F8948D
:10314000DEBF0FBECDBFDF91CF910895CF93C82FC3
:10315000882309F4C1C0823859F40E94DD1681FD2C
:10316000BBC089E30E949F220E94732389E30CC0A5
:10317000833879F40E94DD1680FDAEC083E50E949D
:103180009F220E94732383E50E94EC22CF910C942E
:103190007323843859F40E94DD1682FD9DC087E4B4
:1031A0000E949F220E94732387E4EECF8CEF8C0F46
:1031B000813A48F48C2F0E94AB2C81118DC08C2F4A
:1031C0000E949F22E3CF80E28C0F883048F4C770C2
:1031D00081E001C0880FCA95EAF70E943A23D6CF52
:1031E0008BE58C0F833078F4C53A29F0C63A31F478
:1031F00082E890E005C081E890E002C083E890E0BA
:10320000CF910C94391788E58C0F833108F064C096
:10321000C83A39F1C93A41F1CA3A49F1CB3A51F1C8
:10322000CC3A59F1CD3A61F1C03B69F1CE3A71F136
:10323000CF3A79F1C13B81F1C23B89F1C33B91F1B6
:10324000C43B99F1C53BA1F1C63BA9F1C73BB1F124
:10325000C83BB9F1C93BC1F1CA3BC9F58AE292E06A
:1032600038C082EE90E035C089EE90E032C08AEE40
:1032700090E02FC085EB90E02CC086EB90E029C059
:1032800087EB90E026C08CEC90E023C08DEC90E0C2
:1032900020C083E891E01DC08AE891E01AC082E96D
:1032A00091E017C084E991E014C081E292E011C07E
:1032B00083E292E00EC084E292E00BC085E292E0ED
:1032C00008C086E292E005C087E292E002C080E09A
:1032D00090E0CF910C944F17CF910895882309F473
:1032E0004BC0823859F40E94DD1681FF45C089E346
:1032F0000E949F220E94732389E30CC0833871F4DB
:103300000E94DD1680FF38C083E50E949F220E9444
:10331000732383E50E94EC220C947323843859F4C0
:103320000E94DD1682FF28C087E40E949F220E942F
:10333000732387E4EFCF9CEF980F913A58F390E214
:10334000980F983050F4877091E001C0990F8A95DA
:10335000EAF7892F0E944023DFCF9BE5980F933037
:1033600020F480E090E00C943917885A833120F4DF
:1033700080E090E00C944F170895882321F00E947C
:103380003A230C9473230895882321F00E9440234C
:103390000C9473230895CF92DF92EF92FF920F93D4
:1033A0001F93CF93DF93CDB7DEB728970FB6F8946E
:1033B000DEBF0FBECDBF8C0185E0F801DE011196A6
:1033C00001900D928A95E1F7F80140813181F280F8
:1033D000258122952F7083819481892B31F03F3F85
:1033E00031F481E04F3F19F403C081E001C080E077
:1033F00080FD21C349833A8389819A812F830E946A
:103400005D229E8388870E945C220E942F214E812C
:10341000E42FE295EF70F0E0E05AFF4F2F816885CE
:103420000C945D34842F807F142F1F70882311F03B
:103430001295107FFF2059F0112309F447C2812F04
:1034400068870E944A230E94732368853FC2862FA3
:103450000E946E19112309F4EEC2812F0E9450239D
:1034600028960FB6F894DEBF0FBECDBFDF91CF9187
:103470001F910F91FF90EF90DF90CF900C947323EA
:10348000342F307F842F8F70303211F08295807FFF
:10349000662319F0613009F12AC0FF20A1F0222330
:1034A00081F1213071F528960FB6F894DEBF0FBE7A
:1034B000CDBFDF91CF911F910F91FF90EF90DF90E3
:1034C000CF900C945A23222319F0213009F4B3C26F
:1034D0008E830E945D238E8126C0FF2021F026303E
:1034E00008F0A9C20EC0253008F0A5C21CC0FF20FC
:1034F000C1F0222331F0F801958190FFE7C19F7060
:10350000958328960FB6F894DEBF0FBECDBFDF912E
:10351000CF911F910F91FF90EF90DF90CF900C947F
:10352000BD192111E7C128960FB6F894DEBF0FBE72
:10353000CDBFDF91CF911F910F91FF90EF90DF9062
:10354000CF900C94C419242F26952695237030E033
:103550002115310521F021303105C9F06CC2FF2061
:1035600021F0862F942F937002C080E090E028967F
:103570000FB6F894DEBF0FBECDBFDF91CF911F9184
:103580000F91FF90EF90DF90CF900C943917FF20B0
:1035900021F0862F942F937002C080E090E028964F
:1035A0000FB6F894DEBF0FBECDBFDF91CF911F9154
:1035B0000F91FF90EF90DF90CF900C944F17862FD4
:1035C000FF2019F00E94122802C00E947A28289633
:1035D0000FB6F894DEBF0FBECDBFDF91CF911F9124
:1035E0000F91FF90EF90DF90CF900C94FF28842FE5
:1035F000837009F076C0F1101EC2262F2295269501
:103600002770220F220F862F8F70C82ED12CE12C0D
:10361000F12C022E04C0CC0CDD1CEE1CFF1C0A9405
:10362000D2F764FF10C06FE070E080E090E004C06B
:10363000660F771F881F991F2A95D2F7609570959E
:103640008095909503C060E070E0CB01242F269513
:1036500026952370422F50E042305105D1F043307F
:10366000510559F16C297D298E299F294130510539
:1036700041F128960FB6F894DEBF0FBECDBFDF91A3
:10368000CF911F910F91FF90EF90DF90CF900C940E
:1036900054216C297D298E299F2928960FB6F894EC
:1036A000DEBF0FBECDBFDF91CF911F910F91FF9075
:1036B000EF90DF90CF900C946E210E945421C701AF
:1036C000B60128960FB6F894DEBF0FBECDBFDF91CE
:1036D000CF911F910F91FF90EF90DF90CF900C94BE
:1036E0003A21FF2019F0842F817001C0869588232C
:1036F00009F4A1C1262F229526952770220F220FAB
:10370000862F8F70C82ED12CE12CF12C022E04C0F4
:10371000CC0CDD1CEE1CFF1C0A94D2F764FF10C019
:103720006FE070E080E090E004C0660F771F881FB4
:10373000991F2A95D2F7609570958095909503C052
:1037400060E070E0CB01242F269526952370422F50
:1037500050E042305105D1F04330510559F16C2908
:103760007D298E299F294130510541F128960FB6B8
:10377000F894DEBF0FBECDBFDF91CF911F910F91A7
:10378000FF90EF90DF90CF900C9428226C297D2938
:103790008E299F2928960FB6F894DEBF0FBECDBFA5
:1037A000DF91CF911F910F91FF90EF90DF90CF901D
:1037B0000C9442220E942822C701B60128960FB617
:1037C000F894DEBF0FBECDBFDF91CF911F910F9157
:1037D000FF90EF90DF90CF900C940E22613F29F183
:1037E00018F4603F39F06DC0623F99F1633F09F40E
:1037F00044C067C0FF20A9F0253008F01CC1842F09
:103800008F7128960FB6F894DEBF0FBECDBFDF9143
:10381000CF911F910F91FF90EF90DF90CF900C947C
:10382000ED21263008F007C1EACFFF20A1F0842F58
:103830008F7128960FB6F894DEBF0FBECDBFDF9113
:10384000CF911F910F91FF90EF90DF90CF900C944C
:10385000A721FF2061F3842F8F7128960FB6F8946B
:10386000DEBF0FBECDBFDF91CF911F910F91FF90B3
:10387000EF90DF90CF900C94C821FF2091F0842F1F
:103880008F7128960FB6F894DEBF0FBECDBFDF91C3
:10389000CF911F910F91FF90EF90DF90CF900C94FC
:1038A000922128960FB6F894DEBF0FBECDBFDF91F0
:1038B000CF911F910F91FF90EF90DF90CF900C94DC
:1038C0008821FF20A1F0222309F4B1CF862F28966A
:1038D0000FB6F894DEBF0FBECDBFDF91CF911F9121
:1038E0000F91FF90EF90DF90CF900C94A6182223B9
:1038F00009F4B1CF862F28960FB6F894DEBF0FBE1D
:10390000CDBFDF91CF911F910F91FF90EF90DF908E
:10391000CF900C946E194F70C8010E94AE24289667
:103920000FB6F894DEBF0FBECDBFDF91CF911F91D0
:103930000F91FF90EF90DF90CF900C94B120F11099
:103940007AC0942F9F70492F50E04230510509F4FE
:1039500040C0BCF44115510561F14130510509F0F9
:103960006AC028960FB6F894DEBF0FBECDBFDF91B8
:10397000CF911F910F91FF90EF90DF90CF900C941B
:10398000A63143305105A9F14430510509F053C027
:10399000862F28960FB6F894DEBF0FBECDBFDF91FD
:1039A000CF911F910F91FF90EF90DF90CF900C94EB
:1039B0003F3228960FB6F894DEBF0FBECDBFDF9121
:1039C000CF911F910F91FF90EF90DF90CF900C94CB
:1039D0007C3128960FB6F894DEBF0FBECDBFDF91C5
:1039E000CF911F910F91FF90EF90DF90CF900C94AB
:1039F000D53128960FB6F894DEBF0FBECDBFDF914C
:103A0000CF911F910F91FF90EF90DF90CF900C948A
:103A100007324F70C80128960FB6F894DEBF0FBE6C
:103A2000CDBFDF91CF911F910F91FF90EF90DF906D
:103A3000CF900C94B12428960FB6F894DEBF0FBE39
:103A4000CDBFDF91CF911F910F91FF90EF90DF904D
:103A5000CF9008950E9457230E942C230E94732325
:103A60000E942D2A0E94FF2880E090E00E943917D2
:103A700080E090E00C944F170E9447230C942A1D7D
:103A80000E945D22292F22952F7030E02C303105C5
:103A90004CF42A3031056CF42250310922303105C2
:103AA00070F407C02C30310531F02F30310519F09A
:103AB00006C081E0089593FB882780F9089580E08F
:103AC0000895CF93DF9300D000D01F92CDB7DEB71B
:103AD0000F900F900F900F900F90DF91CF9108955E
:103AE000CF93DF9300D000D000D0CDB7DEB72696BD
:103AF0000FB6F894DEBF0FBECDBFDF91CF91089512
:103B00001F93CF93DF93C091560316E08091570324
:103B1000C81799F0D0E01C9FF0011D9FF00D1124F3
:103B2000E85AFC4F40815181628173818481958183
:103B30000E94701D2196C770E9CFDF91CF911F9130
:103B40000895409188035091890360918A03709190
:103B50008B0380918C0390918D030C94701DCF93F7
:103B600080918D0382958F7009F05FC080918A03E8
:103B7000882309F45AC020915603A09157036091FD
:103B800088037091890380918B0390918C0331E0BD
:103B90006F3F09F030E0B32FC6E02A1709F445C0A3
:103BA000009721F07F3F21F44B2F03C041E001C07B
:103BB00040E030E040FD35C0C29FF001C39FF00DF2
:103BC0001124E85AFC4F418174132BC040816413C7
:103BD00028C04281411125C04381548148175907AB
:103BE00010F441505109481B590B483C5105C8F489
:103BF00080918D038F70806180938D0386E0829F1A
:103C0000F001839FF00D1124E35AFC4F80818F70E7
:103C10008061808388E893E00E94CB19CF910C9457
:103C2000801D2F5F3F4F2770B8CFCF910895CF925F
:103C3000DF92EF92FF920F931F93CF93DF93CDB755
:103C4000DEB762970FB6F894DEBF0FBECDBF8C0112
:103C500085E0F801DE011D9601900D928A95E1F74D
:103C6000D8014C9111965C91119712966C91129714
:103C70001396ED90FC90149770918803E09189035E
:103C800020918B0330918C032115310531F0EF3FEA
:103C900031F481E07F3F19F403C081E001C080E08E
:103CA000B82FB170CB2E80FD6CC1D0908A03DD207F
:103CB00009F4F5C0F0918D03E216F30638F0C70160
:103CC000821B930B883C910548F09BC02095309552
:103CD0002E0D3F1D283C310508F093C08F2F807FAB
:103CE00009F052C0E51314C0741312C0D62E61112E
:103CF0000FC0FF70F061F0938D030E94A11D88E852
:103D000093E00E94CB1980918D03F80185836CC1EB
:103D1000EF2831F05F3F31F481E04F3F19F403C0E9
:103D200081E001C080E080FD03C081E0862701C002
:103D300080E0F82FF170FF2E80FF1CC080915603A9
:103D40002091570336E0821709F428C190E0389F8C
:103D5000F001399FF00D1124E85AFC4F718157137F
:103D600006C07081471303C07281671303C00196B8
:103D70008770E9CFD62E662309F436C180918D0372
:103D8000816080938D0353C0E51308C0741306C08F
:103D9000611104C0D8011596FC93AEC04D875E87B3
:103DA0008D859E856A8B0E94401D6A89882329F132
:103DB000D62E662311F120918D03822F82958F706C
:103DC00090E002970CF460C0809188039091890381
:103DD00098878F831986FB86EA862C87CE01079603
:103DE00051C0E51731F14D875E878D859E856A8BC1
:103DF0000E94401D6A8981112EC0C8010E94CB1902
:103E0000A4C08F2F807F69F77E2DF98AE88A89897F
:103E10000E94611D88E893E00E94CB19E8E8F3E076
:103E200086E0DF011D928A95E9F70E94A11DD12C41
:103E3000DBC07413D8CF6111D6CFD8011596FC938F
:103E4000C8010E94CB19E8E8F3E086E0DF011D928B
:103E50008A95E9F7C9C0D62E662379F220918D03A1
:103E6000822F82958F7090E0029774F08091880382
:103E7000909189039A8389831B82FD82EC822E8331
:103E8000CE0101960E94CB1986E0F801A8E8B3E0C4
:103E900001900D928A95E1F70E94AF1D6FC0E21666
:103EA000F30628F0C701821B930B9C0104C02095E8
:103EB00030952E0D3F1D283C310508F052C0D62EFE
:103EC000662309F49ACFE5132CC074132AC080919D
:103ED0008D0380FD1DC0982F92959F70C9F0D80169
:103EE00015968C9315979F3039F09F5F9295907F30
:103EF0008F70892B15968C93C8010E94CB1986E090
:103F0000F801A8E8B3E001900D928A95E1F736C078
:103F100086E0F801A8E8B3E001900D928A95E1F7F8
:103F200063C04D875E878D859E850E94401D8823D6
:103F300079F086E0F801A8E8B3E001900D928A9547
:103F4000E1F70E94AF1D0E94A11DDD24D3944CC057
:103F500080918D03816080938D03C8010E94CB19ED
:103F600043C07E2DF98AE88A89890E94611DE8E8AC
:103F7000F3E086E0DF011D928A95E9F70E94A11D1A
:103F800033C0662309F439CF4D875E878D859E85C2
:103F90000E94401D882309F430CFCBCF4D875E8728
:103FA0008D859E850E945D22292F22952F7030E0FD
:103FB000223031052CF49F7041F0811106C00CC0F5
:103FC000243031052CF49F7049F4805E883020F055
:103FD000C8010E94CB19CF2CDC2C06C0D801159645
:103FE0009C91907F91F7F8CF8D2D62960FB6F89443
:103FF000DEBF0FBECDBFDF91CF911F910F91FF901C
:10400000EF90DF90CF9008951F93CF93DF93CDB7BC
:10401000DEB72C970FB6F894DEBF0FBECDBF4F832F
:10402000588769877A878B879C87CE0107960E947D
:10403000171E8823C1F02F8138858A859B85892B9F
:1040400031F03F3F11F080E003C02F3FE1F781E006
:10405000811147C04F81588569857A858B859C85FC
:104060000E94701D3EC086E0FE013796DE0111966B
:1040700001900D928A95E1F7FF81E8854A855B857D
:104080004115510531F0EF3F31F481E0FF3F19F464
:1040900003C081E001C080E080FD23C02091570370
:1040A00030E0C9010196877099276091560370E04E
:1040B00086179707F1F1F983EA835D834C8396E0D5
:1040C000929FD001939FB00D1124A85ABC4FFE01BE
:1040D000319601900D929A95E1F7809357030E94D3
:1040E000801D16E08091560390915703891779F14E
:1040F000189FC0011124885A9C4F0E94171E8823C4
:1041000031F1E09156031E9FF0011124E85AFC4F53
:104110004081518162817381848195810E94701DEB
:104120008091560390E001968770992780935603FB
:10413000D9CF0E943C1D1092570310925603E8E815
:10414000F3E086E0DF011D928A95E9F7CACF2C964D
:104150000FB6F894DEBF0FBECDBFDF91CF911F9198
:104160000895EF92FF920F931F93CF93DF93FC017B
:10417000009709F46DC0F12CEE24E394EF01219631
:104180008491843740F4843008F053C0813081F04A
:10419000823021F15DC0853709F445C0B0F19CE75C
:1041A000980F903708F054C08F770E946E1943C063
:1041B0008F010E5F1F4FFE01849190E2980F98309F
:1041C00050F48770FE2D01C0FF0F8A95EAF78F2FFC
:1041D0000E944A2315C00E94A61812C08F010E5FCC
:1041E0001F4FFE01849190E2980F983058F4877029
:1041F000FE2D01C0FF0F8A95EAF78F2F0E945023F2
:10420000E80119C00E946E19FBCFCF010296FE0192
:10421000C491CC2361F0EFE9FFE03197F1F700C0E2
:104220000000C150F6CFCF010296FE01F490EC01E0
:1042300002C00E94A6188F2D882341F0EFE9FFE00D
:104240003197F1F700C000008150F6CFFE0196CF04
:10425000DF91CF911F910F91FF90EF9008950895F6
:1042600060939203709393038093940390939503C8
:104270000C942A1D0F931F930091920310919303A6
:104280002091940330919503062B172B282B392B63
:104290000093920310939303209394033093950318
:1042A0001F910F910C942A1D0F931F93009192035D
:1042B00010919303209194033091950306231723C3
:1042C000282339230093920310939303209394039C
:1042D000309395031F910F910C942A1D0F931F93F8
:1042E00000919203109193032091940330919503D0
:1042F0000627172728273927009392031093930343
:1043000020939403309395031F910F910C942A1DD1
:1043100010928E0310928F031092900310929103CB
:104320000C942A1D41E050E060E070E004C0440FAE
:10433000551F661F771F8A95D2F740938E035093BF
:104340008F0360939003709391030C942A1D41E0B6
:1043500050E060E070E004C0440F551F661F771FF7
:104360008A95D2F780918E0390918F03A09190034C
:10437000B0919103842B952BA62BB72B80938E03A2
:1043800090938F03A0939003B09391030C942A1DF4
:1043900041E050E060E070E004C0440F551F661F2C
:1043A000771F8A95D2F740955095609570958091CA
:1043B0008E0390918F03A0919003B0919103842379
:1043C0009523A623B72380938E0390938F03A09306
:1043D0009003B09391030C942A1D41E050E060E0FB
:1043E00070E004C0440F551F661F771F8A95D2F7EF
:1043F00080918E0390918F03A0919003B0919103CF
:1044000084279527A627B72780938E0390938F0341
:10441000A0939003B09391030C942A1D0F931F93C4
:1044200000918E0310918F0320919003309191039E
:10443000062B172B282B392B00938E0310938F03F9
:1044400020939003309391031F910F910C942A1D98
:104450000F931F9300918E0310918F03209190036F
:1044600030919103062317232823392300938E03C9
:1044700010938F0320939003309391031F910F911A
:104480000C942A1D0F931F9300918E0310918F039C
:104490002091900330919103062717272827392769
:1044A00000938E0310938F03209390033093910316
:1044B0001F910F910C942A1D0895CF92DF92EF92D5
:1044C000FF920F931F93CF93DF93EC01C090920361
:1044D000D0909303E0909403F090950380918E0325
:1044E00090918F03A0919003B0919103C82AD92A8B
:1044F000EA2AFB2A0FE110E0B701A601002E04C052
:1045000076956795579547950A94D2F740FF07C06F
:10451000BE01802F0E943B248130910539F4015067
:10452000110950F7BE0180E00E943B24DF91CF913A
:104530001F910F91FF90EF90DF90CF900895909191
:104540008E01992341F1982F9695969596959F30D7
:1045500088F4E0918F01F0919001E90FF11D8770CF
:1045600021E030E001C0220F8A95EAF78181822B99
:10457000818308959091C00390FF2DC01F928F9367
:1045800084E396E09F938F930E949A0A0F900F9076
:104590000F900F90089540918F015091900120E06D
:1045A00030E09FEFFA01E20FF31F6281681799F084
:1045B0009F3F19F4611101C0922F2F5F3F4F2E30A2
:1045C000310581F79F3F39F0FA01E90FF11D97FDA1
:1045D000FA9582830895089590918E01992349F167
:1045E000982F9695969596959F3090F4E0918F012F
:1045F000F0919001E90FF11D877021E030E001C0DA
:10460000220F8A95EAF72095818128232183089536
:104610009091C00390FF1FC01F928F9386E196E098
:104620009F938F930E949A0A0F900F900F900F9074
:10463000089540918F015091900120E030E0FA01FF
:10464000E20FF31F9281981301C012822F5F3F4F38
:104650002E303105A1F7089581E090E0E0918F01BF
:10466000F0919001E80FF91F1082019680319105B9
:10467000A9F708959091A803982B9093A803089503
:1046800080959091A80398239093A8030895109281
:10469000A80308959091A703982B9093A7030895DA
:1046A00080959091A70398239093A7030895109263
:1046B000A703089580939603089510929603089592
:1046C00040918F015091900120E030E080E0FA01AC
:1046D000E20FF31F918191118F5F2F5F3F4F2F30BA
:1046E0003105A9F70895E0918F01F0919001809133
:1046F000A8038083E0918F01F091900180819091D7
:10470000A703892B808390919603992361F0E09110
:104710008F01F09190018081892B80830E9460231A
:1047200081111092960380918F01909190010C94C9
:10473000E9168B3B60F4883A00F5853AA8F484309A
:1047400088F4813009F055C081E090E00895803E02
:1047500008F44FC0883E30F0803F08F44AC090E033
:104760009065089590E00895853A09F445C0863A29
:1047700009F045C082E890E40895883A09F442C0FF
:10478000893A09F442C08A3A09F442C08B3A09F4E2
:1047900042C08C3A09F442C08D3A09F442C0803BD1
:1047A00009F442C08E3A09F442C08F3A09F442C07B
:1047B000813B09F442C0823B09F442C0833B09F4C7
:1047C00042C0843B09F442C0853B09F442C0863BA9
:1047D00009F442C0873B09F442C0883B09F442C057
:1047E000893B09F442C08A3B09F042C08AE296E460
:1047F000089580E090E0089581E890E4089583E8CA
:1048000090E4089582EE94E4089589EE94E4089586
:104810008AEE94E4089585EB94E4089586EB94E49D
:10482000089587EB94E408958CEC94E408958DEC5E
:1048300094E4089583E895E408958AE895E408955A
:1048400082E995E4089584E995E4089581E296E487
:10485000089583E296E4089584E296E4089585E25B
:1048600096E4089586E296E4089587E296E4089532
:1048700080E094E408950E94A90A803EA8F4803C58
:1048800000F5813309F45CC038F4893209F452C070
:104890008A3209F45BC05FC08933B1F08238A1F07D
:1048A000853309F441C057C0833E41F128F4803E6E
:1048B00099F0823EB9F04FC0863E31F1873E71F1EA
:1048C0004AC00E94AD0A08959091BF0390FD02C0B6
:1048D00091FF41C080EE3FC08091BF0380FFFACFBF
:1048E00089E339C08091BF0382FF0CC08091BF0370
:1048F00084FF02C080E02FC083EE2DC08091BF03F3
:1049000082FFF4CF82EE27C08091BF0383FF0AC0ED
:104910008091BF0384FDEECF87EE1DC08091BF0361
:1049200083FFF6CF86EE17C08091BF0385FF06C0D8
:1049300089E211C08091BF0385FFFACF85E30BC0E8
:104940008091BF0386FF06C08AE205C08091BF0345
:1049500086FFFACF81E30E949923089580E090E0DA
:104960000895089582E084BD93E095BD9AEF97BDC8
:1049700080936E0008952FB7F8948091A9039091C9
:10498000AA03A091AB03B091AC032FBF0895CF92BF
:10499000DF92EF92FF920F931F932FB7F8944091FD
:1049A000A9035091AA036091AB037091AC032FBF90
:1049B0006A017B01EE24FF248C0120E030E0C01668
:1049C000D106E206F30610F441505109481B590B79
:1049D000CA011F910F91FF90EF90DF90CF90089543
:1049E0001F920F920FB60F9211248F939F93AF9344
:1049F000BF938091A9039091AA03A091AB03B091BA
:104A0000AC030196A11DB11D8093A9039093AA0345
:104A1000A093AB03B093AC03BF91AF919F918F91E3
:104A20000F900FBE0F901F9018959093AE03809338
:104A3000AD0308950E94FE12F8942FEF87EA91E6E5
:104A4000215080409040E1F700C0000087E090EBEB
:104A5000DC018093D7039093D803A093D903B0933C
:104A6000DA032CE088E190E00FB6F894A8958093E3
:104A700060000FBE20936000FFCF80E00C94E70B36
:104A8000CF930E94D70AC0E08C2F0E94620B672B45
:104A9000682B692B29F4CF5FC032B1F780E001C0E9
:104AA00081E0CF9108950E943C1D0C946B31CF9210
:104AB000DF92EF92FF920F931F936C01EE24FF247D
:104AC000C114D104E104F10421F46B017C0180E004
:104AD00001C080E133272F2D1E2D0D2D011511054D
:104AE0002105310519F0885F680179019701860178
:104AF000A4E03695279517950795AA95D1F7011546
:104B000011052105310519F08C5F680179019701C4
:104B10008601F2E03695279517950795FA95D1F716
:104B2000011511052105310519F08E5F6801790124
:104B3000B701A6017695679557954795452B462B66
:104B4000472B09F08F5F1F910F91FF90EF90DF903F
:104B5000CF9008958295982F9C7C96959695837317
:104B600044E0849F90011124922B892F8A7A8695A4
:104B70009575990F892B08951F93CF93DF931F92FB
:104B8000CDB7DEB799830E94AA25182F9981892F66
:104B90000E94AA25212F30E0322F2227A901482B7D
:104BA000CA010F90DF91CF911F910895CF92DF92AC
:104BB000EF92FF920F931F93CF93DF93082F10E094
:104BC000812F0E94620B6B017C01C0E0D0E0B70135
:104BD000A6010C2E04C076956795579547950A94C3
:104BE000D2F740FD05C02196C032D10581F709C03A
:104BF0006C2F712F80E00E94A90A0813F4CF81E086
:104C000004C01F5F1032E1F680E0DF91CF911F9169
:104C10000F91FF90EF90DF90CF900895CF93C82F22
:104C20008CE20E94D625882321F08C2FCF910C9402
:104C3000D62580E0CF910895CF930E9462278111FD
:104C400002C00E943D2789E596E00E94010AC5E660
:104C5000C15049F00E94D70A8FE39CE90197F1F710
:104C600000C00000F5CF82E596E00E94010A89E2CB
:104C70000E940E268111FFC08AE20E940E26882320
:104C800031F00E945C270E943D270E94B83285E0E7
:104C90000E940E2681110E941A250E946D27809382
:104CA000C00387E00E940E26882399F18BE10E94C1
:104CB0000E26882351F09091C00391FB882780F93C
:104CC00021E0822780FB91F922C08EE00E940E260F
:104CD000882351F09091C00392FB882780F921E04E
:104CE000822780FB92F913C080E10E940E269091EA
:104CF000C003882341F093FB882780F921E08227B5
:104D000080FB93F904C0892F809580FB90F99093E4
:104D1000C0038091C0030E9471270E947F27809367
:104D2000BF0380EE0E940E26882341F08091BF03CE
:104D3000982F909590FB80F98093BF0389E30E94A0
:104D40000E26882359F09091BF0391FB882780F9A4
:104D500021E0822780FB91F99093BF0382EE0E94AD
:104D60000E26882359F09091BF0392FB882780F983
:104D700021E0822780FB92F99093BF0386EE0E9488
:104D80000E26882359F09091BF0393FB882780F962
:104D900021E0822780FB93F99093BF0383EE0E946A
:104DA0000E26882359F09091BF0394FB882780F941
:104DB00021E0822780FB94F99093BF0385E30E9452
:104DC0000E26882359F09091BF0395FB882780F920
:104DD00021E0822780FB95F99093BF0381E30E9435
:104DE0000E26882359F09091BF0396FB882780F9FF
:104DF00021E0822780FB96F99093BF038091BF0347
:104E00000E94832787E20E940E26C82F8EE10E940F
:104E10000E268111C2608FE10E940E268111C460AE
:104E200080E20E940E268111C86081E20E940E2657
:104E30008111C06182E20E940E268111C06283E26C
:104E40000E940E268111C06484E20E940E268823EF
:104E500011F0C06802C0CC2329F08C2F0E947A2761
:104E60006C2F03C00E947627682F70E080E090E0EE
:104E7000CF910C943021CF9108956DEE7EEF80E0BC
:104E800090E00E94933460E082E090E00E948534DC
:104E900060E083E090E00E94853460E084E090E090
:104EA0000E94853460E085E090E00E94853460E0F7
:104EB00086E090E00C9485346FEF7FEF80E090E027
:104EC0000C94933480E090E00E947F3421E08D3E8A
:104ED0009E4F09F020E0822F089582E090E00C942C
:104EE0007734682F82E090E00C94853483E090E082
:104EF0000C947734682F83E090E00C94853484E040
:104F000090E00C947734682F84E090E00C94853422
:104F100086E090E00C947734682F86E090E00C9463
:104F200085348091B10380FF0BC06091940185E0CE
:104F3000689FB001112475956795759567952AC08E
:104F400081FF09C06091940185E0689FB001112440
:104F5000759567951FC082FF07C06091940185E039
:104F6000689FB001112416C04091B2034423C9F0D8
:104F700060919301461788F72091940185E0289F5E
:104F800090011124429FC001439F900D112470E0B5
:104F90000E9449346038710540F46115710539F09B
:104FA00002C065E070E0862F08958FE7089581E0E4
:104FB00008958091B10380FF08C06091920170E074
:104FC000759567957595679521C081FF06C06091BD
:104FD000920170E07595679519C082FF04C06091D9
:104FE000920170E010C08091B2038823C1F06091FB
:104FF00091018617A0F790919201989FC00111240A
:1050000070E00E9449346038710528F4611571051B
:1050100021F0862F08958FE7089581E0089561E0DB
:1050200070E0F4CF803F21F40E949127819504C065
:10503000813F29F40E9491278093B5030895823F10
:1050400021F40E949127819504C0833F29F40E9496
:1050500091278093B4030895893F19F40E94D927BA
:1050600005C08A3F31F40E94D92781958093B60309
:1050700008958B3F21F40E94D927819504C08C3F6D
:1050800029F40E94D9278093B7030895843F21F41F
:105090008091B303816017C0853F21F48091B303F1
:1050A000826011C0863F21F48091B30384600BC0FD
:1050B000873F21F48091B303886005C0883F31F4B5
:1050C0008091B30380618093B30308958D3F21F4F1
:1050D0008091B10381600BC08E3F21F48091B103B8
:1050E000826005C08F3F29F48091B1038460809372
:1050F000B1030895803F39F48091B50387FF6CC0F8
:105100001092B50369C0813F29F48091B503181648
:10511000BCF362C09091B403823F29F497FF5CC056
:105120001092B40359C0833F19F41916CCF354C03C
:10513000893F41F48091B60318160CF04DC01092CF
:10514000B6034AC08A3F29F48091B60387FF44C062
:10515000F6CF8B3F39F48091B70387FF3DC01092A3
:10516000B7033AC08C3F29F48091B7031816BCF3FB
:1051700033C0843F21F48091B3038E7F17C0853FF5
:1051800021F48091B3038D7F11C0863F21F480917B
:10519000B3038B7F0BC0873F21F48091B303877FDC
:1051A00005C0883F31F48091B3038F7E8093B303B1
:1051B00013C08D3F21F48091B1038E7F0BC08E3FD1
:1051C00021F48091B1038D7F05C08F3F29F4809138
:1051D000B1038B7F8093B1038091B40381110EC022
:1051E0008091B50381110AC08091B603811106C078
:1051F0008091B703811102C01092B203089580918B
:10520000C00383FF7EC085E996E00E94010A809179
:10521000B3031F928F9380E996E09F938F930E9430
:105220009A0A8EE896E00E94010A2091B403822F28
:10523000992787FD90959F932F938BE896E09F93F6
:105240008F930E949A0A89E896E00E94010A2091B1
:10525000B503822F992787FD90959F932F9386E81A
:1052600096E09F938F930E949A0A84E896E00E94AA
:10527000010A2091B603822F992787FD90959F936D
:105280002F9381E896E09F938F930E949A0A8FE76D
:1052900096E00E94010A2091B703822F992787FD8B
:1052A00090959F932F938CE796E09F938F930E9406
:1052B0009A0A89E796E00E94010A8091B2031F9240
:1052C0008F9386E796E09F938F930E949A0A84E7D4
:1052D00096E00E94010A8091B1031F928F9381E7AB
:1052E00096E09F938F930E949A0A8EE696E00E9422
:1052F000010A8DB79EB74C960FB6F8949EBF0FBEAD
:105300008DBF83EB93E00E942E170E94BB249093E5
:10531000B0038093AF0308951F93CF93DF938091E1
:10532000AF039091B0030E94C7244091B20344237D
:1053300021F02091950130E006C0209196015AE0BD
:10534000259F900111248217930708F482C0809151
:10535000B4031091B503D091B603C091B703811186
:1053600007C0111105C0D11103C0CC2309F471C0CD
:105370004F3F19F04F5F4093B203181624F40E9478
:1053800091278093B4038091B40387FF05C00E94E6
:10539000912781958093B403111624F40E949127DC
:1053A0008093B5038091B50387FF05C00E949127C4
:1053B00081958093B5036091B403662339F1109110
:1053C000B503112319F1772767FD7095872F972F64
:1053D0000E945A3323E333E343E35FE30E94BE3387
:1053E0000E9427336093B403612F772767FD709580
:1053F000872F972F0E945A3323E333E343E35FE37E
:105400000E94BE330E9427336093B5031D1624F417
:105410000E94D9278093B6038091B60387FF05C009
:105420000E94D92781958093B6031C1624F40E940C
:10543000D9278093B7038091B70387FF05C00E94E7
:10544000D92781958093B703DF91CF911F910C9459
:10545000FF28DF91CF911F910895E3EBF3E085E002
:10546000DF011D928A95E9F71092B2031092B10301
:1054700008958FE59BE00E94010A82E59BE00E946F
:10548000010A85E49BE00C94010A82EC9AE00E94F8
:10549000010A85EB9AE00E94010A8AE99AE00E94DB
:1054A000010A8FE79AE00E94010A87E69AE00E94CB
:1054B000010A8DE49AE00E94010A8FE29AE00E94BC
:1054C000010A8FE09AE00E94010A8BEF99E00E94A6
:1054D000010A84EE99E00E94010A88EC99E00E949A
:1054E000010A8AEA99E00E94010A8BE899E00E9489
:1054F000010A8AE699E00E94010A85E399E00E9488
:10550000010A80E299E00E94010A1F9285E08F93D0
:105510008DE199E09F938F930E949A0A84E199E02C
:105520000E94010A1F9281E08F9381E199E09F938D
:105530008F930E949A0A8FE099E00E94010A8DB72A
:105540009EB708960FB6F8949EBF0FBE8DBF82EE31
:1055500098E00C94010A833009F459C028F4813092
:1055600061F0823079F10895853009F49AC008F429
:1055700073C0863009F4BAC0089520919601862F31
:1055800090E0820F911D8F3F910520F4620F609390
:10559000960103C08FEF809396018EEB97E00E94F7
:1055A000010A809196011F928F938BEB97E09F9356
:1055B0008F930E949A0A0F900F900F900F9089EB93
:1055C00097E0B8C020919501862F90E0820F911D41
:1055D0008F3F910520F4620F6093950103C08FEF18
:1055E000809395018AEA97E00E94010A80919501D3
:1055F0001F928F9387EA97E09F938F930E949A0A56
:105600000F900F900F900F9085EA97E093C0209134
:105610009401862F90E0820F911D8F3F910520F419
:10562000620F6093940103C08FEF8093940185E92A
:1056300097E00E94010A809194011F928F9382E962
:1056400097E09F938F930E949A0A0F900F900F906C
:105650000F9080E997E06EC020919301862F90E033
:10566000820F911D8F3F910520F4620F609393018B
:1056700003C08FEF809393018EE797E00E94010AA9
:10568000809193011F928F938BE797E09F938F9365
:105690000E949A0A0F900F900F900F9089E797E061
:1056A00049C020919201862F90E0820F911D8F3F7B
:1056B000910520F4620F6093920103C08FEF8093F5
:1056C000920183E697E00E94010A809192011F9265
:1056D0008F9380E697E09F938F930E949A0A0F9092
:1056E0000F900F900F908EE597E024C020919101CC
:1056F000862F90E0820F911D8F3F910520F4620F5D
:105700006093910103C08FEF8093910186E497E04D
:105710000E94010A809191011F928F9383E497E088
:105720009F938F930E949A0A0F900F900F900F9063
:1057300081E497E00C94010A833009F44DC028F409
:10574000813061F0823049F10895853009F482C0DA
:1057500008F461C0863009F49CC0089580919601D8
:10576000681720F4861B8093960102C01092960160
:1057700085E397E00E94010A809196011F928F9322
:1057800082E397E09F938F930E949A0A0F900F9065
:105790000F900F9080E397E09AC080919501681771
:1057A00020F4861B8093950102C01092950181E23E
:1057B00097E00E94010A809195011F928F938EE1DC
:1057C00097E09F938F930E949A0A0F900F900F90EB
:1057D0000F908CE197E07BC080919401681720F4D2
:1057E000861B8093940102C0109294018CE097E094
:1057F0000E94010A809194011F928F9389E097E0A3
:105800009F938F930E949A0A0F900F900F900F9082
:1058100087E097E05CC080919301681720F4861BB5
:105820008093930102C01092930185EF96E00E944D
:10583000010A809193011F928F9382EF96E09F93CC
:105840008F930E949A0A0F900F900F900F9080EF05
:1058500096E03DC080919201681720F4861B8093EA
:10586000920102C0109292018AED96E00E94010A14
:10587000809192011F928F9387ED96E09F938F9373
:105880000E949A0A0F900F900F900F9085ED96E06E
:105890001EC080919101681720F4861B80939101AE
:1058A00002C0109291018DEB96E00E94010A809156
:1058B00091011F928F938AEB96E09F938F930E94A2
:1058C0009A0A0F900F900F900F9088EB96E00C942F
:1058D000010ACF93C82F8EE29BE00E94010A6091DB
:1058E00092037091930380919403909195030E9489
:1058F00057251F928F932BE23BE03F932F930E94FB
:105900009A0A86E29BE00E94010A1F92CF9323E24B
:105910003BE03F932F930E949A0A81E29BE00E9412
:10592000010A61E070E080E090E004C0660F771F3C
:10593000881F991FCA95D2F70E9430218DB79EB754
:1059400008960FB6F8949EBF0FBE8DBFCF910C94F2
:105950003C1D80E00895CF93C82F8091BB03813018
:1059600009F4EBC220F0823009F40FC31EC4A091E9
:105970008F01B09190018C91823209F018C48C2F64
:105980000E94A92C8111D6C24C2F50E0FA01369703
:10599000E334F10508F0C8C2E059FF4F0C945D34C0
:1059A00081E991E10E94010A8AEB9EE00E94010ACE
:1059B0000E9476271F928F9387EB9EE09F938F9391
:1059C0000E949A0A85EB9EE00E94010A0E946D27C0
:1059D000C82F82EA9EE00E94010A1F92CF932DE910
:1059E0003EE03F932F930E949A0A8BE99EE00E942B
:1059F000010A81E99EE00E94010A8C2F81701F92AA
:105A00008F932EE83EE03F932F930E949A0A8CE8F2
:105A10009EE00E94010A82E89EE00E94010AC1FB0A
:105A2000882780F91F928F932FE73EE03F932F93B3
:105A30000E949A0A8DE79EE00E94010A81E79EE09B
:105A40000E94010AC2FB882780F91F928F932EE6DD
:105A50003EE03F932F930E949A0A8CE69EE00E94BC
:105A6000010A83E69EE00E94010AC3FBCC27C0F92D
:105A70001F92CF9380E69EE09F938F930E949A0A95
:105A80008EE59EE00E94010A0E947F27C82F8AE4CB
:105A90009EE00E94010A1F92CF9325E43EE03F93CF
:105AA0002F930E949A0A83E49EE00E94010A8AE2F0
:105AB0009EE00E94010A8C2F81701F928F9327E233
:105AC0003EE03F932F930E949A0A8DB79EB780962F
:105AD0000FB6F8949EBF0FBE8DBF85E29EE00E9478
