:100000000C9496020C94DD020C94DD020C94DD023B
:100010000C94DD020C94DD020C94DD020C94DD02E4
:100020000C94DD020C94DD020C94690A0C943B0BD9
:100030000C94D7190C94DD020C94DD020C94DD02B3
:100040000C94DD020C9402230C94DD020C94DD026E
:100050000C94DD020C94721A0C94DD020C94DD02F7
:100060000C94DD020C94DD020C94DD020C94DD0294
:100070000C94DD020C94DD020C94DD020C94DD0284
:100080000C94DD020C94DD020C94DD020C94DD0274
:100090000C94DD020C94DD020C94DD020C94DD0264
:1000A0000C94DD020C94DD020C94DD02F802FC02DB
:1000B0000003040308030C030E031303EB05BE0542
:1000C000C005C205C405C605C805CA05CC05CE05D0
:1000D000D005D205D405D605D805DA05A30BC60B85
:1000E000810CC60B810C0B0C2E0C810C500C630C7C
:1000F000940F940FC10FC10F1C105610BF12BF12E6
:100100006E10BF126B116B1126123C12BF12AB1294
:10011000016202620162026200F1A600D200D10017
:10012000D0288A02F007F007F104F003F006F20588
:10013000F105F405FD05F505FB05F605FF05F035B0
:100140001E1F20212223242526272D2E2A535455D5
:10015000562B141A0815171C180C12132F30315F68
:1001600060615739041607090A0B0D0E0F33343539
:10017000285C5D5E57E1641D1B06190511103637BA
:1001800038E5C0595A5B58E0E3E20000000000483F
:100190002CE6C0E7E462626358293A3B3C3D3E3FAF
:1001A00040414243444546494C4B4E010101010147
:1001B000010101010101010101010101010101012F
:1001C000010101010101010101010101010101011F
:1001D000010101010101010101010101010101010F
:1001E00001010101010101010101010101010101FF
:1001F0000101010101010000000000010101E6C050
:10020000E4010101010101010101010101010101FB
:1002100001010101010101010101010101010101CE
:1002200001010101010101014E0101010101010171
:100230000101010101010101010156010101010159
:100240000101010101010101010101015701010148
:10025000010101010101010101015201010101013D
:10026000010100000000004C01E6E450514F010183
:100270000101010101010101010101010101C04868
:100280004A4D4B010101010101010101010101017F
:10029000010101014E010101010101010101010101
:1002A00001010101010156010101010101010101E9
:1002B00001010101010101015701010101010101D8
:1002C0000101010101015201010101E0E20100000F
:1002D0000000004C01E6E750514F0101010101010E
:1002E00001010101010101010101C0484A4D4B0119
:1002F000010101010101010101010101014D0101A2
:100300000101010101010101010101010101014B93
:1003100001010101010101010101010101010101CD
:10032000014E010101010101010101010101010170
:10033000010152C0010101E0E3E200000000004CB5
:1003400001E6E450514F01010101010101010101E8
:10035000010101010101464A0101010101010101FF
:100360000101010101010101014D01010101010131
:1003700001010101010101010101014B0101010123
:10038000010101010101010101010101014E010110
:10039000010101010101010101010101010152C03D
:1003A000010101E0E20100000000004C01E6E7501D
:1003B000514F01010101010101010101010101018F
:1003C0000101464A010101CACBCCCDCECFD0D1D25A
:1003D00001010101015301010101010101010101BB
:1003E00001010101010101470101010101010101B7
:1003F00001010101010101010148010101010101A6
:1004000001C2C1C3AAA9A8010101010101010101A1
:100410000101000000000049C401010101010101C6
:1004200001C5C6C7C8C90101010101010101014699
:10043000474A4D01010101010101010101010101D1
:10044000010101010101010101010101010101019C
:10045000010101010101010101010101010101018C
:10046000010101010101010101010101010101017C
:10047000010101010101010152010101010100001D
:1004800000000001010101010150514F0101010172
:10049000010101010101010101010101010101004D
:1004A0001080FF0123002300200000000000000056
:1004B0000000000000010101020202030304040520
:1004C000050606070808090A0B0B0C0D0E0F101184
:1004D0001213151617191A1B1D1E20222325272952
:1004E0002B2D2F313335383A3D3F4244474A4D504A
:1004F0005356595C5F6266696C7074777B7E828646
:100500008A8E9195999DA1A5A9ADB0B4B8BCC0C380
:10051000C7CBCED2D5D8DBDFE2E4E7EAECEFF1F3EC
:10052000F5F7F8FAFBFCFDFEFFFFFF0011241FBEEC
:10053000CFEFDAE0DEBFCDBF04B603FE27C0809167
:10054000FC039091FD03A091FE03B091FF0387305F
:10055000904BA740B04BD1F41092FC031092FD03D6
:100560001092FE031092FF0314BE84B7877F84BFEE
:100570000FB6F894A8958091600088618093600020
:10058000109260000FBEE0E0F8E3099512E0A0E0F1
:10059000B1E0EAE1F3E502C005900D92AA3FB10790
:1005A000D9F723E0AAEFB2E001C01D92AC3FB20739
:1005B000E1F70E9437080C948B290C94000080E628
:1005C00093E0089583E190E008950F931F93E62F41
:1005D000642FDC0112968C91882351F10E2F10E0CC
:1005E0000830110528F5F801EA5AFF4F0C9440290C
:1005F0001F910F910C9412061F910F910C949F055F
:100600001F910F910C9420061F910F910C94A90536
:100610001F910F910C94AC0580E001C081E01F9107
:100620000F910C942706842F1F910F910C943B0679
:100630001F910F910895611104C0FC018281811105
:1006400003C080E090E0089580E191E00895462F96
:10065000672F0C944527805C0E94392708958FE30B
:1006600091E0089589E191E0089586E0089582E19E
:10067000089580E885BF85BF0E94F90584B1876031
:1006800084B980B38C7080BB81B3836F81BB8AB126
:100690001AB88BB18FEF8BB984B1877884B985B1E3
:1006A000886785B9E2E1F3E0AAEFB2E01192119216
:1006B000119211921D921D921D921D9283E0EA32B9
:1006C000F807A1F708954F925F926F927F928F92F1
:1006D0009F92AF92BF92FF920F931F93CF93DF939E
:1006E000AAEFB2E0FD0110E001E0C5E0FC2E10FF32
:1006F00002C02A9A01C02A9811FF02C0299A01C09B
:10070000299812FF02C0289A01C0289880EA8A9589
:10071000F1F78FB182958F708027682F617070E03C
:10072000799903C082E090E002C080E090E0862BDF
:10073000972B789903C0C4E0D0E002C0C0E0D0E0BD
:100740008C2B9D2B1B9903C048E050E002C040E079
:1007500050E0842B952B489903C020E130E002C083
:1007600020E030E0822B932B499903C0C0E2D0E017
:1007700002C0C0E0D0E08C2B9D2B4C9903C040E41C
:1007800050E002C040E050E0842B952B4D9903C00F
:1007900020E830E002C020E030E0822B932B4E991D
:1007A00003C0C0E0D1E002C0C0E0D0E08C2B9D2BA4
:1007B000C9B10C2E000CDD0BC095D0959E012227EF
:1007C000330F221F3327322F2227330FAC01422B46
:1007D000532B2FB1022E000C330B20953095C901FD
:1007E0008827990F881F9927982F8827990F990F85
:1007F000842B952B7E9903C0C0E0D8E002C0C0E0F6
:10080000D0E04C018C2A9D2A4A9903C0C0E0D0E177
:1008100002C0C0E0D0E08C2A9D2A4B9903C040E082
:1008200050E202C040E050E0842A952A1E9903C09D
:1008300020E030E402C020E030E0822A932A092C34
:10084000000CAA08BB081D9906C0412C20E8522EB6
:10085000612C712C03C0412C512C32018428952825
:10086000A628B7281C9905C0412C512C320163944D
:1008700003C0412C512C320184289528A628B72882
:100880007D9906C0412C512C82E0682E712C03C04A
:10089000412C512C320184289528A628B728408065
:1008A000518062807380481459046A047B0431F0DB
:1008B00080829182A282B382F09200012A9A299AC0
:1008C000289A1F5F3496163009F011CF80910001ED
:1008D0008823D1F0815080930001882339F08FE97B
:1008E0009FE00197F1F700C000000EC0E2E1F3E0E5
:1008F0004D915D916D917D91419351936193719370
:1009000093E0A231B907A1F781E0DF91CF911F9168
:100910000F91FF90BF90AF909F908F907F906F90BE
:100920005F904F90089524E0829FC0011124FC0144
:10093000EE5EFC4F608171818281938108950895FC
:10094000CF93C82F0E944422C73090F4C430E0F403
:10095000C13090F10E9465220E94C6220E94FA22B4
:10096000EC2FF0E0E156FB4F8491CF910C947D2267
:10097000C730A9F0C83001F50E9465220E94C0224C
:100980000E94FA2281E012C00E9465220E94C622C3
:100990000E94F42286E08C1BCF910C94FF220E94CF
:1009A00065220E94C0220E94FA2280E00E94E32277
:1009B00083E0CF910C94F1220E94C6220E94FA2279
:1009C000CF910C946B221F93CF93DF9300D000D074
:1009D0001F92CDB7DEB7162F8091FB0380FF1AC0A0
:1009E0008E7F8E3029F4662319F080E20E94B222B5
:1009F0008091FB038E7F803169F4112359F080E2EE
:100A00000F900F900F900F900F90DF91CF911F914B
:100A10000C9498220F900F900F900F900F90DF91F1
:100A2000CF911F910895E82FF0E0EE0FFF1FED55D5
:100A3000FB4F8591949108953F9A479A6E9A769AC2
:100A4000279A2F980895813031F018F0823029F0DC
:100A5000089547980895769808952F9A08958130BB
:100A600031F018F0823029F00895479A0895769A67
:100A700008952F9808953E984698089546988FE9CE
:100A80009CE80197F1F700C00000469A8FE496E4D5
:100A90000197F1F700C00000089546988FEB98E0A9
:100AA0000197F1F700C00000469A089598E0469833
:100AB000EFEBF8E03197F1F700C00000469A80FFB5
:100AC00005C0EFEFF8E13197F1F704C0EFEBF8E084
:100AD0003197F1F700C000008695915041F70895D5
:100AE000CF93C82F892F0E9456058C2FCF910C943D
:100AF00056058FEE90E00C947005CF93C82FF894B4
:100B00003E9A0E943E050E9479058C2F0E94560550
:100B10008C2F80950E9456050E944D053E98789432
:100B2000CF91089587E090E00E945A2980932A038C
:100B3000089560912A0387E090E00C9468298091E1
:100B40002A038F7780932A0382E00E947D050C940C
:100B5000990580E00C947D0581E00C947D05882347
:100B600019F0813049F135C0862F90E08031910530
:100B700018F5FC01E25AFF4F0C94402984E00895D7
:100B800085E0089586E0089588E0089589E0089555
:100B90008AE008958CE008958DE008958EE0089530
:100BA00080E1089581E1089582E1089584E1089546
:100BB00085E1089586E10895613039F070F0623082
:100BC00031F0633031F487E108958FE0089583E1D7
:100BD000089582E0089587E008958BE0089580915C
:100BE0002A03682F6F70829587700E94AF050C945E
:100BF0007D056A9A0E943B050E94920580912A0316
:100C00008F3F21F410922A030E94990580912A03B4
:100C1000881F8827881F8E5F0E947D050E94EF0530
:100C2000729A089580912A03806880932A037298AB
:100C300083E00E947D050E94EF05729A0C9499054D
:100C400080912A0387FD0C949F050C941206209135
:100C50002A0327FF0FC08770982F9295907F822FCD
:100C600080786F70892B862B80932A030E94EF0572
:100C70000C949905089520912A0327FF2AC0422F3A
:100C80004295477050E0682F70E04617570741F0D3
:100C900087708295807F2078822B80932A0315C0ED
:100CA000882331F0813011F464E003C061E001C0B9
:100CB00060E1822F8F7090E0019670E00E942C29F5
:100CC0008F70207F282B20932A030E94EF050C941D
:100CD000990508956A98729808950C94F905809181
:100CE0003B030895CF93DF9300D01F92CDB7DEB7BB
:100CF0009C018091F103843019F593E099833B8343
:100D00002A839093E9008FEF9091E800815095FD40
:100D100006C095ED9A95F1F700008111F5CF80910D
:100D2000E80085FF0DC040E050E063E070E0CE01D8
:100D300001960E94DD088091E8008E778093E8009C
:100D40000F900F900F90DF91CF910895CF93DF9385
:100D500000D01F92CDB7DEB72091F103243021F5EA
:100D600022E029839B838A8383E08093E9008FEFCD
:100D70009091E800815095FD06C095ED9A95F1F7A8
:100D800000008111F5CF8091E80085FF0DC040E0A3
:100D900050E063E070E0CE0101960E94DD08809192
:100DA000E8008E778093E8000F900F900F90DF910E
:100DB000CF9108952091F1032430F1F422E02093A3
:100DC000E9002FEF3091E800215035FD06C035EDE8
:100DD0003A95F1F700002111F5CF2091E80025FFA9
:100DE0000BC040E050E065E070E00E94DD088091BB
:100DF000E8008E778093E8000895CF93DF93EC01AD
:100E00009091F103943009F046C080910B01882342
:100E1000D9F080910C018823B9F09093E9008FEF0D
:100E20009091E800815095FD06C095E19A95F1F703
:100E300000008111F5CF8091E80085FF2CC040E0D3
:100E400050E060E170E017C081E08093E9008FEF2F
:100E50009091E800815095FD06C095ED9A95F1F7C7
:100E600000008111F5CF8091E80085FF14C040E0BB
:100E700050E068E070E0CE010E94DD088091E8005B
:100E80008E778093E80080E1FE01ABE2B3E0019051
:100E90000D928A95E1F7DF91CF9108958091F0034B
:100EA000811109C00E94F0090E944B0A8091E20062
:100EB00084608093E20008951092F00308950895ED
:100EC00042E061EC81E00E948B0942E061EC82E04B
:100ED0000E948B0942E061EC83E00E948B0942E1B1
:100EE00061EC84E00C948B098091F303833009F466
:100EF00055C030F4813071F0823009F48EC008950D
:100F00008A3009F47AC08B3009F460C0893009F066
:100F10009CC020C08091F203813A09F096C0809174
:100F2000E800877F8093E8008091F6039091F703B3
:100F3000892B21F460E18BE293E003C060E080E064
:100F400090E070E00E9428098091E8008B77809300
:100F5000E80008958091F203813209F076C0809113
:100F6000F6039091F703009719F0039709F06DC00D
:100F70008091E800877F8093E8008091E80082FDFF
:100F800005C08091F1038111F8CF5FC08091F1001D
:100F900080933B038091E8008B7753C08091F203EC
:100FA000813A09F052C08091F6039091F703892BA2
:100FB00009F04BC08091E800877F8093E800809122
:100FC000E80080FFFCCF80910B0136C08091F203D6
:100FD0008132D9F58091F6039091F703892BA9F519
:100FE0008091E800877F8093E8000E949F098091AC
:100FF000F40380930B010C94E0128091F203813290
:1010000021F58091E800877F8093E8000E949F0986
:101010008091F50380933C0308958091F203813A17
:10102000A1F48091E800877F8093E8008091E80038
:1010300080FFFCCF80913C038093F1008091E80019
:101040008E778093E8000C949F0908950895089581
:1010500008950C9428080E94001A8091EF038823B9
:1010600029F00E94C01981110C94C708089584B713
:10107000877F84BF0FB6F894A8958091600088613F
:1010800080936000109260000FBE90E080E80FB681
:10109000F89480936100909361000FBE0E9426082F
:1010A0000E94EA0C0E94F0090E944B0A8091E20023
:1010B00084608093E20078948091F1038430E1F7BA
:1010C0000E94EC0C81E091E00E94960C0E9427089F
:1010D0008091F103853019F40E942B08F9CF0E940A
:1010E000FC0CF6CF0C942D1A0C947208292F332780
:1010F00023303105C1F05CF42130310579F0223024
:101100003105E9F58DE690E024E731E03CC021327D
:101110003105C1F02232310511F131C082E190E098
:1011200021EE31E030C099278330910540F5FC0174
:10113000EE0FFF1FE45DFE4F20813181FC01E75D72
:10114000FE4F1AC06430D8F4E62FF0E0EE0FFF1F18
:10115000EF5DFE4F2081318189E090E014C0643062
:1011600070F470E0FB01EE0FFF1FE75EFE4F208181
:101170003181FB01EB5EFE4F808190E004C080E096
:1011800090E020E030E0FA0131832083089580E18F
:1011900089BD82E189BD09B400FEFDCF8091D800F0
:1011A0008F7D8093D8008091E00082608093E00082
:1011B0008091E00081FDFCCF0895CF92DF92EF9205
:1011C000FF920F931F93CF93DF93EC018B016A0182
:1011D0000E94BE09811133C0C114D10439F0F60157
:1011E00080819181081B190BC80FD91FE12CF12CAC
:1011F0000115110519F18091E80085FD16C0809157
:10120000E8008E778093E800C114D10449F0F6011C
:1012100080819181E80EF91EF182E08285E00FC0A5
:101220000E94BE09882321F30AC089918093F100AE
:1012300001501109FFEFEF1AFF0ADACF80E0DF91CA
:10124000CF911F910F91FF90EF90DF90CF90089575
:101250002091F8033091F9032617370748F06115FC
:10126000710539F42091E8002E772093E80001C041
:10127000B90140E061157105A9F12091F103222324
:1012800009F443C0253009F442C02091E80023FD51
:1012900040C02091E80022FD32C02091E80020FFEC
:1012A000E9CF4091F3002091F20030E0342BFC01B3
:1012B000CF016115710559F02830310540F4819155
:1012C0008093F100615071092F5F3F4FF1CF41E0F2
:1012D0002830310509F040E02091E8002E77209376
:1012E000E800C8CF4111C9CF0AC08091F10388231B
:1012F00061F0853061F08091E80083FD0AC0809143
:10130000E80082FFF2CF80E0089582E0089583E054
:10131000089581E008958F708093E900EBEEF0E08E
:10132000808181608083EDEEF0E010826093EC00BC
:1013300040838091EE00881F8827881F0895809140
:10134000F20387FF11C08091E80082FD05C0809103
:10135000F1038111F8CF11C08091E8008B770BC0A9
:101360008091F103882349F08091E80080FFF8CF55
:101370008091E8008E778093E80008952091E40042
:101380003091E50095E64091EC00842F817040FF9C
:1013900022C08091E80080FD1CC08091F103882369
:1013A00091F0853091F08091EB0085FD10C0409167
:1013B000E4005091E5004217530729F39A01915038
:1013C00011F784E0089582E0089583E0089581E0B4
:1013D000089580E008954091E80042FFDECF08952F
:1013E0000E945C0A0E94640AE0EEF0E08081816065
:1013F0008083E8EDF0E080818F77808319BCA7EDD2
:10140000B0E08C918E7F8C9380818F7E8083109250
:10141000F00308950F931F93CF93DF930E945C0A0C
:101420000E94640AC8EDD0E088818F778883888124
:101430008068888388818F7D888319BC1092F1032E
:101440001092EE031092EF0300EE10E0F80180819D
:101450008B7F808388818160888342E060E080E0C8
:101460000E948B09E1EEF0E080818E7F8083E2EEC6
:10147000F0E0808181608083808188608083F801D2
:1014800080818E7F8083888180618883DF91CF9186
:101490001F910F910895E8EDF0E080818F7E8083A9
:1014A000E7EDF0E080818160808384E082BF81E0AD
:1014B0008093F0030C940A0AE8EDF0E080818E7FBF
:1014C00080831092E20008951092DA001092E100F9
:1014D00008951F920F920FB60F9211242F933F93EE
:1014E0004F935F936F937F938F939F93AF93BF932C
:1014F000EF93FF938091E10082FF0BC08091E200A7
:1015000082FF07C08091E1008B7F8093E1000E9401
:10151000950C8091DA0080FF1FC08091D80080FF79
:101520001BC08091DA008E7F8093DA008091D90011
:1015300080FF0DC080E189BD82E189BD09B400FE54
:10154000FDCF81E08093F1030E944E0705C019BCD6
:101550001092F1030E945C078091E10080FF19C0A6
:101560008091E20080FF15C08091E2008E7F809321
:10157000E2008091E20080618093E2008091D800D7
:1015800080628093D80019BC85E08093F1030E94AB
:1015900029088091E10084FF30C08091E20084FF3F
:1015A0002CC080E189BD82E189BD09B400FEFDCF78
:1015B0008091D8008F7D8093D8008091E1008F7E4C
:1015C0008093E1008091E2008F7E8093E200809121
:1015D000E20081608093E2008091EE03882311F0A5
:1015E00084E007C08091E30087FD02C081E001C074
:1015F00083E08093F1030E9474088091E10083FFEF
:1016000029C08091E20083FF25C08091E100877F9F
:101610008093E10082E08093F1031092EE038091C9
:10162000E1008E7F8093E1008091E2008E7F8093C5
:10163000E2008091E20080618093E20042E060E09D
:1016400080E00E948B098091F00088608093F00018
:101650000E945F07FF91EF91BF91AF919F918F9192
:101660007F916F915F914F913F912F910F900FBE9E
:101670000F901F9018951F920F920FB60F92112482
:101680002F933F934F935F936F937F938F939F938A
:10169000AF93BF93CF93DF93EF93FF93C091E90094
:1016A000CF708091EC00D82FD17080FDD0E81092DF
:1016B000E9008091F000877F8093F00078940E9489
:1016C0007F0B1092E9008091F00088608093F00019
:1016D000CD2BCF70C093E900FF91EF91DF91CF91B7
:1016E000BF91AF919F918F917F916F915F914F913A
:1016F0003F912F910F900FBE0F901F9018951F9341
:10170000CF93DF9300D0CDB7DEB7E2EFF3E088E010
:101710008E0F9091F10091938E13FBCF0E9474076E
:101720008091E80083FFEDC08091F2039091F30374
:10173000492F50E04A30510508F0E3C0FA01E25960
:10174000FF4F0C944029803881F0823809F0D9C0CD
:101750008091F6038F708093E9008091EB0085FB08
:10176000882780F91092E90007C08091EF03882351
:1017700011F082E001C080E09091E800977F9093A3
:10178000E8008093F1001092F10095C0282F2D7F82
:1017900009F0B7C0882319F0823061F0B2C080919F
:1017A000F403813009F0ADC0933009F080E08093FC
:1017B000EF032BC08091F403811127C08091F603C1
:1017C0008F7009F49EC08093E9002091EB0020FF08
:1017D0001CC0933021F48091EB00806214C0909182
:1017E000EB0090619093EB0021E030E0A90102C092
:1017F000440F551F8A95E2F74093EA001092EA00E1
:101800008091EB0088608093EB001092E90080915A
:10181000E800877F53C0811174C01091F4031F77D3
:101820008091E3008078812B8093E3008091E80031
:10183000877F8093E8000E949F098091E80080FFE5
:10184000FCCF8091E30080688093E300111102C017
:1018500082E001C083E08093F10353C0805882305E
:1018600008F04FC0AE014F5F5F4F6091F60380916B
:10187000F4039091F5030E947608BC01892B09F4CA
:1018800040C09091E800977F9093E80089819A8109
:101890000E9428098091E8008B778093E80031C08E
:1018A000803879F58091E800877F8093E800809107
:1018B000EE038093F1008091E8008E778093E8003A
:1018C0000E949F091EC081111CC09091F4039230A8
:1018D000C0F48091E800877F8093E8009093EE0346
:1018E0000E949F098091EE03811106C08091E30060
:1018F00087FD02C081E001C084E08093F1030E9473
:1019000060078091E80083FF0AC08091E800877F2C
:101910008093E8008091EB0080628093EB000F9051
:101920000F90DF91CF911F910895089590934203F6
:10193000809341030895E0914103F0914203309771
:1019400021F00190F081E02D099480E00895E0916C
:101950004103F0914203309721F00280F381E02DA2
:1019600009940895E0914103F0914203309721F0EA
:101970000480F581E02D0994089520913F03309172
:1019800040038217930771F09093400380933F03C5
:10199000E0914103F0914203309721F00680F781F6
:1019A000E02D0994089520913D0330913E03821764
:1019B000930771F090933E0380933D03E0914103C0
:1019C000F0914203309721F00084F185E02D0994D5
:1019D000089508950C94E90C0E94331A0E9439036B
:1019E0000E94441C0E949D260E9407250E943122CD
:1019F0000E9419240C94F4274F925F926F927F9269
:101A00009F92AF92BF92CF92DF92EF92FF920F938D
:101A10001F93CF93DF93CDB7DEB729970FB6F89416
:101A2000DEBF0FBECDBF0E94630344E4A42E43E09B
:101A3000B42E00E010E0902E802F0E949304F50158
:101A4000C190D190E190F1905F01C626D726E8269B
:101A5000F926C114D104E104F104B1F40F5F1F4F62
:101A60000630110541F78FEF89838A831B820E941C
:101A70003C1A8160782F9D838C8349815A816B81C8
:101A80008D810E94E30D64C02091B20321FF0AC042
:101A90006E837F83888799870E949F0499858885B4
:101AA0007F816E8140E050E026013701042E04C0A2
:101AB00076946794579447940A94D2F740FE41C0B5
:101AC00049839A82C12CD12C7601C39404C0CC0CDA
:101AD000DD1CEE1CFF1C4A95D2F726013701462279
:101AE00057226822792281E045284628472809F4B0
:101AF00080E08B830E943C1A8160782F9D838C83C9
:101B000049815A816B818D810E94E30D49815A81FF
:101B10006B817C818D810E94E304000F111F000FF7
:101B2000111FF801EC5BFC4F80819181A281B38190
:101B3000C826D926EA26FB26C082D182E282F38219
:101B400007C04F5F5F4F4231510509F0ADCF86CFDF
:101B50000E94BC190E945F1F109143030E949B0CBE
:101B60001817D9F00E949B0C8093430329960FB657
:101B7000F894DEBF0FBECDBFDF91CF911F910F91C3
:101B8000FF90EF90DF90CF90BF90AF909F907F90AD
:101B90006F905F904F900C94692529960FB6F8943A
:101BA000DEBF0FBECDBFDF91CF911F910F91FF9090
:101BB000EF90DF90CF90BF90AF909F907F906F900D
:101BC0005F904F900895CF93DF93CDB7DEB72B97FB
:101BD0000FB6F894DEBF0FBECDBF942F4F83252FD5
:101BE000588769877A878B874A855B85452B21F0E3
:101BF0002F3F09F59F3FF9F4DE01119686E0FD01C4
:101C000011928A95E9F785E0FE01379601900D92D1
:101C10008A95E1F749815A816B817C818D819E8112
:101C20000E947A152B960FB6F894DEBF0FBECDBF7B
:101C3000DF91CF9108954F81588569857A858B858D
:101C40000E94E304D9CFCF93882309F4CDC0C82FD5
:101C5000823859F40E949B0C81FDC6C089E30E9422
:101C600005180E94961989E30CC0833879F40E9404
:101C70009B0C80FDB9C083E50E9405180E9496194F
:101C800083E50E94CA18CF910C949619843859F4B0
:101C90000E949B0C82FDA8C087E40E9405180E9448
:101CA000961987E4EECF8CEF8C0F813A48F48C2F95
:101CB0000E949921811198C08C2F0E940518E3CFB2
:101CC00080E28C0F883048F4C77081E001C0880F33
:101CD000CA95EAF70E946519D6CF8BE58C0F833041
:101CE00078F4C53A29F0C63A31F083E890E005C0AF
:101CF00081E890E002C082E890E0CF910C94BD0CA6
:101D000088E58C0F853108F06FC0C83A61F1C93A97
:101D100069F1CA3A71F1CB3A79F1CC3A81F1CD3A15
:101D200089F1CE3A91F1CF3A99F1C13BA1F1C03B93
:101D3000A9F1C23BB1F1C33BB9F1C43BC1F1C53B11
:101D4000C9F1C63BD1F1C73BD9F1C83BE1F1C93B71
:101D5000E9F1CA3BF1F1CB3BF9F1CC3B09F43FC0CF
:101D600080E090E03EC082EE90E03BC089EE90E0E3
:101D700038C08AEE90E035C085EB90E032C086EB4B
:101D800090E02FC083EB90E02CC084EB90E029C062
:101D900087EB90E026C08CEC90E023C08DEC90E0C7
:101DA00020C083E891E01DC08AE891E01AC082E972
:101DB00091E017C084E991E014C081E292E011C083
:101DC00083E292E00EC084E292E00BC085E292E0F2
:101DD00008C086E292E005C087E292E002C08AE293
:101DE00092E0CF910C94D30CCF910895882309F4FD
:101DF0004BC0823859F40E949B0C81FF45C089E397
:101E00000E9405180E94961989E30CC0833871F46A
:101E10000E949B0C80FF38C083E50E9405180E9439
:101E2000961983E50E94CA180C949619843859F4BF
:101E30000E949B0C82FF28C087E40E9405180E9424
:101E4000961987E4EFCF9CEF980F913A58F390E200
:101E5000980F983050F4877091E001C0990F8A95DF
:101E6000EAF7892F0E946B19DFCF9BE5980F93301B
:101E700020F480E090E00C94BD0C885A853120F469
:101E800080E090E00C94D30C0895882321F00E9408
:101E900065190C9496190895882321F00E946B19F6
:101EA0000C9496190895CF92DF92EF92FF920F93C0
:101EB0001F93CF93DF93CDB7DEB727970FB6F89474
:101EC000DEBF0FBECDBF25E0FC01DE011196019003
:101ED0000D922A95E1F7FC01408131810281258133
:101EE00022952F7063817481672B09F448C33F3FAB
:101EF00019F44F3F09F443C36C0149833A83898144
:101F00009A812F830E94C417182F9E830E94C317A3
:101F10000E94D3169E81E92FE295EF70F0E0E85819
:101F2000FF4F2F810C944029892F807F9F70F92EBD
:101F3000882319F0F29490EFF922002349F0FF2052
:101F400009F45FC28F2D0E9478190E94961959C218
:101F5000812F0E94F60EFF2009F411C38F2D0E94DD
:101F60007E1927960FB6F894DEBF0FBECDBFDF9166
:101F7000CF911F910F91FF90EF90DF90CF900C9435
:101F80009619892F807F9F70F92E803219F0F29474
:101F900080EFF822112319F0113001F129C000233C
:101FA000A9F08F2D222349F1213039F527960FB65C
:101FB000F894DEBF0FBECDBFDF91CF911F910F917F
:101FC000FF90EF90DF90CF900C948819222319F0A6
:101FD000213009F4D4C20E948B192CC00023E9F0EF
:101FE000263008F0CCC20E9462198F2129F022C04D
:101FF0000023F1F0211115C08F2D27960FB6F8940C
:10200000DEBF0FBECDBFDF91CF911F910F91FF902B
:10201000EF90DF90CF900C94450F253008F0AFC2C1
:1020200009C0F601858180FFECC18F708583E4CF04
:102030002111FBC18F2D69C1292F2695269523706B
:1020400030E02115310521F021303105C1F097C272
:10205000002319F0812F937002C080E090E0279652
:102060000FB6F894DEBF0FBECDBFDF91CF911F91A9
:102070000F91FF90EF90DF90CF900C94BD0C002358
:1020800019F0812F937002C080E090E027960FB680
:10209000F894DEBF0FBECDBFDF91CF911F910F919E
:1020A000FF90EF90DF90CF900C94D30C812F002302
:1020B00019F00E94671E02C00E94CF1E27960FB61D
:1020C000F894DEBF0FBECDBFDF91CF911F910F916E
:1020D000FF90EF90DF90CF900C94541F892F837066
:1020E00009F079C001114BC2812F829586958770C6
:1020F000880F880F212F2F70C22ED12CE12CF12CAC
:10210000082E04C0CC0CDD1CEE1CFF1C0A94D2F778
:1021100014FF12C04FE050E060E070E004C0440FD4
:10212000551F661F771F8A95D2F78A019B0100957C
:1021300010952095309503C000E010E09801969529
:1021400096959370492F50E0C901B801423051056E
:10215000D1F04330510559F16C297D298E299F29F1
:102160004130510541F127960FB6F894DEBF0FBEFE
:10217000CDBFDF91CF911F910F91FF90EF90DF9036
:10218000CF900C94E8166C297D298E299F292796DB
:102190000FB6F894DEBF0FBECDBFDF91CF911F9178
:1021A0000F91FF90EF90DF90CF900C94FA160E9461
:1021B000E816C701B60127960FB6F894DEBF0FBE2A
:1021C000CDBFDF91CF911F910F91FF90EF90DF90E6
:1021D000CF900C94D616002319F0892F817001C07E
:1021E0008695882309F4CBC1812F829586958770C7
:1021F000880F880F212F2F70C22ED12CE12CF12CAB
:10220000082E04C0CC0CDD1CEE1CFF1C0A94D2F777
:1022100014FF12C04FE050E060E070E004C0440FD3
:10222000551F661F771F8A95D2F78A019B0100957B
:1022300010952095309503C000E010E09801969528
:1022400096959370492F50E0C901B801423051056D
:10225000D1F04330510559F16C297D298E299F29F0
:102260004130510541F127960FB6F894DEBF0FBEFD
:10227000CDBFDF91CF911F910F91FF90EF90DF9035
:10228000CF900C949F176C297D298E299F29279622
:102290000FB6F894DEBF0FBECDBFDF91CF911F9177
:1022A0000F91FF90EF90DF90CF900C94B1170E94A8
:1022B0009F17C701B60127960FB6F894DEBF0FBE71
:1022C000CDBFDF91CF911F910F91FF90EF90DF90E5
:1022D000CF900C948D17103F41F118F4103E48F444
:1022E0008BC0123F09F450C0D8F1133F09F460C00D
:1022F00083C01F70892F8F71002321F00E94261741
:10230000812F7BCE0E944717812F27960FB6F89416
:10231000DEBF0FBECDBFDF91CF911F910F91FF9018
:10232000EF90DF90CF900C944C0F0023A9F0253054
:1023300008F025C1892F8F7127960FB6F894DEBF5C
:102340000FBECDBFDF91CF911F910F91FF90EF9006
:10235000DF90CF900C946C17263008F010C1EACFB4
:102360000023A1F0892F8F7127960FB6F894DEBF56
:102370000FBECDBFDF91CF911F910F91FF90EF90D6
:10238000DF90CF900C942617002361F3892F8F7173
:1023900027960FB6F894DEBF0FBECDBFDF91CF9169
:1023A0001F910F91FF90EF90DF90CF900C94471703
:1023B000002391F0892F8F7127960FB6F894DEBF16
:1023C0000FBECDBFDF91CF911F910F91FF90EF9086
:1023D000DF90CF900C94111727960FB6F894DEBFBC
:1023E0000FBECDBFDF91CF911F910F91FF90EF9066
:1023F000DF90CF900C940C170023A1F0222309F456
:10240000B1CF812F27960FB6F894DEBF0FBECDBF98
:10241000DF91CF911F910F91FF90EF90DF90CF90C0
:102420000C94230E222309F4B1CF812F27960FB6E7
:10243000F894DEBF0FBECDBFDF91CF911F910F91FA
:10244000FF90EF90DF90CF900C94F60E492F4F70D5
:10245000612FC6010E941B0327960FB6F894DEBFBA
:102460000FBECDBFDF91CF911F910F91FF90EF90E5
:10247000DF90CF900C941E16011181C0112341F002
:10248000892F8F70843021F0907F212F2F70922B15
:102490009F70892F90E082309105E9F1ACF40097AC
:1024A00051F1019709F06BC027960FB6F894DEBF83
:1024B0000FBECDBFDF91CF911F910F91FF90EF9095
:1024C000DF90CF900C94432483309105A1F10497C1
:1024D00009F055C0812F27960FB6F894DEBF0FBEC6
:1024E000CDBFDF91CF911F910F91FF90EF90DF90C3
:1024F000CF900C949E2427960FB6F894DEBF0FBEA3
:10250000CDBFDF91CF911F910F91FF90EF90DF90A2
:10251000CF900C942A2427960FB6F894DEBF0FBEF6
:10252000CDBFDF91CF911F910F91FF90EF90DF9082
:10253000CF900C945C2427960FB6F894DEBF0FBEA4
:10254000CDBFDF91CF911F910F91FF90EF90DF9062
:10255000CF900C947B24492F4F70612FC601279692
:102560000FB6F894DEBF0FBECDBFDF91CF911F91A4
:102570000F91FF90EF90DF90CF900C94E50227969B
:102580000FB6F894DEBF0FBECDBFDF91CF911F9184
:102590000F91FF90EF90DF90CF9008950E948519E2
:1025A0000E9454190E9496190E9404200E94541FF0
:1025B00080E090E00E94BD0C80E090E00C94D30C91
:1025C0000E9475190C94CE120E94C417292F2295CF
:1025D0002F7030E02C3031054CF42A3031056CF48A
:1025E000225031092230310588F407C02C303105E2
:1025F00049F02F30310531F009C0803E48F0803F6E
:1026000029F406C093FB882780F9089580E0089597
:1026100081E00895CF93DF9300D000D01F92CDB713
:10262000DEB70F900F900F900F900F90DF91CF912A
:102630000895CF93DF9300D000D000D0CDB7DEB7A0
:1026400026960FB6F894DEBF0FBECDBFDF91CF91B7
:1026500008951F93CF93DF93C0915C0316E08091A0
:102660005D03C81799F0D0E01C9FF0011D9FF00D8D
:102670001124E25AFC4F408151816281738184812F
:1026800095810E9419132196C770E9CFDF91CF91F0
:102690001F91089540918E0350918F036091900394
:1026A0007091910380919203909193030C9419136C
:1026B0008091930382958F7009F054C080919003AC
:1026C000882309F44FC080915C03A0915D03609161
:1026D0008E0370918F034091910350919203B6E065
:1026E0008A1709F43FC090E041155105C1F17F3FC1
:1026F00011F46F3FA1F1B89FF001B99FF00D1124C3
:10270000E25AFC4F218172132AC02081621327C034
:102710002281211124C0238134812417350710F42C
:1027200021503109241B350B283C3105C0F4209180
:1027300093032F7020612093930326E0289FF001DC
:10274000299FF00D1124ED59FC4F80818F7080611D
:1027500080838EE893E00E94530F0C942913019616
:102760008770BECF0895CF92DF92EF92FF920F93C2
:102770001F93CF93DF93CDB7DEB762970FB6F89470
:10278000DEBF0FBECDBF8C0185E0F801DE011D96D6
:1027900001900D928A95E1F7D8014C9111965C91C8
:1027A000119712966C9112971396CD90DC90149716
:1027B00030918E0370918F038091910390919203D9
:1027C000009709F46BC17F3F19F43F3F09F466C1DC
:1027D000E0909003EE2009F4C0C020919303C81646
:1027E000D90628F0F601E81BF90BCF0104C080954B
:1027F00090958C0D9D1DFF24F394883C910578F0F5
:10280000F12C207F09F0C6C07C2DD98AC88A89891D
:102810000E940A138EE893E00E94530FB1C0822FEA
:10282000807F09F046C0751314C0341312C06111C3
:1028300010C02F702061209393030E944A138EE8EA
:1028400093E00E94530F80919303D80115968C93C7
:102850002EC0CD2819F15F3F11F44F3FF9F0F62E4D
:1028600061111CC080915C0320915D0336E08217EA
:1028700009F45AC090E0389FF001399FF00D1124FF
:10288000E25AFC4F7181571306C07081471303C091
:102890007281711103C001968770E9CFF62E66230D
:1028A00009F418C180919303816080939303F12C04
:1028B00011C1751308C0341306C0611104C08091A2
:1028C0009303D801C3C04D875E878D859E856A8B33
:1028D0000E94E4126A898823E1F16623D1F12091F4
:1028E0009303822F82958F7090E0029774F080910D
:1028F0008E0390918F0398878F831986DB86CA8613
:102900002C87CE0107960E94530F86E0F801AEE8AF
:10291000B3E001900D928A95E1F70E9458130E944E
:102920004A13FF24F394D6C04D875E878D859E851C
:102930000E94C417292F22952F7030E022303105D4
:102940000CF0BCC09F7009F0B6C0805E883008F4FF
:10295000C1C0C8010E94530FE4CFC816D90608F4BD
:1029600053C0F601E81BF90BCF01883C910508F430
:1029700050C0F12C7C2DD98AC88A89890E940A13FB
:10298000EEE8F3E086E0DF011D928A95E9F70E9408
:102990004A13A0C0751314C0341312C0611110C0C3
:1029A00080919303F8018583C8010E94530F86E04C
:1029B000EEE8F3E0DF011D928A95E9F7FE2C8AC06C
:1029C0004D875E878D859E856A8B0E94E4126A8999
:1029D000882309F4BECF662309F4BBCF209193036B
:1029E000822F82958F7090E002970CF48ECF8091A9
:1029F0008E0390918F039A8389831B82DD82CC8220
:102A00002E83CE0101967FCF809590958C0D9D1DD4
:102A1000ACCFF62E662309F49CCF75132EC0341369
:102A20002CC02091930320FD1FC0822F82958F70B0
:102A3000D9F0D80115962C9315978F3049F08F5FF8
:102A4000982F9295907F822F8F70892B15968C935B
:102A5000C8010E94530F86E0F801AEE8B3E0019090
:102A60000D928A95E1F793CF86E0F801AEE8B3E0E6
:102A700001900D928A95E1F72DC04D875E878D8577
:102A80009E850E94E412811140CF80919303816062
:102A900080939303C8010E94530F1CC0662309F45E
:102AA00058CF4D875E878D859E850E94E4128823CE
:102AB00009F44FCF2ACF811148CF0CC02430310503
:102AC0000CF047CF9F7009F440CFF8019581907FBB
:102AD00009F03BCF8F2D62960FB6F894DEBF0FBE84
:102AE000CDBFDF91CF911F910F91FF90EF90DF90BD
:102AF000CF9008951F93CF93DF93CDB7DEB72C9778
:102B00000FB6F894DEBF0FBECDBF4F8358876987DD
:102B10007A878B879C87CE0107960E94B313882300
:102B200069F08F8198852A853B85232BF1F19F3FA2
:102B300009F063C08F3F09F060C037C086E0FE0136
:102B40003796DE01119601900D928A95E1F76F811B
:102B50007885EA85FB85309741F17F3F11F46F3F1F
:102B600021F120915D0330E0C9010196877099271A
:102B700040915C0350E08417950709F447C06983CE
:102B80007A83FD83EC8396E0929FD001939FB00DF2
:102B90001124A25ABC4FFE01319601900D929A95D4
:102BA000E1F780935D030E94291316E080915C0396
:102BB00090915D038917C1F1189FC0011124825AB9
:102BC0009C4F0E94B313882379F1E0915C031E9F10
:102BD000F0011124E25AFC4F4081518162817381DE
:102BE000848195810E94191380915C0390E0019685
:102BF0008770992780935C03D9CF4F815885698569
:102C00007A858B859C850E941913CFCF0E94E01294
:102C100010925D0310925C03EEE8F3E086E0DF01C2
:102C20001D928A95E9F7C1CF2C960FB6F894DEBFB6
:102C30000FBECDBFDF91CF911F910895DF92EF922C
:102C4000FF920F931F93CF93DF93FC01892B09F41D
:102C50008AC0E12CF12CDD24D394EF0121968491DC
:102C6000853709F461C058F4843708F04EC08430C9
:102C700008F06AC08130D1F0823071F174C08837B9
:102C800009F45DC050F4863709F455C0873709F060
:102C90006AC08E2D0E94721954C09CE7980F90371D
:102CA00008F061C08F770E94F60E50C08F010E5F52
:102CB0001F4FFE01849190E2980F983050F4877076
:102CC000FD2D01C0FF0F8A95EAF78F2F0E9478191A
:102CD00014C00E94230E13C08F010E5F1F4FFE0110
:102CE000C49180E28C0F883060F4C7708D2D01C0D4
:102CF000880FCA95EAF70E947E190E949619E8018A
:102D000025C08C2F0E94F60EFACF9F012E5F3F4FF9
:102D1000FE01C491CC2369F08FE99FE00197F1F7A0
:102D200000C00000C150F6CF9F012E5F3F4FFE0153
:102D3000F490E9010BC00E946219E82E07C00E94BE
:102D400075190E94961902C00E94230E8F2D8823A8
:102D500041F0EFE9FFE03197F1F700C0000081504A
:102D6000F6CFFE017ACFDF91CF911F910F91FF90A7
:102D7000EF90DF9008956093980370939903809388
:102D80009A0390939B030E94BF250C94CE126093EC
:102D900094037093950380939603909397030E94F6
:102DA0001E260C94CE1208950C94BB160F931F93FD
:102DB000009198031091990320919A0330919B03FD
:102DC000602B712B822B932B1F910F910C94BB16B0
:102DD0000F931F93009198031091990320919A03E8
:102DE00030919B0360237123822393231F910F91C2
:102DF0000C94BB160F931F930091980310919903A5
:102E000020919A0330919B03602771278227932793
:102E10001F910F910C94BB1660E070E0CB010C94F5
:102E2000C7160F931F9341E050E060E070E08A0105
:102E30009B0104C0000F111F221F331F8A95D2F778
:102E4000C901B8011F910F910C94C7160F931F93DE
:102E500041E050E060E070E004C0440F551F661F81
:102E6000771F8A95D2F78091940390919503A09152
:102E70009603B09197038A019B01082B192B2A2BEB
:102E80003B2BC901B8011F910F910C94C7160F93EA
:102E90001F9341E050E060E070E004C0440F551F14
:102EA000661F771F8A95D2F740955095609570956B
:102EB0008091940390919503A0919603B09197030C
:102EC0008A019B01082319232A233B23C901B80146
:102ED0001F910F910C94C7160F931F9341E050E080
:102EE00060E070E004C0440F551F661F771F8A958D
:102EF000D2F78091940390919503A0919603B0919D
:102F000097038A019B01082719272A273B27C90114
:102F1000B8011F910F910C94C7160F931F93009146
:102F20009403109195032091960330919703602BA1
:102F3000712B822B932B1F910F910C94C7160F931B
:102F40001F93009194031091950320919603309163
:102F5000970360237123822393231F910F910C9475
:102F6000C7160F931F93009194031091950320911E
:102F700096033091970360277127822793271F912B
:102F80000F910C94C7160895CF92DF92EF92FF92A3
:102F90000F931F93CF93DF938C01C0909803D09031
:102FA0009903E0909A03F0909B0340919403509111
:102FB00095036091960370919703C42AD52AE62A57
:102FC000F72ACFE1D0E0D701C6010C2E04C0B69598
:102FD000A795979587950A94D2F780FF07C0B80107
:102FE0008C2F0E94781B8130910531F4219758F77E
:102FF000B80180E00E94781BDF91CF911F910F9163
:10300000FF90EF90DF90CF900895CF92DF92EF92F4
:10301000FF920F931F93CF93DF93C82F80910B01E3
:103020008823E1F080910C018823C1F08C2F8695D4
:10303000869586958F3008F0A4C0E0910D01F0913F
:103040000E01E80FF11DC77081E090E001C0880F0C
:10305000CA95EAF79181892B818393C0D090AF0301
:103060003091AD03E0910D01F0910E01332309F48D
:1030700073C04091AE038D2D2FEF96E0E92EF12C19
:10308000082F082E000C110BBF01600F711FDB0110
:1030900012969C919C1709F474C02F3F19F491115A
:1030A00001C0282FC801019606E010E0B7010E9478
:1030B0002C298413E5CFD22F4D114EC02F3F69F438
:1030C000842F440F990B0196B8010E942C298093FC
:1030D000AF0331503093AD033FC0822F220F990BC5
:1030E0000196B8010E942C29282FFF24F39406E0B2
:1030F00010E0022E000C330B6F01C20ED31ED6015E
:1031000012965C91552391F08D2FDD0F990BBF0125
:10311000680F791FDB0112965C93D60112961C9200
:103120000196B8010E942C29D82F01C0F394C9013F
:103130000196B8010E942C29282F8413DACF242F5E
:10314000440F330B2F193109C901069666E070E070
:103150000E942C298093AE032091AE03022E000C16
:10316000330BE20FF31FC283C901019666E070E0E2
:103170000E942C298093AE038091AD038F5F8093D2
:10318000AD03DF91CF911F910F91FF90EF90DF90F2
:10319000CF900895EF92FF920F931F93CF93C82F74
:1031A00080910B018823E9F080910C018823C9F0FC
:1031B0008C2F8695869586958F3008F06FC0E091AC
:1031C0000D01F0910E01E80FF11DC77081E090E054
:1031D00001C0880FCA95EAF7809591818923818380
:1031E0005DC02091AF034091AD03442309F456C064
:1031F000E0910D01F0910E010091AE03002E000C44
:10320000110B86E0E82EF12C30E0DF01A20FB31F96
:10321000CD01029612965C915C1336C0DC011C92C3
:1032200041504093AD03411104C01092AF0310927E
:10323000AE034091AE03842F042E000C990B05962B
:1032400066E070E00E942C292817390739F5C091F3
:10325000AF0306E010E0842F440F990B0596B801E8
:103260000E942C299C01482F0596B8010E942C2908
:10327000DF01A80FB91F12968C91811102C02C1387
:10328000EACF2093AE030AC0C9010196B7010E949C
:103290002C29282F8017910709F0B6CFCF911F91C5
:1032A0000F91FF90EF90089581E090E0E0910D0183
:1032B000F0910E01E80FF91F1082019680319105FF
:1032C000A9F708958091B10308959091B103892BD6
:1032D0008093B103089580959091B10389238093E1
:1032E000B10308958093B10308951092B103089536
:1032F0009091B003892B8093B003089580959091AD
:10330000B00389238093B00308951092B003089509
:1033100080939C03089510929C03089580910C0162
:10332000811103C08091AD0308950895E0910D01CE
:10333000F0910E018091B1038083E0910D01F09135
:103340000E0190818091B003892B808380919C0332
:10335000882361F0E0910D01F0910E019081892B9D
:1033600080830E948E19811110929C0380910D011F
:1033700090910E010C94A70C089508950895089556
:10338000CF930E94BE190E9463030E94BF19C0E040
:103390008C2F0E949304672B682B692B29F4CF5F35
:1033A000C630B1F780E001C081E0CF9108951F924F
:1033B0000F920FB60F9211248F939F93AF93BF93E9
:1033C0008091B303811113C08091B4039091B50330
:1033D000A091B603B091B7034196A11DB11D809392
:1033E000B4039093B503A093B603B093B703BF9112
:1033F000AF919F918F910F900FBE0F901F901895D6
:103400008091F103843041F11092B30320E488E10C
:1034100090E00FB6F894A895809360000FBE2093BB
:1034200060000E946A060E944E2283B7817F8460FA
:1034300083BF83B7816083BF7894889583B78E7F7D
:1034400083BF0FB6F894A89580916000886180933F
:103450006000109260000FBE08950E94E0120E946A
:103460006D060C94192482E084BD93E095BD9AEF1B
:1034700097BD80936E0008952FB7F8948091B403A0
:103480009091B503A091B603B091B7032FBF0895F3
:10349000CF92DF92EF92FF920F931F932FB7F89482
:1034A0004091B4035091B5036091B6037091B70396
:1034B0002FBF6A017B01EE24FF248C0120E030E065
:1034C000C016D106E206F30610F4415051099A01E4
:1034D000281B390BC9011F910F91FF90EF90DF90CE
:1034E000CF9008951F920F920FB60F9211248F93D1
:1034F0009F93AF93BF938091B4039091B503A09134
:10350000B603B091B7030196A11DB11D8093B4031A
:103510009093B503A093B603B093B703BF91AF9157
:103520009F918F910F900FBE0F901F9018950E9442
:10353000F009F8942FEF87EA91E6215080409040FF
:10354000E1F700C0000087E090EBDC018093FC0312
:103550009093FD03A093FE03B093FF039CE088E1EA
:103560000FB6F894A895809360000FBE909360000A
:10357000FFCF8D3B50F4883A70F5853A18F58430CA
:10358000F8F4813009F46CC068C0883E98F4803E3D
:10359000B8F48F3B09F061C00E94E0122FEF80E782
:1035A00092E0215080409040E1F700C000000E946E
:1035B000971A53C0803F08F450C090E0906508957A
:1035C00090E00895853A09F44EC0863A09F44EC059
:1035D00083E890E40895883A09F44BC0893A09F4E5
:1035E0004BC08A3A09F44BC08B3A09F44BC08C3A71
:1035F00009F44BC08D3A09F44BC08E3A09F44BC024
:103600008F3A09F44BC0813B09F44BC0803B09F46D
:103610004BC0823B09F44BC0833B09F44BC0843B55
:1036200009F44BC0853B09F44BC0863B09F44BC001
:10363000873B09F44BC0883B09F44BC0893B09F434
:103640004BC08A3B09F44BC08B3B09F44BC08C3B0D
:1036500009F44BC080E094E4089580E090E0089580
:1036600081E090E0089581E890E4089582E890E494
:10367000089582EE94E4089589EE94E408958AEE24
:1036800094E4089585EB94E4089586EB94E408951A
:1036900083EB94E4089584EB94E4089587EB94E439
:1036A00008958CEC94E408958DEC94E4089583E8F7
:1036B00095E408958AE895E4089582E995E40895EB
:1036C00084E995E4089581E296E4089583E296E41E
:1036D000089584E296E4089585E296E4089586E2EA
:1036E00096E4089587E296E408958AE296E40895C0
:1036F0000E942703803EA8F4803C00F5813309F442
:103700005CC038F4893209F452C08A3209F45BC0D3
:103710005FC08933B1F08238A1F0853309F441C02C
:1037200057C0833E41F128F4803E99F0823EB9F0C3
:103730004FC0863E31F1873E71F14AC00E942B0393
:1037400008959091FA0390FD02C091FF41C080EE70
:103750003FC08091FA0380FFFACF89E339C080919E
:10376000FA0382FF0CC08091FA0384FF02C080E05C
:103770002FC083EE2DC08091FA0382FFF4CF82EE3A
:1037800027C08091FA0383FF0AC08091FA0384FD69
:10379000EECF87EE1DC08091FA0383FFF6CF86EE51
:1037A00017C08091FA0385FF06C089E211C080919D
:1037B000FA0385FFFACF85E30BC08091FA0386FFF9
:1037C00006C08AE205C08091FA0386FFFACF81E342
:1037D0000E94B91A08958F929F92AF92BF92EF9272
:1037E000FF920F931F93CF937C01C0E08C2F0E9418
:1037F00093044B015C0100E010E0D501C401002EF0
:1038000004C0B695A795979587950A94D2F780FF3F
:1038100016C0602F7C2F80E00E94781B9C018E15C3
:103820009F0559F0832F807E932F907C11F0803A72
:1038300031F430E02E153F0511F481E009C00F5F2F
:103840001F4F02311105C9F6CF5FC63079F680E00F
:10385000CF911F910F91FF90EF90BF90AF909F90ED
:103860008F900895CF93DF93EC018CE290E00E945B
:10387000EB1B882329F0CE01DF91CF910C94EB1B39
:1038800080E0DF91CF910895CF930E94B61D811102
:1038900002C00E94911DC5E6C15049F00E94630319
:1038A0008FE39CE90197F1F700C00000F5CF89E2B2
:1038B00090E00E94321C811132C18AE290E00E94A5
:1038C000321C882341F00E94B01D0E94911D0E946D
:1038D0007A270E94D82685E090E00E94321C811150
:1038E0000E94971A0E94BD190E94C11D8093B203C5
:1038F00087E090E00E94321C8823C1F18BE190E0C8
:103900000E94321C882351F08091B20381FB222750
:1039100020F991E0922790FB81F90FC08EE090E0B2
:103920000E94321C882361F08091B20382FB22271F
:1039300020F991E0922790FB82F98093B20316C0A0
:1039400080E190E00E94321C9091B203882341F004
:1039500093FB222720F981E0822780FB93F904C0A2
:10396000892F809580FB90F99093B2038091B203E8
:103970000E94C51D0E94D31D8093FA0380EE90E043
:103980000E94321C882341F08091FA03982F909571
:1039900090FB80F98093FA0389E390E00E94321C47
:1039A000882359F08091FA0381FB222720F991E0C6
:1039B000922790FB81F98093FA0382EE90E00E94B7
:1039C000321C882359F08091FA0382FB222720F9C8
:1039D00091E0922790FB82F98093FA0386EE90E0C3
:1039E0000E94321C882359F08091FA0383FB22271E
:1039F00020F991E0922790FB83F98093FA0383EEFC
:103A000090E00E94321C882359F08091FA0384FBD5
:103A1000222720F991E0922790FB84F98093FA0302
:103A200085E390E00E94321C882359F08091FA03CC
:103A300085FB222720F991E0922790FB85F980935E
:103A4000FA0381E390E00E94321C882359F08091B0
:103A5000FA0386FB222720F991E0922790FB86F952
:103A60008093FA0381E190E00E94321C882359F090
:103A70008091FA0387FB222720F991E0922790FB9F
:103A800087F98093FA038091FA030E94D71D8091F1
:103A9000FA0387FB882780F980930C0187E290E086
:103AA0000E94321CC82F8EE190E00E94321C8111CE
:103AB000C2608FE190E00E94321C8111C46080E2FC
:103AC00090E00E94321C8111C86081E290E00E9467
:103AD000321C8111C06182E290E00E94321C81118F
:103AE000C06283E290E00E94321C8111C06484E2D3
:103AF00090E00E94321C882311F0C06802C0CC23E1
:103B000029F08C2F0E94CE1D6C2F03C00E94CA1D6D
:103B1000682F70E080E090E0CF910C94D416CF91A4
:103B200008956DEE7EEF80E090E00E94762960E0DF
:103B300082E090E00E94682960E083E090E00E94CB
:103B4000682960E084E090E00E94682960E085E0F8
:103B500090E00E94682960E086E090E00C9468297B
:103B60006FEF7FEF80E090E00C94762980E090E0AA
:103B70000E94622921E08D3E9E4F09F020E0822FB5
:103B8000089582E090E00C945A29682F82E090E03A
:103B90000C94682983E090E00C945A29682F83E004
:103BA00090E00C94682984E090E00C945A29682FE6
:103BB00084E090E00C94682986E090E00C945A2907
:103BC000682F86E090E00C9468298091BA0380FF0A
:103BD0000BC06091120185E0689FB00111247595BA
:103BE0006795759567952BC081FF09C0609112019B
:103BF00085E0689FB00111247595679520C082FF0C
:103C000007C06091120185E0689FB001112417C0C0
:103C10009091BB039923D1F060911101961788F719
:103C20002091120185E0289F90011124929FA0010C
:103C3000939F500D112470E0CA010E942C29603816
:103C4000710540F46115710539F002C065E070E05E
:103C5000862F08958FE7089581E008958091BA0333
:103C600080FF08C06091100170E0759567957595AB
:103C7000679521C081FF06C06091100170E07595C5
:103C8000679519C082FF04C06091100170E010C0F8
:103C90009091BB039923C1F060910F019617A0F793
:103CA00080911001899FC001112470E00E942C298D
:103CB0006038710528F46115710521F0862F08958B
:103CC0008FE7089581E0089561E070E0F4CF803FD0
:103CD00021F40E94E51D819504C0813F29F40E94D2
:103CE000E51D8093BE030895823F21F40E94E51DE7
:103CF000819504C0833F29F40E94E51D8093BD0394
:103D00000895893F19F40E942E1E05C08A3F31F4A0
:103D10000E942E1E81958093BF0308958B3F21F44E
:103D20000E942E1E819504C08C3F29F40E942E1EF5
:103D30008093C0030895843F21F48091BC03816087
:103D400017C0853F21F48091BC03826011C0863F7B
:103D500021F48091BC0384600BC0873F21F48091E3
:103D6000BC03886005C0883F31F48091BC0380614A
:103D70008093BC0308958D3F21F48091BA03816044
:103D80000BC08E3F21F48091BA03826005C08F3F43
:103D900029F48091BA0384608093BA030895803F28
:103DA00039F48091BE0387FF6CC01092BE0369C0D6
:103DB000813F29F48091BE031816BCF362C0909134
:103DC000BD03823F29F497FF5CC01092BD0359C028
:103DD000833F19F41916CCF354C0893F41F4809104
:103DE000BF0318160CF04DC01092BF034AC08A3FA3
:103DF00029F48091BF0387FF44C0F6CF8B3F39F48D
:103E00008091C00387FF3DC01092C0033AC08C3F31
:103E100029F48091C0031816BCF333C0843F21F409
:103E20008091BC038E7F17C0853F21F48091BC0335
:103E30008D7F11C0863F21F48091BC038B7F0BC026
:103E4000873F21F48091BC03877F05C0883F31F410
:103E50008091BC038F7E8093BC0313C08D3F21F4FF
:103E60008091BA038E7F0BC08E3F21F48091BA03FC
:103E70008D7F05C08F3F29F48091BA038B7F80939B
:103E8000BA038091BD0381110EC08091BE038111E0
:103E90000AC08091BF03811106C08091C0038111C7
:103EA00002C01092BB0308958CEB93E00E94B20C09
:103EB0000E943C1A9093B9038093B80308951F930E
:103EC000CF93DF938091B8039091B9030E94481A71
:103ED000AC019091BB03992321F02091130130E0B4
:103EE00006C0209114018AE0289F900111244217F6
:103EF000530708F485C08091BD03C091BE03D091E3
:103F0000BF031091C003811107C0C11175C0D11149
:103F100073C0111171C074C09F3F19F09F5F9093DF
:103F2000BB03181624F40E94E51D8093BD03809105
:103F3000BD0387FF05C00E94E51D81958093BD03E9
:103F40001C1624F40E94E51D8093BE038091BE03DD
:103F500087FF05C00E94E51D81958093BE03609197
:103F6000BD03662331F1C091BE03CC2311F1062EAF
:103F7000000C770B880B990B0E94332823E333E363
:103F800043E35FE30E9497280E94FB276093BD03F1
:103F90006C2FCC0F770B880B990B0E94332823E3EF
:103FA00033E343E35FE30E9497280E94FB2760937B
:103FB000BE031D1624F40E942E1E8093BF03809121
:103FC000BF0387FF05C00E942E1E81958093BF030B
:103FD000111624F40E942E1E8093C0038091C0030A
:103FE00087FF05C00E942E1E81958093C003DF913C
:103FF000CF911F910C94541F9F3F09F08FCF97CF03
:10400000DF91CF911F910895ECEBF3E085E0DF01A4
:104010001D928A95E9F71092BB031092BA03089596
:10402000833081F128F4813059F08230D1F0089545
:10403000853009F449C0B8F1863009F456C00895B6
:1040400080911401262F30E0280F311D2F3F3105BC
:1040500024F4680F6093140108958FEF8093140186
:10406000089580911301262F30E0280F311D2F3F36
:10407000310524F4680F6093130108958FEF809346
:104080001301089580911201262F30E0280F311D71
:104090002F3F310524F4680F6093120108958FEFCC
:1040A00080931201089580911101262F30E0280F8E
:1040B000311D2F3F310524F4680F609311010895DD
:1040C0008FEF80931101089580911001262F30E029
:1040D000280F311D2F3F310524F4680F6093100124
:1040E00008958FEF80931001089580910F01262F7E
:1040F00030E0280F311D2F3F310524F4680F609305
:104100000F0108958FEF80930F010895833011F10F
:1041100028F4813049F0823091F00895853081F1A2
:1041200020F18630C1F1089580911401681720F4C0
:10413000861B8093140108951092140108958091B4
:104140001301681720F4861B8093130108951092C1
:104150001301089580911201681720F4861B809343
:1041600012010895109212010895809111016817AB
:1041700020F4861B80931101089510921101089577
:1041800080911001681720F4861B80931001089518
:1041900010921001089580910F01681720F4861B7A
:1041A00080930F01089510920F0108950F931F93AC
:1041B0008B3109F475C0A0F58E3009F484C0C0F4C9
:1041C000873009F462C068F4863009F0AAC0809193
:1041D000B203817F8E7F8093B20381E08093C2031C
:1041E000A1C0883009F44AC08B3009F498C099C046
:1041F000813109F472C068F4803109F092C0809175
:10420000B20383FB222720F991E0922790FB83F9E8
:1042100050C0863109F483C0893109F480C081C05F
:10422000853309F463C068F4873209F45FC028F469
:104230008E3108F476C08D515FC0893209F456C0C2
:1042400070C0833438F48A3308F055C0883309F4D9
:1042500066C067C0833409F449C0883409F061C07E
:104260000E94E0120FEF13ED20E3015010402040B8
:10427000E1F700C000000E94971A51C00E94C11DC2
:104280000E94D31D0E94DC1D4AC09091B203892F69
:10429000817090FF12C0917F9E7F9093B20342C0C5
:1042A0008091B20381FB222720F991E0922790FBB5
:1042B00081F98093B203992391F18091B2038160D7
:1042C0008093B2032CC08091B20382FB222720F995
:1042D00091E0922790FB82F9ECCF0E94E01290913E
:1042E0000C0181E0892780930C0119C061E070E026
:1042F00080E090E010C0895341E050E060E070E061
:104300008A019B0104C0000F111F221F331F8A95D1
:10431000D2F7C901B8010E94D4160E94E01281E0D0
:1043200001C080E01F910F91089580E0089580E022
:104330000895CF93C82F8091C203813069F018F09F
:104340008230C9F184C0E0910D01F0910E018081AD
:10435000823209F07EC007C0E0910D01F0910E019C
:104360008081823261F48C2F0E949521811104C0DA
:104370008C2F0E94D6201DC081E090E01AC08C2FA7
:104380000E949721811114C0C43179F048F4CB30D8
:1043900079F0C03109F061C082E08093C20308C0A7
:1043A000C93219F0C83321F058C01092C20355C069
:1043B00081E0817054C0C93291F120F5C43179F1A6
:1043C000B0F4C73009F047C08EE18093140182E356
:1043D000809313018AE08093120184E1809311019C
:1043E00088E08093100188E280930F0134C0CE51A1
:1043F000C63088F5EC2FF0E0E151FD4F80818093CD
:10440000C10329C0CE34E9F020F4CB3421F56AE0B1
:1044100013C0C13579F0C235F1F461E00DC080916F
:10442000C103882319F01092C10315C081E0809365
:10443000C20315C061E006C08091C1030E94102034
:104440000AC06AE08091C1030E94862004C01092D5
:10445000C20380E004C081E002C080E0AACFCF9117
:104460000895E1E8F0E08081886080838081816048
:1044700080838FB7F89493E09093890090ED9093A8
:1044800088008FBF0C947D26EFE6F0E0808182608B
:10449000808381E08093DF030C949826EFE6F0E0C0
:1044A00080818D7F80831092DF0380E00E948B26C5
:1044B00081E00E948B2682E00E948B2683E00E948E
:1044C0008B268091DF030C9498268091DE038F6009
:1044D0008093DE0308951092DE0380E00E948B2615
:1044E00081E00E948B2682E00E948B2683E00E945E
:1044F0008B268091DF030C949826E6EDF3E0808311
:104500008183828383830895E82FF0E0EA52FC4F91
:104510002081422F50E08FEF90E0861B9109841795
:1045200095071CF48FEF80830895620F60830895D0
:10453000CF93DF93D82FC0E06D2F8C2F0E94842261
:10454000CF5FC430C9F7DF91CF910895E82FF0E035
:10455000EA52FC4F8081861710F410820895861B62
:1045600080830895CF93DF93D82FC0E06D2F8C2FD9
:104570000E94A622CF5FC430C9F7DF91CF91089582
:104580008091D5038F608093D50308951092D50351
:1045900008954091D40321E030E0662341F001C04A
:1045A000220F8A95EAF7242B2093D4030895B901AA
:1045B00002C0660F771F8A95E2F7CB0180958423AE
:1045C0008093D4030895CF93DF93D82FC0E06D2F4D
:1045D0008C2F0E94C922CF5FC430C9F7DF91CF91E1
:1045E00008958093D30308958091CE038F608093C4
:1045F000CE0308951092CE031092CD0308958093B8
:10460000CC0308951F920F920FB60F921124EF92D0
:10461000FF920F931F932F933F934F935F936F934B
:104620007F938F939F93AF93BF93CF93DF93EF933A
:10463000FF938091C6038F5F8093C6030AED13E05A
:10464000C0E0D0E0FC2E2091DE0330E00C2E02C052
:10465000369527950A94E2F720FF1AC08091C60389
:1046600081110DC0F8018081882319F08C2F0E94E0
:104670007E26FE01EA52FC4F8081F80180839091F2
:10468000C603F8018081981303C08F2D0E948B26EA
:1046900021960F5F1F4FC430D105A1F68091C5034D
:1046A0008F5F803418F48093C503ACC01092C503AB
:1046B000E090D503E11005C09091CE0391113BC06D
:1046C000A1C08091C4038F5F8093C4039091D303F2
:1046D000981790F71092C4030FEC13E0C0E0D0E0FD
:1046E000F12CC7010C2E02C0969587950A94E2F72B
:1046F00080FF1AC0F8018081882319F081508083DF
:1047000013C08091D40390E00C2E02C0969587953B
:104710000A94E2F761E080FF04C08C2F0E94A62279
:1047200003C08C2F0E94842221960F5F1F4FC4303C
:10473000D105B9F6C1CF8091C3038F5F8093C303C6
:104740002091CC03281708F05DC01092C30340915C
:10475000C7035091CD03A8ECB3E020E030E0C1E006
:10476000D0E0692F70E0022E02C0769567950A941A
:10477000E2F760FF3AC08C91E82FF0E0E555FB4F7F
:104780000491B9016A527C4FFB010083642F70E0F1
:10479000022E02C0769567950A94E2F760FF19C071
:1047A000811115C0BE01022E01C0660F0A94EAF7FE
:1047B00060954623E52FF0E0022E02C0F695E795BE
:1047C0000A94E2F7E0FF11C0962356230EC08150F1
:1047D0000BC08F3741F4BE01022E01C0660F0A9450
:1047E000EAF7462B02C08F5F8C932F5F3F4F1196E5
:1047F0002430310509F0B5CF9093CE034093C70321
:104800005093CD03FF91EF91DF91CF91BF91AF9185
:104810009F918F917F916F915F914F913F912F91D8
:104820001F910F91FF90EF900F900FBE0F901F9070
:1048300018950E94B61D811102C00E94911D0E9410
:10484000DC1D8093FB0380FF02C0869501C080E0E1
:104850000C94A0048091FB0380FF14C0982F9695C0
:10486000292F30E02830310544F49F5F990F817083
:10487000892B8093FB030E94E01D8091FB038695AA
:104880000C94A00408958091FB0380FF14C0982F1E
:104890009695292F30E02230310544F09158990F38
:1048A0008170892B8093FB030E94E01D8091FB03A4
:1048B00086950C94A00408958091FB03982F909501
:1048C000917090FB80F98093FB03992339F0982F26
:1048D0009E7F21F4817082608093FB038091FB03B3
:1048E0000E94E01D8091FB0380FF02C0869501C0FD
:1048F00080E00C94A0049091FB03892F86958F5F34
:104900008F779170893028F4880F892B8093FB036F
:1049100002C09093FB038091FB038E7F91E009F42A
:1049200090E08091FB0390FB80F98093FB030E9451
:10493000E01D8091FB0386950C94A004880F909154
:10494000FB039170892B8093FB038E7F91E009F428
:1049500090E08091FB0390FB80F98093FB030E9421
:10496000E01D8091FB0386950C94A004EF92FF92CA
:104970000F931F93CF93DF930091E50308276111F5
:1049800001C0F1F1C0E0D0E0E62EF82E10E08C2F4F
:104990009C2F2091DE0330E00C2E02C03695279527
:1049A0000A94E2F720FF0BC02091E10330E00C2EC7
:1049B00002C0369527950A94E2F720FD1BC0E1104E
:1049C00009C09801092E02C0369527950A94E2F78E
:1049D00020FF10C02091E0032F2530E002C0369563
:1049E00027959A95E2F720FF03C00E94230502C095
:1049F0000E942F052196C430D10549F6F092E503B7
:104A0000DF91CF911F910F91FF90EF9008950F9339
:104A10001F93CF93DF93C0E0D0E001E010E08C2F34
:104A20000E94EE2694FF0BC08091E00398010C2EAB
:104A300001C0220F0A94EAF7282B2093E00395FF88
:104A40000BC08091E10398010C2E01C0220F0A9443
:104A5000EAF7282B2093E1039F70892F90E08230A2
:104A6000910589F083309105D1F08130910511F5E0
:104A70000C2E01C0880F0A94EAF79091E303892B6A
:104A80008093E30317C02091E203C8010C2E01C0FC
:104A9000880F0A94EAF7822B8093E2030BC02091DF
:104AA000E403C8010C2E01C0880F0A94EAF7822B98
:104AB0008093E4032196C430D10509F0B0CF0E9461
:104AC0001C0561E080E0DF91CF911F910F910C9464
:104AD000B624CF92DF92EF92FF920F931F93CF9362
:104AE000DF939091E403992309F440C01091E5030A
:104AF000C0E0D0E0E82EF12CCC24C394D12C0C2FB4
:104B00008091E40390E00C2E02C0969587950A945C
:104B1000E2F780FF1BC0802F0E94EE26970102C0A3
:104B2000359527958A95E2F720FF08C0C6010C2E1F
:104B300001C0880F0A94EAF7182B08C0C6010C2E92
:104B400001C0880F0A94EAF7809518232196C43093
:104B5000D105A9F660E0812FDF91CF911F910F91D0
:104B6000FF90EF90DF90CF900C94B624DF91CF911F
:104B70001F910F91FF90EF90DF90CF900895AF922B
:104B8000BF92CF92DF92EF92FF920F931F93CF933A
:104B9000DF932091E303222309F445C06B017C01DC
:104BA0001091E503C0E0D0E0AA24A394B12C0C2F0F
:104BB0008091E30390E00C2E02C0969587950A94AD
:104BC000E2F780FF1EC0802F0E94EE26A70196010B
:104BD00004C056954795379527958A95D2F720FFBB
:104BE00008C0C5010C2E01C0880F0A94EAF7182BE3
:104BF00008C0C5010C2E01C0880F0A94EAF7809501
:104C000018232196C430D10591F660E0812FDF9101
:104C1000CF911F910F91FF90EF90DF90CF90BF90B9
:104C2000AF900C94B624DF91CF911F910F91FF901C
:104C3000EF90DF90CF90BF90AF900895AF92BF926A
:104C4000CF92DF92EF92FF920F931F93CF93DF9358
:104C50002091E203222309F445C06B017C011091ED
:104C6000E503C0E0D0E0AA24A394B12C0C2F8091DE
:104C7000E20390E00C2E02C0969587950A94E2F725
:104C800080FF1EC0802F0E94EE26A701960104C05F
:104C900056954795379527958A95D2F720FF08C0F6
:104CA000C5010C2E01C0880F0A94EAF7182B08C022
:104CB000C5010C2E01C0880F0A94EAF780951823CD
:104CC0002196C430D10591F660E0812FDF91CF911C
:104CD0001F910F91FF90EF90DF90CF90BF90AF901A
:104CE0000C94B624DF91CF911F910F91FF90EF901C
:104CF000DF90CF90BF90AF90089508952091E10389
:104D000030E0082E02C0369527950A94E2F720FD80
:104D10000C94230508952091E10330E0082E02C091
:104D2000369527950A94E2F720FD0C942F050895F7
:104D300061E08091E5030C94B624CF92DF92EF926C
:104D4000FF920F931F93CF93DF9306EE13E0C8E01B
:104D5000D0E0E12CF12CCE010E946229F801918370
:104D60008083019699F4C701880F991F9C012A51ED
:104D70003C4F69018E2D0E941305F60191838083BB
:104D8000F80160817181CE010E947629FFEFEF1A50
:104D9000FF0A22960E5F1F4FC031D105E1F6DF9169
:104DA000CF911F910F91FF90EF90DF90CF900895DA
:104DB0000F931F93CF9308E010E0C0E08C2F0E9468
:104DC0001305BC01C8010E947629CF5F0E5F1F4FFB
:104DD000C430A1F7CF911F910F910895E82FF0E013
:104DE000EE0FFF1FEA51FC4F808191810895CF9211
:104DF000DF92EF92FF920F931F93CF9380E190E0A9
:104E00000E9462298C01C12CD12C2DEEE22E2EEFB6
:104E1000F22E0E943503C82F0E943703C89FC0019D
:104E200011249C0183E0220F331F8A95E1F7205C57
:104E30003F4FC216D30680F4C60142960E945A29FB
:104E4000282F30E0C0FE02C0322F2227E20EF31ED0
:104E50008FEFC81AD80ADDCF81E00E151F0509F0C3
:104E600080E0CF911F910F91FF90EF90DF90CF9056
:104E7000089590E0880F991F42960C94622990E063
:104E8000880F991F42960C947629EF92FF920F9308
:104E90001F93CF93DF9300D0CDB7DEB7182F4A838F
:104EA00069830E943503082F0E943703089FC001C1
:104EB0001124189F7001199FF00C11240E943703D0
:104EC00069819701689F200D311D1124C9014A8114
:104ED000840F911D8E5A9F4F0F900F90DF91CF91AD
:104EE0001F910F91FF90EF900C945A298E5A9F4F6B
:104EF0000C9468298F929F92AF92BF92CF92DF92CB
:104F0000EF92FF920F931F93CF93DF930E94320390
:104F10006C010E942F037C01C114D10409F10E948D
:104F2000E2024C01A12CB12C0DEE1EEFA814B90425
:104F300020F4F601C591D49102C0C0E0D0E0BE01DA
:104F40008A2D0E943F270C0F1D1F8FEFA81AB80A49
:104F500082E0C80ED11C80E2A816B10439F702C065
:104F60000DEE1EEFE114F10471F10E94DF026C01FD
:104F7000A12CB12C0E943503C82F0E943703C89F73
:104F8000C001112423E0880F991F2A95E1F7A81684
:104F9000B906C8F4AC14BD0428F4F701EA0DFB1DF2
:104FA000C49101C0C0E06C2FC5010E947627EC2F90
:104FB000F0E0A0FE02C0FE2FEE270E0F1F1F8FEFA6
:104FC000A81AB80AD7CFB80180E190E0DF91CF915D
:104FD0001F910F91FF90EF90DF90CF90BF90AF9017
:104FE0009F908F900C9476290E94F726811102C021
:104FF0000C947A2708950E9402286894B1110C94A9
:10500000912808950E94762888F09F5798F0B92F2C
:105010009927B751B0F0E1F0660F771F881F991FED
:105020001AF0BA95C9F714C0B13091F00E949028D7
:10503000B1E008950C949028672F782F8827B85FE7
:1050400039F0B93FCCF3869577956795B395D9F745
:105050003EF490958095709561957F4F8F4F9F4F4F
:105060000895E89409C097FB3EF49095809570955B
:1050700061957F4F8F4F9F4F9923A9F0F92F96E9A4
:10508000BB279395F695879577956795B795F11119
:10509000F8CFFAF4BB0F11F460FF1BC06F5F7F4FB6
:1050A0008F4F9F4F16C0882311F096E911C07723C8
:1050B00021F09EE8872F762F05C0662371F096E8D1
:1050C000862F70E060E02AF09A95660F771F881FA0
:1050D000DAF7880F9695879597F9089557FD9058B8
:1050E000440F551F59F05F3F71F04795880F97FBAC
:1050F000991F61F09F3F79F0879508951216130666
:105100001406551FF2CF4695F1DF08C01616170694
:105110001806991FF1CF86957105610508940895C9
:10512000E894BB2766277727CB0197F908950E945B
:10513000AA280C941B290E940D2938F00E941429DA
:1051400020F0952311F00C9404290C940A291124C1
:105150000C9491280E946E2870F3959FC1F3950FCF
:1051600050E0551F629FF001729FBB27F00DB11DEB
:10517000639FAA27F00DB11DAA1F649F6627B00D7B
:10518000A11D661F829F2227B00DA11D621F739F64
:10519000B00DA11D621F839FA00D611D221F749F72
:1051A0003327A00D611D231F849F600D211D822FB9
:1051B000762F6A2F11249F5750409AF0F1F08823E0
:1051C0004AF0EE0FFF1FBB1F661F771F881F91500D
:1051D0005040A9F79E3F510580F00C9404290C948F
:1051E00091285F3FE4F3983ED4F3869577956795D1
:1051F000B795F795E7959F5FC1F7FE2B880F911D37
:105200009695879597F9089597F99F6780E870E0DC
:1052100060E008959FEF80EC089500240A9416162C
:10522000170618060906089500240A941216130694
:10523000140605060895092E0394000C11F4882322
:1052400052F0BB0F40F4BF2B11F460FF04C06F5F3E
:105250007F4F8F4F9F4F089597FB072E16F40094B2
:1052600007D077FD09D00E94462907FC05D03EF4FF
:10527000909581959F4F0895709561957F4F089502
:10528000EE0FFF1F0590F491E02D0994AA1BBB1BA4
:1052900051E107C0AA1FBB1FA617B70710F0A61B36
:1052A000B70B881F991F5A95A9F780959095BC0157
:1052B000CD010895F999FECF92BD81BDF89A992745
:1052C00080B50895A8E1B0E042E050E00C947D295B
:1052D000262FF999FECF1FBA92BD81BD20BD0FB612
:1052E000F894FA9AF99A0FBE019608950E946829D7
:1052F000272F0C946929DC01CB01FC01F999FECF21
:1053000006C0F2BDE1BDF89A319600B40D9241504D
:0A5310005040B8F70895F894FFCF5D
:10531A00056F06FD06DA06A606720601019D032838
:10532A0008140A321E404D3639AF0262022C02F3CB
:10533A000186019F01B801D101041E1C70015001B0
:10534A0032011C0352006500640020005300630010
:10535A00610072006600200049004900490000000F
:10536A001E0359006F0075006E0067002000500090
:10537A0069006F006E00650065007200730000002E
:10538A000403090409026D00040100A032090400A3
:10539A000001030101000921110100012240000757
:1053AA0005810308000A090401000103010200093A
:1053BA002111010001224D000705820308000A0994
:1053CA000402000103000000092111010001223634
:1053DA00000705830308000A09040300010300000B
:1053EA000009211101000122390007058403100078
:1053FA0001120110010000000853520300010001CC
:10540A0002000105010906A101050719E029E715AE
:10541A0000250195087501810205081901290595DC
:10542A000575019102950175039101050719002976
:10543A007715002501957875018102C0050109805B
:10544A00A101850216010026B7001A01002AB70039
:10545A00751095018100C0050C0901A1018503168B
:10546A000100269C021A01002A9C027510950181EE
:10547A0000C005010902A1010901A10005091901DC
:10548A002905150025019505750181029501750308
:10549A0081010501093009311581257F95027508B9
:1054AA00810609381581257F950175088106050C45
:1054BA000A38021581257F950175088106C0C00545
:1054CA00010906A101050719E029E715002501953B
:1054DA0008750181029501750881010508190129DC
:1054EA000595057501910295017503910105071945
:1054FA000029FF150026FF00950675088100C001E6
:0A550A00020304050607080900006B
:00000001FF
