:100000000C940E010C9452010C9452010C94520168
:100010000C9452010C9452010C9452010C94520114
:100020000C9452010C9452010C9452010C943A0815
:100030000C94E8080C949C110C9452010C94CF146D
:100040000C9452010C9452010C9452010C94031222
:100050000C9452010C9452010C9452010C945201D4
:100060000C9452010C9452010C9452010C945201C4
:100070000C9452014D096F095A0A6F095A0AB109C5
:10008000D4095A0A290A3C0A028C048C088C018C77
:1000900000D100D001F002F052C04F51504BC14D81
:1000A0004E4AAFC2ABAEACC5C3C7C4C6001080FFDA
:1000B0000E035300740061007200790075000000A7
:1000C00014034E006F0075006B0065006E00730036
:1000D0006800610000000403090409023B000201FA
:1000E00000A03209040000010301010009211101EF
:1000F0000001223F000705810308000A09040100EE
:10010000010300000009211101000122360007054A
:10011000820308000A120110010000000833812048
:100120000103010102000105010980A101850216F8
:10013000010026B7001A01002AB700751095018149
:1001400000C0050C0901A1018503160100269C02CF
:100150001A01002A9C02751095018100C005010951
:1001600006A101050719E029E71500250195087585
:10017000018102950175088101050819012905957C
:100180000575019102950175039101050719002973
:10019000FF150025FF950675088100C000000000CE
:1001A0000000000000000101010202020303040438
:1001B00005050606070808090A0B0B0C0D0E0F10A3
:1001C000111213151617191A1B1D1E20222325277D
:1001D000292B2D2F313335383A3D3F4244474A4D84
:1001E000505356595C5F6266696C7074777B7E828F
:1001F000868A8E9195999DA1A5A9ADB0B4B8BCC0D1
:10020000C3C7CBCED2D5D8DBDFE2E4E7EAECEFF12F
:10021000F3F5F7F8FAFBFCFDFEFFFFFF11241FBE0C
:10022000CFEFD2E0DEBFCDBF04B603FE24C0809185
:100230007D0190917E01A0917F01B0918001873076
:10024000904BA740B04BB9F410927D0110927E0103
:1002500010927F011092800114BE84B7877F84BF03
:1002600088E10FB6F89480936000109260000FBE92
:10027000E0E0F8E1099511E0A0E0B1E0E0EFFFE295
:1002800002C005900D92A031B107D9F721E0A0E19D
:10029000B1E001C01D92AD37B207E1F70E94A105A0
:1002A0000C94F6170C9400000895089584E190E0F2
:1002B000089588E090E00895FC018281882381F010
:1002C000613041F028F0623039F0633039F0089540
:1002D0000C94AB030C94B2030C94CE030C94E60381
:1002E0000895462F672F0C94D016805C0E94C41688
:1002F000089588E990E0089588E890E0089581E005
:10030000089585E008950E9483038AB1807E8AB9AA
:100310008BB18F618BB9089589B180958F71909160
:100320001001981729F08093100185E08093000157
:1003300080910001882381F08150809300018823FF
:1003400039F08FE99FE00197F1F700C0000004C089
:10035000809110018093110181E008958091110135
:10036000089508950895CF93C82F0E941314C7309D
:10037000B0F4C43020F5C13070F10E9460140E94C6
:10038000A314EC2FF0E0E455FF4F849180936E01AD
:100390000E942D1480916E01CF910C940504C730FA
:1003A000D1F40E94A31481E00E94A61481E00E946F
:1003B000751483E00E948314CF910C945A140E9408
:1003C000601486E08C1B0E94A61480E00E94C11479
:1003D000CF910C949D140E9460140E94A31410925B
:1003E0006E0180E0CF910C942D1487B1846887B999
:1003F0008AB180668AB9209A0895833079F028F40A
:10040000813041F0823041F00895843049F08530E8
:1004100049F0089542980895479808955D98089581
:100420005E98089528980895833079F028F48130F3
:1004300041F0823041F00895843049F0853049F030
:100440000895429A0895479A08955D9A08955E9A8C
:100450000895289A08951F93CF93DF9300D000D07A
:100460001F92CDB7DEB7498380917C0180FF1FC00A
:100470008E7F8E30E1F46623D1F0809117018230B7
:1004800010F00E94A3141092170119811F5F60E4FD
:10049000812F0E94861460E2812F0F900F900F90A1
:1004A0000F900F90DF91CF911F910C943A140F9001
:1004B0000F900F900F900F90DF91CF911F910895A3
:1004C0000C940904CF9320917C012E7F2E3009F0EB
:1004D00051C020911701211117C0FC01C19185E085
:1004E0009191C91708F4C92F8150D1F78C2F0E9420
:1004F0000504C11109C00E94CE119093160180938A
:10050000150181E08093170180911701813089F4F2
:1005100080911501909116010E94DA11893B9B4050
:1005200040F080E00E94C1141092140182E0809398
:100530001701809117018230E9F4809112019091A6
:1005400013010E94DA11853F9140A0F00E94CE1164
:100550009093130180931201809114010E948C14D6
:100560008091140190E0019666E070E00E94AB1764
:1005700080931401CF910895FC0180810C940504AF
:1005800038B1242F2095232338B1342B4FB7F8945A
:10059000FC01680F791FE617F70789F0819198E051
:1005A00038B9000000C087FF28B9880F000000C0DC
:1005B00000C000C028B900C09A9591F7ECCF4FBF9A
:1005C000089527B1242B27B99B01220F331F260F33
:1005D000371FB9010E94C00287EC90E00197F1F744
:1005E00000C00000089540E40C94E10260911D01F8
:1005F00087E090E00C94D317CF93DF93CDB7DEB7AD
:1006000028970FB6F894DEBF0FBECDBF4091010111
:10061000A091020120911B0130911C01B0E0B901B1
:100620007727CD010E948617E42FF0E0892F90E014
:10063000BF010E948617292F80E091E08A1B9B0B47
:10064000BF010E9486179C839983920F9D839A8392
:10065000421B4B83832F90E063E070E00E9497176A
:10066000FE01E80FF91F23812F83FE01E80FF91F18
:1006700022812E83FE01E80FF91F8181888761E0C6
:1006800070E0CE0106960E94F30228960FB6F89409
:10069000DEBF0FBECDBFDF91CF910895883058F5F2
:1006A00010921E01811103C01092010122C08730F7
:1006B00019F4109202010EC090E001979695982FC0
:1006C00088279795879590931C0180931B018FEF46
:1006D0008093020180917C0180FF08C0869581583B
:1006E0008F77833030F480916E0101C080E1809378
:1006F00001010C94FC029FEF909302019BE0981B78
:1007000090931E01089587E090E00E94C5178093A2
:100710001D018F3F21F410921D010E94F60280916D
:100720001D0187FF03C08F770C944E0308958091BD
:100730001D01806880931D018F770E944E030C94E9
:10074000F60280911D018F7780931D0180E00E9449
:100750004E030C94F60280911D0187FD0C94A103B9
:100760000C94970380911D01982F9F7791F09158D9
:100770009F778078892B80931D018F7791E009F412
:1007800090E080911D0190FB87F980931D010E94EC
:10079000F60280911D018F770C944E0320911D016C
:1007A000322F3F77832F90E00A975CF491E0930F0C
:1007B0009F77822F8078892B806880931D010E940B
:1007C000F60280911D018F770C944E0330911D012C
:1007D00021E0230F2F77822F90E030780B9724F4BD
:1007E000232B20931D0102C030931D0180911D0118
:1007F0008F7791E009F490E080911D0190FB87F9DB
:1008000080931D018F770C944E03809301010C940B
:10081000FC0280911E01882329F180911A018F5FCB
:1008200080931A0190911E019817E0F410921A011A
:10083000809118019091190190931C0180931B01E4
:100840000E94FC02809118019091190101969093E9
:100850001901809318018115934020F0109219011D
:100860001092180108958091280108950895CF935A
:10087000DF9300D01F92CDB7DEB7209173012430F3
:1008800021F523E029839B838A8382E08093E9001A
:100890008FEF9091E800815095FD06C095ED9A95F7
:1008A000F1F700008111F5CF8091E80085FF0DC0C0
:1008B00040E050E063E070E0CE0101960E944906FE
:1008C0008091E8008E778093E8000F900F900F9052
:1008D000DF91CF910895CF93DF9300D01F92CDB7D2
:1008E000DEB720917301243019F522E029839B8320
:1008F0008A832093E9008FEF9091E800815095FD65
:1009000006C095ED9A95F1F700008111F5CF809121
:10091000E80085FF0DC040E050E063E070E0CE01EC
:1009200001960E9449068091E8008E778093E80046
:100930000F900F900F90DF91CF910895CF93DF9399
:10094000EC0180917301843039F581E08093E900F6
:100950008FEF9091E800815095FD06C095ED9A9536
:10096000F1F700008111F5CF8091E80085FF14C0F8
:1009700040E050E068E070E0CE010E9449068091BE
:10098000E8008E778093E80088E0FE01A0E2B1E005
:1009900001900D928A95E1F7DF91CF9108958091B2
:1009A0007201811109C00E94D7070E942A08809114
:1009B000E20084608093E20008951092720108952D
:1009C0000895089542E061EC81E00E94510742E001
:1009D00061EC82E00C94510780917501833009F439
:1009E00053C030F4813071F0823009F491C0089521
:1009F0008A3009F47DC08B3009F45EC0893009F07B
:100A00009FC020C080917401813A09F099C0809103
:100A1000E800877F8093E8008091780190917901C8
:100A2000892B21F060E080E090E003C068E080E284
:100A300091E070E00E9492068091E8008B778093AD
:100A4000E800089580917401813209F079C08091A5
:100A5000780190917901892B09F072C08091E800AA
:100A6000877F8093E8008091E80082FD05C0809137
:100A700073018111F8CF64C08091F1008093280147
:100A80008091E8008B7758C080917401813A09F019
:100A900057C08091780190917901892B09F050C05D
:100AA0008091E800877F8093E8008091E80080FFD4
:100AB000FCCF80910D013BC080917401813209F01F
:100AC0003FC08091780190917901892BC9F580917F
:100AD000E800877F8093E8000E9486079091760166
:100AE00081E0911101C080E080930D010C94BE0E55
:100AF00080917401813221F58091E800877F809395
:100B0000E8000E9486078091770180931F01089575
:100B100080917401813AA1F48091E800877F8093ED
:100B2000E8008091E80080FFFCCF80911F01809356
:100B3000F1008091E8008E778093E8000C9486079E
:100B4000089584B7877F84BF88E10FB6F8948093B7
:100B50006000109260000FBE90E080E80FB6F8943D
:100B600080936100909361000FBE0E94D7070E949E
:100B70002A088091E20084608093E200789480915A
:100B800073018430E1F70E94BA0A83E091E00E9489
:100B9000720A80917301853069F40E946511809119
:100BA00071018823B1F30E948D11882391F30E9473
:100BB0003306EFCF0E94C60AECCF292F332723300C
:100BC000310599F05CF421303105B1F12230310565
:100BD000C1F58BE390E02AED30E041C021323105D0
:100BE000C9F022323105F9F02CC0992781309105E6
:100BF00041F08230910541F0892B19F5E6EDF0E0E6
:100C000005C0E0ECF0E002C0E0EBF0E0849190E0A1
:100C10009F0125C06623D1F0613099F489E090E00E
:100C200025E031E01CC06623B1F0613051F486E369
:100C300090E027E231E013C082E190E025E131E06D
:100C40000EC080E090E020E030E009C089E090E054
:100C50002CEE30E004C08FE390E02DE531E0FA01A6
:100C600031832083089584E089BD86E089BD09B47D
:100C700000FEFDCF8091D8008F7D8093D8008091B9
:100C8000E00082608093E0008091E00081FDFCCF75
:100C90000895CF92DF92EF92FF920F931F93CF931D
:100CA000DF937C018B01EA010E94A707811131C00B
:100CB000209731F088819981081B190BE80EF91EE5
:100CC000C12CD12C0115110519F18091E80085FD89
:100CD00014C08091E8008E778093E800209741F05F
:100CE000888199818C0D9D1D9983888385E011C031
:100CF0000E94A707882331F30CC0F70181917F017F
:100D00008093F10001501109FFEFCF1ADF0ADACF0B
:100D100080E0DF91CF911F910F91FF90EF90DF90D6
:100D2000CF90089520917A0130917B0126173707E3
:100D300048F06115710539F42091E8002E77209371
:100D4000E80001C0B90120E061157105D1F13091D1
:100D50007301332309F441C0353009F440C03091A8
:100D6000E80033FD38C03091E80032FF06C08091C2
:100D7000E80082FF29C080E008953091E80030FF4C
:100D8000E3CF2091F20030E0FC01281B390BCF01AA
:100D9000820F931F6115710549F08830910530F479
:100DA00081918093F10061507109F1CF21E00897A2
:100DB00009F020E08091E8008E778093E800CF0171
:100DC000C3CF2111C4CFD3CF80917301882329F0E1
:100DD000853069F604C081E0089582E0089583E0DB
:100DE000089520917A0130917B012617370748F04A
:100DF0006115710539F42091E8002E772093E80001
:100E000001C0B90120E061157105D9F1309173017C
:100E1000332309F442C0353009F441C03091E80071
:100E200033FD39C03091E80032FF06C08091E80000
:100E300082FF2AC080E008953091E80030FFE3CFC0
:100E40002091F20030E0FC01281B390BC9018E0F04
:100E50009F1F6115710551F08830910538F4849118
:100E60008093F100319661507109F0CF21E008972D
:100E700009F020E08091E8008E778093E800CF01B0
:100E8000C2CF2111C3CFD2CF80917301882329F023
:100E9000853061F604C081E0089582E0089583E022
:100EA0000895982F953058F59093E900981739F0E8
:100EB0007091EC002091ED005091F00003C0242FC0
:100EC000762F50E021FF19C03091EB003E7F309328
:100ED000EB003091ED003D7F3093ED003091EB0061
:100EE00031603093EB007093EC002093ED00509351
:100EF000F0002091EE0027FF07C09F5FD3CF8F70D7
:100F00008093E90081E0089580E008958091740164
:100F100087FD05C08091E80080FF0EC012C080915F
:100F2000E80082FD05C0809173018111F8CF08951A
:100F30008091E8008B7708C0809173018111EACF1E
:100F400008958091E8008E778093E800089580915D
:100F5000E4009091E50045E62091EC0020FF21C0DF
:100F60002091E80020FD21C020917301222389F007
:100F7000253089F02091EB0025FD0FC02091E40081
:100F80003091E5002817390739F3415041F0C90184
:100F9000E3CF82E0089583E0089581E0089584E03E
:100FA00008952091E80022FFDFCF80E008950E949D
:100FB00034080E943708E0EEF0E080818160808391
:100FC000E8EDF0E080818F77808319BCE3E6F0E004
:100FD0008081816080831092720108950E9434089C
:100FE0000E9437088091D8008F778093D800809135
:100FF000D80080688093D8008091D8008F7D80933E
:10100000D80084E089BD86E089BD09B400FEFDCF2B
:101010001092730110926F01109271011092700181
:1010200042E060E080E00E9451078091E1008E7F05
:101030008093E1008091E20081608093E2008091E2
:10104000E20088608093E2008091E0008E7F8093D0
:10105000E0000895E3E6F0E080818E7F808381E008
:10106000809372010C94EE071092E20008951092A2
:10107000E10008951F920F920FB60F9211242F9343
:101080003F934F935F936F937F938F939F93AF9310
:10109000BF93EF93FF938091E10082FF0BC080919B
:1010A000E20082FF07C08091E1008B7F8093E10026
:1010B0000E94E1048091E10080FF18C08091E2006D
:1010C00080FF14C08091E2008E7F8093E2008091C7
:1010D000E20080618093E2008091D800806280937A
:1010E000D80019BC109273010E94DD048091E100C8
:1010F00084FF30C08091E20084FF2CC084E089BD71
:1011000086E089BD09B400FEFDCF8091D8008F7DB7
:101110008093D8008091E1008F7E8093E1008091E0
:10112000E2008F7E8093E2008091E20081608093F4
:10113000E20080916F01882311F084E007C0809164
:10114000E30087FF02C083E001C081E08093730168
:101150000E94CF048091E10083FF29C08091E200CA
:1011600083FF25C08091E100877F8093E10082E0CA
:101170008093730110926F018091E1008E7F8093C4
:10118000E1008091E2008E7F8093E2008091E20096
:1011900080618093E20042E060E080E00E945107BD
:1011A0008091F00088608093F0000E94E004FF913D
:1011B000EF91BF91AF919F918F917F916F915F91CF
:1011C0004F913F912F910F900FBE0F901F90189548
:1011D0001F920F920FB60F9211242F933F934F93AC
:1011E0005F936F937F938F939F93AF93BF93CF93AF
:1011F000EF93FF93C091E900CF708091EC001092C3
:10120000E9008091F000877F8093F00078940E943D
:1012100024091092E9008091F00088608093F0002A
:10122000C093E900FF91EF91CF91BF91AF919F9152
:101230008F917F916F915F914F913F912F910F907F
:101240000FBE0F901F9018951F93CF93DF93CDB7CC
:10125000DEB7AA970FB6F894DEBF0FBECDBFE4E7A6
:10126000F1E08091F100819321E0EC37F207C9F7BA
:101270000E94EC048091E80083FF1CC1209174015E
:1012800030917501832F90E08A30910508F012C1EA
:10129000FC01E65CFF4F0C94BF17203881F0223828
:1012A00009F008C1809178018F708093E9008091E6
:1012B000EB0085FB882780F91092E90006C0809139
:1012C000700190917101911182609091E800977F77
:1012D0009093E8008093F1001092F100C5C0822F36
:1012E0008D7F09F0E7C0222319F0223061F0E2C0BF
:1012F00080917601813009F0DDC0333009F080E063
:101300008093710128C080917601811124C02091C1
:1013100078012F7009F4CEC02093E9008091EB0092
:1013200080FF19C08091EB00333011F4806211C04E
:1013300080618093EB0081E090E0022E01C0880F75
:101340000A94EAF78093EA001092EA008091EB0099
:1013500088608093EB001092E9008091E800877F1D
:1013600086C02111A7C0109176011F778091E300FC
:101370008078812B8093E3008091E800877F8093C1
:10138000E8000E9486078091E80080FFFCCF8091F2
:10139000E30080688093E300112311F083E001C033
:1013A00082E08093730186C02058223008F082C00A
:1013B00080917601909177018C3D23E0920779F539
:1013C00083E08A838AE289834FB7F894DE0113961B
:1013D00020E03EE051E2E32FF0E050935700E4912B
:1013E00020FF03C0E295EF703F5FEF708E2F90E01B
:1013F000EA3010F0C79601C0C0968D939D932F5F81
:10140000243149F74FBF8091E800877F8093E8003F
:101410006AE270E0CE0101960E94920614C0AE010D
:101420004F5F5F4F609178010E94DD05009709F4DE
:1014300041C02091E800277F2093E800BC0189810A
:101440009A810E94F1068091E8008B778093E800F2
:1014500031C0203879F58091E800877F8093E800DB
:1014600080916F018093F1008091E8008E778093E6
:10147000E8000E9486071EC021111CC090917601D1
:101480009230C0F48091E800877F8093E8009093C9
:101490006F010E94860780916F01811104C08091C5
:1014A000E30087FF02C084E001C081E08093730104
:1014B0000E94E2048091E80083FF0AC08091E80066
:1014C000877F8093E8008091EB0080628093EB003F
:1014D000AA960FB6F894DEBF0FBECDBFDF91CF91B5
:1014E0001F91089590932E0180932D010895E0910E
:1014F0002D01F0912E01309721F00190F081E02D27
:10150000099480E00895E0912D01F0912E0130972B
:1015100021F00280F381E02D0994089520912B01A0
:1015200030912C018217930771F090932C018093D6
:101530002B01E0912D01F0912E01309721F00680D2
:10154000F781E02D099408952091290130912A0115
:101550008217930771F090932A0180932901E091FB
:101560002D01F0912E01309721F00084F185E02DBE
:10157000099408950E94C5110E9483010E9483125C
:101580000E9400140E94E4150C947F170F931F9380
:10159000CF93DF93CDB7DEB72B970FB6F894DEBFAE
:1015A0000FBECDBF0E948C0180E00E94AE01109161
:1015B0003001182789F48FEF89838A831B820E9468
:1015C000CE118160782F9D838C8349815A816B81F4
:1015D0008D810E94C20E3EC09091430191FF04C0D4
:1015E0008B870E94B1018B8520E030E0412F50E0D5
:1015F000BA01022E02C0759567950A94E2F760FF62
:1016000023C02E831F8201E010E002C0000F111FD3
:101610002A95E2F790E08023912321E0892B09F4B9
:1016200020E028870E94CE118160782F9A878987D1
:101630004E815F8168858A850E94C20E809130014B
:1016400080278093300106C02F5F3F4F2530310542
:1016500079F6B1CF10912F010E94770A181781F007
:101660000E94770A80932F012B960FB6F894DEBF65
:101670000FBECDBFDF91CF911F910F910C94B2019E
:101680002B960FB6F894DEBF0FBECDBFDF91CF9182
:101690001F910F910895882309F4B9C0823859F435
:1016A0000E94770A81FDB3C089E30E94EE0F0E9479
:1016B000D80F89E30CC0833871F40E94770A80FD4B
:1016C000A6C083E50E94EE0F0E94D80F83E50E941A
:1016D0000F100C94D80F843859F40E94770A82FDB9
:1016E00096C087E40E94EE0F0E94D80F87E4EFCFE8
:1016F0009CEF980F913A18F40E94EE0FEACF90E217
:10170000980F983050F4877091E001C0990F8A9536
:10171000EAF7892F0E943010DCCF9BE5980F9330B9
:1017200070F4853A29F0863A31F482E890E005C0F9
:1017300081E890E002C083E890E00C948E0A98E57E
:10174000980F933108F063C0883A39F1893A41F132
:101750008A3A49F18B3A51F18C3A59F18D3A61F15B
:10176000803B69F18E3A71F18F3A79F1813B81F1D9
:10177000823B89F1833B91F1843B99F1853BA1F157
:10178000863BA9F1873BB1F1883BB9F1893BC1F1B7
:101790008A3BC9F58AE292E038C082EE90E035C01B
:1017A00089EE90E032C08AEE90E02FC085EB90E0A9
:1017B0002CC086EB90E029C087EB90E026C08CEC33
:1017C00090E023C08DEC90E020C083E891E01DC044
:1017D0008AE891E01AC082E991E017C084E991E0BB
:1017E00014C081E292E011C083E292E00EC084E274
:1017F00092E00BC085E292E008C086E292E005C06C
:1018000087E292E002C080E090E00C94A40A089580
:10181000882309F44BC0823859F40E94770A81FF6B
:1018200045C089E30E94EE0F0E94D80F89E30CC0E7
:10183000833871F40E94770A80FF38C083E50E94E4
:10184000EE0F0E94D80F83E50E940F100C94D80F62
:10185000843859F40E94770A82FF28C087E40E94E6
:10186000EE0F0E94D80F87E4EFCF9CEF980F913ACC
:1018700058F390E2980F983050F4877091E001C0CF
:10188000990F8A95EAF7892F0E943610DFCF9BE5E2
:10189000980F933020F480E090E00C948E0A885AE0
:1018A000833120F480E090E00C94A40A0895CF9254
:1018B000DF92EF92FF920F931F93CF93DF93CDB7F9
:1018C000DEB727970FB6F894DEBF0FBECDBF8C01F1
:1018D00085E0F801DE01119601900D928A95E1F7FD
:1018E000F80130812181F28083819481892B31F04C
:1018F0002F3F31F481E03F3F19F403C081E001C084
:1019000080E080FD1EC239832A8389819A810E94EA
:10191000960F9E838F830E94950F0E94EE0E4E813C
:10192000242F22952F7030E06F812430310509F487
:101930004FC024F42230310570F003C22D30310540
:1019400009F479C12F30310509F4E9C12830310596
:1019500009F0F7C179C0842F807F142F1F7088236E
:1019600011F01295107FFF20D1F0112339F0812F53
:101970006F830E9440100E94D80F6F81862F279698
:101980000FB6F894DEBF0FBECDBFDF91CF911F9190
:101990000F91FF90EF90DF90CF900C944B0B862F20
:1019A0000E94080C112309F4CCC1812F0E9446101B
:1019B00027960FB6F894DEBF0FBECDBFDF91CF9153
:1019C0001F910F91FF90EF90DF90CF900C94D80F64
:1019D000242F26952695237030E02115310521F01E
:1019E00021303105C9F0ADC1FF2021F0862F942FA1
:1019F000937002C080E090E027960FB6F894DEBFA7
:101A00000FBECDBFDF91CF911F910F91FF90EF904F
:101A1000DF90CF900C948E0AFF2021F0862F942F18
:101A2000937002C080E090E027960FB6F894DEBF76
:101A30000FBECDBFDF91CF911F910F91FF90EF901F
:101A4000DF90CF900C94A40A842F837009F076C0A5
:101A5000F11077C1262F229526952770220F220F8D
:101A6000862F8F70C82ED12CE12CF12C022E04C0B1
:101A7000CC0CDD1CEE1CFF1C0A94D2F764FF10C0D6
:101A80006FE070E080E090E004C0660F771F881F71
:101A9000991F2A95D2F7609570958095909503C00F
:101AA00060E070E0CB01242F269526952370422F0D
:101AB00050E042305105D1F04330510559F16C29C5
:101AC0007D298E299F294130510541F127960FB676
:101AD000F894DEBF0FBECDBFDF91CF911F910F9164
:101AE000FF90EF90DF90CF900C94130F6C297D291D
:101AF0008E299F2927960FB6F894DEBF0FBECDBF63
:101B0000DF91CF911F910F91FF90EF90DF90CF90D9
:101B10000C942D0F0E94130FC701B60127960FB624
:101B2000F894DEBF0FBECDBFDF91CF911F910F9113
:101B3000FF90EF90DF90CF900C94F90EFF2019F0FA
:101B4000842F817001C08695882309F4FAC0262F5E
:101B5000229526952770220F220F862F8F70C82E70
:101B6000D12CE12CF12C022E04C0CC0CDD1CEE1C7F
:101B7000FF1C0A94D2F764FF10C06FE070E080E0B1
:101B800090E004C0660F771F881F991F2A95D2F72F
:101B9000609570958095909503C060E070E0CB01F2
:101BA000242F269526952370422F50E04230510570
:101BB000D1F04330510559F16C297D298E299F2997
:101BC0004130510541F127960FB6F894DEBF0FBEA4
:101BD000CDBFDF91CF911F910F91FF90EF90DF90DC
:101BE000CF900C94610F6C297D298E299F2927960F
:101BF0000FB6F894DEBF0FBECDBFDF91CF911F911E
:101C00000F91FF90EF90DF90CF900C947B0F0E948C
:101C1000610FC701B60127960FB6F894DEBF0FBE5D
:101C2000CDBFDF91CF911F910F91FF90EF90DF908B
:101C3000CF900C94470FF11084C0662341F0842F9D
:101C40008F70843021F0407F862F8F70482B942F27
:101C50009F70492F50E04230510509F440C0BCF458
:101C60004115510561F14130510509F06AC02796CF
:101C70000FB6F894DEBF0FBECDBFDF91CF911F919D
:101C80000F91FF90EF90DF90CF900C940C164330A3
:101C90005105A9F14430510509F053C0862F27960C
:101CA0000FB6F894DEBF0FBECDBFDF91CF911F916D
:101CB0000F91FF90EF90DF90CF900C946C162796C9
:101CC0000FB6F894DEBF0FBECDBFDF91CF911F914D
:101CD0000F91FF90EF90DF90CF900C94F515279621
:101CE0000FB6F894DEBF0FBECDBFDF91CF911F912D
:101CF0000F91FF90EF90DF90CF900C9428162796CD
:101D00000FB6F894DEBF0FBECDBFDF91CF911F910C
:101D10000F91FF90EF90DF90CF900C9447164F708B
:101D2000C80127960FB6F894DEBF0FBECDBFDF9176
:101D3000CF911F910F91FF90EF90DF90CF900C9477
:101D40005C0127960FB6F894DEBF0FBECDBFDF91C2
:101D5000CF911F910F91FF90EF90DF90CF9008955A
:101D60000E944D100E9422100E94D80F80E090E047
:101D70000E948E0A80E090E00C94A40A0E943D101C
:101D80000C94B00ECF93DF93CDB7DEB72A970FB682
:101D9000F894DEBF0FBECDBF4E835F83688779871F
:101DA0008A8785E0FE013696DE01119601900D923C
:101DB0008A95E1F74E815F81688579858A850E94E1
:101DC0002B02CE0101960E94570C2A960FB6F8946A
:101DD000DEBF0FBECDBFDF91CF9108950895609310
:101DE00035017093360180933701909338010C943C
:101DF000B00E0F931F930091350110913601209181
:101E0000370130913801062B172B282B392B0093E3
:101E100035011093360120933701309338011F911B
:101E20000F910C94B00E0F931F93009135011091F8
:101E300036012091370130913801062317232823DA
:101E400039230093350110933601209337013093E5
:101E500038011F910F910C94B00E0F931F930091B6
:101E60003501109136012091370130913801062754
:101E7000172728273927009335011093360120931F
:101E80003701309338011F910F910C94B00E0F93CE
:101E90001F93009131011091320120913301309153
:101EA0003401062B172B282B392B0093310110936B
:101EB000320120933301309334011F910F910C9420
:101EC000B00E0F931F9300913101109132012091B8
:101ED000330130913401062317232823392300933B
:101EE00031011093320120933301309334011F915B
:101EF0000F910C94B00E0F931F930091310110912C
:101F00003201209133013091340106271727282709
:101F1000392700933101109332012093330130931C
:101F200034011F910F910C94B00E0895CF92DF925F
:101F3000EF92FF920F931F93CF93DF93EC01C0902A
:101F40003501D0903601E0903701F0903801809152
:101F5000310190913201A0913301B0913401C82A2E
:101F6000D92AEA2AFB2A0FE110E0B701A601002EC8
:101F700004C076956795579547950A94D2F740FF28
:101F800007C0BE01802F0E94F2108130910539F404
:101F90000150110950F7BE0180E00E94F210DF915C
:101FA000CF911F910F91FF90EF90DF90CF90089508
:101FB000E0910E01F0910F01809142018083E09148
:101FC0000E01F0910F01808190914101892B808356
:101FD00080910E0190910F010C94830A40910E01A3
:101FE00050910F0120E030E09FEFFA01E20FF31F64
:101FF0006281681799F09F3F19F4611101C0922F17
:102000002F5F3F4F2630310581F79F3F39F0FA01AE
:10201000E90FF11D97FDFA95828308950895409187
:102020000E0150910F0120E030E0FA01E20FF31FA2
:102030009281981301C012822F5F3F4F26303105E5
:10204000A1F7089581E090E0E0910E01F0910F0179
:10205000E80FF91F1082019688309105A9F70895BD
:1020600090914201982B9093420108958095909110
:1020700042019823909342010895109242010895DD
:1020800090914101982B90934101089580959091F2
:1020900041019823909341010895109241010895C0
:1020A0008B3B60F4883A00F5853AA8F4843088F4D4
:1020B000813009F055C081E090E00895803E08F439
:1020C0004FC0883E30F0803F08F44AC090E09065F1
:1020D000089590E00895853A09F445C0863A09F0DC
:1020E00045C082E890E40895883A09F442C0893AEC
:1020F00009F442C08A3A09F442C08B3A09F442C05A
:102100008C3A09F442C08D3A09F442C0803B09F48C
:1021100042C08E3A09F442C08F3A09F442C0813B72
:1021200009F442C0823B09F442C0833B09F442C037
:10213000843B09F442C0853B09F442C0863B09F464
:1021400042C0873B09F442C0883B09F442C0893B46
:1021500009F442C08A3B09F042C08AE296E408953D
:1021600080E090E0089581E890E4089583E890E4A9
:10217000089582EE94E4089589EE94E408958AEE39
:1021800094E4089585EB94E4089586EB94E408952F
:1021900087EB94E408958CEC94E408958DEC94E43A
:1021A000089583E895E408958AE895E4089582E91E
:1021B00095E4089584E995E4089581E296E408950C
:1021C00083E296E4089584E296E4089585E296E435
:1021D000089586E296E4089587E296E4089580E003
:1021E00094E408950E947101803EA8F4803C00F5BB
:1021F000813309F45CC038F4893209F452C08A3260
:1022000009F45BC05FC08933B1F08238A1F0853337
:1022100009F441C057C0833E41F128F4803E99F053
:10222000823EB9F04FC0863E31F1873E71F14AC01F
:102230000E947501089590916D0190FD02C091FF7B
:1022400041C080EE3FC080916D0180FFFACF89E3ED
:1022500039C080916D0182FF0CC080916D0184FFB7
:1022600002C080E02FC083EE2DC080916D0182FFFF
:10227000F4CF82EE27C080916D0183FF0AC0809168
:102280006D0184FDEECF87EE1DC080916D0183FF4F
:10229000F6CF86EE17C080916D0185FF06C089E2FA
:1022A00011C080916D0185FFFACF85E30BC080914D
:1022B0006D0186FF06C08AE205C080916D0186FF30
:1022C000FACF81E30E945010089580917301843009
:1022D00019F11092440120E488E190E00FB6F894DF
:1022E000A895809360000FBE209360000E941C148C
:1022F00083B7817F846083BF83B7816083BF789415
:10230000889583B78E7F83BF88E10FB6F89480935A
:102310006000109260000FBE08950E9454010E9458
:102320008C010E94550180E00E94AE0191E0811174
:1023300001C090E0892F08951F920F920FB60F925F
:1023400011248F939F93AF93BF9380914401811188
:1023500013C08091450190914601A0914701B09131
:1023600048014196A11DB11D8093450190934601FE
:10237000A0934701B0934801BF91AF919F918F9176
:102380000F900FBE0F901F90189582E084BD93E0D0
:1023900095BD9AEF97BD80936E0008952FB7F8947E
:1023A0008091450190914601A0914701B09148016B
:1023B0002FBF0895CF92DF92EF92FF920F931F935A
:1023C0002FB7F89440914501509146016091470123
:1023D000709148012FBF6A017B01EE24FF248C011C
:1023E00020E030E0C016D106E206F30610F44150BA
:1023F0005109481B590BCA011F910F91FF90EF9093
:10240000DF90CF9008951F920F920FB60F92112474
:102410008F939F93AF93BF93809145019091460115
:10242000A0914701B09148010196A11DB11D809373
:10243000450190934601A0934701B0934801BF9195
:10244000AF919F918F910F900FBE0F901F90189595
:102450000E94D707F8942FEF87EA91E62150804039
:102460009040E1F700C0000087E090EBDC01809332
:102470007D0190937E01A0937F01B09380012CE0B9
:1024800088E190E00FB6F894A895809360000FBEA5
:1024900020936000FFCFFF920F931F93CF93DF93A2
:1024A000F82E80E00E94AE01C0E0D0E0082F10E0DE
:1024B00098010C2E02C0359527950A94E2F720FD6D
:1024C00006C02196C530D10599F780E008C06C2F71
:1024D00070E080E00E947101F812F3CF81E0DF919B
:1024E000CF911F910F91FF900895CF93C82F8CE249
:1024F0000E944B12882321F08C2FCF910C944B1209
:1025000080E0CF910895CF930E94D113811102C032
:102510000E94AC13C5E6C15049F00E948C018FE3C4
:102520009CE90197F1F700C00000F5CF89E20E9415
:10253000751281110FC18AE20E947512882331F051
:102540000E94CB130E94AC130E94071785E00E94E3
:10255000751281110E9428120E94DC13809343019E
:1025600087E00E947512882399F18BE10E94751211
:10257000882351F09091430191FB882780F921E055
:10258000822780FB91F922C08EE00E947512882379
:1025900051F09091430192FB882780F921E0822736
:1025A00080FB92F913C080E10E9475129091430163
:1025B000882341F093FB882780F921E0822780FB64
:1025C00093F904C0892F809580FB90F99093430183
:1025D000809143010E94E0130E94EE1380936D01ED
:1025E00080EE0E947512882341F080916D01982F32
:1025F000909590FB80F980936D0189E30E9475129C
:10260000882359F090916D0191FB882780F921E092
:10261000822780FB91F990936D0182EE0E947512E2
:10262000882359F090916D0192FB882780F921E071
:10263000822780FB92F990936D0186EE0E947512BD
:10264000882359F090916D0193FB882780F921E050
:10265000822780FB93F990936D0183EE0E9475129F
:10266000882359F090916D0194FB882780F921E02F
:10267000822780FB94F990936D0185E30E94751287
:10268000882359F090916D0195FB882780F921E00E
:10269000822780FB95F990936D0181E30E9475126A
:1026A000882359F090916D0196FB882780F921E0ED
:1026B000822780FB96F990936D0181E10E9475124B
:1026C000882359F090916D0197FB882780F921E0CC
:1026D000822780FB97F990936D0180916D010E9494
:1026E000F21387E20E947512C82F8EE10E947512C4
:1026F0008111C2608FE10E9475128111C46080E275
:102700000E9475128111C86081E20E9475128111C8
:10271000C06182E20E9475128111C06283E20E9450
:1027200075128111C06484E20E947512882311F031
:10273000C06802C0CC2329F08C2F0E94E9136C2FB3
:1027400003C00E94E513682F70E080E090E0CF9115
:102750000C94EF0ECF9108956DEE7EEF80E090E047
:102760000E94E11760E082E090E00E94D31760E0F1
:1027700083E090E00E94D31760E084E090E00E9444
:10278000D31760E085E090E00E94D31760E086E018
:1027900090E00C94D3176FEF7FEF80E090E00C9403
:1027A000E11780E090E00E94CD1721E08D3E9E4F22
:1027B00009F020E0822F089582E090E00C94C51784
:1027C000682F82E090E00C94D31783E090E00C94A3
:1027D000C517682F83E090E00C94D31784E090E055
:1027E0000C94C517682F84E090E00C94D31786E012
:1027F00090E00C94C517682F86E090E00C94D317F6
:10280000E1E8F0E08081886080838081816080835E
:102810008FB7F89493E09093890090ED909388009F
:102820008FBF0C94F501EFE6F0E080818260808339
:1028300081E080936C010895CF9380916F008D7F2C
:1028400080936F0010926C01C0E08C2F0E941402E4
:10285000CF5FC630D1F7CF91089580936001809308
:10286000610180936201809363018093640180938E
:1028700065010895E82FF0E0E05AFE4F4081242FD3
:1028800030E08FEF90E0861B9109821793071CF4CC
:102890008FEF80830895640F60830895E82FF0E040
:1028A000E05AFE4F8081861710F410820895861B2F
:1028B0008083089580915F018F6380935F01089505
:1028C00010925F01089590915E0121E030E0082EA2
:1028D00001C0220F0A94EAF7662311F0292B02C0E7
:1028E0002095292320935E010895CF93DF93D82F5D
:1028F000C0E06D2F8C2F0E946314CF5FC630C9F7E4
:10290000DF91CF91089580935D010895E82FF0E065
:10291000E95AFE4F6083089521E030E001C0220FA4
:102920008A95EAF780915601822B80935601809117
:102930005501822B809355010895809156018F6334
:102940008093560108951092560108958093540182
:10295000089590914D0121E030E0082E01C0220F32
:102960000A94EAF767FF02C0292B02C020952923A9
:1029700020934D01E82FF0E0E25BFE4F6F7760831C
:102980000895CF93DF93D82FC0E06D2F8C2F0E9436
:10299000A914CF5FC630C9F7DF91CF9108951F9278
:1029A0000F920FB60F921124EF92FF920F931F9385
:1029B0002F933F934F935F936F937F938F939F9347
:1029C000AF93BF93CF93DF93EF93FF9380914C012D
:1029D0008F5F80934C0106E611E0C0E0D0E0FC2E52
:1029E00080914C0181110DC0F8018081882319F07C
:1029F0008C2F0E94FD01FE01E05AFE4F8081F801FC
:102A00008083F80181918F0190914C01981303C04C
:102A10008F2D0E9414022196C630D10501F78091B6
:102A20004B018F5F803418F480934B01B6C0109235
:102A30004B01E0905F01EE20E9F180914A018F5F48
:102A400080934A0190915D019817A0F510924A0178
:102A500007E511E0C0E0D0E0F12CC7010C2E02C068
:102A6000969587950A94E2F780FF1AC0F801808155
:102A7000882319F08150808313C080915E0190E01B
:102A80000C2E02C0969587950A94E2F761E080FFCC
:102A900004C08C2F0E944E1403C08C2F0E943A1445
:102AA00021960F5F1F4FC630D105B9F686E691E03B
:102AB0000E946202F0905601FF2009F46CC08091E0
:102AC00049018F5F8093490190915401981708F054
:102AD00062C01092490110914D0100915501AEE480
:102AE000B1E080E090E041E050E02F2D30E0082E92
:102AF00002C0369527950A94E2F720FF3CC06C91FE
:102B0000E62FF0E0E456FE4FE491EC01C05ADE4FB0
:102B1000E883212F30E0082E02C0369527950A94CD
:102B2000E2F73C9120FF1AC0611115C0BA01082ECE
:102B300001C0660F0A94EAF760951623202F30E053
:102B4000082E02C0369527950A94E2F720FF13C09D
:102B50000623F62210C061506C930DC06F3741F40C
:102B60009A01082E01C0220F0A94EAF7122B03C023
:102B700021E0230F2C93019611968630910509F0E0
:102B8000B4CFF092560110934D010093550186E6A3
:102B900091E00E94BC020E946002FF91EF91DF91E0
:102BA000CF91BF91AF919F918F917F916F915F91E5
:102BB0004F913F912F911F910F91FF90EF900F90A8
:102BC0000FBE0F901F9018950E94D113811102C063
:102BD0000E94AC130E94F71380937C0180FF02C017
:102BE000869501C080E00C94B30180917C01982F00
:102BF0009695292F30E0273031054CF49F5F990FCF
:102C00008170892B816080937C010E94FB138091ED
:102C10007C0186950C94B30180917C01982F969548
:102C200091F09158990F8170892B80937C018E7F50
:102C300091E009F490E080917C0190FB80F9809311
:102C40007C010E94FB1380917C0186950C94B3015A
:102C500080917C01982F9095917090FB80F98093E2
:102C60007C01992339F0982F9E7F21F48170826036
:102C700080937C0180917C010E94FB1380917C01F8
:102C800080FF02C0869501C080E00C94B3013091B2
:102C90007C01232F26952F5F2F77822F90E03170B4
:102CA00008972CF4220F232B20937C0102C0309331
:102CB0007C0180917C018E7F91E009F490E080910D
:102CC0007C0190FB80F980937C010E94FB13809132
:102CD0007C0186950C94B301880F90917C019170D2
:102CE000982B90937C019E7F21E009F420E0809155
:102CF0007C0120FB80F980937C010E94FB13809172
:102D00007C0186950C94B301DF92EF92FF920F93B2
:102D10001F93CF93DF9380E190E00E94CD177C0159
:102D2000C0E0D0E00DEE1EEF0E947F01D82E0E9481
:102D30008101682F70E08D2D90E00E94861725E0BC
:102D4000880F991F2A95E1F7805C9F4FC817D90714
:102D500070F4CE0142960E94C517282F30E0C0FFC4
:102D600002C0322F2227020F131F2196DDCF81E0F0
:102D7000E016F10609F080E0DF91CF911F910F91ED
:102D8000FF90EF90DF90089590E0880F991F429692
:102D90000C94CD1790E0880F991F42960C94E11780
:102DA000EF92FF921F93CF93DF931F92CDB7DEB7C1
:102DB000F82E162F49830E947F01682F70E08F2D17
:102DC00090E00E9486177C010E948101682F70E0CC
:102DD000C7010E9486177C010E948101682F70E064
:102DE000812F90E00E9486178E0D9F1D4981840FD0
:102DF000911D8E5A9F4F0F90DF91CF911F91FF90A1
:102E0000EF900C94C5178E5A9F4F0C94D3178F9246
:102E10009F92AF92BF92CF92DF92EF92FF920F9369
:102E20001F93CF93DF930E947C017C010E94790164
:102E30005C01E114F104F1F00E9459014C01C0E081
:102E4000D0E00DEE1EEFC815D90520F4F701C590AE
:102E5000D49002C0C12CD12CB6018C2F0E94CA166E
:102E60000C0D1D1D219682E0E80EF11CC032D1052B
:102E700051F702C00DEE1EEFA114B10479F10E94CA
:102E800056017C01C0E0D0E00E947F01D82E0E9454
:102E90008101682F70E08D2D90E00E948617F5E08B
:102EA000880F991FFA95E1F7C817D907B8F4CE151E
:102EB000DF0528F4F501EC0FFD1FD49001C0D12CE3
:102EC0006D2DCE010E9403176D2D70E0C0FF02C072
:102ED000762F6627060F171F2196D6CFB80180E1FF
:102EE00090E0DF91CF911F910F91FF90EF90DF90D5
:102EF000CF90BF90AF909F908F900C94E1170E945D
:102F00008416811102C00C940717089500245527D8
:102F100004C0080E591F880F991F009729F0769555
:102F20006795B8F37105B9F7802D952F0895AA1B01
:102F3000BB1B51E107C0AA1FBB1FA617B70710F0A4
:102F4000A61BB70B881F991F5A95A9F780959095D6
:102F5000BC01CD01089597FB072E16F4009407D00D
:102F600077FD09D00E94971707FC05D03EF4909595
:102F700081959F4F0895709561957F4F0895EE0F4D
:102F8000FF1F0590F491E02D0994F999FECF92BDB1
:102F900081BDF89A992780B50895A8E1B0E042E094
:102FA00050E00C94E817262FF999FECF1FBA92BD76
:102FB00081BD20BD0FB6F894FA9AF99A0FBE01961A
:102FC00008950E94D317272F0C94D417DC01CB014E
:102FD000FC01F999FECF06C0F2BDE1BDF89A319629
:102FE00000B40D9241505040B8F70895F894FFCFC7
:102FF0000510FF33049E0436046B043704013901C5
:00000001FF
