:100000000C9419010C9460010C9460010C94600133
:100010000C9460010C9460010C9460010C946001DC
:100020000C9460010C9460010C947E070C945008B1
:100030000C94F0160C9460010C9460010C94600117
:100040000C9460010C9432200C9460010C946001BB
:100050000C9460010C9458170C9460010C9460018E
:100060000C9460010C9460010C9460010C9460018C
:100070000C9460010C9460010C9460010C9460017C
:100080000C9460010C9460010C9460010C9460016C
:100090000C9460010C9460010C9460010C9460015C
:1000A0000C9460010C9460010C946001B808DB08AA
:1000B0009609DB089609200943099609650978091C
:1000C000800C800CAD0CAD0C080D420DAB0FAB0FCE
:1000D0005A0DAB0F570E570E120F280FAB0F970F7D
:1000E000F0A12CA22CA300F000D200D100D001F18D
:1000F00001F201F401F5C3141A0815171C180C12AB
:10010000132B041607090A0B0D0E0F28E11D1B0601
:10011000190511103637E5E0E3E200C1C200E6C080
:10012000E42A0101520101010101010101015051C3
:100130004F01010101010101010101010101010161
:1001400001010101010100010100010101011E1F66
:1001500020212223242526272D39C9CA0101010186
:100160000101333401C7C8C5C4C60101013801010A
:10017000010100012C000101012E3A3B3C3D3E3FB4
:10018000404142434439C9CA01010101012F3031C4
:1001900001C7C8C5C4C60101013801010101002C15
:1001A0000100010101450123012200200880001007
:1001B00080FF0000000000000000000001010102BB
:1001C00002020303040405050606070808090A0BD2
:1001D0000B0C0D0E0F10111213151617191A1B1DEB
:1001E0001E2022232527292B2D2F313335383A3D48
:1001F0003F4244474A4D505356595C5F6266696CB2
:100200007074777B7E82868A8E9195999DA1A5A92F
:10021000ADB0B4B8BCC0C3C7CBCED2D5D8DBDFE25B
:10022000E4E7EAECEFF1F3F5F7F8FAFBFCFDFEFF8B
:10023000FFFF11241FBECFEFDAE0DEBFCDBF04B653
:1002400003FE27C08091260490912704A0912804E2
:10025000B09129048730904BA740B04BD1F4109255
:10026000260410922704109228041092290414BE28
:1002700084B7877F84BF0FB6F894A89580916000FB
:10028000886180936000109260000FBEE0E0F8E3A8
:10029000099512E0A0E0B1E0E0E1F4E502C00590CC
:1002A0000D92A23EB107D9F724E0A2EEB2E001C060
:1002B0001D92A632B207E1F70E944C050C94062A63
:1002C0000C94000080EB90E008958BE090E008959E
:1002D0000F931F93CF93DF938C01D62FC42F6111FF
:1002E0001DC0FC018281882399F00E944E16C0FD3A
:1002F0008052C1FD8250982F927211F085E301C0A7
:1003000089E28093E2028091E2020E940F0B04C016
:100310008091E2020E94E20B0E948216F801828123
:100320008823B1F1D130A1F5C230F1F050F4CC23E3
:10033000A9F0C13069F5DF91CF911F910F910C9415
:10034000FC22C430E9F0B0F0C53011F561E08EE177
:10035000DF91CF911F910F910C948A23DF91CF9160
:100360001F910F910C94F522DF91CF911F910F9166
:100370000C941823DF91CF911F910F910C942F2390
:1003800061E08EE1DF91CF911F910F910C94792361
:10039000DF91CF911F910F910895462F672F0C94F5
:1003A000C027805C0E94B427089586EF90E00895EE
:1003B00080EE90E008958AB1837D8AB927980895E8
:1003C00084E008958BE0089580E885BF85BF0E9492
:1003D000DB0180B38C7080BB81B3836F81BB8AB13A
:1003E0008F738AB98BB1806C8BB984B18F7884B9E3
:1003F00085B1806785B9ABEEB2E011961C921E9272
:10040000E3EEF2E01182108213961C921E92129774
:100410001382128215961C921E92149715821482D2
:1004200017961C921E921697178216820895FF92B5
:100430000F931F93CF93DF93C3EED2E010E001E060
:10044000E5E0FE2E123041F0133041F0113011F092
:10045000529A05C0539A03C0559A01C0279A80EA60
:100460008A95F1F78FB18170802790E0799903C068
:1004700022E030E002C020E030E0822B932B7C9918
:1004800003C064E070E002C060E070E0862B972B50
:100490007D9903C068E070E002C060E070E0862BE8
:1004A000972B7E9903C020E130E002C020E030E0CD
:1004B000AC01422B532B2FB1022E000C330B209595
:1004C0003095C9018827990F881F992775E0880FF3
:1004D000991F7A95E1F7842B952B1E9903C060E450
:1004E00070E002C060E070E0862B972B1D9903C07E
:1004F00060E870E002C060E070E0862B972B1C99EA
:1005000003C020E031E002C020E030E0AC01422B2B
:10051000532B29B1022E000C330B20953095C901C5
:100520008827990F881F9927982F8827990F842B40
:10053000952B4E9903C020E034E002C020E030E06B
:10054000822B932B288139812817390721F0998331
:100550008883F09200010E94DB011F5F2296143015
:1005600009F070CF80910001882361F18150809360
:100570000001882339F08FE99FE00197F1F700C06F
:10058000000020C08091E3029091E4029093EC027D
:100590008093EB028091E5029091E6029093EE0247
:1005A0008093ED028091E7029091E8029093F0022F
:1005B0008093EF028091E9029091EA029093F20217
:1005C0008093F10281E0DF91CF911F910F91FF9015
:1005D0000895E82FF0E0EE0FFF1FE551FD4F8081F9
:1005E000918108950895E82FF0E0EE0FFF1FEA557E
:1005F000FE4F859194910895CF93C82F0E94511F6B
:10060000C73090F4C430E0F4C13090F10E94891FEB
:100610000E94EF1F0E942A20EC2FF0E0E255FE4FCF
:100620008491CF910C94A61FC730A9F0C83001F572
:100630000E94891F0E94E91F0E942A2081E012C0A7
:100640000E94891F0E94EF1F0E94242086E08C1BBD
:10065000CF910C942F200E94891F0E94E91F0E94B5
:100660002A2080E00E940C2083E0CF910C941A2075
:100670000E94EF1F0E942A2080E00E94A61FCF91B7
:100680000C948F1F1F93CF93DF9300D000D01F9245
:10069000CDB7DEB7162F8091250480FF20C08E7F56
:1006A0008E3041F4662331F080E40E941D2080E208
:1006B0000E94DB1F809125048E7F803181F41123FD
:1006C00071F080E40E941D2080E20F900F900F9047
:1006D0000F900F90DF91CF911F910C94C11F0F903D
:1006E0000F900F900F900F90DF91CF911F91089571
:1006F000089560E0FC0180810C945F2360E0FC01C0
:1007000080810C945F23809103030895CF93DF933E
:1007100000D01F92CDB7DEB79C0180911B048430BE
:1007200019F593E099833B832A839093E9008FEF37
:100730009091E800815095FD06C095ED9A95F1F7EE
:1007400000008111F5CF8091E80085FF0DC040E0E9
:1007500050E063E070E0CE0101960E94F2058091C6
:10076000E8008E778093E8000F900F900F90DF9154
:10077000CF910895CF93DF9300D01F92CDB7DEB70E
:1007800020911B04243021F522E029839B838A8356
:1007900083E08093E9008FEF9091E800815095FD10
:1007A00006C095ED9A95F1F700008111F5CF809183
:1007B000E80085FF0DC040E050E063E070E0CE014E
:1007C00001960E94F2058091E8008E778093E80000
:1007D0000F900F900F90DF91CF91089520911B04FF
:1007E0002430F1F422E02093E9002FEF3091E8006B
:1007F000215035FD06C035ED3A95F1F70000211185
:10080000F5CF2091E80025FF0BC040E050E065E007
:1008100070E00E94F2058091E8008E778093E800F6
:100820000895CF93DF93EC0190911B04943009F06D
:1008300046C080910B018823D9F080910C01882358
:10084000B9F09093E9008FEF9091E800815095FD09
:1008500006C095E19A95F1F700008111F5CF8091DE
:10086000E80085FF2CC040E050E060E170E017C078
:1008700081E08093E9008FEF9091E800815095FD31
:1008800006C095ED9A95F1F700008111F5CF8091A2
:10089000E80085FF14C040E050E068E070E0CE0161
:1008A0000E94F2058091E8008E778093E80080E155
:1008B000FE01A3EFB2E001900D928A95E1F7DF917E
:1008C000CF91089580911A04811109C00E940507F3
:1008D0000E9460078091E20084608093E2000895A6
:1008E00010921A0408950895089542E061EC81E0A1
:1008F0000E94A00642E061EC82E00E94A00642E075
:1009000061EC83E00E94A00642E161EC84E00C947B
:10091000A00680911D04833009F455C030F4813065
:1009200071F0823009F48EC008958A3009F47AC0DB
:100930008B3009F460C0893009F09CC020C08091E0
:100940001C04813A09F096C08091E800877F80936B
:10095000E8008091200490912104892B21F460E12A
:1009600083EF92E003C060E080E090E070E00E94DE
:100970003D068091E8008B778093E8000895809190
:100980001C04813209F076C08091200490912104EA
:10099000009719F0039709F06DC08091E800877FF8
:1009A0008093E8008091E80082FD05C080911B04DF
:1009B0008111F8CF5FC08091F10080930303809193
:1009C000E8008B7753C080911C04813A09F052C033
:1009D0008091200490912104892B09F04BC08091D3
:1009E000E800877F8093E8008091E80080FFFCCFDB
:1009F00080910B0136C080911C048132D9F5809121
:100A0000200490912104892BA9F58091E800877F2B
:100A10008093E8000E94B40680911E0480930B012D
:100A20000C94CC0F80911C04813221F58091E80058
:100A3000877F8093E8000E94B40680911F04809312
:100A40000403089580911C04813AA1F48091E80088
:100A5000877F8093E8008091E80080FFFCCF809141
:100A600004038093F1008091E8008E778093E80082
:100A70000C94B40608950895089508950C943D05C6
:100A80000E94AA1680911904882329F00E94D71683
:100A900081110C94DC05089584B7877F84BF0FB65D
:100AA000F894A8958091600088618093600010920E
:100AB00060000FBE90E080E80FB6F894809361006C
:100AC000909361000FBE0E943B050E94FE090E94A8
:100AD00005070E9460078091E20084608093E20035
:100AE000789480911B048430E1F70E94000A81E031
:100AF00091E00E94AA090E943C0580911B04853068
:100B000019F40E944005F9CF0E94120AF6CF0C9406
:100B1000EC160C948705292F332723303105C1F0BB
:100B20005CF42130310579F022303105E9F58DE6AC
:100B300090E02AE531E03CC021323105C1F022329B
:100B4000310511F131C082E190E027EC31E030C095
:100B500099278330910540F5FC01EE0FFF1FE25D00
:100B6000FE4F20813181FC01E55DFE4F1AC06430EB
:100B7000D8F4E62FF0E0EE0FFF1FED5DFE4F208171
:100B8000318189E090E014C0643070F470E0FB01C2
:100B9000EE0FFF1FE55EFE4F20813181FB01E95E14
:100BA000FE4F808190E004C080E090E020E030E0E3
:100BB000FA0131832083089580E189BD82E189BDF6
:100BC00009B400FEFDCF8091D8008F7D8093D800BE
:100BD0008091E00082608093E0008091E00081FDE0
:100BE000FCCF0895CF92DF92EF92FF920F931F9365
:100BF000CF93DF93EC018B016A010E94D306811130
:100C000033C0C114D10439F0F60180819181081BF1
:100C1000190BC80FD91FE12CF12C0115110519F181
:100C20008091E80085FD16C08091E8008E77809362
:100C3000E800C114D10449F0F60180819181E80EE9
:100C4000F91EF182E08285E00FC00E94D30688235E
:100C500021F30AC089918093F10001501109FFEF3F
:100C6000EF1AFF0ADACF80E0DF91CF911F910F9149
:100C7000FF90EF90DF90CF90089520912204309163
:100C800023042617370748F06115710539F42091C0
:100C9000E8002E772093E80001C0B90140E061151B
:100CA0007105A9F120911B04222309F443C02530CA
:100CB00009F442C02091E80023FD40C02091E800E3
:100CC00022FD32C02091E80020FFE9CF4091F300DF
:100CD0002091F20030E0342BFC01CF016115710549
:100CE00059F02830310540F481918093F100615032
:100CF00071092F5F3F4FF1CF41E02830310509F0F6
:100D000040E02091E8002E772093E800C8CF411101
:100D1000C9CF0AC080911B04882361F0853061F03F
:100D20008091E80083FD0AC08091E80082FFF2CF45
:100D300080E0089582E0089583E0089581E00895B9
:100D40008F708093E900EBEEF0E08081816080831A
:100D5000EDEEF0E010826093EC0040838091EE00B5
:100D6000881F8827881F089580911C0487FF11C061
:100D70008091E80082FD05C080911B048111F8CFAD
:100D800011C08091E8008B770BC080911B048823F1
:100D900049F08091E80080FFF8CF8091E8008E77DD
:100DA0008093E80008952091E4003091E50095E6F5
:100DB0004091EC00842F817040FF22C08091E800B8
:100DC00080FD1CC080911B04882391F0853091F038
:100DD0008091EB0085FD10C04091E4005091E5004A
:100DE0004217530729F39A01915011F784E00895AF
:100DF00082E0089583E0089581E0089580E00895F9
:100E00004091E80042FFDECF08950E9471070E94E2
:100E10007907E0EEF0E0808181608083E8EDF0E02A
:100E200080818F77808319BCA7EDB0E08C918E7F95
:100E30008C9380818F7E808310921A0408950F9383
:100E40001F93CF93DF930E9471070E947907C8ED2B
:100E5000D0E088818F7788838881806888838881C3
:100E60008F7D888319BC10921B0410921804109275
:100E7000190400EE10E0F80180818B7F8083888167
:100E80008160888342E060E080E00E94A006E1EE9D
:100E9000F0E080818E7F8083E2EEF0E080818160EF
:100EA0008083808188608083F80180818E7F808349
:100EB000888180618883DF91CF911F910F91089580
:100EC000E8EDF0E080818F7E8083E7EDF0E08081C7
:100ED0008160808384E082BF81E080931A040C9457
:100EE0001F07E8EDF0E080818E7F80831092E200A2
:100EF00008951092DA001092E10008951F920F9267
:100F00000FB60F9211242F933F934F935F936F93DC
:100F10007F938F939F93AF93BF93EF93FF938091B2
:100F2000E10082FF0BC08091E20082FF07C0809148
:100F3000E1008B7F8093E1000E9474048091DA00CD
:100F400080FF1FC08091D80080FF1BC08091DA0015
:100F50008E7F8093DA008091D90080FF0DC080E100
:100F600089BD82E189BD09B400FEFDCF81E0809397
:100F70001B040E94620405C019BC10921B040E944D
:100F800070048091E10080FF19C08091E20080FF31
:100F900015C08091E2008E7F8093E2008091E20094
:100FA00080618093E2008091D80080628093D800B5
:100FB00019BC85E080931B040E943E058091E100EE
:100FC00084FF30C08091E20084FF2CC080E189BDA5
:100FD00082E189BD09B400FEFDCF8091D8008F7DEC
:100FE0008093D8008091E1008F7E8093E100809112
:100FF000E2008F7E8093E2008091E2008160809326
:10100000E20080911804882311F084E007C08091E9
:10101000E30087FD02C081E001C083E080931B04F0
:101020000E9489058091E10083FF29C08091E20040
:1010300083FF25C08091E100877F8093E10082E0FB
:1010400080931B04109218048091E1008E7F80939E
:10105000E1008091E2008E7F8093E2008091E200C7
:1010600080618093E20042E060E080E00E94A006A0
:101070008091F00088608093F0000E947304FF91DB
:10108000EF91BF91AF919F918F917F916F915F9100
:101090004F913F912F910F900FBE0F901F90189579
:1010A0001F920F920FB60F9211242F933F934F93DD
:1010B0005F936F937F938F939F93AF93BF93CF93E0
:1010C000DF93EF93FF93C091E900CF708091EC0024
:1010D000D82FD17080FDD0E81092E9008091F00007
:1010E000877F8093F00078940E9494081092E90022
:1010F0008091F00088608093F000CD2BCF70C0937A
:10110000E900FF91EF91DF91CF91BF91AF919F9156
:101110008F917F916F915F914F913F912F910F90A0
:101120000FBE0F901F9018951F93CF93DF9300D0A1
:10113000CDB7DEB7ECE1F4E088E08E0F9091F100DE
:1011400091938E13FBCF0E9489048091E80083FF66
:10115000EDC080911C0490911D04492F50E04A304D
:10116000510508F0E3C0FA01EA5AFF4F0C94CF2969
:10117000803881F0823809F0D9C0809120048F70C6
:101180008093E9008091EB0085FB882780F910921D
:10119000E90007C080911904882311F082E001C0A2
:1011A00080E09091E800977F9093E8008093F100B1
:1011B0001092F10095C0282F2D7F09F0B7C0882329
:1011C00019F0823061F0B2C080911E04813009F0C4
:1011D000ADC0933009F080E0809319042BC080915A
:1011E0001E04811127C0809120048F7009F49EC0D5
:1011F0008093E9002091EB0020FF1CC0933021F484
:101200008091EB00806214C09091EB00906190930C
:10121000EB0021E030E0A90102C0440F551F8A9580
:10122000E2F74093EA001092EA008091EB008860B8
:101230008093EB001092E9008091E800877F53C013
:10124000811174C010911E041F778091E300807893
:10125000812B8093E3008091E800877F8093E800F2
:101260000E94B4068091E80080FFFCCF8091E300EB
:1012700080688093E300111102C082E001C083E026
:1012800080931B0453C08058823008F04FC0AE01D9
:101290004F5F5F4F6091200480911E0490911F0466
:1012A0000E948B05BC01892B09F440C09091E80095
:1012B000977F9093E80089819A810E943D068091F2
:1012C000E8008B778093E80031C0803879F5809111
:1012D000E800877F8093E800809118048093F100F4
:1012E0008091E8008E778093E8000E94B4061EC0CB
:1012F00081111CC090911E049230C0F48091E800CE
:10130000877F8093E800909318040E94B406809130
:101310001804811106C08091E30087FD02C081E0BE
:1013200001C084E080931B040E9475048091E80052
:1013300083FF0AC08091E800877F8093E800809156
:10134000EB0080628093EB000F900F90DF91CF91C4
:101350001F91089590930A03809309030895E091E3
:101360000903F0910A03309721F00190F081E02DFC
:10137000099480E00895E0910903F0910A03309701
:1013800021F00280F381E02D09940895E091090392
:10139000F0910A03309721F00480F581E02D099443
:1013A000089520910703309108038217930771F085
:1013B0009093080380930703E0910903F0910A03D7
:1013C000309721F00680F781E02D0994089520914F
:1013D0000503309106038217930771F0909306037B
:1013E00080930503E0910903F0910A03309721F0FF
:1013F0000084F185E02D0994089508950C94FD0969
:101400000E9419170E94E4010E942E190E941827B9
:101410000E941A250E943A1F0E94C6230E94A622FB
:101420000C946F284F925F927F928F929F92AF920F
:10143000BF92CF92DF92EF92FF920F931F93CF93C1
:10144000DF9300D000D01F92CDB7DEB70E94170205
:101450009CE0C92E93E0D92E00E010E0AA24A394CA
:10146000B12C702E802F0E94E9024C01F6014190B0
:1014700051906F014826592641145104B1F40F5F71
:101480001F4F0430110569F78FEF89838A831B8210
:101490000E9422178160782F9D838C8349815A8115
:1014A0006B818D810E94CF0A41C080916A0381FDCA
:1014B0000E94F20220E030E07501022E02C0EE0C24
:1014C000FF1C0A94E2F7C70184219521892B41F181
:1014D00029837A828E209F2091E0892809F490E068
:1014E0009B830E9422178160782F9D838C83498182
:1014F0005A816B818D810E94CF0A49815A816B810B
:101500007C818D810E944203000F111FF801E45F6E
:10151000FC4F80819181E826F926F182E08206C0A5
:101520002F5F3F4F2B30310539F6A9CF0E94A81607
:101530000E94681C10910B030E94AF091817D1F08C
:101540000E94AF0980930B030F900F900F900F90A4
:101550000F90DF91CF911F910F91FF90EF90DF904F
:10156000CF90BF90AF909F908F907F905F904F9063
:101570000C94A5250F900F900F900F900F90DF9176
:10158000CF911F910F91FF90EF90DF90CF90BF9080
:10159000AF909F908F907F905F904F900895CF93E2
:1015A000DF93CDB7DEB72B970FB6F894DEBF0FBE33
:1015B000CDBF942F4F83252F588769877A878B87D4
:1015C0004A855B85452B21F02F3F09F59F3FF9F4B4
:1015D000DE01119686E0FD0111928A95E9F785E01A
:1015E000FE01379601900D928A95E1F749815A8163
:1015F0006B817C818D819E810E9466122B960FB635
:10160000F894DEBF0FBECDBFDF91CF9108954F811B
:10161000588569857A858B850E944203D9CFCF93FF
:10162000882309F4CDC0C82F823859F40E94AF092D
:1016300081FDC6C089E30E94F1140E94821689E3ED
:101640000CC0833879F40E94AF0980FDB9C083E5EE
:101650000E94F1140E94821683E50E94B615CF9174
:101660000C948216843859F40E94AF0982FDA8C0F8
:1016700087E40E94F1140E94821687E4EECF8CEF7B
:101680008C0F813A48F48C2F0E94A21E811198C0C1
:101690008C2F0E94F114E3CF80E28C0F883048F445
:1016A000C77081E001C0880FCA95EAF70E94511601
:1016B000D6CF8BE58C0F833078F4C53A29F0C63A43
:1016C00031F083E890E005C081E890E002C082E854
:1016D00090E0CF910C94D10988E58C0F853108F00A
:1016E0006FC0C83A61F1C93A69F1CA3A71F1CB3AAF
:1016F00079F1CC3A81F1CD3A89F1CE3A91F1CF3AF4
:1017000099F1C13BA1F1C03BA9F1C23BB1F1C33B8F
:10171000B9F1C43BC1F1C53BC9F1C63BD1F1C73BEF
:10172000D9F1C83BE1F1C93BE9F1CA3BF1F1CB3B4F
:10173000F9F1CC3B09F43FC080E090E03EC082EE7E
:1017400090E03BC089EE90E038C08AEE90E035C072
:1017500085EB90E032C086EB90E02FC083EB90E009
:101760002CC084EB90E029C087EB90E026C08CEC85
:1017700090E023C08DEC90E020C083E891E01DC094
:101780008AE891E01AC082E991E017C084E991E00B
:1017900014C081E292E011C083E292E00EC084E2C4
:1017A00092E00BC085E292E008C086E292E005C0BC
:1017B00087E292E002C08AE292E0CF910C94E709BE
:1017C000CF910895882309F44BC0823859F40E94C0
:1017D000AF0981FF45C089E30E94F1140E9482167F
:1017E00089E30CC0833871F40E94AF0980FF38C0D0
:1017F00083E50E94F1140E94821683E50E94B615CB
:101800000C948216843859F40E94AF0982FF28C0D4
:1018100087E40E94F1140E94821687E4EFCF9CEFC8
:10182000980F913A58F390E2980F983050F48770DF
:1018300091E001C0990F8A95EAF7892F0E94571607
:10184000DFCF9BE5980F933020F480E090E00C947C
:10185000D109885A853120F480E090E00C94E709A2
:101860000895882321F00E9451160C948216089541
:10187000882321F00E9457160C9482160895CF9267
:10188000DF92EF92FF920F931F93CF93DF93CDB729
:10189000DEB727970FB6F894DEBF0FBECDBF25E0A9
:1018A000FC01DE01119601900D922A95E1F7FC01F1
:1018B000408131810281258122952F70638174815D
:1018C000672B09F448C33F3F19F44F3F09F443C362
:1018D0006C0149833A8389819A812F830E94B014D5
:1018E000182F9E830E94AF140E94BF139E81E92F80
:1018F000E295EF70F0E0E05AFF4F2F810C94CF2972
:10190000892F807F9F70F92E882319F0F29490EF31
:10191000F922002349F0FF2009F45FC28F2D0E94B5
:1019200064160E94821659C2812F0E94E20BFF208A
:1019300009F411C38F2D0E946A1627960FB6F894EA
:10194000DEBF0FBECDBFDF91CF911F910F91FF90F2
:10195000EF90DF90CF900C948216892F807F9F703C
:10196000F92E803219F0F29480EFF822112319F049
:10197000113001F129C00023A9F08F2D222349F154
:10198000213039F527960FB6F894DEBF0FBECDBFD4
:10199000DF91CF911F910F91FF90EF90DF90CF904B
:1019A0000C947416222319F0213009F4D4C20E9439
:1019B00077162CC00023E9F0263008F0CCC20E9434
:1019C0004E168F2129F022C00023F1F0211115C0FD
:1019D0008F2D27960FB6F894DEBF0FBECDBFDF91D7
:1019E000CF911F910F91FF90EF90DF90CF900C94CB
:1019F000310C253008F0AFC209C0F601858180FFA7
:101A0000ECC18F708583E4CF2111FBC18F2D69C19B
:101A1000292F26952695237030E02115310521F0D8
:101A200021303105C1F097C2002319F0812F937046
:101A300002C080E090E027960FB6F894DEBF0FBE9C
:101A4000CDBFDF91CF911F910F91FF90EF90DF906D
:101A5000CF900C94D109002319F0812F937002C00C
:101A600080E090E027960FB6F894DEBF0FBECDBFA2
:101A7000DF91CF911F910F91FF90EF90DF90CF906A
:101A80000C94E709812F002319F00E94701B02C0FB
:101A90000E94D81B27960FB6F894DEBF0FBECDBFAD
:101AA000DF91CF911F910F91FF90EF90DF90CF903A
:101AB0000C945D1C892F837009F079C001114BC211
:101AC000812F829586958770880F880F212F2F7020
:101AD000C22ED12CE12CF12C082E04C0CC0CDD1C24
:101AE000EE1CFF1C0A94D2F714FF12C04FE050E026
:101AF00060E070E004C0440F551F661F771F8A9591
:101B0000D2F78A019B01009510952095309503C06E
:101B100000E010E09801969596959370492F50E05B
:101B2000C901B80142305105D1F04330510559F196
:101B30006C297D298E299F294130510541F1279635
:101B40000FB6F894DEBF0FBECDBFDF91CF911F91CE
:101B50000F91FF90EF90DF90CF900C94D4136C29ED
:101B60007D298E299F2927960FB6F894DEBF0FBED8
:101B7000CDBFDF91CF911F910F91FF90EF90DF903C
:101B8000CF900C94E6130E94D413C701B601279698
:101B90000FB6F894DEBF0FBECDBFDF91CF911F917E
:101BA0000F91FF90EF90DF90CF900C94C213002321
:101BB00019F0892F817001C08695882309F4CBC163
:101BC000812F829586958770880F880F212F2F701F
:101BD000C22ED12CE12CF12C082E04C0CC0CDD1C23
:101BE000EE1CFF1C0A94D2F714FF12C04FE050E025
:101BF00060E070E004C0440F551F661F771F8A9590
:101C0000D2F78A019B01009510952095309503C06D
:101C100000E010E09801969596959370492F50E05A
:101C2000C901B80142305105D1F04330510559F195
:101C30006C297D298E299F294130510541F1279634
:101C40000FB6F894DEBF0FBECDBFDF91CF911F91CD
:101C50000F91FF90EF90DF90CF900C948B146C2934
:101C60007D298E299F2927960FB6F894DEBF0FBED7
:101C7000CDBFDF91CF911F910F91FF90EF90DF903B
:101C8000CF900C949D140E948B14C701B601279627
:101C90000FB6F894DEBF0FBECDBFDF91CF911F917D
:101CA0000F91FF90EF90DF90CF900C947914103F3C
:101CB00041F118F4103E48F48BC0123F09F450C0B3
:101CC000D8F1133F09F460C083C01F70892F8F7152
:101CD000002321F00E941214812F7BCE0E94331426
:101CE000812F27960FB6F894DEBF0FBECDBFDF91D0
:101CF000CF911F910F91FF90EF90DF90CF900C94B8
:101D0000380C0023A9F0253008F025C1892F8F71E8
:101D100027960FB6F894DEBF0FBECDBFDF91CF91EF
:101D20001F910F91FF90EF90DF90CF900C9458147B
:101D3000263008F010C1EACF0023A1F0892F8F715F
:101D400027960FB6F894DEBF0FBECDBFDF91CF91BF
:101D50001F910F91FF90EF90DF90CF900C94121491
:101D6000002361F3892F8F7127960FB6F894DEBF99
:101D70000FBECDBFDF91CF911F910F91FF90EF90DC
:101D8000DF90CF900C943314002391F0892F8F7142
:101D900027960FB6F894DEBF0FBECDBFDF91CF916F
:101DA0001F910F91FF90EF90DF90CF900C94FD1357
:101DB00027960FB6F894DEBF0FBECDBFDF91CF914F
:101DC0001F910F91FF90EF90DF90CF900C94F8133C
:101DD0000023A1F0222309F4B1CF812F27960FB65B
:101DE000F894DEBF0FBECDBFDF91CF911F910F9151
:101DF000FF90EF90DF90CF900C940F0B222309F40B
:101E0000B1CF812F27960FB6F894DEBF0FBECDBF9E
:101E1000DF91CF911F910F91FF90EF90DF90CF90C6
:101E20000C94E20B492F4F70612FC6010E94D1180C
:101E300027960FB6F894DEBF0FBECDBFDF91CF91CE
:101E40001F910F91FF90EF90DF90CF900C940A13A9
:101E5000011181C0112341F0892F8F70843021F04E
:101E6000907F212F2F70922B9F70892F90E08230CE
:101E70009105E9F1ACF4009751F1019709F06BC0BD
:101E800027960FB6F894DEBF0FBECDBFDF91CF917E
:101E90001F910F91FF90EF90DF90CF900C94F02363
:101EA00083309105A1F1049709F055C0812F279641
:101EB0000FB6F894DEBF0FBECDBFDF91CF911F915B
:101EC0000F91FF90EF90DF90CF900C944B242796CA
:101ED0000FB6F894DEBF0FBECDBFDF91CF911F913B
:101EE0000F91FF90EF90DF90CF900C94D72327961F
:101EF0000FB6F894DEBF0FBECDBFDF91CF911F911B
:101F00000F91FF90EF90DF90CF900C9409242796CB
:101F10000FB6F894DEBF0FBECDBFDF91CF911F91FA
:101F20000F91FF90EF90DF90CF900C942824492FD1
:101F30004F70612FC60127960FB6F894DEBF0FBE13
:101F4000CDBFDF91CF911F910F91FF90EF90DF9068
:101F5000CF900C94680127960FB6F894DEBF0FBEA1
:101F6000CDBFDF91CF911F910F91FF90EF90DF9048
:101F7000CF9008950E9471160E9440160E9482160A
:101F80000E940D1D0E945D1C80E090E00E94D1091E
:101F900080E090E00C94E7090E9461160C94BA0F5F
:101FA0000E94B014292F22952F7030E02C3031057B
:101FB0004CF42A3031056CF42250310922303105BD
:101FC00088F407C02C30310549F02F30310531F04D
:101FD00009C0803E48F0803F29F406C093FB882763
:101FE00080F9089580E0089581E00895CF93DF930C
:101FF00000D000D01F92CDB7DEB70F900F900F909A
:102000000F900F90DF91CF910895CF93DF9300D081
:1020100000D000D0CDB7DEB726960FB6F894DEBF5D
:102020000FBECDBFDF91CF9108951F93CF93DF9364
:10203000C091140316E080911503C81799F0D0E001
:102040001C9FF0011D9FF00D1124EA5EFC4F4081A2
:10205000518162817381848195810E94051021964E
:10206000C770E9CFDF91CF911F910895409146034A
:1020700050914703609148037091490380914A034E
:1020800090914B030C94051080914B0382958F70B7
:1020900009F054C080914803882309F44FC080910F
:1020A0001403A0911503609146037091470340917A
:1020B000490350914A03B6E08A1709F43FC090E003
:1020C00041155105C1F17F3F11F46F3FA1F1B89F58
:1020D000F001B99FF00D1124EA5EFC4F21817213CB
:1020E0002AC02081621327C02281211124C02381AC
:1020F00034812417350710F421503109241B350B86
:10210000283C3105C0F420914B032F7020612093AF
:102110004B0326E0289FF001299FF00D1124E55E76
:10212000FC4F80818F708061808386E493E00E9401
:102130003F0C0C94151001968770BECF0895CF9276
:10214000DF92EF92FF920F931F93CF93DF93CDB760
:10215000DEB762970FB6F894DEBF0FBECDBF8C011D
:1021600085E0F801DE011D9601900D928A95E1F758
:10217000D8014C9111965C91119712966C9112971F
:102180001396CD90DC9014973091460370914703DD
:102190008091490390914A03009709F46BC17F3FF6
:1021A00019F43F3F09F466C1E0904803EE2009F4BA
:1021B000C0C020914B03C816D90628F0F601E81BD1
:1021C000F90BCF0104C0809590958C0D9D1DFF24C7
:1021D000F394883C910578F0F12C207F09F0C6C07B
:1021E0007C2DD98AC88A89890E94F60F86E493E0FB
:1021F0000E943F0CB1C0822F807F09F046C075134A
:1022000014C0341312C0611110C02F7020612093CC
:102210004B030E94361086E493E00E943F0C8091AD
:102220004B03D80115968C932EC0CD2819F15F3F32
:1022300011F44F3FF9F0F62E61111CC08091140388
:102240002091150336E0821709F45AC090E0389FB8
:10225000F001399FF00D1124EA5EFC4F7181571394
:1022600006C07081471303C07281711103C00196CB
:102270008770E9CFF62E662309F418C180914B03CD
:10228000816080934B03F12C11C1751308C0341386
:1022900006C0611104C080914B03D801C3C04D87B3
:1022A0005E878D859E856A8B0E94D00F6A89882300
:1022B000E1F16623D1F120914B03822F82958F703B
:1022C00090E0029774F080914603909147039887BD
:1022D0008F831986DB86CA862C87CE0107960E94DB
:1022E0003F0C86E0F801A6E4B3E001900D928A95D8
:1022F000E1F70E9444100E943610FF24F394D6C0E8
:102300004D875E878D859E850E94B014292F22956A
:102310002F7030E0223031050CF0BCC09F7009F006
:10232000B6C0805E883008F4C1C0C8010E943F0C6E
:10233000E4CFC816D90608F453C0F601E81BF90B20
:10234000CF01883C910508F450C0F12C7C2DD98A2E
:10235000C88A89890E94F60FE6E4F3E086E0DF018F
:102360001D928A95E9F70E943610A0C0751314C01B
:10237000341312C0611110C080914B03F8018583A2
:10238000C8010E943F0C86E0E6E4F3E0DF011D9205
:102390008A95E9F7FE2C8AC04D875E878D859E85DC
:1023A0006A8B0E94D00F6A89882309F4BECF662306
:1023B00009F4BBCF20914B03822F82958F7090E060
:1023C00002970CF48ECF80914603909147039A8335
:1023D00089831B82DD82CC822E83CE0101967FCF42
:1023E000809590958C0D9D1DACCFF62E662309F43B
:1023F0009CCF75132EC034132CC020914B0320FDAD
:102400001FC0822F82958F70D9F0D80115962C931A
:1024100015978F3049F08F5F982F9295907F822F7C
:102420008F70892B15968C93C8010E943F0C86E013
:10243000F801A6E4B3E001900D928A95E1F793CFFD
:1024400086E0F801A6E4B3E001900D928A95E1F7E9
:102450002DC04D875E878D859E850E94D00F81118E
:1024600040CF80914B03816080934B03C8010E9451
:102470003F0C1CC0662309F458CF4D875E878D85BD
:102480009E850E94D00F882309F44FCF2ACF811157
:1024900048CF0CC0243031050CF047CF9F7009F4B1
:1024A00040CFF8019581907F09F03BCF8F2D629648
:1024B0000FB6F894DEBF0FBECDBFDF91CF911F9155
:1024C0000F91FF90EF90DF90CF9008951F93CF93DF
:1024D000DF93CDB7DEB72C970FB6F894DEBF0FBEF3
:1024E000CDBF4F83588769877A878B879C87CE01BA
:1024F00007960E949F10882369F08F8198852A850E
:102500003B85232BF1F19F3F09F063C08F3F09F01A
:1025100060C037C086E0FE013796DE01119601905B
:102520000D928A95E1F76F817885EA85FB85309772
:1025300041F17F3F11F46F3F21F12091150330E00D
:10254000C9010196877099274091140350E08417C0
:10255000950709F447C069837A83FD83EC8396E08D
:10256000929FD001939FB00D1124AA5EBC4FFE0133
:10257000319601900D929A95E1F7809315030E9490
:10258000151016E080911403909115038917C1F17D
:10259000189FC00111248A5E9C4F0E949F108823BF
:1025A00079F1E09114031E9FF0011124EA5EFC4FC3
:1025B0004081518162817381848195810E940510DF
:1025C0008091140390E001968770992780931403FB
:1025D000D9CF4F81588569857A858B859C850E94E6
:1025E0000510CFCF0E94CC0F109215031092140348
:1025F000E6E4F3E086E0DF011D928A95E9F7C1CFBA
:102600002C960FB6F894DEBF0FBECDBFDF91CF91F1
:102610001F910895DF92EF92FF920F931F93CF9334
:10262000DF93FC01892B09F48AC0E12CF12CDD2415
:10263000D394EF0121968491853709F461C058F451
:10264000843708F04EC0843008F06AC08130D1F081
:10265000823071F174C0883709F45DC050F4863758
:1026600009F455C0873709F06AC08E2D0E945E16A6
:1026700054C09CE7980F903708F061C08F770E9494
:10268000E20B50C08F010E5F1F4FFE01849190E25C
:10269000980F983050F48770FD2D01C0FF0F8A9578
:1026A000EAF78F2F0E94641614C00E940F0B13C00C
:1026B0008F010E5F1F4FFE01C49180E28C0F8830A6
:1026C00060F4C7708D2D01C0880FCA95EAF70E948B
:1026D0006A160E948216E80125C08C2F0E94E20B28
:1026E000FACF9F012E5F3F4FFE01C491CC2369F0CA
:1026F0008FE99FE00197F1F700C00000C150F6CFCD
:102700009F012E5F3F4FFE01F490E9010BC00E9434
:102710004E16E82E07C00E9461160E94821602C063
:102720000E940F0B8F2D882341F0EFE9FFE03197D6
:10273000F1F700C000008150F6CFFE017ACFDF91A3
:10274000CF911F910F91FF90EF90DF9008956093CC
:1027500050037093510380935203909353030E944C
:10276000FB250C94BA0F60934C0370934D03809338
:102770004E0390934F030E945A260C94BA0F08956B
:102780000C94A7130F931F930091500310915103C2
:102790002091520330915303602B712B822B932B8A
:1027A0001F910F910C94A7130F931F930091500347
:1027B00010915103209152033091530360237123F0
:1027C000822393231F910F910C94A7130F931F93B0
:1027D0000091500310915103209152033091530303
:1027E00060277127822793271F910F910C94A713BD
:1027F00060E070E0CB010C94B3130F931F9341E0A2
:1028000050E060E070E08A019B0104C0000F111FDE
:10281000221F331F8A95D2F7C901B8011F910F916A
:102820000C94B3130F931F9341E050E060E070E00D
:1028300004C0440F551F661F771F8A95D2F78091F9
:102840004C0390914D03A0914E03B0914F038A0128
:102850009B01082B192B2A2B3B2BC901B8011F9177
:102860000F910C94B3130F931F9341E050E060E07D
:1028700070E004C0440F551F661F771F8A95D2F77A
:10288000409550956095709580914C0390914D03C3
:10289000A0914E03B0914F038A019B010823192395
:1028A0002A233B23C901B8011F910F910C94B31344
:1028B0000F931F9341E050E060E070E004C0440FCC
:1028C000551F661F771F8A95D2F780914C03909110
:1028D0004D03A0914E03B0914F038A019B0108273D
:1028E00019272A273B27C901B8011F910F910C9482
:1028F000B3130F931F9300914C0310914D0320913C
:102900004E0330914F03602B712B822B932B1F9121
:102910000F910C94B3130F931F9300914C031091DC
:102920004D0320914E0330914F0360237123822386
:1029300093231F910F910C94B3130F931F93009146
:102940004C0310914D0320914E0330914F036027AB
:102950007127822793271F910F910C94B313089529
:10296000CF92DF92EF92FF920F931F93CF93DF935B
:102970008C01C0905003D0905103E0905203F0902E
:10298000530340914C0350914D0360914E0370915D
:102990004F03C42AD52AE62AF72ACFE1D0E0D7018F
:1029A000C6010C2E04C0B695A795979587950A94F5
:1029B000D2F780FF07C0B8018C2F0E945E188130CB
:1029C000910531F4219758F7B80180E00E945E1814
:1029D000DF91CF911F910F91FF90EF90DF90CF90FB
:1029E0000895CF92DF92EF92FF920F931F93CF93B0
:1029F000DF93C82F80910B018823E1F080910C01B7
:102A00008823C1F08C2F8695869586958F3008F0A7
:102A1000A4C0E0910D01F0910E01E80FF11DC77007
:102A200081E090E001C0880FCA95EAF79181892B77
:102A3000818393C0D090670330916503E0910D01CD
:102A4000F0910E01332309F473C0409166038D2D7C
:102A50002FEF96E0E92EF12C082F082E000C110B19
:102A6000BF01600F711FDB0112969C919C1709F446
:102A700074C02F3F19F4911101C0282FC80101968D
:102A800006E010E0B7010E94BB298413E5CFD22FE6
:102A90004D114EC02F3F69F4842F440F990B0196BE
:102AA000B8010E94BB2980936703315030936503BE
:102AB0003FC0822F220F990B0196B8010E94BB29BB
:102AC000282FFF24F39406E010E0022E000C330BB5
:102AD0006F01C20ED31ED60112965C91552391F060
:102AE0008D2FDD0F990BBF01680F791FDB01129647
:102AF0005C93D60112961C920196B8010E94BB29E4
:102B0000D82F01C0F394C9010196B8010E94BB29D6
:102B1000282F8413DACF242F440F330B2F193109B8
:102B2000C901069666E070E00E94BB2980936603A7
:102B300020916603022E000C330BE20FF31FC283B9
:102B4000C901019666E070E00E94BB29809366038C
:102B5000809165038F5F80936503DF91CF911F9113
:102B60000F91FF90EF90DF90CF900895EF92FF923A
:102B70000F931F93CF93C82F80910B018823E9F007
:102B800080910C018823C9F08C2F869586958695B7
:102B90008F3008F06FC0E0910D01F0910E01E80F49
:102BA000F11DC77081E090E001C0880FCA95EAF777
:102BB00080959181892381835DC020916703409135
:102BC0006503442309F456C0E0910D01F0910E0114
:102BD00000916603002E000C110B86E0E82EF12C0C
:102BE00030E0DF01A20FB31FCD01029612965C9177
:102BF0005C1336C0DC011C924150409365034111C7
:102C000004C0109267031092660340916603842FFC
:102C1000042E000C990B059666E070E00E94BB291B
:102C20002817390739F5C091670306E010E0842FB3
:102C3000440F990B0596B8010E94BB299C01482FAF
:102C40000596B8010E94BB29DF01A80FB91F129693
:102C50008C91811102C02C13EACF209366030AC025
:102C6000C9010196B7010E94BB29282F801791073F
:102C700009F0B6CFCF911F910F91FF90EF9008957B
:102C800081E090E0E0910D01F0910E01E80FF91F55
:102C90001082019680319105A9F70895809169030A
:102CA000089590916903892B809369030895809515
:102CB0009091690389238093690308958093690340
:102CC000089510926903089590916803892B809369
:102CD0006803089580959091680389238093680321
:102CE00008951092680308958093540308951092F4
:102CF0005403089580910C01811103C080916503F4
:102D000008950895E0910D01F0910E0180916903FD
:102D10008083E0910D01F0910E0190818091680314
:102D2000892B808380915403882361F0E0910D0109
:102D3000F0910E019081892B80830E947A16811177
:102D40001092540380910D0190910E010C94BB09D7
:102D50000895089580911B04843031F110926B0323
:102D600020E488E190E00FB6F894A8958093600085
:102D70000FBE209360000E94661F83B7817F84602E
:102D800083BF83B7816083BF7894889583B78E7F34
:102D900083BF0FB6F894A8958091600088618093F6
:102DA0006000109260000FBE089508950895CF93BB
:102DB0000E94D5160E9417020E94D616C0E08C2FE2
:102DC0000E94E902892B29F4CF5FC430C1F780E06B
:102DD00001C081E0CF9108950E94CC0F0C94C623CE
:102DE0001F920F920FB60F9211248F939F93AF9360
:102DF000BF9380916B03811113C080916C039091FC
:102E00006D03A0916E03B0916F034196A11DB11D9A
:102E100080936C0390936D03A0936E03B0936F0344
:102E2000BF91AF919F918F910F900FBE0F901F9008
:102E3000189582E084BD93E095BD9AEF97BD80938D
:102E40006E0008952FB7F89480916C0390916D03F4
:102E5000A0916E03B0916F032FBF0895CF92DF92C0
:102E6000EF92FF920F931F932FB7F89440916C034A
:102E700050916D0360916E0370916F032FBF6A01D3
:102E80007B01EE24FF248C0120E030E0C016D10647
:102E9000E206F30610F4415051099A01281B390B40
:102EA000C9011F910F91FF90EF90DF90CF9008958F
:102EB0001F920F920FB60F9211248F939F93AF938F
:102EC000BF9380916C0390916D03A0916E03B091BC
:102ED0006F030196A11DB11D80936C0390936D0348
:102EE000A0936E03B0936F03BF91AF919F918F91A9
:102EF0000F900FBE0F901F9018950E940507F89431
:102F00002FEF87EA91E6215080409040E1F700C022
:102F1000000087E090EBDC01809326049093270467
:102F2000A0932804B09329049CE088E10FB6F8949C
:102F3000A895809360000FBE90936000FFCF8D3BFB
:102F400050F4883A70F5853A18F58430F8F48130F9
:102F500009F46CC068C0883E98F4803EB8F48F3B9A
:102F600009F061C00E94CC0F2FEF80E792E0215062
:102F700080409040E1F700C000000E947D1753C0E0
:102F8000803F08F450C090E09065089590E0089567
:102F9000853A09F44EC0863A09F44EC083E890E4BD
:102FA0000895883A09F44BC0893A09F44BC08A3A2B
:102FB00009F44BC08B3A09F44BC08C3A09F44BC06E
:102FC0008D3A09F44BC08E3A09F44BC08F3A09F49C
:102FD0004BC0813B09F44BC0803B09F44BC0823BA2
:102FE00009F44BC0833B09F44BC0843B09F44BC04C
:102FF000853B09F44BC0863B09F44BC0873B09F481
:103000004BC0883B09F44BC0893B09F44BC08A3B59
:1030100009F44BC08B3B09F44BC08C3B09F44BC00B
:1030200080E094E4089580E090E0089581E090E0ED
:10303000089581E890E4089582E890E4089582EE8E
:1030400094E4089589EE94E408958AEE94E4089552
:1030500085EB94E4089586EB94E4089583EB94E47F
:10306000089584EB94E4089587EB94E408958CEC40
:1030700094E408958DEC94E4089583E895E408952C
:103080008AE895E4089582E995E4089584E995E451
:10309000089581E296E4089583E296E4089584E237
:1030A00096E4089585E296E4089586E296E408950C
:1030B00087E296E408958AE296E408950E94CD019D
:1030C000803EA8F4803C00F5813309F45CC038F4FC
:1030D000893209F452C08A3209F45BC05FC0893377
:1030E000B1F08238A1F0853309F441C057C0833E66
:1030F00041F128F4803E99F0823EB9F04FC0863EFF
:1031000031F1873E71F14AC00E94D101089590913A
:10311000240490FD02C091FF41C080EE3FC0809129
:10312000240480FFFACF89E339C08091240482FF10
:103130000CC08091240484FF02C080E02FC083EE85
:103140002DC08091240482FFF4CF82EE27C08091AD
:10315000240483FF0AC08091240484FDEECF87EE0F
:103160001DC08091240483FFF6CF86EE17C08091A6
:10317000240485FF06C089E211C08091240485FFE4
:10318000FACF85E30BC08091240486FF06C08AE253
:1031900005C08091240486FFFACF81E30E949F1727
:1031A000089580E090E00895AF92BF92CF92DF92B1
:1031B000EF92FF920F931F93CF937C01C0E0CC243A
:1031C000C394D12C8C2F0E94E9025C0100E010E036
:1031D000C601002E02C0880F991F0A94E2F78A21C7
:1031E0009B21892BB1F0602F7C2F80E00E945E181C
:1031F0009C018E159F0559F0832F807E932F907C24
:1032000011F0803A31F430E02E153F0511F481E0E1
:1032100009C00F5F1F4F0B301105D1F6CF5FC430CF
:1032200089F680E0CF911F910F91FF90EF90DF9092
:10323000CF90BF90AF900895CF93DF93EC018CE2D5
:1032400090E00E94D418882329F0CE01DF91CF911D
:103250000C94D41880E0DF91CF910895CF930E9411
:10326000AD1A811102C00E947B1AC5E6C15049F017
:103270000E9417028FE39CE90197F1F700C000005C
:10328000F5CF89E290E00E941C19811132C18AE2D7
:1032900090E00E941C19882341F00E94A71A0E9406
:1032A0007B1A0E94F5270E94532785E090E00E9438
:1032B0001C1981110E947D170E94A9160E94B81A3C
:1032C00080936A0387E090E00E941C198823C1F173
:1032D0008BE190E00E941C19882351F080916A03D1
:1032E00081FB222720F991E0922790FB81F90FC002
:1032F0008EE090E00E941C19882361F080916A039F
:1033000082FB222720F991E0922790FB82F980939B
:103310006A0316C080E190E00E941C1990916A0334
:10332000882341F093FB222720F981E0822780FB4C
:1033300093F904C0892F809580FB90F990936A03DC
:1033400080916A030E94BC1A0E94CA1A80932404C6
:1033500080EE90E00E941C19882341F080912404A3
:10336000982F909590FB80F98093240489E390E056
:103370000E941C19882359F08091240481FB222784
:1033800020F991E0922790FB81F98093240482EE4A
:1033900090E00E941C19882359F08091240482FB3C
:1033A000222720F991E0922790FB82F98093240450
:1033B00086EE90E00E941C19882359F08091240425
:1033C00083FB222720F991E0922790FB83F98093D9
:1033D000240483EE90E00E941C19882359F0809108
:1033E000240484FB222720F991E0922790FB84F9A2
:1033F0008093240485E390E00E941C19882359F0EF
:103400008091240485FB222720F991E0922790FBEC
:1034100085F98093240481E390E00E941C1988239D
:1034200059F08091240486FB222720F991E092270D
:1034300090FB86F98093240481E190E00E941C199E
:10344000882359F08091240487FB222720F991E0FA
:10345000922790FB87F980932404809124040E9492
:10346000CE1A8091240487FB882780F980930C0171
:1034700087E290E00E941C19C82F8EE190E00E9424
:103480001C198111C2608FE190E00E941C1981110A
:10349000C46080E290E00E941C198111C86081E242
:1034A00090E00E941C198111C06182E290E00E94AC
:1034B0001C198111C06283E290E00E941C198111E5
:1034C000C06484E290E00E941C19882311F0C06857
:1034D00002C0CC2329F08C2F0E94C51A6C2F03C088
:1034E0000E94C11A682F70E080E090E0CF910C94A8
:1034F000C013CF9108956DEE7EEF80E090E00E94C2
:10350000F12960E082E090E00E94E32960E083E03E
:1035100090E00E94E32960E084E090E00E94E329CB
:1035200060E085E090E00E94E3296091E00286E09F
:1035300090E00E94E3296091DF0287E090E00E9422
:10354000E3296091170488E090E00C94E3296FEF81
:103550007FEF80E090E00C94F12980E090E00E9401
:10356000DD2921E08D3E9E4F09F020E0822F089555
:1035700082E090E00C94D529682F82E090E00C94D2
:10358000E32983E090E00C94D529682F83E090E054
:103590000C94E32984E090E00C94D529682F84E012
:1035A00090E00C94E32986E090E00C94D529682FF4
:1035B00086E090E00C94E32987E090E00C94D52914
:1035C000682F87E090E00C94E32988E090E00C9469
:1035D000D529682F88E090E00C94E329809172034C
:1035E00080FF0BC06091120185E0689FB00111243B
:1035F00075956795759567952BC081FF09C060919A
:10360000120185E0689FB00111247595679520C06F
:1036100082FF07C06091120185E0689FB00111240C
:1036200017C0909173039923D1F0609111019617FF
:1036300088F72091120185E0289F90011124929F24
:10364000A001939F500D112470E0CA010E94BB2974
:103650006038710540F46115710539F002C065E00C
:1036600070E0862F08958FE7089581E00895809196
:10367000720380FF08C06091100170E07595679536
:103680007595679521C081FF06C06091100170E0BB
:103690007595679519C082FF04C06091100170E0B4
:1036A00010C0909173039923C1F060910F01961798
:1036B000A0F780911001899FC001112470E00E9441
:1036C000BB296038710528F46115710521F0862F3A
:1036D00008958FE7089581E0089561E070E0F4CFE8
:1036E000803F21F40E94EE1A819504C0813F29F4A5
:1036F0000E94EE1A809376030895823F21F40E947F
:10370000EE1A819504C0833F29F40E94EE1A80933B
:1037100075030895893F19F40E94371B05C08A3F3D
:1037200031F40E94371B81958093770308958B3F76
:1037300021F40E94371B819504C08C3F29F40E941C
:10374000371B809378030895843F21F4809174039C
:10375000816017C0853F21F480917403826011C09D
:10376000863F21F48091740384600BC0873F21F46D
:1037700080917403886005C0883F31F480917403A0
:1037800080618093740308958D3F21F480917203CA
:1037900081600BC08E3F21F480917203826005C06E
:1037A0008F3F29F48091720384608093720308959F
:1037B000803F39F48091760387FF6CC010927603C6
:1037C00069C0813F29F4809176031816BCF362C06A
:1037D00090917503823F29F497FF5CC010927503A6
:1037E00059C0833F19F41916CCF354C0893F41F4F2
:1037F0008091770318160CF04DC0109277034AC0E1
:103800008A3F29F48091770387FF44C0F6CF8B3F2E
:1038100039F48091780387FF3DC0109278033AC055
:103820008C3F29F4809178031816BCF333C0843F91
:1038300021F4809174038E7F17C0853F21F480911D
:1038400074038D7F11C0863F21F4809174038B7FB8
:103850000BC0873F21F480917403877F05C0883FA8
:1038600031F4809174038F7E8093740313C08D3F75
:1038700021F4809172038E7F0BC08E3F21F48091E2
:1038800072038D7F05C08F3F29F4809172038B7F77
:10389000809372038091750381110EC0809176032D
:1038A00081110AC080917703811106C0809178034D
:1038B000811102C010927303089584E793E00E947F
:1038C000C6090E9422179093710380937003089594
:1038D0001F93CF93DF9380917003909171030E94A7
:1038E0002E17AC0190917303992321F020911301BD
:1038F00030E006C0209114018AE0289F9001112435
:103900004217530708F485C080917503C091760370
:10391000D091770310917803811107C0C11175C050
:10392000D11173C0111171C074C09F3F19F09F5F16
:1039300090937303181624F40E94EE1A8093750373
:103940008091750387FF05C00E94EE1A81958093D0
:1039500075031C1624F40E94EE1A8093760380915E
:10396000760387FF05C00E94EE1A81958093760347
:1039700060917503662331F1C0917603CC2311F178
:10398000062E000C770B880B990B0E94AE2823E3C0
:1039900033E343E35FE30E9412290E947628609399
:1039A00075036C2FCC0F770B880B990B0E94AE28F8
:1039B00023E333E343E35FE30E9412290E94762866
:1039C000609376031D1624F40E94371B80937703BF
:1039D0008091770387FF05C00E94371B81958093F4
:1039E0007703111624F40E94371B8093780380918B
:1039F000780387FF05C00E94371B81958093780369
:103A0000DF91CF911F910C945D1C9F3F09F08FCFE8
:103A100097CFDF91CF911F910895E4E7F3E085E020
:103A2000DF011D928A95E9F71092730310927203D9
:103A30000895833081F128F4813059F08230D1F03B
:103A40000895853009F449C0B8F1863009F456C0AC
:103A5000089580911401262F30E0280F311D2F3F4B
:103A6000310524F4680F6093140108958FEF80935B
:103A70001401089580911301262F30E0280F311D85
:103A80002F3F310524F4680F6093130108958FEFE1
:103A900080931301089580911201262F30E0280FA2
:103AA000311D2F3F310524F4680F609312010895F2
:103AB0008FEF80931201089580911101262F30E03D
:103AC000280F311D2F3F310524F4680F6093110139
:103AD00008958FEF80931101089580911001262F92
:103AE00030E0280F311D2F3F310524F4680F60931B
:103AF000100108958FEF80931001089580910F01B8
:103B0000262F30E0280F311D2F3F310524F4680F98
:103B100060930F0108958FEF80930F010895833014
:103B200011F128F4813049F0823091F00895853008
:103B300081F120F18630C1F1089580911401681758
:103B400020F4861B809314010895109214010895A7
:103B500080911301681720F4861B80931301089548
:103B600010921301089580911201681720F4861BAA
:103B7000809312010895109212010895809111010D
:103B8000681720F4861B809311010895109211018B
:103B9000089580911001681720F4861B809310010E
:103BA000089510921001089580910F01681720F474
:103BB000861B80930F01089510920F0108950F93B3
:103BC0001F938B3109F475C0A0F58E3009F484C0C1
:103BD000C0F4873009F462C068F4863009F0AAC0E6
:103BE00080916A03817F8E7F80936A0381E0809356
:103BF0007A03A1C0883009F44AC08B3009F498C018
:103C000099C0813109F472C068F4803109F092C022
:103C100080916A0383FB222720F991E0922790FB91
:103C200083F950C0863109F483C0893109F480C01A
:103C300081C0853309F463C068F4873209F45FC03A
:103C400028F48E3108F476C08D515FC0893209F4B2
:103C500056C070C0833438F48A3308F055C08833B6
:103C600009F466C067C0833409F449C0883409F098
:103C700061C00E94CC0F0FEF13ED20E30150104004
:103C80002040E1F700C000000E947D1751C00E9453
:103C9000B81A0E94CA1A0E94D31A4AC090916A03A5
:103CA000892F817090FF12C0917F9E7F90936A034D
:103CB00042C080916A0381FB222720F991E092277C
:103CC00090FB81F980936A03992391F180916A03B3
:103CD000816080936A032CC080916A0382FB222753
:103CE00020F991E0922790FB82F9ECCF0E94CC0F53
:103CF00090910C0181E0892780930C0119C061E04B
:103D000070E080E090E010C0895341E050E060E056
:103D100070E08A019B0104C0000F111F221F331F96
:103D20008A95D2F7C901B8010E94C0130E94CC0F36
:103D300081E001C080E01F910F91089580E0089517
:103D400080E00895CF93C82F80917A03813069F085
:103D500018F08230C9F184C0E0910D01F0910E019C
:103D60008081823209F07EC007C0E0910D01F091A0
:103D70000E018081823261F48C2F0E949E1E81117F
:103D800004C08C2F0E94DF1D1DC081E090E01AC08E
:103D90008C2F0E94A01E811114C0C43179F048F408
:103DA000CB3079F0C03109F061C082E080937A03B2
:103DB00008C0C93219F0C83321F058C010927A03F4
:103DC00055C081E0817054C0C93291F120F5C431F1
:103DD00079F1B0F4C73009F047C08EE18093140147
:103DE00082E3809313018AE08093120184E180933F
:103DF000110188E08093100188E280930F0134C0A4
:103E0000CE51C63088F5EC2FF0E0EB52FD4F8081AB
:103E10008093790329C0CE34E9F020F4CB3421F526
:103E20006AE013C0C13579F0C235F1F461E00DC02C
:103E300080917903882319F01092790315C081E0ED
:103E400080937A0315C061E006C0809179030E94D7
:103E5000191D0AC06AE0809179030E948F1D04C079
:103E600010927A0380E004C081E002C080E0AACF13
:103E7000CF910895E1E8F0E08081886080838081BF
:103E8000816080838FB7F89493E0909389009DE0E0
:103E9000909388008FBF0E94B92681E0809397039A
:103EA000089580919703882381F0809188009091F4
:103EB0008900892B51F080916F00826080936F00A0
:103EC00082E0809397030C94D42608958091970301
:103ED0008823F1F08091880090918900892BC1F0AE
:103EE00080916F008D7F80936F0081E080939703B6
:103EF00080E00E94C72681E00E94C72682E00E94DF
:103F0000C72683E00E94C726809197030C94D4268D
:103F10000895809196038F60809396030895109280
:103F2000960380919703882381F080E00E94C72642
:103F300081E00E94C72682E00E94C72683E00E949B
:103F4000C726809197030C94D4260895EEE8F3E0F9
:103F500080838183828383830895E82FF0E0E25792
:103F6000FC4F2081422F50E08FEF90E0861B91099B
:103F7000841795071CF48FEF80830895620F608388
:103F80000895CF93DF93D82FC0E06D2F8C2F0E9420
:103F9000AD1FCF5FC430C9F7DF91CF910895E82FEF
:103FA000F0E0E257FC4F8081861710F410820895EC
:103FB000861B80830895CF93DF93D82FC0E06D2FA9
:103FC0008C2F0E94CF1FCF5FC430C9F7DF91CF91F4
:103FD000089580918D038F6080938D0308951092D2
:103FE0008D03089540918C0321E030E0662341F079
:103FF00001C0220F8A95EAF7242B20938C030895A1
:10400000B90102C0660F771F8A95E2F7CB01809550
:10401000842380938C030895CF93DF93D82FC0E03F
:104020006D2F8C2F0E94F21FCF5FC430C9F7DF9134
:10403000CF91089580938B030895E7E8F3E08083A0
:104040008183828383830895809186038F60809328
:104050008603089510928603109285030895809335
:10406000840308951F920F920FB60F921124EF92BE
:10407000FF920F931F932F933F934F935F936F93F1
:104080007F938F939F93AF93BF93CF93DF93EF93E0
:10409000FF9380917E038F5F80937E0302E913E09C
:1040A000C0E0D0E0FC2E2091960330E00C2E02C040
:1040B000369527950A94E2F720FF1AC080917E0377
:1040C00081110DC0F8018081882319F08C2F0E9486
:1040D000BA26FE01E257FC4F8081F801808390915F
:1040E0007E03F8018081981303C08F2D0E94C7269C
:1040F00021960F5F1F4FC430D105A1F680917D033B
:104100008F5F803518F480937D03B7C010927D03D4
:10411000E0908D03EE20E9F180917C038F5F809326
:104120007C0390918B039817A0F510927C0307E80D
:1041300013E0C0E0D0E0F12CC7010C2E02C0969530
:1041400087950A94E2F780FF1AC0F80180818823DE
:1041500019F08150808313C080918C0390E00C2E65
:1041600002C0969587950A94E2F761E080FF04C04B
:104170008C2F0E94CF1F03C08C2F0E94AD1F219651
:104180000F5F1F4FC430D105B9F682E993E00E945A
:10419000790390918603992309F46BC080917B0386
:1041A0008F5F80937B0320918403281708F061C000
:1041B00010927B0340917F0350918503A0E8B3E008
:1041C00020E030E0C1E0D0E0692F70E0022E02C0B4
:1041D000769567950A94E2F760FF3AC08C91E82FD4
:1041E000F0E0EE54FE4F0491B90162577C4FFB01A1
:1041F0000083642F70E0022E02C0769567950A94C2
:10420000E2F760FF19C0811115C0BE01022E01C086
:10421000660F0A94EAF760954623E52FF0E0022E38
:1042200002C0F695E7950A94E2F7E0FF11C09623E5
:1042300056230EC081500BC08F3741F4BE01022EB1
:1042400001C0660F0A94EAF7462B02C08F5F8C9379
:104250002F5F3F4F11962430310509F0B5CF909371
:10426000860340937F035093850382E993E00E9485
:104270007E030E9478030E949A23FF91EF91DF91C1
:10428000CF91BF91AF919F918F917F916F915F91EE
:104290004F913F912F911F910F91FF90EF900F90B1
:1042A0000FBE0F901F90189528B1242B38B1542FB2
:1042B0005095352357B1452B47B94FB7F894FC01BA
:1042C000CB01880F991F680F791F6E0F7F1FE617AC
:1042D000F70789F0819198E028B9000000C087FFB6
:1042E00038B9880F000000C000C000C038B900C055
:1042F0009A9591F7ECCF4FBF08952BB1242B3BB18A
:10430000542F509535235AB1452B4AB94FB7F894DD
:10431000FC01CB01880F991F680F791F6E0F7F1F5B
:10432000E617F70789F0819198E02BB9000000C0EB
:1043300087FF3BB9880F000000C000C000C03BB938
:1043400000C09A9591F7ECCF4FBF0895EF92FF927E
:104350000F931F93CF93DF9300D000D01F92CDB760
:10436000DEB7F90170E0869F9001879F300D112420
:10437000232F3327042F10E0209FD001219FB00D61
:10438000309FB00D112420E031E07901E61AF70AE0
:10439000E09E9001E19E300DF09E300D11243C8393
:1043A0003983832F8B0F8D838A834B1B4B83892FFC
:1043B00090E063E070E00E94A729DE01A80FB91F1A
:1043C00013962C912183DE01A80FB91F12962C9110
:1043D0002083DE01A80FB91F11968C9182830F9064
:1043E0000F900F900F900F90DF91CF911F910F9131
:1043F000FF90EF900895DF92EF92FF920F931F933B
:10440000CF93DF9300D01F92CDB7DEB780919B038F
:10441000882309F445C0D12CE12C43E0F42E6091AF
:104420001501D61660F50D2D10E070E0C7010E9451
:10443000BB29609FF001619FF00D709FF00D11246A
:1044400080919C0390919D039E012F5F3F4F40916F
:104450009F0360919E038E0F9F1F0E94A621F8016B
:10446000EE0FFF1F0E0F1F1FF801E056FC4F898152
:104470009A81AB8180839183A283D394D0CF6091C2
:10448000150180EA93E00E94DE260F900F900F90B6
:10449000DF91CF911F910F91FF90EF90DF900895E2
:1044A0009E012F5F3F4F40919F0360919E0380913B
:1044B0009C0390919D030E94A62120E0809115010C
:1044C0002817E8F6822F90E0FC01EE0FFF1F8E0FF9
:1044D0009F1FFC01E056FC4F89819A81AB8180834C
:1044E0009183A2832F5FEACF811103C010929F03B3
:1044F00006C09091160190939F038830D8F41092D3
:10450000020410929B03882399F0873019F41092CB
:104510009E030EC090E001979695982F8827979557
:10452000879590939D0380939C038FEF80939E03C8
:104530000C94FB219FEF90939E0391E090930204D3
:10454000893008F490E090939B030895CF931092E4
:104550009D0310929C038FEF80939E03CFE0C09346
:104560009F030E94DC1A809300040E94E51A8F309A
:1045700018F08093160102C0C093160180910004C8
:1045800087FF07C08F770E947422809100048F7785
:1045900004C080E00E94742280E00E94742281E0C6
:1045A00080930104CF9108958091000480688093E6
:1045B0000004982F9F7721F4807881608093000415
:1045C000809100048F770E947422809100040C94E3
:1045D000E01A809100048F778093000480E00E94AD
:1045E0007422809100040C94E01A8091000487FDED
:1045F0000C94E9220C94D42280910004982F9F7788
:1046000091F091589F778078892B809300048F7761
:1046100091E009F490E08091000490FB87F9809389
:1046200000040E94E01A809100048F770C94742299
:1046300080910004982F9F77292F30E02930310591
:104640004CF49F5F9F778078892B8068809300046B
:104650000E94E01A809100048F770C94742290914C
:10466000000481E0890F8F7790788A3020F4892BBD
:104670008093000402C090930004809100048F771F
:1046800091E009F490E08091000490FB87F9809319
:1046900000040E94E01A809100048F770C94742229
:1046A000813208F080E28093150180910104882313
:1046B00029F08091000487FD0C94FB2108959091CE
:1046C00001049923A9F08F3008F48FE0809316013C
:1046D000662321F0809116010E94E91A809100045E
:1046E00087FF06C08091160180939F030C94FB21E5
:1046F000089590911601292F30E02E503109482F4E
:1047000050E0421753071CF4981B892F01C08FE01B
:104710000C945F2390911601492F50E02FEF30E069
:10472000281B31092417350714F0890F01C08FEFBA
:104730000C945F2380910204882339F180919A03BD
:104740008F5F80939A03909102049817F0F410926F
:104750009A03809198039091990390939D0380937D
:104760009C030E94FB2180919803909199030196EC
:10477000811523E0920728F490939903809398037E
:104780000895109299031092980308950E94AD1A0B
:10479000811102C00E947B1A0E94D31A80932504C3
:1047A00080FF02C0869501C080E00C94FC028091DD
:1047B000250480FF14C0982F9695292F30E02830CB
:1047C000310544F49F5F990F8170892B80932504F4
:1047D0000E94D71A8091250486950C94FC020895B6
:1047E0008091250480FF14C0982F9695292F30E0E2
:1047F0002230310544F09158990F8170892B8093B4
:1048000025040E94D71A8091250486950C94FC02F9
:10481000089580912504982F9095917090FB80F9D0
:1048200080932504992339F0982F9E7F21F481707D
:10483000826080932504809125040E94D71A80917C
:10484000250480FF02C0869501C080E00C94FC0224
:1048500090912504892F86958F5F8F77917089308D
:1048600028F4880F892B8093250402C09093250497
:10487000809125048E7F91E009F490E080912504D9
:1048800090FB80F9809325040E94D71A809125041B
:1048900086950C94FC02880F909125049170892BC9
:1048A000809325048E7F91E009F490E080912504A7
:1048B00090FB80F9809325040E94D71A80912504EB
:1048C00086950C94FC02813041F028F0823039F05A
:1048D000833039F00895469A0895599A0895589A60
:1048E0000895479A0895813041F028F0823039F0D8
:1048F000833039F008954698089559980895589846
:104900000895479808952091070430E0082E02C0CA
:10491000369527950A94E2F720FD0C9463240C94B5
:1049200073242091070430E0082E02C036952795A5
:104930000A94E2F720FD0C9473240C946324CF9323
:10494000DF93C0E0D0E08091080490E00C2E02C01C
:10495000969587950A94E2F780FD03C08C2F0E94FC
:1049600091242196C430D10571F73E9A519A509AFC
:104970003F9ADF91CF910895EF92FF920F931F938B
:10498000CF93DF9300910E040827611102C009F450
:104990004AC0C0E0D0E0E62EF82E10E08C2F9C2F0D
:1049A0002091080430E00C2E02C0369527950A9419
:1049B000E2F720FD31C02091960330E00C2E02C0BA
:1049C000369527950A94E2F720FF0BC020910A0440
:1049D00030E00C2E02C0369527950A94E2F720FDB0
:1049E0001BC0E11009C09801092E02C03695279519
:1049F0000A94E2F720FF10C0209109042F2530E02F
:104A000002C0369527959A95E2F720FF03C00E94D1
:104A1000832402C00E9491242196C430D10509F05C
:104A2000BDCFF0920E04DF91CF911F910F91FF90B7
:104A3000EF900895FF920F931F93CF93DF93C0E001
:104A4000D0E0F12C01E010E08C2F0E94692797FF45
:104A500014C09091080498010C2E01C0220F0A94F2
:104A6000EAF7292B20930804FE01ED5FFB4F8083BA
:104A7000F81608F057C0F82E55C096FF0BC080916D
:104A8000070498010C2E01C0220F0A94EAF7282B84
:104A90002093070494FF0BC08091090498010C2E09
:104AA00001C0220F0A94EAF7282B2093090495FFEE
:104AB0000BC080910A0498010C2E01C0220F0A94A9
:104AC000EAF7282B20930A049F70292F30E0223028
:104AD000310589F023303105D1F02130310511F550
:104AE0000C2E01C0220F0A94EAF790910C04292B96
:104AF00020930C0417C080910B0498010C2E01C068
:104B0000220F0A94EAF7282B20930B040BC0809104
:104B10000D0498010C2E01C0220F0A94EAF7282BED
:104B200020930D042196C430D10509F08DCF0E9449
:104B30009F2461E080E00E94BC248F2DDF91CF9103
:104B40001F910F91FF900C945023CF92DF92EF9220
:104B5000FF920F931F93CF93DF9390910D049923AE
:104B600009F440C010910E04C0E0D0E0E82EF12C12
:104B7000CC24C394D12C0C2F80910D0490E00C2EEA
:104B800002C0969587950A94E2F780FF1BC0802F9C
:104B90000E946927970102C0359527958A95E2F70B
:104BA00020FF08C0C6010C2E01C0880F0A94EAF746
:104BB000182B08C0C6010C2E01C0880F0A94EAF712
:104BC000809518232196C430D105A9F660E0812F85
:104BD000DF91CF911F910F91FF90EF90DF90CF90D9
:104BE0000C94BC24DF91CF911F910F91FF90EF9017
:104BF000DF90CF900895AF92BF92CF92DF92EF9265
:104C0000FF920F931F93CF93DF9320910C042223E5
:104C100009F445C06B017C0110910E04C0E0D0E0A6
:104C2000AA24A394B12C0C2F80910C0490E00C2E9C
:104C300002C0969587950A94E2F780FF1EC0802FE8
:104C40000E946927A701960104C05695479537959C
:104C500027958A95D2F720FF08C0C5010C2E01C008
:104C6000880F0A94EAF7182B08C0C5010C2E01C062
:104C7000880F0A94EAF7809518232196C430D1054D
:104C800091F660E0812FDF91CF911F910F91FF90FE
:104C9000EF90DF90CF90BF90AF900C94BC24DF9149
:104CA000CF911F910F91FF90EF90DF90CF90BF9029
:104CB000AF900895AF92BF92CF92DF92EF92FF92A2
:104CC0000F931F93CF93DF9320910B04222309F4BA
:104CD00045C06B017C0110910E04C0E0D0E0AA2415
:104CE000A394B12C0C2F80910B0490E00C2E02C0E9
:104CF000969587950A94E2F780FF1EC0802F0E9448
:104D00006927A701960104C05695479537952795C1
:104D10008A95D2F720FF08C0C5010C2E01C0880F6C
:104D20000A94EAF7182B08C0C5010C2E01C0880FA1
:104D30000A94EAF7809518232196C430D10591F69C
:104D400060E0812FDF91CF911F910F91FF90EF9045
:104D5000DF90CF90BF90AF900C94BC24DF91CF91A7
:104D60001F910F91FF90EF90DF90CF90BF90AF9089
:104D70000895089520910A0430E0082E02C0369567
:104D800027950A94E2F720FD0C948324089520913E
:104D90000A0430E0082E02C0369527950A94E2F7FF
:104DA00020FD0C949124089580910A04882329F011
:104DB00061E080910E040C94BC2408950F931F931E
:104DC000CF93DF938C01C0E0D0E02091080430E065
:104DD0000C2E02C0369527950A94E2F720FF1FC0DB
:104DE000C23071F0C330A1F0C13029F060910304EA
:104DF00070E040E411C06091040470E042E004C03F
:104E00006091050470E041E0C8010E947D2107C067
:104E10006091060470E040E8C8010E945421219688
:104E2000C430D10591F6DF91CF911F910F91089574
:104E3000CF92DF92EF92FF920F931F93CF93DF9366
:104E40000FE014E0C9E0D0E0E12CF12CCE010E948B
:104E5000DD29F80191838083019699F4C701880FB9
:104E6000991F9C01215F3B4F69018E2D0E94F30227
:104E7000F60191838083F80160817181CE010E94E7
:104E8000F129FFEFEF1AFF0A22960E5F1F4FC13183
:104E9000D105E1F6DF91CF911F910F91FF90EF9037
:104EA000DF90CF9008950F931F93CF9309E010E008
:104EB000C0E08C2F0E94F302BC01C8010E94F129BE
:104EC000CF5F0E5F1F4FC430A1F7CF911F910F919D
:104ED0000895E82FF0E0EE0FFF1FE15FFB4F8081A8
:104EE00091810895CF92DF92EF92FF920F931F93DB
:104EF000CF9381E190E00E94DD298C01C12CD12C5F
:104F00002DEEE22E2EEFF22E0E94E001C82F0E941D
:104F1000E201C89FC00111249C0183E0220F331FCE
:104F20008A95E1F7205C3F4FC216D30680F4C60194
:104F300043960E94D529282F30E0C0FE02C0322FB0
:104F40002227E20EF31E8FEFC81AD80ADDCF81E0C8
:104F50000E151F0509F080E0CF911F910F91FF9072
:104F6000EF90DF90CF90089590E0880F991F4396BF
:104F70000C94DD2990E0880F991F43960C94F12939
:104F8000EF92FF920F931F93CF93DF9300D0CDB793
:104F9000DEB7182F4A8369830E94E001082F0E9420
:104FA000E201089FC0011124189F7001199FF00CA5
:104FB00011240E94E20169819701689F200D311D33
:104FC0001124C9014A81840F911D8D5A9F4F0F9062
:104FD0000F90DF91CF911F910F91FF90EF900C9464
:104FE000D5298D5A9F4F0C94E3298F929F92AF92AF
:104FF000BF92CF92DF92EF92FF920F931F93CF93C6
:10500000DF930E94D8016C010E94D5017C01C1147C
:10501000D10409F10E9465014C01A12CB12C0DEEC7
:105020001EEFA814B90420F4F601C591D49102C072
:10503000C0E0D0E0BE018A2D0E94BA270C0F1D1FD0
:105040008FEFA81AB80A82E0C80ED11C80E2A81619
:10505000B10439F702C00DEE1EEFE114F10471F155
:105060000E9462016C01A12CB12C0E94E001C82FAA
:105070000E94E201C89FC001112423E0880F991FFC
:105080002A95E1F7A816B906C8F4AC14BD0428F4B3
:10509000F701EA0DFB1DC49101C0C0E06C2FC501F2
:1050A0000E94F127EC2FF0E0A0FE02C0FE2FEE27B9
:1050B0000E0F1F1F8FEFA81AB80AD7CFB80181E1D2
:1050C00090E0DF91CF911F910F91FF90EF90DF90D3
:1050D000CF90BF90AF909F908F900C94F1290E9439
:1050E0007227811102C00C94F52708950E947D2833
:1050F0006894B1110C940C2908950E94F12888F04D
:105100009F5798F0B92F9927B751B0F0E1F0660F8B
:10511000771F881F991F1AF0BA95C9F714C0B130CC
:1051200091F00E940B29B1E008950C940B29672F90
:10513000782F8827B85F39F0B93FCCF386957795FB
:105140006795B395D9F73EF49095809570956195E4
:105150007F4F8F4F9F4F0895E89409C097FB3EF40F
:1051600090958095709561957F4F8F4F9F4F9923B4
:10517000A9F0F92F96E9BB279395F6958795779532
:105180006795B795F111F8CFFAF4BB0F11F460FFF2
:105190001BC06F5F7F4F8F4F9F4F16C0882311F04A
:1051A00096E911C0772321F09EE8872F762F05C05E
:1051B000662371F096E8862F70E060E02AF09A95F9
:1051C000660F771F881FDAF7880F9695879597F9EE
:1051D000089557FD9058440F551F59F05F3F71F0E7
:1051E0004795880F97FB991F61F09F3F79F087954E
:1051F0000895121613061406551FF2CF4695F1DFD7
:1052000008C0161617061806991FF1CF8695710566
:10521000610508940895E894BB2766277727CB019A
:1052200097F908950E9425290C9496290E948829AF
:1052300038F00E948F2920F0952311F00C947F29DB
:105240000C94852911240C940C290E94E92870F3F0
:10525000959FC1F3950F50E0551F629FF001729F1B
:10526000BB27F00DB11D639FAA27F00DB11DAA1F2A
:10527000649F6627B00DA11D661F829F2227B00D77
:10528000A11D621F739FB00DA11D621F839FA00D02
:10529000611D221F749F3327A00D611D231F849F52
:1052A000600D211D822F762F6A2F11249F575040A9
:1052B0009AF0F1F088234AF0EE0FFF1FBB1F661F24
:1052C000771F881F91505040A9F79E3F510580F0ED
:1052D0000C947F290C940C295F3FE4F3983ED4F39F
:1052E000869577956795B795F795E7959F5FC1F791
:1052F000FE2B880F911D9695879597F9089597F93C
:105300009F6780E870E060E008959FEF80EC08956B
:1053100000240A9416161706180609060895002494
:105320000A9412161306140605060895092E03940E
:10533000000C11F4882352F0BB0F40F4BF2B11F482
:1053400060FF04C06F5F7F4F8F4F9F4F0895AA1B70
:10535000BB1B51E107C0AA1FBB1FA617B70710F060
:10536000A61BB70B881F991F5A95A9F78095909592
:10537000BC01CD01089597FB072E16F4009407D0C9
:1053800077FD09D00E94A72907FC05D03EF490952F
:1053900081959F4F0895709561957F4F0895EE0F09
:1053A000FF1F0590F491E02D0994F999FECF92BD6D
:1053B00081BDF89A992780B50895A8E1B0E042E050
:1053C00050E00C94F829262FF999FECF1FBA92BD10
:1053D00081BD20BD0FB6F894FA9AF99A0FBE0196D6
:1053E00008950E94E329272F0C94E429DC01CB01C6
:1053F000FC01F999FECF06C0F2BDE1BDF89A3196E5
:1054000000B40D9241505040B8F70895F894FFCF82
:105410000583031104EE03BA038603010155032833
:1054200008140A321E200F404D36399502480212E8
:1054300002D9016C0185019E01B70104120C5601CD
:10544000420134010C0344006100690073007900DB
:10545000000012034B002E0054002E0045002E00C9
:1054600043002E0000000403090409026D0004013A
:1054700000A032090400000103010100092111010B
:1054800000012240000705810308000A0904010009
:105490000103010200092111010001224D0007054D
:1054A000820308000A090402000103000000092128
:1054B000110100012236000705830308000A0904D0
:1054C000030001030000000921110100012239003D
:1054D00007058403100001120110010000000809F3
:1054E00012282301050102000105010906A1010599
:1054F0000719E029E71500250195087501810205C6
:105500000819012905950575019102950175039109
:105510000105071900297715002501957875018186
:1055200002C005010980A101850216010026B7000D
:105530001A01002AB700751095018100C0050C09F9
:1055400001A1018503160100269C021A01002A9C74
:1055500002751095018100C005010902A101090130
:10556000A1000509190129051500250195057501F9
:105570008102950175038101050109300931158109
:10558000257F95027508810609381581257F9501CB
:1055900075088106050C0A38021581257F9501756D
:1055A000088106C0C005010906A101050719E02907
:1055B000E71500250195087501810295017508819F
:1055C00001050819012905950575019102950175D7
:1055D0000391010507190029FF150026FF00950614
:1055E00075088100C00102030405060708090000D0
:0255F0000200B7
:00000001FF
