:100000000C94C0050C9407060C9407060C94070684
:100010000C9407060C9407060C9407060C9407062C
:100020000C9407060C9407060C94460E0C94180FBB
:100030000C945F1E0C9407060C9407060C9407069C
:100040000C9407060C943A2B0C9407060C940706A4
:100050000C9407060C94D31E0C9407060C94070608
:100060000C9407060C9407060C9407060C940706DC
:100070000C9407060C9407060C9407060C940706CC
:100080000C9407060C9407060C9407060C940706BC
:100090000C9407060C9407060C9407060C940706AC
:1000A0000C9407060C9407060C940706800FA30F08
:1000B0005E10A30F5E10E80F0B105E102D104010A5
:1000C0009A139A13C713C71322145C14C516C516C6
:1000D0007414C516711571152C164216C516B11675
:1000E000016202620162026200F1A100D100D2004D
:1000F000D0291E1F20212223242526272D2E2A2BFE
:10010000141A0815171C180C12132F303139041645
:1001100007090A0B0D0E0F33340028E1001D1B06E2
:1001200019051110363738C0E5E0E3E200002C0075
:10013000000000E6C0E7E4353A3B3C3D3E3F40412D
:10014000424344454C010152010101B401490146B9
:100150004748010150514F0101010101014A4B0083
:100160000101000165C1C2C3AAA9A84D4E01010148
:10017000010100000100000000010101010A002549
:1001800030313662003A200025303258000A722F92
:1001900063203031323334353637383941424344C5
:1001A00045460A000A002530325800626F756E63BA
:1001B00065213A2000001080FF012300605B735D21
:1001C000004B6579626F6172642073746172742E82
:1001D0000A0055534220636F6E66696775726564E5
:1001E0002E0A005B575D005B535D005B525D005B58
:1001F000445D005B435D000A002530325820006BEF
:100200006579626F6172645F7265706F72743A20B3
:10021000004C45443A20253032580A0064656C5F32
:100220006B65795F6269743A2063616E277420643C
:10023000656C3A20253032580A006164645F6B6552
:10024000795F6269743A2063616E27742061646427
:100250003A20253032580A00646F6E652E0A00621B
:100260006F6F746D61676963207363616E3A202EEE
:100270002E2E2000290A002575002F002575005D0F
:10028000280025640020002564002000256400204B
:10029000002564007C0025303258006D6F75736551
:1002A0006B6579205B62746E7C782079207620689B
:1002B0005D287265702F61636C293A205B006D6B5D
:1002C0005F776865656C5F74696D655F746F5F6D9E
:1002D0006178203D2025640A006D6B5F7768656555
:1002E0006C5F6D61785F7370656564203D20256487
:1002F0000A006D6B5F74696D655F746F5F6D617827
:10030000203D2025640A006D6B5F6D61785F73701E
:10031000656564203D2025640A006D6B5F696E741D
:10032000657276616C203D2025640A006D6B5F6408
:10033000656C6179203D2025640A006D6B5F7768EC
:1003400065656C5F74696D655F746F5F6D61782062
:100350003D2025640A006D6B5F776865656C5F6D95
:1003600061785F7370656564203D2025640A006DC7
:100370006B5F74696D655F746F5F6D6178203D20A0
:1003800025640A006D6B5F6D61785F7370656564ED
:10039000203D2025640A006D6B5F696E746572767E
:1003A000616C203D2025640A006D6B5F64656C61A3
:1003B00079203D2025640A000A00257500363A2080
:1003C000776865656C5F74696D655F746F5F6D619B
:1003D000783A20000A00257500353A20776865656F
:1003E0006C5F6D61785F73706565643A20000A0028
:1003F000257500343A2074696D655F746F5F6D61B7
:10040000783A20000A00257500333A206D61785F44
:1004100073706565643A20000A00257500323A2041
:10042000696E74657276616C286D73293A20000AD2
:1004300000257500313A2064656C6179282A3130D5
:100440006D73293A20000A092D2056616C75657379
:10045000202D0A004D3E004D25643E20003F0073D4
:1004600065742064656661756C740A00433E200003
:1004700077686572652064656C74613A2063757293
:10048000736F723D25642C20776865656C3D25642B
:100490000A53656520687474703A2F2F656E2E7745
:1004A000696B6970656469612E6F72672F77696B1C
:1004B000692F4D6F7573655F6B6579730A000A0963
:1004C0002D204D6F7573656B6579202D0A4553435B
:1004D0002F713A09717569740A313A0964656C6162
:1004E00079282A31306D73290A323A09696E7465A8
:1004F0007276616C286D73290A333A096D61785FF1
:1005000073706565640A343A0974696D655F746F68
:100510005F6D61780A353A09776865656C5F6D6172
:10052000785F73706565640A363A09776865656C4B
:100530005F74696D655F746F5F6D61780A0A703A08
:10054000097072696E742076616C7565730A643A1D
:10055000097365742064656661756C74730A7570DF
:100560003A092B310A646F776E3A092D310A7067A8
:1005700075703A092B31300A7067646F776E3A09EB
:100580002D31300A0A7370656564203D2064656C06
:100590007461202A206D61785F7370656564202A1C
:1005A0002028726570656174202F2074696D655F05
:1005B000746F5F6D6178290A003F004D3E20004353
:1005C0003E20004C25640A000A092D20436F6E73FB
:1005D0006F6C65202D0A4553432F713A0971756977
:1005E000740A6D3A096D6F7573656B65790A000A57
:1005F000092D204D61676963202D0A643A096465FD
:100600006275670A783A096465627567206D61747E
:100610007269780A6B3A096465627567206B65795F
:10062000626F6172640A6D3A096465627567206D74
:100630006F7573650A763A0976657273696F6E0A2B
:10064000733A097374617475730A633A09636F6E60
:10065000736F6C65206D6F64650A302D343A096CD8
:1006600061796572302D34284631302D4634290A9F
:10067000506175733A09626F6F746C6F6164657273
:100680000A653A09656570726F6D0A6E3A094E4BDC
:10069000524F0A000A002575002E6C6576656C3A8B
:1006A00020000A002575002E656E61626C653A2097
:1006B000000A0025303258006261636B6C6967681C
:1006C000745F636F6E6669672E7261773A20000A05
:1006D000002575002E6E6B726F3A20000A0025759A
:1006E000002E737761705F6261636B736C61736816
:1006F0005F6261636B73706163653A20000A002575
:1007000075002E737761705F67726176655F6573E0
:10071000633A20000A002575002E6E6F5F677569C9
:100720003A20000A002575002E737761705F7261B0
:100730006C745F726775693A20000A002575002E97
:10074000737761705F6C616C745F6C6775693A2078
:10075000000A002575002E636170736C6F636B5F18
:10076000746F5F636F6E74726F6C3A20000A0025BD
:1007700075002E737761705F636F6E74726F6C5F5C
:10078000636170736C6F636B3A20000A002530322E
:1007900058006B65796D61705F636F6E6669672E77
:1007A0007261773A20000A002575002E6D6F75730F
:1007B000653A20000A002575002E6B6579626F612D
:1007C00072643A20000A002575002E6D617472690A
:1007D000783A20000A002575002E656E61626C650E
:1007E0003A20000A00253032580064656275675F60
:1007F000636F6E6669672E7261773A20000A002582
:10080000750064656661756C745F6C617965723AD8
:1008100020003F004E4B524F3A206F66660A004E52
:100820004B524F3A206F6E0A0074696D65725F72A9
:10083000656164333228293A202530346C580A0027
:100840006B6579626F6172645F6E6B726F3A2025BF
:10085000580A006B6579626F6172645F69646C65E8
:100860003A2025580A006B6579626F6172645F7087
:10087000726F746F636F6C3A2025580A00686F734B
:10088000745F6B6579626F6172645F6C6564732815
:10089000293A2025580A000A092D205374617475DD
:1008A00073202D0A004743433A20342E392E32203C
:1008B0004156522D4C4942433A20312E382E307346
:1008C000766E204156525F415243483A206176721B
:1008D000350A004F5054494F4E533A204C5546412B
:1008E00020424F4F544D41474943204D4F555345AA
:1008F0004B45592045585452414B455920434F4E82
:10090000534F4C4520434F4D4D414E44204E4B528A
:100910004F204B45594D41505F494E5F4545505220
:100920004F4D204C45444D4150204C45444D415085
:100930005F494E5F454550524F4D204241434B4C1D
:100940004947485420534F465450574D5F4C4544F7
:1009500020425245415448494E475F4C454420345B
:100960003039360A004255494C443A203463303716
:10097000663030202831313A34393A3333204665F5
:10098000622031362032303137290A005649443A44
:1009900020307846454544286765656B6861636B20
:1009A00029205049443A203078363036302847489C
:1009B000363029205645523A203078303030310ACE
:1009C00000444553433A20742E6D2E6B2E206B65E8
:1009D00079626F617264206669726D7761726520F9
:1009E000666F7220474836300A000A092D20566586
:1009F0007273696F6E202D0A000A6D6F7573653A08
:100A0000206F66660A000A6D6F7573653A206F6E17
:100A10000A000A6B6579626F6172643A206F6666DC
:100A20000A000A6B6579626F6172643A206F6E0A20
:100A3000000A6D61747269783A206F66660A000A6E
:100A40006D61747269783A206F6E0A000A6465629B
:100A500075673A206F6E0A000A64656275673A200E
:100A60006F66660A000A0A626F6F746C6F61646574
:100A7000722E2E2E2000433E20006565636F6E6649
:100A800069673A0A00000000000000000000000151
:100A90000101020202030304040505060607080813
:100AA000090A0B0B0C0D0E0F101112131516171946
:100AB0001A1B1D1E2022232527292B2D2F313335CC
:100AC000383A3D3F4244474A4D505356595C5F6265
:100AD00066696C7074777B7E82868A8E9195999D0B
:100AE000A1A5A9ADB0B4B8BCC0C3C7CBCED2D5D830
:100AF000DBDFE2E4E7EAECEFF1F3F5F7F8FAFBFC11
:100B0000FDFEFFFFFF524742204C4544204C6576D6
:100B1000656C3A2025640A006261636B6C696768E2
:100B20007420737465703A2025750A006261636BE6
:100B30006C6967687420746F67676C653A20257507
:100B40000A006261636B6C69676874206375737413
:100B50006F6D2064656372656173653A2025750A5F
:100B6000006261636B6C6967687420637573746F8E
:100B70006D20696E6372656173653A2025750A00A0
:100B800011241FBECFEFDAE0DEBFCDBF04B603FEF7
:100B900027C08091640490916504A0916604B0918F
:100BA00067048730904BA740B04BD1F41092640497
:100BB00010926504109266041092670414BE84B704
:100BC000877F84BF0FB6F894A895809160008861F4
:100BD00080936000109260000FBEE0E0F8E309959A
:100BE00013E0A0E0B1E0E4E7F9E602C005900D9261
:100BF000A432B107D9F724E0A4E2B3E001C01D920A
:100C0000A436B207E1F70E94000C0C94B8340C949F
:100C10000000FF93EF93E0912403F09125033097B8
:100C200009F00995EF91FF910895FC0185918030BD
:100C300011F0EFDFFBCF0895FF27E0E230E247FF3E
:100C40000CC0419597FF09C0EDE2609570958095C5
:100C50009095611D711D811D911D27FF02C0219579
:100C600030E350E2AA27660F771F881F991FAA1F3B
:100C7000A41710F0A41B63955A95A9F7AA3008F0A1
:100C8000A95FA05DAF93F39561157105810591058D
:100C900041F7ED3211F4EF93F395F21718F43F9307
:100CA000F395FBCF8F91B5DFFA95E1F70895E991C0
:100CB000F9918591803021F0853219F0AADFF9CFC2
:100CC000089520E0E89455915532C1F3503311F462
:100CD000689455915A3348F4505390F3220F022EE2
:100CE000220F220F200D250FF4CF0EF421958991AC
:100CF0009991533619F3533729F1533559F1BC0102
:100D000088279927E8945C3621F489919991689411
:100D10005591543639F446EF7EF077FF0DC08FEFD2
:100D20009FEF0AC055374AE039F0583540E121F0CD
:100D3000523642E009F00895FF93EF937DDFEF9183
:100D4000FF91B7CFFF93EF93FC0181918030B9F30E
:100D500060DFFBCFFF93EF9368DFF1CFDF93CF939B
:100D6000CDB7DEB72596A3DFCF91DF9108958CE84C
:100D700090E0089584E090E00895611104C0FC01C2
:100D80008281811103C080E090E0089580EE90E0C0
:100D900008950F931F93CF93DF938C01D62FC42F09
:100DA000611118C0FC018281882371F00E94881DA6
:100DB000827211F085E301C089E28093260380915D
:100DC00026030E94291204C0809126030E94FC126F
:100DD0000E94BC1DF80182818823B1F1D130A1F5B8
:100DE000C230F1F050F4CC23A9F0C13069F5DF91A5
:100DF000CF911F910F910C94FA2DC430E9F0B0F00F
:100E0000C53011F561E08EE1DF91CF911F910F9117
:100E10000C94882EDF91CF911F910F910C94F32D9C
:100E2000DF91CF911F910F910C94162EDF91CF91EE
:100E30001F910F910C942D2E61E08EE1DF91CF91E7
:100E40001F910F910C94772EDF91CF911F910F91ED
:100E50000895462F672F0C946632805C0E945A32A8
:100E6000089581EF90E0089589EE90E008958AB1A9
:100E7000807D8AB98BB1807D8BB9089585E0089516
:100E80008EE0089580E885BF85BF0E94370780B354
:100E90008C7F80BB81B3836081BB6E98769A8AB168
:100EA0008F728AB98BB1806D8BB987B18F7387B917
:100EB00088B1806C88B984B1847484B985B18B6B36
:100EC00085B9E1E3F3E0A7E2B3E0119211921D923C
:100ED0001D9283E0EB33F807C1F70895BF92CF92DC
:100EE000DF92EF92FF920F931F93CF93DF9307E26E
:100EF00013E0E801B12CDD24D394A5E0CA2EB6EAB4
:100F0000EB2EB1E0FB2E82E0B81691F08B1520F0AD
:100F100091E0B91651F006C0A3E0BA1661F0B4E052
:100F2000BB1661F0509A58980BC0519A599808C056
:100F3000529A5A9805C0539A5B9802C0559A5D9888
:100F400080EA8A95F1F72FB121702D2530E079994B
:100F500003C082E090E002C080E090E0282B392BB3
:100F6000669903C084E090E002C080E090E0822BAC
:100F7000932B46B1042E000C550B409550959A01C9
:100F80002227330F221F3327F3E0220F331FFA9556
:100F9000E1F7282B392B369903C080E190E002C09D
:100FA00080E090E0A901482B592B23B1022E000CC0
:100FB000330B20953095C9018827990F881F9927F1
:100FC00075E0880F991F7A95E1F7842B952B4C9942
:100FD00003C020E430E002C020E030E0822B932BFD
:100FE000199903C020E830E002C020E030E0822BF5
:100FF000932B189903C0E0E0F1E002C0E0E0F0E0DC
:101000008E2B9F2B1D9903C060E072E002C060E050
:1010100070E0862B972B1C9903C020E034E002C0BF
:1010200020E030E0AC01422B532B29B1022E000C02
:10103000330B20953095C9018827990F881F992770
:10104000982F8827990F990F990F842B952B4E99DC
:1010500003C020E030E102C020E030E0822B932B7F
:101060001B9903C020E030E202C020E030E0822B78
:10107000932B288139812817390741F19983888377
:1010800080910001882301F18091B70380FF04C0A3
:101090008BEA91E00E9415068091B70380FF0CC097
:1010A000809100011F928F93FF92EF920E94AE06F3
:1010B0000F900F900F900F908091B70380FF04C0A6
:1010C00084EA91E00E941506C09200010E94370751
:1010D000B394229695E0B91216CF8091000188232F
:1010E000C1F0815080930001882339F0AFE9BFE05F
:1010F0001197F1F700C000000CC0E1E3F3E0D80164
:101100008D919D918D0181939193B3E001331B07E4
:10111000B1F781E0DF91CF911F910F91FF90EF9098
:10112000DF90CF90BF900895E82FF0E0EE0FFF1F03
:10113000EF5CFC4F808191810895CF92DF92EF9216
:10114000FF920F931F93CF93DF938DE891E00E945E
:10115000150681E3E82E83E0F82EC0E0D0E098E8A1
:10116000C92E91E0D92E0FE711E0DF93CF93DF92E4
:10117000CF920E94AE0685E891E00E941506F70125
:10118000819191917F010E94FD1D9F938F931F93E9
:101190000F930E94AE068DE791E00E9415062196FE
:1011A0008DB79EB708960FB6F8949EBF0FBE8DBF41
:1011B000C530D105D1F6DF91CF911F910F91FF90EE
:1011C000EF90DF90CF900895CF93C82F0E948D2A83
:1011D000C730C0F4C43010F5C130C0F10E94A82A55
:1011E0000E94FC2A0E94322BEC2FF0E0EB54FE4FC1
:1011F000C4916C2F80E00E94BA2A6C2F81E0CF91BD
:101200000C94BA2AC730A9F0C83001F50E94A82A68
:101210000E94F62A0E94322B81E012C00E94A82A66
:101220000E942C2B0E94FC2A86E08C1BCF910C94F0
:10123000372B0E94A82A0E94F62A0E94322B80E0B7
:101240000E94192B83E0CF910C94242B0E94FC2A3E
:101250000E94322B60E080E00E94BA2A60E081E0C8
:101260000E94BA2ACF910C94AE2A1F93CF93DF939A
:1012700000D000D01F92CDB7DEB7162F8091630447
:1012800080FF20C08E7F8E3041F4662331F080E2F3
:101290000E94272B80E10E94EB2A809163048E7FBD
:1012A000803181F4112371F080E20E94272B80E1CC
:1012B0000F900F900F900F900F90DF91CF911F9193
:1012C0000C94D42A0F900F900F900F900F90DF91F5
:1012D000CF911F910895089560E0FC0180810C94E6
:1012E0005D2E60E0FC0180810C945D2EE82FF0E023
:1012F000EE0FFF1FE754FE4F859194910895809162
:101300004E0308959FB7F89410923D039FBF9091AC
:101310005904943009F057C09091E9009F703091C2
:10132000EC00232F217030FD20E8922B24E0209345
:10133000E9002091EB0020FF43C02091EE0027FF41
:101340003FC020913B03222321F02091E80025FF9C
:1013500037C010923B0326E03091E80035FD15C000
:1013600030915904343061F53091EB0035FD28C0DF
:10137000215021F481E080933B0322C0EFE9FFE09C
:101380003197F1F700C00000E7CF8093F100809122
:10139000E80085FD0AC08091E80080FFFCCF8091C5
:1013A000E8008E778093E80006C08FB7F89421E0BC
:1013B00020933D038FBF9F709093E90080E00895D4
:1013C0009F709093E9008FEF0895CF93DF9300D043
:1013D0001F92CDB7DEB79C0180915904843019F576
:1013E00093E099833B832A839093E9008FEF909158
:1013F000E800815095FD06C095ED9A95F1F7000043
:101400008111F5CF8091E80085FF0DC040E050E0EC
:1014100063E070E0CE0101960E94BA0C8091E80072
:101420008E778093E8000F900F900F90DF91CF910F
:101430000895CF93DF9300D01F92CDB7DEB72091F0
:101440005904243021F522E029839B838A8383E099
:101450008093E9008FEF9091E800815095FD06C0E0
:1014600095ED9A95F1F700008111F5CF8091E80094
:1014700085FF0DC040E050E063E070E0CE010196D2
:101480000E94BA0C8091E8008E778093E8000F905C
:101490000F900F90DF91CF9108952091590424303F
:1014A000F1F422E02093E9002FEF3091E800215081
:1014B00035FD06C035ED3A95F1F700002111F5CF65
:1014C0002091E80025FF0BC040E050E065E070E0AF
:1014D0000E94BA0C8091E8008E778093E80008950E
:1014E000CF93DF9320915904243009F048C0EC01D8
:1014F00080910B018823E1F080910C018823C1F0D9
:1015000085E08093E9008FEF9091E800815095FD90
:1015100006C095E19A95F1F700008111F5CF809111
:10152000E80085FF2CC040E050E060E170E017C0AB
:1015300081E08093E9008FEF9091E800815095FD64
:1015400006C095ED9A95F1F700008111F5CF8091D5
:10155000E80085FF14C040E050E068E070E0CE0194
:101560000E94BA0C8091E8008E778093E80080E1B9
:10157000FE01AEE3B3E001900D928A95E1F7DF91B1
:10158000CF91089583EF91E00E9415068091580451
:10159000811109C00E94CD0D0E94280E8091E200A9
:1015A00084608093E20008958FEE91E00E9415061A
:1015B0001092580408958BEE91E00C94150620913A
:1015C0003C032F5F822F62E30E944D34992319F070
:1015D00020933C03089510923C0380913D0388239F
:1015E00071F180915904843041F58091E9008F7048
:1015F0002091EC00922F917020FD90E8892B94E0CF
:101600009093E9009091EB0090FF14C09091EE0050
:1016100097FF10C09091E80095FF03C01092F10071
:10162000F9CF9091E80090FF05C09091E8009E7777
:101630009093E8008F708093E90010923D03089525
:1016400042E061EC81E00E94680D42E061EC82E0E2
:101650000E94680D42E061EC83E00E94680D42E266
:1016600061EC84E00E94680D42E161EC85E00C943D
:10167000680D80915B04833009F455C030F48130EB
:1016800071F0823009F48EC008958A3009F47AC06E
:101690008B3009F460C0893009F09CC020C0809173
:1016A0005A04813A09F096C08091E800877F8093C0
:1016B000E80080915E0490915F04892B21F460E141
:1016C0008EE393E003C060E080E090E070E00E9471
:1016D000050D8091E8008B778093E8000895809154
:1016E0005A04813209F076C080915E0490915F04C3
:1016F000009719F0049709F06DC08091E800877F8A
:101700008093E8008091E80082FD05C08091590433
:101710008111F8CF5FC08091F10080934E038091DA
:10172000E8008B7753C080915A04813A09F052C087
:1017300080915E0490915F04892B09F04BC08091E9
:10174000E800877F8093E8008091E80080FFFCCF6D
:1017500080910B0136C080915A048132D9F5809175
:101760005E0490915F04892BA9F58091E800877F42
:101770008093E8000E947C0D80915C0480930B01B3
:101780000C94E61680915A04813221F58091E8008C
:10179000877F8093E8000E947C0D80915D04809398
:1017A0004F03089580915A04813AA1F48091E80092
:1017B000877F8093E8008091E80080FFFCCF8091D4
:1017C0004F038093F1008091E8008E778093E800CA
:1017D0000C947C0D089508950895089587EE91E086
:1017E0000E9415060C94ED0B0E94191E809157045F
:1017F000882329F00E94461E81110C94A40C0895A0
:1018000084B7877F84BF0FB6F894A8958091600055
:10181000886180936000109260000FBE90E080E8C5
:101820000FB6F89480936100909361000FBE0E9400
:10183000EB0B0E9404110E94CD0D0E94280E809196
:10184000E20084608093E20082E899E00E94E21D59
:101850007894809159048430E1F782ED91E00E9400
:1018600015060E94061181E091E00E94721081EC41
:1018700091E00E9415060E94EC0B8091590485307E
:1018800039F48DEB91E00E9415060E94F40BF5CF20
:101890000E941811F2CF0C945B1E83EE91E00E941F
:1018A00015060C944B0C292F332723303105C1F03A
:1018B0005CF42130310579F022303105E9F58DE80D
:1018C00090E02DE531E03CC021323105C1F02232FB
:1018D000310511F131C082E190E02AEE31E030C0F3
:1018E00099278330910540F5FC01EE0FFF1FED5C59
:1018F000FE4F20813181FC01E05DFE4F1AC0653052
:10190000D8F4E62FF0E0EE0FFF1FEA5DFE4F2081D6
:10191000318189E090E014C0653070F470E0FB0123
:10192000EE0FFF1FE45EFE4F20813181FB01E95E77
:10193000FE4F808190E004C080E090E020E030E045
:10194000FA0131832083089580E189BD82E189BD58
:1019500009B400FEFDCF8091D8008F7D8093D80020
:101960008091E00082608093E0008091E00081FD42
:10197000FCCF0895CF92DF92EF92FF920F931F93C7
:10198000CF93DF93EC018B016A010E949B0D8111C3
:1019900033C0C114D10439F0F60180819181081B54
:1019A000190BC80FD91FE12CF12C0115110519F1E4
:1019B0008091E80085FD16C08091E8008E778093C5
:1019C000E800C114D10449F0F60180819181E80E4C
:1019D000F91EF182E08285E00FC00E949B0D8823F2
:1019E00021F30AC089918093F10001501109FFEFA2
:1019F000EF1AFF0ADACF80E0DF91CF911F910F91AC
:101A0000FF90EF90DF90CF90089520916004309187
:101A100061042617370748F06115710539F42091E4
:101A2000E8002E772093E80001C0B90140E061157D
:101A30007105A9F120915904222309F443C02530EE
:101A400009F442C02091E80023FD40C02091E80045
:101A500022FD32C02091E80020FFE9CF4091F30041
:101A60002091F20030E0342BFC01CF0161157105AB
:101A700059F02830310540F481918093F100615094
:101A800071092F5F3F4FF1CF41E02830310509F058
:101A900040E02091E8002E772093E800C8CF411164
:101AA000C9CF0AC080915904882361F0853061F064
:101AB0008091E80083FD0AC08091E80082FFF2CFA8
:101AC00080E0089582E0089583E0089581E008951C
:101AD0008F708093E900EBEEF0E08081816080837D
:101AE000EDEEF0E010826093EC0040838091EE0018
:101AF000881F8827881F089580915A0487FF11C086
:101B00008091E80082FD05C0809159048111F8CFD1
:101B100011C08091E8008B770BC080915904882315
:101B200049F08091E80080FFF8CF8091E8008E773F
:101B30008093E80008952091E4003091E50095E657
:101B40004091EC00842F817040FF22C08091E8001A
:101B500080FD1CC080915904882391F0853091F05C
:101B60008091EB0085FD10C04091E4005091E500AC
:101B70004217530729F39A01915011F784E0089511
:101B800082E0089583E0089581E0089580E008955B
:101B90004091E80042FFDECF08950E94390E0E9476
:101BA000410EE0EEF0E0808181608083E8EDF0E0BE
:101BB00080818F77808319BCA7EDB0E08C918E7FF8
:101BC0008C9380818F7E80831092580408950F93A8
:101BD0001F93CF93DF930E94390E0E94410EC8EDF0
:101BE000D0E088818F778883888180688883888126
:101BF0008F7D888319BC109259041092560410925C
:101C0000570400EE10E0F80180818B7F808388818B
:101C10008160888342E060E080E00E94680DE1EE30
:101C2000F0E080818E7F8083E2EEF0E08081816051
:101C30008083808188608083F80180818E7F8083AB
:101C4000888180618883DF91CF911F910F910895E2
:101C5000E8EDF0E080818F7E8083E7EDF0E0808129
:101C60008160808384E082BF81E0809358040C947B
:101C7000E70DE8EDF0E080818E7F80831092E20036
:101C800008951092DA001092E10008951F920F92C9
:101C90000FB60F9211242F933F934F935F936F933F
:101CA0007F938F939F93AF93BF93EF93FF93809115
:101CB000E10082FF0BC08091E20082FF07C08091AB
:101CC000E1008B7F8093E1000E94DF0A8091DA00BF
:101CD00080FF1FC08091D80080FF1BC08091DA0078
:101CE0008E7F8093DA008091D90080FF0DC080E163
:101CF00089BD82E189BD09B400FEFDCF81E08093FA
:101D000059040E94C20A05C019BC109259040E94CD
:101D1000D40A8091E10080FF19C08091E20080FF29
:101D200015C08091E2008E7F8093E2008091E200F6
:101D300080618093E2008091D80080628093D80017
:101D400019BC85E0809359040E94EE0B8091E1005C
:101D500084FF30C08091E20084FF2CC080E189BD07
:101D600082E189BD09B400FEFDCF8091D8008F7D4E
:101D70008093D8008091E1008F7E8093E100809174
:101D8000E2008F7E8093E2008091E2008160809388
:101D9000E20080915604882311F084E007C080910E
:101DA000E30087FD02C081E001C083E08093590415
:101DB0000E944D0C8091E10083FF29C08091E200D8
:101DC00083FF25C08091E100877F8093E10082E05E
:101DD00080935904109256048091E1008E7F809385
:101DE000E1008091E2008E7F8093E2008091E2002A
:101DF00080618093E20042E060E080E00E94680D34
:101E00008091F00088608093F0000E94DB0AFF91CF
:101E1000EF91BF91AF919F918F917F916F915F9162
:101E20004F913F912F910F900FBE0F901F901895DB
:101E30001F920F920FB60F9211242F933F934F933F
:101E40005F936F937F938F939F93AF93BF93CF9342
:101E5000DF93EF93FF93C091E900CF708091EC0086
:101E6000D82FD17080FDD0E81092E9008091F00069
:101E7000877F8093F00078940E945C0F1092E900B5
:101E80008091F00088608093F000CD2BCF70C093DC
:101E9000E900FF91EF91DF91CF91BF91AF919F91B9
:101EA0008F917F916F915F914F913F912F910F9003
:101EB0000FBE0F901F9018951F93CF93DF9300D004
:101EC000CDB7DEB7EAE5F4E088E08E0F9091F1003F
:101ED00091938E13FBCF0E94390B8091E80083FF12
:101EE000EDC080915A0490915B04492F50E04A3034
:101EF000510508F0E3C0FA01EA5AFF4F0C9481340F
:101F0000803881F0823809F0D9C080915E048F70EA
:101F10008093E9008091EB0085FB882780F910927F
:101F2000E90007C080915704882311F082E001C0C6
:101F300080E09091E800977F9093E8008093F10013
:101F40001092F10095C0282F2D7F09F0B7C088238B
:101F500019F0823061F0B2C080915C04813009F0E8
:101F6000ADC0933009F080E0809357042BC080917E
:101F70005C04811127C080915E048F7009F49EC0BB
:101F80008093E9002091EB0020FF1CC0933021F4E6
:101F90008091EB00806214C09091EB00906190936F
:101FA000EB0021E030E0A90102C0440F551F8A95E3
:101FB000E2F74093EA001092EA008091EB0088601B
:101FC0008093EB001092E9008091E800877F53C076
:101FD000811174C010915C041F778091E3008078B8
:101FE000812B8093E3008091E800877F8093E80055
:101FF0000E947C0D8091E80080FFFCCF8091E3007F
:1020000080688093E300111102C082E001C083E088
:102010008093590453C08058823008F04FC0AE01FD
:102020004F5F5F4F60915E0480915C0490915D040E
:102030000E94530CBC01892B09F440C09091E80028
:10204000977F9093E80089819A810E94050D809185
:10205000E8008B778093E80031C0803879F5809173
:10206000E800877F8093E800809156048093F10018
:102070008091E8008E778093E8000E947C0D1EC05E
:1020800081111CC090915C049230C0F48091E800F2
:10209000877F8093E800909356040E947C0D809186
:1020A0005604811106C08091E30087FD02C081E0E3
:1020B00001C084E0809359040E94200B8091E800C5
:1020C00083FF0AC08091E800877F8093E8008091B9
:1020D000EB0080628093EB000F900F90DF91CF9127
:1020E0001F91089590935503809354030895E091B0
:1020F0005403F0915503309721F00190F081E02DC9
:10210000099480E00895EF92FF920F931F93CF936D
:10211000DF93E0915403F09155033097B1F18C01B6
:102120000280F381E02D09958091B70382FF2DC0D5
:1021300080FF04C08FEF91E00E941506E80110E1D6
:1021400089EFE82E81E0F82E8091B70380FF0BC065
:1021500088811F928F93FF92EF920E94AE060F909C
:102160000F900F900F90115021961111EDCF80918B
:10217000B70380FF0AC087EF91E0DF91CF911F91F5
:102180000F91FF90EF900C941506DF91CF911F9166
:102190000F91FF90EF900895E0915403F091550353
:1021A000309721F00480F581E02D09940895209165
:1021B0005203309153038217930771F090935303A6
:1021C00080935203E0915403F0915503309721F02E
:1021D0000680F781E02D09940895209150033091F5
:1021E00051038217930771F090935103809350032A
:1021F000E0915403F0915503309721F00084F1856C
:10220000E02D0994089508950C9403110E94881EEE
:102210000E9442070E94A6200E94D2310E944F30A5
:102220000E947A2A0E94C42E0E94A42D0C94153379
:102230004F925F927F928F929F92AF92BF92CF9276
:10224000DF92EF92FF920F931F93CF93DF9300D013
:1022500000D01F92CDB7DEB70E946E0797E5C92E5A
:1022600093E0D92E00E010E0AA24A394B12C702EA4
:10227000802F0E9494084C01F601419051906F010B
:102280004826592641145104B1F40F5F1F4F053001
:10229000110569F78FEF89838A831B820E94911E43
:1022A0008160782F9D838C8349815A816B818D81D8
:1022B0000E94E91141C08091B70381FD0E949D08F1
:1022C00020E030E07501022E02C0EE0CFF1C0A94E3
:1022D000E2F7C70184219521892B41F129837A8274
:1022E0008E209F2091E0892809F490E09B830E9432
:1022F000911E8160782F9D838C8349815A816B81E7
:102300008D810E94E91149815A816B817C818D8187
:102310000E943509000F111FF801E95AFC4F808116
:102320009181E826F926F182E08206C02F5F3F4FB7
:102330002E30310539F6A9CF0E94171E0E9467245E
:10234000109156030E947710181771F10E947710B0
:10235000809356039091B70392FF0EC090FF0CC07C
:102360001F928F9381E192E09F938F930E94AE061C
:102370000F900F900F900F90809156030F900F9039
:102380000F900F900F90DF91CF911F910F91FF90C1
:10239000EF90DF90CF90BF90AF909F908F907F9005
:1023A0005F904F900C94DA300F900F900F900F9039
:1023B0000F90DF91CF911F910F91FF90EF90DF90E1
:1023C000CF90BF90AF909F908F907F905F904F90F5
:1023D0000895CF93DF93CDB7DEB72B970FB6F89460
:1023E000DEBF0FBECDBF942F4F83252F588769873F
:1023F0007A878B874A855B85452B21F02F3F09F52E
:102400009F3FF9F4DE01119686E0FD0111928A9555
:10241000E9F785E0FE01379601900D928A95E1F784
:1024200049815A816B817C818D819E810E948019B6
:102430002B960FB6F894DEBF0FBECDBFDF91CF91C4
:1024400008954F81588569857A858B850E94350965
:10245000D9CFCF93882309F4CDC0C82F823859F43F
:102460000E94771081FDC6C089E30E940B1C0E9468
:10247000BC1D89E30CC0833879F40E94771080FD7D
:10248000B9C083E50E940B1C0E94BC1D83E50E941D
:10249000DF1CCF910C94BC1D843859F40E94771036
:1024A00082FDA8C087E40E940B1C0E94BC1D87E42B
:1024B000EECF8CEF8C0F813A48F48C2F0E942529A7
:1024C000811198C08C2F0E940B1CE3CF80E28C0FEF
:1024D000883048F4C77081E001C0880FCA95EAF7D8
:1024E0000E948B1DD6CF8BE58C0F833078F4C53AD4
:1024F00029F0C63A31F083E890E005C081E890E029
:1025000002C082E890E0CF910C94D71088E58C0F40
:10251000853108F06FC0C83A61F1C93A69F1CA3A29
:1025200071F1CB3A79F1CC3A81F1CD3A89F1CE3AD9
:1025300091F1CF3A99F1C13BA1F1C03BA9F1C23B66
:10254000B1F1C33BB9F1C43BC1F1C53BC9F1C63BD5
:10255000D1F1C73BD9F1C83BE1F1C93BE9F1CA3B35
:10256000F1F1CB3BF9F1CC3B09F43FC080E090E0C6
:102570003EC082EE90E03BC089EE90E038C08AEE2B
:1025800090E035C085EB90E032C086EB90E02FC044
:1025900083EB90E02CC084EB90E029C087EB90E0C7
:1025A00026C08CEC90E023C08DEC90E020C083E846
:1025B00091E01DC08AE891E01AC082E991E017C05D
:1025C00084E991E014C081E292E011C083E292E0DC
:1025D0000EC084E292E00BC085E292E008C086E281
:1025E00092E005C087E292E002C08AE292E0CF91D9
:1025F0000C94ED10CF910895882309F44BC08238D4
:1026000059F40E94771081FF45C089E30E940B1C9A
:102610000E94BC1D89E30CC0833871F40E947710BE
:1026200080FF38C083E50E940B1C0E94BC1D83E51F
:102630000E94DF1C0C94BC1D843859F40E94771052
:1026400082FF28C087E40E940B1C0E94BC1D87E407
:10265000EFCF9CEF980F913A58F390E2980F983093
:1026600050F4877091E001C0990F8A95EAF7892F9D
:102670000E94911DDFCF9BE5980F933020F480E0FE
:1026800090E00C94D710885A853120F480E090E0D7
:102690000C94ED100895882321F00E948B1D0C945A
:1026A000BC1D0895882321F00E94911D0C94BC1D2F
:1026B0000895CF92DF92EF92FF920F931F93CF93E3
:1026C000DF93CDB7DEB727970FB6F894DEBF0FBE06
:1026D000CDBF25E0FC01DE01119601900D922A95F7
:1026E000E1F7FC01408131810281258122952F7023
:1026F00063817481672B09F448C33F3F19F44F3F4E
:1027000009F443C36C0149833A8389819A812F83F9
:102710000E94CA1B182F9E830E94C91B0E94D91AAF
:102720009E81E92FE295EF70F0E0E05AFF4F2F8194
:102730000C948134892F807F9F70F92E882319F0A3
:10274000F29490EFF922002349F0FF2009F45FC2D0
:102750008F2D0E949E1D0E94BC1D59C2812F0E9478
:10276000FC12FF2009F411C38F2D0E94A41D27968F
:102770000FB6F894DEBF0FBECDBFDF91CF911F9192
:102780000F91FF90EF90DF90CF900C94BC1D892F9C
:10279000807F9F70F92E803219F0F29480EFF8223A
:1027A000112319F0113001F129C00023A9F08F2D58
:1027B000222349F1213039F527960FB6F894DEBF70
:1027C0000FBECDBFDF91CF911F910F91FF90EF9082
:1027D000DF90CF900C94AE1D222319F0213009F424
:1027E000D4C20E94B11D2CC00023E9F0263008F0AD
:1027F000CCC20E94881D8F2129F022C00023F1F055
:10280000211115C08F2D27960FB6F894DEBF0FBE8D
:10281000CDBFDF91CF911F910F91FF90EF90DF908F
:10282000CF900C944B13253008F0AFC209C0F601CD
:10283000858180FFECC18F708583E4CF2111FBC1BE
:102840008F2D69C1292F26952695237030E02115FB
:10285000310521F021303105C1F097C2002319F074
:10286000812F937002C080E090E027960FB6F89415
:10287000DEBF0FBECDBFDF91CF911F910F91FF90B3
:10288000EF90DF90CF900C94D710002319F0812F98
:10289000937002C080E090E027960FB6F894DEBFF8
:1028A0000FBECDBFDF91CF911F910F91FF90EF90A1
:1028B000DF90CF900C94ED10812F002319F00E942F
:1028C000ED2202C00E94552327960FB6F894DEBF72
:1028D0000FBECDBFDF91CF911F910F91FF90EF9071
:1028E000DF90CF900C94DA23892F837009F079C0A0
:1028F00001114BC2812F829586958770880F880FB2
:10290000212F2F70C22ED12CE12CF12C082E04C0C7
:10291000CC0CDD1CEE1CFF1C0A94D2F714FF12C075
:102920004FE050E060E070E004C0440F551F661FA8
:10293000771F8A95D2F78A019B0100951095209503
:10294000309503C000E010E098019695969593703D
:10295000492F50E0C901B80142305105D1F0433050
:10296000510559F16C297D298E299F294130510546
:1029700041F127960FB6F894DEBF0FBECDBFDF91B1
:10298000CF911F910F91FF90EF90DF90CF900C941B
:10299000EE1A6C297D298E299F2927960FB6F89467
:1029A000DEBF0FBECDBFDF91CF911F910F91FF9082
:1029B000EF90DF90CF900C94001B0E94EE1AC7019D
:1029C000B60127960FB6F894DEBF0FBECDBFDF91DC
:1029D000CF911F910F91FF90EF90DF90CF900C94CB
:1029E000DC1A002319F0892F817001C08695882395
:1029F00009F4CBC1812F829586958770880F880F47
:102A0000212F2F70C22ED12CE12CF12C082E04C0C6
:102A1000CC0CDD1CEE1CFF1C0A94D2F714FF12C074
:102A20004FE050E060E070E004C0440F551F661FA7
:102A3000771F8A95D2F78A019B0100951095209502
:102A4000309503C000E010E098019695969593703C
:102A5000492F50E0C901B80142305105D1F043304F
:102A6000510559F16C297D298E299F294130510545
:102A700041F127960FB6F894DEBF0FBECDBFDF91B0
:102A8000CF911F910F91FF90EF90DF90CF900C941A
:102A9000A51B6C297D298E299F2927960FB6F894AE
:102AA000DEBF0FBECDBFDF91CF911F910F91FF9081
:102AB000EF90DF90CF900C94B71B0E94A51BC7012D
:102AC000B60127960FB6F894DEBF0FBECDBFDF91DB
:102AD000CF911F910F91FF90EF90DF90CF900C94CA
:102AE000931B103F41F118F4103E48F48BC0123F85
:102AF00009F450C0D8F1133F09F460C083C01F70BF
:102B0000892F8F71002321F00E942C1B812F7BCEF7
:102B10000E944D1B812F27960FB6F894DEBF0FBE83
:102B2000CDBFDF91CF911F910F91FF90EF90DF907C
:102B3000CF900C9452130023A9F0253008F025C142
:102B4000892F8F7127960FB6F894DEBF0FBECDBFC9
:102B5000DF91CF911F910F91FF90EF90DF90CF9079
:102B60000C94721B263008F010C1EACF0023A1F0AC
:102B7000892F8F7127960FB6F894DEBF0FBECDBF99
:102B8000DF91CF911F910F91FF90EF90DF90CF9049
:102B90000C942C1B002361F3892F8F7127960FB69D
:102BA000F894DEBF0FBECDBFDF91CF911F910F9183
:102BB000FF90EF90DF90CF900C944D1B002391F08D
:102BC000892F8F7127960FB6F894DEBF0FBECDBF49
:102BD000DF91CF911F910F91FF90EF90DF90CF90F9
:102BE0000C94171B27960FB6F894DEBF0FBECDBF0F
:102BF000DF91CF911F910F91FF90EF90DF90CF90D9
:102C00000C94121B0023A1F0222309F4B1CF812FD1
:102C100027960FB6F894DEBF0FBECDBFDF91CF91E0
:102C20001F910F91FF90EF90DF90CF900C9429129D
:102C3000222309F4B1CF812F27960FB6F894DEBF77
:102C40000FBECDBFDF91CF911F910F91FF90EF90FD
:102C5000DF90CF900C94FC12492F4F70612FC6016A
:102C60000E94BD0627960FB6F894DEBF0FBECDBFFB
:102C7000DF91CF911F910F91FF90EF90DF90CF9058
:102C80000C94241A011181C0112341F0892F8F70F7
:102C9000843021F0907F212F2F70922B9F70892FED
:102CA00090E082309105E9F1ACF4009751F1019781
:102CB00009F06BC027960FB6F894DEBF0FBECDBFEC
:102CC000DF91CF911F910F91FF90EF90DF90CF9008
:102CD0000C94012F83309105A1F1049709F055C0A0
:102CE000812F27960FB6F894DEBF0FBECDBFDF91C0
:102CF000CF911F910F91FF90EF90DF90CF900C94A8
:102D0000952F27960FB6F894DEBF0FBECDBFDF918B
:102D1000CF911F910F91FF90EF90DF90CF900C9487
:102D2000D52E27960FB6F894DEBF0FBECDBFDF912C
:102D3000CF911F910F91FF90EF90DF90CF900C9467
:102D40002D2F27960FB6F894DEBF0FBECDBFDF91B3
:102D5000CF911F910F91FF90EF90DF90CF900C9447
:102D60005F2F492F4F70612FC60127960FB6F89439
:102D7000DEBF0FBECDBFDF91CF911F910F91FF90AE
:102D8000EF90DF90CF900C94C90627960FB6F89479
:102D9000DEBF0FBECDBFDF91CF911F910F91FF908E
:102DA000EF90DF90CF9008950E94AB1D0E947A1D96
:102DB0000E94BC1D0E940C250E94DA2380E090E056
:102DC0000E94D71080E090E00C94ED100E949B1DB3
:102DD0000C94D4160E94CA1B292F22952F7030E024
:102DE0002C3031054CF42A3031056CF42250310975
:102DF0002230310588F407C02C30310549F02F30DE
:102E0000310531F009C0803E48F0803F29F406C00A
:102E100093FB882780F9089580E0089581E0089564
:102E2000CF93DF9300D000D01F92CDB7DEB70F90C5
:102E30000F900F900F900F90DF91CF910895CF9347
:102E4000DF9300D000D000D0CDB7DEB726960FB606
:102E5000F894DEBF0FBECDBFDF91CF9108951F93D1
:102E6000CF93DF93C091610316E080916203C8178E
:102E700099F0D0E01C9FF0011D9FF00D1124ED5939
:102E8000FC4F4081518162817381848195810E94D0
:102E90001F172196C770E9CFDF91CF911F91089539
:102EA0004091930350919403609195037091960320
:102EB00080919703909198030C941F178091980329
:102EC00082958F7009F054C080919503882309F48E
:102ED0004FC080916103A091620360919303709150
:102EE00094034091960350919703B6E08A1709F432
:102EF0003FC090E041155105C1F17F3F11F46F3F94
:102F0000A1F1B89FF001B99FF00D1124ED59FC4FCC
:102F1000218172132AC02081621327C022812111CE
:102F200024C0238134812417350710F4215031093E
:102F3000241B350B283C3105C0F4209198032F70D9
:102F400020612093980326E0289FF001299FF00D2F
:102F50001124E859FC4F80818F708061808383E960
:102F600093E00E9459130C942F1701968770BECFDF
:102F70000895CF92DF92EF92FF920F931F93CF931A
:102F8000DF93CDB7DEB762970FB6F894DEBF0FBE02
:102F9000CDBF8C0185E0F801DE011D9601900D92F8
:102FA0008A95E1F7D8014C9111965C911197129690
:102FB0006C9112971396CD90DC90149730919303F7
:102FC000709194038091960390919703009709F470
:102FD0006BC17F3F19F43F3F09F466C1E090950350
:102FE000EE2009F4C0C020919803C816D90628F035
:102FF000F601E81BF90BCF0104C0809590958C0D6C
:103000009D1DFF24F394883C910578F0F12C207FDE
:1030100009F0C6C07C2DD98AC88A89890E941017F8
:1030200083E993E00E945913B1C0822F807F09F099
:1030300046C0751314C0341312C0611110C02F7034
:103040002061209398030E94501783E993E00E9427
:10305000591380919803D80115968C932EC0CD28D2
:1030600019F15F3F11F44F3FF9F0F62E61111CC0CA
:10307000809161032091620336E0821709F45AC0FF
:1030800090E0389FF001399FF00D1124ED59FC4F6D
:103090007181571306C07081471303C0728171118B
:1030A00003C001968770E9CFF62E662309F418C194
:1030B00080919803816080939803F12C11C175135E
:1030C00008C0341306C0611104C080919803D80170
:1030D000C3C04D875E878D859E856A8B0E94EA16E8
:1030E0006A898823E1F16623D1F120919803822F28
:1030F00082958F7090E0029774F080919303909185
:10310000940398878F831986DB86CA862C87CE0125
:1031100007960E94591386E0F801A3E9B3E00190F5
:103120000D928A95E1F70E945E170E945017FF24C6
:10313000F394D6C04D875E878D859E850E94CA1BFD
:10314000292F22952F7030E0223031050CF0BCC0C1
:103150009F7009F0B6C0805E883008F4C1C0C80115
:103160000E945913E4CFC816D90608F453C0F601DB
:10317000E81BF90BCF01883C910508F450C0F12CF5
:103180007C2DD98AC88A89890E941017E3E9F3E067
:1031900086E0DF011D928A95E9F70E945017A0C0D2
:1031A000751314C0341312C0611110C080919803BC
:1031B000F8018583C8010E94591386E0E3E9F3E032
:1031C000DF011D928A95E9F7FE2C8AC04D875E8744
:1031D0008D859E856A8B0E94EA166A89882309F488
:1031E000BECF662309F4BBCF20919803822F82952E
:1031F0008F7090E002970CF48ECF809193039091A2
:1032000094039A8389831B82DD82CC822E83CE0134
:1032100001967FCF809590958C0D9D1DACCFF62E9D
:10322000662309F49CCF75132EC034132CC0209153
:10323000980320FD1FC0822F82958F70D9F0D8018E
:1032400015962C9315978F3049F08F5F982F929594
:10325000907F822F8F70892B15968C93C8010E94C6
:10326000591386E0F801A3E9B3E001900D928A9525
:10327000E1F793CF86E0F801A3E9B3E001900D9266
:103280008A95E1F72DC04D875E878D859E850E94CA
:10329000EA16811140CF8091980381608093980352
:1032A000C8010E9459131CC0662309F458CF4D87EA
:1032B0005E878D859E850E94EA16882309F44FCF8C
:1032C0002ACF811148CF0CC0243031050CF047CFF4
:1032D0009F7009F440CFF8019581907F09F03BCFB2
:1032E0008F2D62960FB6F894DEBF0FBECDBFDF9173
:1032F000CF911F910F91FF90EF90DF90CF900895A5
:103300001F93CF93DF93CDB7DEB72C970FB6F8940A
:10331000DEBF0FBECDBF4F83588769877A878B8703
:103320009C87CE0107960E94B917882369F08F8188
:1033300098852A853B85232BF1F19F3F09F063C0D7
:103340008F3F09F060C037C086E0FE013796DE018E
:10335000119601900D928A95E1F76F817885EA8543
:10336000FB85309741F17F3F11F46F3F21F12091B0
:10337000620330E0C901019687709927409161038B
:1033800050E08417950709F447C069837A83FD8369
:10339000EC8396E0929FD001939FB00D1124AD591C
:1033A000BC4FFE01319601900D929A95E1F7809302
:1033B00062030E942F1716E08091610390916203CF
:1033C0008917C1F1189FC00111248D599C4F0E948B
:1033D000B917882379F1E09161031E9FF001112450
:1033E000ED59FC4F408151816281738184819581C7
:1033F0000E941F178091610390E0019687709927C2
:1034000080936103D9CF4F81588569857A858B85F3
:103410009C850E941F17CFCF0E94E6161092620370
:1034200010926103E3E9F3E086E0DF011D928A95E3
:10343000E9F7C1CF2C960FB6F894DEBF0FBECDBF13
:10344000DF91CF911F910895DF92EF92FF920F933A
:103450001F93CF93DF93FC01892B09F48AC0E12CE1
:10346000F12CDD24D394EF0121968491853709F462
:1034700061C058F4843708F04EC0843008F06AC048
:103480008130D1F0823071F174C0883709F45DC0A9
:1034900050F4863709F455C0873709F06AC08E2D7D
:1034A0000E94981D54C09CE7980F903708F061C0A7
:1034B0008F770E94FC1250C08F010E5F1F4FFE01DC
:1034C000849190E2980F983050F48770FD2D01C0E0
:1034D000FF0F8A95EAF78F2F0E949E1D14C00E944D
:1034E000291213C08F010E5F1F4FFE01C49180E2AD
:1034F0008C0F883060F4C7708D2D01C0880FCA957D
:10350000EAF70E94A41D0E94BC1DE80125C08C2F73
:103510000E94FC12FACF9F012E5F3F4FFE01C49123
:10352000CC2369F08FE99FE00197F1F700C000001C
:10353000C150F6CF9F012E5F3F4FFE01F490E9018D
:103540000BC00E94881DE82E07C00E949B1D0E9490
:10355000BC1D02C00E9429128F2D882341F0EFE983
:10356000FFE03197F1F700C000008150F6CFFE0177
:103570007ACFDF91CF911F910F91FF90EF90DF9065
:10358000089560939D0370939E0380939F0390938F
:10359000A0030E9410310C94D41660939903709389
:1035A0009A0380939B0390939C030E9452310C9446
:1035B000D41608950C94C11A0F931F9300919D0384
:1035C00010919E0320919F033091A003602B712BDB
:1035D000822B932B1F910F910C94C11A0F931F9361
:1035E00000919D0310919E0320919F033091A003B1
:1035F00060237123822393231F910F910C94C11A8E
:103600000F931F9300919D0310919E0320919F03A0
:103610003091A00360277127822793271F910F9174
:103620000C94C11A60E070E0CB010C94CD1A0F939A
:103630001F9341E050E060E070E08A019B0104C00C
:10364000000F111F221F331F8A95D2F7C901B8013D
:103650001F910F910C94CD1A0F931F9341E050E0EE
:1036600060E070E004C0440F551F661F771F8A9505
:10367000D2F78091990390919A03A0919B03B09106
:103680009C038A019B01082B192B2A2B3B2BC90178
:10369000B8011F910F910C94CD1A0F931F9341E025
:1036A00050E060E070E004C0440F551F661F771FB4
:1036B0008A95D2F7409550956095709580919903C1
:1036C00090919A03A0919B03B0919C038A019B0166
:1036D000082319232A233B23C901B8011F910F9105
:1036E0000C94CD1A0F931F9341E050E060E070E01E
:1036F00004C0440F551F661F771F8A95D2F780912B
:10370000990390919A03A0919B03B0919C038A0125
:103710009B01082719272A273B27C901B8011F91B8
:103720000F910C94CD1A0F931F9300919903109150
:103730009A0320919B0330919C03602B712B822B69
:10374000932B1F910F910C94CD1A0F931F930091FF
:10375000990310919A0320919B0330919C0360235D
:103760007123822393231F910F910C94CD1A0F93F1
:103770001F930091990310919A0320919B0330911C
:103780009C0360277127822793271F910F910C9428
:10379000CD1A0895CF92DF92EF92FF920F931F936D
:1037A000CF93DF938C01C0909D03D0909E03E09057
:1037B0009F03F090A0034091990350919A03609168
:1037C0009B0370919C03C42AD52AE62AF72ACFE1ED
:1037D000D0E0D701C6010C2E04C0B695A7959795E9
:1037E00087950A94D2F780FF07C0B8018C2F0E94FA
:1037F000D91F8130910531F4219758F7B80180E045
:103800000E94D91FDF91CF911F910F91FF90EF90F0
:10381000DF90CF900895CF92DF92EF92FF920F93B7
:103820001F93CF93DF93C82F80910B01882361F101
:1038300080910C01882341F18C2F86958695869581
:103840008F3088F4E0910D01F0910E01E80FF11D29
:10385000C77081E090E001C0880FCA95EAF79181B6
:10386000892B8183A3C08091B70380FF9FC01F92E3
:10387000CF938AE392E09F938F930E94AE060F90BE
:103880000F900F900F9092C0D090B4033091B2037C
:10389000E0910D01F0910E01332309F473C04091C2
:1038A000B3038D2D2FEF96E0E92EF12C082F082E73
:1038B000000C110BBF01600F711FDB0112969C9170
:1038C0009C1709F473C02F3F19F4911101C0282FE0
:1038D000C801019606E010E0B7010E946D34841320
:1038E000E5CFD22F4D114EC02F3F69F4842F440FE6
:1038F000990B0196B8010E946D348093B403315046
:103900003093B2033FC0822F220F990B0196B8016A
:103910000E946D34282FFF24F39406E010E0022E5D
:10392000000C330B6F01C20ED31ED60112965C91B0
:10393000552391F08D2FDD0F990BBF01680F791F73
:10394000DB0112965C93D60112961C920196B80187
:103950000E946D34D82F01C0F394C9010196B801BB
:103960000E946D34282F8413DACF242F440F330B99
:103970002F193109C901069666E070E00E946D3486
:103980008093B3038091B303082E000C990BE80FCA
:10399000F91FC283019666E070E00E946D34809347
:1039A000B3038091B2038F5F8093B203DF91CF9115
:1039B0001F910F91FF90EF90DF90CF900895EF92BD
:1039C000FF920F931F93CF93DF93482F80910B01AA
:1039D000882369F180910C01882349F1842F869511
:1039E000869586958F3090F4E0910D01F0910E014F
:1039F000E80FF11D477081E090E001C0880F4A9503
:103A0000EAF780959181892381836DC08091B70306
:103A100080FF69C01F924F938CE192E09F938F9338
:103A20000E94AE060F900F900F900F905CC02091F7
:103A3000B403E091B203EE2309F455C0C0910D0127
:103A4000D0910E010091B303002E000C110B86E003
:103A5000E82EF12C30E0DE01A20FB31FCD0102965B
:103A600012965C91541335C0DC011C92E150E09336
:103A7000B203E11104C01092B4031092B303409159
:103A8000B303842F042E000C990B059666E070E0BA
:103A90000E946D342817390731F5F090B40306E021
:103AA00010E0842F440F990B0596B8010E946D34E5
:103AB0009C01482F0596B8010E946D34FE01E80F65
:103AC000F91F8281811102C02F11EBCF2093B30324
:103AD0000AC0C9010196B7010E946D34282F8017D2
:103AE000910709F0B7CFDF91CF911F910F91FF9010
:103AF000EF90089581E090E0E0910D01F0910E01CA
:103B0000E80FF91F1082019680319105A9F70895F9
:103B10008091B60308959091B603892B8093B603E4
:103B2000089580959091B60389238093B6030895F4
:103B30008093B60308951092B60308959091B5034B
:103B4000892B8093B503089580959091B5038923BF
:103B50008093B50308951092B50308958093A1034F
:103B600008951092A103089580910C01811103C062
:103B70008091B20308950895E0910D01F0910E0136
:103B80008091B6038083E0910D01F0910E01908148
:103B90008091B503892B80838091A103882361F0F4
:103BA000E0910D01F0910E019081892B80830E949C
:103BB000B41D81111092A10380910D0190910E010D
:103BC0000C94831090932503809324030895829589
:103BD000982F9C7C392F36953695282F237344E0F7
:103BE000249FC0011124932F982B292F2A7A2695E0
:103BF000892F8575880F822B08951F93CF93DF93AC
:103C00001F92CDB7DEB799830E94E71D182F9981C7
:103C1000892F0E94E71D212F30E0322F2227A90192
:103C2000482BCA010F90DF91CF911F9108950895FD
:103C3000089580915904843031F11092B80320E442
:103C400088E190E00FB6F894A895809360000FBECD
:103C5000209360000E94972A83B7817F846083BF8E
:103C600083B7816083BF7894889583B78E7F83BF45
:103C70000FB6F894A89580916000886180936000E9
:103C8000109260000FBE089508950895CF930E948A
:103C9000441E0E946E070E94451EC0E08C2F0E94A9
:103CA0009408892B29F4CF5FC530C1F780E001C0AB
:103CB00081E0CF9108950E94E6160C94C42E1F92C5
:103CC0000F920FB60F9211248F939F93AF93BF93D0
:103CD0008091B803811113C08091B9039091BA0308
:103CE000A091BB03B091BC034196A11DB11D80936F
:103CF000B9039093BA03A093BB03B093BC03BF91E5
:103D0000AF919F918F910F900FBE0F901F901895BC
:103D100082E084BD93E095BD9AEF97BD80936E00DD
:103D200008952FB7F8948091B9039091BA03A091A8
:103D3000BB03B091BC032FBF08952FB7F8946091D7
:103D4000B9037091BA038091BB039091BC032FBF5C
:103D50000895CF92DF92EF92FF920F931F932FB7A8
:103D6000F8944091B9035091BA036091BB037091EC
:103D7000BC032FBF6A017B01EE24FF248C0120E0ED
:103D800030E0C016D106E206F30610F441505109A6
:103D90009A01281B390BC9011F910F91FF90EF90D9
:103DA000DF90CF9008951F920F920FB60F921124BB
:103DB0008F939F93AF93BF938091B9039091BA0370
:103DC000A091BB03B091BC030196A11DB11D8093CE
:103DD000B9039093BA03A093BB03B093BC03BF9104
:103DE000AF919F918F910F900FBE0F901F901895DC
:103DF0000E94CD0DF8942FEF87EA91E62150804084
:103E00009040E1F700C0000087E090EBDC01809378
:103E1000640490936504A0936604B09367049CE0E7
:103E200088E10FB6F894A895809360000FBE909338
:103E30006000FFCF8D3B50F4883A70F5853A18F555
:103E40008430F8F4813009F46CC068C0883E98F47E
:103E5000803EB8F48F3B09F061C00E94E6162FEF58
:103E600080E792E0215080409040E1F700C00000E0
:103E70000E94F81E53C0803F08F450C090E0906547
:103E8000089590E00895853A09F44EC0863A09F401
:103E90004EC083E890E40895883A09F44BC0893A0B
:103EA00009F44BC08A3A09F44BC08B3A09F44BC071
:103EB0008C3A09F44BC08D3A09F44BC08E3A09F4A0
:103EC0004BC08F3A09F44BC0813B09F44BC0803B97
:103ED00009F44BC0823B09F44BC0833B09F44BC04F
:103EE000843B09F44BC0853B09F44BC0863B09F485
:103EF0004BC0873B09F44BC0883B09F44BC0893B5E
:103F000009F44BC08A3B09F44BC08B3B09F44BC00E
:103F10008C3B09F44BC080E094E4089580E090E08D
:103F2000089581E090E0089581E890E4089582E8A2
:103F300090E4089582EE94E4089589EE94E408955F
:103F40008AEE94E4089585EB94E4089586EB94E476
:103F5000089583EB94E4089584EB94E4089587EB4B
:103F600094E408958CEC94E408958DEC94E4089521
:103F700083E895E408958AE895E4089582E995E454
:103F8000089584E995E4089581E296E4089583E232
:103F900096E4089584E296E4089585E296E408950F
:103FA00086E296E4089587E296E408958AE296E42C
:103FB00008950E942907803EA8F4803C00F58133D3
:103FC00009F45CC038F4893209F452C08A3209F429
:103FD0005BC05FC08933B1F08238A1F0853309F44A
:103FE00041C057C0833E41F128F4803E99F0823EA3
:103FF000B9F04FC0863E31F1873E71F14AC00E9450
:104000002D0708959091620490FD02C091FF41C078
:1040100080EE3FC08091620480FFFACF89E339C00F
:104020008091620482FF0CC08091620484FF02C010
:1040300080E02FC083EE2DC08091620482FFF4CF18
:1040400082EE27C08091620483FF0AC080916204DF
:1040500084FDEECF87EE1DC08091620483FFF6CF12
:1040600086EE17C08091620485FF06C089E211C008
:104070008091620485FFFACF85E30BC080916204D2
:1040800086FF06C08AE205C08091620486FFFACFEF
:1040900081E30E941A1F0895AF92BF92CF92DF92E0
:1040A000EF92FF920F931F93CF937C01C0E0CC243B
:1040B000C394D12C8C2F0E9494085C0100E010E086
:1040C000C601002E02C0880F991F0A94E2F78A21C8
:1040D0009B21892BB1F0602F7C2F80E00E94D91F9B
:1040E0009C018E159F0559F0832F807E932F907C25
:1040F00011F0803A31F430E02E153F0511F481E0E3
:1041000009C00F5F1F4F0E301105D1F6CF5FC530CC
:1041100089F680E0CF911F910F91FF90EF90DF9093
:10412000CF90BF90AF900895CF93DF93EC018CE2D6
:1041300090E00E944C20882329F0CE01DF91CF919E
:104140000C944C2080E0DF91CF910895CF930E9492
:104150002A22811102C00E94FB218FE592E00E9479
:104160001506C5E6C15049F00E946E078FE39CE931
:104170000197F1F700C00000F5CF88E592E00E94BA
:10418000150689E290E00E949420811132C18AE2F2
:1041900090E00E949420882341F00E9424220E94F3
:1041A000FB210E949B320E94FF3185E090E00E943B
:1041B000942081110E94F81E0E94181E0E94352230
:1041C0008093B70387E090E00E9494208823C1F198
:1041D0008BE190E00E949420882351F08091B703F6
:1041E00081FB222720F991E0922790FB81F90FC0F3
:1041F0008EE090E00E949420882361F08091B703C4
:1042000082FB222720F991E0922790FB82F980938C
:10421000B70316C080E190E00E9494209091B7030C
:10422000882341F093FB222720F981E0822780FB3D
:1042300093F904C0892F809580FB90F99093B70380
:104240008091B7030E9439220E9447228093620422
:1042500080EE90E00E949420882341F080916204D7
:10426000982F909590FB80F98093620489E390E009
:104270000E949420882359F08091620481FB2227B8
:1042800020F991E0922790FB81F98093620482EEFD
:1042900090E00E949420882359F08091620482FB70
:1042A000222720F991E0922790FB82F98093620403
:1042B00086EE90E00E949420882359F08091620459
:1042C00083FB222720F991E0922790FB83F98093CA
:1042D000620483EE90E00E949420882359F080913C
:1042E000620484FB222720F991E0922790FB84F955
:1042F0008093620485E390E00E949420882359F023
:104300008091620485FB222720F991E0922790FB9F
:1043100085F98093620481E390E00E9494208823D1
:1043200059F08091620486FB222720F991E09227C0
:1043300090FB86F98093620481E190E00E949420D2
:10434000882359F08091620487FB222720F991E0AD
:10435000922790FB87F980936204809162040E9407
:104360004B228091620487FB882780F980930C019F
:1043700087E290E00E949420C82F8EE190E00E9496
:1043800094208111C2608FE190E00E9494208111FD
:10439000C46080E290E00E9494208111C86081E2B4
:1043A00090E00E9494208111C06182E290E00E941E
:1043B00094208111C06283E290E00E9494208111D8
:1043C000C06484E290E00E949420882311F0C068C9
:1043D00002C0CC2329F08C2F0E9442226C2F03C0F4
:1043E0000E943E22682F70E080E090E0CF910C9414
:1043F000DA1ACF9108956DEE7EEF80E090E00E9492
:10440000A33460E082E090E00E94953460E083E0B5
:1044100090E00E94953460E084E090E00E94953442
:1044200060E085E090E00E94953460E086E090E0F6
:104430000E94953460E087E090E00E94953460E04F
:1044400088E090E00C9495346FEF7FEF80E090E08F
:104450000C94A33480E090E00E948F3421E08D3EE4
:104460009E4F09F020E0822F089582E090E00C94A6
:104470008734682F82E090E00C94953483E090E0DC
:104480000C948734682F83E090E00C94953484E09A
:1044900090E00C948734682F84E090E00C9495347D
:1044A00086E090E00C948734682F86E090E00C94CE
:1044B000953487E090E00C948734682F87E090E093
:1044C0000C94953488E090E00C948734682F88E051
:1044D00090E00C9495348091BF0380FF0BC06091F5
:1044E000120185E0689FB001112475956795759557
:1044F00067952BC081FF09C06091120185E0689F1C
:10450000B00111247595679520C082FF07C06091A6
:10451000120185E0689FB001112417C09091C0037B
:104520009923D1F060911101961788F7209112011B
:1045300085E0289F90011124929FA001939F500D28
:10454000112470E0CA010E946D346038710540F496
:104550006115710539F002C065E070E0862F08959D
:104560008FE7089581E008958091BF0380FF08C020
:104570006091100170E0759567957595679521C0FC
:1045800081FF06C06091100170E07595679519C0B4
:1045900082FF04C06091100170E010C09091C003D0
:1045A0009923C1F060910F019617A0F78091100137
:1045B000899FC001112470E00E946D34603871053C
:1045C00028F46115710521F0862F08958FE708956D
:1045D00081E0089561E070E0F4CF803F21F40E9413
:1045E0006B22819504C0813F29F40E946B22809345
:1045F000C3030895823F21F40E946B22819504C079
:10460000833F29F40E946B228093C2030895893F5F
:1046100019F40E94B42205C08A3F31F40E94B422EA
:1046200081958093C40308958B3F21F40E94B422A6
:10463000819504C08C3F29F40E94B4228093C50365
:104640000895843F21F48091C103816017C0853FA4
:1046500021F48091C103826011C0863F21F48091D2
:10466000C10384600BC0873F21F48091C10388603F
:1046700005C0883F31F48091C10380618093C103FC
:1046800008958D3F21F48091BF0381600BC08E3F60
:1046900021F48091BF03826005C08F3F29F480918F
:1046A000BF0384608093BF030895803F39F48091F5
:1046B000C30387FF6CC01092C30369C0813F29F414
:1046C0008091C3031816BCF362C09091C203823F6D
:1046D00029F497FF5CC01092C20359C0833F19F4BC
:1046E0001916CCF354C0893F41F48091C4031816C5
:1046F0000CF04DC01092C4034AC08A3F29F4809147
:10470000C40387FF44C0F6CF8B3F39F48091C503C3
:1047100087FF3DC01092C5033AC08C3F29F48091B9
:10472000C5031816BCF333C0843F21F48091C10344
:104730008E7F17C0853F21F48091C1038D7F11C00A
:10474000863F21F48091C1038B7F0BC0873F21F40A
:104750008091C103877F05C0883F31F48091C103F8
:104760008F7E8093C10313C08D3F21F48091BF03DE
:104770008E7F0BC08E3F21F48091BF038D7F05C0DB
:104780008F3F29F48091BF038B7F8093BF0380917B
:10479000C20381110EC08091C30381110AC08091B0
:1047A000C403811106C08091C503811102C010921B
:1047B000C00308958091B70383FF7EC08BE992E028
:1047C0000E9415068091C1031F928F9386E992E0A3
:1047D0009F938F930E94AE0684E992E00E94150693
:1047E0008091C203282F082E000C330B3F938F9328
:1047F00081E992E09F938F930E94AE068FE892E04A
:104800000E9415068091C303282F082E000C330B3D
:104810003F938F938CE892E09F938F930E94AE0614
:104820008AE892E00E9415068091C403282F082E82
:10483000000C330B3F938F9387E892E09F938F9305
:104840000E94AE0685E892E00E9415068091C5039D
:10485000282F082E000C330B3F938F9382E892E0B1
:104860009F938F930E94AE068FE792E00E941506F9
:104870008091C0031F928F938CE792E09F938F9358
:104880000E94AE068AE792E00E9415068091BF035F
:104890001F928F9387E792E09F938F930E94AE06BB
:1048A00084E792E00E9415068DB79EB74C960FB62E
:1048B000F8949EBF0FBE8DBF81EC93E00E94CC1098
:1048C0000E94911E9093BE038093BD0308951F9391
:1048D000CF93DF938091BD039091BE030E94A91EE8
:1048E000AC019091C003992321F02091130130E095
:1048F00006C0209114018AE0289F900111244217DC
:10490000530708F485C08091C203C091C303D091BE
:10491000C4031091C503811107C0C11175C0D11125
:1049200073C0111171C074C09F3F19F09F5F9093C5
:10493000C003181624F40E946B228093C203809156
:10494000C20387FF05C00E946B2281958093C2033A
:104950001C1624F40E946B228093C3038091C3032E
:1049600087FF05C00E946B2281958093C3036091ED
:10497000C203662331F1C091C303CC2311F1062E8B
:10498000000C770B880B990B0E94543323E333E31D
:1049900043E35FE30E94B8330E941C336093C20379
:1049A0006C2FCC0F770B880B990B0E94543323E3A9
:1049B00033E343E35FE30E94B8330E941C33609308
:1049C000C3031D1624F40E94B4228093C403809173
:1049D000C40387FF05C00E94B42281958093C4035D
:1049E000111624F40E94B4228093C5038091C5035C
:1049F00087FF05C00E94B42281958093C503DF9193
:104A0000CF911F910C94DA239F3F09F08FCF97CF5E
:104A1000DF91CF911F910895E1ECF3E085E0DF0194
:104A20001D928A95E9F71092C0031092BF03089572
:104A30008EEB94E00E9415061F9281E08F931F92E7
:104A400085E08F9380E794E09F938F930E94AE065A
:104A50000F900F900F900F900F900F90089583304C
:104A6000E9F128F4813061F0823009F10895853050
:104A700009F462C008F449C0863009F474C008958E
:104A800080911401262F30E0280F311D2F3F310572
:104A900024F4680F6093140103C08FEF8093140116
:104AA000809114011F928F9389EA93E072C08091E4
:104AB0001301262F30E0280F311D2F3F310524F43C
:104AC000680F6093130103C08FEF809313018091EF
:104AD00013011F928F9387E993E05BC080911201CD
:104AE000262F30E0280F311D2F3F310524F4680FA9
:104AF0006093120103C08FEF809312018091120125
:104B00001F928F9384E893E044C080911101262F77
:104B100030E0280F311D2F3F310524F4680F6093DA
:104B2000110103C08FEF80931101809111011F9239
:104B30008F938FE693E02DC080911001262F30E0F7
:104B4000280F311D2F3F310524F4680F60931001A9
:104B500003C08FEF80931001809110011F928F93FB
:104B600086E593E016C080910F01262F30E0280FD4
:104B7000311D2F3F310524F4680F60930F0103C0EE
:104B80008FEF80930F0180910F011F928F938BE322
:104B900093E09F938F930E94AE060F900F900F901B
:104BA0000F900895833081F128F4813059F08230DC
:104BB000D1F00895853009F449C0B8F1863009F480
:104BC00056C0089580911401681720F4861B8093C5
:104BD000140102C010921401809114011F928F934E
:104BE0008CE293E054C080911301681720F4861B77
:104BF0008093130102C010921301809113011F9240
:104C00008F938AE193E043C080911201681720F4EA
:104C1000861B8093120102C0109212018091120132
:104C20001F928F9387E093E032C080911101681743
:104C300020F4861B8093110102C010921101809113
:104C400011011F928F9382EF92E021C08091100199
:104C5000681720F4861B8093100102C01092100187
:104C6000809110011F928F9389ED92E010C0809186
:104C70000F01681720F4861B80930F0102C0109269
:104C80000F0180910F011F928F938EEB92E09F9303
:104C90008F930E94AE060F900F900F900F90089583
:104CA000CF93C82F1F928F9383EC95E09F938F93A0
:104CB0000E94AE0681E090E0A0E0B0E0BC01CD0132
:104CC00004C0660F771F881F991FCA95D2F70E94EC
:104CD000DA1A0F900F900F900F90CF910C94E61668
:104CE000CF938B3109F409C208F049C08E3009F422
:104CF00018C200F5873009F4E7C1A8F4863009F03E
:104D000098C28091B703817F8E7F8093B70388EC30
:104D100095E00E94150686E79AE00E94150681E05C
:104D20008093C703CFC1883009F45BC08B3009F48E
:104D3000C5C17FC2813109F464C220F4803109F415
:104D400004C277C2863109F41BC2893109F071C2ED
:104D50008AEE99E00E94150681EC99E00E94150602
:104D60008CE899E00E94150685E699E00E941506F8
:104D700083ED98E00E94150685EA98E0A1C185338D
:104D800009F451C268F4873209F44DC228F48E3117
:104D900008F44FC28D514AC2893209F444C249C253
:104DA000833438F48A3308F040C2883309F486C16A
:104DB00040C2833409F437C2883409F03AC20E94F1
:104DC000E61685E69AE00E9415069FEF23ED80E344
:104DD000915020408040E1F700C000000E94F81E82
:104DE00071C18AE79AE00E94150682E098E00E946D
:104DF00015060E943E221F928F938FEF97E09F939C
:104E00008F930E94AE068DEF97E00E9415060E94D8
:104E10003522C82F8AEE97E00E9415061F92CF9385
:104E200085EE97E09F938F930E94AE0683EE97E006
:104E30000E94150689ED97E00E9415068C2F81705F
:104E40001F928F9386ED97E09F938F930E94AE06FB
:104E500084ED97E00E9415068AEC97E00E94150603
:104E6000C1FB882780F91F928F9387EC97E09F936F
:104E70008F930E94AE0685EC97E00E94150689EBA1
:104E800097E00E941506C2FB882780F91F928F9336
:104E900086EB97E09F938F930E94AE0684EB97E09A
:104EA0000E9415068BEA97E00E941506C3FBCC27EB
:104EB000C0F91F92CF9388EA97E09F938F930E9447
:104EC000AE0686EA97E00E9415060E944722C82F88
:104ED00082E997E00E9415061F92CF938DE897E034
:104EE0009F938F930E94AE068BE897E00E94150671
:104EF00082E797E00E9415068C2F81701F928F9396
:104F00008FE697E09F938F930E94AE068DB79EB772
:104F100080960FB6F8949EBF0FBE8DBF8DE697E0CA
:104F20000E94150686E597E00E941506C1FB8827BA
:104F300080F91F928F9383E597E09F938F930E9450
:104F4000AE0681E597E00E9415068FE397E00E9488
:104F50001506C2FB882780F91F928F938CE397E098
:104F60009F938F930E94AE068AE397E00E941506F6
:104F700088E297E00E941506C3FB882780F91F92FC
:104F80008F9385E297E09F938F930E94AE0683E212
:104F900097E00E94150689E197E00E941506C4FB80
:104FA000882780F91F928F9386E197E09F938F93D4
:104FB0000E94AE0684E197E00E94150682E097E029
:104FC0000E941506C5FB882780F91F928F938FEFEB
:104FD00096E09F938F930E94AE068DEF96E00E941D
:104FE000150681EE96E00E941506C6FB882780F91B
:104FF0001F928F938EED96E09F938F930E94AE0643
:105000008CED96E00E94150684ED96E00E94150650
:10501000C7FBCC27C0F91F92CF9381ED96E09F93F9
:105020008F930E94AE068FEC96E00E9415060E94B8
:105030005022C82F88EB96E00E9415061F92CF934E
:1050400083EB96E09F938F930E94AE068DB79EB739
:1050500080960FB6F8949EBF0FBE8DBF81EB96E091
:105060000E94150687EA96E00E9415068C2F817033
:105070001F928F9384EA96E09F938F930E94AE06CF
:1050800082EA96E00E94150689E996E00E941506DC
:10509000C6951F92CF9386E996E09F938F930E94C7
:1050A000AE0684E996E00E9415068DB79EB7089675
:1050B0000FB6F8949EBF0FBE8DBF04C08FEE95E073
:1050C0000E941506C1E0BAC08091B703C82FC17015
:1050D00080FF09C088E59AE00E9415068091B70319
:1050E000817F8E7F47C08CE49AE00E9415068091F4
:1050F000B70381608093B703E5CF9091B70391FB2D
:10510000CC27C0F981E0C827892FC0FB81F98093A3
:10511000B703CC2319F08FE39AE027C081E39AE02C
:10512000CFCF9091B70392FBCC27C0F981E0C8277D
:10513000892FC0FB82F98093B703CC2319F082E258
:105140009AE013C082E19AE0BBCF9091B70393FB42
:10515000CC27C0F981E0C827892FC0FB83F9809351
:10516000B703CC2351F086E09AE00E9415068091A7
:10517000B70381608093B70361C089EF99E0A0CF46
:1051800087E998E00E9415060E9477101F928F937E
:105190008DE798E09F938F930E94AE0680910B015C
:1051A0001F928F9386E698E09F938F930E94AE069E
:1051B00080914F031F928F9383E598E09F938F9385
:1051C0000E94AE0680910C011F928F9380E498E0BC
:1051D0009F938F930E94AE060E949D1E9F938F9374
:1051E0007F936F9389E298E09F938F930E94AE061E
:1051F0008DB79EB746960FB6F8949EBF0FBE8DBF73
:1052000061CF0E94E616C0910C0181E0C827C093CF
:105210000C01CC2329F08FE198E00E9415060EC006
:1052200084E198E04DCF80E001C089530E94502670
:1052300049CF82E198E00E941506C0E08C2FCF9103
:10524000089580E0089580E00895CF93C82F80915D
:10525000C703813071F020F0823009F44BC042C1A5
:10526000E0910D01F0910E018081823209F03CC184
:1052700007C0E0910D01F0910E018081823261F44E
:105280008C2F0E942129811104C08C2F0E9470262E
:105290002FC081E090E02CC08C2F0E942329811127
:1052A00026C0C431E1F070F4CB3081F0C031D1F4CC
:1052B0000E9418258BEB95E00E94150682E08093F2
:1052C000C70315C0C93259F0C83361F488EC95E0C2
:1052D0000E9415068FEB95E00E94150608C01092FB
:1052E000C70304C189EB95E00E941506FFC081E069
:1052F0008170FEC0C43228F5CE3108F0C1C0CB3079
:10530000A1F1D0F4C73009F0D3C08EE1809314012D
:1053100082E3809313018AE08093120184E18093F9
:10532000110188E08093100188E280930F018FE5DE
:1053300094E00E941506BFC0C33149F1C431C1F0E9
:10534000B7C0CB3409F4A9C028F4C93289F0C833F6
:1053500061F0AEC0C13509F49EC0C23509F499C0F0
:10536000CE3409F0A5C06AE09EC00E941825A3C0F3
:105370008091C603882319F01092C6039CC08CE666
:1053800094E00E94150681E08093C703B1C086E4D3
:1053900094E00E94150684E394E00E941506809133
:1053A00014011F928F9381E394E09F938F930E9447
:1053B000AE068FE294E00E9415068DE194E00E9413
:1053C0001506809113011F928F938AE194E09F93B9
:1053D0008F930E94AE0688E194E00E94150689E052
:1053E00094E00E941506809112011F928F9386E02F
:1053F00094E09F938F930E94AE0684E094E00E9415
:10540000150683EF93E00E941506809111011F920B
:105410008F9380EF93E09F938F930E94AE068EEE62
:1054200093E00E94150689ED93E00E941506809195
:1054300010011F928F9386ED93E09F938F930E94AC
:10544000AE0684ED93E00E9415068DEB93E00E947A
:10545000150680910F011F928F938AEB93E09F9323
:105460008F930E94AE0688EB93E00E9415068DB7DD
:105470009EB748960FB6F8949EBF0FBE8DBF1BC057
:10548000CE51EC2FF0E0E65EFC4F80818093C603A6
:1054900012C061E003C061E006C06AE08091C6030B
:1054A0000E942F2508C08091C6030E94D22503C008
:1054B0008DE594E013C08091C603882369F01F92A4
:1054C0008F9387E594E09F938F930E94AE060F9091
:1054D0000F900F900F9004C084E594E00E94150691
:1054E00081E006C01092C70380E002C080E000CFD8
:1054F000CF910895E1E8F0E0808188608083808129
:10550000816080838FB7F89493E09093890090ED49
:10551000909388008FBF0C949431EFE6F0E0808187
:105520008260808381E08093DC030C94AF31EFE6EE
:10553000F0E080818D7F80831092DC0380E00E9408
:10554000A23181E00E94A2318091DC030C94AF3142
:105550008091DB0383608093DB0308951092DB036B
:1055600080E00E94A23181E00E94A2318091DC03A0
:105570000C94AF31E82FF0E0E952FC4F60830895BE
:10558000E82FF0E0E952FC4F2081422F50E08FEFEE
:1055900090E0861B9109841795071CF48FEF808398
:1055A0000895620F60830895CF93C82F682F80E01D
:1055B0000E94C02A6C2F81E0CF910C94C02AE82F62
:1055C000F0E0E952FC4F8081861710F410820895B4
:1055D000861B80830895CF93C82F682F80E00E9498
:1055E000DF2A6C2F81E0CF910C94DF2A8091D603C3
:1055F00083608093D60308951092D6030895409156
:10560000D50321E030E0662341F001C0220F8A95E6
:10561000EAF7242B2093D5030895B90102C0660F41
:10562000771F8A95E2F7CB01809584238093D50379
:105630000895CF93C82F682F80E00E94FF2A6C2F17
:1056400081E0CF910C94FF2A8093D4030895E2ED7A
:10565000F3E08083818308958091D10383608093F8
:10566000D10308951092D1031092D003089580932E
:10567000CF0308951F920F920FB60F921124EF924D
:10568000FF920F931F932F933F934F935F936F93CB
:105690007F938F939F93AF93BF93CF93DF93EF93BA
:1056A000FF938091CB038F5F8093CB0309ED13E0D1
:1056B000C0E0D0E0FC2E2091DB0330E00C2E02C0D5
:1056C000369527950A94E2F720FF1AC08091CB0304
:1056D00081110DC0F8018081882319F08C2F0E9460
:1056E0009531FE01E952FC4F8081F8018083909151
:1056F000CB03F8018081981303C08F2D0E94A23143
:105700000F5F1F4F219719F0C1E0D0E0D3CF8091F8
:10571000CA038F5F803418F48093CA03B8C0109214
:10572000CA03E090D603EE20F1F18091C9038F5FA8
:105730008093C9039091D4039817A8F51092C903D8
:1057400002ED13E0C0E0D0E0F12CC7010C2E02C046
:10575000969587950A94E2F780FF1AC0F801808138
:10576000882319F08150808313C08091D50390E085
:105770000C2E02C0969587950A94E2F761E080FFAF
:1057800004C08C2F0E94DF2A03C08C2F0E94C02AE5
:105790000F5F1F4F219719F0C1E0D0E0D6CF89ED00
:1057A00093E00E946C099091D103992309F46BC096
:1057B0008091C8038F5F8093C8032091CF0328177F
:1057C00008F061C01092C8032091CC033091D0033F
:1057D000ADECB3E040E050E0C1E0D0E0692F70E014
:1057E000042E02C0769567950A94E2F760FF3AC0EE
:1057F0008C91E82FF0E0EB57F54F0491BA01695214
:105800007C4FFB010083622F70E0042E02C076956E
:1058100067950A94E2F760FF19C0811115C0BE01B7
:10582000042E01C0660F0A94EAF760952623E32F41
:10583000F0E0042E02C0F695E7950A94E2F7E0FF47
:1058400011C0962336230EC081500BC08F3741F410
:10585000BE01042E01C0660F0A94EAF7262B02C08F
:105860008F5F8C9311964130510519F041E050E063
:10587000B5CF9093D1032093CC033093D00389ED1F
:1058800093E00E9471090E946B090E94982EFF917B
:10589000EF91DF91CF91BF91AF919F918F917F91C8
:1058A0006F915F914F913F912F911F910F91FF90B9
:1058B000EF900F900FBE0F901F90189525B1242BDD
:1058C00035B1542F5095352354B1452B44B94FB7BA
:1058D000F894FC01CB01880F991F680F791F6E0F98
:1058E0007F1FE617F70789F0819198E025B900003E
:1058F00000C087FF35B9880F000000C000C000C09D
:1059000035B900C09A9591F7ECCF4FBF0895EF924B
:10591000FF920F931F93CF93DF9300D000D01F927D
:10592000CDB7DEB7F90170E0869F9001879F300DFB
:105930001124232F3327042F10E0209FD001219F13
:10594000B00D309FB00D112420E031E07901E61A4E
:10595000F70AE09E9001E19E300DF09E300D11247B
:105960003C833983832F8B0F8D838A834B1B4B831F
:10597000892F90E063E070E00E945934DE01A80FA7
:10598000B91F13962C912183DE01A80FB91F12961F
:105990002C912083DE01A80FB91F11968C91828370
:1059A0000F900F900F900F900F90DF91CF911F915C
:1059B0000F91FF90EF900895DF92EF92FF920F9377
:1059C0001F93CF93DF9300D01F92CDB7DEB78091A6
:1059D000E003882309F445C0D12CE12C43E0F42EE8
:1059E00060911501D61660F50D2D10E070E0C7012D
:1059F0000E946D34609FF001619FF00D709FF00D6B
:105A000011248091E1039091E2039E012F5F3F4FAB
:105A10004091E4036091E3038E0F9F1F0E94872C47
:105A2000F801EE0FFF1F0E0F1F1FF801EB51FC4F87
:105A300089819A81AB8180839183A283D394D0CFD3
:105A40006091150185EE93E00E94B4310F900F90A4
:105A50000F90DF91CF911F910F91FF90EF90DF900A
:105A600008959E012F5F3F4F4091E4036091E3034F
:105A70008091E1039091E2030E94872C20E08091C5
:105A800015012817E8F6822F90E0FC01EE0FFF1FAA
:105A90008E0F9F1FFC01EB51FC4F89819A81AB81D6
:105AA00080839183A2832F5FEACFCF93DF931F92EE
:105AB000CDB7DEB79091B70390FF0EC01F928F93C2
:105AC00025E03BE03F932F9389830E94AE060F9021
:105AD0000F900F900F908981811103C01092E40301
