:100000000C94A0070C94E4070C94E4070C94E40708
:100010000C94E4070C94E4070C94E4070C94E407B4
:100020000C94E4070C94E4070C94E4070C949310EC
:100030000C9441110C94DA200C94E4070C94C82D14
:100040000C94E4070C94E4070C94E4070C9441210D
:100050000C94E4070C94E4070C94E4070C94E40774
:100060000C94E4070C94E4070C94E4070C94E40764
:100070000C94E407A611C811B312C811B3120A12E6
:100080002D12B3128212951284158415B215B21571
:1000900007164316A818A8185B16A8185217521767
:1000A0000E182218A8189618028C048C088C218C23
:1000B000018C00D100D001F002F052C04F51504BE2
:1000C000C14D4E4AAFC2ABAEACF0C3F3F1F2C6C401
:1000D000C8C5C70A002530313662003A20002530F5
:1000E0003258000A722F63203031323334353637BC
:1000F00038394142434445460A000A002530325807
:1001000000626F756E6365213A2000001080FF5B0E
:10011000735D004B6579626F617264207374617204
:10012000742E0A0055534220636F6E6669677572BC
:1001300065642E0A005B575D005B535D005B525D9A
:10014000005B445D005B435D000E0353007400617F
:1001500000720079007500000014034E006F0075F6
:10016000006B0065006E0073006800610000000411
:1001700003090409027400040100A032090400000C
:100180000103010100092111010001223F000705BF
:10019000810308000A09040100010301020009218A
:1001A00011010001224D000705820308000A09041D
:1001B00002000103000000092111010001223600A4
:1001C0000705830308000A09040300020300000076
:1001D00009211101000122200007058403200001EC
:1001E000070504032000011201100100000008337C
:1001F0008120010301010200010631FF0974A10100
:100200000975150025FF95207508810209761500EE
:1002100025FF952075089102C005010980A101857F
:100220000216010026B7001A01002AB700751095C2
:10023000018100C0050C0901A101850316010026FA
:100240009C021A01002A9C02751095018100C005CC
:10025000010902A1010901A10005091901290515DA
:100260000025019505750181029501750381010540
:1002700001093009311581257F950275088106092C
:10028000381581257F950175088106050C0A38020D
:100290001581257F950175088106C0C005010906F5
:1002A000A101050719E029E7150025019508750149
:1002B0008102950175088101050819012905950537
:1002C000750191029501750391010507190029FF38
:1002D000150025FF950675088100C00A00253032FB
:1002E0005820006B6579626F6172645F7265706F30
:1002F00072743A20000A0025303258006B6579622A
:100300006F6172645F7365745F6C65643A2000644A
:100310006F6E652E0A00626F6F676D61676963209B
:100320007363616E3A202E2E2E2000290A00257557
:10033000002F002575005D2800256400200025643D
:1003400000200025640020002564007C0025303258
:1003500058006D6F7573656B6579205B62746E7C98
:10036000782079207620685D287265702F61636C33
:10037000293A205B000A002575006D6B5F77686580
:10038000656C5F74696D655F746F5F6D6178203D4A
:1003900020000A002575006D6B5F776865656C5FEE
:1003A0006D61785F7370656564203D20000A0025EB
:1003B00075006D6B5F74696D655F746F5F6D6178FB
:1003C000203D20000A002575006D6B5F6D61785F30
:1003D0007370656564203D20000A002575006D6B13
:1003E0005F696E74657276616C203D20000A00259D
:1003F00075006D6B5F64656C6179203D20000A00BB
:100400002575006D6B5F776865656C5F74696D65F8
:100410005F746F5F6D6178203D20000A00257500D4
:100420006D6B5F776865656C5F6D61785F73706534
:100430006564203D20000A002575006D6B5F7469BE
:100440006D655F746F5F6D6178203D20000A002547
:1004500075006D6B5F6D61785F7370656564203DDD
:1004600020000A002575006D6B5F696E74657276F9
:10047000616C203D20000A002575006D6B5F64658E
:100480006C6179203D20000A00257500363A206D08
:100490006B5F776865656C5F74696D655F746F5FCE
:1004A0006D61783A20000A00257500353A206D6BA1
:1004B0005F776865656C5F6D61785F7370656564B3
:1004C0003A20000A00257500343A206D6B5F74698C
:1004D0006D655F746F5F6D61783A20000A00257565
:1004E00000333A206D6B5F6D61785F737065656492
:1004F0003A20000A00257500323A206D6B5F696E64
:1005000074657276616C286D73293A20000A0025A3
:100510007500313A206D6B5F64656C6179282A3112
:10052000306D73293A20000A0A2D2D2D2D2D204DD6
:100530006F7573656B657920506172616D65746567
:100540007273202D2D2D2D2D0A003E2000257500C3
:100550004D003F007365742064656661756C74209E
:1005600076616C7565732E0A000A00257500736547
:100570006C656374656420706172616D6574657229
:100580003A2000433E20000A51756974204D6F7572
:1005900073656B657920436F6E736F6C650A0053EA
:1005A000656520687474703A2F2F656E2E77696BBD
:1005B0006970656469612E6F72672F77696B692F47
:1005C0004D6F7573655F6B6579730A000A00257559
:1005D000002C20776865656C3D002575007768659F
:1005E00072652064656C74613A20637572736F7212
:1005F0003D000A7370656564203D2064656C74611C
:10060000202A206D61785F7370656564202A202838
:10061000726570656174202F2074696D655F746FF9
:100620005F6D6178290A007067646F776E3A0964BC
:100630006563726561736520706172616D65746573
:100640007273282D3130290A00706775703A096974
:100650006E63726561736520706172616D6574654A
:100660007273282B3130290A00646F776E3A09645F
:100670006563726561736520706172616D65746533
:100680007273282D31290A0075703A09696E6372F8
:100690006561736520706172616D65746572732840
:1006A0002B31290A00643A09736574206465666118
:1006B000756C742076616C7565730A00703A097008
:1006C00072696E7420706172616D65746572730A0F
:1006D00000363A0973656C656374206D6B5F7768EB
:1006E00065656C5F74696D655F746F5F6D61780AD5
:1006F00000353A0973656C656374206D6B5F7768CC
:1007000065656C5F6D61785F73706565640A003460
:100710003A0973656C656374206D6B5F74696D6510
:100720005F746F5F6D61780A00333A0973656C65B9
:100730006374206D6B5F6D61785F73706565640ACB
:1007400000323A0973656C656374206D6B5F696E86
:1007500074657276616C286D73290A00313A0973E9
:10076000656C656374206D6B5F64656C6179282AC4
:1007700031306D73290A004553432F713A09717561
:1007800069740A000A0A2D2D2D2D2D204D6F7573C9
:10079000656B657920506172616D65746572732057
:1007A00048656C70202D2D2D2D2D0A003F004D30F9
:1007B0003E000A456E746572204D6F7573656B65FA
:1007C0007920436F6E736F6C650A000A5175697406
:1007D00020436F6E736F6C65204D6F64650A004334
:1007E0003E20000A0025750020746F20002575004A
:1007F0007377697463685F64656661756C745F6C58
:10080000617965723A20006D3A096D6F7573656B99
:1008100065790A004553432F713A09717569740A65
:10082000000A0A2D2D2D2D2D20436F6E736F6C65E0
:100830002048656C70202D2D2D2D2D0A00506175DE
:10084000733A096A756D7020746F20626F6F746CF3
:100850006F616465720A00436170733A094C6F639B
:100860006B204B6579626F617264284368696C64C0
:100870002050726F6F66290A00505363723A0970F4
:100880006F77657220646F776E2F72656D6F746518
:100890002077616B652D75700A00342F46343A0954
:1008A00073776974636820746F204C617965723462
:1008B000200A00332F46333A09737769746368203E
:1008C000746F204C6179657233200A00322F4632F2
:1008D0003A0973776974636820746F204C61796595
:1008E0007232200A00312F46313A097377697463F6
:1008F0006820746F204C6179657231200A00302FB6
:100900004631303A0973776974636820746F204CFC
:100910006179657230200A00653A097072696E74F7
:1009200020656570726F6D20636F6E6669670A007F
:10093000733A097072696E74207374617475730A06
:1009400000743A097072696E742074696D65722062
:10095000636F756E740A00763A097072696E74205E
:100960006465766963652076657273696F6E2026AB
:1009700020696E666F0A006D3A09746F67676C656F
:10098000206D6F7573652064656275670A006B3A48
:1009900009746F67676C65206B6579626F6172645B
:1009A0002064656275670A00783A09746F67676C3E
:1009B00065206D61747269782064656275670A00EC
:1009C000643A09746F67676C6520646562756720B7
:1009D000656E61626C650A00633A09656E746572E2
:1009E00020636F6E736F6C65206D6F64650A000A1B
:1009F0000A2D2D2D2D2D20436F6D6D616E642048C5
:100A0000656C70202D2D2D2D2D0A000A00257500F6
:100A10002E6C6576656C3A20000A002575002E65FF
:100A20006E61626C653A20000A002530325800621F
:100A300061636B6C696768745F636F6E6669672E6C
:100A40007261773A20000A002575002E6E6B726F76
:100A50003A20000A002575002E737761705F62618D
:100A6000636B736C6173685F6261636B7370616306
:100A7000653A20000A002575002E737761705F6764
:100A8000726176655F6573633A20000A0025750020
:100A90002E6E6F5F6775693A20000A002575002E7B
:100AA000737761705F72616C745F726775693A2009
:100AB000000A002575002E737761705F6C616C749D
:100AC0005F6C6775693A20000A002575002E636126
:100AD00070736C6F636B5F746F5F636F6E74726F54
:100AE0006C3A20000A002575002E737761705F63F1
:100AF0006F6E74726F6C5F636170736C6F636B3A6F
:100B000020000A0025303258006B65796D61705FF6
:100B1000636F6E6669672E7261773A20000A00255E
:100B200075002E6D6F7573653A20000A00257500FB
:100B30002E6B6579626F6172643A20000A00257538
:100B4000002E6D61747269783A20000A00257500E4
:100B50002E656E61626C653A20000A0025303258BD
:100B60000064656275675F636F6E6669672E7261A8
:100B7000773A20000A0025750064656661756C741B
:100B80005F6C617965723A20003F006B6579626F36
:100B90006172645F69646C653A2025580A006B6570
:100BA00079626F6172645F70726F746F636F6C3AB9
:100BB0002025580A00686F73745F6B6579626F61F6
:100BC00072645F6C65647328293A2025580A000A0C
:100BD0000A2D2D2D2D2D20537461747573202D2D0C
:100BE0002D2D2D0A0074696D65725F636F756E74CB
:100BF0003A202530346C580A004743433A20342EBB
:100C0000382E31204156522D4C4942433A20312E44
:100C1000382E3073766E204156525F415243483A27
:100C20002061767233350A004F5054494F4E533A83
:100C3000204C55464120424F4F544D414749432097
:100C40004D4F5553454B45592045585452414B45FE
:100C50005920434F4E534F4C4520434F4D4D414E2D
:100C600044204B45594D41505F494E5F45455052D8
:100C70004F4D204241434B4C4947485420534F4627
:100C80005450574D5F4C45442042524541544849C9
:100C90004E475F4C454420343039360A00425549AE
:100CA0004C443A20363332633330362D64697274E3
:100CB00079202831303A33373A3039204D61792064
:100CC00031382032303135290A005649443A203033
:100CD0007838313333284E6F756B656E73686129D0
:100CE000205049443A2030783031323028537461F2
:100CF00072797529205645523A2030783031303398
:100D00000A00444553433A20742E6D2E6B2E206BFF
:100D10006579626F617264206669726D7761726570
:100D200020666F72205374617279750A000A0A2D69
:100D30002D2D2D2D2056657273696F6E202D2D2D52
:100D40002D2D0A000A44454255473A206D6F7573B0
:100D5000652064697361626C65642E0A000A44450B
:100D60004255473A206D6F75736520656E61626C00
:100D700065642E0A000A44454255473A206B65795E
:100D8000626F6172642064697361626C65642E0ACB
:100D9000000A44454255473A206B6579626F61729B
:100DA0006420656E61626C65642E0A000A444542E7
:100DB00055473A206D617472697820646973616285
:100DC0006C65642E0A000A44454255473A206D611D
:100DD0007472697820656E61626C65642E0A000A1F
:100DE00044454255473A20656E61626C65642E0A3F
:100DF000000A44454255473A2064697361626C6554
:100E0000642E0A006E6F7420737570706F72746553
:100E1000642E0A000A0A4A756D7020746F20626F92
:100E20006F746C6F616465722E2E2E2000433E201D
:100E3000000A456E74657220436F6E736F6C652097
:100E40004D6F64650A00556E6C6F636B65642E0AA6
:100E5000004C6F636B65642E0A006565636F6E6698
:100E600069673A0A0000000000000000000000016D
:100E7000010102020203030404050506060708082F
:100E8000090A0B0B0C0D0E0F101112131516171962
:100E90001A1B1D1E2022232527292B2D2F313335E8
:100EA000383A3D3F4244474A4D505356595C5F6281
:100EB00066696C7074777B7E82868A8E9195999D27
:100EC000A1A5A9ADB0B4B8BCC0C3C7CBCED2D5D84C
:100ED000DBDFE2E4E7EAECEFF1F3F5F7F8FAFBFC2D
:100EE000FDFEFFFFFF6261636B6C696768742073CE
:100EF0007465703A2025750A006261636B6C6967DE
:100F0000687420746F67676C653A2025750A006203
:100F100061636B6C69676874206465637265617393
:100F2000653A2025750A006261636B6C69676874B5
:100F300020696E6372656173653A2025750A000049
:100F400011241FBECFEFD4E0DEBFCDBF04B603FE39
:100F500024C08091EA019091EB01A091EC01B09145
:100F6000ED018730904BA740B04BB9F41092EA01E5
:100F70001092EB011092EC011092ED0114BE84B7B7
:100F8000877F84BF88E10FB6F89480936000109249
:100F900060000FBEE0E0F8E3099511E0A0E0B1E0E9
:100FA000EEECF4E602C005900D92A433B107D9F738
:100FB00021E0A4E3B1E001C01D92AA3EB207E1F72F
:100FC0000E94E70D0C9465320C940000FF93EF93A0
:100FD000E091A301F091A401309709F00995EF91F8
:100FE000FF910895FC018591803011F0EFDFFBCF78
:100FF0000895FF27E0E230E247FF0CC0419597FFDC
:1010000009C0EDE26095709580959095611D711D08
:10101000811D911D27FF02C0219530E350E2AA27D0
:10102000660F771F881F991FAA1FA41710F0A41B13
:1010300063955A95A9F7AA3008F0A95FA05DAF9310
:10104000F395611571058105910541F7ED3211F4B4
:10105000EF93F395F21718F43F93F395FBCF8F912D
:10106000B5DFFA95E1F70895E991F991859180301E
:1010700021F0853219F0AADFF9CF089520E0E89435
:1010800055915532C1F3503311F4689455915A3348
:1010900048F4505390F3220F022E220F220F200DFE
:1010A000250FF4CF0EF4219589919991533619F3B8
:1010B000533729F1533559F1BC0188279927E89412
:1010C0005C3621F48991999168945591543639F49C
:1010D00046EF7EF077FF0DC08FEF9FEF0AC05537C8
:1010E0004AE039F0583540E121F0523642E009F04B
:1010F0000895FF93EF937DDFEF91FF91B7CFFF93BB
:10110000EF93FC0181918030B9F360DFFBCFFF9357
:10111000EF9368DFF1CFDF93CF93CDB7DEB725969E
:10112000A3DFCF91DF9108950895089589E190E0BC
:10113000089589E090E00895FC018281882381F080
:10114000613041F028F0623039F0633039F00895B1
:101150000C94390B0C94400B0C945C0B0C94740B9A
:101160000895462F672F0C941530805C0E9409303B
:1011700008958AEB90E0089588EA90E0089581E070
:10118000089585E008950E94110B8AB1807E8AB986
:101190008BB18F618BB9089589B180958F719091D2
:1011A0003401981759F1809334018091000188230C
:1011B00011F18091A10180FF04C081E091E00E94C3
:1011C000F2078091A10180FF0EC0809100011F9263
:1011D0008F938CEF90E09F938F930E948B080F90DA
:1011E0000F900F900F908091A10180FF04C08AEFB3
:1011F00090E00E94F20785E0809300018091000159
:10120000882381F0815080930001882339F08FE991
:101210009FE00197F1F700C0000004C08091340105
:101220008093350181E0089580913501089583EE22
:1012300090E00E94F2071F921F928EED90E09F9324
:101240008F930E948B088BED90E00E94F2078091B3
:10125000350190E00E9489209F938F9385ED90E067
:101260009F938F930E948B088DB79EB708960FB6F9
:10127000F8949EBF0FBE8DBF83ED90E00C94F207F3
:101280000895CF93C82F0E940C2DC730B0F4C430FE
:1012900020F5C13070F10E94592D0E949C2DEC2F39
:1012A000F0E0E55FFE4F84918093DB010E94262DE4
:1012B0008091DB01CF910C94930BC730D1F40E9445
:1012C0009C2D81E00E949F2D81E00E946E2D83E085
:1012D0000E947C2DCF910C94532D0E94592D86E0B5
:1012E0008C1B0E949F2D80E00E94BA2DCF910C9400
:1012F000962D0E94592D0E949C2D1092DB0180E0BA
:10130000CF910C94262D87B1846887B98AB1806605
:101310008AB9209A0895833079F028F4813041F019
:10132000823041F00895843049F0853049F00895C5
:1013300042980895479808955D9808955E98089595
:1013400028980895833079F028F4813041F0823074
:1013500041F00895843049F0853049F00895429A6B
:101360000895479A08955D9A08955E9A0895289A77
:1013700008951F93CF93DF9300D000D01F92CDB775
:10138000DEB749838091E90180FF1FC08E7F8E30D8
:10139000E1F46623D1F080913B01823010F00E948D
:1013A0009C2D10923B0119811F5F60E4812F0E94E8
:1013B0007F2D60E2812F0F900F900F900F900F9074
:1013C000DF91CF911F910C94332D0F900F900F90C0
:1013D0000F900F90DF91CF911F9108950C94970B70
:1013E000CF932091E9012E7F2E3009F051C020913A
:1013F0003B01211117C0FC01C19185E09191C917F2
:1014000008F4C92F8150D1F78C2F0E94930BC11182
:1014100009C00E940C2190933A018093390181E028
:1014200080933B0180913B01813089F480913901A7
:1014300090913A010E941821893B9B4040F080E046
:101440000E94BA2D1092380182E080933B01809176
:101450003B018230E9F480913601909137010E947E
:101460001821853F9140A0F00E940C2190933701F4
:1014700080933601809138010E94852D809138013A
:1014800090E0019666E070E00E941A328093380185
:10149000CF910895FC0180810C94930B38B1242FD7
:1014A0002095232338B1342B4FB7F894FC01680FF3
:1014B000791FE617F70789F0819198E038B90000A5
:1014C00000C087FF28B9880F000000C000C000C01E
:1014D00028B900C09A9591F7ECCF4FBF089527B176
:1014E000242B27B99B01220F331F260F371FB90169
:1014F0000E944E0A87EC90E00197F1F700C00000CF
:10150000089540E40C946F0A6091410187E090E0F7
:101510000C944232CF93DF93CDB7DEB728970FB646
:10152000F894DEBF0FBECDBF40910101A091020132
:1015300020913F0130914001B0E0B9017727CD0102
:101540000E94F531E42FF0E0892F90E0BF010E9466
:10155000F531292F80E091E08A1B9B0BBF010E948F
:10156000F5319C839983920F9D839A83421B4B8311
:10157000832F90E063E070E00E940632FE01E80FE6
:10158000F91F23812F83FE01E80FF91F22812E838B
:10159000FE01E80FF91F8181888761E070E0CE01CC
:1015A00006960E94810A28960FB6F894DEBF0FBEF9
:1015B000CDBFDF91CF910895883058F51092420148
:1015C000811103C01092010122C0873019F41092DA
:1015D00002010EC090E001979695982F8827979565
:1015E00087959093400180933F018FEF8093020194
:1015F0008091E90180FF08C0869581588F778330FC
:1016000030F48091DB0101C080E1809301010C94F2
:101610008A0A9FEF909302019BE0981B90934201EE
:10162000089587E090E00E943432809341018F3F1B
:1016300021F4109241010E94840A8091410187FFA8
:1016400003C08F770C94DC0A089580914101806873
:10165000809341018F770E94DC0A0C94840A809168
:1016600041018F778093410180E00E94DC0A0C9455
:10167000840A8091410187FD0C942F0B0C94250B5B
:1016800080914101982F9F7791F091589F778078B2
:10169000892B809341018F7791E009F490E080914C
:1016A000410190FB87F9809341010E94840A809157
:1016B00041018F770C94DC0A20914101322F3F7752
:1016C000832F90E00A975CF491E0930F9F77822F2D
:1016D0008078892B8068809341010E94840A8091E0
:1016E00041018F770C94DC0A3091410121E0230FF6
:1016F0002F77822F90E030780B9724F4232B2093C0
:10170000410102C030934101809141018F7791E006
:1017100009F490E08091410190FB87F980934101A9
:101720008F770C94DC0A809301010C948A0A8091D3
:101730004201882329F180913E018F5F80933E0111
:10174000909142019817E0F410923E0180913C0183
:1017500090913D019093400180933F010E948A0A3D
:1017600080913C0190913D01019690933D018093C1
:101770003C018115934020F010923D0110923C01F4
:10178000089580914D0108959091E001943009F001
:101790004DC09091E9009F702091EC0020FF02C0A5
:1017A00020E801C020E0292B94E09093E90090917B
:1017B000EB0090FF38C09091EE0097FF34C09091FD
:1017C0004401992321F09091E80095FF2CC01092DC
:1017D000440196E03091E80035FD15C03091E001FC
:1017E000343009F53091EB0035FD1DC0915021F4E6
:1017F00081E08093440117C0EFE9FFE03197F1F7F2
:1018000000C00000E7CF8093F1008091E80085FDE3
:1018100005C08091E8008E778093E8002F702093B8
:10182000E90080E008952F702093E9008FEF08957C
:10183000CF93DF9300D01F92CDB7DEB72091E001A8
:10184000243019F523E029839B838A832093E900C0
:101850008FEF9091E800815095FD06C095ED9A9527
:10186000F1F700008111F5CF8091E80085FF0DC0F0
:1018700040E050E063E070E0CE0101960E94A20ECD
:101880008091E8008E778093E8000F900F900F9082
:10189000DF91CF910895CF93DF9300D01F92CDB702
:1018A000DEB72091E001243021F522E029839B83DB
:1018B0008A8383E08093E9008FEF9091E800815064
:1018C00095FD06C095ED9A95F1F700008111F5CFD1
:1018D0008091E80085FF0DC040E050E063E070E0DB
:1018E000CE0101960E94A20E8091E8008E7780932F
:1018F000E8000F900F900F90DF91CF910895209105
:10190000E0012430F1F422E02093E9002FEF309140
:10191000E800215035FD06C035ED3A95F1F700009D
:101920002111F5CF2091E80025FF0BC040E050E0E9
:1019300065E070E00E94A20E8091E8008E778093AF
:10194000E8000895CF93DF93EC018091E0018430AB
:1019500039F581E08093E9008FEF9091E8008150A4
:1019600095FD06C095ED9A95F1F700008111F5CF30
:101970008091E80085FF14C040E050E068E070E02E
:10198000CE010E94A20E8091E8008E778093E8003D
:1019900088E0FE01A5E4B1E001900D928A95E1F79F
:1019A000DF91CF91089585E491E00E94F207809144
:1019B000DF01811109C00E9430100E9483108091C4
:1019C000E20084608093E200089581E491E00E9447
:1019D000F2071092DF0108958DE391E00C94F20775
:1019E0008091E001843049F58091E9008F709091F9
:1019F000EC0090FF02C090E801C090E0982B84E0DA
:101A00008093E9008091EB0080FF14C08091EE008C
:101A100087FF10C08091E80085FF03C01092F1009D
:101A2000F9CF8091E80080FF05C08091E8008E77B3
:101A30008093E8009F709093E900089542E061EC84
:101A400081E00E94AA0F42E061EC82E00E94AA0FAE
:101A500042E061EC83E00E94AA0F46E261EC84E080
:101A60000C94AA0F8091E201833009F453C030F442
:101A7000813071F0823009F491C008958A3009F400
:101A80007DC08B3009F45EC0893009F09FC020C052
:101A90008091E101813A09F099C08091E800877F47
:101AA0008093E8008091E5019091E601892B21F077
:101AB00060E080E090E003C068E085E491E070E0E1
:101AC0000E94EB0E8091E8008B778093E8000895E8
:101AD0008091E101813209F079C08091E501909116
:101AE000E601892B09F072C08091E800877F80931E
:101AF000E8008091E80082FD05C08091E00181113D
:101B0000F8CF64C08091F10080934D018091E8008E
:101B10008B7758C08091E101813A09F057C08091DC
:101B2000E5019091E601892B09F050C08091E80011
:101B3000877F8093E8008091E80080FFFCCF809150
:101B40000D013BC08091E101813209F03FC08091DD
:101B5000E5019091E601892BC9F58091E800877F26
:101B60008093E8000E94DF0F9091E30181E09111E2
:101B700001C080E080930D010C94C9188091E101AF
:101B8000813221F58091E800877F8093E8000E94F0
:101B9000DF0F8091E4018093430108958091E1017A
:101BA000813AA1F48091E800877F8093E8008091DA
:101BB000E80080FFFCCF809143018093F100809189
:101BC000E8008E778093E8000C94DF0F089584B7C7
:101BD000877F84BF88E10FB6F894809360001092ED
:101BE00060000FBE90E080E80FB6F894809361002B
:101BF000909361000FBE0E9430100E94831080916C
:101C0000E20084608093E20084EC9BE00E9420204C
:101C100078948091E0018430E1F784E291E00E94C1
:101C2000F2070E945D1383E091E00E94CB1283E1F2
:101C300091E00E94F2078091E001853089F48FE005
:101C400091E00E94F2070E94A3208091DE01882388
:101C500091F30E94CB20882371F30E948C0EEBCF6E
:101C60000E949113E8CF292F332723303105A9F0A3
:101C70006CF42130310509F442C02230310509F0FD
:101C800043C084E790E023E731E042C021323105D0
:101C9000C9F02232310519F137C0992781309105F9
:101CA00041F08230910541F0892B71F5EFE6F1E0CA
:101CB00005C0E9E5F1E002C0E9E4F1E0849190E0DB
:101CC0009F0126C0643000F5E62FF0E0EE0FFF1F05
:101CD000EE5DFE4F2081318189E090E019C06430D3
:101CE00098F4E62FF0E0DF01AA0FBB1FA65EBE4FFF
:101CF0002D913C91EA5EFE4F808190E009C082E127
:101D000090E027EE31E004C080E090E020E030E099
:101D1000FA0131832083089584E089BD86E089BD7E
:101D200009B400FEFDCF8091D8008F7D8093D8004C
:101D30008091E00082608093E0008091E00081FD6E
:101D4000FCCF0895CF92DF92EF92FF920F931F93F3
:101D5000CF93DF937C018B01EA010E940010811177
:101D600031C0209731F088819981081B190BE80E4A
:101D7000F91EC12CD12C0115110519F18091E80033
:101D800085FD14C08091E8008E778093E80020974D
:101D900041F0888199818C0D9D1D9983888385E010
:101DA00011C00E940010882331F30CC0F70181910B
:101DB0007F018093F10001501109FFEFCF1ADF0A74
:101DC000DACF80E0DF91CF911F910F91FF90EF90DC
:101DD000DF90CF9008952091E7013091E801261718
:101DE000370748F06115710539F42091E8002E7726
:101DF0002093E80001C0B90120E061157105D1F11F
:101E00003091E001332309F441C0353009F440C07A
:101E10003091E80033FD38C03091E80032FF06C051
:101E20008091E80082FF29C080E008953091E800A9
:101E300030FFE3CF2091F20030E0FC01281B390B8A
:101E4000CF01820F931F6115710549F0883091050C
:101E500030F481918093F10061507109F1CF21E05C
:101E6000089709F020E08091E8008E778093E800E1
:101E7000CF01C3CF2111C4CFD3CF8091E0018823FC
:101E800029F0853069F604C081E0089582E0089564
:101E900083E008952091E7013091E8012617370784
:101EA00048F06115710539F42091E8002E772093F0
:101EB000E80001C0B90120E061157105D9F1309148
:101EC000E001332309F442C0353009F441C03091B8
:101ED000E80033FD39C03091E80032FF06C0809140
:101EE000E80082FF2AC080E008953091E80030FFCA
:101EF000E3CF2091F20030E0FC01281B390BC9012F
:101F00008E0F9F1F6115710551F08830910538F4CF
:101F100084918093F100319661507109F0CF21E0F6
:101F2000089709F020E08091E8008E778093E80020
:101F3000CF01C2CF2111C3CFD2CF8091E00188233E
:101F400029F0853061F604C081E0089582E00895AB
:101F500083E00895982F953058F59093E9009817ED
:101F600039F07091EC002091ED005091F00003C029
:101F7000242F762F50E021FF19C03091EB003E7FD7
:101F80003093EB003091ED003D7F3093ED003091C8
:101F9000EB0031603093EB007093EC002093ED0088
:101FA0005093F0002091EE0027FF07C09F5FD3CF32
:101FB0008F708093E90081E0089580E0089580911A
:101FC000E10187FD05C08091E80080FF0EC012C0CE
:101FD0008091E80082FD05C08091E0018111F8CF79
:101FE00008958091E8008B7708C08091E00181110D
:101FF000EACF08958091E8008E778093E8000895F5
:102000008091E4009091E50045E62091EC0020FFEE
:1020100021C02091E80020FD21C02091E001222371
:1020200089F0253089F02091EB0025FD0FC020912B
:10203000E4003091E5002817390739F3415041F0A9
:10204000C901E3CF82E0089583E0089581E0089517
:1020500084E008952091E80022FFDFCF80E008951A
:102060000E948D100E949010E0EEF0E0808181606F
:102070008083E8EDF0E080818F77808319BCE3E610
:10208000F0E08081816080831092DF0108950E94DA
:102090008D100E9490108091D8008F778093D80087
:1020A0008091D80080688093D8008091D8008F7D7F
:1020B0008093D80084E089BD86E089BD09B400FE24
:1020C000FDCF1092E0011092DC011092DE0110921F
:1020D000DD0142E060E080E00E94AA0F8091E10013
:1020E0008E7F8093E1008091E20081608093E20026
:1020F0008091E20088608093E2008091E0008E7F12
:102100008093E0000895E3E6F0E080818E7F808395
:1021100081E08093DF010C9447101092E200089553
:102120001092E10008951F920F920FB60F921124A2
:102130002F933F934F935F936F937F938F939F93CF
:10214000AF93BF93EF93FF938091E10082FF0BC0A9
:102150008091E20082FF07C08091E1008B7F809335
:10216000E1000E94F00C8091E10080FF18C0809196
:10217000E20080FF14C08091E2008E7F8093E20035
:102180008091E20080618093E2008091D8008062BB
:102190008093D80019BC1092E0010E94E50C809158
:1021A000E10084FF30C08091E20084FF2CC084E015
:1021B00089BD86E089BD09B400FEFDCF8091D800BD
:1021C0008F7D8093D8008091E1008F7E8093E10025
:1021D0008091E2008F7E8093E2008091E200816036
:1021E0008093E2008091DC01882311F084E007C035
:1021F0008091E30087FF02C083E001C081E080930B
:10220000E0010E94D30C8091E10083FF29C08091FE
:10221000E20083FF25C08091E100877F8093E10089
:1022200082E08093E0011092DC018091E1008E7FDA
:102230008093E1008091E2008E7F8093E2008091A4
:10224000E20080618093E20042E060E080E00E9472
:10225000AA0F8091F00088608093F0000E94EC0C3F
:10226000FF91EF91BF91AF919F918F917F916F916E
:102270005F914F913F912F910F900FBE0F901F9044
:1022800018951F920F920FB60F9211242F933F9320
:102290004F935F936F937F938F939F93AF93BF936E
:1022A000CF93EF93FF93C091E900CF708091EC0042
:1022B0001092E9008091F000877F8093F00078947D
:1022C0000E947D111092E9008091F0008860809357
:1022D000F000C093E900FF91EF91CF91BF91AF91D2
:1022E0009F918F917F916F915F914F913F912F912E
:1022F0000F900FBE0F901F9018951F93CF93DF93F1
:10230000CDB7DEB7AA970FB6F894DEBF0FBECDBF2C
:10231000E1EEF1E08091F100819321E0E93EF207E6
:10232000C9F70E94320D8091E80083FF1CC1209103
:10233000E1013091E201832F90E08A30910508F0AD
:1023400012C1FC01E65CFF4F0C942E32203881F064
:10235000223809F008C18091E5018F708093E9006F
:102360008091EB0085FB882780F91092E90006C078
:102370008091DD019091DE01911182609091E800E1
:10238000977F9093E8008093F1001092F100C5C010
:10239000822F8D7F09F0E7C0222319F0223061F0EF
:1023A000E2C08091E301813009F0DDC0333009F0F3
:1023B00080E08093DE0128C08091E301811124C078
:1023C0002091E5012F7009F4CEC02093E90080919F
:1023D000EB0080FF19C08091EB00333011F4806274
:1023E00011C080618093EB0081E090E0022E01C07B
:1023F000880F0A94EAF78093EA001092EA0080912D
:10240000EB0088608093EB001092E9008091E80077
:10241000877F86C02111A7C01091E3011F778091AB
:10242000E3008078812B8093E3008091E800877F30
:102430008093E8000E94DF0F8091E80080FFFCCFCE
:102440008091E30080688093E300112311F083E022
:1024500001C082E08093E00186C02058223008F05D
:1024600082C08091E3019091E4018C3D23E09207CA
:1024700079F583E08A838AE289834FB7F894DE0195
:10248000139620E03EE051E2E32FF0E05093570036
:10249000E49120FF03C0E295EF703F5FEF708E2F55
:1024A00090E0EA3010F0C79601C0C0968D939D93DE
:1024B0002F5F243149F74FBF8091E800877F8093D9
:1024C000E8006AE270E0CE0101960E94EB0E14C0B3
:1024D000AE014F5F5F4F6091E5010E94330E0097A0
:1024E00009F441C02091E800277F2093E800BC0157
:1024F00089819A810E944A0F8091E8008B778093AE
:10250000E80031C0203879F58091E800877F80931A
:10251000E8008091DC018093F1008091E8008E77E3
:102520008093E8000E94DF0F1EC021111CC0909113
:10253000E3019230C0F48091E800877F8093E80047
:102540009093DC010E94DF0F8091DC01811104C0B7
:102550008091E30087FF02C084E001C081E08093A6
:10256000E0010E941E0D8091E80083FF0AC0809167
:10257000E800877F8093E8008091EB008062809381
:10258000EB00AA960FB6F894DEBF0FBECDBFDF9169
:10259000CF911F9108959093530180935201089514
:1025A00080915201909153010895E0915201F09170
:1025B0005301309721F00190F081E02D099480E0E3
:1025C0000895FF920F931F93CF93DF938C01E091B7
:1025D0005201F0915301309799F10280F381E02D7F
:1025E00009958091A10182FF2BC080FF04C083EE7A
:1025F00092E00E94F207E80188E0F82E0DED12E06B
:102600008091A10180FF0BC088811F928F931F933F
:102610000F930E948B080F900F900F900F90FA94D9
:102620002196F110EDCF8091A10180FF09C08BEDC3
:1026300092E0DF91CF911F910F91FF900C94F207E0
:10264000DF91CF911F910F91FF900895E09152017A
:10265000F0915301309721F00480F581E02D099429
:10266000089520915001309151018217930771F024
:102670009093510180935001E0915201F0915301E8
:10268000309721F00680F781E02D0994089520917C
:102690004E0130914F018217930771F090934F01D3
:1026A00080934E01E0915201F0915301309721F057
:1026B0000084F185E02D099408950E9403210E9471
:1026C000C3080E94C1210E94F92C0E94DD2E0C94A7
:1026D000C430CF93C82F8091A10182FF1EC080FF1C
:1026E00004C08CEF92E00E94F2078091A10180FF6C
:1026F0000CC01F92CF9327EF32E03F932F930E949D
:102700008B080F900F900F900F908091A10180FF88
:1027100004C085EF92E00E94F2078C2FCF910C94B9
:1027200040090F931F93CF93DF93CDB7DEB72B975D
:102730000FB6F894DEBF0FBECDBF0E94CC0880E07C
:102740000E94140910915501182789F48FEF89838D
:102750008A831B820E940C218160782F9D838C8349
:1027600049815A816B818D810E940D193EC09091E3
:10277000A10191FF04C08B870E9417098B8520E07F
:1027800030E0412F50E0BA01022E02C075956795E6
:102790000A94E2F760FF23C02E831F8201E010E05D
:1027A00002C0000F111F2A95E2F790E080239123C9
:1027B00021E0892B09F420E028870E940C21816008
:1027C000782F9A8789874E815F8168858A850E94E4
:1027D0000D198091550180278093550106C02F5F08
:1027E0003F4F2530310579F6B1CF0E944725109132
:1027F00054010E94D512181781F00E94D5128093BF
:1028000054012B960FB6F894DEBF0FBECDBFDF91FB
:10281000CF911F910F910C9469132B960FB6F894DA
:10282000DEBF0FBECDBFDF91CF911F910F910895F5
:10283000CF93C82F882309F4C1C0823859F40E946D
:10284000D51281FDBBC089E30E94671E0E94E21E73
:1028500089E30CC0833879F40E94D51280FDAEC0A4
:1028600083E50E94671E0E94E21E83E50E94881E87
:10287000CF910C94E21E843859F40E94D51282FD47
:102880009DC087E40E94671E0E94E21E87E4EECF8F
:102890008CEF8C0F813A48F48C2F0E94892B811188
:1028A0008DC08C2F0E94671EE3CF80E28C0F883092
:1028B00048F4C77081E001C0880FCA95EAF70E940A
:1028C000A91ED6CF8BE58C0F833078F4C53A29F05A
:1028D000C63A31F482E890E005C081E890E002C099
:1028E00083E890E0CF910C94311388E58C0F83310D
:1028F00008F064C0C83A39F1C93A41F1CA3A49F11D
:10290000CB3A51F1CC3A59F1CD3A61F1C03B69F182
:10291000CE3A71F1CF3A79F1C13B81F1C23B89F1F5
:10292000C33B91F1C43B99F1C53BA1F1C63BA9F171
:10293000C73BB1F1C83BB9F1C93BC1F1CA3BC9F5CD
:102940008AE292E038C082EE90E035C089EE90E0F5
:1029500032C08AEE90E02FC085EB90E02CC086EB71
:1029600090E029C087EB90E026C08CEC90E023C07B
:102970008DEC90E020C083E891E01DC08AE891E0F2
:102980001AC082E991E017C084E991E014C081E2A5
:1029900092E011C083E292E00EC084E292E00BC0AC
:1029A00085E292E008C086E292E005C087E292E00C
:1029B00002C080E090E0CF910C944713CF9108952E
:1029C000882309F44BC0823859F40E94D51281FF44
:1029D00045C089E30E94671E0E94E21E89E30CC085
:1029E000833871F40E94D51280FF38C083E50E94BD
:1029F000671E0E94E21E83E50E94881E0C94E21E60
:102A0000843859F40E94D51282FF28C087E40E94BE
:102A1000671E0E94E21E87E4EFCF9CEF980F913A69
:102A200058F390E2980F983050F4877091E001C00D
:102A3000990F8A95EAF7892F0E94AF1EDFCF9BE599
:102A4000980F933020F480E090E00C943113885A72
:102A5000833120F480E090E00C944713089588239C
:102A600021F00E94A91E0C94E21E0895882321F0F3
:102A70000E94AF1E0C94E21E0895CF92DF92EF9257
:102A8000FF920F931F93CF93DF93CDB7DEB72897B5
:102A90000FB6F894DEBF0FBECDBF8C0185E0F80104
:102AA000DE01119601900D928A95E1F7F8014081BF
:102AB0003181F280258122952F7083819481892B29
:102AC00031F03F3F31F481E04F3F19F403C081E022
:102AD00001C080E080FD3CC349833A8389819A81AB
:102AE0002F830E94251E9E8388870E94241E0E9499
:102AF000F71C4E81E42FE295EF70F0E0EC5BFF4FA6
:102B00002F8168850C942E32842F807F142F1F70A4
:102B1000882311F01295107FFF2059F0112309F43A
:102B200058C2812F68870E94B91E0E94E21E6885E4
:102B300050C2862F0E94E014112309F409C3812F8B
:102B40000E94BF1E28960FB6F894DEBF0FBECDBF01
:102B5000DF91CF911F910F91FF90EF90DF90CF9079
:102B60000C94E21E342F307F842F8F70303211F09E
:102B70008295807F662319F0613009F12AC0FF2019
:102B8000A1F0222381F1213071F528960FB6F89437
:102B9000DEBF0FBECDBFDF91CF911F910F91FF9090
:102BA000EF90DF90CF900C94C91E222319F02130B2
:102BB00009F4CEC28E830E94CC1E8E818EC1FF206E
:102BC00021F0263008F0C4C20EC0253008F0C0C283
:102BD00084C1FF20C1F0222331F0F801958190FFDC
:102BE000F8C19F70958328960FB6F894DEBF0FBE8C
:102BF000CDBFDF91CF911F910F91FF90EF90DF90AC
:102C0000CF900C942F15222309F467C1F6C1242F0D
:102C100026952695237030E02115310521F02130CD
:102C20003105C9F095C2FF2021F0862F942F9370B3
:102C300002C080E090E028960FB6F894DEBF0FBE89
:102C4000CDBFDF91CF911F910F91FF90EF90DF905B
:102C5000CF900C943113FF2021F0862F942F937086
:102C600002C080E090E028960FB6F894DEBF0FBE59
:102C7000CDBFDF91CF911F910F91FF90EF90DF902B
:102C8000CF900C944713862FFF2019F00E94CD237C
:102C900002C00E94352428960FB6F894DEBF0FBEFE
:102CA000CDBFDF91CF911F910F91FF90EF90DF90FB
:102CB000CF900C94BA24842F837009F076C0F11061
:102CC00047C2262F229526952770220F220F862F86
:102CD0008F70C82ED12CE12CF12C022E04C0CC0C0C
:102CE000DD1CEE1CFF1C0A94D2F764FF10C06FE0DD
:102CF00070E080E090E004C0660F771F881F991F86
:102D00002A95D2F7609570958095909503C060E004
:102D100070E0CB01242F269526952370422F50E09A
:102D200042305105D1F04330510559F16C297D29CC
:102D30008E299F294130510541F128960FB6F8940C
:102D4000DEBF0FBECDBFDF91CF911F910F91FF90DE
:102D5000EF90DF90CF900C941C1D6C297D298E295B
:102D60009F2928960FB6F894DEBF0FBECDBFDF9126
:102D7000CF911F910F91FF90EF90DF90CF900C9427
:102D8000361D0E941C1DC701B60128960FB6F89487
:102D9000DEBF0FBECDBFDF91CF911F910F91FF908E
:102DA000EF90DF90CF900C94021DFF2019F0842F3C
:102DB000817001C08695882309F4CAC1262F229507
:102DC00026952770220F220F862F8F70C82ED12CA8
:102DD000E12CF12C022E04C0CC0CDD1CEE1CFF1CDF
:102DE0000A94D2F764FF10C06FE070E080E090E0DA
:102DF00004C0660F771F881F991F2A95D2F7609528
:102E000070958095909503C060E070E0CB01242F11
:102E1000269526952370422F50E042305105D1F07F
:102E20004330510559F16C297D298E299F29413064
:102E3000510541F128960FB6F894DEBF0FBECDBF05
:102E4000DF91CF911F910F91FF90EF90DF90CF9086
:102E50000C94F01D6C297D298E299F2928960FB688
:102E6000F894DEBF0FBECDBFDF91CF911F910F91C0
:102E7000FF90EF90DF90CF900C940A1E0E94F01DFF
:102E8000C701B60128960FB6F894DEBF0FBECDBFBE
:102E9000DF91CF911F910F91FF90EF90DF90CF9036
:102EA0000C94D61D603F49F118F4603E48F48CC084
:102EB000623F09F451C0E0F1633F09F461C084C08E
:102EC000162F1F70842F8F71FF2021F00E946F1D1D
:102ED000812F89CE0E94901D812F28960FB6F894DD
:102EE000DEBF0FBECDBFDF91CF911F910F91FF903D
:102EF000EF90DF90CF900C943615FF20A9F025308D
:102F000008F026C1842F8F7128960FB6F894DEBF83
:102F10000FBECDBFDF91CF911F910F91FF90EF902A
:102F2000DF90CF900C94B51D263008F011C1EACF88
:102F3000FF20A1F0842F8F7128960FB6F894DEBF82
:102F40000FBECDBFDF91CF911F910F91FF90EF90FA
:102F5000DF90CF900C946F1DFF2061F3842F8F7151
:102F600028960FB6F894DEBF0FBECDBFDF91CF918C
:102F70001F910F91FF90EF90DF90CF900C94901DD8
:102F8000FF2091F0842F8F7128960FB6F894DEBF42
:102F90000FBECDBFDF91CF911F910F91FF90EF90AA
:102FA000DF90CF900C945A1D28960FB6F894DEBF90
:102FB0000FBECDBFDF91CF911F910F91FF90EF908A
:102FC000DF90CF900C94501DFF20A1F0222309F434
:102FD000B1CF862F28960FB6F894DEBF0FBECDBFB7
:102FE000DF91CF911F910F91FF90EF90DF90CF90E5
:102FF0000C941814222309F4B1CF862F28960FB60B
:10300000F894DEBF0FBECDBFDF91CF911F910F911E
:10301000FF90EF90DF90CF900C94E0144F70C801B8
:103020000E941D2028960FB6F894DEBF0FBECDBFBC
:10303000DF91CF911F910F91FF90EF90DF90CF9094
:103040000C94791CF11084C0662341F0842F8F709A
:10305000843021F0407F862F8F70482B942F9F70F3
:10306000492F50E04230510509F440C0BCF44115ED
:10307000510561F14130510509F06AC028960FB63B
:10308000F894DEBF0FBECDBFDF91CF911F910F919E
:10309000FF90EF90DF90CF900C94182F43305105A4
:1030A000A9F14430510509F053C0862F28960FB678
:1030B000F894DEBF0FBECDBFDF91CF911F910F916E
:1030C000FF90EF90DF90CF900C94B12F28960FB621
:1030D000F894DEBF0FBECDBFDF91CF911F910F914E
:1030E000FF90EF90DF90CF900C94EE2E28960FB6C5
:1030F000F894DEBF0FBECDBFDF91CF911F910F912E
:10310000FF90EF90DF90CF900C94472F28960FB64A
:10311000F894DEBF0FBECDBFDF91CF911F910F910D
:10312000FF90EF90DF90CF900C94792F4F70C801F3
:1031300028960FB6F894DEBF0FBECDBFDF91CF91BA
:103140001F910F91FF90EF90DF90CF900C949C080F
:1031500028960FB6F894DEBF0FBECDBFDF91CF919A
:103160001F910F91FF90EF90DF90CF9008950E94F4
:10317000C61E0E949B1E0E94E21E0E94EA250E941B
:10318000BA2480E090E00E94311380E090E00C943B
:1031900047130E94B61E0C94B7180E94251E292FB3
:1031A00022952F7030E02C3031054CF42A30310557
:1031B0006CF4225031092230310570F407C02C30F4
:1031C000310531F02F30310519F006C081E0089546
:1031D00093FB882780F9089580E00895CF93DF93CB
:1031E00000D000D01F92CDB7DEB70F900F900F9098
:1031F0000F900F90DF91CF910895CF93DF9300D080
:1032000000D000D0CDB7DEB726960FB6F894DEBF5B
:103210000FBECDBFDF91CF910895CF93DF93CDB790
:10322000DEB72B970FB6F894DEBF0FBECDBF4F832E
:10323000588769877A878B87DE01119686E0FD01C2
:1032400011928A95E9F785E0FE01379601900D927B
:103250008A95E1F74F81588569857A858B850E942B
:10326000B90949815A816B817C818D819E810E943F
:10327000C71B2B960FB6F894DEBF0FBECDBFDF91F4
:10328000CF910895CF93DF93C0915601809157015C
:10329000C817A1F0D0E0CE0166E070E00E94F531E1
:1032A000FC01E85AFE4F4081518162817381848123
:1032B00095810E94FD182196C770E8CFDF91CF91CC
:1032C0000895409188015091890160918A0170911F
:1032D0008B0180918C0190918D010C94FD181F93AE
:1032E000CF93DF9380918D0182958F7009F060C03C
:1032F00080918A01882309F45BC0A0915601D09186
:10330000570140918801C091890120918B01309132
:103310008C0181E04F3F09F080E0182FAD1709F4D0
:1033200047C02115310521F0CF3F21F4812F03C083
:1033300081E001C080E0B0E080FD37C0CD0166E0F3
:1033400070E00E94F531FC01E85AFE4F8181C813FC
:103350002CC08081481329C08281811126C08381BD
:1033600094818217930708F40197821B930B883C82
:103370009105D8F480918D018F70806180938D01CB
:10338000CD0166E070E00E94F531FC01E35AFE4F8A
:1033900080818F708061808388E891E00E943D1574
:1033A000DF91CF911F910C9442191196A770B6CF5F
:1033B000DF91CF911F910895BF92CF92DF92EF924C
:1033C000FF920F931F93CF93DF93CDB7DEB7619733
:1033D0000FB6F894DEBF0FBECDBF8C0185E0F801BB
:1033E000DE011D9601900D928A95E1F7D8014C916E
:1033F0001196AC91F801C280E380F480509188016D
:103400006091890120918B0130918C01211531054A
:1034100031F06F3F31F481E05F3F19F403C081E088
:1034200001C080E0F82FF170BF2E80FD6DC1D090FB
:103430008A01DD2009F4F4C070918D01E216F306D3
:1034400038F0C701821B930B883C910548F099C066
:10345000209530952E0D3F1D283C310508F091C078
:10346000872F807F09F054C06A1315C0541313C00E
:10347000DC2CC11010C07F70706170938D010E94B0
:10348000611988E891E00E943D1580918D01D80175
:1034900015968C936BC1EF2831F0AF3F31F481E08A
:1034A0004F3F19F403C081E001C080E080FD03C0FC
:1034B00081E08C2501C080E0B82FB170FB2E80FF29
:1034C0001DC020915601B09157012B1709F429C155
:1034D00030E0C90166E070E00E94F531FC01E85A75
:1034E000FE4F8181A81306C08081481303C08281EA
:1034F000C81204C02F5F3F4F2770E7CFDC2CCC20D1
:1035000009F434C180918D01816080938D0151C097
:103510006A1308C0541306C0C11004C0D801159620
:103520007C93ABC04D87AE878D859E850E94CD185C
:10353000882319F1DC2CCC2001F120918D01822F00
:1035400082958F7090E002970CF45FC080918801A3
:103550009091890198878F831986FB86EA862C874C
:10356000CE01079650C06A1731F14D87AE878D8521
:103570009E850E94CD1881112FC0C8010E943D1563
:10358000A5C0872F807F79F77E2DF98AE88A5A2F88
:103590006C2D89890E94EE1888E891E00E943D1503
:1035A000E8E8F1E086E0DF011D928A95E9F70E94E4
:1035B0006119D12CDBC05413D8CFC110D6CFF8017C
:1035C0007583C8010E943D15E8E8F1E086E0DF015F
:1035D0001D928A95E9F7CAC0DC2CCC2071F22091AB
:1035E0008D01822F82958F7090E0029774F0809108
:1035F0008801909189019A8389831B82FD82EC82E4
:103600002E83CE0101960E943D1586E0F801A8E8C0
:10361000B1E001900D928A95E1F70E946F1971C097
:10362000E216F30628F0F701E21BF30B9F0104C03A
:10363000209530952E0D3F1D283C310508F052C0D5
:10364000DC2CCC2009F499CF6A132CC054132AC067
:1036500080918D0180FD1DC0982F92959F70C9F0BB
:10366000D80115968C9315979F3039F09F5F9295EE
:10367000907F8F70892B15968C93C8010E943D1501
:1036800086E0F801A8E8B1E001900D928A95E1F793
:1036900038C086E0F801A8E8B1E001900D928A9563
:1036A000E1F764C04D87AE878D859E850E94CD1859
:1036B000882379F086E0F801A8E8B1E001900D9246
:1036C0008A95E1F70E946F190E946119DD24D39455
:1036D0004DC080918D01816080938D01C8010E9451
:1036E0003D1544C07E2DF98AE88A5A2F6C2D8989B0
:1036F0000E94EE18E8E8F1E086E0DF011D928A956D
:10370000E9F70E94611932C0CC2009F436CF4D8709
:10371000AE878D859E850E94CD18882309F42DCF14
:10372000C9CF4D87AE878D859E850E94251E292F86
:1037300022952F7030E0223031052CF49F7041F03B
:10374000811106C00CC0243031052CF49F7049F45F
:10375000805E883020F0C8010E943D15BF2CDB2C14
:1037600005C0F8019581907F99F7F9CF8D2D61966D
:103770000FB6F894DEBF0FBECDBFDF91CF911F9182
:103780000F91FF90EF90DF90CF90BF900895CF936F
:10379000DF93CDB7DEB72C970FB6F894DEBF0FBE20
:1037A000CDBF4F83588769877A878B879C87CE01E7
:1037B00007960E94DC198823C1F02F8138858A85FD
:1037C0009B85892B31F03F3F11F080E003C02F3FF4
:1037D000E1F781E081116FC04F81588569857A8555
:1037E0008B859C850E94FD1866C086E0FE01379699
:1037F000DE01119601900D928A95E1F7FF81E8852F
:103800004A855B854115510531F0EF3F31F481E088
:10381000FF3F19F403C081E001C080E080FD4BC090
:103820008091570190E09C012F5F3F4F2770332715
:103830006091560170E02617370709F443C0F983F9
:10384000EA835D834C8366E070E00E94F531DC0121
:10385000A85ABE4F86E0FE01319601900D928A95DE
:10386000E1F7209357010E94421925C090E066E0DD
:1038700070E00E94F531885A9E4F0E94DC1988231F
:1038800079F18091560190E066E070E00E94F53198
:10389000FC01E85AFE4F408151816281738184812D
:1038A00095810E94FD188091560190E001968770E5
:1038B0009927809356018091560190915701891361
:1038C000D5CF0EC00E94C918109257011092560110
:1038D000E8E8F1E086E0DF011D928A95E9F7EBCF99
:1038E0002C960FB6F894DEBF0FBECDBFDF91CF91FF
:1038F0000895EF92FF920F931F93CF93DF93FC01F4
:10390000009709F46DC0F12CEE24E394EF012196A9
:103910008491843740F4843008F053C0813081F0C2
:10392000823021F15DC0853709F445C0B0F19CE7D4
:10393000980F903708F054C08F770E94E01443C06E
:103940008F010E5F1F4FFE01849190E2980F983017
:1039500050F48770FE2D01C0FF0F8A95EAF78F2F74
:103960000E94B91E15C00E94181412C08F010E5F6C
:103970001F4FFE01849190E2980F983058F48770A1
:10398000FE2D01C0FF0F8A95EAF78F2F0E94BF1E00
:10399000E80119C00E94E014FBCFCF010296FE019E
:1039A000C491CC2361F0EFE9FFE03197F1F700C05B
:1039B0000000C150F6CFCF010296FE01F490EC0159
:1039C00002C00E9418148F2D882341F0EFE9FFE018
:1039D0003197F1F700C000008150F6CFFE0196CF7D
:1039E000DF91CF911F910F91FF90EF90089508956F
:1039F0006093920170939301809394019093950149
:103A00000C94B7180F931F9300919201109193019A
:103A10002091940130919501062B172B282B392BDF
:103A20000093920110939301209394013093950198
:103A30001F910F910C94B7180F931F93009192014F
:103A40001091930120919401309195010623172341
:103A5000282339230093920110939301209394011A
:103A6000309395011F910F910C94B7180F931F93EA
:103A70000091920110919301209194013091950150
:103A800006271727282739270093920110939301BF
:103A900020939401309395011F910F910C94B718C6
:103AA00010928E0110928F0110929001109291014C
:103AB0000C94B71841E050E060E070E004C0440F9F
:103AC000551F661F771F8A95D2F740938E0150933A
:103AD0008F0160939001709391010C94B71841E0AD
:103AE00050E060E070E004C0440F551F661F771F70
:103AF0008A95D2F780918E0190918F01A0919001CB
:103B0000B0919101842B952BA62BB72B80938E011E
:103B100090938F01A0939001B09391010C94B718EA
:103B200041E050E060E070E004C0440F551F661FA4
:103B3000771F8A95D2F74095509560957095809142
:103B40008E0190918F01A0919001B09191018423F9
:103B50009523A623B72380938E0190938F01A09382
:103B60009001B09391010C94B71841E050E060E0EF
:103B700070E004C0440F551F661F771F8A95D2F767
:103B800080918E0190918F01A0919001B09191014F
:103B900084279527A627B72780938E0190938F01BE
:103BA000A0939001B09391010C94B7180F931F93B9
:103BB00000918E0110918F0120919001309191011F
:103BC000062B172B282B392B00938E0110938F0176
:103BD00020939001309391011F910F910C94B7188D
:103BE0000F931F9300918E0110918F0120919001EE
:103BF00030919101062317232823392300938E0146
:103C000010938F0120939001309391011F910F9198
:103C10000C94B7180F931F9300918E0110918F0190
:103C200020919001309191010627172728273927E5
:103C300000938E0110938F01209390013093910196
:103C40001F910F910C94B7180895CF92DF92EF92C5
:103C5000FF920F931F93CF93DF93EC01C0909201DB
:103C6000D0909301E0909401F090950180918E01A5
:103C700090918F01A0919001B0919101C82AD92A09
:103C8000EA2AFB2A0FE110E0B701A601002E04C0CA
:103C900076956795579547950A94D2F740FF07C0E8
:103CA000BE01802F0E94AA1F8130910539F4015076
:103CB000110950F7BE0180E00E94AA1FDF91CF9149
:103CC0001F910F91FF90EF90DF90CF90089540915A
:103CD0000E0150910F0120E030E09FEFFA01E20F5A
:103CE000F31F6281681799F09F3F19F4611101C0B9
:103CF000922F2F5F3F4F2630310581F79F3F39F0DC
:103D0000FA01E90FF11D97FDFA9582830895089550
:103D100040910E0150910F0120E030E0FA01E20FD6
:103D2000F31F9281981301C012822F5F3F4F2630FC
:103D30003105A1F7089581E090E0E0910E01F09146
:103D40000F01E80FF91F1082019688309105A9F73D
:103D500008959091A001982B9093A00108958095CB
:103D60009091A00198239093A00108951092A00132
:103D7000089590919F01982B90939F0108958095AD
:103D800090919F01982390939F01089510929F0115
:103D90000895809396010895109296010895409198
:103DA0000E0150910F0120E030E080E0FA01E20FB7
:103DB000F31F918191118F5F2F5F3F4F27303105A6
:103DC000A9F70895E0910E01F0910F018091A001F3
:103DD0008083E0910E01F0910F01808190919F010D
:103DE000892B808390919601992361F0E0910E01D7
:103DF000F0910F018081892B80830E94CF1E811159
:103E00001092960180910E0190910F010C94E11295
:103E10008B3B60F4883A00F5853AA8F4843088F446
:103E2000813009F055C081E090E00895803E08F4AB
:103E30004FC0883E30F0803F08F44AC090E0906563
:103E4000089590E00895853A09F445C0863A09F04E
:103E500045C082E890E40895883A09F442C0893A5E
:103E600009F442C08A3A09F442C08B3A09F442C0CC
:103E70008C3A09F442C08D3A09F442C0803B09F4FF
:103E800042C08E3A09F442C08F3A09F442C0813BE5
:103E900009F442C0823B09F442C0833B09F442C0AA
:103EA000843B09F442C0853B09F442C0863B09F4D7
:103EB00042C0873B09F442C0883B09F442C0893BB9
:103EC00009F442C08A3B09F042C08AE296E40895B0
:103ED00080E090E0089581E890E4089583E890E41C
:103EE000089582EE94E4089589EE94E408958AEEAC
:103EF00094E4089585EB94E4089586EB94E40895A2
:103F000087EB94E408958CEC94E408958DEC94E4AC
:103F1000089583E895E408958AE895E4089582E990
:103F200095E4089584E995E4089581E296E408957E
:103F300083E296E4089584E296E4089585E296E4A7
:103F4000089586E296E4089587E296E4089580E075
:103F500094E408950E94B108803EA8F4803C00F5E6
:103F6000813309F45CC038F4893209F452C08A32D2
:103F700009F45BC05FC08933B1F08238A1F08533AA
:103F800009F441C057C0833E41F128F4803E99F0C6
:103F9000823EB9F04FC0863E31F1873E71F14AC092
:103FA0000E94B50808959091DA0190FD02C091FF3A
:103FB00041C080EE3FC08091DA0180FFFACF89E3F3
:103FC00039C08091DA0182FF0CC08091DA0184FF50
:103FD00002C080E02FC083EE2DC08091DA0182FF05
:103FE000F4CF82EE27C08091DA0183FF0AC080916E
:103FF000DA0184FDEECF87EE1DC08091DA0183FFE8
:10400000F6CF86EE17C08091DA0185FF06C089E2FF
:1040100011C08091DA0185FFFACF85E30BC0809152
:10402000DA0186FF06C08AE205C08091DA0186FFC8
:10403000FACF81E30E94081F089580E090E0089580
:104040009093A4018093A3010895CF92DF92EF9201
:10405000FF920F931F936C01EE24FF24C114D1042F
:10406000E104F10421F46B017C0180E001C080E1F6
:1040700033272F2D1E2D0D2D01151105210531057D
:1040800019F0885F6801790197018601A4E03695EF
:10409000279517950795AA95D1F7011511052105C3
:1040A000310519F08C5F6801790197018601F2E012
:1040B0003695279517950795FA95D1F701151105AE
:1040C0002105310519F08E5F68017901B701A6015C
:1040D0007695679557954795452B462B472B09F0C5
:1040E0008F5F1F910F91FF90EF90DF90CF90089519
:1040F0008295282F2C7C26952695982F9373990FBF
:10410000990F922B892F8A7A86959575990F892B0D
:1041100008951F93CF93DF931F92CDB7DEB7998396
:104120000E947820182F9981892F0E947820212FB2
:1041300030E0322F2227A901482BCA010F90DF91CE
:10414000CF911F9108958091E001843019F1109270
:10415000A20120E488E190E00FB6F894A89580933E
:1041600060000FBE209360000E94152D83B7817FF1
:10417000846083BF83B7816083BF7894889583B759
:104180008E7F83BF88E10FB6F89480936000109211
:1041900060000FBE08950E9494080E94CC080E94FF
:1041A000950880E00E94140991E0811101C090E01F
:1041B000892F08951F920F920FB60F9211248F939B
:1041C0009F93AF93BF938091A201811113C08091FF
:1041D000A5019091A601A091A701B091A8014196D7
:1041E000A11DB11D8093A5019093A601A093A701E5
:1041F000B093A801BF91AF919F918F910F900FBE87
:104200000F901F90189582E084BD93E095BD9AEFC2
:1042100097BD80936E0008952FB7F8948091A50103
:104220009091A601A091A701B091A8012FBF089578
:10423000CF92DF92EF92FF920F931F932FB7F894D4
:104240004091A5015091A6016091A7017091A8012C
:104250002FBF6A017B01EE24FF248C0120E030E0B7
:10426000C016D106E206F30610F441505109481B6E
:10427000590BCA011F910F91FF90EF90DF90CF90E3
:1042800008951F920F920FB60F9211248F939F9350
:10429000AF93BF938091A5019091A601A091A70132
:1042A000B091A8010196A11DB11D8093A501909325
:1042B000A601A093A701B093A801BF91AF919F91D0
:1042C0008F910F900FBE0F901F9018950E94301085
:1042D000F8942FEF87EA91E6215080409040E1F773
:1042E00000C0000087E090EBDC018093EA0190932E
:1042F000EB01A093EC01B093ED012CE088E190E09C
:104300000FB6F894A895809360000FBE20936000CC
:10431000FFCFFF920F931F93CF93DF93F82E80E090
:104320000E941409C0E0D0E0082F10E098010C2E84
:1043300002C0359527950A94E2F720FD06C0219624
:10434000C530D10599F780E008C06C2F70E080E09F
:104350000E94B108F812F3CF81E0DF91CF911F9155
:104360000F91FF900895CF93C82F8CE20E9489216E
:10437000882321F08C2FCF910C94892180E0CF915C
:104380000895CF930E941723811102C00E94F22248
:1043900086E193E00E94F207C5E6C15049F00E9411
:1043A000CC088FE39CE90197F1F700C00000F5CF3E
:1043B0008FE093E00E94F20789E20E94B32181110D
:1043C0000FC18AE20E94B321882331F00E94112399
:1043D0000E94F2220E944C3085E00E94B32181119C
:1043E0000E9466210E9422238093A10187E00E94FF
:1043F000B321882399F18BE10E94B321882351F0E6
:104400009091A10191FB882780F921E0822780FB10
:1044100091F922C08EE00E94B321882351F090913F
:10442000A10192FB882780F921E0822780FB92F985
:1044300013C080E10E94B3219091A101882341F033
:1044400093FB882780F921E0822780FB93F904C041
:10445000892F809580FB90F99093A1018091A10113
:104460000E9426230E9434238093DA0180EE0E946A
:10447000B321882341F08091DA01982F909590FB29
:1044800080F98093DA0189E30E94B321882359F0EF
:104490009091DA0191FB882780F921E0822780FB47
:1044A00091F99093DA0182EE0E94B321882359F0AA
:1044B0009091DA0192FB882780F921E0822780FB26
:1044C00092F99093DA0186EE0E94B321882359F085
:1044D0009091DA0193FB882780F921E0822780FB05
:1044E00093F99093DA0183EE0E94B321882359F067
:1044F0009091DA0194FB882780F921E0822780FBE4
:1045000094F99093DA0185E30E94B321882359F04E
:104510009091DA0195FB882780F921E0822780FBC2
:1045200095F99093DA0181E30E94B321882359F031
:104530009091DA0196FB882780F921E0822780FBA1
:1045400096F99093DA0181E10E94B321882359F012
:104550009091DA0197FB882780F921E0822780FB80
:1045600097F99093DA018091DA010E94382387E26B
:104570000E94B321C82F8EE10E94B3218111C26035
:104580008FE10E94B3218111C46080E20E94B321B7
:104590008111C86081E20E94B3218111C06182E271
:1045A0000E94B3218111C06283E20E94B321811174
:1045B000C06484E20E94B321882311F0C06802C065
:1045C000CC2329F08C2F0E942F236C2F03C00E9434
:1045D0002B23682F70E080E090E0CF910C94F81CC2
:1045E000CF9108956DEE7EEF80E090E00E94503212
:1045F00060E082E090E00E94423260E083E090E080
:104600000E94423260E084E090E00E94423260E02A
:1046100085E090E00E94423260E086E090E00C94F9
:1046200042326FEF7FEF80E090E00C94503280E0F8
:1046300090E00E943C3221E08D3E9E4F09F020E048
:10464000822F089582E090E00C943432682F82E04B
:1046500090E00C94423283E090E00C943432682F66
:1046600083E090E00C94423284E090E00C94343289
:10467000682F84E090E00C94423286E090E00C9445
:104680003432682F86E090E00C9442328091AB0186
:1046900080FF0CC08091130190E065E070E00E9403
:1046A000F53195958795959587952EC081FF0AC020
:1046B0008091130190E065E070E00E94F5319595DE
:1046C000879522C082FF08C08091130190E065E0C9
:1046D00070E00E94F53118C02091AC012223D1F086
:1046E00030911201231780F78091130190E065E06B
:1046F00070E00E94F531622F70E00E94F531632F67
:1047000070E00E941A32CB018038910530F4009796
:1047100031F0089585E090E008958FE7089581E0F5
:1047200008958091AB0180FF08C06091110170E095
:10473000759567957595679524C081FF06C0609152
:10474000110170E0759567951CC082FF04C06091EF
:10475000110170E013C09091AC019923D9F0209120
:1047600010019217A0F780911101692F70E090E07D
:104770000E94F531622F70E00E941A326038710594
:1047800028F46115710521F0862F08958FE70895AB
:1047900081E0089561E070E0F4CF803F21F40E9451
:1047A0004623819504C0813F29F40E9446238093CB
:1047B000AF010895823F21F40E944623819504C0F1
:1047C000833F29F40E9446238093AE010895893FD8
:1047D00019F40E94912305C08A3F31F40E9491236D
:1047E00081958093B00108958B3F21F40E9491231D
:1047F000819504C08C3F29F40E9491238093B101DC
:104800000895843F21F48091AD01816017C0853FF8
:1048100021F48091AD01826011C0863F21F4809126
:10482000AD0184600BC0873F21F48091AD018860A9
:1048300005C0883F31F48091AD0180618093AD0166
:1048400008958D3F21F48091AB0181600BC08E3FB4
:1048500021F48091AB01826005C08F3F29F48091E3
:10486000AB0184608093AB010895803F39F480915F
:10487000AF0187FF6CC01092AF0169C0813F29F47E
:104880008091AF011816BCF362C09091AE01823FD7
:1048900029F497FF5CC01092AE0159C0833F19F410
:1048A0001916CCF354C0893F41F48091B001181619
:1048B0000CF04DC01092B0014AC08A3F29F480919B
:1048C000B00187FF44C0F6CF8B3F39F48091B1012E
:1048D00087FF3DC01092B1013AC08C3F29F480910E
:1048E000B1011816BCF333C0843F21F48091AD01AF
:1048F0008E7F17C0853F21F48091AD018D7F11C05F
:10490000863F21F48091AD018B7F0BC0873F21F45E
:104910008091AD01877F05C0883F31F48091AD0162
:104920008F7E8093AD0113C08D3F21F48091AB0148
:104930008E7F0BC08E3F21F48091AB018D7F05C02F
:104940008F3F29F48091AB018B7F8093AB018091E5
:10495000AE0181110EC08091AF0181110AC080911A
:10496000B001811106C08091B101811102C0109285
:10497000AC0108958091A10183FF7EC082E593E0A0
:104980000E94F2078091AD011F928F938DE493E016
:104990009F938F930E948B088BE493E00E94F20711
:1049A0002091AE01822F992787FD90959F932F9399
:1049B00088E493E09F938F930E948B0886E493E0B2
:1049C0000E94F2072091AF01822F992787FD9095D1
:1049D0009F932F9383E493E09F938F930E948B0880
:1049E00081E493E00E94F2072091B001822F992781
:1049F00087FD90959F932F938EE393E09F938F93E2
:104A00000E948B088CE393E00E94F2072091B10191
:104A1000822F992787FD90959F932F9389E393E0A9
:104A20009F938F930E948B0886E393E00E94F20786
:104A30008091AC011F928F9383E393E09F938F93B8
:104A40000E948B0881E393E00E94F2078091AB0102
:104A50001F928F938EE293E09F938F930E948B0817
:104A60008BE293E00E94F2078DB79EB74C960FB68B
:104A7000F8949EBF0FBE8DBF8DEA91E00E94261371
:104A80000E940C219093AA018093A90108951F937D
:104A9000CF93DF938091A9019091AA010E941821E0
:104AA0009C014091AC01442321F08091140190E0DD
:104AB00007C08091150190E06AE070E00E94F53136
:104AC0002817390708F482C08091AE011091AF0118
:104AD000D091B001C091B101811107C0111105C081
:104AE000D11103C0CC2309F471C04F3F19F04F5FBF
:104AF0004093AC01181624F40E9446238093AE0123
:104B00008091AE0187FF05C00E9446238195809366
:104B1000AE01111624F40E9446238093AF018091C8
:104B2000AF0187FF05C00E94462381958093AF01A6
:104B30006091AE01662339F11091AF01112319F193
:104B4000772767FD7095872F972F0E94FE3023E30C
:104B500033E343E35FE30E9462310E94CB30609312
:104B6000AE01612F772767FD7095872F972F0E94E1
:104B7000FE3023E333E343E35FE30E9462310E94AC
:104B8000CB306093AF011D1624F40E9491238093D3
:104B9000B0018091B00187FF05C00E9491238195EB
:104BA0008093B0011C1624F40E9491238093B101DC
:104BB0008091B10187FF05C00E9491238195809368
:104BC000B101DF91CF911F910C94BA24DF91CF9165
:104BD0001F910895EDEAF1E085E0DF011D928A95CD
:104BE000E9F71092AC011092AB01089581E298E0D0
:104BF0000E94F20784E198E00E94F20787E098E0C3
:104C00000C94F20784E897E00E94F20787E797E0A8
:104C10000E94F2078CE597E00E94F20781E497E09A
:104C20000E94F20789E297E00E94F2078FE097E086
:104C30000E94F20781EF96E00E94F20781ED96E074
:104C40000E94F2078CEB96E00E94F20785EA96E05C
:104C50000E94F20788E896E00E94F20789E696E053
:104C60000E94F20789E496E00E94F20787E296E04C
:104C70000E94F20782EF95E00E94F2078DED95E029
:104C80000E94F2071F9285E08F938AED95E09F9333
:104C90008F930E948B0881ED95E00E94F2071F928E
:104CA00081E08F938EEC95E09F938F930E948B0809
:104CB0008CEC95E00E94F2078DB79EB708960FB670
:104CC000F8949EBF0FBE8DBF8FE995E00C94F2075C
:104CD000833009F459C028F4813061F0823079F1D1
:104CE0000895853009F49AC008F473C0863009F439
:104CF000BAC0089520911501862F90E0820F911D72
:104D00008F3F910520F4620F6093150103C08FEF70
:104D1000809315018BE794E00E94F20780911501C2
:104D20001F928F9388E794E09F938F930E948B0844
:104D30000F900F900F900F9086E794E0B8C02091ED
:104D40001401862F90E0820F911D8F3F910520F472
:104D5000620F6093140103C08FEF8093140187E604
:104D600094E00E94F207809114011F928F9384E6D1
:104D700094E09F938F930E948B080F900F900F9059
:104D80000F9082E694E093C020911301862F90E06B
:104D9000820F911D8F3F910520F4620F60931301E4
:104DA00003C08FEF8093130182E594E00E94F20725
:104DB000809113011F928F938FE494E09F938F93C0
:104DC0000E948B080F900F900F900F908DE494E04D
:104DD0006EC020911201862F90E0820F911D8F3FAF
:104DE000910520F4620F6093120103C08FEF80934E
:104DF00012018BE394E00E94F207809112011F924E
:104E00008F9388E394E09F938F930E948B080F9079
:104E10000F900F900F9086E394E049C0209111010C
:104E2000862F90E0820F911D8F3F910520F4620F35
:104E30006093110103C08FEF8093110180E294E031
:104E40000E94F207809111011F928F938DE194E0EF
:104E50009F938F930E948B080F900F900F900F904D
:104E60008BE194E024C020911001862F90E0820F06
:104E7000911D8F3F910520F4620F6093100103C0D4
:104E80008FEF8093100183E094E00E94F2078091FD
:104E900010011F928F9380E094E09F938F930E9464
:104EA0008B080F900F900F900F908EEF93E00C9463
:104EB000F207833009F44DC028F4813061F082306C
:104EC00049F10895853009F482C008F461C0863044
:104ED00009F49CC0089580911501681720F4861B81
:104EE0008093150102C01092150182EF93E00E9499
:104EF000F207809115011F928F938FEE93E09F939D
:104F00008F930E948B080F900F900F900F908DEE53
:104F100093E09AC080911401681720F4861B809357
:104F2000140102C0109214018EED93E00E94F2076A
:104F3000809114011F928F938BED93E09F938F9339
:104F40000E948B080F900F900F900F9089ED93E0C7
:104F50007BC080911301681720F4861B8093130196
:104F600002C01092130189EC93E00E94F207809135
:104F700013011F928F9386EC93E09F938F930E946F
:104F80008B080F900F900F900F9084EC93E05CC013
:104F900080911201681720F4861B8093120102C0D1
:104FA0001092120182EB93E00E94F20780911201AD
:104FB0001F928F938FEA93E09F938F930E948B08A9
:104FC0000F900F900F900F908DEA93E03DC080916D
:104FD0001101681720F4861B8093110102C0109202
:104FE000110187E993E00E94F207809111011F925D
:104FF0008F9384E993E09F938F930E948B080F9087
:105000000F900F900F9082E993E01EC080911001E5
:10501000681720F4861B8093100102C010921001C3
:105020008AE793E00E94F207809110011F928F930C
:1050300087E793E09F938F930E948B080F900F90C8
:105040000F900F9085E793E00C94F207CF93C82F51
:1050500080EF97E00E94F2076091920170919301B6
:1050600080919401909195010E9425201F928F9329
:105070002DEE37E03F932F930E948B0888EE97E048
:105080000E94F2071F92CF9325EE37E03F932F93B4
:105090000E948B0883EE97E00E94F20761E070E0C7
:1050A00080E090E004C0660F771F881F991FCA95A3
:1050B000D2F70E94F81C8DB79EB708960FB6F894E9
:1050C0009EBF0FBE8DBFCF910C94C918CF9387326E
:1050D00008F065C08E3108F00AC38E3009F48DC225
:1050E00010F5873009F45DC2B8F4863009F005C3C5
:1050F0008091A101817F8E7F8093A1010E94F6257E
:1051000081E39EE00E94F2078DE29EE00E94F2079A
:1051100081E08093B201FCC1883009F46FC08B300C
:1051200009F4F8C1EAC2873109F4ABC288F58031CD
:1051300009F476C2863109F0E0C28FEC9BE00E9450
:10514000F2070E94D5121F928F9385EB9BE09F93ED
:105150008F930E948B0880910D011F928F938EE98F
:105160009BE09F938F930E948B08809143011F9235
:105170008F938BE89BE09F938F930E948B088DB752
:105180009EB70C960FB6F8949EBF0FBE8DBFC0C1E0
:10519000893109F45FC28B3109F41CC2AEC2893374
:1051A00009F499C178F4893209F49FC220F4873256
:1051B00009F49BC2A2C2853309F497C2883309F46B
:1051C000A9C19BC2863409F475C208F492C288341E
:1051D00009F093C20E94C91884E19EE00E94F20780
:1051E0009FEF23ED80E3915020408040E1F700C025
:1051F00000000E94662184E09EE088C18AE59EE06E
:105200000E94F20789E79BE00E94F2070E942B238D
:105210001F928F9386E79BE09F938F930E948B084A
:1052200084E79BE00E94F2070E942223C82F81E6B8
:105230009BE00E94F2071F92CF932CE53BE03F9347
:105240002F930E948B088AE59BE00E94F20780E57D
:105250009BE00E94F2078C2F81701F928F932DE4A8
:105260003BE03F932F930E948B088BE49BE00E94CE
:10527000F20781E49BE00E94F207C1FB882780F9D6
:105280001F928F932EE33BE03F932F930E948B0856
:105290008CE39BE00E94F20780E39BE00E94F20710
:1052A000C2FB882780F91F928F932DE23BE03F934A
:1052B0002F930E948B088BE29BE00E94F20782E210
:1052C0009BE00E94F207C3FBCC27C0F91F92CF934B
:1052D0008FE19BE09F938F930E948B088DE19BE071
:1052E0000E94F2070E943423C82F89E09BE00E94AD
:1052F000F2071F92CF9324E03BE03F932F930E944D
:105300008B0882E09BE00E94F20789EE9AE00E94FF
:10531000F2078C2F81701F928F9326EE3AE03F9315
:105320002F930E948B088DB79EB780960FB6F89486
:105330009EBF0FBE8DBF84EE9AE00E94F2078DECF7
:105340009AE00E94F207C1FB882780F91F928F9391
:105350002AEC3AE03F932F930E948B0888EC9AE066
:105360000E94F20786EB9AE00E94F207C2FB8827B0
:1053700080F91F928F9323EB3AE03F932F930E9483
:105380008B0881EB9AE00E94F2078FE99AE00E9475
:10539000F207C3FB882780F91F928F932CE93AE02C
:1053A0003F932F930E948B088AE99AE00E94F207AC
:1053B00080E99AE00E94F207C4FB882780F91F92D7
:1053C0008F932DE83AE03F932F930E948B088BE850
:1053D0009AE00E94F20789E79AE00E94F207C5FB73
:1053E000882780F91F928F9326E73AE03F932F9307
:1053F0000E948B0884E79AE00E94F20788E59AE011
:105400000E94F207C6FB882780F91F928F9325E53B
:105410003AE03F932F930E948B0883E59AE00E9425
:10542000F2078BE49AE00E94F207C7FBCC27C0F991
:105430001F92CF9388E49AE09F938F930E948B08EA
:1054400086E49AE00E94F2070E943D23C82F8FE273
:105450009AE00E94F2071F92CF932AE23AE03F932C
:105460002F930E948B088DB79EB780960FB6F89445
:105470009EBF0FBE8DBF88E29AE00E94F2078EE1C8
:105480009AE00E94F2078C2F81701F928F932BE17C
:105490003AE03F932F930E948B0889E19AE00E94A3
:1054A000F20780E19AE00E94F207C6951F92CF931F
:1054B0008DE09AE09F938F930E948B088BE09AE097
:1054C0000E94F2078DB79EB708960FB6F8949EBF5C
:1054D0000FBE8DBF1DC00E94D012892B79F00E9493
:1054E000D0129093B4018093B3010E94C91880E058
:1054F00090E00E94CB1281E59EE008C08091B3014C
:105500009091B4010E94CB1286E49EE00E94F207C3
:10551000C1E0F8C08FEE99E00E94F20788ED99E0B3
:105520000E94F20780EC99E00E94F20788EA99E075
:105530000E94F2078EE899E00E94F20787E799E05F
:105540000E94F20787E599E00E94F20781E499E062
:105550000E94F20780E399E00E94F20788E199E057
:105560000E94F2078EEF98E00E94F20785EE98E025
:105570000E94F2078CEC98E00E94F20783EB98E01F
:105580000E94F2078AE998E00E94F20789E798E012
:105590000E94F20787E598E00E94F2078DE398E009
:1055A000B5CF8091A101C82FC17080FF09C081EFE4
:1055B0009DE00E94F2078091A101817F8E7F44C00F
:1055C0008FED9DE00E94F2078091A10181608093A0
:1055D000A1019ECF8091A10181FBCC27C0F991E070
:1055E000C927C0FB81F98093A101CC2319F086EC77
:1055F0009DE025C08CEA9DE089CF8091A10182FBCE
:10560000CC27C0F991E0C927C0FB82F98093A101A2
:10561000CC2319F081E99DE012C085E79DE076CFAB
:105620008091A10183FBCC27C0F991E0C927C0FB81
:1056300083F98093A101CC2351F08DE59DE00E9478
:10564000F2078091A10181608093A1015BC084E495
:105650009DE05CCF8DE29DE00E94F20782E09DE03C
:105660000E94F2078AEC9CE00E94F2078DE99CE020
:105670000E94F20788E29CE00E94F20789EF9BE01B
:1056800045CF8091A5019091A601A091A701B0916D
:10569000A801BF93AF939F938F9385EE9BE09F9359
:1056A0008F930E948B080F900F900F900F900F9088
:1056B0000F902ECF81E890E00E9431139FEF21EEF2
:1056C00084E0915020408040E1F700C0000080E07D
:1056D00090E00E9431139FEF29E688E1915020402D
:1056E0008040E1F700C0000013CF80E003C08D517F
:1056F00001C089530E9426280BCF89E89BE00E94B5
:10570000F207C0E08C2FCF91089580E0089580E0EB
:105710000895CF93C82F8091B201813071F020F0AD
:10572000823009F44EC05DC1A0910E01B0910F010D
:105730008C91823209F057C107C0A0910E01B0913F
:105740000F018C91823249F48C2F0E94852B81119C
:1057500035C08C2F0E94662832C08C2F0E94872B68
:1057600081112CC0C431F1F090F4CB30A1F0C031E4
:1057700001F50E94022682EB97E00E94F2078EEA72
:1057800097E00E94F20782E08093B20117C0C9320D
:1057900049F0C83371F40E94F6258FED97E00E941E
:1057A000F2070CC08BEC97E00E94F2071092B20156
:1057B0001CC18CEA97E00E94F20717C181E081705A
:1057C00016C1C83228F5CE3108F0C0C0CB30A1F1E7
:1057D000D0F4C73009F0E8C08EE18093150182E370
:1057E000809314018AE08093130184E18093120175
:1057F00088E08093110188E28093100184E595E0B0
:105800000E94F207D6C0C33141F1C431C1F0CCC00F
:10581000CB3409F4BEC028F4C93289F0C83361F032
:10582000C3C0C13509F4B3C0C23509F4AEC0CE342B
:1058300009F0BAC06AE0B3C00E940226BAC0109252
:10584000B50187E895E00E94F20783E895E00E94A1
:10585000F20781E08093B201CAC087E295E00E941E
:10586000F20782E195E00E94F207809115011F92F4
:105870008F938FE095E09F938F930E948B088DE02C
:1058800095E00E94F20788EF94E00E94F207809171
:1058900014011F928F9385EF94E09F938F930E9442
:1058A0008B0883EF94E00E94F20781EE94E00E945F
:1058B000F207809113011F928F938EED94E09F93D6
:1058C0008F930E948B088CED94E00E94F20788EC85
:1058D00094E00E94F207809112011F928F9385EC51
:1058E00094E09F938F930E948B0883EC94E00E9436
:1058F000F2078BEA94E00E94F207809111011F9257
:105900008F9388EA94E09F938F930E948B0886EA96
:1059100094E00E94F2078CE894E00E94F2078091E4
:1059200010011F928F9389E894E09F938F930E94B8
:105930008B0887E894E00E94F2078DB79EB74896DF
:105940000FB6F8949EBF0FBE8DBF33C0CE51EC2F63
:10595000F0E0E65DFE4F80818093B5018EE695E034
:105960000E94F2078091B5011F928F938BE695E01C
:105970009F938F930E948B0889E695E00E94F2071F
:105980000F900F900F900F9014C061E003C061E082
:1059900006C06AE08091B5010E9468260AC0809125
:1059A000B5010E94592705C082E595E00E94F207E3
:1059B00016C080E595E00E94F2078091B5011F9224
:1059C0008F938DE495E09F938F930E948B088AE4D8
:1059D00095E00E94F2070F900F900F900F9081E0DA
:1059E00006C01092B20180E002C080E0E8CECF9104
:1059F0000895E1E8F0E080818860808380818160A3
:105A000080838FB7F89493E09093890090ED909302
:105A100088008FBF0C948309EFE6F0E080818260FC
:105A2000808381E08093D9010895CF9380916F00A6
:105A30008D7F80936F001092D901C0E08C2F0E945F
:105A4000A209CF5FC630D1F7CF9108958093CD01E1
:105A50008093CE018093CF018093D0018093D101B8
:105A60008093D2010895E82FF0E0E353FE4F408188
:105A7000242F30E08FEF90E0861B91098217930767
:105A80001CF48FEF80830895640F60830895E82FDE
:105A9000F0E0E353FE4F8081861710F410820895E2
:105AA000861B808308958091CC018F638093CC0105
:105AB00008951092CC0108959091CB0121E030E03F
:105AC000082E01C0220F0A94EAF7662311F0292B51
:105AD00002C0209529232093CB010895CF93DF9313
