:100000000C94A8010C94EC010C94EC010C94EC0100
:100010000C94EC010C94EC010C94EC010C94EC01AC
:100020000C94EC010C94EC010C94EC010C94E90997
:100030000C94950A0C946B1D0C94EC010C943B24CD
:100040000C94EC010C94EC010C94EC010C94F31C5A
:100050000C94EC010C94EC010C94EC010C947A0FD0
:100060000C94EC010C94EC010C94EC010C94EC015C
:100070000C94EC01F105FE05060610061B0623068E
:100080002F062F063606030C250C110D250C110D1D
:10009000670C8B0C110DE00CF30C2912291257126E
:1000A0005712BA12F6123C153C150E133C150514E6
:1000B0000514A214B6143C152A151D1B290000F4C2
:1000C000F5290000504F29000052512900004B4EE5
:1000D0002900002C292900000B024B029302BA02CE
:1000E00010037003DC031704970427057505200629
:1000F000E006B8072D081803540065006E00740070
:1001000061005000610064002000460058000000BB
:10011000120333006200650065006C0069006E0028
:10012000650000000403090409025400030100A053
:10013000320904000001030101000921110100013D
:10014000223F000705810308000A0904010001039A
:10015000010200092111010001224D00070582035F
:1001600008000A090402000103000000092111012E
:1001700000012236000705830308000A120110015E
:1001800000000008C016DB2715110102000105015F
:100190000980A101850216010026B7001A01002A74
:1001A000B700751095018100C0050C0901A10185FA
:1001B00003160100269C021A01002A9C0275109564
:1001C000018100C005010902A1010901A100050981
:1001D0001901290515002501950575018102950173
:1001E000750381010501093009311581257F9502CB
:1001F0007508810609381581257F950175088106E6
:10020000050C0A38021581257F950175088106C005
:10021000C005010906A101050719E029E715002518
:10022000019508750181029501750881010508197C
:100230000129059505750191029501750391010547
:1002400007190029FF150025FF950675088100C0D4
:100250002575642000505332205553415254206577
:1002600072726F723A202530325820646174613A9C
:1002700020253032580A006B6579626F6172645FC5
:1002800069646C653A2025580A006B6579626F6174
:1002900072645F70726F746F636F6C3A2025580AD6
:1002A00000686F73745F6B6579626F6172645F6C15
:1002B00065647328293A2025580A0074696D6572AF
:1002C0005F636F756E743A202530346C580A0000F5
:1002D0000000000000000000000101010202020312
:1002E00003040405050606070808090A0B0B0C0D94
:1002F0000E0F10111213151617191A1B1D1E20228E
:10030000232527292B2D2F313335383A3D3F4244C1
:10031000474A4D505356595C5F6266696C707477FA
:100320007B7E82868A8E9195999DA1A5A9ADB0B458
:10033000B8BCC0C3C7CBCED2D5D8DBDFE2E4E7EA96
:10034000ECEFF1F3F5F7F8FAFBFCFDFEFFFFFF0021
:1003500011241FBECFEFD4E0DEBFCDBF04B603FE35
:1003600024C08091AD029091AE02A091AF02B091F5
:10037000B0028730904BA740B04BB9F41092AD0259
:100380001092AE021092AF021092B00214BE84B767
:10039000877F84BF88E10FB6F89480936000109245
:1003A00060000FBEE0E0F8E3099511E0A0E0B1E0E5
:1003B000ECE1F2E502C005900D92A033B107D9F748
:1003C00022E0A0E3B1E001C01D92AD3AB207E1F72F
:1003D0000E9455080C940C290C940000FF93EF9395
:1003E000E0917702F0917802309709F00995EF914A
:1003F000FF910895FC018591803011F0EFDFFBCF74
:100400000895FF27E0E230E247FF0CC0419597FFD7
:1004100009C0EDE26095709580959095611D711D04
:10042000811D911D27FF02C0219530E350E2AA27CC
:10043000660F771F881F991FAA1FA41710F0A41B0F
:1004400063955A95A9F7AA3008F0A95FA05DAF930C
:10045000F395611571058105910541F7ED3211F4B0
:10046000EF93F395F21718F43F93F395FBCF8F9129
:10047000B5DFFA95E1F70895E991F991859180301A
:1004800021F0853219F0AADFF9CF089520E0E89431
:1004900055915532C1F3503311F4689455915A3344
:1004A00048F4505390F3220F022E220F220F200DFA
:1004B000250FF4CF0EF4219589919991533619F3B4
:1004C000533729F1533559F1BC0188279927E8940E
:1004D0005C3621F48991999168945591543639F498
:1004E00046EF7EF077FF0DC08FEF9FEF0AC05537C4
:1004F0004AE039F0583540E121F0523642E009F047
:100500000895FF93EF937DDFEF91FF91B7CFFF93B6
:10051000EF93FC0181918030B9F360DFFBCFFF9353
:10052000EF9368DFF1CFDF93CF93CDB7DEB725969A
:10053000A3DFCF91DF9108958EE190E0089580E0F0
:1005400090E00895EF92FF920F931F93CF93DF9364
:1005500000E311E0F12CC0E0D0E0E12C4C2F60E092
:100560008F2D0E94F625F801EC0FFD1F808382304D
:1005700008F0E3942196C530D10581F7E110F0929F
:100580000001F3940B5F1F4F80E2F812E4CFDF917C
:10059000CF911F910F91FF90EF90089580910001EE
:1005A0000895462F272F30E0B901680F711DCB0148
:1005B00065E070E00E94D627840F911D805D9E4FFC
:1005C000FC0180810895805C0E94EA2508958AEBF1
:1005D00090E008958AEB90E0089581E08093D00147
:1005E0001092D2011092D10180919E028093D3018A
:1005F00088E00E9492256091D4016295660F607E2A
:10060000605E80E00E94E5236091D3016295660FF1
:10061000607E605E81E00E94E523E8EDF0E0859178
:10062000949162E370E00E948606ECEDF0E0859123
:10063000949162E370E00E948606E0EEF0E085911E
:10064000949162E370E00E948606E6EEF0E0859108
:10065000949162E370E00C948606CF92DF92EF9261
:10066000FF921092D0018091D3010E949225809137
:10067000D2018823F1F0C12CD12C7601C394C7019B
:10068000B6010090D40104C0660F771F881F991F20
:100690000A94D2F70E948C19D701C6010090D401A8
:1006A00004C0880F991FAA1FBB1F0A94D2F70E948B
:1006B000131FE6EEF0E08591949162E370E00E94F2
:1006C0008606E0EEF0E08591949162E370E00E948E
:1006D0008606ECEDF0E08591949162E370E00E9473
:1006E0008606E8EDF0E08591949162E370E0FF907A
:1006F000EF90DF90CF900C9486061F93CF93DF93FB
:10070000182F883008F017E0C12FD0E0612F6295D4
:10071000660F607E615E80E00E94E523CC0FDD1FE6
:10072000C852DF4FFE018591949162E370E00E9410
:100730008606111110C08FE39CE90197F1F700C004
:100740000000FE018591949162E370E0DF91CF910A
:100750001F910C948606DF91CF911F910895CF933E
:10076000DF938091D201811106C01092D40181E003
:100770008093D2010FC0C091D401D0E021960E9495
:10078000CE02682F70E06F5F7F4FCE010E94E72797
:100790008093D4018091D401DF91CF910C947D039B
:1007A0001F93CF93DF93182FC82FD0E0682F629547
:1007B000660F607E615E81E00E94E523CC0FDD1F45
:1007C000CA51DF4FFE018591949162E370E00E946F
:1007D0008606111110C08FE39CE90197F1F700C064
:1007E0000000FE018591949162E370E0DF91CF916A
:1007F0001F910C948606DF91CF911F9108958091EF
:10080000D101811106C01092D30181E08093D10102
:1008100008C08091D30190E001968770992780935A
:10082000D3018091D3010C94D0031F93CF93DF9316
:1008300000D000D01F92CDB7DEB7142F8091D00129
:10084000882369F1413089F018F04430D9F0B4C000
:10085000662309F4B1C00F900F900F900F900F9086
:10086000DF91CF911F910C94AF03662309F4A4C0CC
:100870000F900F900F900F900F90DF91CF911F91DD
:100880000C94FF03662309F497C00F900F900F900C
:100890000F900F90DF91CF911F910C942D03423058
:1008A00009F447C038F0433009F45CC0443009F41F
:1008B00077C082C080919E026623E1F0833018F4F5
:1008C000813030F010C0863090F0863009F074C06E
:1008D000812F0F900F900F900F900F90DF91CF917D
:1008E0001F910C94C60560E28F5F0E94F423609113
:1008F000140114C0863018F4813020F00EC0863008
:1009000009F05AC0812F0F900F900F900F900F9009
:10091000DF91CF911F910C94420660E0812F0F90E0
:100920000F900F900F900F90DF91CF911F910C942B
:10093000E523662309F440C080E290E00E946F0640
:1009400080919E029FEF980F9230B0F560E28F5F2A
:100950000F900F900F900F900F90DF91CF911F91FC
:100960000C94F42380919E02823089F018F4813037
:1009700029F022C0843059F08530F1F4662319F053
:100980006091140102C06091150183E0C8CF662315
:1009900019F06091140102C06091150182E0BFCF8F
:1009A000662351F00F900F900F900F900F90DF91F2
:1009B000CF911F910C94ED020F900F900F900F901C
:1009C0000F90DF91CF911F91089581E0089585E008
:1009D000089553985B9A80EA8A95F1F74B9B03C080
:1009E00010929D0203C081E080939D025B980E945B
:1009F000A2020E9452060E94830684B1807E84B9BE
:100A000085B18F6185B9259A2D9A0895AF92BF92CD
:100A1000CF92DF92EF92FF920F931F93CF93DF93CA
:100A2000B3B0B0942B2D2F71B22E05ED11E0C0E0C4
:100A3000D0E0EE24E394F12CC22ED12CAC2E809188
:100A4000DF0190E00C2E02C0959587950A94E2F79D
:100A500080FF22C0F801808191810E94CA1C069704
:100A6000D8F097010C2E01C0220F0A94EAF7922FBA
:100A700090958091DF0189238093DF0196010C2EF0
:100A800002C0359527950A94E2F720FD05C08091B4
:100A9000E10189238093E1018091E0018B2590E0C1
:100AA0000A2C02C0959587950A94E2F780FF30C022
:100AB0008091DF0190E00A2C02C0959587950A94F9
:100AC000E2F780FD15C096010A2C02C035952795E6
:100AD0000A94E2F720FF0CC0C7010A2C01C0880F5E
:100AE0000A94EAF79091E101982B9093E10110C0EC
:100AF0000E94BE1CF80191838083C7010A2C01C0AB
:100B0000880F0A94EAF79091DF01982B9093DF0108
:100B100021960E5F1F4FC530D10509F08FCFB092DF
:100B2000E0010E94590681E0DF91CF911F910F9162
:100B3000FF90EF90DF90CF90BF90AF90089580919D
:100B4000E1010895089582FF1AC08091E301909118
:100B5000E4010E94CA1C8B3F910540F00E94BE1C1C
:100B60009093E4018093E3011092E2018091E2010D
:100B70008F5F8093E201883010F00C94181D089567
:100B8000509A279A87B1806687B90895813041F0DD
:100B900028F0823039F0833039F00895459A08956D
:100BA000469A08952F9A0895589A0895CF93C82F7A
:100BB00080939E0280E00E94EB2382E00E94262424
:100BC00081E00E94232483E00E9438248C2F90E04F
:100BD0008930910508F054C0FC01E65CFF4F0C948D
:100BE0003C280E94D2230E9420240E94352482E0C7
:100BF0000E94C60583E0CF910C94C60560E483E0B3
:100C00000E94E5230E94202482E007C060E482E085
:100C10000E94E5230E94202483E00E9414242BC01C
:100C20000E9420240E94352482E00E94292483E02F
:100C30000E94292422C060E482E00E94E5230E94F1
:100C4000352483E007C060E483E00E94E5230E942E
:100C5000352482E00E9429240E9420240EC00E9494
:100C600020240E943524CF910C94D22380E10E944D
:100C7000EB230E9420240E943524CF910C94C92399
:100C8000CF910895813041F028F0823039F08330DF
:100C900039F0089545980895469808952F98089535
:100CA00058980895569A5E9808955E9A08955E98A9
:100CB00008958091E901882389F08091E70190915E
:100CC000E8010E94CA1C2091E5013091E601281735
:100CD000390720F41092E9010C9457060895CF9338
:100CE000DF93EC0181E08093E9010E94BE1C9093A8
:100CF000E8018093E701D093E601C093E501DF911D
:100D0000CF910C945506519A59980895EF92FF92FD
:100D10000F931F93CF93DF937C018B019C01220FD4
:100D2000331F40E050E060EA76E881E090E00E9406
:100D30001D28E901B70180E090E0980140E050E013
:100D40000E944428B901CA0128EE33E040E050E097
:100D50000E94FB2780E090E0599A40E050E065E374
:100D60006A95F1F700004F5F5F4FC417D507B9F7D9
:100D7000599840E050E065E36A95F1F700004F5F55
:100D80005F4FC417D507B9F701962817390721F720
:100D9000DF91CF911F910F91FF90EF900895809177
:100DA000F3010895CF93DF9300D01F92CDB7DEB744
:100DB0002091A302243019F523E029839B838A83A1
:100DC0002093E9008FEF9091E800815095FD06C0D7
:100DD00095ED9A95F1F700008111F5CF8091E8002B
:100DE00085FF0DC040E050E063E070E0CE01019669
:100DF0000E94D10A8091E8008E778093E8000F90DE
:100E00000F900F90DF91CF910895CF93DF9300D093
:100E10001F92CDB7DEB72091A302243021F522E046
:100E200029839B838A8383E08093E9008FEF9091ED
:100E3000E800815095FD06C095ED9A95F1F7000008
:100E40008111F5CF8091E80085FF0DC040E050E0B2
:100E500063E070E0CE0101960E94D10A8091E80023
:100E60008E778093E8000F900F900F90DF91CF91D5
:100E700008952091A3022430F1F422E02093E900A8
:100E80002FEF3091E800215035FD06C035ED3A9541
:100E9000F1F700002111F5CF2091E80025FF0BC0EC
:100EA00040E050E065E070E00E94D10A8091E800E7
:100EB0008E778093E8000895CF93DF93EC018091C3
:100EC000A302843039F581E08093E9008FEF90919F
:100ED000E800815095FD06C095ED9A95F1F7000068
:100EE0008111F5CF8091E80085FF14C040E050E00B
:100EF00068E070E0CE010E94D10A8091E8008E7710
:100F00008093E80088E0FE01ABEEB1E001900D9225
:100F10008A95E1F7DF91CF91089508950895089596
:100F2000089542E061EC81E00E94000942E061EC3A
:100F300082E00E94000942E061EC83E00C94000929
:100F40008091A502833009F453C030F4813071F0F0
:100F5000823009F491C008958A3009F47DC08B3045
:100F600009F45EC0893009F09FC020C08091A402BE
:100F7000813A09F099C08091E800877F8093E8006A
:100F80008091A8029091A902892B21F060E080E075
:100F900090E003C068E08BEE91E070E00E941A0BD5
:100FA0008091E8008B778093E80008958091A402F7
:100FB000813209F079C08091A8029091A902892B11
:100FC00009F072C08091E800877F8093E8008091EB
:100FD000E80082FD05C08091A3028111F8CF64C0B2
:100FE0008091F1008093F3018091E8008B7758C0E5
:100FF0008091A402813A09F057C08091A802909193
:10100000A902892B09F050C08091E800877F809366
:10101000E8008091E80080FFFCCF80910B013BC08D
:101020008091A402813209F03FC08091A802909182
:10103000A902892BC9F58091E800877F8093E80099
:101040000E9435099091A60281E0911101C080E0D3
:1010500080930B010C945D158091A402813221F5DF
:101060008091E800877F8093E8000E943509809195
:10107000A7028093EA0108958091A402813AA1F425
:101080008091E800877F8093E8008091E80080FFEE
:10109000FCCF8091EA018093F1008091E8008E7787
:1010A0008093E8000C943509089584B7877F84BF46
:1010B00088E10FB6F89480936000109260000FBE34
:1010C00090E080E80FB6F8948093610090936100FF
:1010D0000FBE0E9486090E94D9098091E2008460B7
:1010E0008093E20078948091A3028430E1F70E941B
:1010F000201081E091E00E94C80F8091A30285300A
:1011000069F40E943B1D8091A1028823B1F30E94E3
:10111000601D882391F30E94EA08EFCF0E943110EE
:10112000ECCF292F332723303105A9F06CF421307F
:10113000310509F442C02230310509F043C084E58D
:1011400090E028E231E042C021323105C9F022327C
:10115000310519F137C099278130910541F082306E
:10116000910541F0892B71F5E4E2F1E005C0E0E181
:10117000F1E002C0E6EFF0E0849190E09F0126C02C
:10118000633000F5E62FF0E0EE0FFF1FE15EFE4F4B
:101190002081318189E090E019C0633098F4E62F16
:1011A000F0E0DF01AA0FBB1FA75EBE4F2D913C915F
:1011B000EA5EFE4F808190E009C082E190E02CE77A
:1011C00031E004C080E090E020E030E0FA013183BB
:1011D0002083089584E089BD86E089BD09B400FEBE
:1011E000FDCF8091D8008F7D8093D8008091E00062
:1011F00082608093E0008091E00081FDFCCF089543
:10120000982F953058F59093E900981739F0709120
:10121000EC002091ED005091F00003C0242F762FB8
:1012200050E021FF19C03091EB003E7F3093EB007E
:101230003091ED003D7F3093ED003091EB00316057
:101240003093EB007093EC002093ED005093F0008E
:101250002091EE0027FF07C09F5FD3CF8F70809350
:10126000E90081E0089580E008958091A40287FD5F
:1012700005C08091E80080FF0EC012C08091E80098
:1012800082FD05C08091A3028111F8CF089580915D
:10129000E8008B7708C08091A3028111EACF0895FE
:1012A0008091E8008E778093E80008958091E400B3
:1012B0009091E50045E62091EC0020FF21C02091AF
:1012C000E80020FD21C02091A302222389F02530CF
:1012D00089F02091EB0025FD0FC02091E4003091B2
:1012E000E5002817390739F3415041F0C901E3CF30
:1012F00082E0089583E0089581E0089584E00895F0
:101300002091E80022FFDFCF80E008950E94E309EA
:101310000E94E609E0EEF0E0808181608083E8EDE4
:10132000F0E080818F77808319BCE3E6F0E0808174
:10133000816080831092A20208950E94E3090E94B6
:10134000E6098091D8008F778093D8008091D800EB
:1013500080688093D8008091D8008F7D8093D800DA
:1013600084E089BD86E089BD09B400FEFDCF1092FE
:10137000A30210929F021092A1021092A00242E0DA
:1013800060E080E00E9400098091E1008E7F809300
:10139000E1008091E20081608093E2008091E200B0
:1013A00088608093E2008091E0008E7F8093E0006F
:1013B0000895E3E6F0E080818E7F808381E0809372
:1013C000A2020C949D091092E20008951092E1008F
:1013D00008951F920F920FB60F9211242F933F93EF
:1013E0004F935F936F937F938F939F93AF93BF932D
:1013F000EF93FF938091E10082FF0BC08091E200A8
:1014000082FF07C08091E1008B7F8093E1000E9402
:1014100090078091E10080FF18C08091E20080FF7A
:1014200014C08091E2008E7F8093E2008091E20000
:1014300080618093E2008091D80080628093D80020
:1014400019BC1092A3020E948E078091E10084FFD4
:101450002EC08091E20084FF2AC084E089BD86E02E
:1014600089BD09B400FEFDCF8091D8008F7D8093A7
:10147000D8008091E1008F7E8093E1008091E200AE
:101480008F7E8093E2008091E20081608093E20091
:1014900080919F02811104C08091E30087FF02C008
:1014A00084E001C081E08093A3020E948D078091B7
:1014B000E10083FF29C08091E20083FF25C0809175
:1014C000E100877F8093E10082E08093A302109285
:1014D0009F028091E1008E7F8093E1008091E20085
:1014E0008E7F8093E2008091E20080618093E20031
:1014F00042E060E080E00E9400098091F000886096
:101500008093F0000E948F07FF91EF91BF91AF9100
:101510009F918F917F916F915F914F913F912F910B
:101520000F900FBE0F901F9018951F920F920FB63D
:101530000F9211242F933F934F935F936F937F9359
:101540008F939F93AF93BF93CF93EF93FF93C091EC
:10155000E900CF708091EC001092E9008091F000DA
:10156000877F8093F00078940E94D90B1092E90055
:101570008091F00088608093F000C093E900FF91B3
:10158000EF91CF91BF91AF919F918F917F916F918B
:101590005F914F913F912F910F900FBE0F901F9031
:1015A0001895CF92DF92EF92FF920F931F93CF93F4
:1015B000DF937C018B01EA010E945609811131C041
:1015C000209731F088819981081B190BE80EF91ECC
:1015D000C12CD12C0115110519F18091E80085FD70
:1015E00014C08091E8008E778093E800209741F046
:1015F000888199818C0D9D1D9983888385E011C018
:101600000E945609882331F30CC0F70181917F01B4
:101610008093F10001501109FFEFCF1ADF0ADACFF2
:1016200080E0DF91CF911F910F91FF90EF90DF90BD
:10163000CF9008952091AA023091AB022617370768
:1016400048F06115710539F42091E8002E77209358
:10165000E80001C0B90120E061157105D1F13091B8
:10166000A302332309F441C0353009F440C030915E
:10167000E80033FD38C03091E80032FF06C08091A9
:10168000E80082FF29C080E008953091E80030FF33
:10169000E3CF2091F20030E0FC01281B390BCF0191
:1016A000820F931F6115710549F08830910530F460
:1016B00081918093F10061507109F1CF21E0089789
:1016C00009F020E08091E8008E778093E800CF0158
:1016D000C3CF2111C4CFD3CF8091A302882329F097
:1016E000853069F604C081E0089582E0089583E0C2
:1016F00008952091AA023091AB022617370748F0CF
:101700006115710539F42091E8002E772093E800E7
:1017100001C0B90120E061157105D9F13091A30232
:10172000332309F442C0353009F441C03091E80058
:1017300033FD39C03091E80032FF06C08091E800E7
:1017400082FF2AC080E008953091E80030FFE3CFA7
:101750002091F20030E0FC01281B390BC9018E0FEB
:101760009F1F6115710551F08830910538F48491FF
:101770008093F100319661507109F0CF21E0089714
:1017800009F020E08091E8008E778093E800CF0197
:10179000C2CF2111C3CFD2CF8091A302882329F0D9
:1017A000853061F604C081E0089582E0089583E009
:1017B00008950F931F93CF93DF93CDB7DEB7AA970A
:1017C0000FB6F894DEBF0FBECDBFE4EAF2E0809121
:1017D000F100819322E0EC3AF207C9F70E94A007DA
:1017E0008091E80083FF1DC12091A4023091A502E1
:1017F000832F90E08A30910508F013C1FC01ED5B66
:10180000FF4F0C943C28203881F0223809F009C1A0
:101810008091A8028F708093E9008091EB0085FB96
:10182000882780F91092E90006C08091A00290916B
:10183000A102911182609091E800977F9093E80057
:101840008093F1001092F100C6C0822F8D7F09F0C5
:10185000E8C0222319F0223061F0E3C08091A60293
:10186000813009F0DEC0333009F080E08093A102BE
:1018700028C08091A602811124C02091A8022F7057
:1018800009F4CFC02093E9008091EB0080FF19C0DC
:101890008091EB00333011F4806211C0806180933D
:1018A000EB0081E090E0022E01C0880F0A94EAF775
:1018B0008093EA001092EA008091EB0088608093A8
:1018C000EB001092E9008091E800877F87C021112A
:1018D000A8C01091A6021F770FB7F8948091E80076
:1018E000877F8093E8000E9435098091E80080FF9F
:1018F000FCCF8091E3008078812B8093E3008068A7
:101900008093E300112311F083E001C082E0809313
:10191000A3020FBF86C02058223008F082C08091F9
:10192000A6029091A7028C3D23E0920779F583E00F
:101930008A838AE289834FB7F894DE01139620E008
:101940003EE051E2E32FF0E050935700E49120FF96
:1019500003C0E295EF703F5FEF708E2F90E0EA30AA
:1019600010F0C79601C0C0968D939D932F5F2431D0
:1019700049F74FBF8091E800877F8093E8006AE2D3
:1019800070E0CE0101960E941A0B14C0AE014F5FA9
:101990005F4F6091A8020E949108009709F441C02E
:1019A0002091E800277F2093E800BC0189819A817B
:1019B0000E94790B8091E8008B778093E80031C01A
:1019C000203879F58091E800877F8093E800809146
:1019D0009F028093F1008091E8008E778093E80069
:1019E0000E9435091EC021111CC09091A6029230A0
:1019F000C0F48091E800877F8093E80090939F0275
:101A00000E94350980919F02811104C08091E300FA
:101A100087FF02C084E001C081E08093A3020E949E
:101A200091078091E80083FF0AC08091EB008062FB
:101A30008093EB008091E800877F8093E800AA966E
:101A40000FB6F894DEBF0FBECDBFDF91CF911F91CF
:101A50000F9108950E947D0E2FEF83ED90E32150AA
:101A600080409040E1F700C000008FEF0E94A50E7B
:101A70000E94900E0E94900E80EF0E94A50E80E0C2
:101A800008958BEE0E94A50E8A3F09F0D8C00E94EF
:101A9000900E8093F8010E94900E8093F9010E94AD
:101AA000900E8093FA010E94BE1C9F938F9380E555
:101AB00092E09F938F930E9493029091F9010F906F
:101AC0000F900F900F908091F80191110AC0209112
:101AD000FA01211106C02091F7012827277009F487
:101AE000A4C08093F701282F207484FF07C0211120
:101AF0000AC02FE7290F2F3748F005C0211105C074
:101B000097FF04C002C091E801C09FE79093F901DC
:101B100085FF09C087FD0EC09091FA012FE7290FBC
:101B20002F3758F007C087FD07C09091FA0197FF43
:101B300004C002C091E801C09FE7282F27702093BE
:101B4000F80191959093FA019091F60182FF27C0D8
:101B5000911109C00E94BE1C9093F5018093F4017D
:101B600081E08093F6018091F9019091FA01811151
:101B700003C0992309F450C022E02093F60197FD99
:101B80009F5F959591959093FB0187FD8F5F85955C
:101B90008093FC011092F9011092FA013DC091303E
:101BA000C9F50E94BE1C2091F4013091F501821705
:101BB000930760F00E94BE1C2091F4013091F50162
:101BC000821B930B8C32914070F024C00E94BE1C8B
:101BD0002091F4013091F50120953095280F391F9F
:101BE0002C323140B8F48091F80184608093F80180
:101BF00088EF91E00E94E90F9FEF21EE84E0915081
:101C000020408040E1F700C000008091F8018B7F08
:101C10008093F8011092F6018091F8018B7F8093F8
:101C2000F80188EF91E00E94E90F1092F9011092FB
:101C3000FA011092FB011092FC011092F801089534
:101C400055985D9A08955A98529A089552985A9ABA
:101C500008959FB7F8942091FE018091FF018217AB
:101C600061F030E0F901E050FE4F80812F5F3F4F7F
:101C70002F7133272093FE0101C080E09FBF08959C
:101C800055985D9A85E08A95F1F7000089B185FB4A
:101C9000882780F9089552985A9A85E08A95F1F735
:101CA000000089B182FB882780F90895CF93DF93E4
:101CB000EC010E94400E882341F0209731F085E02E
:101CC0008A95F1F700002197F4CFCE01DF91CF91F3
:101CD0000895CF93DF93C2E3D0E00E94400E8111BC
:101CE00008C0209731F085E08A95F1F70000219730
:101CF000F4CFCE01DF91CF9108950E94200E0E9473
:101D0000260E5598529886E78093CA001092C80014
:101D10001092CD001092CC0080E98093C900089504
:101D20008AE1815011F40C94290E3FB7F894209168
:101D3000FF019091FE013FBF2913F5CFEFE9FFE0CE
:101D40003197F1F700C00000ECCFEF92FF920F93B4
:101D50001F93CF93DF93082F1092FD011092CA00BA
:101D60009091C900977E9093C9005D98559A0E9402
:101D7000260E8FE891E00197F1F700C000000E9465
:101D8000230E0E94200E80E197E20E94560E892BBE
:101D900011F48AE079C0C0E0D0E0FF24F39410E0B1
:101DA000EE24E39490E59A95F1F7C8010C2E02C059
:101DB000959587950A94E2F780FF04C0FE240E945F
:101DC000260E02C00E94230E0E94690E892B11F478
:101DD00082E05AC082E390E00E94560E892B11F4F3
:101DE00083E052C02196C830D105E1F680E58A959E
:101DF000F1F7FF2019F00E94260E02C00E94230E68
:101E00000E94690E892B11F484E03EC082E390E0C9
:101E10000E94560E892B11F485E036C090E59A9504
:101E2000F1F70E94260EC2E3D0E00E944B0E8823F9
:101E300041F0209741F025E02A95F1F70000219725
:101E4000F4CFCD2B11F486E01FC082E390E00E9416
:101E5000560E892B11F487E017C00E94690E892B5A
:101E600019F0C2E3D0E009C088E00EC0209759F015
:101E700085E08A95F1F7000021970E944B0E882398
:101E8000A9F3CD2BE9F489E08093FD010E94200E97
:101E90000E94260E5598529886E78093CA001092A9
:101EA000C8001092CD001092CC0080E98093C90048
:101EB00080E0DF91CF911F910F91FF90EF900895F7
:101EC0000E94200E0E94260E5598529886E7809315
:101ED000CA001092C8001092CD001092CC0080E988
:101EE0008093C900DF91CF911F910F91FF90EF90E8
:101EF0000C94900E1F920F920FB60F9211242F93F5
:101F00003F934F935F936F937F938F939F93AF9381
:101F1000BF93EF93FF938091C8008C714091CE00E6
:101F2000811115C05FB7F8942091FF0130E0C9011D
:101F300001968F7199276091FE01681731F0F901C0
:101F4000E050FE4F40838093FF015FBF10C01F929F
:101F50004F931F928F9385E592E09F938F930E94FA
:101F600093020F900F900F900F900F900F90FF9192
:101F7000EF91BF91AF919F918F917F916F915F9101
:101F80004F913F912F910F900FBE0F901F9018957A
:101F900090932502809324020895809124029091C9
:101FA00025020895E0912402F0912502309721F056
:101FB0000190F081E02D099480E00895E0912402E1
:101FC000F0912502309721F00280F381E02D0994F1
:101FD0000895E0912402F0912502309721F00480C9
:101FE000F581E02D09940895209122023091230279
:101FF0008217930771F09093230280932202E0915D
:102000002402F0912502309721F00680F781E02D1F
:10201000099408952091200230912102821793079C
:1020200071F09093210280932002E0912402F091BC
:102030002502309721F00084F185E02D0994089560
:102040000E94B51C0E94E90480919D0281110E94AA
:102050002A0D0E94AD1D0E94B6230E940A250C94F1
:10206000A5260F931F93CF93DF93CDB7DEB72B97A2
:102070000FB6F894DEBF0FBECDBF0E94060580E00C
:102080000E949F0510912702182789F48FEF8983FA
:102090008A831B820E94BE1C8160782F9D838C8363
:1020A00049815A816B818D810E94A1153EC090911A
:1020B0009C0291FF04C08B870E94A2058B8520E0C3
:1020C00030E0412F50E0BA01022E02C075956795AD
:1020D0000A94E2F760FF23C02E831F8201E010E024
:1020E00002C0000F111F2A95E2F790E08023912390
:1020F00021E0892B09F420E028870E94BE1C816022
:10210000782F9A8789874E815F8168858A850E94AA
:10211000A1158091270280278093270206C02F5F98
:102120003F4F2530310579F6B1CF0E94A92080912B
:102130009D0281110E94410D109126020E94D20F32
:10214000181781F00E94D20F809326022B960FB6AB
:10215000F894DEBF0FBECDBFDF91CF911F910F91DD
:102160000C94A3052B960FB6F894DEBF0FBECDBF1F
:10217000DF91CF911F910F910895CF93C82F88239E
:1021800009F4C1C0823859F40E94D20F81FDBBC04E
:1021900089E30E94FB1A0E94761B89E30CC08338F6
:1021A00079F40E94D20F80FDAEC083E50E94FB1A35
:1021B0000E94761B83E50E941C1BCF910C94761B1A
:1021C000843859F40E94D20F82FD9DC087E40E949A
:1021D000FB1A0E94761B87E4EECF8CEF8C0F813ABE
:1021E00048F48C2F0E94202281118DC08C2F0E94D8
:1021F000FB1AE3CF80E28C0F883048F4C77081E08F
:1022000001C0880FCA95EAF70E943D1BD6CF8BE527
:102210008C0F833078F4C53A29F0C63A31F482E85D
:1022200090E005C081E890E002C083E890E0CF91A3
:102230000C94F40F88E58C0F833108F064C0C83A21
:1022400039F1C93A41F1CA3A49F1CB3A51F1CC3AA4
:1022500059F1CD3A61F1C03B69F1CE3A71F1CF3A13
:1022600079F1C13B81F1C23B89F1C33B91F1C43BA0
:1022700099F1C53BA1F1C63BA9F1C73BB1F1C83B00
:10228000B9F1C93BC1F1CA3BC9F58AE292E038C055
:1022900082EE90E035C089EE90E032C08AEE90E0A8
:1022A0002FC085EB90E02CC086EB90E029C087EB37
:1022B00090E026C08CEC90E023C08DEC90E020C034
:1022C00083E891E01DC08AE891E01AC082E991E0BC
:1022D00017C084E991E014C081E292E011C083E26A
:1022E00092E00EC084E292E00BC085E292E008C06A
:1022F00086E292E005C087E292E002C080E090E0D2
:10230000CF910C940A10CF910895882309F44BC003
:10231000823859F40E94D20F81FF45C089E30E94A0
:10232000FB1A0E94761B89E30CC0833871F40E946B
:10233000D20F80FF38C083E50E94FB1A0E94761BF3
:1023400083E50E941C1B0C94761B843859F40E9470
:10235000D20F82FF28C087E40E94FB1A0E94761BDE
:1023600087E4EFCF9CEF980F913A58F390E2980FE3
:10237000983050F4877091E001C0990F8A95EAF780
:10238000892F0E94431BDFCF9BE5980F933020F4E9
:1023900080E090E00C94F40F885A833120F480E0C0
:1023A00090E00C940A100895882321F00E943D1BB0
:1023B0000C94761B0895882321F00E94431B0C94F3
:1023C000761B0895CF92DF92EF92FF920F931F93A7
:1023D000CF93DF93CDB7DEB728970FB6F894DEBF63
:1023E0000FBECDBF8C0185E0F801DE011196019092
:1023F0000D928A95E1F7F80140813181F2802581C3
:1024000022952F7083819481892B31F03F3F31F4E5
:1024100081E04F3F19F403C081E001C080E080FDFE
:102420002BC349833A8389819A812F830E94B91AE9
:102430009E8388870E94B81A0E948B194E81E42FD0
:10244000E295EF70F0E0E35BFF4F2F8168850C941D
:102450003C28842F807F142F1F70882311F0129541
:10246000107FFF2059F0112309F447C2812F68879C
:102470000E944D1B0E94761B68853FC2862F0E94DA
:102480008511112309F4F8C2812F0E94531B28964D
:102490000FB6F894DEBF0FBECDBFDF91CF911F9175
:1024A0000F91FF90EF90DF90CF900C94761B342F1C
:1024B000307F842F8F70303211F08295807F6623B9
:1024C00019F0613009F12AC0FF20A1F0222381F127
:1024D000213071F528960FB6F894DEBF0FBECDBF40
:1024E000DF91CF911F910F91FF90EF90DF90CF90F0
:1024F0000C945D1B222319F0213009F4BDC28E8398
:102500000E94601B8E8126C0FF2021F0263008F03B
:10251000B3C20EC0253008F0AFC21CC0FF20C1F00E
:10252000222331F0F801958190FFE7C19F709583D8
:1025300028960FB6F894DEBF0FBECDBFDF91CF91C6
:102540001F910F91FF90EF90DF90CF900C94D411DA
:102550002111E7C128960FB6F894DEBF0FBECDBF9C
:10256000DF91CF911F910F91FF90EF90DF90CF906F
:102570000C94DB11242F26952695237030E021152D
:10258000310521F021303105C9F076C2FF2021F05C
:10259000862F942F937002C080E090E028960FB6AB
:1025A000F894DEBF0FBECDBFDF91CF911F910F9189
:1025B000FF90EF90DF90CF900C94F40FFF2021F06C
:1025C000862F942F937002C080E090E028960FB67B
:1025D000F894DEBF0FBECDBFDF91CF911F910F9159
:1025E000FF90EF90DF90CF900C940A10862FFF2081
:1025F00019F00E94B11F02C00E94192028960FB640
:10260000F894DEBF0FBECDBFDF91CF911F910F9128
:10261000FF90EF90DF90CF900C949E20842F8370DA
:1026200009F076C0F11028C2262F22952695277032
:10263000220F220F862F8F70C82ED12CE12CF12C67
:10264000022E04C0CC0CDD1CEE1CFF1C0A94D2F739
:1026500064FF10C06FE070E080E090E004C0660F9F
:10266000771F881F991F2A95D2F7609570958095DE
:10267000909503C060E070E0CB01242F269526954D
:102680002370422F50E042305105D1F043305105C4
:1026900059F16C297D298E299F294130510541F13D
:1026A00028960FB6F894DEBF0FBECDBFDF91CF9155
:1026B0001F910F91FF90EF90DF90CF900C94B01985
:1026C0006C297D298E299F2928960FB6F894DEBFA4
:1026D0000FBECDBFDF91CF911F910F91FF90EF9073
:1026E000DF90CF900C94CA190E94B019C701B601AF
:1026F00028960FB6F894DEBF0FBECDBFDF91CF9105
:102700001F910F91FF90EF90DF90CF900C9496194E
:10271000FF2019F0842F817001C08695882309F469
:10272000ABC1262F229526952770220F220F862FC8
:102730008F70C82ED12CE12CF12C022E04C0CC0CB1
:10274000DD1CEE1CFF1C0A94D2F764FF10C06FE082
:1027500070E080E090E004C0660F771F881F991F2B
:102760002A95D2F7609570958095909503C060E0AA
:1027700070E0CB01242F269526952370422F50E040
:1027800042305105D1F04330510559F16C297D2972
:102790008E299F294130510541F128960FB6F894B2
:1027A000DEBF0FBECDBFDF91CF911F910F91FF9084
:1027B000EF90DF90CF900C94841A6C297D298E299C
:1027C0009F2928960FB6F894DEBF0FBECDBFDF91CC
:1027D000CF911F910F91FF90EF90DF90CF900C94CD
:1027E0009E1A0E94841AC701B60128960FB6F89463
:1027F000DEBF0FBECDBFDF91CF911F910F91FF9034
:10280000EF90DF90CF900C946A1A613F29F118F491
:10281000603F39F06DC0623F99F1633F09F444C0F5
:1028200067C0FF20A9F0253008F026C1842F8F71E2
:1028300028960FB6F894DEBF0FBECDBFDF91CF91C3
:102840001F910F91FF90EF90DF90CF900C94491A59
:10285000263008F011C1EACFFF20A1F0842F8F713C
:1028600028960FB6F894DEBF0FBECDBFDF91CF9193
:102870001F910F91FF90EF90DF90CF900C94031A6F
:10288000FF2061F3842F8F7128960FB6F894DEBF76
:102890000FBECDBFDF91CF911F910F91FF90EF90B1
:1028A000DF90CF900C94241AFF2091F0842F8F7129
:1028B00028960FB6F894DEBF0FBECDBFDF91CF9143
:1028C0001F910F91FF90EF90DF90CF900C94EE1935
:1028D00028960FB6F894DEBF0FBECDBFDF91CF9123
:1028E0001F910F91FF90EF90DF90CF900C94E4191F
:1028F000FF20A1F0222309F4B1CF862F28960FB62E
:10290000F894DEBF0FBECDBFDF91CF911F910F9125
:10291000FF90EF90DF90CF900C94BD10222309F42C
:10292000B1CF862F28960FB6F894DEBF0FBECDBF6D
:10293000DF91CF911F910F91FF90EF90DF90CF909B
:102940000C9485114F70C8010E94B11C28960FB6D7
:10295000F894DEBF0FBECDBFDF91CF911F910F91D5
:10296000FF90EF90DF90CF900C940D19F11084C080
:10297000662341F0842F8F70843021F0407F862FB2
:102980008F70482B942F9F70492F50E04230510593
:1029900009F440C0BCF44115510561F141305105C5
:1029A00009F06AC028960FB6F894DEBF0FBECDBFFF
:1029B000DF91CF911F910F91FF90EF90DF90CF901B
:1029C0000C94322543305105A9F14430510509F0EA
:1029D00053C0862F28960FB6F894DEBF0FBECDBF2A
:1029E000DF91CF911F910F91FF90EF90DF90CF90EB
:1029F0000C94922528960FB6F894DEBF0FBECDBF7B
:102A0000DF91CF911F910F91FF90EF90DF90CF90CA
:102A10000C941B2528960FB6F894DEBF0FBECDBFD1
:102A2000DF91CF911F910F91FF90EF90DF90CF90AA
:102A30000C944E2528960FB6F894DEBF0FBECDBF7E
:102A4000DF91CF911F910F91FF90EF90DF90CF908A
:102A50000C946D254F70C80128960FB6F894DEBF10
:102A60000FBECDBFDF91CF911F910F91FF90EF90DF
:102A7000DF90CF900C94B41C28960FB6F894DEBF6C
:102A80000FBECDBFDF91CF911F910F91FF90EF90BF
:102A9000DF90CF9008950E945A1B0E942F1B0E9426
:102AA000761B0E944C210E949E2080E090E00E94B4
:102AB000F40F80E090E00C940A100E944A1B0C94E2
:102AC0004B150E94B91A292F22952F7030E02C3017
:102AD00031054CF42A3031056CF422503109223092
:102AE000310570F407C02C30310531F02F3031053D
:102AF00019F006C081E0089593FB882780F90895B6
:102B000080E00895CF93DF9300D000D01F92CDB71F
:102B1000DEB70F900F900F900F900F90DF91CF9135
:102B20000895CF93DF9300D000D000D0CDB7DEB7AB
:102B300026960FB6F894DEBF0FBECDBFDF91CF91C2
:102B40000895CF93DF93CDB7DEB72B970FB6F894E8
:102B5000DEBF0FBECDBF4F83588769877A878B87CB
:102B6000DE01119686E0FD0111928A95E9F785E074
:102B7000FE01379601900D928A95E1F74F815885B5
:102B800069857A858B850E94150449815A816B81FC
:102B90007C818D819E810E945B182B960FB6F894E4
:102BA000DEBF0FBECDBFDF91CF910895CF93DF93EE
:102BB000C091280280912902C817A1F0D0E0CE016F
:102BC00066E070E00E94D627FC01E65DFD4F408183
:102BD000518162817381848195810E949115219632
:102BE000C770E8CFDF91CF91089540915A0250917C
:102BF0005B0260915C0270915D0280915E02909137
:102C00005F020C9491151F93CF93DF9380915F0225
:102C100082958F7009F060C080915C02882309F46E
:102C20005BC0A0912802D091290240915A02C09124
:102C30005B0220915D0230915E0281E04F3F09F01E
:102C400080E0182FAD1709F447C02115310521F098
:102C5000CF3F21F4812F03C081E001C080E0B0E0CC
:102C600080FD37C0CD0166E070E00E94D627FC01F0
:102C7000E65DFD4F8181C8132CC08081481329C0B7
:102C80008281811126C0838194818217930708F481
:102C90000197821B930B883C9105D8F480915F02C9
:102CA0008F70806180935F02CD0166E070E00E94CA
:102CB000D627FC01E15DFD4F80818F7080618083AC
:102CC0008AE592E00E94E211DF91CF911F910C946E
:102CD000D6151196A770B6CFDF91CF911F910895A9
:102CE000BF92CF92DF92EF92FF920F931F93CF93F9
:102CF000DF93CDB7DEB761970FB6F894DEBF0FBE96
:102D0000CDBF8C0185E0F801DE011D9601900D928A
:102D10008A95E1F7D8014C911196AC91F801C280E7
:102D2000E380F48050915A0260915B0220915D0231
:102D300030915E022115310531F06F3F31F481E0B1
:102D40005F3F19F403C081E001C080E0F82FF1700B
:102D5000BF2E80FD6DC1D0905C02DD2009F4F4C06F
:102D600070915F02E216F30638F0C701821B930BE5
:102D7000883C910548F099C0209530952E0D3F1D57
:102D8000283C310508F091C0872F807F09F054C09E
:102D90006A1315C0541313C0DC2CC11010C07F700F
:102DA000706170935F020E94F5158AE592E00E94BF
:102DB000E21180915F02D80115968C936BC1EF28C8
:102DC00031F0AF3F31F481E04F3F19F403C081E0AF
:102DD00001C080E080FD03C081E08C2501C080E05F
:102DE000B82FB170FB2E80FF1DC020912802B0913A
:102DF00029022B1709F429C130E0C90166E070E00F
:102E00000E94D627FC01E65DFD4F8181A81306C014
:102E10008081481303C08281C81204C02F5F3F4FD6
:102E20002770E7CFDC2CCC2009F434C180915F02FD
:102E3000816080935F0251C06A1308C0541306C0BA
:102E4000C11004C0D80115967C93ABC04D87AE87E6
:102E50008D859E850E946115882319F1DC2CCC207C
:102E600001F120915F02822F82958F7090E002978E
:102E70000CF45FC080915A0290915B0298878F8317
:102E80001986FB86EA862C87CE01079650C06A1702
:102E900031F14D87AE878D859E850E946115811128
:102EA0002FC0C8010E94E211A5C0872F807F79F74B
:102EB0007E2DF98AE88A5A2F6C2D89890E94821505
:102EC0008AE592E00E94E211EAE5F2E086E0DF01A5
:102ED0001D928A95E9F70E94F515D12CDBC0541399
:102EE000D8CFC110D6CFF8017583C8010E94E21176
:102EF000EAE5F2E086E0DF011D928A95E9F7CAC0B3
:102F0000DC2CCC2071F220915F02822F82958F7091
:102F100090E0029774F080915A0290915B029A833C
:102F200089831B82FD82EC822E83CE0101960E9452
:102F3000E21186E0F801AAE5B2E001900D928A95CF
:102F4000E1F70E94031671C0E216F30628F0F701BC
:102F5000E21BF30B9F0104C0209530952E0D3F1D01
:102F6000283C310508F052C0DC2CCC2009F499CF64
:102F70006A132CC054132AC080915F0280FD1DC0CB
:102F8000982F92959F70C9F0D80115968C9315973C
:102F90009F3039F09F5F9295907F8F70892B1596A7
:102FA0008C93C8010E94E21186E0F801AAE5B2E024
:102FB00001900D928A95E1F738C086E0F801AAE504
:102FC000B2E001900D928A95E1F764C04D87AE871B
:102FD0008D859E850E946115882379F086E0F80131
:102FE000AAE5B2E001900D928A95E1F70E940316DE
:102FF0000E94F515DD24D3944DC080915F0281605D
:1030000080935F02C8010E94E21144C07E2DF98ABC
:10301000E88A5A2F6C2D89890E948215EAE5F2E030
:1030200086E0DF011D928A95E9F70E94F51532C00E
:10303000CC2009F436CF4D87AE878D859E850E94C2
:103040006115882309F42DCFC9CF4D87AE878D85B3
:103050009E850E94B91A292F22952F7030E02230C8
:1030600031052CF49F7041F0811106C00CC0243052
:1030700031052CF49F7049F4805E883020F0C8013F
:103080000E94E211BF2CDB2C05C0F8019581907FD6
:1030900099F7F9CF8D2D61960FB6F894DEBF0FBE6C
:1030A000CDBFDF91CF911F910F91FF90EF90DF90F7
:1030B000CF90BF900895CF93DF93CDB7DEB72C9715
:1030C0000FB6F894DEBF0FBECDBF4F835887698718
:1030D0007A878B879C87CE0107960E94701688237B
:1030E000C1F02F8138858A859B85892B31F03F3F40
:1030F00011F080E003C02F3FE1F781E081116FC044
:103100004F81588569857A858B859C850E949115AC
:1031100066C086E0FE013796DE01119601900D92A1
:103120008A95E1F7FF81E8854A855B854115510560
:1031300031F0EF3F31F481E0FF3F19F403C081E04B
:1031400001C080E080FD4BC08091290290E09C018D
:103150002F5F3F4F277033276091280270E02617BA
:10316000370709F443C0F983EA835D834C8366E043
:1031700070E00E94D627DC01A65DBD4F86E0FE010F
:10318000319601900D928A95E1F7209329020E94D1
:10319000D61525C090E066E070E00E94D627865DD7
:1031A0009D4F0E947016882379F18091280290E04B
:1031B00066E070E00E94D627FC01E65DFD4F40818D
:1031C000518162817381848195810E9491158091E2
:1031D000280290E0019687709927809328028091B9
:1031E0002802909129028913D5CF0EC00E945D1547
:1031F0001092290210922802EAE5F2E086E0DF014F
:103200001D928A95E9F7EBCF2C960FB6F894DEBFA6
:103210000FBECDBFDF91CF910895EF92FF920F9334
:103220001F93CF93DF93FC01009709F46DC0F12C3D
:10323000EE24E394EF0121968491843740F48430A6
:1032400008F053C0813081F0823021F15DC08537B4
:1032500009F445C0B0F19CE7980F903708F054C0CE
:103260008F770E94851143C08F010E5F1F4FFE01B3
:10327000849190E2980F983050F48770FE2D01C031
:10328000FF0F8A95EAF78F2F0E944D1B15C00E94F1
:10329000BD1012C08F010E5F1F4FFE01849190E29E
:1032A000980F983058F48770FE2D01C0FF0F8A9553
:1032B000EAF78F2F0E94531BE80119C00E94851165
:1032C000FBCFCF010296FE01C491CC2361F0EFE960
:1032D000FFE03197F1F700C00000C150F6CFCF01F9
:1032E0000296FE01F490EC0102C00E94BD108F2DE9
:1032F000882341F0EFE9FFE03197F1F700C00000CB
:103300008150F6CFFE0196CFDF91CF911F910F91A3
:10331000FF90EF90089508956093640270936502A2
:1033200080936602909367020C944B150F931F9342
:10333000009164021091650220916602309167024B
:10334000062B172B282B392B009364021093650250
:1033500020936602309367021F910F910C944B15D6
:103360000F931F93009164021091650220916602F1
:103370003091670206231723282339230093640220
:103380001093650220936602309367021F910F919C
:103390000C944B150F931F930091640210916502DA
:1033A00020916602309167020627172728273927C0
:1033B00000936402109365022093660230936702C3
:1033C0001F910F910C944B151092600210926102A4
:1033D00010926202109263020C944B1541E050E08F
:1033E00060E070E004C0440F551F661F771F8A9588
:1033F000D2F740936002509361026093620270932F
:1034000063020C944B1541E050E060E070E004C0B2
:10341000440F551F661F771F8A95D2F7809160026F
:1034200090916102A0916202B0916302842B952B6E
:10343000A62BB72B8093600290936102A093620247
:10344000B09363020C944B1541E050E060E070E0F3
:1034500004C0440F551F661F771F8A95D2F7409509
:103460005095609570958091600290916102A09155
:103470006202B091630284239523A623B72380932D
:10348000600290936102A0936202B09363020C9475
:103490004B1541E050E060E070E004C0440F551F60
:1034A000661F771F8A95D2F7809160029091610222
:1034B000A0916202B091630284279527A627B727BF
:1034C0008093600290936102A0936202B0936302C2
:1034D0000C944B150F931F930091600210916102A1
:1034E0002091620230916302062B172B282B392B77
:1034F0000093600210936102209362023093630292
:103500001F910F910C944B150F931F930091600224
:103510001091610220916202309163020623172309
:1035200028233923009360021093610220936202E2
:10353000309363021F910F910C944B150F931F93BF
:103540000091600210916102209162023091630249
:103550000627172728273927009360021093610256
:1035600020936202309363021F910F910C944B15CC
:103570000895CF92DF92EF92FF920F931F93CF9314
:10358000DF93EC01C0906402D0906502E090660287
:10359000F09067028091600290916102A0916202B6
:1035A000B0916302C82AD92AEA2AFB2A0FE110E067
:1035B000B701A601002E04C07695679557954795EB
:1035C0000A94D2F740FF07C0BE01802F0E943E1C24
:1035D0008130910539F40150110950F7BE0180E0A6
:1035E0000E943E1CDF91CF911F910F91FF90EF90B1
:1035F000DF90CF90089540910C0150910D0120E093
:1036000030E09FEFFA01E20FF31F6281681799F033
:103610009F3F19F4611101C0922F2F5F3F4F263059
:10362000310581F79F3F39F0FA01E90FF11D97FD50
:10363000FA9582830895089540910C0150910D01EF
:1036400020E030E0FA01E20FF31F9281981301C0ED
:1036500012822F5F3F4F26303105A1F7089581E098
:1036600090E0E0910C01F0910D01E80FF91F10823C
:10367000019688309105A9F7089590917202982BD0
:10368000909372020895809590917202982390937E
:103690007202089510927202089590917102982B0F
:1036A0009093710208958095909171029823909360
:1036B000710208951092710208958093680208952E
:1036C00010926802089540910C0150910D0120E084
:1036D00030E080E0FA01E20FF31F918191118F5FDA
:1036E0002F5F3F4F27303105A9F70895E0910C0176
:1036F000F0910D01809172028083E0910C01F091B4
:103700000D01808190917102892B808390916802D4
:10371000992361F0E0910C01F0910D018081892BDA
:1037200080830E94631B81111092680280910C01BA
:1037300090910D010C94DE0F8B3B60F4883A00F5FC
:10374000853AA8F4843088F4813009F055C081E0CE
:1037500090E00895803E08F44FC0883E30F0803FEE
:1037600008F44AC090E09065089590E00895853A85
:1037700009F445C0863A09F045C082E890E408950E
:10378000883A09F442C0893A09F442C08A3A09F4F5
:1037900042C08B3A09F442C08C3A09F442C08D3AD7
:1037A00009F442C0803B09F442C08E3A09F442C099
:1037B0008F3A09F442C0813B09F442C0823B09F4CC
:1037C00042C0833B09F442C0843B09F442C0853BBC
:1037D00009F442C0863B09F442C0873B09F442C069
:1037E000883B09F442C0893B09F442C08A3B09F096
:1037F00042C08AE296E4089580E090E0089581E86E
:1038000090E4089583E890E4089582EE94E40895A6
:1038100089EE94E408958AEE94E4089585EB94E4A7
:10382000089586EB94E4089587EB94E408958CEC76
:1038300094E408958DEC94E4089583E895E4089564
:103840008AE895E4089582E995E4089584E995E489
:10385000089581E296E4089583E296E4089584E26F
:1038600096E4089585E296E4089586E296E4089544
:1038700087E296E4089580E094E408950E94D102DE
:10388000803EA8F4803C00F5813309F45CC038F434
:10389000893209F452C08A3209F45BC05FC08933AF
:1038A000B1F08238A1F0853309F441C057C0833E9E
:1038B00041F128F4803E99F0823EB9F04FC0863E37
:1038C00031F1873E71F14AC00E94E3020895909160
:1038D0009B0290FD02C091FF41C080EE3FC08091ED
:1038E0009B0280FFFACF89E339C080919B0282FF5F
:1038F0000CC080919B0284FF02C080E02FC083EE49
:103900002DC080919B0282FFF4CF82EE27C0809170
:103910009B0283FF0AC080919B0284FDEECF87EE5D
:103920001DC080919B0283FFF6CF86EE17C0809169
:103930009B0285FF06C089E211C080919B0285FF32
:10394000FACF85E30BC080919B0286FF06C08AE216
:1039500005C080919B0286FFFACF81E30E949C1BE9
:10396000089580E090E00895089582E084BD93E09A
:1039700095BD9AEF97BD80936E0008952FB7F89488
:103980008091730290917402A0917502B0917602B9
:103990002FBF0895CF92DF92EF92FF920F931F9364
:1039A0002FB7F894409173025091740260917502A0
:1039B000709176022FBF6A017B01EE24FF248C01F7
:1039C00020E030E0C016D106E206F30610F44150C4
:1039D0005109481B590BCA011F910F91FF90EF909D
:1039E000DF90CF9008951F920F920FB60F9211247F
:1039F0008F939F93AF93BF938091730290917402C2
:103A0000A0917502B09176020196A11DB11D80931F
:103A1000730290937402A0937502B0937602BF91E3
:103A2000AF919F918F910F900FBE0F901F9018959F
:103A30000E948609F8942FEF87EA91E62150804092
:103A40009040E1F700C0000087E090EBDC0180933C
:103A5000AD029093AE02A093AF02B093B0022CE0FF
:103A600088E190E00FB6F894A895809360000FBEAF
:103A700020936000FFCF80E00E94D605F894A895BF
:103A800023E488E190E00FB6F894A8958093600055
:103A90000FBE2093600083B7817F846083BF83B7AC
:103AA000816083BF7894889583B78E7F83BF88E1D8
:103AB0000FB6F89480936000109260000FBE0895D6
:103AC0000E94060580E00E949F0591E0811101C0DF
:103AD00090E0892F08951F920F920FB60F92112434
:103AE0000F900FBE0F901F901895FF920F931F938A
:103AF000CF93DF93F82E80E00E949F05C0E0D0E0D6
:103B0000082F10E098010C2E02C0359527950A94D5
:103B1000E2F720FD06C02196C530D10599F780E077
:103B200008C06C2F70E080E00E94D102F812F3CF41
:103B300081E0DF91CF911F910F91FF900895CF9376
:103B4000C82F8CE20E94751D882321F08C2FCF9105
:103B50000C94751D80E0CF910895CF930E94FB1EB9
:103B6000811102C00E94D61EC5E6C15049F00E94D4
:103B700006058FE39CE90197F1F700C00000F5CF3F
:103B800089E20E949F1D81110FC18AE20E949F1D40
:103B9000882331F00E94F51E0E94D61E0E942D2619
:103BA00085E00E949F1D81110E94181D0E94061F22
:103BB00080939C0287E00E949F1D882399F18BE1EE
:103BC0000E949F1D882351F090919C0291FB8827B1
:103BD00080F921E0822780FB91F922C08EE00E94CB
:103BE0009F1D882351F090919C0292FB882780F9B9
:103BF00021E0822780FB92F913C080E10E949F1D83
:103C000090919C02882341F093FB882780F921E062
:103C1000822780FB93F904C0892F809580FB90F95F
:103C200090939C0280919C020E940A1F0E94181F80
:103C300080939B0280EE0E949F1D882341F080911B
:103C40009B02982F909590FB80F980939B0289E3CB
:103C50000E949F1D882359F090919B0291FB882719
:103C600080F921E0822780FB91F990939B0282EEFC
:103C70000E949F1D882359F090919B0292FB8827F8
:103C800080F921E0822780FB92F990939B0286EED7
:103C90000E949F1D882359F090919B0293FB8827D7
:103CA00080F921E0822780FB93F990939B0283EEB9
:103CB0000E949F1D882359F090919B0294FB8827B6
:103CC00080F921E0822780FB94F990939B0285E3A1
:103CD0000E949F1D882359F090919B0295FB882795
:103CE00080F921E0822780FB95F990939B0281E384
:103CF0000E949F1D882359F090919B0296FB882774
:103D000080F921E0822780FB96F990939B0281E164
:103D10000E949F1D882359F090919B0297FB882752
:103D200080F921E0822780FB97F990939B02809194
:103D30009B020E941C1F87E20E949F1DC82F8EE1DC
:103D40000E949F1D8111C2608FE10E949F1D811101
:103D5000C46080E20E949F1D8111C86081E20E94C0
:103D60009F1D8111C06182E20E949F1D8111C0626E
:103D700083E20E949F1D8111C06484E20E949F1D06
:103D8000882311F0C06802C0CC2329F08C2F0E9438
:103D9000131F6C2F03C00E940F1F682F70E080E07C
:103DA00090E0CF910C948C19CF9108956DEE7EEF39
:103DB00080E090E00E94F72860E082E090E00E94BE
:103DC000E92860E083E090E00E94E92860E084E078
:103DD00090E00E94E92860E085E090E00E94E928F8
:103DE00060E086E090E00C94E9286FEF7FEF80E0E0
:103DF00090E00C94F72880E090E00E94E32821E016
:103E00008D3E9E4F09F020E0822F089582E090E0E1
:103E10000C94DB28682F82E090E00C94E92883E082
:103E200090E00C94DB28682F83E090E00C94E92864
:103E300084E090E00C94DB28682F84E090E00C9400
:103E4000E92886E090E00C94DB28682F86E090E07B
:103E50000C94E92880917B0280FF0CC080911101B5
:103E600090E065E070E00E94D6279595879595953E
:103E700087952EC081FF0AC08091110190E065E016
:103E800070E00E94D6279595879522C082FF08C0D2
:103E90008091110190E065E070E00E94D62718C083
:103EA00020917C022223D1F030911001231780F75A
:103EB0008091110190E065E070E00E94D627622FAA
:103EC00070E00E94D627632F70E00E94E727CB01A5
:103ED0008038910530F4009731F0089585E090E046
:103EE00008958FE7089581E0089580917B0280FF17
:103EF00008C060910F0170E075956795759567959D
:103F000024C081FF06C060910F0170E07595679530
:103F10001CC082FF04C060910F0170E013C090913B
:103F20007C029923D9F020910E019217A0F780917D
:103F30000F01692F70E090E00E94D627622F70E099
:103F40000E94E7276038710528F46115710521F09A
:103F5000862F08958FE7089581E0089561E070E06D
:103F6000F4CF803F21F40E942A1F819504C0813F35
:103F700029F40E942A1F80937F020895823F21F432
:103F80000E942A1F819504C0833F29F40E942A1FA2
:103F900080937E020895893F19F40E94751F05C021
:103FA0008A3F31F40E94751F8195809380020895A5
:103FB0008B3F21F40E94751F819504C08C3F29F42A
:103FC0000E94751F809381020895843F21F480919F
:103FD0007D02816017C0853F21F480917D0282605F
:103FE00011C0863F21F480917D0284600BC0873F21
:103FF00021F480917D02886005C0883F31F4809172
:104000007D02806180937D0208958D3F21F480912F
:104010007B0281600BC08E3F21F480917B02826025
:1040200005C08F3F29F480917B02846080937B02DE
:104030000895803F39F480917F0287FF6CC0109211
:104040007F0269C0813F29F480917F021816BCF37A
:1040500062C090917E02823F29F497FF5CC010926B
:104060007E0259C0833F19F41916CCF354C0893F1E
:1040700041F48091800218160CF04DC0109280021D
:104080004AC08A3F29F48091800287FF44C0F6CF5E
:104090008B3F39F48091810287FF3DC010928102ED
:1040A0003AC08C3F29F4809181021816BCF333C0CA
:1040B000843F21F480917D028E7F17C0853F21F4DB
:1040C00080917D028D7F11C0863F21F480917D0219
:1040D0008B7F0BC0873F21F480917D02877F05C0D5
:1040E000883F31F480917D028F7E80937D0213C0E2
:1040F0008D3F21F480917B028E7F0BC08E3F21F497
:1041000080917B028D7F05C08F3F29F480917B02D7
:104110008B7F80937B0280917E0281110EC0809103
:104120007F0281110AC080918002811106C08091B6
:104130008102811102C010927C0208958DE792E005
:104140000E94E90F0E94BE1C90937A02809379022C
:1041500008951F93CF93DF938091790290917A0213
:104160000E94CA1C9C0140917C02442321F0809152
:10417000120190E007C08091130190E06AE070E0C6
:104180000E94D6272817390708F482C080917E0242
:1041900010917F02D0918002C0918102811107C0ED
:1041A000111105C0D11103C0CC2309F471C04F3FD8
:1041B00019F04F5F40937C02181624F40E942A1FC6
:1041C00080937E0280917E0287FF05C00E942A1F95
:1041D000819580937E02111624F40E942A1F8093F9
:1041E0007F0280917F0287FF05C00E942A1F819570
:1041F00080937F0260917E02662339F110917F02E5
:10420000112319F1772767FD7095872F972F0E944B
:10421000DF2623E333E343E35FE30E9443270E9467
:10422000AC2660937E02612F772767FD7095872FFC
:10423000972F0E94DF2623E333E343E35FE30E94EB
:1042400043270E94AC2660937F021D1624F40E942F
:10425000751F809380028091800287FF05C00E94B5
:10426000751F8195809380021C1624F40E94751F8F
:10427000809381028091810287FF05C00E94751F93
:10428000819580938102DF91CF911F910C949E20A4
:10429000DF91CF911F910895EDE7F2E085E0DF0116
:1042A0001D928A95E9F710927C0210927B02089584
:1042B000833081F128F4813059F08230D1F00895B3
:1042C000853009F449C0B8F1863009F456C0089524
:1042D00020911301862F90E0820F911D8F3F910551
:1042E00020F4620F6093130108958FEF8093130100
:1042F000089520911201862F90E0820F911D8F3F2B
:10430000910520F4620F6093120108958FEF80935E
:104310001201089520911101862F90E0820F911DC6
:104320008F3F910520F4620F6093110108958FEF84
:1043300080931101089520911001862F90E0820F43
:10434000911D8F3F910520F4620F60931001089535
:104350008FEF80931001089520910F01862F90E038
:10436000820F911D8F3F910520F4620F60930F0122
:1043700008958FEF80930F01089520910E01862FED
:1043800090E0820F911D8F3F910520F4620F6093A2
:104390000E0108958FEF80930E010895833011F17F
:1043A00028F4813049F0823091F00895853081F110
:1043B00020F18630C1F1089580911301681720F42F
:1043C000861B809313010895109213010895809124
:1043D0001201681720F4861B809312010895109231
:1043E0001201089580911101681720F4861B8093B3
:1043F000110108951092110108958091100168171C
:1044000020F4861B809310010895109210010895E6
:1044100080910F01681720F4861B80930F01089587
:1044200010920F01089580910E01681720F4861BE9
:1044300080930E01089510920E01089580E0089572
:10444000CF93C82F80918502813009F430C120F0CC
:10445000823009F43AC180C1A0910C01B0910D01E4
:104460008C91823209F07AC18C2F0E941E22811118
:1044700079C1C73208F060C0CE3108F002C1CE3039
:1044800009F4AAC0C0F4C73009F499C068F4C63072
:1044900009F00AC180919C02817F8E7F80939C02EB
:1044A00081E0809385025EC1C83009F46DC0CB30D5
:1044B00009F458C1F9C0C73109F4AAC068F5C03180
:1044C00009F494C0C63109F0EFC00E94D20F1F92C8
:1044D0008F9381EA92E09F938F930E949302809141
:1044E0000B011F928F938AE892E09F938F930E9413
:1044F00093028091EA011F928F9387E792E09F9346
:104500008F930E9493028DB79EB70C960FB6F894C6
:104510009EBF0FBE8DBF26C1C93109F423C1CB3167
:1045200009F0C2C090919C0291FB882780F921E09C
:10453000822780FB91F963C0C93369F178F4C932ED
:1045400009F49AC020F4C73209F496C0ADC0C5334F
:1045500009F492C0C83309F405C1A6C0C63409F4F1
:1045600070C008F490C0C83409F09EC00E945D1568
:104570002FEF83ED90E3215080409040E1F700C0A1
:1045800000000E94181DEEC00E94061F0E94181F06
:104590000E94211FE7C00E94CD0F892B49F00E9485
:1045A000CD0F909383028093820280E090E004C05C
:1045B00080918202909183020E94C80FD3C08091A3
:1045C0009C0280FF03C0817F8E7F03C080919C028C
:1045D000816080939C02C6C090919C0292FB8827C8
:1045E00080F921E0822780FB92F909C090919C021A
:1045F00093FB882780F921E0822780FB93F9909331
:104600009C02882309F4AEC0916090939C02AAC0DA
:104610008091730290917402A0917502B09176021C
:10462000BF93AF939F938F938BEB92E09F938F9366
:104630000E9493020F900F900F900F900F900F9089
:1046400091C081E890E00E94F40F9FEF21EE84E09A
:10465000915020408040E1F700C0000080E090E0F1
:104660000E94F40F9FEF29E688E19150204080409E
:10467000E1F700C0000076C061E070E080E090E00B
:104680000EC0CD5101C0C95361E070E080E090E000
:1046900004C0660F771F881F991FCA95D2F70E9422
:1046A0008C190E945D155EC080E081705DC0C431D0
:1046B00049F0C93239F0C03109F052C082E080932C
:1046C00085024EC0109285024BC0C93291F120F58F
:1046D000C43179F1B0F4C73009F042C08EE1809363
:1046E000130182E3809312018AE08093110184E137
:1046F0008093100188E080930F0188E280930E017F
:104700002FC0CE51CA3060F5EC2FF0E0EB5DFE4FCC
:1047100080818093840224C0CE34C1F020F4CB3455
:10472000F9F46AE00EC0C13551F0C235C9F461E058
:1047300008C01092840281E08093850215C061E078
:1047400006C0809184020E9458210AC06AE08091CC
:1047500084020E94CE2104C01092850280E004C031
:1047600081E002C081E0A1CFCF910895E1E8F0E0BF
:104770008081886080838081816080838FB7F89496
:1047800093E09093890090ED909388008FBF0C94F4
:10479000C005EFE6F0E080818260808381E0809355
:1047A0009A020895EFE6F0E080818D7F8083109279
:1047B0009A0280E00E94420681E00E94420682E066
:1047C0000E94420683E00C944206E82FF0E0EE5689
:1047D000FD4F6083089580939202809393028093AB
:1047E0009402809395020895E82FF0E0EE56FD4F75
:1047F0004081242F30E08FEF90E0861B91098217D3
:1048000093071CF48FEF80830895640F60830895ED
:10481000E82FF0E0EE56FD4F8081861710F41082ED
:104820000895861B8083089521E030E001C0220FA7
:104830008A95EAF780919102822B809391020895E4
:1048400010929102089580939002089580938F02B0
:10485000089521E030E001C0220F8A95EAF78091A7
:104860008E02822B80938E02089510928E020895FC
:1048700080938D0208951F920F920FB60F9211240C
:10488000FF920F931F932F933F934F935F936F93D9
:104890007F938F939F93AF93BF93CF93DF93EF93C8
:1048A000FF9380918C028F5F80938C0206E912E067
:1048B000C0E0D0E0FC2E80918C02811109C08C2FC9
:1048C0000E94C605FE01EE56FD4F8081F8018083EF
:1048D000F80181918F0190918C02981303C08F2D64
:1048E0000E9442062196C430D10521F70091910221
:1048F000011105C020918E02211132C075C0809136
:104900008B028F5F80938B028134A0F310928B0215
:1049100080918A028F5F80938A0290918F0298170C
:1049200048F710928A02C0E0D0E010E0C8010C2ED7
:1049300002C0969587950A94E2F780FF0CC080919B
:10494000900261E0882321F08C2F0E94082403C08C
:104950008C2F0E94F4232196C430D10539F7CACF99
:10496000809189028F5F80938902813408F43CC072
:1049700010928902809188028F5F809388029091C3
:104980008D02981788F51092880260918702E62FB1
:10499000F0E0E153FD4FE49180E090E030E0A901C8
:1049A000082E02C0569547950A94E2F740FF04C0CE
:1049B000DC01AE56BD4FEC9301968430910579F73A
:1049C00080918602882339F0611103C0109286021B
:1049D0000BC0615007C06F3721F481E080938602DD
:1049E00003C06F5F60938702FF91EF91DF91CF91DA
:1049F000BF91AF919F918F917F916F915F914F91F7
:104A00003F912F911F910F91FF900F900FBE0F902C
:104A10001F9018950E94FB1E811102C00E94D61E95
:104A20000E94211F8093AC0280FF02C0869501C0C6
:104A300080E00C94D6058091AC02982F9695292F92
:104A400030E0283031054CF49F5F990F8170892B3D
:104A500081608093AC020E94251F8091AC028695F4
:104A60000C94D6058091AC02982F969591F09158B0
:104A7000990F8170892B8093AC028E7F91E009F4AD
:104A800090E08091AC0290FB80F98093AC020E9490
:104A9000251F8091AC0286950C94D6058091AC02BE
:104AA000982F9095917090FB80F98093AC02992398
:104AB00039F0982F9E7F21F4817082608093AC0240
:104AC0008091AC020E94251F8091AC0280FF02C041
:104AD000869501C080E00C94D6053091AC02232F5E
:104AE00026952F5F2F77822F90E0317009972CF455
:104AF000220F232B2093AC0202C03093AC02809192
:104B0000AC028E7F91E009F490E08091AC0290FBC2
:104B100080F98093AC020E94251F8091AC0286959B
:104B20000C94D605880F9091AC029170982B9093BD
:104B3000AC029E7F21E009F420E08091AC0220FBD2
:104B400080F98093AC020E94251F8091AC0286956B
:104B50000C94D605DF92EF92FF920F931F93CF93A1
:104B6000DF9380E190E00E94E3287C01C0E0D0E088
:104B70000DEE1EEF0E94E504D82E0E94E704682F78
:104B800070E08D2D90E00E94D62725E0880F991FB8
:104B90002A95E1F7805C9F4FC817D90770F4CE01C2
:104BA00042960E94DB28282F30E0C0FF02C0322F3F
:104BB0002227020F131F2196DDCF81E0E016F106B8
:104BC00009F080E0DF91CF911F910F91FF90EF905E
:104BD000DF90089590E0880F991F42960C94E32887
:104BE00090E0880F991F42960C94F728EF92FF925D
:104BF0001F93CF93DF931F92CDB7DEB7F82E162FFA
:104C000049830E94E504682F70E08F2D90E00E9498
:104C1000D6277C010E94E704682F70E0C7010E943C
:104C2000D6277C010E94E704682F70E0812F90E076
:104C30000E94D6278E0D9F1D4981840F911D8E5A8B
:104C40009F4F0F90DF91CF911F91FF90EF900C94A9
:104C5000DB288E5A9F4F0C94E9288F929F92AF9237
:104C6000BF92CF92DF92EF92FF920F931F93CF9359
:104C7000DF930E94EA027C010E94E7025C01E114DA
:104C8000F104F1F00E949F024C01C0E0D0E00DEE73
:104C90001EEFC815D90520F4F701C590D49002C0C5
:104CA000C12CD12CB6018C2F0E94F0250C0D1D1D9E
:104CB000219682E0E80EF11CC032D10551F702C006
:104CC0000DEE1EEFA114B10479F10E949C027C014B
:104CD000C0E0D0E00E94E504D82E0E94E704682FCF
:104CE00070E08D2D90E00E94D627F5E0880F991F87
:104CF000FA95E1F7C817D907B8F4CE15DF0528F4FF
:104D0000F501EC0FFD1FD49001C0D12C6D2DCE010B
:104D10000E9429266D2D70E0C0FF02C0762F662705
:104D2000060F171F2196D6CFB80180E190E0DF91E2
:104D3000CF911F910F91FF90EF90DF90CF90BF9098
:104D4000AF909F908F900C94F7280E94AA25811114
:104D500002C00C942D26089504D06894B1118DC022
:104D6000089570D088F09F5790F0B92F9927B751C8
:104D7000A0F0D1F0660F771F881F991F1AF0BA951F
:104D8000C9F712C0B13081F077D0B1E0089574C096
:104D9000672F782F8827B85F39F0B93FCCF3869515
:104DA00077956795B395D9F73EF490958095709572
:104DB00061957F4F8F4F9F4F0895E89409C097FBEF
:104DC0003EF490958095709561957F4F8F4F9F4FE2
:104DD0009923A9F0F92F96E9BB279395F695879526
:104DE00077956795B795F111F8CFFAF4BB0F11F4E9
:104DF00060FF1BC06F5F7F4F8F4F9F4F16C0882390
:104E000011F096E911C0772321F09EE8872F762FC5
:104E100005C0662371F096E8862F70E060E02AF006
:104E20009A95660F771F881FDAF7880F96958795F2
:104E300097F9089557FD9058440F551F59F05F3F5B
:104E400071F04795880F97FB991F61F09F3F79F0AC
:104E500087950895121613061406551FF2CF46952E
:104E6000F1DF08C0161617061806991FF1CF8695B0
:104E70007105610508940895E894BB276627772794
:104E8000CB0197F908950AD080C071D028F076D070
:104E900018F0952309F062C067C0EFCFCBDFA8F30D
:104EA0009923D9F35523C9F3950F50E0551FAA272D
:104EB000EE27FF27BB2700240894679520F4E20F14
:104EC000F31FB41F0A1E220F331F441FAA1F66952B
:104ED000A9F7779530F4F30FB41F0A1E121E08F4D9
:104EE0006395330F441FAA1F221F769599F7879564
:104EF00020F4B40F0A1E121E631F440FAA1F221FA4
:104F0000331F8695A9F7862F712D602D11249F5789
:104F100050408AF0E1F088234AF0EE0FFF1FBB1FDC
:104F2000661F771F881F91505040A9F79E3F51057B
:104F300070F014C0A2CF5F3FECF3983EDCF386958F
:104F400077956795B795F795E7959F5FC1F7FE2B26
:104F5000880F911D9695879597F9089597F99F6702
:104F600080E870E060E008959FEF80EC08950024F1
:104F70000A941616170618060906089500240A94BE
:104F800012161306140605060895092E0394000C44
:104F900011F4882352F0BB0F40F4BF2B11F460FFD3
:104FA00004C06F5F7F4F8F4F9F4F08950024552798
:104FB00004C0080E591F880F991F009729F0769595
:104FC0006795B8F37105B9F7802D952F089597FB74
:104FD000072E16F4009407D077FD09D00E94992877
:104FE00007FC05D03EF4909581959F4F08957095EC
:104FF00061957F4F0895A1E21A2EAA1BBB1BFD01EC
:105000000DC0AA1FBB1FEE1FFF1FA217B307E407A7
:10501000F50720F0A21BB30BE40BF50B661F771FFF
:10502000881F991F1A9469F76095709580959095DF
:105030009B01AC01BD01CF010895052E97FB1EF425
:1050400000940E94342857FD07D00E94FB2707FCDC
:1050500003D04EF40C94342850954095309521950A
:105060003F4F4F4F5F4F0895909580957095619594
:105070007F4F8F4F9F4F0895EE0FFF1F0590F491C4
:10508000E02D099468940013E894A0E0B0E0EBE40C
:10509000F8E20C946A28EFEFE7F959016A015E2300
:1050A000550FEE08FE2C87019B01AC019E23990F42
:1050B000660B762FCB010E94AD28CDB7DEB7EAE0B4
:1050C0000C9486282F923F924F925F926F927F921C
:1050D0008F929F92AF92BF92CF92DF92EF92FF9208
:1050E0000F931F93CF93DF93CDB7DEB7CA1BDB0BB4
:1050F0000FB6F894DEBF0FBECDBF09942A88398859
:1051000048885F846E847D848C849B84AA84B9845F
:10511000C884DF80EE80FD800C811B81AA81B9816B
:10512000CE0FD11D0FB6F894DEBF0FBECDBFED017F
:105130000895AA1BBB1B51E107C0AA1FBB1FA617DE
:10514000B70710F0A61BB70B881F991F5A95A9F730
:1051500080959095BC01CD010895DF93CF939F92E8
:10516000A0E49A2E0024D001E001F00116950795E5
:10517000F794E794D794C794B794A79448F4106829
:10518000A20FB31FC41FD51FE61FF71F081E191E4D
:10519000220F331F441F551F661F771F881F991F3B
:1051A0009A9421F79D01AE01BF01C00111249F9087
:1051B000CF91DF910895F999FECF92BD81BDF89A04
:1051C000992780B50895A8E1B0E042E050E00C9442
:1051D000FE28262FF999FECF1FBA92BD81BD20BDB2
:1051E0000FB6F894FA9AF99A0FBE019608950E94A4
:1051F000E928272F0C94EA28DC01CB01FC01F9995E
:10520000FECF06C0F2BDE1BDF89A319600B40D9212
:0C52100041505040B8F70895F894FFCFCB
:10521C0001CF065C0739070507D206016902280889
:10522C00140A321EFF403F4D361102C4018E013A62
:10523C000153016C01010203040506070809000073
:00000001FF
