:1070000055C000008AC0000088C0000086C0000093
:1070100084C0000082C0000080C000007EC000006C
:107020007CC000007AC00000ABC5000076C0000044
:1070300074C0000072C0000070C000006EC000008C
:107040006CC000006AC0000068C0000066C000009C
:10705000EEC1000062C0000060C000005EC0000021
:107060005CC000005AC0000058C0000056C00000BC
:1070700054C0000052C0000050C000004EC00000CC
:107080004CC000004AC0000048C0000046C00000DC
:1070900044C0000042C0000040C000003EC00000EC
:1070A0003CC000003AC0000038C0000011241FBEE0
:1070B000CFEFDAE0DEBFCDBF04B603FE19C080918A
:1070C0008F019091900182349C4D91F484B7877F19
:1070D00084BF88E10FB6F89480936000109260003E
:1070E0000FBE1092900110928F01E0E0F0E0099540
:1070F00011E0A0E0B1E0E6E9FEE702C005900D92E4
:10710000A237B107D9F721E0A2E7B1E001C01D9293
:10711000AF38B207E1F73CD1BCC672CF8823C9F0C3
:107120009091F3002091F20030E0392B232B69F489
:107130009091E8009B7F9093E8009091E80092FD89
:1071400006C09EB39111F9CF04C09091F100815017
:10715000E5CF089530917F0120917E0190917D01CE
:1071600080917C019093740180937501C901909383
:1071700072018093730108951F93CF93DF93CDB76E
:10718000DEB727970FB6F894DEBF0FBECDBF909144
:10719000840180917A019923D1F0843049F480915F
:1071A0007B01811108C080917C018F3F21F45AC07E
:1071B000853009F4ADC08AE08093000183E08093BC
:1071C00082018091EB0080628093EB00D7C0843015
:1071D00009F448C028F4813051F08330F1F0CEC07A
:1071E000853009F495C0863009F4BCC0C7C0109141
:1071F0007B01123008F0C2C0ADDF11110CC08091CC
:1072000074019091750123E0FC0120935700E895EB
:1072100007B600FCFDCF85E007C080917B01982F69
:107220009D7F29F497DF89E080930001A7C081301A
:1072300009F0A4C0E0E0F0E084918F3F69F0109283
:107240007601F0937501E09374018AE08093000168
:1072500085E08093820192C03196E11520E7F20724
:1072600059F78CC080917B01833071F581E0809368
:107270008301809180019091810120917C01892B73
:1072800061F0213009F07AC090917F0180917E01F8
:10729000909377018093780171C0211112C082E42C
:1072A0009CED9093900180938F012CE088E190E019
:1072B0000FB6F894A895809360000FBE20936000ED
:1072C0005DC0109201015AC0811158C080917C01AB
:1072D0008F3F09F053C0E0E0F0E083E095E0809359
:1072E0005700E89507B600FCFDCF90935700E8954E
:1072F00007B600FCFDCFE058FF4FE11520E7F2078D
:1073000071F781E180935700E8951092840136C0AF
:1073100080E28D838CED8E838BEF8F8388E589836C
:107320008EE18A8385E98B8387E88C8320917C01B9
:1073300080917B01811105C0FE01E20FF11D858165
:107340000EC08130D9F4822F90E0FE01203610F477
:10735000BF9702C0EC55F109E80FF91F80818093B7
:1073600079010CC080917B01833041F480917C01D4
:10737000811104C080917D018093760127960FB61C
:10738000F894DEBF0FBECDBFDF91CF911F9108955E
:1073900084B7877F84BF88E10FB6F894809360003C
:1073A000109260000FBE90E080E80FB6F8948093D2
:1073B0006100909361000FBEC1E0C5BF82E085BF50
:1073C000C2D384B1816384B985B1816385B9559A8B
:1073D0005D9A6E9A7698C0936F0083E080938100E7
:1073E00085B18E7C85B95D987698789480910101FD
:1073F000882311F030D5FACF809183018111FACF23
:107400004FD384B18E7C84B985B18E7C85B9559873
:107410005D986E98769810926F001092810081E0CE
:1074200085BF15BEE0917701F091780109951F9213
:107430000F920FB60F9211248F9381E383B980E2EC
:1074400089B980E48CB98F910F900FBE0F901F9077
:107450001895CF92DF92EF92FF920F931F93CF93E5
:10746000DF93809187018F77813209F002C281E337
:1074700083B980E289B980E48CB980918D019091C3
:107480008E019093810180938001809188018330E7
:1074900009F4B0C158F48130D1F0823009F0E9C16B
:1074A0008091E800877F8093E8000FC1853009F460
:1074B000C7C108F4BDC1863009F0DBC18091E80086
:1074C000877F8093E80082E080930001C9C18091AA
:1074D000E800877F8093E80080918301882319F07A
:1074E0004BDE109283018091800190918101009781
:1074F00061F12091E80022FD04C02EB32111F9CFE3
:10750000B8C12091F10020937A01019790938101F5
:1075100080938001EBE7F1E02091F3008091F2008D
:1075200090E0922B892B81F08091F10081938091E2
:107530008001909181010197909381018093800156
:1075400081E0E038F80741F717DE809100018530CF
:1075500009F0B3C08091800190918101892B21F4C1
:1075600082E080930001A9C08AE1D8DDE090740137
:10757000F09075018E2D8F71D1DD00917201109107
:1075800073010F5F1F4F0E191F0980917B0181113D
:107590008AC0E801D695C795C70120917601A22F30
:1075A000B0E08C019D01F12CEE24E39465E0D62E31
:1075B00073E0C72E209709F446C06091F300409114
:1075C000F20050E0562B452BD1F021977091F1003D
:1075D0006091F100472F562FFC010A01E0925700FD
:1075E000E8951124F394AC01BD014E5F5F4F6F4FDE
:1075F0007F4FDB01CA01F0E4FF120EC00FC04091C3
:10760000E8004B7F4093E8004091E80042FDDDCF69
:107610004EB34111F9CF2DC1209761F6F801D092F8
:107620005700E89507B600FCFDCF209709F4C2CFBC
:10763000FA01C0925700E89507B600FCFDCF8A0119
:107640009B01F12CB7CF80917201909173019093BF
:1076500075018093740181E180935700E8952BC0F8
:107660002091F3008091F20090E0922B892B49F455
:107670008091E8008B7F8093E8008091E80082FF92
:1076800016C0015011096091F10080917401909130
:107690007501F1D3809174019091750101969093D9
:1076A00075018093740101151105D1F604C08EB3E4
:1076B0008111E3CFDEC080E131DD8091E8008B7F76
:1076C00096C08EB3882309F4D4C08091E80080FF6F
:1076D000F8CF80910001893091F08A3059F480917F
:1076E0007B01813039F49091740180917501909300
:1076F000F10002C0809179018093F10075C0409142
:1077000074015091750120917201309173012F5FC6
:107710003F4F241B350B80917B01811136C0CA017C
:1077200040917601A42FB0E03695279521153105BB
:1077300019F16091F3004091F20050E0562B403275
:10774000510569F44091E8004E7F4093E800409174
:10775000E80040FD04C04EB34111F9CF8AC0FC01DE
:10776000459154914093F1005093F1000296A11D70
:10777000B11D21503109DACF8091720190917301CE
:1077800090937501809374012CC0823051F5E9010A
:10779000209739F12091F3008091F20090E0922B34
:1077A000809769F48091E8008E7F8093E800809153
:1077B000E80080FD04C08EB38111F9CF5AC08091DA
:1077C0007401909175014FD38093F1008091740101
:1077D00090917501019690937501809374012197A2
:1077E000D7CF82E0809300018091E8008E7F809364
:1077F000E80036C08091E800877F8093E8008091A0
:10780000E80080FD04C08EB38111F9CF32C08091B1
:1078100082018093F1001092F1001092F100109219
:10782000F100809100018093F1001092F100DCCF13
:107830008091E800877F8093E8001092820110C059
:107840008091E800877F8093E8008091E80080FDC8
:1078500004C08EB38111F9CF0CC0809100014CCFD0
:10786000DF91CF911F910F91FF90EF90DF90CF901C
:10787000F8C0DF91CF911F910F91FF90EF90DF90B3
:10788000CF900895292F30E02230310539F0233090
:10789000310549F02130310561F410C08BE190E0F1
:1078A00024E431E01EC0882371F0813089F08230F9
:1078B000A1F080E090E020E030E013C082E190E0B1
:1078C0002FE531E00EC084E090E020E431E009C013
:1078D00084E290E02AE131E004C086E190E022E019
:1078E00031E0FA0131832083089507B600FCFDCF13
:1078F000F999FECF23E0FB0120935700E89507B6E6
:1079000000FCFDCF81E180935700E895089507B60C
:1079100000FCFDCFF999FECF25E0FB012093570035
:10792000E89507B600FCFDCF81E180935700E8950C
:10793000089507B600FCFDCFF999FECF21E0FB01C9
:107940000A0120935700E8951124089521E2FC01D3
:10795000209357008491089529E0FC01209357005B
:1079600084910895E1E0F0E089E0809357008491EC
:10797000089507B600FCFDCFF999FECF809599E0F8
:10798000E1E0F0E0082E90935700E89508952091EB
:107990008D0130918E012617370748F0611571056A
:1079A00039F42091E8002E7F2093E80001C0B9014E
:1079B000FC0120E061157105A1F18EB38823E1F18E
:1079C0008530E1F18091E80083FD34C08091E800CA
:1079D00082FF06C08091E80082FF26C080E0089503
:1079E0008091E80080FFE6CF2091F3008091F200C3
:1079F00090E0922B6115710551F08032910538F4B9
:107A000021912093F100615071090196F3CF21E09B
:107A1000809709F020E08091E8008E7F8093E80055
:107A2000C9CF2111CACFD6CF8EB3882329F0853094
:107A300089F604C081E0089582E0089583E0089506
:107A4000EBEEF0E0808181608083EDEEF0E010826B
:107A50006093EC0040838091EE00881F8827881F88
:107A600008958091870187FD05C08091E80080FF1F
:107A70000DC010C08091E80082FD04C08EB381115A
:107A8000F9CF08958091E8008B7F07C08EB38111F4
:107A9000ECCF08958091E8008E7F8093E8000895F0
:107AA00062D069D0E0EEF0E0808181608083E8ED13
:107AB000F0E080818F77808319BCA7EDB0E08C91D6
:107AC0008E7F8C9380818F7E8083109286010895B3
:107AD0000F931F93CF93DF9346D04DD0C8EDD0E0E6
:107AE00088818F77888388818068888388818F7D6B
:107AF000888319BC1EBA1092850100EE10E0F801CF
:107B000080818B7F808388818160888342E260E00E
:107B100080E096DFE1EEF0E080818E7F8083E2EE10
:107B2000F0E0808181608083808188608083F801BB
:107B300080818E7F8083888180618883DF91CF916F
:107B40001F910F910895E8EDF0E080818F7E808392
:107B5000E7EDF0E080818160808384E082BF81E096
:107B600080938601B5CFE8EDF0E080818E7F808341
:107B70001092E20008951092DA001092E100089548
:107B80001F920F920FB60F9211242F933F934F9392
:107B90005F936F937F938F939F93AF93BF93EF9375
:107BA000FF938091DA0080FF1BC08091D80080FF96
:107BB00017C08091DA008E7F8093DA008091D9001F
:107BC00080FF0BC080E189BD82E189BD09B400FE60
:107BD000FDCF81E08EBB3ED103C019BC1EBA3AD1A5
:107BE0008091E10080FF17C08091E20080FF13C008
:107BF0008091E2008E7F8093E2008091E2008061BC
:107C00008093E2008091D80080628093D80019BCF4
:107C100085E08EBB1FD18091E10084FF2EC0809152
:107C2000E20084FF2AC080E189BD82E189BD09B4F8
:107C300000FEFDCF8091D8008F7D8093D800809189
:107C4000E1008F7E8093E1008091E2008F7E80933F
:107C5000E2008091E20081608093E20080918501E2
:107C6000882311F084E007C08091E30087FF02C001
:107C700083E001C081E08EBBEDD08091E10083FF05
:107C800021C08091E20083FF1DC08091E100877FC9
:107C90008093E10082E08EBB109285018091E1002B
:107CA0008E7F8093E1008091E2008E7F8093E200DE
:107CB0008091E20080618093E20042E260E080E037
:107CC000BFDEC8D0FF91EF91BF91AF919F918F918F
:107CD0007F916F915F914F913F912F910F900FBEC8
:107CE0000F901F9018951F93CF93DF9300D0CDB7BF
:107CF000DEB7E7E8F1E08091F100819381E0EF38B1
:107D0000F807C9F7A6DB8091E80083FF8FC0909148
:107D10008701809188018630E1F128F4882351F0B1
:107D20008530B1F083C0883009F453C0893009F43C
:107D300062C07CC09D7F903809F078C08091E800D7
:107D4000877F8093E8001092F1001092F1004CC000
:107D500091116CC0109189011F778091E3008078A8
:107D6000812B8093E3008091E800877F8093E80077
:107D700078DE8091E80080FFFCCF8091E30080688E
:107D80008093E300112311F083E001C082E08EBBF9
:107D90004DC09058923008F049C0AE014F5F5F4F20
:107DA00060918B018091890190918A016BDD009730
:107DB00009F43CC02091E800277F2093E800BC0133
:107DC00089819A81E4DD8091E8008B7F8093E800CF
:107DD0002DC0903859F58091E800877F8093E800A6
:107DE000809185018093F1008091E8008E7F8093DF
:107DF000E80037DE1BC0911119C0909189019230C3
:107E0000A8F48091E800877F8093E8009093850133
:107E100028DE80918501811104C08091E30087FFF5
:107E200002C084E001C081E08EBB14D08091E800E4
:107E300083FF0AC08091E800877F8093E8008091EB
:107E4000EB0080628093EB000F900F90DF91CF9159
:107E50001F91089508958EB3882321F08091E80042
:107E600083FD41CF0895F999FECF92BD81BDF89A67
:107E7000992780B50895262FF999FECF1FBA92BD94
:107E800081BD20BD0FB6F894FA9AF99A0FBE0196FB
:067E90000895F894FFCFF5
:107E9600020116034B0069006D0065007200610067
:107EA6002000440046005500000024036B006100DA
:107EB60069003100310030003300400067006D007A
:107EC600610069006C002E0063006F006D00000009
:107ED6000403090409021B000101008032090400A1
:107EE6000000FE0102000921030000000C1001122F
:107EF60001100100000020EB03F42F000001020036
:027F0600010078
:107FA000A4CCB5CCC6CCD2CCD7CCDCCCE2CC08951A
:087FB000089508950895089555
:107FE000DFCFDFCFDFCFDFCFDFCFDFCFDFCFDFCF21
:087FF000DFCFDFCFDFCFDFCFD1
:087FF8000070000010DFFBDC4B
:040000030000700089
:00000001FF
