:100000000C94CE070C9412080C9412080C9412084D
:100010000C9412080C9412080C9412080C941208F8
:100020000C9412080C9412080C947F0E0C945E0F22
:100030000C9453200C9412080C9412080C9412087F
:100040000C9412080C9412080C9412080C941208C8
:100050000C9412080C94CC1F0C9412080C941208E7
:100060000C9412080C9412080C9412080C941208A8
:100070000C9412080C9412080C9412080C94120898
:100080000C9412080C9412080C9412080C94120888
:100090000C9412080C9412080C9412080C94120878
:1000A0000C9412080C9412080C941208E310051119
:1000B00000120511001247116B110012C011D4116A
:1000C000301530155E155E15C115FD151918191876
:1000D000151619180C170C17A917BD17191807189A
:1000E0009029B829D927812A812A4529812A812A5C
:1000F000DB29812AEE294B2A812A812A812A812A19
:10010000382A1F2A812A082A812AC829812A812A75
:100110007A2A7A2A7A2A7A2A7A2A7A2A7A2A7A2ABF
:100120007A2A782A812A782A812A812A812A812A90
:10013000812A812A812A812A812A812A812A782A70
:10014000812A812A45292B297C2A7C2A7C2A7C2AFF
:100150007C2A7C2A7C2A7C2A7C2A7C2A7C2A7C2A6F
:100160005D2A812AA4290A002530313662003A200E
:100170000025303258000A722F6320303132333478
:1001800035363738394142434445460A000A00258E
:1001900030325800626F756E6365213A200000109E
:1001A00080FF4B6579626F61726420737461727451
:1001B0002E0A0055534220636F6E6669677572653B
:1001C000642E0A000A034700480036003000000091
:1001D00012036700650065006B0068006100630042
:1001E0006B0000000403090409028D00050100A052
:1001F000320904000001030101000921110100017D
:10020000223F0007058103080001090401000103E2
:10021000010200092111010001224D00070582039E
:100220000800010904020001030000000921110176
:1002300000012236000705830308000109040300BA
:10024000020300000009211101000122200007051E
:1002500084032000010705050320000109040400B0
:1002600001030000000921110100012239000705E6
:1002700086031000011201100100000008EDFE606D
:100280006001000102000105010906A1010507192D
:10029000E029E71500250195087501810205081977
:1002A00001290595057501910295017503910105D7
:1002B000071900297715002501957875018102C07D
:1002C0000631FF0974A1010975150025FF952075F8
:1002D0000881020976150025FF952075089102C056
:1002E00005010980A101850216010026B7001A0147
:1002F000002AB700751095018100C0050C0901A105
:10030000018503160100269C021A01002A9C027531
:100310001095018100C005010902A1010901A10098
:1003200005091901290515002501950575018102A9
:100330009501750381010501093009311581257F7A
:1003400095027508810609381581257F9501750884
:100350008106050C0A38021581257F9501750881F3
:1003600006C0C005010906A101050719E029E71526
:100370000025019508750181029501750881010527
:1003800008190129059505750191029501750391DB
:10039000010507190029FF150025FF95067508813D
:1003A00000C00A002530325820006B6579626F6109
:1003B00072645F7265706F72743A20000A002530B3
:1003C0003258006B6579626F6172645F7365745F48
:1003D0006C65643A200064656C5F6B65795F626987
:1003E000743A2063616E27742064656C3A2025306E
:1003F00032580A006164645F6B65795F6269743AC0
:100400002063616E2774206164643A20253032587D
:100410000A00646F6E652E0A00626F6F676D616718
:100420006963207363616E3A202E2E2E2000290A04
:10043000002575002F002575005D2800256400202B
:1004400000256400200025640020002564007C0055
:1004500025303258006D6F7573656B6579205B626E
:10046000746E7C782079207620685D287265702F04
:1004700061636C293A205B000A002575006D6B5F93
:10048000776865656C5F74696D655F746F5F6D61DA
:1004900078203D20000A002575006D6B5F77686548
:1004A000656C5F6D61785F7370656564203D2000E9
:1004B0000A002575006D6B5F74696D655F746F5F11
:1004C0006D6178203D20000A002575006D6B5F6D21
:1004D00061785F7370656564203D20000A002575B2
:1004E000006D6B5F696E74657276616C203D2000F3
:1004F0000A002575006D6B5F64656C6179203D2095
:10050000000A002575006D6B5F776865656C5F7428
:10051000696D655F746F5F6D6178203D20000A0032
:100520002575006D6B5F776865656C5F6D61785FE1
:100530007370656564203D20000A002575006D6BB1
:100540005F74696D655F746F5F6D6178203D200039
:100550000A002575006D6B5F6D61785F737065656E
:1005600064203D20000A002575006D6B5F696E7484
:10057000657276616C203D20000A002575006D6B68
:100580005F64656C6179203D20000A0025750036A6
:100590003A206D6B5F776865656C5F74696D655F48
:1005A000746F5F6D61783A20000A00257500353A56
:1005B000206D6B5F776865656C5F6D61785F7370E8
:1005C0006565643A20000A00257500343A206D6B99
:1005D0005F74696D655F746F5F6D61783A20000AC2
:1005E00000257500333A206D6B5F6D61785F737025
:1005F0006565643A20000A00257500323A206D6B6B
:100600005F696E74657276616C286D73293A20009B
:100610000A00257500313A206D6B5F64656C617965
:10062000282A31306D73293A20000A0A2D2D2D2DEC
:100630002D204D6F7573656B657920506172616D0A
:100640006574657273202D2D2D2D2D0A003E20001E
:100650002575004D003F0073657420646566617503
:100660006C742076616C7565732E0A000A0025751E
:100670000073656C656374656420706172616D659B
:100680007465723A2000433E20000A517569742057
:100690004D6F7573656B657920436F6E736F6C6515
:1006A0000A0053656520687474703A2F2F656E2EAA
:1006B00077696B6970656469612E6F72672F7769FE
:1006C0006B692F4D6F7573655F6B6579730A000AEF
:1006D000002575002C20776865656C3D0025750048
:1006E00077686572652064656C74613A2063757221
:1006F000736F723D000A7370656564203D20646508
:100700006C7461202A206D61785F73706565642068
:100710002A2028726570656174202F2074696D65C8
:100720005F746F5F6D6178290A007067646F776E20
:100730003A096465637265617365207072616D6505
:1007400074657273282D3130290A00706775703A0C
:1007500009696E637265617365207072616D65749D
:10076000657273282B3130290A00646F776E3A095D
:100770006465637265617365207072616D6574652F
:100780007273282D31290A0075703A09696E6372F7
:1007900065617365207072616D6574657273282B75
:1007A00031290A00643A09736574206465666175CD
:1007B0006C742076616C7565730A00703A0970720A
:1007C000696E74207072616D65746572730A0036AB
:1007D0003A0973656C656374206D6B5F7768656556
:1007E0006C5F74696D655F746F5F6D61780A003569
:1007F0003A0973656C656374206D6B5F7768656536
:100800006C5F6D61785F73706565640A00343A09E6
:1008100073656C656374206D6B5F74696D655F747F
:100820006F5F6D61780A00333A0973656C656374B4
:10083000206D6B5F6D61785F73706565640A00326F
:100840003A0973656C656374206D6B5F696E7465DE
:100850007276616C286D73290A00313A0973656CF0
:10086000656374206D6B5F64656C6179282A313033
:100870006D73290A004553432F713A0971756974E4
:100880000A000A0A2D2D2D2D2D204D6F7573656BD5
:10089000657920506172616D657465727320486579
:1008A0006C70202D2D2D2D2D0A003F004D303E0067
:1008B0000A456E746572204D6F7573656B6579209E
:1008C000436F6E736F6C650A000A5175697420433B
:1008D0006F6E736F6C65204D6F64650A00433E2038
:1008E000000A0025750020746F20002575007377BD
:1008F000697463685F64656661756C745F6C617967
:1009000065723A20006D3A096D6F7573656B657994
:100910000A004553432F713A09717569740A000A38
:100920000A2D2D2D2D2D20436F6E736F6C65204881
:10093000656C70202D2D2D2D2D0A00506175733A98
:10094000096A756D7020746F20626F6F746C6F61CF
:100950006465720A00436170733A094C6F636B20DF
:100960004B6579626F617264284368696C642050DA
:10097000726F6F66290A00505363723A09706F777D
:10098000657220646F776E2F72656D6F7465207766
:10099000616B652D75700A00342F46343A09737700
:1009A0006974636820746F204C6179657234200A21
:1009B00000332F46333A0973776974636820746F84
:1009C000204C6179657233200A00322F46323A0991
:1009D00073776974636820746F204C617965723233
:1009E000200A00312F46313A097377697463682011
:1009F000746F204C6179657231200A00302F4631C6
:100A0000303A0973776974636820746F204C617998
:100A1000657230200A006E3A09746F67676C652052
:100A20004E4B524F0A00653A097072696E74206528
:100A30006570726F6D20636F6E6669670A00733A46
:100A4000097072696E74207374617475730A00742E
:100A50003A097072696E742074696D657220636FF3
:100A6000756E740A00763A097072696E7420646556
:100A7000766963652076657273696F6E20262069DA
:100A80006E666F0A006D3A09746F67676C65206D5A
:100A90006F7573652064656275670A006B3A097447
:100AA0006F67676C65206B6579626F617264206443
:100AB000656275670A00783A09746F67676C65202C
:100AC0006D61747269782064656275670A00643AC2
:100AD00009746F67676C6520646562756720656E71
:100AE00061626C650A00633A09656E746572206321
:100AF0006F6E736F6C65206D6F64650A000A0A2D56
:100B00002D2D2D2D20436F6D6D616E642048656C19
:100B100070202D2D2D2D2D0A000A002575002E6C1C
:100B20006576656C3A20000A002575002E656E61B9
:100B3000626C653A20000A00253032580062616319
:100B40006B6C696768745F636F6E6669672E72614C
:100B5000773A20000A002575002E737761705F6276
:100B600061636B736C6173685F6261636B73706107
:100B700063653A20000A002575002E737761705F67
:100B800067726176655F6573633A20000A002575B8
:100B9000002E6E6F5F6775693A20000A00257500A8
:100BA0002E737761705F72616C745F726775693AFA
:100BB00020000A002575002E737761705F6C616CF0
:100BC000745F6C6775693A20000A002575002E6312
:100BD0006170736C6F636B5F746F5F636F6E747261
:100BE0006F6C3A20000A002575002E737761705FE4
:100BF000636F6E74726F6C5F636170736C6F636B45
:100C00003A20000A0025303258006B65796D61701A
:100C10005F636F6E6669672E7261773A20000A0023
:100C20002575002E6D6F7573653A20000A002575D5
:100C3000002E6B6579626F6172643A20000A0025AC
:100C400075002E6D61747269783A20000A0025756E
:100C5000002E656E61626C653A20000A0025303214
:100C6000580064656275675F636F6E6669672E72B0
:100C700061773A20000A0025750064656661756C2D
:100C8000745F6C617965723A20003F004E4B524FA1
:100C90003A2064697361626C65640A004E4B524F7E
:100CA0003A20656E61626C65640A00686F73745FF8
:100CB0006B6579626F6172645F6C65647328293A51
:100CC0002025580A000A0A2D2D2D2D2D2053746140
:100CD000747573202D2D2D2D2D0A0074696D65728C
:100CE0005F636F756E743A202530346C580A004784
:100CF00043433A20342E382E31204156522D4C4950
:100D000042433A20312E382E3073766E20415652AF
:100D10005F415243483A20617672350A004F505481
:100D2000494F4E533A204C55464120424F4F544D67
:100D300041474943204D4F5553454B455920455850
:100D40005452414B455920434F4E534F4C4520433D
:100D50004F4D4D414E44204E4B524F204B45594D27
:100D600041505F53454354494F4E20343039360A81
:100D7000004255494C443A20353430323863322DE4
:100D80006469727479202830393A32333A31352027
:100D90004170722020392032303134290A005649FE
:100DA000443A20307846454544286765656B68615C
:100DB000636B29205049443A203078363036302849
:100DC0004748363029205645523A20307830303066
:100DD000310A00444553433A20742E6D2E6B2E2069
:100DE0006B6579626F617264206669726D7761729A
:100DF0006520666F7220474836300A000A0A2D2D9A
:100E00002D2D2D2056657273696F6E202D2D2D2D81
:100E10002D0A000A44454255473A206D6F757365A7
:100E20002064697361626C65642E0A000A4445425D
:100E300055473A206D6F75736520656E61626C650C
:100E4000642E0A000A44454255473A206B65796290
:100E50006F6172642064697361626C65642E0A005C
:100E60000A44454255473A206B6579626F61726466
:100E700020656E61626C65642E0A000A4445425525
:100E8000473A206D61747269782064697361626C9D
:100E900065642E0A000A44454255473A206D617444
:100EA00072697820656E61626C65642E0A000A447E
:100EB000454255473A20656E61626C65642E0A00B2
:100EC0000A44454255473A2064697361626C65641F
:100ED0002E0A006E6F7420737570706F7274656483
:100EE0002E0A000A0A4A756D7020746F20626F6FB7
:100EF000746C6F616465722E2E2E2000433E2000BC
:100F00000A456E74657220436F6E736F6C65204D79
:100F10006F64650A00556E6C6F636B65642E0A0022
:100F20004C6F636B65642E0A006565636F6E66695E
:100F3000673A0A006261636B6C6967687420737456
:100F400065703A2025750A006261636B6C69676899
:100F50007420746F67676C653A2025750A006261BA
:100F6000636B6C6967687420637573746F6D20645C
:100F7000656372656173653A2025750A0062616375
:100F80006B6C6967687420637573746F6D20696E2C
:100F90006372656173653A2025750A0011241FBECE
:100FA000CFEFDAE0DEBFCDBF04B603FE24C08091F0
:100FB000E7019091E801A091E901B091EA01873041
:100FC000904BA740B04BB9F41092E7011092E801A2
:100FD0001092E9011092EA0114BE84B7877F84BFA2
:100FE00088E10FB6F89480936000109260000FBE05
:100FF000E0E0F8E3099511E0A0E0B1E0E8EBFDE501
:1010000002C005900D92A833B107D9F721E0A8E3FB
:10101000B1E001C01D92A73EB207E1F70E94A20C09
:101020000C94DA2E0C940000FF93EF93E091C8012A
:10103000F091C901309709F00995EF91FF9108955A
:10104000FC018591803011F0EFDFFBCF0895FF2781
:10105000E0E230E247FF0CC0419597FF09C0EDE2A6
:101060006095709580959095611D711D811D911DF4
:1010700027FF02C0219530E350E2AA27660F771FB1
:10108000881F991FAA1FA41710F0A41B63955A95D7
:10109000A9F7AA3008F0A95FA05DAF93F395611599
:1010A00071058105910541F7ED3211F4EF93F39548
:1010B000F21718F43F93F395FBCF8F91B5DFFA95B4
:1010C000E1F70895E991F9918591803021F0853219
:1010D00019F0AADFF9CF089520E0E8945591553230
:1010E000C1F3503311F4689455915A3348F4505376
:1010F00090F3220F022E220F220F200D250FF4CF86
:101100000EF4219589919991533619F3533729F1AA
:10111000533559F1BC0188279927E8945C3621F4AE
:101120008991999168945591543639F446EF7EF03F
:1011300077FF0DC08FEF9FEF0AC055374AE039F0B7
:10114000583540E121F0523642E009F00895FF930E
:10115000EF937DDFEF91FF91B7CFFF93EF93FC010A
:1011600081918030B9F360DFFBCFFF93EF9368DFAD
:10117000F1CFDF93CF93CDB7DEB72596A3DFCF9125
:10118000DF91089580E392E0089580E290E0089571
:10119000462F672F0C94CA2C805C0E94DE2C089589
:1011A00080E498E6089580E098E608958AB1807D0D
:1011B0008AB98BB1807D8BB9089580E885BF85BFE2
:1011C0000E94D60880B38C7F80BB81B3836081BBD3
:1011D0006E98769A8AB18F728AB98BB1806D8BB90D
:1011E00087B18F7387B988B1806C88B984B18474F2
:1011F00084B985B18B6B85B9E2E4F1E0A8E3B1E095
:10120000119211921D921D9281E0EC34F807C1F702
:101210000895CF92DF92EF920F931F93CF93DF93B6
:10122000C8E3D1E010E001E0A5E0EA2EBFE8CB2E54
:10123000B1E0DB2E123071F018F4113041F004C02F
:10124000133059F0143061F0509A58980BC0519AED
:10125000599808C0529A5A9805C0539A5B9802C090
:10126000559A5D9880EA8A95F1F72FB12170202771
:1012700030E0799B03C080E090E002C082E090E023
:10128000282B392B669B03C080E090E002C084E0ED
:1012900090E0282B392B86B1992787FD9095809572
:1012A00090958827990F881F9927F3E0880F991F39
:1012B000FA95E1F7282B392B369B03C080E090E0AC
:1012C00002C080E190E0282B392B83B1992787FD5C
:1012D0009095809590958827990F881F992775E09C
:1012E000880F991F7A95E1F7282B392B4C9B03C067
:1012F00060E070E002C060E470E0262B372B199BA1
:1013000003C060E070E002C060E870E0262B372B7D
:10131000189B03C040E050E002C040E051E0242BA5
:10132000352B1D9B03C080E090E002C080E092E07E
:10133000282B392B1C9B03C080E090E002C080E08A
:1013400094E0282B392B89B1992787FD90958095BA
:1013500090958827990F881F9927982F8827990F8C
:10136000990F990F282B392B4E9B03C080E090E0FA
:1013700002C080E090E1282B392B1B9B03C080E04A
:1013800090E002C080E090E2282B392B888199817F
:101390008217930741F139832883809100018823C4
:1013A00001F18091D80180FF04C084E991E00E949E
:1013B00020088091D80180FF0CC0809100011F920D
:1013C0008F93DF92CF920E94B9080F900F900F90E9
:1013D0000F908091D80180FF04C08DE891E00E94B9
:1013E0002008E09200010E94D6081F5F2296153067
:1013F00009F020CF809100018823C1F081508093B3
:101400000001882339F08FE99FE00197F1F700C0D0
:1014100000000CC0A2E4B1E0E8E3F1E08191919119
:101420008D939D9391E0E234F907C1F781E0DF915C
:10143000CF911F910F91EF90DF90CF900895E82FFB
:10144000F0E0EE0FFF1FEE5BFE4F8081918108956B
:10145000CF92DF92EF92FF920F931F93CF93DF9380
:1014600086E791E00E94200822E4E22E21E0F22E9D
:10147000C0E0D0E031E7C32E31E0D32E08E611E022
:10148000DF93CF93DF92CF920E94B9088EE691E06E
:101490000E942008F701819191917F010E94C22052
:1014A0009F938F931F930F930E94B90886E691E054
:1014B0000E94200821968DB79EB708960FB6F89423
:1014C0009EBF0FBE8DBFC530D105D1F6DF91CF9144
:1014D0001F910F91FF90EF90DF90CF90089581FFC3
:1014E00002C0229A01C022982A9808958823C1F048
:1014F000F894269A90918000916290938000909148
:1015000081009360909381007894E82FF0E0E25698
:10151000FE4FE491F0E0F0938B00E0938A00089591
:10152000F8942698809180008E7D80938000809131
:1015300081008C7F80938100789410928B001092B0
:101540008A00089580915D0108959091DD019430A5
:1015500009F05AC09091E9009F702091EC0020FFA3
:1015600002C020E801C020E0922B24E02093E90093
:101570002091EB0020FF29C02091EE0027FF25C01D
:1015800020914C01222321F02091E80025FF1DC06D
:1015900010924C012091E4003091E50066E007C014
:1015A0004091E4005091E5002417350791F44091F3
:1015B000E80045FD19C04091DD01442329F1453083
:1015C00019F14091EB0045FFEBCF9F709093E9003C
:1015D0001BC0615021F481E080934C01F6CF209133
:1015E000E4003091E500E3CF8093F1008091E800C2
:1015F00085FD05C08091E8008E778093E8009F709C
:101600009093E90080E008958FEF0895CF93DF93E2
:1016100000D01F92CDB7DEB72091DD012430D1F488
:1016200023E029839B838A832093E90080E0815013
:1016300021F09091E80095FFFACF40E050E063E0A0
:1016400070E0CE0101960E949A0F8091E8008E779B
:101650008093E8000F900F900F90DF91CF91089545
:10166000CF93DF9300D01F92CDB7DEB72091DD017D
:101670002430D9F422E029839B838A8383E08093FA
:10168000E90080E0815021F09091E80095FFFACFC9
:1016900040E050E063E070E0CE0101960E949A0FB6
:1016A0008091E8008E778093E8000F900F900F9064
:1016B000DF91CF9108952091DD012430A9F422E03B
:1016C0002093E90020E0215021F03091E80035FF1F
:1016D000FACF40E050E065E070E00E949A0F809100
:1016E000E8008E778093E8000895CF93DF93EC01B4
:1016F0008091DD01843059F580915F01882311F0DC
:1017000086E001C081E08093E90080E0815021F013
:101710009091E80095FFFACF80915F0140E050E0A2
:10172000882319F060E170E002C068E070E0CE014B
:101730000E949A0F8091E8008E778093E80080E104
:10174000FE01ADE4B1E001900D928A95E1F7DF91E1
:10175000CF91089508950895089508950C944F2009
:101760008091DD01843049F58091E9008F7090917E
:10177000EC0090FF02C090E801C090E0982B84E05C
:101780008093E9008091EB0080FF14C08091EE000F
:1017900087FF10C08091E80085FF03C01092F10020
:1017A000F9CF8091E80080FF05C08091E8008E7736
:1017B0008093E8009F709093E900089542E061EC07
:1017C00081E00E94590D42E061EC82E00E94590DD7
:1017D00042E061EC83E00E94590D46E261EC84E056
:1017E0000E94590D42E260EC85E00E94590D42E1F1
:1017F00061EC86E00C94590D8091DF01833009F48F
:1018000053C030F4813071F0823009F482C0089501
:101810008A3009F46EC08B3009F457C0893009F062
:1018200090C020C08091DE01813A09F08AC0809189
:10183000E800877F8093E8008091E2019091E301C6
:10184000892B21F060E080E090E003C060E18DE44E
:1018500091E070E00E94E30F8091E8008B77809325
:10186000E80008958091DE01813209F06AC080911C
:10187000E2019091E301892B09F063C08091E800B7
:10188000877F8093E8008091E80082FD05C0809109
:10189000DD018111F8CF55C08091F10080935D0189
:1018A0008091E8008B7749C08091DE01813A09F090
:1018B00048C08091E800877F8093E8008091E8002D
:1018C00080FFFCCF80910B0133C08091DE0181321B
:1018D000C1F58091E800877F8093E8000E948E0D1B
:1018E0009091E00181E0911101C080E080930B01B3
:1018F00008958091DE01813221F58091E800877F93
:101900008093E8000E948E0D8091E10180935E013A
:1019100008958091DE01813AA1F48091E800877FEB
:101920008093E8008091E80080FFFCCF80915E0109
:101930008093F1008091E8008E778093E8000C940A
:101940008E0D089584B7877F84BF88E10FB6F89421
:1019500080936000109260000FBE90E080E80FB6A8
:10196000F89480936100909361000FBE0E94DF0D98
:101970000E94660E8091E20084608093E20085EA16
:101980009AE00E94F11F78948091DD018430E1F7A4
:1019900083EB91E00E9420080E94AB1281E091E06D
:1019A0000E94191282EA91E00E9420088091DD01D4
:1019B000853069F40E9419208091DB018823B1F3FE
:1019C0000E943E20882391F30E94430DEFCF0E9496
:1019D000DD12ECCF292F332723303105A9F06CF429
:1019E0002130310509F442C02230310509F043C0ED
:1019F0008DE890E028EE31E042C021323105C9F097
:101A00002232310519F137C099278130910541F013
:101A10008230910541F0892B71F5E4EEF1E005C0CB
:101A2000E0EDF1E002C0E4ECF1E0849190E09F0190
:101A300026C0653000F5E62FF0E0EE0FFF1FEC5DED
:101A4000FE4F2081318189E090E019C0653098F423
:101A5000E62FF0E0DF01AA0FBB1FA65EBE4F2D915F
:101A60003C91EB5EFE4F808190E009C082E190E006
:101A700025E732E004C080E090E020E030E0FA01A9
:101A800031832083089580E189BD82E189BD09B455
:101A900000FEFDCF8091D8008F7D8093D80080918B
:101AA000E00082608093E0008091E00081FDFCCF47
:101AB0000895982F973058F59093E900981739F0CA
:101AC0007091EC002091ED005091F00003C0242FA4
:101AD000762F50E021FF19C03091EB003E7F30930C
:101AE000EB003091ED003D7F3093ED003091EB0045
:101AF00031603093EB007093EC002093ED00509335
:101B0000F0002091EE0027FF07C09F5FD3CF8F70BA
:101B10008093E90081E0089580E008958091DE01DE
:101B200087FD05C08091E80080FF0EC012C0809143
:101B3000E80082FD05C08091DD018111F8CF089594
:101B40008091E8008B7708C08091DD018111EACF98
:101B500008958091E8008E778093E8000895809141
:101B6000E4009091E50045E62091EC0020FF21C0C3
:101B70002091E80020FD21C02091DD01222389F081
:101B8000253089F02091EB0025FD0FC02091E40065
:101B90003091E5002817390739F3415041F0C90168
:101BA000E3CF82E0089583E0089581E0089584E022
:101BB00008952091E80022FFDFCF80E008950E9481
:101BC000720E0E947A0EE0EEF0E0808181608083E8
:101BD000E8EDF0E080818F77808319BCA7EDB0E05D
:101BE0008C918E7F8C9380818F7E80831092DC011C
:101BF0000895CF93DF9300D0CDB7DEB70E94720E69
:101C00000E947A0E8091D8008F778093D8008091BF
:101C1000D80080688093D8008091D8008F7D809311
:101C2000D80019BC1092DD011092D9011092DB018D
:101C30001092DA01AE014F5F5F4F60E080E091E00B
:101C40000E94EA0C892B31F0E981FA813796E49100
:101C5000E0930C018091E0008B7F8093E000809105
:101C6000D80081608093D80020910C0130E088E09A
:101C700090E040E08217930720F44F5F880F991F90
:101C8000F9CF4295407F426060E080E00E94590DAC
:101C90008091E1008E7F8093E1008091E20081607D
:101CA0008093E2008091E20088608093E20080915E
:101CB000E0008E7F8093E0008091D8008061809367
:101CC000D8000F900F90DF91CF910895E7EDF0E0ED
:101CD00080818160808384E082BF81E08093DC0129
:101CE0000C94F90DE8EDF0E080818E7F80831092F6
:101CF000E20008951092DA001092E10008951F9218
:101D00000F920FB60F9211242F933F934F935F932F
:101D10006F937F938F939F93AF93BF93EF93FF93B3
:101D20008091E10082FF0BC08091E20082FF07C03A
:101D30008091E1008B7F8093E1000E94B00B809145
:101D4000DA0080FF1FC08091D80080FF1BC0809107
:101D5000DA008E7F8093DA008091D90080FF0DC079
:101D600080E189BD82E189BD09B400FEFDCF81E03B
:101D70008093DD010E94AA0B05C019BC1092DD0101
:101D80000E94AB0B8091E10080FF19C08091E200BE
:101D900080FF15C08091E2008E7F8093E2008091E9
:101DA000E20080618093E2008091D800806280939D
:101DB000D80019BC85E08093DD010E94AD0B8091B5
:101DC000E10084FF2EC08091E20084FF2AC080E100
:101DD00089BD82E189BD09B400FEFDCF8091D800A4
:101DE0008F7D8093D8008091E1008F7E8093E10009
:101DF0008091E2008F7E8093E2008091E20081601A
:101E00008093E2008091D901811104C08091E300A8
:101E100087FF02C084E001C081E08093DD010E9461
:101E2000AE0B8091E10083FF38C08091E20083FF18
:101E300034C08091E100877F8093E10082E080934D
:101E4000DD011092D9018091E1008E7F8093E10045
:101E50008091E2008E7F8093E2008091E2008061B9
:101E60008093E20020910C0130E088E090E040E0B7
:101E70008217930720F44F5F880F991FF9CF42957F
:101E8000407F426060E080E00E94590D8091F00048
:101E900088608093F0000E94AC0BFF91EF91BF919E
:101EA000AF919F918F917F916F915F914F913F91F2
:101EB0002F910F900FBE0F901F9018951F920F92A9
:101EC0000FB60F9211242F933F934F935F936F930D
:101ED0007F938F939F93AF93BF93CF93EF93FF9392
:101EE000C091E900CF708091EC001092E9008091E0
:101EF000F000877F8093F00078940E94B9101092D0
:101F0000E9008091F00088608093F000C093E900C0
:101F1000FF91EF91CF91BF91AF919F918F917F9161
:101F20006F915F914F913F912F910F900FBE0F9046
:101F30001F901895CF92DF92EF92FF920F931F930D
:101F4000CF93DF937C018B01EA010E94AF0D8111D9
:101F500031C0209731F088819981081B190BE80E58
:101F6000F91EC12CD12C0115110519F18091E80041
:101F700085FD14C08091E8008E778093E80020975B
:101F800041F0888199818C0D9D1D9983888385E01E
:101F900011C00E94AF0D882331F30CC0F70181916D
:101FA0007F018093F10001501109FFEFCF1ADF0A82
:101FB000DACF80E0DF91CF911F910F91FF90EF90EA
:101FC000DF90CF9008952091E4013091E50126172C
:101FD000370748F06115710539F42091E8002E7734
:101FE0002093E80001C0B90140E06115710509F4D2
:101FF00044C02091DD01222309F44BC0253009F4AF
:102000004AC02091E80023FD42C02091E80022FF51
:1020100006C08091E80082FF33C080E008952091DF
:10202000E80020FFE2CF4091F3002091F20030E081
:10203000342BFC01281B390BCF01820F931FA09179
:102040000C016115710559F04A2F50E0841795076E
:1020500030F481918093F10061507109EDCF2A2F06
:1020600030E041E08217930709F040E08091E800FA
:102070008E778093E800CF01B8CF4111BACFC9CF96
:102080008091DD01882329F0853019F604C081E0B4
:10209000089582E0089583E008952091E40130914D
:1020A000E5012617370748F06115710539F42091CD
:1020B000E8002E772093E80001C0B90140E06115E7
:1020C000710509F445C02091DD01222309F44DC0BA
:1020D000253009F44CC02091E80023FD44C0209134
:1020E000E80022FF06C08091E80082FF34C080E053
:1020F00008952091E80020FFE2CF4091F300209165
:10210000F20030E0342BFC01281B390BC9018E0F83
:102110009F1FA0910C016115710561F04A2F50E0DD
:102120008417950738F484918093F10031966150BB
:102130007109ECCF2A2F30E041E08217930709F0B4
:1021400040E08091E8008E778093E800CF01B7CF20
:102150004111B9CFC8CF8091DD01882331F085309E
:1021600009F0C1CF04C081E0089582E0089583E0C2
:1021700008950F931F93CF93DF93CDB7DEB7AA9740
:102180000FB6F894DEBF0FBECDBFEEEDF1E080914B
:10219000F100819321E0E63EF207C9F70E94FC0BB3
:1021A0008091E80083FF2CC12091DE013091DF0196
:1021B000832F90E08A30910508F022C1FC01EA5A91
:1021C000FF4F0C948F2E203881F0223809F018C16F
:1021D0008091E2018F708093E9008091EB0085FB94
:1021E000882780F91092E90006C08091DA01909169
:1021F000DB01911182609091E800977F9093E80055
:102200008093F1001092F100C7C0822F8D7F09F0FA
:10221000F7C0222319F0223061F0F2C08091E00172
:10222000813009F0EDC0333009F080E08093DB01AC
:1022300028C08091E001811124C02091E2012F701B
:1022400009F4DEC02093E9008091EB0080FF19C003
:102250008091EB00333011F4806211C08061809373
:10226000EB0081E090E0022E01C0880F0A94EAF7AB
:102270008093EA001092EA008091EB0088608093DE
:10228000EB001092E9008091E800877F88C021115F
:10229000B7C01091E0011F770FB7F8948091E80064
:1022A000877F8093E8000E948E0D8091E80080FF78
:1022B000FCCF8091E3008078812B8093E3008068DD
:1022C0008093E300112311F083E001C082E080934A
:1022D000DD010FBF95C02058223008F091C08091D9
:1022E000E0019091E1018C3D23E0920779F583E0D4
:1022F0008A838AE289834FB7F894DE01139620E03F
:102300003EE051E2E32FF0E050935700E49120FFCC
:1023100003C0E295EF703F5FEF708E2F90E0EA30E0
:1023200010F0C79601C0C0968D939D932F5F243106
:1023300049F74FBF8091E800877F8093E8006AE209
:1023400070E0CE0101960E94E30F14C0AE014F5F12
:102350005F4F6091E2010E94EA0C009709F450C0BF
:102360002091E800277F2093E800BC0189819A81B1
:102370000E944D108091E8008B778093E80040C068
:10238000203809F03DC08091E800877F8093E80005
:102390008091D9018093F1008091E8008E7780933D
:1023A000E8000E948E0D2CC021112AC0AE014F5FA3
:1023B0005F4F60E080E091E00E94EA0C892B01F120
:1023C000E981FA817196E4919091E001E917C0F0FA
:1023D0008091E800877F8093E8009093D9010E9464
:1023E0008E0D8091D901811104C08091E30087FF97
:1023F00002C084E001C081E08093DD010E94DE0B19
:102400008091E80083FF0AC08091EB008062809396
:10241000EB008091E800877F8093E800AA960FB6D2
:10242000F894DEBF0FBECDBFDF91CF911F910F910A
:1024300008959093650180936401089580916401EB
:10244000909165010895E0916401F09165013097E4
:1024500021F00190F081E02D099480E00895FF9231
:102460000F931F93CF93DF938C01E0916401F09160
:102470006501309799F10280F381E02D09958091F3
:10248000D80182FF2BC080FF04C08AEA93E00E943B
:102490002008E80180E1F82E04EA13E08091D801D9
:1024A00080FF0BC088811F928F931F930F930E9410
:1024B000B9080F900F900F900F90FA942196F11099
:1024C000EDCF8091D80180FF09C082EA93E0DF91CF
:1024D000CF911F910F91FF900C942008DF91CF9125
:1024E0001F910F91FF900895E0916401F0916501B3
:1024F000309721F00480F581E02D09940895209112
:102500006201309163018217930771F09093630128
:1025100080936201E0916401F0916501309721F0B0
:102520000680F781E02D0994089520916001309193
:1025300061018217930771F09093610180936001AC
:10254000E0916401F0916501309721F00084F185FC
:10255000E02D099408950E948E1F0E94DD080E94BC
:1025600023210E94C72B0C94522DCF93C82F80910A
:10257000D80182FF1EC080FF04C083EC93E00E945C
:1025800020088091D80180FF0CC01F92CF932EEBC2
:1025900033E03F932F930E94B9080F900F900F9054
:1025A0000F908091D80180FF04C08CEB93E00E94D3
:1025B00020088C2FCF910C946F0A5F926F927F92BC
:1025C0008F929F92AF92BF92CF92DF92EF92FF9243
:1025D0000F931F93CF93DF93CDB7DEB72A970FB634
:1025E000F894DEBF0FBECDBF0E94090997E6C92E41
:1025F00091E0D92E00E010E0AA24A394B12C502E33
:10260000802F0E941F0A3C01F601E190F1906F01BA
:10261000E826F926E114F104B1F40F5F1F4F0530ED
:10262000110569F78FEF89838A831B820E94971FA8
:102630008160782F9D838C8349815A816B818D8144
:102640000E9496133AC08091D80181FD0E94280A09
:1026500020E030E04501022E02C0880C991C0A944B
:10266000E2F7C4018E219F21892B09F12E835F821D
:102670006820792081E0672809F480E088870E943B
:10268000971F8160782F9A8789874E815F8168853F
:102690008A850E949613F801EE0FFF1FE959FE4F3D
:1026A00080819181882599259183808306C02F5F41
:1026B0003F4F2E30310571F6B0CF0E949524109116
:1026C00066010E9423121817D9F00E9423128093EA
:1026D00066012A960FB6F894DEBF0FBECDBFDF911C
:1026E000CF911F910F91FF90EF90DF90CF90BF900F
:1026F000AF909F908F907F906F905F900C94B512E9
:102700002A960FB6F894DEBF0FBECDBFDF91CF91F2
:102710001F910F91FF90EF90DF90CF90BF90AF90FF
:102720009F908F907F906F905F900895CF93DF93ED
:10273000CDB7DEB72B970FB6F894DEBF0FBECDBF77
:102740004F83588769877A878B87DE01119686E0E9
:10275000FD0111928A95E9F785E0FE013796019017
:102760000D928A95E1F749815A816B817C818D8137
:102770009E810E94021B2B960FB6F894DEBF0FBEFF
:10278000CDBFDF91CF910895CF93C82F882309F44F
:10279000C1C0823859F40E94231281FDBBC089E375
:1027A0000E947B1D0E944F1E89E30CC0833879F480
:1027B0000E94231280FDAEC083E50E947B1D0E9413
:1027C0004F1E83E50E94C81DCF910C944F1E843884
:1027D00059F40E94231282FD9DC087E40E947B1D54
:1027E0000E944F1E87E4EECF8CEF8C0F813A48F4A5
:1027F0008C2F0E94B42781118DC08C2F0E947B1DCD
:10280000E3CF80E28C0F883048F4C77081E001C0CC
:10281000880FCA95EAF70E94161ED6CF8BE58C0F5B
:10282000833078F4C53A29F0C63A31F482E890E072
:1028300005C081E890E002C083E890E0CF910C945D
:102840007F1288E58C0F833108F064C0C83A39F1F3
:10285000C93A41F1CA3A49F1CB3A51F1CC3A59F16E
:10286000CD3A61F1C03B69F1CE3A71F1CF3A79F1DD
:10287000C13B81F1C23B89F1C33B91F1C43B99F16A
:10288000C53BA1F1C63BA9F1C73BB1F1C83BB9F1CA
:10289000C93BC1F1CA3BC9F58AE292E038C082EE79
:1028A00090E035C089EE90E032C08AEE90E02FC013
:1028B00085EB90E02CC086EB90E029C087EB90E0A0
:1028C00026C08CEC90E023C08DEC90E020C083E823
:1028D00091E01DC08AE891E01AC082E991E017C03A
:1028E00084E991E014C081E292E011C083E292E0B9
:1028F0000EC084E292E00BC085E292E008C086E25E
:1029000092E005C087E292E002C080E090E0CF91C3
:102910000C949512CF910895882309F44BC0823806
:1029200059F40E94231281FF45C089E30E947B1D58
:102930000E944F1E89E30CC0833871F40E94231259
:1029400080FF38C083E50E947B1D0E944F1E83E5F7
:102950000E94C81D0C944F1E843859F40E94231203
:1029600082FF28C087E40E947B1D0E944F1E87E4DF
:10297000EFCF9CEF980F913A58F390E2980F983070
:1029800050F4877091E001C0990F8A95EAF7892F7A
:102990000E941C1EDFCF9BE5980F933020F480E04F
:1029A00090E00C947F12885A833120F480E090E00C
:1029B0000C9495120895882321F00E94161E0C9401
:1029C0004F1E0895882321F00E941C1E0C944F1E58
:1029D0000895CF92DF92EF92FF920F931F93CF93C0
:1029E000DF93CDB7DEB728970FB6F894DEBF0FBEE2
:1029F000CDBF8C0185E0F801DE01119601900D92AA
:102A00008A95E1F7F80140813181F2802581229594
:102A10002F7083819481892B31F03F3F31F481E025
:102A20004F3F19F403C081E001C080E080FD01C385
:102A300049833A8389819A812F830E94391D9E831D
:102A400088870E94381D0E940B1C4E81E42FE2955E
:102A5000EF70F0E0E05AFF4F2F8168850C948F2EC5
:102A6000842F807F142F1F70882311F01295107F00
:102A7000FF2059F0112309F447C2812F68870E9473
:102A8000261E0E944F1E68853FC2862F0E948C140E
:102A9000112309F4CEC2812F0E942C1E28960FB656
:102AA000F894DEBF0FBECDBFDF91CF911F910F9184
:102AB000FF90EF90DF90CF900C944F1E342F307F1B
:102AC000842F8F70303211F08295807F662319F049
:102AD000613009F12AC0FF20A1F0222381F12130C9
:102AE00071F528960FB6F894DEBF0FBECDBFDF910B
:102AF000CF911F910F91FF90EF90DF90CF900C94AA
:102B0000361E222319F0213009F493C28E830E94CD
:102B1000391E8E8126C0FF2021F0263008F089C2A0
:102B20000EC0253008F085C21CC0FF20C1F0222352
:102B300031F0F801958190FFE7C19F709583289649
:102B40000FB6F894DEBF0FBECDBFDF91CF911F91BE
:102B50000F91FF90EF90DF90CF900C94DB14211138
:102B6000E7C128960FB6F894DEBF0FBECDBFDF9148
:102B7000CF911F910F91FF90EF90DF90CF900C9429
:102B8000E214242F26952695237030E02115310577
:102B900021F021303105C9F04CC2FF2021F0862FF1
:102BA000942F937002C080E090E028960FB6F894BE
:102BB000DEBF0FBECDBFDF91CF911F910F91FF9070
:102BC000EF90DF90CF900C947F12FF2021F0862FA2
:102BD000942F937002C080E090E028960FB6F8948E
:102BE000DEBF0FBECDBFDF91CF911F910F91FF9040
:102BF000EF90DF90CF900C949512862FFF2019F064
:102C00000E941B2302C00E94832328960FB6F894CB
:102C1000DEBF0FBECDBFDF91CF911F910F91FF900F
:102C2000EF90DF90CF900C940824842F837009F0EC
:102C300076C0F110FEC1262F229526952770220F0F
:102C4000220F862F8F70C82ED12CE12CF12C022E52
:102C500004C0CC0CDD1CEE1CFF1C0A94D2F764FFF0
:102C600010C06FE070E080E090E004C0660F771F56
:102C7000881F991F2A95D2F7609570958095909539
:102C800003C060E070E0CB01242F269526952370C9
:102C9000422F50E042305105D1F04330510559F1F7
:102CA0006C297D298E299F294130510541F12896B3
:102CB0000FB6F894DEBF0FBECDBFDF91CF911F914D
:102CC0000F91FF90EF90DF90CF900C94301C6C2907
:102CD0007D298E299F2928960FB6F894DEBF0FBE56
:102CE000CDBFDF91CF911F910F91FF90EF90DF90BB
:102CF000CF900C944A1C0E94301CC701B601289644
:102D00000FB6F894DEBF0FBECDBFDF91CF911F91FC
:102D10000F91FF90EF90DF90CF900C94161CFF2046
:102D200019F0842F817001C08695882309F481C130
:102D3000262F229526952770220F220F862F8F701F
:102D4000C82ED12CE12CF12C022E04C0CC0CDD1CA1
:102D5000EE1CFF1C0A94D2F764FF10C06FE070E015
:102D600080E090E004C0660F771F881F991F2A95A6
:102D7000D2F7609570958095909503C060E070E003
:102D8000CB01242F269526952370422F50E0423008
:102D90005105D1F04330510559F16C297D298E2917
:102DA0009F294130510541F128960FB6F894DEBFB6
:102DB0000FBECDBFDF91CF911F910F91FF90EF908C
:102DC000DF90CF900C94041D6C297D298E299F29BA
:102DD00028960FB6F894DEBF0FBECDBFDF91CF911E
:102DE0001F910F91FF90EF90DF90CF900C941E1DDC
:102DF0000E94041DC701B60128960FB6F894DEBFE5
:102E00000FBECDBFDF91CF911F910F91FF90EF903B
:102E1000DF90CF900C94EA1C613F29F118F4603FD9
:102E200039F06DC0623F99F1633F09F444C067C057
:102E3000FF20A9F0253008F0FCC0842F8F71289660
:102E40000FB6F894DEBF0FBECDBFDF91CF911F91BB
:102E50000F91FF90EF90DF90CF900C94C91C26301B
:102E600008F0E7C0EACFFF20A1F0842F8F712896E9
:102E70000FB6F894DEBF0FBECDBFDF91CF911F918B
:102E80000F91FF90EF90DF90CF900C94831CFF2068
:102E900061F3842F8F7128960FB6F894DEBF0FBEB2
:102EA000CDBFDF91CF911F910F91FF90EF90DF90F9
:102EB000CF900C94A41CFF2091F0842F8F71289642
:102EC0000FB6F894DEBF0FBECDBFDF91CF911F913B
:102ED0000F91FF90EF90DF90CF900C946E1C28968E
:102EE0000FB6F894DEBF0FBECDBFDF91CF911F911B
:102EF0000F91FF90EF90DF90CF900C94641CFF2017
:102F0000A1F0222309F4B1CF862F28960FB6F894AA
:102F1000DEBF0FBECDBFDF91CF911F910F91FF900C
:102F2000EF90DF90CF900C94C413222309F4B1CF1B
:102F3000862F28960FB6F894DEBF0FBECDBFDF9167
:102F4000CF911F910F91FF90EF90DF90CF900C9455
:102F50008C144F70C8010E948A1F28960FB6F894EF
:102F6000DEBF0FBECDBFDF91CF911F910F91FF90BC
:102F7000EF90DF90CF900C94AF1BF1105AC06130EE
:102F800031F1A8F0623099F1633009F052C028960F
:102F90000FB6F894DEBF0FBECDBFDF91CF911F916A
:102FA0000F91FF90EF90DF90CF900C94622C2896B9
:102FB0000FB6F894DEBF0FBECDBFDF91CF911F914A
:102FC0000F91FF90EF90DF90CF900C94D82B289624
:102FD0000FB6F894DEBF0FBECDBFDF91CF911F912A
:102FE0000F91FF90EF90DF90CF900C94042C2896D7
:102FF0000FB6F894DEBF0FBECDBFDF91CF911F910A
:103000000F91FF90EF90DF90CF900C94302C4F7089
:10301000C80128960FB6F894DEBF0FBECDBFDF9172
:10302000CF911F910F91FF90EF90DF90CF900C9474
:103030008D1F28960FB6F894DEBF0FBECDBFDF916F
:10304000CF911F910F91FF90EF90DF90CF90089557
:103050000E94331E0E94081E0E944F1E0E943625A9
:103060000E94082480E090E00E947F1280E090E0BF
:103070000C9495120E94231E0C9428180E94391D4E
:10308000292F22952F7030E02C3031054CF42A3056
:1030900031056CF4225031092230310570F407C03B
:1030A0002C30310531F02F30310519F006C081E0A8
:1030B000089593FB882780F9089580E00895CF93C1
:1030C000DF9300D000D01F92CDB7DEB70F900F90E6
:1030D0000F900F900F90DF91CF910895CF93DF93D2
:1030E00000D000D000D0CDB7DEB726960FB6F8944A
:1030F000DEBF0FBECDBFDF91CF9108951F93CF9359
:10310000DF93C091710116E080917201C81799F0A8
:10311000D0E01C9FF0011D9FF00D1124ED58FE4FD3
:103120004081518162817381848195810E946E18F2
:103130002196C770E9CFDF91CF911F9108954091FB
:10314000A3015091A4016091A5017091A601809105
:10315000A7019091A8010C946E18CF938091A801BB
:1031600082958F7009F05FC08091A501882309F4D2
:103170005AC020917101A09172016091A3017091D8
:10318000A4018091A6019091A70131E06F3F09F061
:1031900030E0B32FC6E02A1709F445C0009721F0AC
:1031A0007F3F21F44B2F03C041E001C040E030E0FD
:1031B00040FD35C0C29FF001C39FF00D1124ED58B2
:1031C000FE4F418174132BC04081641328C042819B
:1031D000411125C0438154814817590710F44150CB
:1031E0005109481B590B483C5105C8F48091A8016E
:1031F0008F7080618093A80186E0829FF001839F99
:10320000F00D1124E858FE4F80818F70806180831B
:1032100083EA91E00E94E914CF910C947E182F5F0D
:103220003F4F2770B8CFCF910895CF92DF92EF92A2
:10323000FF920F931F93CF93DF93CDB7DEB76297C3
:103240000FB6F894DEBF0FBECDBF8C0185E0F8014C
:10325000DE011D9601900D928A95E1F7D8014C91FF
:1032600011965C91119712966C9112971396ED90AE
:10327000FC9014977091A301E091A4012091A60104
:103280003091A7012115310531F0EF3F31F481E094
:103290007F3F19F403C081E001C080E0B82FB17016
:1032A000CB2E80FD6CC1D090A501DD2009F4F5C0C6
:1032B000F091A801E216F30638F0C701821B930BC8
:1032C000883C910548F09BC0209530952E0D3F1D00
:1032D000283C310508F093C08F2F807F09F052C041
:1032E000E51314C0741312C0D62E61110FC0FF7005
:1032F000F061F093A8010E949F1883EA91E00E9478
:10330000E9148091A801F80185836CC1EF2831F0A0
:103310005F3F31F481E04F3F19F403C081E001C009
:1033200080E080FD03C081E0862701C080E0F82FA7
:10333000F170FF2E80FF1CC08091710120917201FD
:1033400036E0821709F428C190E0389FF001399FD8
:10335000F00D1124ED58FE4F7181571306C0708196
:10336000471303C07281671303C001968770E9CFCA
:10337000D62E662309F436C18091A801816080931E
:10338000A80153C0E51308C0741306C0611104C03E
:10339000D8011596FC93AEC04D875E878D859E85BE
:1033A0006A8B0E943E186A89882329F1D62E6623EB
:1033B00011F12091A801822F82958F7090E00297E1
:1033C0000CF460C08091A3019091A40198878F8331
:1033D0001986FB86EA862C87CE01079651C0E51731
:1033E00031F14D875E878D859E856A8B0E943E18E0
:1033F0006A8981112EC0C8010E94E914A4C08F2FD0
:10340000807F69F77E2DF98AE88A89890E945F1892
:1034100083EA91E00E94E914E3EAF1E086E0DF014B
:103420001D928A95E9F70E949F18D12CDBC0741376
:10343000D8CF6111D6CFD8011596FC93C8010E9450
:10344000E914E3EAF1E086E0DF011D928A95E9F7ED
:10345000C9C0D62E662379F22091A801822F8295C9
:103460008F7090E0029774F08091A3019091A40175
:103470009A8389831B82FD82EC822E83CE01019682
:103480000E94E91486E0F801A3EAB1E001900D92F0
:103490008A95E1F70E94AD186FC0E216F30628F096
:1034A000C701821B930B9C0104C0209530952E0D03
:1034B0003F1D283C310508F052C0D62E662309F482
:1034C0009ACFE5132CC074132AC08091A80180FD07
:1034D0001DC0982F92959F70C9F0D80115968C93B6
:1034E00015979F3039F09F5F9295907F8F70892B51
:1034F00015968C93C8010E94E91486E0F801A3EAAE
:10350000B1E001900D928A95E1F736C086E0F801AE
:10351000A3EAB1E001900D928A95E1F763C04D876F
:103520005E878D859E850E943E18882379F086E00F
:10353000F801A3EAB1E001900D928A95E1F70E94AB
:10354000AD180E949F18DD24D3944CC08091A8012F
:1035500081608093A801C8010E94E91443C07E2DB8
:10356000F98AE88A89890E945F18E3EAF1E086E037
:10357000DF011D928A95E9F70E949F1833C06623E8
:1035800009F439CF4D875E878D859E850E943E1850
:10359000882309F430CFCBCF4D875E878D859E85FC
:1035A0000E94391D292F22952F7030E022303105DD
:1035B0002CF49F7041F0811106C00CC024303105FD
:1035C0002CF49F7049F4805E883020F0C8010E947E
:1035D000E914CF2CDC2C06C0D80115969C91907F65
:1035E00091F7F8CF8D2D62960FB6F894DEBF0FBE1F
:1035F000CDBFDF91CF911F910F91FF90EF90DF90A2
:10360000CF9008951F93CF93DF93CDB7DEB72C975C
:103610000FB6F894DEBF0FBECDBF4F8358876987C2
:103620007A878B879C87CE0107960E94151988237D
:10363000C1F02F8138858A859B85892B31F03F3FEA
:1036400011F080E003C02F3FE1F781E0811147C016
:103650004F81588569857A858B859C850E946E1877
:103660003EC086E0FE013796DE01119601900D9274
:103670008A95E1F7FF81E8854A855B85411551050B
:1036800031F0EF3F31F481E0FF3F19F403C081E0F6
:1036900001C080E080FD23C02091720130E0C901AB
:1036A0000196877099276091710170E086179707DE
:1036B000F1F1F983EA835D834C8396E0929FD00118
:1036C000939FB00D1124AD58BE4FFE01319601906D
:1036D0000D929A95E1F7809372010E947E1816E090
:1036E0008091710190917201891779F1189FC00141
:1036F00011248D589E4F0E941519882331F1E091B5
:1037000071011E9FF0011124ED58FE4F408151813F
:1037100062817381848195810E946E18809171010C
:1037200090E001968770992780937101D9CF0E940C
:103730003A181092720110927101E3EAF1E086E00A
:10374000DF011D928A95E9F7CACF2C960FB6F8943F
:10375000DEBF0FBECDBFDF91CF911F910895FF92C5
:103760000F931F93CF93DF93FC01009709F44DC093
:10377000F12CEF0121968491843780F4843008F095
:1037800035C08130B1F0823009F03FC08F010E5F4B
:103790001F4FFE0184910E948C1412C0853701F1E5
:1037A00088F09CE7980F903780F58F770E948C14F3
:1037B0001FC08F010E5F1F4FFE0184910E94C41332
:1037C000E80116C0CF010296FE01C491CC2361F03E
:1037D000EFE9FFE03197F1F700C00000C150F6CFEC
:1037E000CF010296FE01F490EC0102C00E94C413C6
:1037F0008F2D882341F0EFE9FFE03197F1F700C00A
:1038000000008150F6CFFE01B4CFDF91CF911F9120
:103810000F91FF90089508956093AD017093AE01EC
:103820008093AF019093B0010C9428180F931F93CD
:103830000091AD011091AE012091AF013091B00126
:10384000062B172B282B392B0093AD011093AE01BB
:103850002093AF013093B0011F910F910C94281861
:103860000F931F930091AD011091AE012091AF0114
:103870003091B00106231723282339230093AD018B
:103880001093AE012093AF013093B0011F910F91BF
:103890000C9428180F931F930091AD011091AE0165
:1038A0002091AF013091B00106271727282739272B
:1038B0000093AD011093AE012093AF013093B0019E
:1038C0001F910F910C9428181092A9011092AA012F
:1038D0001092AB011092AC010C94281841E050E01A
:1038E00060E070E004C0440F551F661F771F8A9583
:1038F000D2F74093A9015093AA016093AB01709352
:10390000AC010C94281841E050E060E070E004C085
:10391000440F551F661F771F8A95D2F78091A90122
:103920009091AA01A091AB01B091AC01842B952B91
:10393000A62BB72B8093A9019093AA01A093AB016A
:10394000B093AC010C94281841E050E060E070E0C6
:1039500004C0440F551F661F771F8A95D2F7409504
:103960005095609570958091A9019091AA01A091C0
:10397000AB01B091AC0184239523A623B723809398
:10398000A9019093AA01A093AB01B093AC010C9450
:10399000281841E050E060E070E004C0440F551F7B
:1039A000661F771F8A95D2F78091A9019091AA018D
:1039B000A091AB01B091AC0184279527A627B7272A
:1039C0008093A9019093AA01A093AB01B093AC019D
:1039D0000C9428180F931F930091A9011091AA012C
:1039E0002091AB013091AC01062B172B282B392BE2
:1039F0000093A9011093AA012093AB013093AC016D
:103A00001F910F910C9428180F931F930091A901F7
:103A10001091AA012091AB013091AC01062317232C
:103A2000282339230093A9011093AA012093AB0105
:103A30003093AC011F910F910C9428180F931F9392
:103A40000091A9011091AA012091AB013091AC0124
:103A500006271727282739270093A9011093AA01C1
:103A60002093AB013093AC011F910F910C94281857
:103A70000895CF92DF92EF92FF920F931F93CF930F
:103A8000DF93EC01C090AD01D090AE01E090AF01AA
:103A9000F090B0018091A9019091AA01A091AB0191
:103AA000B091AC01C82AD92AEA2AFB2A0FE110E01A
:103AB000B701A601002E04C07695679557954795E6
:103AC0000A94D2F740FF07C0BE01802F0E94171F43
:103AD0008130910539F40150110950F7BE0180E0A1
:103AE0000E94171FDF91CF911F910F91FF90EF90D0
:103AF000DF90CF90089590915F01992341F1982F25
:103B00009695969596959F3088F4E0910D01F091E9
:103B10000E01E90FF11D877021E030E001C0220F96
:103B20008A95EAF78181822B818308959091D8014B
:103B300090FF2DC01F928F9384EF93E09F938F93FC
:103B40000E94B9080F900F900F900F900895409128
:103B50000D0150910E0120E030E09FEFFA01E20FDD
:103B6000F31F6281681799F09F3F19F4611101C03A
:103B7000922F2F5F3F4F2E30310581F79F3F39F055
:103B8000FA01E90FF11D97FDFA95828308950895D2
:103B900090915F01992349F1982F96959695969566
:103BA0009F3090F4E0910D01F0910E01E90FF11DAD
:103BB000877021E030E001C0220F8A95EAF7209556
:103BC00081812823218308959091D80190FF1FC0FF
:103BD0001F928F9386ED93E09F938F930E94B90875
:103BE0000F900F900F900F90089540910D015091FC
:103BF0000E0120E030E0FA01E20FF31F92819813EA
:103C000001C012822F5F3F4F2E303105A1F708957A
:103C100081E090E0E0910D01F0910E01E80FF91FB5
:103C20001082019680319105A9F708959091C30102
:103C3000982B9093C301089580959091C301982388
:103C40009093C30108951092C30108959091C20109
:103C5000982B9093C201089580959091C20198236A
:103C60009093C20108951092C20108958093B1010A
:103C700008951092B101089540910D0150910E01E7
:103C800020E030E080E0FA01E20FF31F9181911112
:103C90008F5F2F5F3F4F2F303105A9F70895E091D7
:103CA0000D01F0910E018091C3018083E0910D011F
:103CB000F0910E0180819091C201892B80839091B7
:103CC000B101992361F0E0910D01F0910E01808125
:103CD000892B80830E943C1E81111092B10180913A
:103CE0000D0190910E010C942F128B3B60F4883AD9
:103CF00000F5853AA8F4843088F4813009F055C085
:103D000081E090E00895803E08F44FC0883E30F096
:103D1000803F08F44AC090E09065089590E00895CF
:103D2000853A09F445C0863A09F045C082E890E436
:103D30000895883A09F442C0893A09F442C08A3A9F
:103D400009F442C08B3A09F442C08C3A09F442C0EB
:103D50008D3A09F442C0803B09F442C08E3A09F41E
:103D600042C08F3A09F442C0813B09F442C0823B11
:103D700009F442C0833B09F442C0843B09F442C0C9
:103D8000853B09F442C0863B09F442C0873B09F4F5
:103D900042C0883B09F442C0893B09F442C08A3BD7
:103DA00009F042C08AE296E4089580E090E0089528
:103DB00081E890E4089583E890E4089582EE94E425
:103DC000089589EE94E408958AEE94E4089585EBCD
:103DD00094E4089586EB94E4089587EB94E40895C1
:103DE0008CEC94E408958DEC94E4089583E895E4D4
:103DF00008958AE895E4089582E995E4089584E9B0
:103E000095E4089581E296E4089583E296E40895A6
:103E100084E296E4089585E296E4089586E296E4C5
:103E2000089587E296E4089580E094E408950E945E
:103E3000C808803EA8F4803C00F5813309F45CC0DA
:103E400038F4893209F452C08A3209F45BC05FC089
:103E50008933B1F08238A1F0853309F441C057C0ED
:103E6000833E41F128F4803E99F0823EB9F04FC084
:103E7000863E31F1873E71F14AC00E94CC08089518
:103E80009091D70190FD02C091FF41C080EE3FC0EC
:103E90008091D70180FFFACF89E339C08091D701A3
:103EA00082FF0CC08091D70184FF02C080E02FC048
:103EB00083EE2DC08091D70182FFF4CF82EE27C020
:103EC0008091D70183FF0AC08091D70184FDEECF96
:103ED00087EE1DC08091D70183FFF6CF86EE17C015
:103EE0008091D70185FF06C089E211C08091D7017A
:103EF00085FFFACF85E30BC08091D70186FF06C00E
:103F00008AE205C08091D70186FFFACF81E30E9443
:103F1000751E089580E090E00895089582E084BDC4
:103F200093E095BD9AEF97BD80936E0008952FB7EB
:103F3000F8948091C4019091C501A091C601B091FF
:103F4000C7012FBF0895CF92DF92EF92FF920F9398
:103F50001F932FB7F8944091C4015091C50160910F
:103F6000C6017091C7012FBF6A017B01EE24FF24B7
:103F70008C0120E030E0C016D106E206F30610F412
:103F800041505109481B590BCA011F910F91FF90D5
:103F9000EF90DF90CF9008951F920F920FB60F927F
:103FA00011248F939F93AF93BF938091C4019091FD
:103FB000C501A091C601B091C7010196A11DB11D17
:103FC0008093C4019093C501A093C601B093C7012B
:103FD000BF91AF919F918F910F900FBE0F901F9047
:103FE00018959093C9018093C80108950E94DF0D30
:103FF000F8942FEF87EA91E6215080409040E1F756
:1040000000C0000087E090EBDC018093E701909313
:10401000E801A093E901B093EA012CE088E190E087
:104020000FB6F894A895809360000FBE20936000AF
:10403000FFCF80E00E94760AF894A89523E488E1F7
:1040400090E00FB6F894A895809360000FBE20937F
:10405000600083B7817F846083BF83B7816083BF43
:104060007894889583B78E7F83BF88E10FB6F894E4
:1040700080936000109260000FBE0895CF930E945D
:104080000909C0E08C2F0E941F0A892B29F4CF5FF9
:10409000C530C1F780E001C081E0CF9108950E9452
:1040A0003A180C94C72B1F920F920FB60F9211243F
:1040B0000F900FBE0F901F901895CF92DF92EF9246
:1040C000FF920F931F936C01EE24FF24C114D104BF
:1040D000E104F10421F46B017C0180E001C080E186
:1040E00033272F2D1E2D0D2D01151105210531050D
:1040F00019F0885F6801790197018601A4E036957F
:10410000279517950795AA95D1F701151105210552
:10411000310519F08C5F6801790197018601F2E0A1
:104120003695279517950795FA95D1F7011511053D
:104130002105310519F08E5F68017901B701A601EB
:104140007695679557954795452B462B472B09F054
:104150008F5F1F910F91FF90EF90DF90CF900895A8
:104160008295982F9C7C96959695837344E0849FC6
:1041700090011124922B892F8A7A86959575990F33
:10418000892B08951F93CF93DF931F92CDB7DEB78E
:1041900099830E94B020182F9981892F0E94B02006
:1041A000212F30E0322F2227A901482BCA010F907E
:1041B000DF91CF911F910895CF92DF92EF92FF92FE
:1041C0000F931F93CF93DF93C82ED12C01E010E003
:1041D0008D2D0E941F0A7C01C0E0D0E098010C2EBA
:1041E00002C0220F331F0A94E2F72E213F21232B16
:1041F00029F42196CE30D10589F709C06C2F7D2D89
:1042000080E00E94C808C812F4CF81E005C0D394B2
:1042100085E0D812DDCF80E0DF91CF911F910F9123
:10422000FF90EF90DF90CF900895CF93C82F8CE24E
:104230000E94DC20882321F08C2FCF910C94DC206D
:1042400080E0CF910895CF930E946B22811102C02C
:104250000E94422289E194E00E942008C5E6C150F4
:1042600049F00E9409098FE39CE90197F1F700C02A
:104270000000F5CF82E194E00E94200889E20E94CC
:1042800015218111FDC08AE20E941521882321F0A9
:104290000E9463220E94422285E00E941521811122
:1042A0000E94F61F0E9476228093D80187E00E9428
:1042B0001521882399F18BE10E941521882351F063
:1042C0009091D80191FB882780F921E0822780FB1B
:1042D00091F922C08EE00E941521882351F090911F
:1042E000D80192FB882780F921E0822780FB92F990
:1042F00013C080E10E9415219091D801882341F0DC
:1043000093FB882780F921E0822780FB93F904C082
:10431000892F809580FB90F99093D8018091D801E6
:104320000E947A220E9488228093D70180EE0E9408
:104330001521882341F08091D701982F909590FB0B
:1043400080F98093D70189E30E941521882359F0D1
:104350009091D70191FB882780F921E0822780FB8B
:1043600091F99093D70182EE0E941521882359F08C
:104370009091D70192FB882780F921E0822780FB6A
:1043800092F99093D70186EE0E941521882359F067
:104390009091D70193FB882780F921E0822780FB49
:1043A00093F99093D70183EE0E941521882359F049
:1043B0009091D70194FB882780F921E0822780FB28
:1043C00094F99093D70185E30E941521882359F031
:1043D0009091D70195FB882780F921E0822780FB07
:1043E00095F99093D70181E30E941521882359F014
:1043F0009091D70196FB882780F921E0822780FBE6
:1044000096F99093D7018091D7010E948C2287E280
:104410000E941521C82F8EE10E9415218111C260D2
:104420008FE10E9415218111C46080E20E94152154
:104430008111C86081E20E9415218111C06182E270
:104440000E9415218111C06283E20E941521811111
:10445000C06484E20E941521882311F0C06802C064
:10446000CC2329F08C2F0E9483226C2F03C00E9442
:104470007F22682F70E080E090E0CF910C940C1CBC
:10448000CF9108956DEE7EEF80E090E00E94C52E02
:1044900060E082E090E00E94B72E60E083E090E070
:1044A0000E94B72E60E084E090E00E94B72E60E0AA
:1044B00085E090E00E94B72E60E086E090E00E94E8
:1044C000B72E0C94522D0E949A2C6FEF7FEF80E054
:1044D00090E00C94C52E80E090E00E94B12E21E087
:1044E0008D3E9E4F09F020E0822F089582E090E0FB
:1044F0000C94A92E682F82E090E00C94B72E83E0F4
:1045000090E00C94A92E682F83E090E00C94B72ED5
:1045100084E090E00C94A92E682F84E090E00C9445
:10452000B72E86E090E00C94A92E682F86E090E0EC
:104530000C94B72E8091CC0180FF0BC060911201CA
:1045400085E0689FB001112475956795759567950D
:104550002AC081FF09C06091120185E0689FB00107
:104560001124759567951FC082FF07C060911201E5
:1045700085E0689FB001112416C04091CD0144230D
:10458000C9F060911101461788F72091120185E06A
:10459000289F90011124429FC001439F900D112438
:1045A00070E00E947B2E6038710540F46115710542
:1045B00039F002C065E070E0862F08958FE7089516
:1045C00081E008958091CC0180FF08C060911001C6
:1045D00070E0759567957595679521C081FF06C058
:1045E0006091100170E07595679519C082FF04C055
:1045F0006091100170E010C08091CD018823C1F05E
:1046000060910F018617A0F790911001989FC0014B
:10461000112470E00E947B2E6038710528F461152A
:10462000710521F0862F08958FE7089581E00895A0
:1046300061E070E0F4CF803F21F40E949A228195DE
:1046400004C0813F29F40E949A228093D0010895EA
:10465000823F21F40E949A22819504C0833F29F46D
:104660000E949A228093CF010895893F19F40E94F5
:10467000E22205C08A3F31F40E94E22281958093B4
:10468000D10108958B3F21F40E94E222819504C05C
:104690008C3F29F40E94E2228093D2010895843F46
:1046A00021F48091CE01816017C0853F21F4809173
:1046B000CE01826011C0863F21F48091CE018460DA
:1046C0000BC0873F21F48091CE01886005C0883FF0
:1046D00031F48091CE0180618093CE0108958D3FA9
:1046E00021F48091CC0181600BC08E3F21F4809138
:1046F000CC01826005C08F3F29F48091CC01846099
:104700008093CC010895803F39F48091D00187FFD8
:104710006CC01092D00169C0813F29F48091D00112
:104720001816BCF362C09091CF01823F29F497FF25
:104730005CC01092CF0159C0833F19F41916CCF315
:1047400054C0893F41F48091D10118160CF04DC03E
:104750001092D1014AC08A3F29F48091D10187FF8C
:1047600044C0F6CF8B3F39F48091D20187FF3DC022
:104770001092D2013AC08C3F29F48091D2011816D0
:10478000BCF333C0843F21F48091CE018E7F17C0EB
:10479000853F21F48091CE018D7F11C0863F21F4A9
:1047A0008091CE018B7F0BC0873F21F48091CE0199
:1047B000877F05C0883F31F48091CE018F7E809342
:1047C000CE0113C08D3F21F48091CC018E7F0BC0B0
:1047D0008E3F21F48091CC018D7F05C08F3F29F45D
:1047E0008091CC018B7F8093CC018091CF0181118E
:1047F0000EC08091D00181110AC08091D101811138
:1048000006C08091D201811102C01092CD0108959D
:104810008091D80183FF7EC085E594E00E94200846
:104820008091CE011F928F9380E594E09F938F93A8
:104830000E94B9088EE494E00E9420082091CF01E4
:10484000822F992787FD90959F932F938BE494E077
:104850009F938F930E94B90889E494E00E942008F6
:104860002091D001822F992787FD90959F932F93B8
:1048700086E494E09F938F930E94B90884E494E0C7
:104880000E9420082091D101822F992787FD9095C1
:104890009F932F9381E494E09F938F930E94B90894
:1048A0008FE394E00E9420082091D201822F992763
:1048B00087FD90959F932F938CE394E09F938F9324
:1048C0000E94B90889E394E00E9420088091CD01FC
:1048D0001F928F9386E394E09F938F930E94B90871
:1048E00084E394E00E9420088091CC011F928F9372
:1048F00081E394E09F938F930E94B9088EE294E045
:104900000E9420088DB79EB74C960FB6F8949EBFB4
:104910000FBE8DBF8EEC91E00E9474120E94971F13
:104920009093CB018093CA0108951F93CF93DF9397
:104930008091CA019091CB010E94A31F4091CD01AB
:10494000442321F02091130130E006C0209114018E
:104950005AE0259F900111248217930708F482C022
:104960008091CF011091D001D091D101C091D2019D
:10497000811107C0111105C0D11103C0CC2309F466
:1049800071C04F3F19F04F5F4093CD01181624F4CA
:104990000E949A228093CF018091CF0187FF05C0AA
:1049A0000E949A2281958093CF01111624F40E94CF
:1049B0009A228093D0018091D00187FF05C00E9488
:1049C0009A2281958093D0016091CF01662339F1BD
:1049D0001091D001112319F1772767FD7095872F6A
:1049E000972F0E948C2D23E333E343E35FE30E9480
:1049F000F02D0E94592D6093CF01612F772767FD1D
:104A00007095872F972F0E948C2D23E333E343E388
:104A10005FE30E94F02D0E94592D6093D0011D1676
:104A200024F40E94E2228093D1018091D10187FF7A
:104A300005C00E94E22281958093D1011C1624F4C6
:104A40000E94E2228093D2018091D20187FF05C0AB
:104A50000E94E22281958093D201DF91CF911F9134
:104A60000C940824DF91CF911F910895EEECF1E0B2
:104A700085E0DF011D928A95E9F71092CD01109231
:104A8000CC0108958FE199E00E94200882E199E02D
:104A90000E94200885E099E00C94200882E898E0C4
:104AA0000E94200885E798E00E9420088AE598E0A7
:104AB0000E9420088FE398E00E94200887E298E097
:104AC0000E9420088DE098E00E9420088FEE97E079
:104AD0000E9420088FEC97E00E9420088BEB97E063
:104AE0000E94200884EA97E00E94200888E897E066
:104AF0000E9420088AE697E00E9420088BE497E055
:104B00000E9420088AE297E00E94200885EF96E044
:104B10000E94200880EE96E00E9420081F9285E007
:104B20008F938DED96E09F938F930E94B90884ED4B
:104B300096E00E9420081F9281E08F9381ED96E01D
:104B40009F938F930E94B9088FEC96E00E942008F3
:104B50008DB79EB708960FB6F8949EBF0FBE8DBF57
:104B600082EA96E00C942008833009F459C028F4B6
:104B7000813061F0823079F10895853009F49AC06E
:104B800008F473C0863009F4BAC008952091140166
:104B9000862F90E0820F911D8F3F910520F4620FC8
:104BA0006093140103C08FEF809314018EE795E0AA
:104BB0000E942008809114011F928F938BE795E04B
:104BC0009F938F930E94B9080F900F900F900F90B2
:104BD00089E795E0B8C020911301862F90E0820FFD
:104BE000911D8F3F910520F4620F6093130103C064
:104BF0008FEF809313018AE695E00E942008809150
:104C000013011F928F9387E695E09F938F930E94E5
:104C1000B9080F900F900F900F9085E695E093C024
:104C200020911201862F90E0820F911D8F3F9105F8
:104C300020F4620F6093120103C08FEF8093120182
:104C400085E595E00E942008809112011F928F93C4
:104C500082E595E09F938F930E94B9080F900F9083
:104C60000F900F9080E595E06EC020911101862F86
:104C700090E0820F911D8F3F910520F4620F6093A9
:104C8000110103C08FEF809311018EE395E00E9424
:104C90002008809111011F928F938BE395E09F93E1
:104CA0008F930E94B9080F900F900F900F9089E397
:104CB00095E049C020911001862F90E0820F911D50
:104CC0008F3F910520F4620F6093100103C08FEFB6
:104CD0008093100183E295E00E94200880911001EA
:104CE0001F928F9380E295E09F938F930E94B90863
:104CF0000F900F900F900F908EE195E024C02091BF
:104D00000F01862F90E0820F911D8F3F910520F4B7
:104D1000620F60930F0103C08FEF80930F0186E055
:104D200095E00E94200880910F011F928F9383E0ED
:104D300095E09F938F930E94B9080F900F900F906A
:104D40000F9081E095E00C942008833009F44DC069
:104D500028F4813061F0823049F10895853009F4FA
:104D600082C008F461C0863009F49CC00895809127
:104D70001401681720F4861B8093140102C010925E
:104D8000140185EF94E00E942008809114011F9285
:104D90008F9382EF94E09F938F930E94B9080F90B6
:104DA0000F900F900F9080EF94E09AC080911301C4
:104DB000681720F4861B8093130102C01092130120
:104DC00081EE94E00E942008809113011F928F933E
:104DD0008EED94E09F938F930E94B9080F900F90EF
:104DE0000F900F908CED94E07BC0809112016817BA
:104DF00020F4861B8093120102C0109212018CECE9
:104E000094E00E942008809112011F928F9389ECF8
:104E100094E09F938F930E94B9080F900F900F908A
:104E20000F9087EC94E05CC080911101681720F42A
:104E3000861B8093110102C01092110185EB94E052
:104E40000E942008809111011F928F9382EB94E0C1
:104E50009F938F930E94B9080F900F900F900F901F
:104E600080EB94E03DC080911001681720F4861B10
:104E70008093100102C0109210018AE994E00E9410
:104E80002008809110011F928F9387E994E09F93EF
:104E90008F930E94B9080F900F900F900F9085E9A3
:104EA00094E01EC080910F01681720F4861B809348
:104EB0000F0102C010920F018DE794E00E942008BC
:104EC00080910F011F928F938AE794E09F938F93B5
:104ED0000E94B9080F900F900F900F9088E794E010
:104EE0000C942008CF93C82F8EEE98E00E942008E3
:104EF0006091AD017091AE018091AF019091B001D0
:104F00000E945D201F928F932BEE38E03F932F93EA
:104F10000E94B90886EE98E00E9420081F92CF9365
:104F200023EE38E03F932F930E94B90881EE98E07A
:104F30000E94200861E070E080E090E004C0660F0D
:104F4000771F881F991FCA95D2F70E940C1C8DB736
:104F50009EB708960FB6F8949EBF0FBE8DBFCF9137
:104F60000C943A1880E00895CF93C82F8091D60111
:104F7000813009F4CFC220F0823009F4F3C202C4B8
:104F8000A0910D01B0910E018C91823209F0FCC309
:104F90008C2F0E94B2278111BAC24C2F50E0FA0127
:104FA0003697E334F10508F0ACC2E059FF4F0C949A
:104FB0008F2E89E29FE00E9420088AE79CE00E94F1
:104FC00020080E947F221F928F9387E79CE09F9387
:104FD0008F930E94B90885E79CE00E9420080E94F8
:104FE0007622C82F82E69CE00E9420081F92CF9371
:104FF0002DE53CE03F932F930E94B9088BE59CE0A0
:105000000E94200881E59CE00E9420088C2F81707E
:105010001F928F932EE43CE03F932F930E94B90898
:105020008CE49CE00E94200882E49CE00E9420081E
:10503000C1FB882780F91F928F932FE33CE03F93B9
:105040002F930E94B9088DE39CE00E94200881E321
:105050009CE00E942008C2FB882780F91F928F9352
:105060002EE23CE03F932F930E94B9088CE29CE033
:105070000E94200883E29CE00E942008C3FBCC270A
:10508000C0F91F92CF9380E29CE09F938F930E9480
:10509000B9088EE19CE00E9420080E948822C82F57
:1050A0008AE09CE00E9420081F92CF9325E03CE01C
:1050B0003F932F930E94B90883E09CE00E94200850
:1050C0008AEE9BE00E9420088C2F81701F928F93A4
:1050D00027EE3BE03F932F930E94B9088DB79EB710
:1050E00080960FB6F8949EBF0FBE8DBF85EE9BE0F5
:1050F0000E9420088EEC9BE00E942008C1FB8827BC
:1051000080F91F928F932BEC3BE03F932F930E94EB
:10511000B90889EC9BE00E94200887EB9BE00E9485
:105120002008C2FB882780F91F928F9324EB3BE075
:105130003F932F930E94B90882EB9BE00E942008C6
:1051400080EA9BE00E942008C3FB882780F91F9219
:105150008F932DE93BE03F932F930E94B9088BE991
:105160009BE00E94200881E99BE00E942008C4FB8C
:10517000882780F91F928F932EE83BE03F932F936F
:105180000E94B9088CE89BE00E9420088AE79BE017
:105190000E942008C5FB882780F91F928F9327E77C
:1051A0003BE03F932F930E94B90885E79BE00E9464
:1051B000200889E59BE00E942008C6FBCC27C0F9A7
:1051C0001F92CF9386E59BE09F938F930E94B9082F
:1051D00084E59BE00E9420080E949122C82F8DE365
:1051E0009BE00E9420081F92CF9328E33BE03F936F
:1051F0002F930E94B90886E39BE00E9420088CE26E
:105200009BE00E9420088C2F81701F928F9329E2CF
:105210003BE03F932F930E94B9088DB79EB78096CD
:105220000FB6F8949EBF0FBE8DBF87E29BE00E9431
:1052300020088EE19BE00E942008C6951F92CF9324
:105240008BE19BE09F938F930E94B90889E19BE0DB
:105250000E9420081BC10E941E12892B69F00E9427
:105260001E129093D4018093D30180E090E00E94BD
:10527000191280E29FE01EC18091D3019091D40168
:105280000E94191285E19FE015C18DEF9AE00E94FE
:10529000200886EE9AE00E9420088EEC9AE00E9498
:1052A000200886EB9AE00E9420088CE99AE00E9490
:1052B000200885E89AE00E94200885E69AE00E948E
:1052C00020088FE49AE00E9420088EE39AE00E9472
:1052D000200886E29AE00E94200886E19AE00E9477
:1052E00020088CEF99E00E94200883EE99E00E944C
:1052F00020088AEC99E00E94200881EB99E00E9446
:10530000200888E999E00E94200887E799E00E9438
:10531000200885E599E00E9420088BE399E0CAC047
:105320008091D801817F8E7F8093D8010E94422591
:1053300080E09FE00E9420088CEF9EE00E94200801
:1053400081E08093D601E3C00E943A1883EE9EE08C
:105350000E9420089FEF23ED80E391502040804081
:10536000E1F700C000000E94F61F83ED9EE0A2C09E
:105370008091D80180FF09C080EC9EE00E94200847
:105380008091D801817F8E7F3DC08EEA9EE035C03E
:105390009091D80191FB882780F921E0822780FB3A
:1053A00091F99093D801882319F085E99EE025C0F2
:1053B0008BE79EE07FC09091D80192FB882780F90F
:1053C00021E0822780FB92F99093D801882319F07D
:1053D00080E69EE012C084E49EE06CC09091D8010B
:1053E00093FB882780F921E0822780FB93F9909333
:1053F000D801882351F08CE29EE00E942008809121
:10540000D80181608093D80182C083E19EE052C0C0
:105410008CEF9DE00E94200883ED9DE00E94200813
:105420008EE99DE00E94200881E79DE00E9420080F
:105430008DE19DE00E9420088FEE9CE03BC08091B2
:10544000C4019091C501A091C601B091C701BF935D
:10545000AF939F938F938BED9CE09F938F930E94CC
:10546000B9080F900F900F900F900F900F904FC0B2
:1054700085EC9CE00E9420080E9423121F928F93CB
:105480008BEA9CE09F938F930E94B9080F900F9036
:105490000F900F903CC00E943A1880915F0191E0FC
:1054A000892780935F01882319F08CE99CE002C072
:1054B0008CE89CE00E9420082AC081E890E00E94CD
:1054C0007F129FEF21EE84E0915020408040E1F771
:1054D00000C0000080E090E00E947F129FEF29E66C
:1054E00088E1915020408040E1F700C000000FC0EB
:1054F00080E004C083EE01C087EC8C0F0E9472270D
:1055000006C08AE89CE00E94200880E001C081E09B
:1055100081703BC1C431E1F090F4CB30A1F0C031D7
:10552000F1F40E944E2580EB98E00E9420088CEA5E
:1055300098E00E94200882E08093D60121C1C93200
:1055400039F0C83361F40E9442258DED98E0FFC028
:1055500089EC98E00E9420081092D60111C18AEAD5
:1055600098E0F5C0C83228F5CE3108F0C0C0CB3085
:10557000A1F1D0F4C73009F0E8C08EE180931401A6
:1055800082E3809313018AE08093120184E1809387
:10559000110188E08093100188E280930F0187E574
:1055A00096E00E942008D6C0C33141F1C431C1F059
:1055B000CCC0CB3409F4BEC028F4C93289F0C8335A
:1055C00061F0C3C0C13509F4B3C0C23509F4AEC03F
:1055D000CE3409F0BAC06AE0B3C00E944E25BAC00A
:1055E0001092D5018AE896E00E94200886E896E0AD
:1055F0000E94200881E08093D601C7C08AE296E02D
:105600000E94200885E196E00E9420088091140104
:105610001F928F9382E196E09F938F930E94B90827
:1056200080E196E00E9420088BEF95E00E94200820
:10563000809113011F928F9388EF95E09F938F9332
:105640000E94B90886EF95E00E94200884EE95E05C
:105650000E942008809112011F928F9381EE95E0A5
:105660009F938F930E94B9088FED95E00E942008C8
:105670008BEC95E00E942008809111011F928F937E
:1056800088EC95E09F938F930E94B90886EC95E093
:105690000E9420088EEA95E00E9420088091100167
:1056A0001F928F938BEA95E09F938F930E94B90886
:1056B00089EA95E00E9420088FE895E00E94200882
:1056C00080910F011F928F938CE895E09F938F93A9
:1056D0000E94B9088AE895E00E9420088DB79EB71D
:1056E00048960FB6F8949EBF0FBE8DBF33C0CE5103
:1056F000EC2FF0E0E25DFE4F80818093D50181E7E1
:1057000096E00E9420088091D5011F928F938EE62B
:1057100096E09F938F930E94B9088CE696E00E94D2
:1057200020080F900F900F900F9014C061E003C0FD
:1057300061E006C06AE08091D5010E94B4250AC0EC
:105740008091D5010E94A52605C085E596E00E94BE
:10575000200816C083E596E00E9420088091D501BC
:105760001F928F9380E596E09F938F930E94B908D4
:105770008DE496E00E9420080F900F900F900F90FC
:1057800081E003C01092D60180E0CF9108950E947D
:105790006B22811102C00E9442220E9491228093BA
:1057A000E60180FF02C0869501C080E00C94760A75
:1057B0008091E60180FF27C0982F9695292F30E031
:1057C0002330310544F49F5F990F8170892B8093BA
:1057D000E6010E9495228091D80180FF0FC0809140
:1057E000E60186951F928F938DE79FE09F938F939D
:1057F0000E94B9080F900F900F900F908091E601D2
:1058000086950C94760A08958091E60180FF27C062
:10581000982F9695292F30E02230310544F0915889
:10582000990F8170892B8093E6010E9495228091C7
:10583000D80180FF0FC08091E60186951F928F935B
:105840008EE59FE09F938F930E94B9080F900F9071
:105850000F900F908091E60186950C94760A08953A
:105860008091E601982F9095917090FB80F980933C
:10587000E601992339F0982F9E7F21F48170826090
:105880008093E6018091E6010E9495228091D801E3
:1058900080FF0FC08091E60181701F928F9388E492
:1058A0009FE09F938F930E94B9080F900F900F90E5
:1058B0000F908091E60180FF02C0869501C080E0D4
:1058C0000C94760A3091E601232F26952F5F2F77CF
:1058D000822F90E0317004972CF4220F232B209319
:1058E000E60102C03093E6018091E6018E7F91E0EF
:1058F00009F490E08091E60190FB80F98093E60145
:105900000E9495228091D80180FF0FC08091E6010E
:1059100086951F928F9384E39FE09F938F930E94BD
:10592000B9080F900F900F900F908091E601869527
:105930000C94760A80E190E00E94B12EBC016F5F6A
:105940007F4F80E190E00C94C52EEF92FF920F9371
:105950001F93CF93DF9380E190E00E94B12E7C01F2
:10596000C2E1D0E00DEE1EEFCE010E94B12E080F75
:10597000191F2296C23882E0D807B1F781E0E016FD
:10598000F10609F080E0DF91CF911F910F91FF9018
:10599000EF9008959EE0699FB001112496E4899FDD
:1059A000600D711D1124640F711DCB018E5A9F4F24
:1059B0000C94A92E8E5A9F4F0C94B72E90E0099606
:1059C000880F991F0C94B12E90E00996880F991FAB
:1059D0000C94C52E8F929F92AF92BF92CF92DF927E
:1059E000EF92FF920F931F93CF93DF930E94D30800
:1059F0007C010E94D0085C01E114F104F1F00E94E6
:105A0000C5084C01C0E0D0E00DEE1EEFC815D90569
:105A100020F4F701C590D49002C0C12CD12CB6015E
:105A20008C2F0E94E42C0C0D1D1D219682E0E80EA7
:105A3000F11CC032D10551F702C00DEE1EEFA114CA
:105A4000B104F9F00E94C2087C01C0E0D0E0CE159C
:105A5000DF0528F4F501EC0FFD1FD49001C0D12C17
:105A60006D2DCE010E94DA2C6D2D70E0C0FF02C0BA
:105A7000762F6627060F171F2196C03382E0D807BE
:105A800031F7B80180E190E0DF91CF911F910F9144
:105A9000FF90EF90DF90CF90BF90AF909F908F904E
:105AA0000C94C52E0E94A52C811102C00C94EA2CE6
:105AB000089504D06894B1118DC0089570D088F015
:105AC0009F5790F0B92F9927B751A0F0D1F0660FEA
:105AD000771F881F991F1AF0BA95C9F712C0B13005
