:100000000C94B3070C94F7070C94F7070C94F707BC
:100010000C94F7070C94F7070C94F7070C94F70768
:100020000C94F7070C94F7070C945B0F0C941F0FBC
:100030000C947F200C94F7070C94F7070C94F707A7
:100040000C94F7070C94F7070C94F7070C94F70738
:100050000C94F7070C9431200C94F7070C94F707D5
:100060000C94F7070C94F7070C94F7070C94F70718
:100070000C94F7070C94F7070C94F7070C94F70708
:100080000C94F7070C94F7070C94F7070C94F707F8
:100090000C94F7070C94F7070C94F7070C94F707E8
:1000A0000C94F7070C94F7070C94F707BB2BE22B83
:1000B0003529CC2CCC2C702BCC2CCC2C052CCC2C3E
:1000C0001B2C952CCC2CCC2CCC2CCC2C772C512C28
:1000D000CC2C3A2CCC2CF12BCC2CCC2CC42CC42CDE
:1000E000C42CC42CC42CC42CC42CC42CC42CC22C92
:1000F000CC2CC22CCC2CCC2CCC2CCC2CCC2CCC2C4A
:10010000CC2CCC2CCC2CCC2CCC2CC22CCC2CCC2C39
:10011000702B562BC72CC72CC72CC72CC72CC72C11
:10012000C72CC72CC72CC72CC72CC72CA72CCC2C52
:10013000CE2B0A002530313662003A2000253032BD
:1001400058000A722F632030313233343536373855
:10015000394142434445460A000A002530325800DE
:10016000626F756E6365213A2000001080FF4B6559
:1001700079626F6172642073746172742E0A005523
:10018000534220636F6E666967757265642E0A005C
:1001900005010906A101050719E029E71500250158
:1001A00095087501810295017508810105081901FD
:1001B00029059505750191029501750391010507C2
:1001C000190029FF150025FF950675088100C00557
:1001D000010902A1010901A100050919012905155B
:1001E00000250195057501810295017503810105C1
:1001F00001093009311581257F95027508810609AD
:10020000381581257F950175088106050C0A38028D
:100210001581257F950175088106C0C005010980FB
:10022000A101850216010026B7001A01002AB700B5
:10023000751095018100C0050C0901A10185031607
:100240000100269C021A01002A9C0275109501816A
:1002500000C00631FF0974A1010975150025FF953D
:1002600020750881020976150025FF9520750891F3
:1002700002C005010906A101050719E029E71500DB
:1002800025019508750181020508190129059505C3
:1002900075019102950175039101050719002977F0
:1002A00015002501957875018102C0120110010029
:1002B000000008EDFE606001000102000109028DEE
:1002C00000050100A032090400000103010100093A
:1002D0002111010001223F000705810308000109E7
:1002E0000401000103010200092111010001224D56
:1002F0000007058203080001090402000103000051
:1003000000092111010001223600070583030800BE
:10031000010904030002030000000921110100018A
:1003200022200007058403200001070505032000A3
:10033000010904040001030000000921110100016A
:100340002239000705860310000104030904120383
:100350006700650065006B006800610063006B006A
:1003600000000A03470048003600300000000A0081
:100370002530325820006B6579626F6172645F725C
:1003800065706F72743A20000A0025303258006B95
:100390006579626F6172645F7365745F6C65643AFE
:1003A000200064656C5F6B65795F6269743A2063F5
:1003B000616E27742064656C3A20253032580A003B
:1003C0006164645F6B65795F6269743A2063616E32
:1003D0002774206164643A20253032580A00646F23
:1003E0006E652E0A00626F6F676D616769632073C7
:1003F00063616E3A202E2E2E2000290A00257500FA
:100400002F002575005D280025640020002564006C
:10041000200025640020002564007C00253032582F
:10042000006D6F7573656B6579205B62746E7C78A7
:100430002079207620685D287265702F61636C29B1
:100440003A205B003F004E4B524F3A206469736183
:10045000626C65640A004E4B524F3A20656E6162D1
:100460006C65640A00686F73745F6B6579626F61B5
:1004700072645F6C65647328293A2025580A000A63
:100480000A2D2D2D2D2D20537461747573202D2D63
:100490002D2D2D0A0074696D65725F636F756E7422
:1004A0003A202530346C580A004743433A20342E12
:1004B000332E33204156522D4C4942433A20312E9F
:1004C000362E37204156525F415243483A206176DA
:1004D00072350A004F5054494F4E533A204C5546FE
:1004E0004120424F4F544D41474943204D4F5553B2
:1004F000454B45592045585452414B455920434F8F
:100500004E534F4C4520434F4D4D414E44204E4B92
:10051000524F204B45594D41505F53454354494F2D
:100520004E20343039360A004255494C443A203284
:100530006132633762382D646972747920283030F3
:100540003A35353A3130204A616E20313020323030
:100550003134290A005649443A203078464545440A
:10056000286765656B6861636B29205049443A20B0
:1005700030783630363028474836302920564552B4
:100580003A203078303030310A00444553433A2025
:10059000742E6D2E6B2E206B6579626F61726420F4
:1005A0006669726D7761726520666F7220474836A2
:1005B000300A000A0A2D2D2D2D2D205665727369E3
:1005C0006F6E202D2D2D2D2D0A000A4445425547D2
:1005D0003A206D6F7573652064697361626C656440
:1005E0002E0A000A44454255473A206D6F757365DF
:1005F00020656E61626C65642E0A000A44454255AE
:10060000473A206B6579626F617264206469736137
:10061000626C65642E0A000A44454255473A206BD5
:100620006579626F61726420656E61626C65642ECB
:100630000A000A44454255473A206D617472697850
:100640002064697361626C65642E0A000A44454245
:1006500055473A206D617472697820656E61626CED
:1006600065642E0A000A44454255473A20656E618A
:10067000626C65642E0A000A44454255473A20647C
:10068000697361626C65642E0A006E6F7420737505
:1006900070706F727465642E0A000A0A4A756D7074
:1006A00020746F20626F6F746C6F616465722E2EA0
:1006B0002E2000433E20000A456E74657220436F71
:1006C0006E736F6C65204D6F64650A00556E6C6FBC
:1006D000636B65642E0A004C6F636B65642E0A00C1
:1006E0006565636F6E6669673A0A000A00257500E2
:1006F0002E6C6576656C3A20000A002575002E6523
:100700006E61626C653A20000A0025303258006242
:1007100061636B6C696768745F636F6E6669672E8F
:100720007261773A20000A002575002E7377617098
:100730005F6261636B736C6173685F6261636B734B
:10074000706163653A20000A002575002E73776199
:10075000705F67726176655F6573633A20000A00B7
:100760002575002E6E6F5F6775693A20000A0025B7
:1007700075002E737761705F72616C745F7267755C
:10078000693A20000A002575002E737761705F6C4E
:10079000616C745F6C6775693A20000A002575000A
:1007A0002E636170736C6F636B5F746F5F636F6EEA
:1007B00074726F6C3A20000A002575002E73776101
:1007C000705F636F6E74726F6C5F636170736C6F78
:1007D000636B3A20000A0025303258006B65796D52
:1007E00061705F636F6E6669672E7261773A200091
:1007F0000A002575002E6D6F7573653A20000A009A
:100800002575002E6B6579626F6172643A20000A6B
:10081000002575002E6D61747269783A20000A0017
:100820002575002E656E61626C653A20000A002510
:100830003032580064656275675F636F6E66696722
:100840002E7261773A20000A0025750064656661A2
:10085000756C745F6C617965723A200050617573D4
:100860003A096A756D7020746F20626F6F746C6FD7
:10087000616465720A00436170733A094C6F636B7F
:10088000204B6579626F617264284368696C6420EB
:1008900050726F6F66290A00505363723A09706F85
:1008A00077657220646F776E2F72656D6F74652047
:1008B00077616B652D75700A00342F46343A0973E1
:1008C000776974636820746F204C61796572342095
:1008D0000A00332F46333A097377697463682074CA
:1008E0006F204C6179657233200A00322F46323A0C
:1008F0000973776974636820746F204C617965723D
:1009000032200A00312F46313A09737769746368DF
:1009100020746F204C6179657231200A00302F46B7
:1009200031303A0973776974636820746F204C61C1
:1009300079657230200A006E3A09746F67676C65DA
:10094000204E4B524F0A00653A097072696E74204E
:10095000656570726F6D20636F6E6669670A0073FC
:100960003A097072696E74207374617475730A0049
:10097000743A097072696E742074696D65722063CF
:100980006F756E740A00763A097072696E7420642D
:1009900065766963652076657273696F6E202620BF
:1009A000696E666F0A006D3A09746F67676C65203F
:1009B0006D6F7573652064656275670A006B3A092F
:1009C000746F67676C65206B6579626F6172642014
:1009D00064656275670A00783A09746F67676C65C9
:1009E000206D61747269782064656275670A0064BD
:1009F0003A09746F67676C65206465627567206586
:100A00006E61626C650A00633A09656E74657220F6
:100A1000636F6E736F6C65206D6F64650A000A0A00
:100A20002D2D2D2D2D20436F6D6D616E6420486539
:100A30006C70202D2D2D2D2D0A006D3A096D6F75CE
:100A400073656B65790A004553432F713A097175D7
:100A500069740A000A0A2D2D2D2D2D20436F6E7307
:100A60006F6C652048656C70202D2D2D2D2D0A0092
:100A70000A0025750020746F2000257500737769C2
:100A80007463685F64656661756C745F6C617965D9
:100A9000723A2000433E20003F004D303E000A45A0
:100AA0006E746572204D6F7573656B657920436F49
:100AB0006E736F6C650A000A5175697420436F6E1E
:100AC000736F6C65204D6F64650A0053656520681F
:100AD0007474703A2F2F656E2E77696B6970656438
:100AE00069612E6F72672F77696B692F4D6F757310
:100AF000655F6B6579730A000A002575002C207705
:100B00006865656C3D0025750077686572652064D1
:100B1000656C74613A20637572736F723D000A737D
:100B200070656564203D2064656C7461202A206DC9
:100B300061785F7370656564202A2028726570652E
:100B40006174202F2074696D655F746F5F6D6178CB
:100B5000290A007067646F776E3A0964656372658D
:100B6000617365207072616D6574657273282D31D3
:100B700030290A00706775703A09696E63726561A1
:100B80007365207072616D6574657273282B3130E6
:100B9000290A00646F776E3A096465637265617350
:100BA00065207072616D6574657273282D31290A34
:100BB0000075703A09696E637265617365207072C1
:100BC000616D6574657273282B31290A00643A09D6
:100BD0007365742064656661756C742076616C75EC
:100BE00065730A00703A097072696E7420707261E0
:100BF0006D65746572730A00363A0973656C6563D6
:100C000074206D6B5F776865656C5F74696D655F97
:100C1000746F5F6D61780A00353A0973656C6563BE
:100C200074206D6B5F776865656C5F6D61785F736D
:100C3000706565640A00343A0973656C65637420F5
:100C40006D6B5F74696D655F746F5F6D61780A00CD
:100C5000333A0973656C656374206D6B5F6D617801
:100C60005F73706565640A00323A0973656C656389
:100C700074206D6B5F696E74657276616C286D733C
:100C8000290A00313A0973656C656374206D6B5FE6
:100C900064656C6179282A31306D73290A004553E7
:100CA000432F713A09717569740A000A0A2D2D2DB6
:100CB0002D2D204D6F7573656B65792050617261C4
:100CC0006D65746572732048656C70202D2D2D2D17
:100CD0002D0A003E20002575004D003F007365740D
:100CE0002064656661756C742076616C7565732E21
:100CF0000A000A0025750073656C656374656420DD
:100D0000706172616D657465723A2000433E200027
:100D10000A51756974204D6F7573656B6579204351
:100D20006F6E736F6C650A000A00257500363A20F5
:100D30006D6B5F776865656C5F74696D655F746F17
:100D40005F6D61783A20000A00257500353A206D04
:100D50006B5F776865656C5F6D61785F7370656503
:100D6000643A20000A00257500343A206D6B5F74E8
:100D7000696D655F746F5F6D61783A20000A0025C8
:100D80007500333A206D6B5F6D61785F73706565D8
:100D9000643A20000A00257500323A206D6B5F69C5
:100DA0006E74657276616C286D73293A20000A00B2
:100DB000257500313A206D6B5F64656C6179282A76
:100DC00031306D73293A20000A0A2D2D2D2D2D204A
:100DD0004D6F7573656B657920506172616D6574D7
:100DE000657273202D2D2D2D2D0A000A002575000A
:100DF0006D6B5F776865656C5F74696D655F746F57
:100E00005F6D6178203D20000A002575006D6B5FE5
:100E1000776865656C5F6D61785F73706565642088
:100E20003D20000A002575006D6B5F74696D655F7C
:100E3000746F5F6D6178203D20000A002575006D9C
:100E40006B5F6D61785F7370656564203D20000A9B
:100E5000002575006D6B5F696E74657276616C203C
:100E60003D20000A002575006D6B5F64656C61793B
:100E7000203D20000A002575006D6B5F7768656571
:100E80006C5F74696D655F746F5F6D6178203D2084
:100E9000000A002575006D6B5F776865656C5F6D96
:100EA00061785F7370656564203D20000A002575D8
:100EB000006D6B5F74696D655F746F5F6D61782045
:100EC0003D20000A002575006D6B5F6D61785F73D2
:100ED00070656564203D20000A002575006D6B5F1C
:100EE000696E74657276616C203D20000A0025757C
:100EF000006D6B5F64656C6179203D200062616309
:100F00006B6C6967687420737465703A2025750A84
:100F1000006261636B6C6967687420746F67676CEB
:100F2000653A2025750A006261636B6C69676874B5
:100F300020637573746F6D2064656372656173659A
:100F40003A2025750A006261636B6C6967687420DA
:100F5000637573746F6D20696E6372656173653A52
:100F60002025750A000011241FBECFEFDAE0DEBF96
:100F7000CDBF04B603FE24C08091C5019091C60187
:100F8000A091C701B091C8018750904BA740B04BCA
:100F9000B9F41092C5011092C6011092C7011092C7
:100FA000C80114BE84B7877F84BF88E10FB6F89468
:100FB00080936000109260000FBEE0E0F8E30995B6
:100FC00011E0A0E0B1E0E0EAF3E602C005900D9286
:100FD000A631B107D9F711E0A6E1B1E001C01D9239
:100FE000A53CB107E1F70E94410C0C94CE310C9462
:100FF0000000FF93EF93E091A601F091A7013097D5
:1010000009F00995EF91FF910895FC0185918030D9
:1010100011F0EFDFFBCF0895FF27E0E230E247FF5A
:101020000CC0419597FF09C0EDE2609570958095E1
:101030009095611D711D811D911D27FF02C0219595
:1010400030E350E2AA27660F771F881F991FAA1F57
:10105000A41710F0A41B63955A95A9F7AA3008F0BD
:10106000A95FA05DAF93F3956115710581059105A9
:1010700041F7ED3211F4EF93F395F21718F43F9323
:10108000F395FBCF8F91B5DFFA95E1F70895E991DC
:10109000F9918591803021F0853219F0AADFF9CFDE
:1010A000089520E0E89455915532C1F3503311F47E
:1010B000689455915A3348F4505390F3220F022EFE
:1010C000220F220F200D250FF4CF0EF421958991C8
:1010D0009991533619F3533729F1533559F1BC011E
:1010E00088279927E8945C3621F48991999168942E
:1010F0005591543639F446EF7EF077FF0DC08FEFEF
:101100009FEF0AC055374AE039F0583540E121F0E9
:10111000523642E009F00895FF93EF937DDFEF919F
:10112000FF91B7CFFF93EF93FC0181918030B9F32A
:1011300060DFFBCFFF93EF9368DFF1CFDF93CF93B7
:10114000CDB7DEB72596A3DFCF91DF91089580E379
:1011500092E0089580E290E0089580E498E6089592
:1011600080E098E60895805C0E949A2F0895462FAB
:10117000672F0E94CB2F0895E82FF0E0EE0FFF1F9E
:10118000EA5EFE4F8081918108958AB1807D8AB99F
:101190008BB1807D8BB9089580E885BF85BF0E94A3
:1011A000C50880B38C7F80BB81B3836081BB6E98A0
:1011B000769A8AB18F728AB98BB1806D8BB987B1FB
:1011C0008F7387B988B1806C88B984B1847484B90D
:1011D00085B18B6B85B980E090E0FC01EA5EFE4F43
:1011E00011821082FC01E05EFE4F11821082029695
:1011F0008A30910591F708952F923F924F925F9216
:101200006F927F928F929F92AF92BF92CF92DF9216
:10121000EF92FF920F931F93DF93CF9300D000D0F4
:1012200000D0CDB7DEB7A0E26A2EA1E07A2E10E0A2
:1012300005E0123091F0133028F4112341F0113001
:10124000A1F408C0133061F0143079F40CC0509A46
:1012500058980BC0519A599808C0529A5A9805C08C
:10126000539A5B9802C0559A5D9880EA8A95F1F787
:101270002FB1799905C042E050E05A83498302C0FA
:101280001A821982669904C0F4E02F2E312C02C014
:101290002224332486B1682F772767FD70956095E7
:1012A00070956627770F661F772753E0660F771FC5
:1012B0005A95E1F7369904C040E1442E512C02C002
:1012C0004424552483B1482F552747FD5095409518
:1012D00050954427550F441F552795E0440F551F3F
:1012E0009A95E1F74C9904C080E4882E912C02C0B5
:1012F00088249924199904C0B0E8AB2EB12C02C0FF
:10130000AA24BB24189904C0C12CA1E0DA2E02C083
:10131000CC24DD241D9904C0E12CF2E0FF2E02C094
:10132000EE24FF241C9905C080E094E09C838B830D
:1013300002C01C821B8289B1992787FD90958095F8
:1013400090958827990F881F9927982F8827990F9C
:10135000990F990F4E9903C0A0E0B0E102C0A0E040
:10136000B0E01B9905C0E0E0F0E2FE83ED8302C02F
:101370001E821D8230E0E1E0F0E02E273F27217041
:101380003070E981FA812E2B3F2B22293329262B1D
:10139000372B24293529242B352B282939292A298B
:1013A0003B292C293D292E293F294B815C81242B67
:1013B000352B282B392B2A2B3B2B8D819E81282BDB
:1013C000392BD3018D919C9111978217930799F135
:1013D0002D933C9380910001882359F18091B601AF
:1013E00080FF04C080E691E00E9405088091B6016C
:1013F00080FF17C000D000D0EDB7FEB731964BE5A7
:1014000051E0ADB7BEB712965C934E9311978091A1
:101410000001828313820E949E080F900F900F900C
:101420000F908091B60180FF04C089E591E00E9491
:101430000508009300010E94C5081F5F82E090E04C
:10144000680E791E153009F0F4CE809100018823D2
:1014500091F1815080930001882329F080EA9FE078
:101460000197F1F728C0809120019091210190937C
:10147000170180931601809122019091230190938E
:101480001901809318018091240190912501909376
:101490001B0180931A01809126019091270190935E
:1014A0001D0180931C018091280190912901909346
:1014B0001F0180931E0181E026960FB6F894DEBFCF
:1014C0000FBECDBFCF91DF911F910F91FF90EF9095
:1014D000DF90CF90BF90AF909F908F907F906F9054
:1014E0005F904F903F902F900895CF92DF92EF92B0
:1014F000FF920F931F93CF93DF9382E491E00E94BA
:10150000050806E111E0C0E0D0E08DE3C82E81E0DF
:10151000D82EB4E3EB2EB1E0FB2E00D000D0EDB717
:10152000FEB7D282C182D483C3830E949E080F90EB
:101530000F900F900F908AE391E00E940508F80148
:10154000819191918F010E942F2100D000D0EDB7A1
:10155000FEB7F282E182948383830E949E080F90FB
:101560000F900F900F9082E391E00E940508219662
:10157000C530D10591F6DF91CF911F910F91FF906A
:10158000EF90DF90CF90089581FF02C0229A01C0B2
:1015900022982A980895E82F8823C1F0F894269A73
:1015A00080918000816280938000809181008360BF
:1015B000809381007894F0E0E659FE4FE4918E2FFD
:1015C00090E090938B0080938A000895F894269879
:1015D000809180008E7D80938000809181008C7F3F
:1015E00080938100789410928B0010928A00089565
:1015F00008950895089508958091BB01843061F5A0
:101600009091E9008091EC0080FD02C080E001C073
:1016100080E89F70982B84E08093E9008091EB0034
:1016200080FF04C08091EE0087FD06C09F709093FC
:10163000E90008951092F1008091E80085FDFACF4D
:101640008091E80080FF05C08091E8008E7780934C
:10165000E8009F709093E900089580912A01089511
:10166000682F8091BB01843009F05BC09091E90044
:101670008091EC0080FD02C080E001C080E8292F4D
:101680002F70282B84E08093E9008091EB0080FF8D
:101690002AC08091EE0087FF26C080912B0188230D
:1016A00021F08091E80085FF1EC010922B0140912F
:1016B000E4005091E50035E020C08091BB01882313
:1016C00081F1853071F18091EB0085FD0CC0809136
:1016D000E4009091E5004817590779F0332341F46D
:1016E00081E080932B012F702093E9008FEF089504
:1016F00031504091E4005091E5008091E80085FF71
:10170000DCCF6093F1008091E80085FD05C08091F9
:10171000E8008E778093E8002F702093E90080E046
:1017200008958FEF0895DF93CF9300D00F92CDB738
:10173000DEB7AC018091BB018430D9F483E08093A3
:10174000E90020E0215021F08091E80085FFFACFE8
:101750005B834A8383E08983CE01019663E070E076
:1017600040E050E00E9413118091E8008E77809352
:10177000E8000F900F900F90CF91DF910895DF93C5
:10178000CF9300D00F92CDB7DEB7AC018091BB01F3
:101790008430D9F483E08093E90020E0215021F0E7
:1017A0008091E80085FFFACF5B834A8382E08983DA
:1017B000CE01019663E070E040E050E00E9413111A
:1017C0008091E8008E778093E8000F900F900F9043
:1017D000CF91DF910895AC018091BB018430B1F4C9
:1017E00082E08093E90020E0215021F08091E80020
:1017F00085FFFACFCA0165E070E040E050E00E944A
:1018000013118091E8008E778093E80008950F937C
:101810001F93182F092F8091BB01843079F52091F7
:101820003D01222311F086E001C081E08093E900B0
:1018300090E0915021F08091E80085FFFACF2223BB
:1018400029F0812F902F60E170E004C0812F902F4C
:1018500068E070E040E050E00E9413118091E800E1
:101860008E778093E800ADE2B1E0212F302FC901DF
:10187000FC0180E101900D928150E1F71F910F91E1
:10188000089584B7877F84BF88E10FB6F89480936A
:101890006000109260000FBE80E090E020E80FB67C
:1018A000F89420936100809361000FBE0E947E0E29
:1018B0000E94050F8091E20084608093E20080E343
:1018C0009BE00E94562078948091BB018430E1F720
:1018D0008FE791E00E9405080E946B1481E091E07F
:1018E0000E94E8128EE691E00E9405080CC00E945A
:1018F0009F208091B901882331F00E948E20882397
:1019000011F00E94DD0D8091BB01853081F30E94B2
:10191000BC13F9CF8091BD01833009F455C08430E8
:1019200030F4813071F0823009F0A5C08CC08A306B
:1019300009F479C08B3009F461C0893009F09BC08B
:1019400020C08091BC01813A09F095C08091E800E7
:10195000877F8093E8008091C0019091C101892B1D
:1019600021F48DE291E060E103C080E090E060E06E
:1019700070E00E943A108091E8008B778093E80035
:1019800008958091BC01813209F075C08091C00139
:101990009091C101892B09F06EC08091E800877F8A
:1019A0008093E80005C08091BB01882309F463C0DF
:1019B0008091E80082FFF7CF8091F10080932A01A7
:1019C0008091E8008B7715C08091BC01813A09F0C5
:1019D00052C08091E800877F8093E8008091E80002
:1019E00080FFFCCF80910B018093F1008091E80093
:1019F0008E778093E8000E942B0E08958091BC01A1
:101A00008132C9F58091E800877F8093E8000E94C9
:101A10002B0E10920B018091BE01882361F181E0B1
:101A200080930B0108958091BC01813221F5809152
:101A3000E800877F8093E8000E942B0E8091BF0111
:101A400080932C0108958091BC01813AA1F480918A
:101A5000E800877F8093E8008091E80080FFFCCF5A
:101A600080912C018093F1008091E8008E77809323
:101A7000E8000E942B0E089581E061EC42E00E9494
:101A8000F30D82E061EC42E00E94F30D83E061EC33
:101A900042E00E94F30D84E061EC46E20E94F30D07
:101AA00085E060EC42E20E94F30D86E061EC42E1E9
:101AB0000E94F30D08950E9489200895DA01933061
:101AC000C1F0943030F4913051F0923009F06DC093
:101AD0000BC0913221F1923209F067C03FC0EBEAAE
:101AE000F2E022E130E065C0EDEBF2E02DE830E01D
:101AF00060C0813051F0813020F0823009F055C053
:101B000008C0EAE4F3E0849107C0EEE4F3E08491D6
:101B100003C0E2E6F3E08491282F30E04AC062304F
:101B2000A1F0633028F4662341F06130F1F508C07C
:101B3000633071F06430C9F50EC0EFECF2E002C022
:101B4000E8EEF2E029E030E034C0E1E0F3E0FACF83
:101B5000EAE1F3E0F7CFEAE3F3E0F4CF6230B1F08B
:101B6000633028F4662341F06130F9F40AC0633031
:101B700091F06430D1F414C0E0E9F1E02FE330E0FB
:101B800018C0EFECF1E02DE430E013C0ECE1F2E03E
:101B900026E330E00EC0E2E5F2E020E230E009C0EA
:101BA000E2E7F2E029E330E004C0E0E0F0E020E02A
:101BB00030E0ED93FC93C901089580E189BD82E195
:101BC00089BD09B400FEFDCF8091D8008F7D809340
:101BD000D8008091E00082608093E0008091E00076
:101BE00081FDFCCF0895382F282F2EC0822F8F70B3
:101BF0008093E900231721F4762F942F50E006C03C
:101C00007091EC009091ED005091F00091FF1BC09D
:101C10008091EB008E7F8093EB008091ED008D7FB3
:101C20008093ED008091EB0081608093EB007093D6
:101C3000EC009093ED005093F0008091EE0087FD52
:101C400002C080E008952F5F273080F23F7030930C
:101C5000E90081E008958091BC0188239CF404C0D0
:101C60008091BB018823B9F08091E80082FFF8CF12
:101C70008091E8008B778093E80008958091BB0104
:101C8000882349F08091E80080FFF8CF8091E80038
:101C90008E778093E80008954091E4005091E5002C
:101CA00024E68091EC0080FF24C08091E80080FD54
:101CB0001EC08091BB01882311F482E00895853015
:101CC00011F483E008958091EB0085FF02C081E06C
:101CD00008958091E4009091E5008417950709F339
:101CE000222311F484E008952150AC01DACF80E082
:101CF00008958091E80082FFDCCFF9CF0E94120F97
:101D00000E941A0FE0EEF0E0808181608083A8EDF0
:101D1000B0E08C918F778C9319BCE7EDF0E0808177
:101D20008E7F80838C918F7E8C931092BA01089560
:101D3000DF93CF9300D0CDB7DEB70E94120F0E9481
:101D40001A0F8091D8008F778093D8008091D800A7
:101D500080688093D8008091D8008F7D8093D800D0
:101D600019BC1092BB011092B7011092B9011092E8
:101D7000B80180E091E060E0AE014F5F5F4F0E94EC
:101D80005E0D892B31F0E981FA813796E491E09379
:101D90000C018091E0008B7F8093E0008091D8005F
:101DA00081608093D80080910C0190E028E030E0C1
:101DB00040E003C04F5F220F331F28173907D0F3CD
:101DC0004295407F426080E060E00E94F30D809188
:101DD000E1008E7F8093E1008091E200816080933A
:101DE000E2008091E20088608093E2008091E00050
:101DF0008E7F8093E0008091D80080618093D8002E
:101E00000F900F90CF91DF910895E7EDF0E0808182
:101E10008160808384E082BF81E08093BA010E9468
:101E2000980E0895E8EDF0E080818E7F8083109217
:101E3000E20008951092DA001092E10008951F92D6
:101E40000F920FB60F9211241F932F933F934F932E
:101E50005F936F937F938F939F93AF93BF93EF9312
:101E6000FF931091E9008091EC001092E9008091BD
:101E7000F000877F8093F00078940E9466111092A2
:101E8000E9008091F00088608093F0001F7010934B
:101E9000E900FF91EF91BF91AF919F918F917F9159
:101EA0006F915F914F913F912F911F910F900FBEB6
:101EB0000F901F9018951F920F920FB60F9211243A
:101EC0002F933F934F935F936F937F938F939F9342
:101ED000AF93BF93EF93FF938091E10082FF0BC01C
:101EE0008091E20082FF07C08091E1008B7F8093A8
:101EF000E1000E94FC0A8091DA0080FF1FC08091FF
:101F0000D80080FF1BC08091DA008E7F8093DA00BA
:101F10008091D90080FF0DC080E189BD82E189BD3B
:101F200009B400FEFDCF81E08093BB010E94F80A56
:101F300005C019BC1092BB010E94F90A8091E10012
:101F400080FF19C08091E20080FF15C08091E200FF
:101F50008E7F8093E2008091E20080618093E200B6
:101F60008091D80080628093D80019BC85E080936E
:101F7000BB010E94FB0A8091E10084FF2EC080918A
:101F8000E20084FF2AC080E189BD82E189BD09B4F5
:101F900000FEFDCF8091D8008F7D8093D800809186
:101FA000E1008F7E8093E1008091E2008F7E80933C
:101FB000E2008091E20081608093E2008091B701AD
:101FC000882331F48091E30087FD02C081E001C0E5
:101FD00084E08093BB010E945B0D8091E10083FF50
:101FE00038C08091E20083FF34C08091E100877F98
:101FF0008093E10082E08093BB011092B701809151
:10200000E1008E7F8093E1008091E2008E7F8093DB
:10201000E2008091E20080618093E20080910C01F7
:1020200090E040E028E030E003C04F5F220F331F14
:1020300028173907D0F34295407F426080E060E086
:102040000E94F30D8091F00088608093F0000E9460
:10205000FA0AFF91EF91BF91AF919F918F917F917C
:102060006F915F914F913F912F910F900FBE0F9005
:102070001F901895E82F4091C2015091C301461757
:10208000570750F42E2F392FC901DC0180910C0124
:10209000E82FF0E090E045C06115710511F0AB014B
:1020A000F1CF8091E8008E778093E80040E050E027
:1020B000E9CF8091BB01882309F445C0853009F43C
:1020C00044C08091E80083FF02C081E008958091C0
:1020D000E80082FD32C08091E80080FF22C080913C
:1020E000F3009091F200782F60E0292F30E0262B4A
:1020F000372B07C08D918093F100415050402F5FE6
:102100003F4F4115510519F02E173F0798F390E006
:102110002E173F0709F491E08091E8008E778093B5
:10212000E8004115510529F6992319F606C080915A
:10213000BB01882341F0853041F08091E80082FFA7
:10214000F6CF80E0089582E0089583E008959C0131
:102150004091C2015091C3014617570738F4F90165
:1021600080910C01A82FB0E090E046C06115710588
:1021700011F0AB01F4CF8091E8008E778093E800F6
:1021800040E050E0ECCF8091BB01882309F447C0C8
:10219000853009F446C08091E80083FF02C081E0E9
:1021A00008958091E80082FD34C08091E80080FFAE
:1021B00023C08091F3009091F200782F60E0292FE6
:1021C00030E0262B372B08C084918093F1003196A4
:1021D000415050402F5F3F4F4115510519F02A17CC
:1021E0003B0790F390E02A173B0709F491E08091B8
:1021F000E8008E778093E8004115510521F6992378
:1022000009F0C1CF06C08091BB01882341F0853021
:1022100041F08091E80082FFF6CF80E0089582E0EF
:10222000089583E00895BF92CF92DF92EF92FF92DC
:102230000F931F93CF93DF93182F092F7B016A0110
:102240000E944C0EB82E8823B1F5812F902F9C014F
:10225000E901C114D10439F0F60180819181E81AB5
:10226000F90AC80FD91F00E010E022C08091E800F1
:1022700085FD16C08091E8008E778093E800C11438
:10228000D10449F0F60180819181800F911F9183E3
:10229000808385E011C00E944C0E882349F00CC059
:1022A00089918093F1000894E108F1080F5F1F4FB6
:1022B000E114F104D9F68B2DDF91CF911F910F918D
:1022C000FF90EF90DF90CF90BF9008950F931F93F2
:1022D000DF93CF93CDB7DEB7AC970FB6F894DEBFE0
:1022E0000FBECDBFECEBF1E08091F100819321E0D6
:1022F000E43CF207C9F70E948A0C8091E80083FF52
:102300004EC18091BC013091BD01353009F487C0C8
:10231000363040F43130C9F1313070F0333009F0EB
:102320003EC133C0383009F4FAC0393009F40BC16A
:10233000363009F034C198C0803821F0823809F075
:102340002EC108C09091B8018091B901882399F0FD
:10235000926011C08091C0018F708093E9008091DC
:10236000EB0090E025E0969587952A95E1F7982F68
:1023700091701092E9008091E800877F8093E800D7
:102380009093F1001092F100D6C0882319F08230AA
:1023900009F005C190E08F719070009721F00297CD
:1023A00009F0FDC00CC08091BE01813009F0F7C07A
:1023B0001092B901333069F58093B9012AC0809138
:1023C000BE01882331F52091C0012F7009F4E7C0C8
:1023D0002093E9008091EB0080FF1BC0333021F493
:1023E0008091EB00806213C08091EB00806180934C
:1023F000EB0081E090E002C0880F991F2A95E2F778
:102400008093EA001092EA008091EB00886080934C
:10241000EB001092E9008091E800877F8FC088234D
:1024200009F0BDC01091BE011F770FB7F8948091DD
:10243000E800877F8093E8000E942B0E8091E800DF
:1024400080FFFCCF8091E3008078812B8093E300B4
:1024500080688093E300112311F482E001C083E0DF
:102460008093BB010FBF9BC08058823008F097C09B
:102470008091BE019091BF0123E08C3D920709F04D
:1024800034C083E08C838AE28B837FB7F894DE01CB
:1024900015966EE040E050E011E2E62FF0E0109378
:1024A0005700849140FF03C082958F706F5F8F70DB
:1024B000282F30E08A3018F0C901C79602C0C90140
:1024C000C0968D939D934F5F5F4F4431510529F71F
:1024D0007FBF8091E800877F8093E800CE0103965C
:1024E0006AE270E00E943A1014C06091C001AE012F
:1024F0004F5F5F4F0E945E0DBC01009709F44FC013
:102500008091E800877F8093E80089819A810E940A
:10251000A7108091E8008B778093E80040C0803856
:1025200009F03DC08091E800877F8093E8008091AA
:10253000B7018093F1008091E8008E778093E800E6
:102540000E942B0E2CC0882351F580E091E060E0C2
:10255000AE014F5F5F4F0E945E0D892B01F190919C
:10256000BE01E981FA817196E491E917C0F080918A
:10257000E800877F8093E8009093B7010E942B0EBC
:102580008091B701882331F48091E30087FD02C078
:1025900081E001C084E08093BB010E943C0D8091EA
:1025A000E80083FF0AC08091EB0080628093EB001B
:1025B0008091E800877F8093E800AC960FB6F8948E
:1025C000DEBF0FBECDBFCF91DF911F910F91089558
:1025D000909343018093420108958091420190912C
:1025E00043010895E0914201F0914301309711F4C5
:1025F00080E008950190F081E02D09950895E09123
:102600004201F0914301309721F00480F581E02DE3
:10261000099508959C0180914001909141012817EE
:10262000390779F03093410120934001E091420154
:10263000F0914301309729F00680F781E02DC90120
:10264000099508959C0180913E0190913F012817C2
:10265000390779F030933F0120933E01E091420128
:10266000F0914301309729F00084F185E02DC901F4
:1026700009950895EF92FF920F931F93CF93DF93E5
:10268000182F092FE0914201F09143013097D9F1C1
:102690000280F381E02D09958091B60182FF33C05D
:1026A00080FF04C086E793E00E940508812F902FE9
:1026B0009C01E90110E080E7E82E83E0F82E80918C
:1026C000B60180FF14C000D000D0EDB7FEB7319640
:1026D000ADB7BEB71296FC92EE92119788818283B5
:1026E00013820E949E080F900F900F900F901F5F13
:1026F0002196103121F78091B60180FF04C08EE64B
:1027000093E00E940508DF91CF911F910F91FF90F8
:10271000EF9008951F93182F8091B60182FF27C074
:1027200080FF04C08FE893E00E9405088091B60105
:1027300080FF15C000D000D0EDB7FEB731968AE813
:1027400093E0ADB7BEB712969C938E931197128308
:1027500013820E949E080F900F900F900F9080910F
:10276000B60180FF04C088E893E00E940508812F2D
:102770000E94C40A1F9108952F923F925F926F9218
:102780007F928F929F92AF92BF92CF92DF92EF9201
:10279000FF920F931F93DF93CF93CDB7DEB72A97A6
:1027A0000FB6F894DEBF0FBECDBF0E94FC0825E433
:1027B000822E21E0922EAA24BB2491E0292E312CD6
:1027C0005A2C8A2D0E94BC086C01F401E080F18033
:1027D000E826F926E114F104E1F18091B60181FFC8
:1027E00002C00E94750A00E010E03101002E02C014
:1027F000660C771C0A94E2F7C3018E219F21892B76
:1028000019F10E94F91F9C0109835A821B82C6207C
:10281000D720CD2811F081E08B83C9018160782F0A
:102820009D838C8349815A816B818D810E944B18D5
:10283000F501EE0FFF1FEB5BFE4F80819181862536
:1028400097259183808321C00F5F1F4F0E301105A4
:1028500061F60894A11CB11C82E090E0880E991EDC
:1028600095E0A916B10409F0ABCF0E94F91F2FEF34
:102870002E832F8318868160782F9A8789874FEF60
:102880005FEF60E08A850E944B180E9460251091DE
:1028900044010E94F212181731F00E94F212809344
:1028A00044010E948A132A960FB6F894DEBF0FBE29
:1028B000CDBFCF91DF911F910F91FF90EF90DF90EF
:1028C000CF90BF90AF909F908F907F906F905F90D0
:1028D0003F902F9008950E94F01F0E94CC080E9404
:1028E00086210E94812F0E944D300895DF93CF935F
:1028F00000D000D00F92CDB7DEB70F900F900F90A1
:102900000F900F90CF91DF910895DF93CF9300D078
:1029100000D000D0CDB7DEB726960FB6F894DEBF54
:102920000FBECDBFCF91DF9108950E949E1C892FCD
:1029300082958F70282F30E02C3031054CF42A30EE
:10294000310574F4225030402230310538F408C08B
:102950002C30310539F02F30310521F080E0089519
:1029600081E008959F70892F90E023E096958795E8
:102970002A95E1F7817008950E94001E0E94D51DDE
:102980000E94B61E0E9484240E94902480E090E061
:102990000E940A1380E090E00E94221308950E9492
:1029A000F01D0E94BC140895882321F00E94E91DA7
:1029B0000E94B61E0895882321F00E94E31D0E9404
:1029C000B61E0895282F882309F44EC0823859F482
:1029D0000E94F21281FF48C089E30E94621E0E9499
:1029E000B61E89E30CC0833869F40E94F21280FF9E
:1029F0003BC083E50E94621E0E94B61E83E50E94D2
:102A0000181E1FC0843859F40E94F21282FF2CC095
:102A100087E40E94621E0E94B61E87E4F0CF8450B5
:102A2000813A10F4822FEBCF822F805E883060F4E1
:102A3000277081E090E001C0880F2A95EAF70E9494
:102A4000E91D0E94B61E0895822F855A833028F40E
:102A500080E090E00E940A130895285A233120F460
:102A600080E090E00E94221308951F93182F88237E
:102A700009F4C6C0823859F40E94F21281FDC0C028
:102A800089E30E94621E0E94B61E89E30CC083384F
:102A900079F40E94F21280FDB3C083E50E94621EA9
:102AA0000E94B61E83E50E94181E0E94B61EA8C092
:102AB000843859F40E94F21282FDA2C087E40E9479
:102AC000621E0E94B61E87E4EECF8450813A50F415
:102AD000812F0E940A29882309F092C0812F0E9429
:102AE000621EE3CF812F805E883050F4177081E042
:102AF00090E001C0880F1A95EAF70E94E31DD5CF38
:102B0000812F855A8330A0F4153A19F481E890E0BA
:102B10000CC0163A19F482E890E007C0173A19F091
:102B200080E090E002C083E890E00E940A1368C051
:102B3000812F885A833108F063C0183A19F482EE65
:102B400090E05CC0193A19F489EE90E057C01A3A47
:102B500019F48AEE90E052C01B3A19F485EB90E02C
:102B60004DC01C3A19F486EB90E048C01D3A19F4A8
:102B700087EB90E043C0103B19F48CEC90E03EC032
:102B80001E3A19F48DEC90E039C01F3A19F483E82D
:102B900091E034C0113B19F48AE891E02FC0123B58
:102BA00019F482E991E02AC0133B19F484E991E019
:102BB00025C0143B19F481E292E020C0153B19F4C2
:102BC00083E292E01BC0163B19F484E292E016C047
:102BD000173B19F485E292E011C0183B19F486E224
:102BE00092E00CC0193B19F487E292E007C01A3B4F
:102BF00019F080E090E002C08AE292E00E94221385
:102C00001F910895AF92BF92CF92DF92EF92FF9201
:102C10000F931F93DF93CF93CDB7DEB72A970FB6ED
:102C2000F894DEBF0FBECDBF5C01DE011196FC0142
:102C300085E001900D928150E1F70B81F501F5805F
:102C4000F2944FE0F422DE011696FE01319685E003
:102C500001900D928150E1F73E812F8189859A85FF
:102C6000892B09F407C22F3F09F0D2C13F3F09F079
:102C7000CFC100C28D2D8F70222311F4182F03C0F5
:102C8000182F1295107F002349F0112309F47EC1FB
:102C9000812F0E94F31D0E94B61E78C18C2D0E94C8
:102CA000E214112309F4E6C1812F0E94F91D0E944C
:102CB000B61EE0C18D2D8F70203211F4182F03C085
:102CC000182F1295107FCC2021F0F1E0CF1609F5D6
:102CD00014C0002349F0FF2031F121E0F21619F56C
:102CE000812F0E94031EC6C1FF2021F081E0F8164B
:102CF00009F4C0C10E94061E1DC0002329F0E5E0B2
:102D0000EF1508F4B7C10FC0F4E0FF1508F4B2C125
:102D100011C0002361F0FF2031F0F501858180FFB3
:102D200035C18F708583812F0E94DB14A3C1FF20E2
:102D300009F037C1812F0E94D4149CC18D2D869536
:102D40008695837090E0009721F0019709F092C179
:102D50000AC0002319F0C601937002C080E090E021
:102D60000E940A1387C1002319F0C601937002C0A4
:102D700080E090E00E9422137DC1002321F08C2D81
:102D80000E94922303C08C2D0E94FC230E94902459
:102D900071C18D2D837009F05EC0002309F06AC1F6
:102DA0002C2D229526952770220F220F8C2D8F70A7
:102DB000E82EFF2400E010E0022E04C0EE0CFF1C01
:102DC000001F111F0A94D2F7C4FC05C060E070E038
:102DD00080E090E00FC06FE070E080E090E004C021
:102DE000660F771F881F991F2A95D2F760957095F7
:102DF00080959095D694D694F3E0DF224D2D50E047
:102E000041305105A9F0423051051CF4452B49F0E1
:102E100031C14230510589F04330510509F02AC1D2
:102E200013C06E297F29802B912B0E94B01D22C1D7
:102E30006E297F29802B912B0BC06E297F29802B37
:102E4000912B0E949F1D16C10E94B01DC801B701A1
:102E50000E94C11D0FC190E0002311F49695879543
:102E6000817009F407C12C2D229526952770220F19
:102E7000220F8C2D8F70E82EFF2400E010E0022E30
:102E800004C0EE0CFF1C001F111F0A94D2F7C4FCF3
:102E900005C060E070E080E090E00FC06FE070E09F
:102EA00080E090E004C0660F771F881F991F2A9565
:102EB000D2F76095709580959095D694D69423E03E
:102EC000D2224D2D50E041305105A9F0423051053C
:102ED0001CF4452B49F0CEC04230510589F04330F7
:102EE000510509F0C7C013C06E297F29802B912B93
:102EF0000E94031DBFC06E297F29802B912B0BC020
:102F00006E297F29802B912B0E94F21CB3C00E9456
:102F1000031DC801B7010E94141DACC081EFC81683
:102F2000E9F08C1520F0E0EFCE1661F507C0F2EF66
:102F3000CF16C9F023EFC21629F51AC0002329F0D5
:102F400084E08F1508F496C004C0E5E0EF1508F49E
:102F500091C08D2D8F710E94251D8CC08D2D8F717C
:102F6000002329F119C08D2D8F710023A9F01FC0F6
:102F7000002329F08D2D8F710E947D1D7BC00E9442
:102F80008D1D78C0002359F0FF2021F08C2D0E9468
:102F9000351570C08D2D8F710E94611D6BC0FF2093
:102FA00021F08C2D0E94E21465C08D2D8F710E943E
:102FB000411D60C0FFE0DF22C5016C2D4D2D0E9438
:102FC000DE1E0E94471C56C0002309F053C021E0BA
:102FD000C21669F0C21640F082E0C81659F0E3E06C
:102FE000CE1609F047C009C00E944B2F43C00E9473
:102FF000152F40C00E94D92E3DC00E94962E3AC087
:10300000FFE0DF22C5016C2D4D2D0E94E11E32C074
:1030100089819A810E949E1C6C010E949D1C0E94C5
:103020009C1C8D2D82958F7090E08530910509F460
:10303000A4CE8630910554F4843091050CF07ECEF8
:103040002D2D207F02970CF035CE14CE8C309105BB
:103050003CF48A3091050CF061CF089759F499CE71
:103060008D30910509F4B0CF8D3091050CF4A2CFCD
:103070000F9731F22A960FB6F894DEBF0FBECDBF80
:10308000CF91DF911F910F91FF90EF90DF90CF9044
:10309000BF90AF900895DF93CF93CDB7DEB72B9756
:1030A0000FB6F894DEBF0FBECDBF342F4F83252F50
:1030B000588769877A878B87472F582FFE0131966B
:1030C00086E0DF011D928A95E9F76B8339832A83B5
:1030D0004C835D83432F522F8D819E810E94881BDC
:1030E0002B960FB6F894DEBF0FBECDBFCF91DF9108
:1030F00008950F931F930091560115C010E0F80139
:10310000EE0FFF1FE00FF11FEE0FFF1FE95AFE4FFA
:103110004081518162817381848195810E948514EF
:103120000F5F1F4F077080915501081739F71F91E6
:103130000F91089540914F015091500160915101BC
:103140007091520180915301909154010E94851415
:1031500008950F931F93CF93DF938091540182952D
:103160008F7009F06DC080915101882309F468C007
:1031700060915601009155014091520150915301C7
:103180001091500170914F01EA01C095D09555C042
:103190004115510509F44FC01F3F49F480E090E00C
:1031A0007F3F11F481E090E0882309F044C0262F8E
:1031B00030E0F901EE0FFF1FE20FF31FDF01AA0F4E
:1031C000BB1FA95ABE4F11968C911197181799F5EC
:1031D0008C91781781F5EE0FFF1FE75AFE4F808123
:1031E000882349F513968D919C9114978417950720
:1031F00018F0841B950B02C08C0F9D1F883C910515
:10320000D0F4809154018F70806180935401F90152
:10321000EE0FFF1FE20FF31FEE0FFF1FE45AFE4FEA
:1032200080818F70806180838FE491E00E9402161C
:103230000E94791805C06F5F6770601709F0A8CF0A
:10324000DF91CF911F910F910895DF92EF92FF923E
:103250000F931F93DF93CF93CDB7DEB76B970FB666
:10326000F894DEBF0FBECDBF8C01DC011296DC905E
:1032700012974C9111965C9111971396ED90FC90DA
:103280001497209152013091530160915001709137
:103290004F012115310509F4DBC16F3F09F003C26D
:1032A0007F3F09F000C2D4C1E216F30640F0C70127
:1032B000821B930B883C910508F0EEC008C0209556
:1032C00030952E0D3F1D283C310508F0E5C080915A
:1032D0005401807F09F095C06F3F09F0EAC17F3F3C
:1032E00009F0E7C115C0741799F4DD2089F48091C5
:1032F00054018F708061809354010E949A188FE46A
:1033000091E00E94021680915401F8018583BCC1AE
:10331000FD82EC825A834983DB82DE011696FE0130
:10332000319685E001900D928150E1F76885DE01CC
:103330001B96FE01369685E001900D928150E1F7D3
:103340002C853B858E859F85892B09F451C02F3FA5
:1033500009F0B3C13F3F09F0B0C14AC0FD82EC8221
:103360005A834983DB82DE011B96FE01319685E09C
:1033700001900D928150E1F7FC847B856D858091F1
:103380005601909155011FC0282F30E0F901EE0F32
:10339000FF1FE20FF31FDF01AA0FBB1FA95ABE4F89
:1033A00011968C911197F81651F48C91781739F485
:1033B000EE0FFF1FE75AFE4F80816817C9F42F5F99
:1033C0003F4F822F87708917F9F68DC19F7059F092
:1033D000442349F459C19F7031F0D80115968C915E
:1033E000807F09F451C1405E483008F44DC148C1A6
:1033F000DD2009F449C1809154018160809354011A
:1034000043C16F3F09F05DC17F3F09F05AC114C04D
:10341000741791F4DD2081F480915401F8018583C3
:10342000C8010E940216AFE4B1E0F80186E0019005
:103430000D928150E1F720C15A83498389819A8195
:103440000E949514882309F41BC1DD2009F418C1DA
:1034500030915401832F82958F7090E002979CF0F9
:103460009091500120914F01FE01709686E0DF019E
:103470001D928A95E9F7998B288BFC8AEB8A3D8B04
:10348000CF010E940216AFE4B1E0F80186E001909E
:103490000D928150E1F7EEC080915401807FA9F434
:1034A0007E2DFD82EC825A834983DB826D2D8D81D6
:1034B0000E9476140FE411E0C8010E94021686E013
:1034C000F80111928A95E9F7C0C06F3F09F0FDC07D
:1034D0007F3F09F0FAC014C0741791F4DD2081F425
:1034E00080915401D80115968C93C8010E94021650
:1034F000EFE4F1E086E0DF011D928A95E9F7BEC0B6
:103500005A83498389819A810E949514882309F4FA
:10351000B7C0DD2009F4B4C030915401832F8295E7
:103520008F7090E002979CF09091500120914F0194
:10353000FE01769686E0DF011D928A95E9F79F8B62
:103540002E8BFA8EE98E3B8FCF010E940216AFE4DC
:10355000B1E0F80186E001900D928150E1F78AC058
:103560006F3F09F0B6C07F3F09F0B3C071C0E216EB
:10357000F30640F0C701821B930B883C910508F0CD
:1035800053C008C0209530952E0D3F1D283C3105B5
:1035900008F04AC0DD2009F473C06F3F09F09FC0F6
:1035A0007F3F09F09CC029C0741739F590915401F0
:1035B00090FD1AC0892F82958F70B1F0F801958324
:1035C0008F3031F08F5F8295807F9F70982B95832D
:1035D000C8010E940216AFE4B1E0F80186E0019054
:1035E0000D928150E1F748C0AFE4B1E0F80186E008
:1035F00001900D928150E1F741C05A83498389813E
:103600009A810E949514882349F0AFE4B1E0F80153
:1036100086E001900D928150E1F72CC08091540119
:103620008160809354012CC07E2DFD82EC825A83F0
:103630004983DB826D2D8D810E947614EFE4F1E0E9
:1036400086E0DF011D928A95E9F70E949A181CC056
:10365000DD20B1F05A83498389819A810E949514B3
:10366000882371F0AFE4B1E0F80186E001900D929B
:103670008150E1F70E94A9180E949A1881E005C0C4
:10368000C8010E940216FACF80E06B960FB6F8943C
:10369000DEBF0FBECDBFCF91DF911F910F91FF9085
:1036A000EF90DF90089580915101882309F458CF5D
:1036B000FBCD651709F02CCE16CE613009F498CEFB
:1036C0004DCE651709F0B8CEA3CE651709F018CF17
:1036D00003CF80915101882309F0BACF48CF6517F5
:1036E00009F08BCF61CF5A83498389819A810E94E7
:1036F0009E1C482F892F82958F70282F30E0223012
:1037000031050CF463CE243031050CF0B9CF63CE13
:103710000F931F93DF93CF93CDB7DEB72C970FB6E0
:10372000F894DEBF0FBECDBF4F83588769877A8775
:103730008B879C878E01095F1F4FC8010E94251946
:103740008823D9F028853F818A859B85892B09F4B8
:103750006BC02F3F49F480E090E03F3F11F481E0DF
:1037600090E0882309F060C04F81588569857A858B
:103770008B859C850E94851457C0DE011196F80147
:1037800086E001900D928150E1F7F981EA814C8148
:103790005D814115510509F447C0EF3F09F04CC068
:1037A000FF3F09F049C040C0F983EA835D834C8341
:1037B000F901EE0FFF1FE20FF31FEE0FFF1FE95A93
:1037C000FE4FDE01119686E00D9001928150E1F7E7
:1037D000609355010E94791827C0919FC001112460
:1037E000895A9E4F0E942519882309F445C080916B
:1037F000560190E0FC01EE0FFF1FE80FF91FEE0FDE
:10380000FF1FE95AFE4F408151816281738184819B
:1038100095810E9485148091560190E001968770F1
:1038200090708093560101C016E0909156018091EE
:103830005501981791F620C080915501282F30E04E
:103840002F5F3F4FB90167707070215030408091F9
:10385000560190E06817790709F0A6CF0E94CF14AF
:103860001092550110925601EFE4F1E086E0DF017D
:103870001D928A95E9F7D8CF2C960FB6F894DEBF43
:103880000FBECDBFCF91DF911F910F910895EF92A1
:10389000FF921F93CF93DF93EC01009709F446C08A
:1038A00010E080EAE82E8FE0F82EFE012196949138
:1038B000943740F4943040F5913069F0923009F03B
:1038C00035C00EC09537E1F0953778F0892F8458D0
:1038D000803760F51DC0FE012196E4918E2F15C042
:1038E000FE012196E4918E2F15C0FE01249104C0A3
:1038F000C7010197F1F721502223D1F721960CC07F
:10390000FE012196149108C0892F0E94351504C02C
:10391000892F8F770E94E214212F04C0C7010197DD
:10392000F1F72150222309F4C0CFF8CFDF91CF91D6
:103930001F91FF90EF90089508950895CF92DF9220
:10394000EF92FF920F931F93CF93DF936C01E09060
:103950008701F09088010091890110918A0180917E
:103960008B0190918C01A0918D01B0918E01E82A7C
:10397000F92A0A2B1B2BCFE1D0E0D801C7010C2E6E
:1039800004C0B695A795979587950A94D2F781704C
:103990009070892B41F08C2FB6010E94751F9C01FD
:1039A0008130910551F421978FEFCF3FD80729F748
:1039B00080E0B6010E94751F9C01822FDF91CF919C
:1039C0001F910F91FF90EF90DF90CF90089560933B
:1039D0008B0170938C0180938D0190938E010E94D6
:1039E000BC1408959B01AC0160918B0170918C0116
:1039F00080918D0190918E016227732784279527EE
:103A00000E94E71C08959B01AC0160918B017091AD
:103A10008C0180918D0190918E0162237323842308
:103A200095230E94E71C08959B01AC0160918B01D6
:103A300070918C0180918D0190918E01622B732B7E
:103A4000842B952B0E94E71C089521E030E040E094
:103A500050E004C0220F331F441F551F8A95D2F730
:103A600080918B0190918C01A0918D01B0918E017C
:103A7000282739274A275B27CA01B9010E94E71C7A
:103A8000089521E030E040E050E004C0220F331FF1
:103A9000441F551F8A95D2F7209530954095509533
:103AA00080918B0190918C01A0918D01B0918E013C
:103AB000282339234A235B23CA01B9010E94E71C4A
:103AC000089521E030E040E050E004C0220F331FB1
:103AD000441F551F8A95D2F780918B0190918C01DC
:103AE000A0918D01B0918E01282B392B4A2B5B2B95
:103AF000CA01B9010E94E71C089521E030E040E0CE
:103B000050E004C0220F331F441F551F8A95D2F77F
:103B1000CA01B9010E94E71C089560E070E080E0EE
:103B200090E00E94E71C08956093870170938801DC
:103B30008093890190938A010E94BC1408959B018F
:103B4000AC01609187017091880180918901909109
:103B50008A0162277327842795270E94941D089560
:103B60009B01AC016091870170918801809189016E
:103B700090918A0162237323842395230E94941DCC
:103B800008959B01AC01609187017091880180913B
:103B9000890190918A01622B732B842B952B0E94B3
:103BA000941D08950E94941D089581E090E0E09195
:103BB0000D01F0910E01E80FF91F1082019680317E
:103BC0009105A9F7089590919F01982B90939F01DB
:103BD0000895809590919F01982390939F01089557
:103BE00010929F0108959091A101982B9093A101AB
:103BF000089580959091A10198239093A101089533
:103C00001092A10108958093A00108951092A0013F
:103C10000895E0910D01F0910E0120E091E0818185
:103C200081112F5F9F5F31969031C9F7822F0895E0
:103C3000482F80913D01882399F1842F86958695A0
:103C400086958F3098F4E0910D01F0910E01E80F08
:103C5000F11D477081E090E002C0880F991F4A95DE
:103C6000E2F7809521818223818308958091B601B6
:103C700080FF27C000D000D0EDB7FEB7319682EAB2
:103C800093E0ADB7BEB712969C938E931197428383
:103C900013820E949E080F900F900F900F9008952E
:103CA00020E030E0E0910D01F0910E01E20FF31FF2
:103CB0008281841709F412822F5F3F4F2E30310525
:103CC00089F70895382F80913D01882391F1832F42
:103CD0008695869586958F3090F4E0910D01F09150
:103CE0000E01E80FF11D377081E090E002C0880FEF
:103CF000991F3A95E2F72181282B2183089580911D
:103D0000B60180FF32C000D000D0EDB7FEB73196CB
:103D100080EC93E0ADB7BEB712969C938E9311974B
:103D2000328313820E949E080F900F900F900F9085
:103D30000895A0910D01B0910E01FD0120E08FEFDB
:103D40009281931791F08F3F19F4992309F4822FF0
:103D50002F5F31962E30A1F78F3F39F0992787FDDD
:103D60009095A80FB91F12963C930895E0910D010C
:103D7000F0910E0180919F018083E0910D01F091FF
:103D80000E0180819091A101892B80839091A001E7
:103D9000992369F0E0910D01F0910E018081892B4A
:103DA00080830E94091E882311F00E94061E8091C4
:103DB0000D0190910E010E943A13089580E090E069
:103DC00008950895282F8B3B50F4883A10F5853AD2
:103DD00098F4843068F4813009F083C07FC0803E5D
:103DE00008F47FC0883E20F0803F08F47AC073C09A
:103DF000822F90E09C0177C0853A19F421E830E4E5
:103E000072C0863A19F023E830E46DC022E830E44D
:103E10006AC0883A19F422EE34E465C0893A19F48C
:103E200029EE34E460C08A3A19F42AEE34E45BC027
:103E30008B3A19F425EB34E456C08C3A19F426EB8E
:103E400034E451C08D3A19F427EB34E44CC0803B84
:103E500019F42CEC34E447C08E3A19F42DEC34E418
:103E600042C08F3A19F423E835E43DC0813B19F490
:103E70002AE835E438C0823B19F422E935E433C03E
:103E8000833B19F424E935E42EC0843B19F421E284
:103E900036E429C0853B19F423E236E424C0863B8E
:103EA00019F424E236E41FC0873B19F425E236E416
:103EB0001AC0883B19F426E236E415C0893B19F490
:103EC00027E236E410C08A3B19F020E034E40BC04E
:103ED0002AE236E408C030E0306505C021E030E079
:103EE00002C020E030E0C90108950E94B708803E7A
:103EF000B0F4803C20F5813309F460C0823338F49B
:103F0000893209F453C08A3209F067C05CC0893332
:103F1000C9F08238B9F0853309F05FC042C0833EF2
:103F200029F1843E30F4803EA1F0823E09F055C074
:103F300018C0863E29F1873E09F04FC026C00E9476
:103F4000B30808959091B50190FD09C091FD07C097
:103F500041C08091B50180FF02C089E33BC080EE83
:103F600039C08091B50182FD07C004C08091B501C0
:103F700082FF02C082EE2EC084FD0FC083EE2AC0F5
:103F80008091B50183FD07C004C08091B50183FF16
:103F900002C086EE1FC084FF02C080E01BC087EE17
:103FA00019C08091B50185FF05C006C08091B5019B
:103FB00085FF02C085E30EC089E20CC08091B50187
:103FC00086FF05C006C08091B50186FF02C081E36F
:103FD00001C08AE20E94E21E08950E94E21E089536
:103FE00082E084BD93E095BD9AEF97BD80936E000B
:103FF00008958FB7F8942091A2013091A3014091C8
:10400000A4015091A5018FBFC9010895EF92FF92BD
:104010000F931F93BC018FB7F894E090A201F0902A
:10402000A3010091A4011091A5018FBFA8019701E0
:1040300040705070CB01A0E0B0E0281739074A0764
:104040005B0720F09701261B370B05C09B012095CD
:1040500030952E0D3F1DC9011F910F91FF90EF90DC
:1040600008951F920F920FB60F9211248F939F9372
:10407000AF93BF938091A2019091A301A091A4015D
:10408000B091A5010196A11DB11D8093A20190934D
:10409000A301A093A401B093A501BF91AF919F91FB
:1040A0008F910F900FBE0F901F9018959093A701BE
:1040B0008093A60108950E947E0EF89480E29EE40B
:1040C00020E931E0F9013197F1F70197D9F787E05D
:1040D00090EBA7E0B0EB8093C5019093C601A0934D
:1040E000C701B093C8012CE088E190E00FB6F894C6
:1040F000A895809360000FBE20936000FFCF1F92B1
:104100000F920FB60F9211240F900FBE0F901F90B9
:1041100018950E94CF140E94812F08951F930E942A
:10412000FC0810E0812F0E94BC08892B11F081E06F
:1041300004C01F5F1530B1F780E01F91089580E043
:104140000E94CB0AF894A89523E488E190E00FB68A
:10415000F894A895809360000FBE2093600083B709
:10416000817F846083BF83B7816083BF78948895A3
:1041700083B78E7F83BF88E10FB6F8948093600089
:10418000109260000FBE08959B01AC01AA27BB27C7
:104190000097A105B10521F4DA01C90160E001C071
:1041A00060E1292F3A2F4B2F552721153105410565
:1041B000510519F49C01AD0101C0685FDA01C90124
:1041C00074E0B695A795979587957A95D1F700975E
:1041D000A105B10519F4DA01C90101C06C5F9C01A8
:1041E000AD01F2E05695479537952795FA95D1F7A9
:1041F000211531054105510519F49C01AD0101C09E
:104200006E5F5695479537952795211531054105E0
:10421000510509F06F5F862F0895282F22952F7082
:104220008295807F282B30E0C9018C7C9070959519
:1042300087959595879523733070220F331F220F32
:10424000331F822B282F30E0C9018A7A9070959510
:10425000879525753070220F331F822B08950F9399
:104260001F93192F0E940D21082F812F0E940D21CD
:10427000502F40E0282F30E0242B352BC9011F910F
:104280000F910895CF92DF92EF92FF920F931F93B9
:10429000CF93DF93082F10E081E0C82ED12C812F1F
:1042A0000E94BC087C01C0E0D0E0C6010C2E02C018
:1042B000880F991F0A94E2F78E219F21892B49F0DC
:1042C00080E06C2F712F0E94B708081711F481E06D
:1042D00008C02196CE30D10541F71F5F1530F9F6A1
:1042E00080E0DF91CF911F910F91FF90EF90DF90D1
:1042F000CF9008951F93182F8CE20E9442218823AB
:1043000019F0812F0E9442211F9108951F93CF938E
:10431000DF930E94EC22882311F40E94F72285EE9D
:1043200093E00E94050814E6C0E4DCE905C00E94A1
:10433000FC08CE010197F1F71150C8F78EED93E01C
:104340000E94050889E20E947A21882309F014C19D
:104350008AE20E947A21882311F00E94F72285E0E8
:104360000E947A21882311F00E945B200E94E7229C
:104370008093B60187E00E947A218823B9F18BE10E
:104380000E947A21882349F09091B601892F869561
:1043900080958170880F9D7F26C08EE00E947A21D3
:1043A000882359F09091B601892F8695869580953E
:1043B0008170880F880F9B7F16C080E10E947A2150
:1043C0009091B601882359F0892F86958695869518
:1043D00080958170880F880F880F977F04C0892F80
:1043E000809581709E7F982B9093B6018091B60145
:1043F0000E94D2220E94DD228093B50180EE0E94AD
:104400007A21882349F08091B501982F9095917079
:104410008E7F892B8093B50189E30E947A218823BE
:1044200059F09091B501892F869580958170880FFC
:104430009D7F982B9093B50182EE0E947A2188236C
:1044400069F09091B501892F869586958095817048
:10445000880F880F9B7F982B9093B50186EE0E9462
:104460007A21882379F09091B501892F86958695D8
:10447000869580958170880F880F880F977F982B7D
:104480009093B50183EE0E947A21882369F0909180
:10449000B501892F82958F70809581708295807F7C
:1044A0009F7E982B9093B50185E30E947A21882303
:1044B00079F09091B501892F8295869587708095C6
:1044C00081708295880F807E9F7D982B9093B50197
:1044D00081E30E947A21882389F09091B501892F88
:1044E0008295869586958370809581708295880FD8
:1044F000880F807C9F7B982B9093B5018091B501AC
:104500000E94C62287E20E947A21182F8EE10E9423
:104510007A21811112608FE10E947A218111146049
:1045200080E20E947A218111186081E20E947A2142
:104530008111106182E20E947A218111106283E26E
:104540000E947A218111106484E20E947A218111F3
:104550001068112341F0812F0E94CC22612F70E05E
:1045600080E090E007C00E94E22290E0A0E0B0E08E
:10457000BC01CD010E94D21DDF91CF911F91089502
:10458000682F86E090E00E94AB310895682F84E0A8
:1045900090E00E94AB310895682F83E090E00E9484
:1045A000AB310895682F82E090E00E94AB3108950E
:1045B00086E090E00E949D31089584E090E00E94A2
:1045C0009D31089583E090E00E949D31089582E03E
:1045D00090E00E949D31089580E090E00E94A53116
:1045E00020E08D5E9E4F09F421E0822F089580E047
:1045F00090E06DEE7EEF0E94B93182E090E060E0E5
:104600000E94AB3183E090E060E00E94AB3184E037
:1046100090E060E00E94AB3185E090E060E00E94B5
:10462000AB3186E090E060E00E94AB31089580916C
:10463000AE0180FF0BC09091110185E0989FC001F1
:104640001124959587959595879530C081FF09C070
:104650009091110185E0989FC0011124959587954F
:1046600025C082FF03C0909111010DC08091AD0162
:10467000882319F485E090E00895609112019091EB
:104680001101861728F085E0989FC00111240EC003
:10469000899F90011124C901880F991F880F991FC4
:1046A000820F931F70E00E947631CB018038910514
:1046B00010F08FE70895009709F481E00895809144
:1046C000AE0180FF05C0809113018695869518C0C4
:1046D00081FF04C080911301869512C082FF03C040
:1046E000809113010DC02091AD01222319F481E0C6
:1046F00090E008956091140180911301261710F045
:1047000090E007C0289FC001112470E00E9476311C
:10471000CB018038910510F08FE70895009709F4D8
:1047200081E00895803F21F40E941723819504C001
:10473000813F29F40E9417238093AA010895823FA4
:1047400021F40E941723819504C0833F29F40E941D
:1047500017238093A9010895893F19F40E945F23CC
:1047600005C08A3F31F40E945F2381958093AB019D
:1047700008958B3F21F40E945F23819504C08C3FF4
:1047800029F40E945F238093AC010895843F21F4B3
:104790008091A801816017C0853F21F48091A80114
:1047A000826011C0863F21F48091A80184600BC013
:1047B000873F21F48091A801886005C0883F31F4CB
:1047C0008091A80180618093A80108958D3F21F414
:1047D0008091AE01816005C08E3F31F48091AE01C1
:1047E00082608093AE0108958F3F29F48091AE01DD
:1047F00084608093AE010895803F29F48091AA01DE
:1048000087FF6FC007C0813F41F48091AA0118164D
:104810000CF067C01092AA0164C0823F29F4809115
:10482000A90187FF5EC007C0833F41F48091A901C1
:1048300018160CF056C01092A90153C0893F29F4F4
:104840008091AB0118163CF04CC08A3F39F480913E
:10485000AB0187FF46C01092AB0143C08B3F29F4E8
:104860008091AC0187FF3DC006C08C3F39F4809138
:10487000AC011816B4F51092AC0133C0843F21F49A
:104880008091A8018E7F05C0853F31F48091A801F9
:104890008D7F8093A80125C0863F21F48091A801D7
:1048A0008B7FF7CF873F21F48091A801877FF1CFDD
:1048B000883F21F48091A8018F7EEBCF8D3F21F4BA
:1048C0008091AE018E7F0BC08E3F21F48091AE01AE
:1048D0008D7F05C08F3F29F48091AE018B7F80933F
:1048E000AE018091A901882371F48091AA018823E7
:1048F00051F48091AB01882331F48091AC0188237D
:1049000011F41092AD010895E8EAF1E085E0DF01CD
:104910001D928A95E9F71092AD011092AE010895AB
:104920008091B60183FFC1C081E294E00E94050836
:1049300000D000D0EDB7FEB731968CE194E0ADB772
:10494000BEB712969C938E9311978091A801828393
:1049500013820E949E080F900F900F900F908AE193
:1049600094E00E94050800D000D087E194E0EDB704
:10497000FEB7928381838091A901992787FD909545
:10498000948383830E949E080F900F900F900F9046
:1049900085E194E00E94050800D000D082E194E017
:1049A000ADB7BEB712969C938E9311978091AA01D2
:1049B000992787FD909514969C938E9313970E9448
:1049C0009E080F900F900F900F9080E194E00E944E
:1049D000050800D000D08DE094E0EDB7FEB79283DB
:1049E00081838091AB01992787FD90959483838380
:1049F0000E949E080F900F900F900F908BE094E014
:104A00000E94050800D000D088E094E0ADB7BEB7A2
:104A100012969C938E9311978091AC01992787FDF4
:104A2000909514969C938E9313970E949E080F90D6
:104A30000F900F900F9085E094E00E94050800D041
:104A400000D0EDB7FEB7319682E094E0ADB7BEB7C7
:104A500012969C938E9311978091AD01828313825D
:104A60000E949E080F900F900F900F9080E094E0AE
:104A70000E94050800D000D0EDB7FEB731968DEF4B
:104A800093E0ADB7BEB712969C938E931197809129
:104A9000AE01828313820E949E080F900F900F90A8
:104AA0000F908AEF93E00E94050888EA91E00E9447
:104AB000FF120E94F91F9093B0018093AF010895F7
:104AC0001F938091AF019091B0010E940620AC012C
:104AD0002091AD01222321F08091100190E006C0C9
:104AE00090910F018AE0989FC0011124481759073F
:104AF00008F485C09091A901992369F48091AA01D5
:104B0000882349F48091AB01882329F48091AC017A
:104B1000882309F474C02F3F19F02F5F2093AD0153
:104B2000191624F40E9417238093A9018091A901EA
:104B300087FF05C00E94172381958093A90180916A
:104B4000AA01181624F40E9417238093AA018091C9
:104B5000AA0187FF05C00E94172381958093AA01AF
:104B60006091A901662339F11091AA01112319F16D
:104B7000772767FD7095872F972F0E94873023E353
:104B800033E343E35FE30E94EB300E9454306093D1
:104B9000A901612F772767FD7095872F972F0E94B6
:104BA000873023E333E343E35FE30E94EB300E946B
:104BB00054306093AA018091AB01181624F40E942E
:104BC0005F238093AB018091AB0187FF05C00E94FA
:104BD0005F2381958093AB018091AC01181624F47A
:104BE0000E945F238093AC018091AC0187FF05C0D8
:104BF0000E945F2381958093AC010E9490241F91B5
:104C0000089580E0089584E59AE00E94050887E40D
:104C10009AE00E9405088AE39AE00E940508089538
:104C20008BEA9CE00E9405088EE99CE00E94050842
:104C300083E89CE00E94050888E69CE00E94050845
:104C400080E59CE00E94050886E39CE00E94050840
:104C500088E19CE00E94050888EF9BE00E9405081F
:104C600084EE9BE00E9405088DEC9BE00E94050805
:104C700081EB9BE00E94050883E99BE00E94050808
:104C800084E79BE00E94050883E59BE00E940508FD
:104C90008EE19BE00E94050889E09BE00E940508E8
:104CA00000D000D086E09BE0EDB7FEB79283818311
:104CB00085E090E0948383830E949E080F900F907C
:104CC0000F900F908DEF9AE00E94050800D000D061
:104CD0008AEF9AE0EDB7FEB79283818381E090E09E
:104CE000948383830E949E080F900F900F900F90E3
:104CF00088EF9AE00E9405088BEC9AE00E94050874
:104D00000895833009F46EC0843030F4813071F03E
:104D1000823009F022C138C0853009F4BFC0853027
:104D200008F48EC0863009F018C1E8C020910F0148
:104D3000822F90E0860F911D8F3F910520F4260F62
:104D400020930F0103C08FEF80930F0188E69EE050
:104D50000E94050800D000D0EDB7FEB7319685E679
:104D60009EE0ADB7BEB712969C938E93119780913B
:104D70000F01828313820E949E080F900F900F9064
:104D80000F9083E69EE0B7C020911001822F90E043
:104D9000860F911D8F3F910520F4260F209310015F
:104DA00003C08FEF8093100184E59EE00E94050808
:104DB00000D000D0EDB7FEB7319681E59EE0ADB7EB
:104DC000BEB712969C938E931197809110018283A7
:104DD00013820E949E080F900F900F900F908FE407
:104DE0009EE089C020911101822F90E0860F911DD5
:104DF0008F3F910520F4260F2093110103C08FEF00
:104E0000809311018FE39EE00E94050800D000D03E
:104E1000EDB7FEB731968CE39EE0ADB7BEB7129604
:104E20009C938E93119780911101828313820E942B
:104E30009E080F900F900F900F908AE39EE05BC04A
:104E400020911201822F90E0860F911D8F3F9105D6
:104E500020F4260F2093120103C08FEF80931201DC
:104E600088E29EE00E94050800D000D0EDB7FEB7B2
:104E7000319685E29EE0ADB7BEB712969C938E93B5
:104E8000119780911201828313820E949E080F90D5
:104E90000F900F900F9083E29EE02DC020911301A0
:104EA000822F90E0860F911D8F3F910520F4260FF1
:104EB0002093130103C08FEF809313018DE09EE0D8
:104EC0000E94050800D000D0EDB7FEB731968AE009
:104ED0009EE0ADB7BEB712969C938E9311978091CA
:104EE0001301828313820E949E080F900F900F90EF
:104EF0000F9088E09EE00E9405080895209114011B
:104F0000822F90E0860F911D8F3F910520F4260F90
:104F10002093140103C08FEF8093140180EF9DE074
:104F20000E94050800D000D0EDB7FEB731968DEE97
:104F30009DE0ADB7BEB712969C938E93119780916A
:104F40001401828313820E949E080F900F900F908D
:104F50000F908BEE9DE00E9405080895833009F4C0
:104F600062C0843030F4813071F0823009F0FEC0CC
:104F700032C0853009F4A7C0853008F47CC0863083
:104F800009F0F4C0CAC080910F01681720F4861B95
:104F900080930F0102C010920F0181EF9EE00E94EA
:104FA000050800D000D0EDB7FEB731968EEE9EE03A
:104FB000ADB7BEB712969C938E93119780910F0157
:104FC000828313820E949E080F900F900F900F9083
:104FD0008CEE9EE09FC080911001681720F4861B24
:104FE0008093100102C0109210018DED9EE00E948E
:104FF000050800D000D0EDB7FEB731968AED9EE0EF
:10500000ADB7BEB712969C938E9311978091100105
:10501000828313820E949E080F900F900F900F9032
:1050200088ED9EE077C080911101681720F4861BFF
:105030008093110102C01092110188EC9EE00E9441
:10504000050800D000D0EDB7FEB7319685EC9EE0A4
:10505000ADB7BEB712969C938E93119780911101B4
:10506000828313820E949E080F900F900F900F90E2
:1050700083EC9EE04FC080911201681720F4861BDC
:105080008093120102C01092120181EB9EE00E94F7
:10509000050800D000D0EDB7FEB731968EEA9EE04D
:1050A000ADB7BEB712969C938E9311978091120163
:1050B000828313820E949E080F900F900F900F9092
:1050C0008CEA9EE027C080911301681720F4861BAC
:1050D0008093130102C01092130186E99EE00E94A2
:1050E000050800D000D0EDB7FEB7319683E99EE009
:1050F000ADB7BEB712969C938E9311978091130112
:10510000828313820E949E080F900F900F900F9041
:1051100081E99EE00E9405080895809114016817B6
:1051200020F4861B8093140102C01092140189E7B9
:105130009EE00E94050800D000D0EDB7FEB7319682
:1051400086E79EE0ADB7BEB712969C938E931197FB
:1051500080911401828313820E949E080F900F9009
:105160000F900F9084E79EE00E94050808951F931A
:10517000182F8DE79AE00E940508609187017091D1
:1051800088018091890190918A010E94C42000D0F9
:1051900000D0EDB7FEB731962AE73AE0ADB7BEB71B
:1051A00012963C932E931197828313820E949E083D
:1051B0000F900F900F900F9085E79AE00E940508DE
:1051C00000D000D0EDB7FEB7319682E79AE0ADB7D8
:1051D000BEB712969C938E931197128313820E94EE
:1051E0009E080F900F900F900F9080E79AE00E941A
:1051F000050861E070E080E090E004C0660F771F72
:10520000881F991F1A95D2F70E94D21D0E94CF14B1
:105210001F9108951F93182F8091B101813009F4D7
:10522000C5C3813020F0823009F07BC5EAC3E0912C
:105230000D01F0910E018081823209F074C5812F39
:105240000E940126882309F0AEC3812F90E0FC0163
:105250003697E334F10508F09FC3EA5AFF4FEE0F8B
:10526000FF1F0590F491E02D099480EE96E00E94D6
:1052700005088CE498E00E9405080E94E22200D014
:1052800000D0EDB7FEB7319629E438E0ADB7BEB730
:1052900012963C932E931197828313820E949E084C
:1052A0000F900F900F900F9087E498E00E940508F0
:1052B0000E94E722182F84E398E00E94050800D09E
:1052C00000D0EDB7FEB731968FE298E0ADB7BEB72C
:1052D00012969C938E931197128313820E949E08BC
:1052E0000F900F900F900F908DE298E00E940508AC
:1052F00083E298E00E94050800D000D0EDB7FEB729
:10530000319680E298E0ADB7BEB712969C938E932B
:105310001197812F8170828313820E949E080F90C3
:105320000F900F900F908EE198E00E94050884E1A5
:1053300098E00E94050800D000D0EDB7FEB7319686
:1053400081E198E0ADB7BEB712969C938E9311970A
:10535000812F86958170828313820E949E080F9010
:105360000F900F900F908FE098E00E94050883E067
:1053700098E00E94050800D000D0EDB7FEB7319646
:1053800080E098E0ADB7BEB712969C938E931197CC
:1053900016951695812F8170828313820E949E0834
:1053A0000F900F900F900F908EEF97E00E940508DE
:1053B00085EF97E00E94050800D000D0EDB7FEB75A
:1053C000319682EF97E0ADB7BEB712969C938E935D
:1053D000119716951170128313820E949E080F90E8
:1053E0000F900F900F9080EF97E00E9405080E94A9
:1053F000DD22182F8CED97E00E94050800D000D028
:10540000EDB7FEB7319687ED97E0ADB7BEB7129610
:105410009C938E931197128313820E949E080F9083
:105420000F900F900F9085ED97E00E9405088CEB90
:1054300097E00E94050800D000D0EDB7FEB7319686
:1054400089EB97E0ADB7BEB712969C938E931197F8
:10545000812F8170828313820E949E080F900F908B
:105460000F900F9087EB97E00E94050880EA97E085
:105470000E94050800D000D0EDB7FEB731968DE947
:1054800097E0ADB7BEB712969C938E931197812F7C
:1054900086958170828313820E949E080F900F90E0
:1054A0000F900F908BE997E00E94050889E897E03C
:1054B0000E94050800D000D0EDB7FEB7319686E80F
:1054C00097E0ADB7BEB712969C938E931197812F3C
:1054D000869586958170828313820E949E080F9024
:1054E0000F900F900F9084E897E00E94050882E7E4
:1054F00097E00E94050800D000D0EDB7FEB73196C6
:105500008FE697E0ADB7BEB712969C938E93119736
:10551000812F8695869586958170828313820E945D
:105520009E080F900F900F900F908DE697E00E94CD
:10553000050883E697E00E94050800D000D0EDB78B
:10554000FEB7319680E697E0ADB7BEB712969C9352
:105550008E931197812F82958170828313820E948E
:105560009E080F900F900F900F908EE597E00E948D
:1055700005088CE497E00E94050800D000D0EDB744
:10558000FEB7319689E497E0ADB7BEB712969C930B
:105590008E931197129516951770812F81708283C3
:1055A00013820E949E080F900F900F900F9087E437
:1055B00097E00E9405088BE297E00E94050800D062
:1055C00000D0EDB7FEB7319688E297E0ADB7BEB731
:1055D00012969C938E9311971695117012831382D5
:1055E0000E949E080F900F900F900F9086E297E018
:1055F0000E9405080E94D822182F8FE097E00E9491
:10560000050800D000D0EDB7FEB731968AE097E0EC
:10561000ADB7BEB712969C938E93119712831382E7
:105620000E949E080F900F900F900F9088E097E0D7
:105630000E9405088EEF96E00E94050800D000D079
:10564000EDB7FEB731968BEF96E0ADB7BEB71296C9
:105650009C938E931197812F8170828313820E9475
:105660009E080F900F900F900F9089EF96E00E9488
:10567000050880EF96E00E94050800D000D0EDB745
:10568000FEB731968DEE96E0ADB7BEB712969C93FD
:105690008E9311971695128313820E949E080F9085
:1056A0000F900F900F908BEE96E04EC10E94ED127E
:1056B000892B69F00E94ED129093B3018093B2019F
:1056C00080E090E00E94E81287ED96E03DC1809175
:1056D000B2019091B3010E94E8128CEC96E034C1C3
:1056E0008EE19AE00E94050887E09AE00E94050892
:1056F0008FEE99E00E94050887ED99E00E94050869
:105700008DEB99E00E94050886EA99E00E94050861
:1057100086E899E00E94050880E799E00E94050864
:105720008FE599E00E94050887E499E00E9405084A
:1057300087E399E00E9405088DE199E00E94050841
:1057400084E099E00E9405088BEE98E00E9405082D
:1057500082ED98E00E94050889EB98E00E94050818
:1057600088E998E00E94050886E798E00E9405080D
:105770008CE598E0E9C08091B601807F8093B60106
:105780000E94032687EB96E00E94050883EB96E0D3
:105790000E94050881E08093B10105C10E94CF14E9
:1057A0008AE996E00E94050880E197E220E931E06D
:1057B000F9013197F1F70197D9F70E945B208AE848
:1057C00096E0C2C08091B60180FF08C087E796E0EE
:1057D0000E9405088091B601807F46C085E696E06C
:1057E0003EC08091B601982F969590959170292F83
:1057F000220F8D7F822B8093B601992319F08CE4C0
:1058000096E02DC082E396E09FC08091B601982F6C
:105810009695969590959170292F220F220F8B7F48
:10582000822B8093B601992319F087E196E017C087
:105830008BEF95E089C08091B601982F969596954B
:10584000969590959170292F220F220F220F877F16
:10585000822B8093B601992351F083EE95E00E944C
:1058600005088091B60181608093B6019CC08AECE6
:1058700095E06AC083EB95E00E9405088AE895E010
:105880000E94050885E595E00E94050888E295E0FC
:105890000E94050884ED94E00E94050889EA94E0DE
:1058A00053C02091A2013091A3014091A4015091D5
:1058B000A50100D000D000D085E994E0EDB7FEB797
:1058C00092838183ADB7BEB713962D933D934D93CD
:1058D0005C9316970E949E0881E090E0EDB7FEB7BA
:1058E00036960FB6F894FEBF0FBEEDBF1DC28FE710
:1058F00094E00E9405080E94F21200D000D0EDB79B
:10590000FEB7319625E634E0ADB7BEB712963C93AC
:105910002E931197828313820E949E0881E090E06B
:105920000F900F900F900F90FFC10E94CF148091A5
:105930003D0191E0892780933D01882319F086E598
:1059400094E002C086E494E00E9405082CC081E83F
:1059500090E00E940A1388EE93E020E931E0F9011B
:105960003197F1F70197D9F780E090E00E940A1390
:1059700088E893E120E931E0F9013197F1F70197E7
:10598000D9F711C080E005C0812F8D5102C0812F51
:1059900089530E94B72807C084E494E00E94050858
:1059A00080E090E0C1C181E090E0BEC1143181F09F
:1059B000153128F41B3039F0103101F510C01932BF
:1059C00039F01833D9F40E94032684E99AE0A6C17D
:1059D00087EB9AE00E9405081092B1010DC00E9469
:1059E00010268EE99AE00E9405088AE99AE00E9452
:1059F000050882E08093B10181E096C188E99AE0D0
:105A00008DC1183288F41E3108F0F1C01B3009F145
:105A10001C3020F4173009F061C14BC1133151F132
:105A2000143109F05BC118C01B3409F436C11C34B1
:105A300030F4193289F0183309F050C10AC0113519
:105A400009F427C1123509F420C11E3409F046C1FA
:105A50002AC10E94102645C11092B40180E19DE048
:105A60000E9405088CE09DE00E94050881E080937B
:105A7000B1015AC188EC9DE00E94050883EB9DE0CE
:105A80000E94050800D000D0EDB7FEB7319680EB3C
:105A90009DE0ADB7BEB712969C938E9311978091FF
:105AA0000F01828313820E949E080F900F900F9027
:105AB0000F908EEA9DE00E94050889E99DE00E9412
:105AC000050800D000D0EDB7FEB7319686E99DE01D
:105AD000ADB7BEB712969C938E931197809110012B
